{
  "address": "0x490B25BD6D017ac53630d4e4204b70a5c02837A4",
  "abi": [
    {
      "inputs": [
        {
          "internalType": "address",
          "name": "snook_",
          "type": "address"
        },
        {
          "internalType": "address",
          "name": "skill_",
          "type": "address"
        },
        {
          "internalType": "address",
          "name": "uniswap_",
          "type": "address"
        }
      ],
      "stateMutability": "nonpayable",
      "type": "constructor"
    },
    {
      "anonymous": false,
      "inputs": [
        {
          "indexed": true,
          "internalType": "address",
          "name": "to",
          "type": "address"
        },
        {
          "indexed": false,
          "internalType": "uint256",
          "name": "tokenId",
          "type": "uint256"
        }
      ],
      "name": "Birth",
      "type": "event"
    },
    {
      "anonymous": false,
      "inputs": [
        {
          "indexed": true,
          "internalType": "address",
          "name": "to",
          "type": "address"
        },
        {
          "indexed": false,
          "internalType": "uint256",
          "name": "tokenId",
          "type": "uint256"
        }
      ],
      "name": "Death",
      "type": "event"
    },
    {
      "anonymous": false,
      "inputs": [
        {
          "indexed": true,
          "internalType": "address",
          "name": "from",
          "type": "address"
        },
        {
          "indexed": false,
          "internalType": "uint256",
          "name": "tokenId",
          "type": "uint256"
        }
      ],
      "name": "Entrance",
      "type": "event"
    },
    {
      "anonymous": false,
      "inputs": [
        {
          "indexed": true,
          "internalType": "address",
          "name": "to",
          "type": "address"
        },
        {
          "indexed": false,
          "internalType": "uint256",
          "name": "tokenId",
          "type": "uint256"
        }
      ],
      "name": "Extraction",
      "type": "event"
    },
    {
      "anonymous": false,
      "inputs": [
        {
          "indexed": true,
          "internalType": "address",
          "name": "from",
          "type": "address"
        },
        {
          "indexed": false,
          "internalType": "uint256",
          "name": "tokenId",
          "type": "uint256"
        }
      ],
      "name": "GameAllowed",
      "type": "event"
    },
    {
      "anonymous": false,
      "inputs": [
        {
          "indexed": true,
          "internalType": "address",
          "name": "previousOwner",
          "type": "address"
        },
        {
          "indexed": true,
          "internalType": "address",
          "name": "newOwner",
          "type": "address"
        }
      ],
      "name": "OwnershipTransferred",
      "type": "event"
    },
    {
      "anonymous": false,
      "inputs": [
        {
          "indexed": true,
          "internalType": "address",
          "name": "from",
          "type": "address"
        },
        {
          "indexed": false,
          "internalType": "uint256",
          "name": "tokenId",
          "type": "uint256"
        }
      ],
      "name": "Ressurection",
      "type": "event"
    },
    {
      "inputs": [
        {
          "internalType": "uint256",
          "name": "tokenId",
          "type": "uint256"
        }
      ],
      "name": "allowGame",
      "outputs": [],
      "stateMutability": "nonpayable",
      "type": "function"
    },
    {
      "inputs": [],
      "name": "bury",
      "outputs": [],
      "stateMutability": "nonpayable",
      "type": "function"
    },
    {
      "inputs": [
        {
          "internalType": "uint256",
          "name": "tokenId",
          "type": "uint256"
        }
      ],
      "name": "describe",
      "outputs": [
        {
          "internalType": "uint256",
          "name": "ressurectionPrice",
          "type": "uint256"
        },
        {
          "internalType": "uint256",
          "name": "ressurectionCount",
          "type": "uint256"
        },
        {
          "internalType": "uint256",
          "name": "stars",
          "type": "uint256"
        }
      ],
      "stateMutability": "view",
      "type": "function"
    },
    {
      "inputs": [
        {
          "internalType": "uint256",
          "name": "tokenId",
          "type": "uint256"
        }
      ],
      "name": "enterGame",
      "outputs": [],
      "stateMutability": "nonpayable",
      "type": "function"
    },
    {
      "inputs": [
        {
          "internalType": "uint256",
          "name": "tokenId",
          "type": "uint256"
        },
        {
          "internalType": "uint256",
          "name": "traitCount",
          "type": "uint256"
        },
        {
          "internalType": "uint256",
          "name": "stars",
          "type": "uint256"
        },
        {
          "internalType": "uint256",
          "name": "score",
          "type": "uint256"
        },
        {
          "internalType": "string",
          "name": "tokenURI_",
          "type": "string"
        }
      ],
      "name": "extractSnook",
      "outputs": [],
      "stateMutability": "nonpayable",
      "type": "function"
    },
    {
      "inputs": [
        {
          "internalType": "uint256[]",
          "name": "tokenIds",
          "type": "uint256[]"
        }
      ],
      "name": "extractSnooksWithoutUpdate",
      "outputs": [],
      "stateMutability": "nonpayable",
      "type": "function"
    },
    {
      "inputs": [
        {
          "internalType": "address",
          "name": "to",
          "type": "address"
        },
        {
          "internalType": "uint256",
          "name": "traitCount",
          "type": "uint256"
        },
        {
          "internalType": "uint256",
          "name": "stars",
          "type": "uint256"
        },
        {
          "internalType": "uint256",
          "name": "score",
          "type": "uint256"
        },
        {
          "internalType": "string",
          "name": "tokenURI_",
          "type": "string"
        }
      ],
      "name": "mint",
      "outputs": [],
      "stateMutability": "nonpayable",
      "type": "function"
    },
    {
      "inputs": [],
      "name": "owner",
      "outputs": [
        {
          "internalType": "address",
          "name": "",
          "type": "address"
        }
      ],
      "stateMutability": "view",
      "type": "function"
    },
    {
      "inputs": [],
      "name": "renounceOwnership",
      "outputs": [],
      "stateMutability": "nonpayable",
      "type": "function"
    },
    {
      "inputs": [
        {
          "internalType": "uint256",
          "name": "tokenId",
          "type": "uint256"
        }
      ],
      "name": "ressurect",
      "outputs": [],
      "stateMutability": "nonpayable",
      "type": "function"
    },
    {
      "inputs": [
        {
          "internalType": "uint256",
          "name": "tokenId",
          "type": "uint256"
        },
        {
          "internalType": "uint256",
          "name": "onRessurectionTraitCount",
          "type": "uint256"
        },
        {
          "internalType": "uint256",
          "name": "onRessurectionStars",
          "type": "uint256"
        },
        {
          "internalType": "uint256",
          "name": "onRessurectionScore",
          "type": "uint256"
        },
        {
          "internalType": "string",
          "name": "onRessurectionTokenURI",
          "type": "string"
        }
      ],
      "name": "setDeathTime",
      "outputs": [],
      "stateMutability": "nonpayable",
      "type": "function"
    },
    {
      "inputs": [
        {
          "internalType": "address",
          "name": "newOwner",
          "type": "address"
        }
      ],
      "name": "transferOwnership",
      "outputs": [],
      "stateMutability": "nonpayable",
      "type": "function"
    }
  ],
  "transactionHash": "0x5f5e61259d73ac4c82ee2513ee72c851f4ac32210f489d59dd05682674166e31",
  "args": [
    "0x524e2544e8f39b544fC206c652f216A054c9Df9c",
    "0x797Ca061B13e130CC49cB8d0b1af38EAC02b0D80",
    "0xa6aF63582ED4ca12e756e96717Bf55Db8EEB00B1"
  ],
  "solcInputHash": "b05b3f56c292ccf1c85484aa2c8851a3",
  "bytecode": "0x60806040523480156200001157600080fd5b5060405162004846380380620048468339818101604052810190620000379190620001d2565b600062000049620001b360201b60201c565b9050806000806101000a81548173ffffffffffffffffffffffffffffffffffffffff021916908373ffffffffffffffffffffffffffffffffffffffff1602179055508073ffffffffffffffffffffffffffffffffffffffff16600073ffffffffffffffffffffffffffffffffffffffff167f8be0079c531659141344cd1fd0a4f28419497f9722a3daafe3b4186f6b6457e060405160405180910390a35082600160006101000a81548173ffffffffffffffffffffffffffffffffffffffff021916908373ffffffffffffffffffffffffffffffffffffffff16021790555081600260006101000a81548173ffffffffffffffffffffffffffffffffffffffff021916908373ffffffffffffffffffffffffffffffffffffffff16021790555080600360006101000a81548173ffffffffffffffffffffffffffffffffffffffff021916908373ffffffffffffffffffffffffffffffffffffffff16021790555050505062000276565b600033905090565b600081519050620001cc816200025c565b92915050565b600080600060608486031215620001e857600080fd5b6000620001f886828701620001bb565b93505060206200020b86828701620001bb565b92505060406200021e86828701620001bb565b9150509250925092565b600062000235826200023c565b9050919050565b600073ffffffffffffffffffffffffffffffffffffffff82169050919050565b620002678162000228565b81146200027357600080fd5b50565b6145c080620002866000396000f3fe608060405234801561001057600080fd5b50600436106100b45760003560e01c80638da5cb5b116100715780638da5cb5b1461013d578063912774f11461015b578063b6ad335b14610177578063cb3794d414610193578063f2fde38b146101af578063f7707537146101cb576100b4565b80633c90255b146100b95780633edfd954146100d557806343d6582b146100f157806356f59a461461010d57806361161aae14610129578063715018a614610133575b600080fd5b6100d360048036038101906100ce9190613af3565b6101fd565b005b6100ef60048036038101906100ea91906139a8565b61049c565b005b61010b60048036038101906101069190613aa1565b610983565b005b61012760048036038101906101229190613a37565b610c8d565b005b610131610d75565b005b61013b6110e3565b005b61014561121d565b6040516101529190613f74565b60405180910390f35b61017560048036038101906101709190613aa1565b611246565b005b610191600480360381019061018c9190613aa1565b6113e4565b005b6101ad60048036038101906101a89190613af3565b6118eb565b005b6101c960048036038101906101c49190613956565b611cf7565b005b6101e560048036038101906101e09190613aa1565b611ea0565b6040516101f493929190614223565b60405180910390f35b61020561200f565b73ffffffffffffffffffffffffffffffffffffffff1661022361121d565b73ffffffffffffffffffffffffffffffffffffffff1614610279576040517f08c379a00000000000000000000000000000000000000000000000000000000081526004016102709061409f565b60405180910390fd5b600115156004600087815260200190815260200160002060090160009054906101000a900460ff161515146102e3576040517f08c379a00000000000000000000000000000000000000000000000000000000081526004016102da9061405f565b60405180910390fd5b4260046000878152602001908152602001600020600a018190555061030785612017565b60046000878152602001908152602001600020600601819055508360046000878152602001908152602001600020600501819055508260046000878152602001908152602001600020600301819055508160046000878152602001908152602001600020600101819055508060046000878152602001908152602001600020600801908051906020019061039c92919061370c565b50600160009054906101000a900473ffffffffffffffffffffffffffffffffffffffff1673ffffffffffffffffffffffffffffffffffffffff16636352211e866040518263ffffffff1660e01b81526004016103f8919061417f565b60206040518083038186803b15801561041057600080fd5b505afa158015610424573d6000803e3d6000fd5b505050506040513d601f19601f82011682018060405250810190610448919061397f565b73ffffffffffffffffffffffffffffffffffffffff167fae995c79a88e396955e94cb3d6a80e56e1269ee8f5f9c3ab36de945cb05affbe8660405161048d919061417f565b60405180910390a25050505050565b6104a461200f565b73ffffffffffffffffffffffffffffffffffffffff166104c261121d565b73ffffffffffffffffffffffffffffffffffffffff1614610518576040517f08c379a000000000000000000000000000000000000000000000000000000000815260040161050f9061409f565b60405180910390fd5b6000600360009054906101000a900473ffffffffffffffffffffffffffffffffffffffff1673ffffffffffffffffffffffffffffffffffffffff1663b7d002076040518163ffffffff1660e01b815260040160206040518083038186803b15801561058257600080fd5b505afa158015610596573d6000803e3d6000fd5b505050506040513d601f19601f820116820180604052508101906105ba9190613aca565b9050600260009054906101000a900473ffffffffffffffffffffffffffffffffffffffff1673ffffffffffffffffffffffffffffffffffffffff166323b872dd8730846040518463ffffffff1660e01b815260040161061b93929190613f8f565b602060405180830381600087803b15801561063557600080fd5b505af1158015610649573d6000803e3d6000fd5b505050506040513d601f19601f8201168201806040525081019061066d9190613a78565b6106ac576040517f08c379a00000000000000000000000000000000000000000000000000000000081526004016106a39061415f565b60405180910390fd5b6000600160009054906101000a900473ffffffffffffffffffffffffffffffffffffffff1673ffffffffffffffffffffffffffffffffffffffff1663d0def52188856040518363ffffffff1660e01b815260040161070b929190613fc6565b602060405180830381600087803b15801561072557600080fd5b505af1158015610739573d6000803e3d6000fd5b505050506040513d601f19601f8201168201806040525081019061075d9190613aca565b90506040518061018001604052808581526020016000815260200186815260200160008152602001878152602001600081526020016000815260200160008152602001604051806020016040528060008152508152602001600015158152602001600081526020016000151581525060046000838152602001908152602001600020600082015181600001556020820151816001015560408201518160020155606082015181600301556080820151816004015560a0820151816005015560c0820151816006015560e0820151816007015561010082015181600801908051906020019061084c92919061370c565b506101208201518160090160006101000a81548160ff02191690831515021790555061014082015181600a015561016082015181600b0160006101000a81548160ff021916908315150217905550905050600260009054906101000a900473ffffffffffffffffffffffffffffffffffffffff1673ffffffffffffffffffffffffffffffffffffffff16639dc29fac30846040518363ffffffff1660e01b81526004016108fa929190613ff6565b600060405180830381600087803b15801561091457600080fd5b505af1158015610928573d6000803e3d6000fd5b505050508673ffffffffffffffffffffffffffffffffffffffff167fe3e9cb4c9675332e1e71c04808555c8071daa68327830cac01cc33d4087a64e982604051610972919061417f565b60405180910390a250505050505050565b61098b61200f565b73ffffffffffffffffffffffffffffffffffffffff166109a961121d565b73ffffffffffffffffffffffffffffffffffffffff16146109ff576040517f08c379a00000000000000000000000000000000000000000000000000000000081526004016109f69061409f565b60405180910390fd5b600015156004600083815260200190815260200160002060090160009054906101000a900460ff16151514610a69576040517f08c379a0000000000000000000000000000000000000000000000000000000008152600401610a60906140ff565b60405180910390fd5b6001151560046000838152602001908152602001600020600b0160009054906101000a900460ff16151514610ad3576040517f08c379a0000000000000000000000000000000000000000000000000000000008152600401610aca9061407f565b60405180910390fd5b600160009054906101000a900473ffffffffffffffffffffffffffffffffffffffff1673ffffffffffffffffffffffffffffffffffffffff1663346c94cf8260016040518363ffffffff1660e01b8152600401610b3192919061419a565b600060405180830381600087803b158015610b4b57600080fd5b505af1158015610b5f573d6000803e3d6000fd5b5050505060016004600083815260200190815260200160002060090160006101000a81548160ff021916908315150217905550600160009054906101000a900473ffffffffffffffffffffffffffffffffffffffff1673ffffffffffffffffffffffffffffffffffffffff16636352211e826040518263ffffffff1660e01b8152600401610bed919061417f565b60206040518083038186803b158015610c0557600080fd5b505afa158015610c19573d6000803e3d6000fd5b505050506040513d601f19601f82011682018060405250810190610c3d919061397f565b73ffffffffffffffffffffffffffffffffffffffff167f1c0251a31b09c979bf5ff3067d4a40b935e1e8c6a0a4df1340f878ceb028f10182604051610c82919061417f565b60405180910390a250565b610c9561200f565b73ffffffffffffffffffffffffffffffffffffffff16610cb361121d565b73ffffffffffffffffffffffffffffffffffffffff1614610d09576040517f08c379a0000000000000000000000000000000000000000000000000000000008152600401610d009061409f565b60405180910390fd5b60005b8151811015610d7157610d5e828281518110610d51577f4e487b7100000000000000000000000000000000000000000000000000000000600052603260045260246000fd5b6020026020010151612147565b8080610d699061445e565b915050610d0c565b5050565b610d7d61200f565b73ffffffffffffffffffffffffffffffffffffffff16610d9b61121d565b73ffffffffffffffffffffffffffffffffffffffff1614610df1576040517f08c379a0000000000000000000000000000000000000000000000000000000008152600401610de89061409f565b60405180910390fd5b60005b600160009054906101000a900473ffffffffffffffffffffffffffffffffffffffff1673ffffffffffffffffffffffffffffffffffffffff166318160ddd6040518163ffffffff1660e01b815260040160206040518083038186803b158015610e5c57600080fd5b505afa158015610e70573d6000803e3d6000fd5b505050506040513d601f19601f82011682018060405250810190610e949190613aca565b8110156110e0576000600160009054906101000a900473ffffffffffffffffffffffffffffffffffffffff1673ffffffffffffffffffffffffffffffffffffffff16634f6ccce7836040518263ffffffff1660e01b8152600401610ef8919061417f565b60206040518083038186803b158015610f1057600080fd5b505afa158015610f24573d6000803e3d6000fd5b505050506040513d601f19601f82011682018060405250810190610f489190613aca565b9050600115156004600083815260200190815260200160002060090160009054906101000a900460ff161515148015610fa35750610f3c42610f8a9190614318565b60046000838152602001908152602001600020600a0154105b156110cc57600160009054906101000a900473ffffffffffffffffffffffffffffffffffffffff1673ffffffffffffffffffffffffffffffffffffffff166342966c68826040518263ffffffff1660e01b8152600401611003919061417f565b600060405180830381600087803b15801561101d57600080fd5b505af1158015611031573d6000803e3d6000fd5b505050506004600082815260200190815260200160002060008082016000905560018201600090556002820160009055600382016000905560048201600090556005820160009055600682016000905560078201600090556008820160006110999190613792565b6009820160006101000a81549060ff0219169055600a820160009055600b820160006101000a81549060ff021916905550505b5080806110d89061445e565b915050610df4565b50565b6110eb61200f565b73ffffffffffffffffffffffffffffffffffffffff1661110961121d565b73ffffffffffffffffffffffffffffffffffffffff161461115f576040517f08c379a00000000000000000000000000000000000000000000000000000000081526004016111569061409f565b60405180910390fd5b600073ffffffffffffffffffffffffffffffffffffffff1660008054906101000a900473ffffffffffffffffffffffffffffffffffffffff1673ffffffffffffffffffffffffffffffffffffffff167f8be0079c531659141344cd1fd0a4f28419497f9722a3daafe3b4186f6b6457e060405160405180910390a360008060006101000a81548173ffffffffffffffffffffffffffffffffffffffff021916908373ffffffffffffffffffffffffffffffffffffffff160217905550565b60008060009054906101000a900473ffffffffffffffffffffffffffffffffffffffff16905090565b6000600160009054906101000a900473ffffffffffffffffffffffffffffffffffffffff1673ffffffffffffffffffffffffffffffffffffffff16636352211e836040518263ffffffff1660e01b81526004016112a3919061417f565b60206040518083038186803b1580156112bb57600080fd5b505afa1580156112cf573d6000803e3d6000fd5b505050506040513d601f19601f820116820180604052508101906112f3919061397f565b90503373ffffffffffffffffffffffffffffffffffffffff168173ffffffffffffffffffffffffffffffffffffffff1614611363576040517f08c379a000000000000000000000000000000000000000000000000000000000815260040161135a9061413f565b60405180910390fd5b600160046000848152602001908152602001600020600b0160006101000a81548160ff0219169083151502179055508073ffffffffffffffffffffffffffffffffffffffff167f12bae11c6883938b7e48a44cf253005c0ba036de7f6aa982ed3005597c7d1314836040516113d8919061417f565b60405180910390a25050565b6000600160009054906101000a900473ffffffffffffffffffffffffffffffffffffffff1673ffffffffffffffffffffffffffffffffffffffff16636352211e836040518263ffffffff1660e01b8152600401611441919061417f565b60206040518083038186803b15801561145957600080fd5b505afa15801561146d573d6000803e3d6000fd5b505050506040513d601f19601f82011682018060405250810190611491919061397f565b90503373ffffffffffffffffffffffffffffffffffffffff168173ffffffffffffffffffffffffffffffffffffffff1614611501576040517f08c379a00000000000000000000000000000000000000000000000000000000081526004016114f89061411f565b60405180910390fd5b600060046000848152602001908152602001600020600a01541161155a576040517f08c379a00000000000000000000000000000000000000000000000000000000081526004016115519061403f565b60405180910390fd5b600260009054906101000a900473ffffffffffffffffffffffffffffffffffffffff1673ffffffffffffffffffffffffffffffffffffffff166323b872dd823060046000878152602001908152602001600020600601546040518463ffffffff1660e01b81526004016115cf93929190613f8f565b602060405180830381600087803b1580156115e957600080fd5b505af11580156115fd573d6000803e3d6000fd5b505050506040513d601f19601f820116820180604052508101906116219190613a78565b61162a57600080fd5b60016004600084815260200190815260200160002060070160008282546116519190614318565b92505081905550600060046000848152602001908152602001600020600a0181905550600160009054906101000a900473ffffffffffffffffffffffffffffffffffffffff1673ffffffffffffffffffffffffffffffffffffffff1663162094c483600460008681526020019081526020016000206008016040518363ffffffff1660e01b81526004016116e69291906141f3565b600060405180830381600087803b15801561170057600080fd5b505af1158015611714573d6000803e3d6000fd5b5050505060046000838152602001908152602001600020600501546004600084815260200190815260200160002060040181905550600460008381526020019081526020016000206003015460046000848152602001908152602001600020600201819055506004600083815260200190815260200160002060010154600460008481526020019081526020016000206000018190555060006004600084815260200190815260200160002060090160006101000a81548160ff021916908315150217905550600060046000848152602001908152602001600020600b0160006101000a81548160ff021916908315150217905550600160009054906101000a900473ffffffffffffffffffffffffffffffffffffffff1673ffffffffffffffffffffffffffffffffffffffff1663346c94cf8360006040518363ffffffff1660e01b815260040161186792919061419a565b600060405180830381600087803b15801561188157600080fd5b505af1158015611895573d6000803e3d6000fd5b505050508073ffffffffffffffffffffffffffffffffffffffff167f635de93c531f71858abd0ece9557f458352b45f876b0810a46bd1adc0944a429836040516118df919061417f565b60405180910390a25050565b6118f361200f565b73ffffffffffffffffffffffffffffffffffffffff1661191161121d565b73ffffffffffffffffffffffffffffffffffffffff1614611967576040517f08c379a000000000000000000000000000000000000000000000000000000000815260040161195e9061409f565b60405180910390fd5b600115156004600087815260200190815260200160002060090160009054906101000a900460ff161515146119d1576040517f08c379a00000000000000000000000000000000000000000000000000000000081526004016119c89061405f565b60405180910390fd5b600060046000878152602001908152602001600020600a015414611a2a576040517f08c379a0000000000000000000000000000000000000000000000000000000008152600401611a21906140df565b60405180910390fd5b600160009054906101000a900473ffffffffffffffffffffffffffffffffffffffff1673ffffffffffffffffffffffffffffffffffffffff1663162094c486836040518363ffffffff1660e01b8152600401611a879291906141c3565b600060405180830381600087803b158015611aa157600080fd5b505af1158015611ab5573d6000803e3d6000fd5b5050505083600460008781526020019081526020016000206004018190555082600460008781526020019081526020016000206002018190555081600460008781526020019081526020016000206000018190555060006004600087815260200190815260200160002060090160006101000a81548160ff021916908315150217905550600060046000878152602001908152602001600020600b0160006101000a81548160ff021916908315150217905550600160009054906101000a900473ffffffffffffffffffffffffffffffffffffffff1673ffffffffffffffffffffffffffffffffffffffff1663346c94cf8660006040518363ffffffff1660e01b8152600401611bc692919061419a565b600060405180830381600087803b158015611be057600080fd5b505af1158015611bf4573d6000803e3d6000fd5b50505050600160009054906101000a900473ffffffffffffffffffffffffffffffffffffffff1673ffffffffffffffffffffffffffffffffffffffff16636352211e866040518263ffffffff1660e01b8152600401611c53919061417f565b60206040518083038186803b158015611c6b57600080fd5b505afa158015611c7f573d6000803e3d6000fd5b505050506040513d601f19601f82011682018060405250810190611ca3919061397f565b73ffffffffffffffffffffffffffffffffffffffff167f7faed872658ab10c4f98b4705a343cb26b9739b37e202617569d97fb3ddb7ef986604051611ce8919061417f565b60405180910390a25050505050565b611cff61200f565b73ffffffffffffffffffffffffffffffffffffffff16611d1d61121d565b73ffffffffffffffffffffffffffffffffffffffff1614611d73576040517f08c379a0000000000000000000000000000000000000000000000000000000008152600401611d6a9061409f565b60405180910390fd5b600073ffffffffffffffffffffffffffffffffffffffff168173ffffffffffffffffffffffffffffffffffffffff161415611de3576040517f08c379a0000000000000000000000000000000000000000000000000000000008152600401611dda9061401f565b60405180910390fd5b8073ffffffffffffffffffffffffffffffffffffffff1660008054906101000a900473ffffffffffffffffffffffffffffffffffffffff1673ffffffffffffffffffffffffffffffffffffffff167f8be0079c531659141344cd1fd0a4f28419497f9722a3daafe3b4186f6b6457e060405160405180910390a3806000806101000a81548173ffffffffffffffffffffffffffffffffffffffff021916908373ffffffffffffffffffffffffffffffffffffffff16021790555050565b60008060003373ffffffffffffffffffffffffffffffffffffffff16600160009054906101000a900473ffffffffffffffffffffffffffffffffffffffff1673ffffffffffffffffffffffffffffffffffffffff16636352211e866040518263ffffffff1660e01b8152600401611f17919061417f565b60206040518083038186803b158015611f2f57600080fd5b505afa158015611f43573d6000803e3d6000fd5b505050506040513d601f19601f82011682018060405250810190611f67919061397f565b73ffffffffffffffffffffffffffffffffffffffff1614611fbd576040517f08c379a0000000000000000000000000000000000000000000000000000000008152600401611fb4906140bf565b60405180910390fd5b6004600085815260200190815260200160002060060154600460008681526020019081526020016000206007015460046000878152602001908152602001600020600201549250925092509193909250565b600033905090565b6000600115156004600084815260200190815260200160002060090160009054906101000a900460ff16151514612083576040517f08c379a000000000000000000000000000000000000000000000000000000000815260040161207a9061405f565b60405180910390fd5b6000600360009054906101000a900473ffffffffffffffffffffffffffffffffffffffff1673ffffffffffffffffffffffffffffffffffffffff1663b7d002076040518163ffffffff1660e01b815260040160206040518083038186803b1580156120ed57600080fd5b505afa158015612101573d6000803e3d6000fd5b505050506040513d601f19601f820116820180604052508101906121259190613aca565b90506000612132846123f3565b905061213e8183612833565b92505050919050565b600115156004600083815260200190815260200160002060090160009054906101000a900460ff161515146121b1576040517f08c379a00000000000000000000000000000000000000000000000000000000081526004016121a89061405f565b60405180910390fd5b600060046000838152602001908152602001600020600a01541461220a576040517f08c379a0000000000000000000000000000000000000000000000000000000008152600401612201906140df565b60405180910390fd5b60006004600083815260200190815260200160002060090160006101000a81548160ff021916908315150217905550600060046000838152602001908152602001600020600b0160006101000a81548160ff021916908315150217905550600160009054906101000a900473ffffffffffffffffffffffffffffffffffffffff1673ffffffffffffffffffffffffffffffffffffffff1663346c94cf8260006040518363ffffffff1660e01b81526004016122c692919061419a565b600060405180830381600087803b1580156122e057600080fd5b505af11580156122f4573d6000803e3d6000fd5b50505050600160009054906101000a900473ffffffffffffffffffffffffffffffffffffffff1673ffffffffffffffffffffffffffffffffffffffff16636352211e826040518263ffffffff1660e01b8152600401612353919061417f565b60206040518083038186803b15801561236b57600080fd5b505afa15801561237f573d6000803e3d6000fd5b505050506040513d601f19601f820116820180604052508101906123a3919061397f565b73ffffffffffffffffffffffffffffffffffffffff167f7faed872658ab10c4f98b4705a343cb26b9739b37e202617569d97fb3ddb7ef9826040516123e8919061417f565b60405180910390a250565b60008061240060006128ee565b90506060600080600090505b600160009054906101000a900473ffffffffffffffffffffffffffffffffffffffff1673ffffffffffffffffffffffffffffffffffffffff166318160ddd6040518163ffffffff1660e01b815260040160206040518083038186803b15801561247457600080fd5b505afa158015612488573d6000803e3d6000fd5b505050506040513d601f19601f820116820180604052508101906124ac9190613aca565b8110156126c2576000600160009054906101000a900473ffffffffffffffffffffffffffffffffffffffff1673ffffffffffffffffffffffffffffffffffffffff16634f6ccce7836040518263ffffffff1660e01b8152600401612510919061417f565b60206040518083038186803b15801561252857600080fd5b505afa15801561253c573d6000803e3d6000fd5b505050506040513d601f19601f820116820180604052508101906125609190613aca565b90506004600082815260200190815260200160002060040154925082845110156125f6578267ffffffffffffffff8111156125c4577f4e487b7100000000000000000000000000000000000000000000000000000000600052604160045260246000fd5b6040519080825280602002602001820160405280156125f25781602001602082028036833780820191505090505b5093505b61265584600185612607919061436e565b8151811061263e577f4e487b7100000000000000000000000000000000000000000000000000000000600052603260045260246000fd5b602002602001015161265060016128ee565b612911565b84600185612663919061436e565b8151811061269a577f4e487b7100000000000000000000000000000000000000000000000000000000600052603260045260246000fd5b6020026020010190600f0b9081600f0b815250505080806126ba9061445e565b91505061240c565b506004600086815260200190815260200160002060040154905060005b818110156127465761273184848381518110612724577f4e487b7100000000000000000000000000000000000000000000000000000000600052603260045260246000fd5b6020026020010151612911565b9350808061273e9061445e565b9150506126df565b5060006127f1600160009054906101000a900473ffffffffffffffffffffffffffffffffffffffff1673ffffffffffffffffffffffffffffffffffffffff166318160ddd6040518163ffffffff1660e01b815260040160206040518083038186803b1580156127b457600080fd5b505afa1580156127c8573d6000803e3d6000fd5b505050506040513d601f19601f820116820180604052508101906127ec9190613aca565b6128ee565b90506127fd8482612978565b9350600061280a836128ee565b905061282761281886612a28565b6128228384612aa1565b612aa1565b95505050505050919050565b60008082141561284657600090506128e8565b600083600f0b121561285757600080fd5b600060406fffffffffffffffffffffffffffffffff841685600f0b02901c90506000608084901c85600f0b02905077ffffffffffffffffffffffffffffffffffffffffffffffff8111156128aa57600080fd5b604081901b9050817fffffffffffffffffffffffffffffffffffffffffffffffffffffffffffffffff038111156128e057600080fd5b818101925050505b92915050565b6000677fffffffffffffff82111561290557600080fd5b604082901b9050919050565b60008082600f0b84600f0b0190507fffffffffffffffffffffffffffffffff80000000000000000000000000000000600f0b811215801561296557506f7fffffffffffffffffffffffffffffff600f0b8113155b61296e57600080fd5b8091505092915050565b60008082600f0b141561298a57600080fd5b600082600f0b604085600f0b901b816129cc577f4e487b7100000000000000000000000000000000000000000000000000000000600052601260045260246000fd5b0590507fffffffffffffffffffffffffffffffff80000000000000000000000000000000600f0b8112158015612a1557506f7fffffffffffffffffffffffffffffff600f0b8113155b612a1e57600080fd5b8091505092915050565b60006840000000000000000082600f0b12612a4257600080fd5b7fffffffffffffffffffffffffffffffffffffffffffffffc0000000000000000082600f0b1215612a765760009050612a9c565b612a996080700171547652b82fe1777d0ffda0d23a7d1284600f0b02901d612b0c565b90505b919050565b600080604083600f0b85600f0b02901d90507fffffffffffffffffffffffffffffffff80000000000000000000000000000000600f0b8112158015612af957506f7fffffffffffffffffffffffffffffff600f0b8113155b612b0257600080fd5b8091505092915050565b60006840000000000000000082600f0b12612b2657600080fd5b7fffffffffffffffffffffffffffffffffffffffffffffffc0000000000000000082600f0b1215612b5a5760009050613707565b60006f80000000000000000000000000000000905060006780000000000000008416600f0b1315612ba057608070016a09e667f3bcc908b2fb1366ea957d3e8202901c90505b60006740000000000000008416600f0b1315612bd15760807001306fe0a31b7152de8d5a46305c85edec8202901c90505b60006720000000000000008416600f0b1315612c025760807001172b83c7d517adcdf7c8c50eb14a791f8202901c90505b60006710000000000000008416600f0b1315612c3357608070010b5586cf9890f6298b92b71842a983638202901c90505b60006708000000000000008416600f0b1315612c645760807001059b0d31585743ae7c548eb68ca417fd8202901c90505b60006704000000000000008416600f0b1315612c95576080700102c9a3e778060ee6f7caca4f7a29bde88202901c90505b60006702000000000000008416600f0b1315612cc657608070010163da9fb33356d84a66ae336dcdfa3f8202901c90505b60006701000000000000008416600f0b1315612cf7576080700100b1afa5abcbed6129ab13ec11dc95438202901c90505b600066800000000000008416600f0b1315612d2757608070010058c86da1c09ea1ff19d294cf2f679b8202901c90505b600066400000000000008416600f0b1315612d575760807001002c605e2e8cec506d21bfc89a23a00f8202901c90505b600066200000000000008416600f0b1315612d87576080700100162f3904051fa128bca9c55c31e5df8202901c90505b600066100000000000008416600f0b1315612db75760807001000b175effdc76ba38e31671ca9397258202901c90505b600066080000000000008416600f0b1315612de7576080700100058ba01fb9f96d6cacd4b180917c3d8202901c90505b600066040000000000008416600f0b1315612e1757608070010002c5cc37da9491d0985c348c68e7b38202901c90505b600066020000000000008416600f0b1315612e475760807001000162e525ee054754457d59952920268202901c90505b600066010000000000008416600f0b1315612e7757608070010000b17255775c040618bf4a4ade83fc8202901c90505b6000658000000000008416600f0b1315612ea65760807001000058b91b5bc9ae2eed81e9b7d4cfab8202901c90505b6000654000000000008416600f0b1315612ed5576080700100002c5c89d5ec6ca4d7c8acc017b7c98202901c90505b6000652000000000008416600f0b1315612f0457608070010000162e43f4f831060e02d839a9d16d8202901c90505b6000651000000000008416600f0b1315612f33576080700100000b1721bcfc99d9f890ea069117638202901c90505b6000650800000000008416600f0b1315612f6257608070010000058b90cf1e6d97f9ca14dbcc16288202901c90505b6000650400000000008416600f0b1315612f915760807001000002c5c863b73f016468f6bac5ca2b8202901c90505b6000650200000000008416600f0b1315612fc0576080700100000162e430e5a18f6119e3c02282a58202901c90505b6000650100000000008416600f0b1315612fef5760807001000000b1721835514b86e6d96efd1bfe8202901c90505b60006480000000008416600f0b131561301d576080700100000058b90c0b48c6be5df846c5b2ef8202901c90505b60006440000000008416600f0b131561304b57608070010000002c5c8601cc6b9e94213c72737a8202901c90505b60006420000000008416600f0b13156130795760807001000000162e42fff037df38aa2b219f068202901c90505b60006410000000008416600f0b13156130a757608070010000000b17217fba9c739aa5819f44f98202901c90505b60006408000000008416600f0b13156130d55760807001000000058b90bfcdee5acd3c1cedc8238202901c90505b60006404000000008416600f0b1315613103576080700100000002c5c85fe31f35a6a30da1be508202901c90505b60006402000000008416600f0b131561313157608070010000000162e42ff0999ce3541b9fffcf8202901c90505b60006401000000008416600f0b131561315f576080700100000000b17217f80f4ef5aadda455548202901c90505b600063800000008416600f0b131561318c57608070010000000058b90bfbf8479bd5a81b51ad8202901c90505b600063400000008416600f0b13156131b95760807001000000002c5c85fdf84bd62ae30a74cc8202901c90505b600063200000008416600f0b13156131e6576080700100000000162e42fefb2fed257559bdaa8202901c90505b600063100000008416600f0b13156132135760807001000000000b17217f7d5a7716bba4a9ae8202901c90505b600063080000008416600f0b1315613240576080700100000000058b90bfbe9ddbac5e109cce8202901c90505b600063040000008416600f0b131561326d57608070010000000002c5c85fdf4b15de6f17eb0d8202901c90505b600063020000008416600f0b131561329a5760807001000000000162e42fefa494f1478fde058202901c90505b600063010000008416600f0b13156132c757608070010000000000b17217f7d20cf927c8e94c8202901c90505b6000628000008416600f0b13156132f35760807001000000000058b90bfbe8f71cb4e4b33d8202901c90505b6000624000008416600f0b131561331f576080700100000000002c5c85fdf477b662b269458202901c90505b6000622000008416600f0b131561334b57608070010000000000162e42fefa3ae53369388c8202901c90505b6000621000008416600f0b1315613377576080700100000000000b17217f7d1d351a389d408202901c90505b6000620800008416600f0b13156133a357608070010000000000058b90bfbe8e8b2d3d4ede8202901c90505b6000620400008416600f0b13156133cf5760807001000000000002c5c85fdf4741bea6e77e8202901c90505b6000620200008416600f0b13156133fb576080700100000000000162e42fefa39fe95583c28202901c90505b6000620100008416600f0b13156134275760807001000000000000b17217f7d1cfb72b45e18202901c90505b60006180008416600f0b1315613452576080700100000000000058b90bfbe8e7cc35c3f08202901c90505b60006140008416600f0b131561347d57608070010000000000002c5c85fdf473e242ea388202901c90505b60006120008416600f0b13156134a85760807001000000000000162e42fefa39f02b772c8202901c90505b60006110008416600f0b13156134d357608070010000000000000b17217f7d1cf7d83c1a8202901c90505b60006108008416600f0b13156134fe5760807001000000000000058b90bfbe8e7bdcbe2e8202901c90505b60006104008416600f0b1315613529576080700100000000000002c5c85fdf473dea871f8202901c90505b60006102008416600f0b131561355457608070010000000000000162e42fefa39ef44d918202901c90505b60006101008416600f0b131561357f576080700100000000000000b17217f7d1cf79e9498202901c90505b600060808416600f0b13156135a957608070010000000000000058b90bfbe8e7bce5448202901c90505b600060408416600f0b13156135d35760807001000000000000002c5c85fdf473de6eca8202901c90505b600060208416600f0b13156135fd576080700100000000000000162e42fefa39ef366f8202901c90505b600060108416600f0b13156136275760807001000000000000000b17217f7d1cf79afa8202901c90505b600060088416600f0b1315613651576080700100000000000000058b90bfbe8e7bcd6d8202901c90505b600060048416600f0b131561367b57608070010000000000000002c5c85fdf473de6b28202901c90505b600060028416600f0b13156136a55760807001000000000000000162e42fefa39ef3588202901c90505b600060018416600f0b13156136cf57608070010000000000000000b17217f7d1cf79ab8202901c90505b604083600f0b901d603f03600f0b81901c90506f7fffffffffffffffffffffffffffffff600f0b81111561370257600080fd5b809150505b919050565b8280546137189061442c565b90600052602060002090601f01602090048101928261373a5760008555613781565b82601f1061375357805160ff1916838001178555613781565b82800160010185558215613781579182015b82811115613780578251825591602001919060010190613765565b5b50905061378e91906137d2565b5090565b50805461379e9061442c565b6000825580601f106137b057506137cf565b601f0160209004906000526020600020908101906137ce91906137d2565b5b50565b5b808211156137eb5760008160009055506001016137d3565b5090565b60006138026137fd8461428b565b61425a565b9050808382526020820190508285602086028201111561382157600080fd5b60005b858110156138515781613837888261392c565b845260208401935060208301925050600181019050613824565b5050509392505050565b600061386e613869846142b7565b61425a565b90508281526020810184848401111561388657600080fd5b6138918482856143ea565b509392505050565b6000813590506138a881614545565b92915050565b6000815190506138bd81614545565b92915050565b600082601f8301126138d457600080fd5b81356138e48482602086016137ef565b91505092915050565b6000815190506138fc8161455c565b92915050565b600082601f83011261391357600080fd5b813561392384826020860161385b565b91505092915050565b60008135905061393b81614573565b92915050565b60008151905061395081614573565b92915050565b60006020828403121561396857600080fd5b600061397684828501613899565b91505092915050565b60006020828403121561399157600080fd5b600061399f848285016138ae565b91505092915050565b600080600080600060a086880312156139c057600080fd5b60006139ce88828901613899565b95505060206139df8882890161392c565b94505060406139f08882890161392c565b9350506060613a018882890161392c565b925050608086013567ffffffffffffffff811115613a1e57600080fd5b613a2a88828901613902565b9150509295509295909350565b600060208284031215613a4957600080fd5b600082013567ffffffffffffffff811115613a6357600080fd5b613a6f848285016138c3565b91505092915050565b600060208284031215613a8a57600080fd5b6000613a98848285016138ed565b91505092915050565b600060208284031215613ab357600080fd5b6000613ac18482850161392c565b91505092915050565b600060208284031215613adc57600080fd5b6000613aea84828501613941565b91505092915050565b600080600080600060a08688031215613b0b57600080fd5b6000613b198882890161392c565b9550506020613b2a8882890161392c565b9450506040613b3b8882890161392c565b9350506060613b4c8882890161392c565b925050608086013567ffffffffffffffff811115613b6957600080fd5b613b7588828901613902565b9150509295509295909350565b613b8b816143a2565b82525050565b613b9a816143b4565b82525050565b6000613bab826142fc565b613bb58185614307565b9350613bc58185602086016143f9565b613bce81614534565b840191505092915050565b60008154613be68161442c565b613bf08186614307565b94506001821660008114613c0b5760018114613c1d57613c50565b60ff1983168652602086019350613c50565b613c26856142e7565b60005b83811015613c4857815481890152600182019150602081019050613c29565b808801955050505b50505092915050565b6000613c66602683614307565b91507f4f776e61626c653a206e6577206f776e657220697320746865207a65726f206160008301527f64647265737300000000000000000000000000000000000000000000000000006020830152604082019050919050565b6000613ccc601183614307565b91507f536e6f6f6b206973206e6f7420646561640000000000000000000000000000006000830152602082019050919050565b6000613d0c601483614307565b91507f536e6f6f6b206973206e6f7420696e20706c61790000000000000000000000006000830152602082019050919050565b6000613d4c602083614307565b91507f536e6f6f6b206973206e6f7420616c6c6f77656420666f7220706c6179696e676000830152602082019050919050565b6000613d8c602083614307565b91507f4f776e61626c653a2063616c6c6572206973206e6f7420746865206f776e65726000830152602082019050919050565b6000613dcc601b83614307565b91507f4f6e6c7920746f6b656e206f776e6572206861732061636365737300000000006000830152602082019050919050565b6000613e0c600d83614307565b91507f536e6f6f6b2069732064656164000000000000000000000000000000000000006000830152602082019050919050565b6000613e4c601883614307565b91507f536e6f6f6b20697320616c726561647920696e20706c617900000000000000006000830152602082019050919050565b6000613e8c602983614307565b91507f4f6e6c7920736e6f6f6b206f776e65722063616e20726573737572656374206460008301527f65616420736e6f6f6b00000000000000000000000000000000000000000000006020830152604082019050919050565b6000613ef2600f83614307565b91507f4e6f7420746f6b656e206f776e657200000000000000000000000000000000006000830152602082019050919050565b6000613f32601c83614307565b91507f4e6f7420656e6f7567682066756e647320666f72206d696e74696e67000000006000830152602082019050919050565b613f6e816143e0565b82525050565b6000602082019050613f896000830184613b82565b92915050565b6000606082019050613fa46000830186613b82565b613fb16020830185613b82565b613fbe6040830184613f65565b949350505050565b6000604082019050613fdb6000830185613b82565b8181036020830152613fed8184613ba0565b90509392505050565b600060408201905061400b6000830185613b82565b6140186020830184613f65565b9392505050565b6000602082019050818103600083015261403881613c59565b9050919050565b6000602082019050818103600083015261405881613cbf565b9050919050565b6000602082019050818103600083015261407881613cff565b9050919050565b6000602082019050818103600083015261409881613d3f565b9050919050565b600060208201905081810360008301526140b881613d7f565b9050919050565b600060208201905081810360008301526140d881613dbf565b9050919050565b600060208201905081810360008301526140f881613dff565b9050919050565b6000602082019050818103600083015261411881613e3f565b9050919050565b6000602082019050818103600083015261413881613e7f565b9050919050565b6000602082019050818103600083015261415881613ee5565b9050919050565b6000602082019050818103600083015261417881613f25565b9050919050565b60006020820190506141946000830184613f65565b92915050565b60006040820190506141af6000830185613f65565b6141bc6020830184613b91565b9392505050565b60006040820190506141d86000830185613f65565b81810360208301526141ea8184613ba0565b90509392505050565b60006040820190506142086000830185613f65565b818103602083015261421a8184613bd9565b90509392505050565b60006060820190506142386000830186613f65565b6142456020830185613f65565b6142526040830184613f65565b949350505050565b6000604051905081810181811067ffffffffffffffff8211171561428157614280614505565b5b8060405250919050565b600067ffffffffffffffff8211156142a6576142a5614505565b5b602082029050602081019050919050565b600067ffffffffffffffff8211156142d2576142d1614505565b5b601f19601f8301169050602081019050919050565b60008190508160005260206000209050919050565b600081519050919050565b600082825260208201905092915050565b6000614323826143e0565b915061432e836143e0565b9250827fffffffffffffffffffffffffffffffffffffffffffffffffffffffffffffffff03821115614363576143626144a7565b5b828201905092915050565b6000614379826143e0565b9150614384836143e0565b925082821015614397576143966144a7565b5b828203905092915050565b60006143ad826143c0565b9050919050565b60008115159050919050565b600073ffffffffffffffffffffffffffffffffffffffff82169050919050565b6000819050919050565b82818337600083830152505050565b60005b838110156144175780820151818401526020810190506143fc565b83811115614426576000848401525b50505050565b6000600282049050600182168061444457607f821691505b60208210811415614458576144576144d6565b5b50919050565b6000614469826143e0565b91507fffffffffffffffffffffffffffffffffffffffffffffffffffffffffffffffff82141561449c5761449b6144a7565b5b600182019050919050565b7f4e487b7100000000000000000000000000000000000000000000000000000000600052601160045260246000fd5b7f4e487b7100000000000000000000000000000000000000000000000000000000600052602260045260246000fd5b7f4e487b7100000000000000000000000000000000000000000000000000000000600052604160045260246000fd5b6000601f19601f8301169050919050565b61454e816143a2565b811461455957600080fd5b50565b614565816143b4565b811461457057600080fd5b50565b61457c816143e0565b811461458757600080fd5b5056fea26469706673582212206d207c69aa25459d6111cf3c059a83898243542942d39ed14b78d8dd22cf3a7a64736f6c63430008000033",
  "devdoc": {
    "kind": "dev",
    "methods": {
      "owner()": {
        "details": "Returns the address of the current owner."
      },
      "renounceOwnership()": {
        "details": "Leaves the contract without owner. It will not be possible to call `onlyOwner` functions anymore. Can only be called by the current owner. NOTE: Renouncing ownership will leave the contract without an owner, thereby removing any functionality that is only available to the owner."
      },
      "transferOwnership(address)": {
        "details": "Transfers ownership of the contract to a new account (`newOwner`). Can only be called by the current owner."
      }
    },
    "version": 1
  },
  "userdoc": {
    "kind": "user",
    "methods": {},
    "version": 1
  },
  "storageLayout": {
    "storage": [
      {
        "astId": 330,
        "contract": "contracts/SnookGame.sol:SnookGame",
        "label": "_owner",
        "offset": 0,
        "slot": "0",
        "type": "t_address"
      },
      {
        "astId": 7224,
        "contract": "contracts/SnookGame.sol:SnookGame",
        "label": "_snook",
        "offset": 0,
        "slot": "1",
        "type": "t_contract(SnookToken)8367"
      },
      {
        "astId": 7227,
        "contract": "contracts/SnookGame.sol:SnookGame",
        "label": "_skill",
        "offset": 0,
        "slot": "2",
        "type": "t_contract(SkillToken)7081"
      },
      {
        "astId": 7230,
        "contract": "contracts/SnookGame.sol:SnookGame",
        "label": "_uniswap",
        "offset": 0,
        "slot": "3",
        "type": "t_contract(IUiniswapUSDCSkill)7013"
      },
      {
        "astId": 7260,
        "contract": "contracts/SnookGame.sol:SnookGame",
        "label": "_descriptors",
        "offset": 0,
        "slot": "4",
        "type": "t_mapping(t_uint256,t_struct(Descriptor)7255_storage)"
      }
    ],
    "types": {
      "t_address": {
        "encoding": "inplace",
        "label": "address",
        "numberOfBytes": "20"
      },
      "t_bool": {
        "encoding": "inplace",
        "label": "bool",
        "numberOfBytes": "1"
      },
      "t_contract(IUiniswapUSDCSkill)7013": {
        "encoding": "inplace",
        "label": "contract IUiniswapUSDCSkill",
        "numberOfBytes": "20"
      },
      "t_contract(SkillToken)7081": {
        "encoding": "inplace",
        "label": "contract SkillToken",
        "numberOfBytes": "20"
      },
      "t_contract(SnookToken)8367": {
        "encoding": "inplace",
        "label": "contract SnookToken",
        "numberOfBytes": "20"
      },
      "t_mapping(t_uint256,t_struct(Descriptor)7255_storage)": {
        "encoding": "mapping",
        "key": "t_uint256",
        "label": "mapping(uint256 => struct SnookGame.Descriptor)",
        "numberOfBytes": "32",
        "value": "t_struct(Descriptor)7255_storage"
      },
      "t_string_storage": {
        "encoding": "bytes",
        "label": "string",
        "numberOfBytes": "32"
      },
      "t_struct(Descriptor)7255_storage": {
        "encoding": "inplace",
        "label": "struct SnookGame.Descriptor",
        "members": [
          {
            "astId": 7232,
            "contract": "contracts/SnookGame.sol:SnookGame",
            "label": "score",
            "offset": 0,
            "slot": "0",
            "type": "t_uint256"
          },
          {
            "astId": 7234,
            "contract": "contracts/SnookGame.sol:SnookGame",
            "label": "onRessurectionScore",
            "offset": 0,
            "slot": "1",
            "type": "t_uint256"
          },
          {
            "astId": 7236,
            "contract": "contracts/SnookGame.sol:SnookGame",
            "label": "stars",
            "offset": 0,
            "slot": "2",
            "type": "t_uint256"
          },
          {
            "astId": 7238,
            "contract": "contracts/SnookGame.sol:SnookGame",
            "label": "onRessurectionStars",
            "offset": 0,
            "slot": "3",
            "type": "t_uint256"
          },
          {
            "astId": 7240,
            "contract": "contracts/SnookGame.sol:SnookGame",
            "label": "traitCount",
            "offset": 0,
            "slot": "4",
            "type": "t_uint256"
          },
          {
            "astId": 7242,
            "contract": "contracts/SnookGame.sol:SnookGame",
            "label": "onRessurectionTraitCount",
            "offset": 0,
            "slot": "5",
            "type": "t_uint256"
          },
          {
            "astId": 7244,
            "contract": "contracts/SnookGame.sol:SnookGame",
            "label": "ressurectionPrice",
            "offset": 0,
            "slot": "6",
            "type": "t_uint256"
          },
          {
            "astId": 7246,
            "contract": "contracts/SnookGame.sol:SnookGame",
            "label": "ressurectionCount",
            "offset": 0,
            "slot": "7",
            "type": "t_uint256"
          },
          {
            "astId": 7248,
            "contract": "contracts/SnookGame.sol:SnookGame",
            "label": "onRessurectionTokenURI",
            "offset": 0,
            "slot": "8",
            "type": "t_string_storage"
          },
          {
            "astId": 7250,
            "contract": "contracts/SnookGame.sol:SnookGame",
            "label": "ingame",
            "offset": 0,
            "slot": "9",
            "type": "t_bool"
          },
          {
            "astId": 7252,
            "contract": "contracts/SnookGame.sol:SnookGame",
            "label": "deathTime",
            "offset": 0,
            "slot": "10",
            "type": "t_uint256"
          },
          {
            "astId": 7254,
            "contract": "contracts/SnookGame.sol:SnookGame",
            "label": "gameAllowed",
            "offset": 0,
            "slot": "11",
            "type": "t_bool"
          }
        ],
        "numberOfBytes": "384"
      },
      "t_uint256": {
        "encoding": "inplace",
        "label": "uint256",
        "numberOfBytes": "32"
      }
    }
  }
}