{
  "address": "0xD8e51A2F4F688342A4bd6Ef90A722Fc45597D3B6",
  "abi": [
    {
      "inputs": [
        {
          "internalType": "address",
          "name": "snook",
          "type": "address"
        },
        {
          "internalType": "address",
          "name": "skill",
          "type": "address"
        },
        {
          "internalType": "address",
          "name": "uniswap",
          "type": "address"
        },
        {
          "internalType": "address",
          "name": "treasury",
          "type": "address"
        },
        {
          "internalType": "uint256",
          "name": "burialDelay",
          "type": "uint256"
        }
      ],
      "stateMutability": "nonpayable",
      "type": "constructor"
    },
    {
      "anonymous": false,
      "inputs": [
        {
          "indexed": true,
          "internalType": "address",
          "name": "to",
          "type": "address"
        },
        {
          "indexed": false,
          "internalType": "uint256",
          "name": "tokenId",
          "type": "uint256"
        }
      ],
      "name": "Birth",
      "type": "event"
    },
    {
      "anonymous": false,
      "inputs": [
        {
          "indexed": false,
          "internalType": "uint256",
          "name": "burialCount",
          "type": "uint256"
        }
      ],
      "name": "Bury",
      "type": "event"
    },
    {
      "anonymous": false,
      "inputs": [
        {
          "indexed": true,
          "internalType": "address",
          "name": "to",
          "type": "address"
        },
        {
          "indexed": false,
          "internalType": "uint256",
          "name": "tokenId",
          "type": "uint256"
        }
      ],
      "name": "Death",
      "type": "event"
    },
    {
      "anonymous": false,
      "inputs": [
        {
          "indexed": true,
          "internalType": "address",
          "name": "from",
          "type": "address"
        },
        {
          "indexed": false,
          "internalType": "uint256",
          "name": "tokenId",
          "type": "uint256"
        }
      ],
      "name": "Entry",
      "type": "event"
    },
    {
      "anonymous": false,
      "inputs": [
        {
          "indexed": true,
          "internalType": "address",
          "name": "to",
          "type": "address"
        },
        {
          "indexed": false,
          "internalType": "uint256",
          "name": "tokenId",
          "type": "uint256"
        }
      ],
      "name": "Extraction",
      "type": "event"
    },
    {
      "anonymous": false,
      "inputs": [
        {
          "indexed": true,
          "internalType": "address",
          "name": "from",
          "type": "address"
        },
        {
          "indexed": false,
          "internalType": "uint256",
          "name": "tokenId",
          "type": "uint256"
        }
      ],
      "name": "GameAllowed",
      "type": "event"
    },
    {
      "anonymous": false,
      "inputs": [
        {
          "indexed": true,
          "internalType": "address",
          "name": "previousOwner",
          "type": "address"
        },
        {
          "indexed": true,
          "internalType": "address",
          "name": "newOwner",
          "type": "address"
        }
      ],
      "name": "OwnershipTransferred",
      "type": "event"
    },
    {
      "anonymous": false,
      "inputs": [
        {
          "indexed": true,
          "internalType": "address",
          "name": "from",
          "type": "address"
        },
        {
          "indexed": false,
          "internalType": "uint256",
          "name": "tokenId",
          "type": "uint256"
        }
      ],
      "name": "Ressurection",
      "type": "event"
    },
    {
      "inputs": [
        {
          "internalType": "uint256",
          "name": "tokenId",
          "type": "uint256"
        }
      ],
      "name": "allowGame",
      "outputs": [],
      "stateMutability": "nonpayable",
      "type": "function"
    },
    {
      "inputs": [
        {
          "internalType": "uint256",
          "name": "requestedBurials",
          "type": "uint256"
        }
      ],
      "name": "bury",
      "outputs": [],
      "stateMutability": "nonpayable",
      "type": "function"
    },
    {
      "inputs": [
        {
          "internalType": "uint256",
          "name": "tokenId",
          "type": "uint256"
        }
      ],
      "name": "describe",
      "outputs": [
        {
          "internalType": "uint256",
          "name": "ressurectionPrice",
          "type": "uint256"
        },
        {
          "internalType": "uint256",
          "name": "ressurectionCount",
          "type": "uint256"
        },
        {
          "internalType": "uint256",
          "name": "stars",
          "type": "uint256"
        },
        {
          "internalType": "uint256",
          "name": "deathTime",
          "type": "uint256"
        }
      ],
      "stateMutability": "view",
      "type": "function"
    },
    {
      "inputs": [
        {
          "internalType": "uint256",
          "name": "tokenId",
          "type": "uint256"
        },
        {
          "internalType": "uint256",
          "name": "ressurectionCount",
          "type": "uint256"
        }
      ],
      "name": "enterGame",
      "outputs": [],
      "stateMutability": "nonpayable",
      "type": "function"
    },
    {
      "inputs": [
        {
          "internalType": "uint256",
          "name": "tokenId",
          "type": "uint256"
        },
        {
          "internalType": "uint256",
          "name": "traitCount",
          "type": "uint256"
        },
        {
          "internalType": "uint256",
          "name": "stars",
          "type": "uint256"
        },
        {
          "internalType": "uint256",
          "name": "score",
          "type": "uint256"
        },
        {
          "internalType": "string",
          "name": "tokenURI_",
          "type": "string"
        }
      ],
      "name": "extractSnook",
      "outputs": [],
      "stateMutability": "nonpayable",
      "type": "function"
    },
    {
      "inputs": [
        {
          "internalType": "uint256[]",
          "name": "tokenIds",
          "type": "uint256[]"
        }
      ],
      "name": "extractSnooksWithoutUpdate",
      "outputs": [],
      "stateMutability": "nonpayable",
      "type": "function"
    },
    {
      "inputs": [],
      "name": "getTraitHist",
      "outputs": [
        {
          "internalType": "uint64[]",
          "name": "",
          "type": "uint64[]"
        }
      ],
      "stateMutability": "view",
      "type": "function"
    },
    {
      "inputs": [
        {
          "internalType": "address",
          "name": "to",
          "type": "address"
        },
        {
          "internalType": "uint256",
          "name": "traitCount",
          "type": "uint256"
        },
        {
          "internalType": "uint256",
          "name": "stars",
          "type": "uint256"
        },
        {
          "internalType": "uint256",
          "name": "score",
          "type": "uint256"
        },
        {
          "internalType": "string",
          "name": "tokenURI_",
          "type": "string"
        }
      ],
      "name": "mint",
      "outputs": [],
      "stateMutability": "nonpayable",
      "type": "function"
    },
    {
      "inputs": [],
      "name": "owner",
      "outputs": [
        {
          "internalType": "address",
          "name": "",
          "type": "address"
        }
      ],
      "stateMutability": "view",
      "type": "function"
    },
    {
      "inputs": [],
      "name": "renounceOwnership",
      "outputs": [],
      "stateMutability": "nonpayable",
      "type": "function"
    },
    {
      "inputs": [
        {
          "internalType": "uint256",
          "name": "tokenId",
          "type": "uint256"
        }
      ],
      "name": "ressurect",
      "outputs": [],
      "stateMutability": "nonpayable",
      "type": "function"
    },
    {
      "inputs": [
        {
          "internalType": "uint256",
          "name": "tokenId",
          "type": "uint256"
        },
        {
          "internalType": "uint256",
          "name": "onRessurectionTraitCount",
          "type": "uint256"
        },
        {
          "internalType": "uint256",
          "name": "onRessurectionStars",
          "type": "uint256"
        },
        {
          "internalType": "uint256",
          "name": "onRessurectionScore",
          "type": "uint256"
        },
        {
          "internalType": "string",
          "name": "onRessurectionTokenURI",
          "type": "string"
        }
      ],
      "name": "setDeathTime",
      "outputs": [],
      "stateMutability": "nonpayable",
      "type": "function"
    },
    {
      "inputs": [
        {
          "internalType": "address",
          "name": "newOwner",
          "type": "address"
        }
      ],
      "name": "transferOwnership",
      "outputs": [],
      "stateMutability": "nonpayable",
      "type": "function"
    }
  ],
  "transactionHash": "0xfb2ff627f0404c66064fbebdc526b2cac99fd05caff823a0b4018fb096387d7f",
  "args": [
    "0x0d77edC840CB98f4657596BE2fd68e587C13C3D8",
    "0xf4DA28AD365Bc76A97DDE4cb6bd3458b36BD13A7",
    "0xAe4e4C6Fc40E5046B92b3f91F3076A1353f632dA",
    "0x9c0dBE2C652d0e3f146f1071827232c6747ac272",
    3600
  ],
  "solcInputHash": "dc4a6d371d5821643f38edc0b3063173",
  "bytecode": "0x60806040523480156200001157600080fd5b506040516200578538038062005785833981810160405281019062000037919062000528565b600062000049620003a360201b60201c565b9050806000806101000a81548173ffffffffffffffffffffffffffffffffffffffff021916908373ffffffffffffffffffffffffffffffffffffffff1602179055508073ffffffffffffffffffffffffffffffffffffffff16600073ffffffffffffffffffffffffffffffffffffffff167f8be0079c531659141344cd1fd0a4f28419497f9722a3daafe3b4186f6b6457e060405160405180910390a35084600160006101000a81548173ffffffffffffffffffffffffffffffffffffffff021916908373ffffffffffffffffffffffffffffffffffffffff16021790555083600260006101000a81548173ffffffffffffffffffffffffffffffffffffffff021916908373ffffffffffffffffffffffffffffffffffffffff16021790555082600360006101000a81548173ffffffffffffffffffffffffffffffffffffffff021916908373ffffffffffffffffffffffffffffffffffffffff160217905550600067ffffffffffffffff811115620001ec577f4e487b7100000000000000000000000000000000000000000000000000000000600052604160045260246000fd5b6040519080825280602002602001820160405280156200021b5781602001602082028036833780820191505090505b506007908051906020019062000233929190620003ab565b50600067ffffffffffffffff81111562000276577f4e487b7100000000000000000000000000000000000000000000000000000000600052604160045260246000fd5b604051908082528060200260200182016040528015620002a55781602001602082028036833780820191505090505b5060089080519060200190620002bd929190620003ab565b5081600560006101000a81548173ffffffffffffffffffffffffffffffffffffffff021916908373ffffffffffffffffffffffffffffffffffffffff16021790555080600481905550600067ffffffffffffffff81111562000348577f4e487b7100000000000000000000000000000000000000000000000000000000600052604160045260246000fd5b604051908082528060200260200182016040528015620003775781602001602082028036833780820191505090505b50600990805190602001906200038f929190620003fd565b506000600a8190555050505050506200061c565b600033905090565b828054828255906000526020600020908101928215620003ea579160200282015b82811115620003e9578251825591602001919060010190620003cc565b5b509050620003f99190620004db565b5090565b82805482825590600052602060002090600101600290048101928215620004c85791602002820160005b838211156200048857835183826101000a8154816fffffffffffffffffffffffffffffffff0219169083600f0b6fffffffffffffffffffffffffffffffff1602179055509260200192601001602081600f0104928301926001030262000427565b8015620004c65782816101000a8154906fffffffffffffffffffffffffffffffff0219169055601001602081600f0104928301926001030262000488565b505b509050620004d79190620004db565b5090565b5b80821115620004f6576000816000905550600101620004dc565b5090565b6000815190506200050b81620005e8565b92915050565b600081519050620005228162000602565b92915050565b600080600080600060a086880312156200054157600080fd5b60006200055188828901620004fa565b95505060206200056488828901620004fa565b94505060406200057788828901620004fa565b93505060606200058a88828901620004fa565b92505060806200059d8882890162000511565b9150509295509295909350565b6000620005b782620005be565b9050919050565b600073ffffffffffffffffffffffffffffffffffffffff82169050919050565b6000819050919050565b620005f381620005aa565b8114620005ff57600080fd5b50565b6200060d81620005de565b81146200061957600080fd5b50565b615159806200062c6000396000f3fe608060405234801561001057600080fd5b50600436106100cf5760003560e01c80638da5cb5b1161008c578063b6ad335b11610066578063b6ad335b146101c2578063cb3794d4146101de578063f2fde38b146101fa578063f770753714610216576100cf565b80638da5cb5b1461016c578063912774f11461018a578063abf74d5f146101a6576100cf565b80632fd6a344146100d45780633c90255b146100f25780633edfd9541461010e57806343291e891461012a57806356f59a4614610146578063715018a614610162575b600080fd5b6100dc610249565b6040516100e99190614a14565b60405180910390f35b61010c600480360381019061010791906143fd565b6103af565b005b61012860048036038101906101239190614276565b6106b0565b005b610144600480360381019061013f91906143c1565b610c43565b005b610160600480360381019061015b9190614305565b610fa6565b005b61016a61108e565b005b6101746111c8565b6040516101819190614969565b60405180910390f35b6101a4600480360381019061019f919061436f565b6111f1565b005b6101c060048036038101906101bb919061436f565b61138f565b005b6101dc60048036038101906101d7919061436f565b611919565b005b6101f860048036038101906101f391906143fd565b611f1e565b005b610214600480360381019061020f9190614224565b612365565b005b610230600480360381019061022b919061436f565b61250e565b6040516102409493929190614cdd565b60405180910390f35b60606000600980549050905060008167ffffffffffffffff811115610297577f4e487b7100000000000000000000000000000000000000000000000000000000600052604160045260246000fd5b6040519080825280602002602001820160405280156102c55781602001602082028036833780820191505090505b50905060005b828110156103a65761033860098281548110610310577f4e487b7100000000000000000000000000000000000000000000000000000000600052603260045260246000fd5b90600052602060002090600291828204019190066010029054906101000a9004600f0b61257f565b828281518110610371577f4e487b7100000000000000000000000000000000000000000000000000000000600052603260045260246000fd5b602002602001019067ffffffffffffffff16908167ffffffffffffffff1681525050808061039e90614ff7565b9150506102cb565b50809250505090565b6103b76125a0565b73ffffffffffffffffffffffffffffffffffffffff166103d56111c8565b73ffffffffffffffffffffffffffffffffffffffff161461042b576040517f08c379a000000000000000000000000000000000000000000000000000000000815260040161042290614b59565b60405180910390fd5b6001151560066000878152602001908152602001600020600a0160009054906101000a900460ff16151514610495576040517f08c379a000000000000000000000000000000000000000000000000000000000815260040161048c90614b19565b60405180910390fd5b4260066000878152602001908152602001600020600b01819055506104b9856125a8565b60066000878152602001908152602001600020600701819055508360066000878152602001908152602001600020600601819055508260066000878152602001908152602001600020600301819055508160066000878152602001908152602001600020600101819055508060066000878152602001908152602001600020600901908051906020019061054e929190613f03565b5060078590806001815401808255809150506001900390600052602060002001600090919091909150556105976006600087815260200190815260200160002060050154612717565b6001600a60008282546105aa9190614ec9565b92505081905550600160009054906101000a900473ffffffffffffffffffffffffffffffffffffffff1673ffffffffffffffffffffffffffffffffffffffff16636352211e866040518263ffffffff1660e01b815260040161060c9190614c39565b60206040518083038186803b15801561062457600080fd5b505afa158015610638573d6000803e3d6000fd5b505050506040513d601f19601f8201168201806040525081019061065c919061424d565b73ffffffffffffffffffffffffffffffffffffffff167fae995c79a88e396955e94cb3d6a80e56e1269ee8f5f9c3ab36de945cb05affbe866040516106a19190614c39565b60405180910390a25050505050565b6106b86125a0565b73ffffffffffffffffffffffffffffffffffffffff166106d66111c8565b73ffffffffffffffffffffffffffffffffffffffff161461072c576040517f08c379a000000000000000000000000000000000000000000000000000000000815260040161072390614b59565b60405180910390fd5b6000600360009054906101000a900473ffffffffffffffffffffffffffffffffffffffff1673ffffffffffffffffffffffffffffffffffffffff1663b7d002076040518163ffffffff1660e01b815260040160206040518083038186803b15801561079657600080fd5b505afa1580156107aa573d6000803e3d6000fd5b505050506040513d601f19601f820116820180604052508101906107ce9190614398565b9050600260009054906101000a900473ffffffffffffffffffffffffffffffffffffffff1673ffffffffffffffffffffffffffffffffffffffff166323b872dd8730846040518463ffffffff1660e01b815260040161082f93929190614984565b602060405180830381600087803b15801561084957600080fd5b505af115801561085d573d6000803e3d6000fd5b505050506040513d601f19601f820116820180604052508101906108819190614346565b6108c0576040517f08c379a00000000000000000000000000000000000000000000000000000000081526004016108b790614c19565b60405180910390fd5b6000600160009054906101000a900473ffffffffffffffffffffffffffffffffffffffff1673ffffffffffffffffffffffffffffffffffffffff1663d0def52188856040518363ffffffff1660e01b815260040161091f9291906149bb565b602060405180830381600087803b15801561093957600080fd5b505af115801561094d573d6000803e3d6000fd5b505050506040513d601f19601f820116820180604052508101906109719190614398565b9050604051806101a001604052808581526020016000815260200186815260200160008152602001878152602001878152602001600081526020016000815260200160008152602001604051806020016040528060008152508152602001600015158152602001600081526020016000151581525060066000838152602001908152602001600020600082015181600001556020820151816001015560408201518160020155606082015181600301556080820151816004015560a0820151816005015560c0820151816006015560e082015181600701556101008201518160080155610120820151816009019080519060200190610a71929190613f03565b5061014082015181600a0160006101000a81548160ff02191690831515021790555061016082015181600b015561018082015181600c0160006101000a81548160ff021916908315150217905550905050600260009054906101000a900473ffffffffffffffffffffffffffffffffffffffff1673ffffffffffffffffffffffffffffffffffffffff16639dc29fac30846040518363ffffffff1660e01b8152600401610b1f9291906149eb565b600060405180830381600087803b158015610b3957600080fd5b505af1158015610b4d573d6000803e3d6000fd5b50505050610b5a86612817565b6001600a6000828254610b6d9190614e19565b92505081905550610bec6040518060400160405280601181526020017f4d696e743a207472616974436f756e743a000000000000000000000000000000815250876040518060400160405280600681526020017f616c6976653b0000000000000000000000000000000000000000000000000000815250600a54612a96565b8673ffffffffffffffffffffffffffffffffffffffff167fe3e9cb4c9675332e1e71c04808555c8071daa68327830cac01cc33d4087a64e982604051610c329190614c39565b60405180910390a250505050505050565b610c4b6125a0565b73ffffffffffffffffffffffffffffffffffffffff16610c696111c8565b73ffffffffffffffffffffffffffffffffffffffff1614610cbf576040517f08c379a0000000000000000000000000000000000000000000000000000000008152600401610cb690614b59565b60405180910390fd5b6000151560066000848152602001908152602001600020600a0160009054906101000a900460ff16151514610d29576040517f08c379a0000000000000000000000000000000000000000000000000000000008152600401610d2090614b99565b60405180910390fd5b6001151560066000848152602001908152602001600020600c0160009054906101000a900460ff16151514610d93576040517f08c379a0000000000000000000000000000000000000000000000000000000008152600401610d8a90614b39565b60405180910390fd5b80600660008481526020019081526020016000206008015414610deb576040517f08c379a0000000000000000000000000000000000000000000000000000000008152600401610de290614ab9565b60405180910390fd5b600160009054906101000a900473ffffffffffffffffffffffffffffffffffffffff1673ffffffffffffffffffffffffffffffffffffffff1663346c94cf8360016040518363ffffffff1660e01b8152600401610e49929190614c54565b600060405180830381600087803b158015610e6357600080fd5b505af1158015610e77573d6000803e3d6000fd5b50505050600160066000848152602001908152602001600020600a0160006101000a81548160ff021916908315150217905550600160009054906101000a900473ffffffffffffffffffffffffffffffffffffffff1673ffffffffffffffffffffffffffffffffffffffff16636352211e836040518263ffffffff1660e01b8152600401610f059190614c39565b60206040518083038186803b158015610f1d57600080fd5b505afa158015610f31573d6000803e3d6000fd5b505050506040513d601f19601f82011682018060405250810190610f55919061424d565b73ffffffffffffffffffffffffffffffffffffffff167f6badce09299f7f7600a82aeaaf2801e2ea536ed021bb15fde48fdc2b072934eb83604051610f9a9190614c39565b60405180910390a25050565b610fae6125a0565b73ffffffffffffffffffffffffffffffffffffffff16610fcc6111c8565b73ffffffffffffffffffffffffffffffffffffffff1614611022576040517f08c379a000000000000000000000000000000000000000000000000000000000815260040161101990614b59565b60405180910390fd5b60005b815181101561108a5761107782828151811061106a577f4e487b7100000000000000000000000000000000000000000000000000000000600052603260045260246000fd5b6020026020010151612b38565b808061108290614ff7565b915050611025565b5050565b6110966125a0565b73ffffffffffffffffffffffffffffffffffffffff166110b46111c8565b73ffffffffffffffffffffffffffffffffffffffff161461110a576040517f08c379a000000000000000000000000000000000000000000000000000000000815260040161110190614b59565b60405180910390fd5b600073ffffffffffffffffffffffffffffffffffffffff1660008054906101000a900473ffffffffffffffffffffffffffffffffffffffff1673ffffffffffffffffffffffffffffffffffffffff167f8be0079c531659141344cd1fd0a4f28419497f9722a3daafe3b4186f6b6457e060405160405180910390a360008060006101000a81548173ffffffffffffffffffffffffffffffffffffffff021916908373ffffffffffffffffffffffffffffffffffffffff160217905550565b60008060009054906101000a900473ffffffffffffffffffffffffffffffffffffffff16905090565b6000600160009054906101000a900473ffffffffffffffffffffffffffffffffffffffff1673ffffffffffffffffffffffffffffffffffffffff16636352211e836040518263ffffffff1660e01b815260040161124e9190614c39565b60206040518083038186803b15801561126657600080fd5b505afa15801561127a573d6000803e3d6000fd5b505050506040513d601f19601f8201168201806040525081019061129e919061424d565b90503373ffffffffffffffffffffffffffffffffffffffff168173ffffffffffffffffffffffffffffffffffffffff161461130e576040517f08c379a000000000000000000000000000000000000000000000000000000000815260040161130590614bf9565b60405180910390fd5b600160066000848152602001908152602001600020600c0160006101000a81548160ff0219169083151502179055508073ffffffffffffffffffffffffffffffffffffffff167f12bae11c6883938b7e48a44cf253005c0ba036de7f6aa982ed3005597c7d1314836040516113839190614c39565b60405180910390a25050565b600060078054905082116113a357816113aa565b6007805490505b90506000808290505b60008111156117e057600060076001836113cd9190614ec9565b81548110611404577f4e487b7100000000000000000000000000000000000000000000000000000000600052603260045260246000fd5b906000526020600020015490506001151560066000838152602001908152602001600020600a0160009054906101000a900460ff16151514801561145e5750600060066000838152602001908152602001600020600b0154115b801561149857504260016004546114759190614e6f565b60066000848152602001908152602001600020600b01546114969190614e19565b105b1561166c576001836114aa9190614e19565b9250600160009054906101000a900473ffffffffffffffffffffffffffffffffffffffff1673ffffffffffffffffffffffffffffffffffffffff1663346c94cf8260006040518363ffffffff1660e01b815260040161150a929190614c54565b600060405180830381600087803b15801561152457600080fd5b505af1158015611538573d6000803e3d6000fd5b50505050600160009054906101000a900473ffffffffffffffffffffffffffffffffffffffff1673ffffffffffffffffffffffffffffffffffffffff166342966c68826040518263ffffffff1660e01b81526004016115979190614c39565b600060405180830381600087803b1580156115b157600080fd5b505af11580156115c5573d6000803e3d6000fd5b5050505060066000828152602001908152602001600020600080820160009055600182016000905560028201600090556003820160009055600482016000905560058201600090556006820160009055600782016000905560088201600090556009820160006116359190613f89565b600a820160006101000a81549060ff0219169055600b820160009055600c820160006101000a81549060ff0219169055505061177e565b6001151560066000838152602001908152602001600020600a0160009054906101000a900460ff1615151480156116b95750600060066000838152602001908152602001600020600b0154115b80156116f457504260016004546116d09190614e6f565b60066000848152602001908152602001600020600b01546116f19190614e19565b10155b1561177c5760086007600160078054905061170f9190614ec9565b81548110611746577f4e487b7100000000000000000000000000000000000000000000000000000000600052603260045260246000fd5b9060005260206000200154908060018154018082558091505060019003906000526020600020016000909190919091505561177d565b5b5b60078054806117b6577f4e487b7100000000000000000000000000000000000000000000000000000000600052603160045260246000fd5b600190038181906000526020600020016000905590555080806117d890614f9b565b9150506113b3565b506000600880549050905060005b818110156118db5760006008600160088054905061180c9190614ec9565b81548110611843577f4e487b7100000000000000000000000000000000000000000000000000000000600052603260045260246000fd5b90600052602060002001549050600781908060018154018082558091505060019003906000526020600020016000909190919091505560088054806118b1577f4e487b7100000000000000000000000000000000000000000000000000000000600052603160045260246000fd5b600190038181906000526020600020016000905590555080806118d390614ff7565b9150506117ee565b507ff6f03225c39567f8a38a4d052d55ea68cfa5702704dc15ecc552f500b7c625018260405161190b9190614c39565b60405180910390a150505050565b6000600160009054906101000a900473ffffffffffffffffffffffffffffffffffffffff1673ffffffffffffffffffffffffffffffffffffffff16636352211e836040518263ffffffff1660e01b81526004016119769190614c39565b60206040518083038186803b15801561198e57600080fd5b505afa1580156119a2573d6000803e3d6000fd5b505050506040513d601f19601f820116820180604052508101906119c6919061424d565b90503373ffffffffffffffffffffffffffffffffffffffff168173ffffffffffffffffffffffffffffffffffffffff1614611a36576040517f08c379a0000000000000000000000000000000000000000000000000000000008152600401611a2d90614bd9565b60405180910390fd5b600060066000848152602001908152602001600020600b015411611a8f576040517f08c379a0000000000000000000000000000000000000000000000000000000008152600401611a8690614af9565b60405180910390fd5b426001600454611a9f9190614e6f565b60066000858152602001908152602001600020600b0154611ac09190614e19565b1015611b01576040517f08c379a0000000000000000000000000000000000000000000000000000000008152600401611af890614bb9565b60405180910390fd5b600260009054906101000a900473ffffffffffffffffffffffffffffffffffffffff1673ffffffffffffffffffffffffffffffffffffffff166323b872dd82600560009054906101000a900473ffffffffffffffffffffffffffffffffffffffff1660066000878152602001908152602001600020600701546040518463ffffffff1660e01b8152600401611b9893929190614984565b602060405180830381600087803b158015611bb257600080fd5b505af1158015611bc6573d6000803e3d6000fd5b505050506040513d601f19601f82011682018060405250810190611bea9190614346565b611bf357600080fd5b6001600660008481526020019081526020016000206008016000828254611c1a9190614e19565b92505081905550600060066000848152602001908152602001600020600b0181905550600160009054906101000a900473ffffffffffffffffffffffffffffffffffffffff1673ffffffffffffffffffffffffffffffffffffffff1663162094c483600660008681526020019081526020016000206009016040518363ffffffff1660e01b8152600401611caf929190614cad565b600060405180830381600087803b158015611cc957600080fd5b505af1158015611cdd573d6000803e3d6000fd5b5050505060066000838152602001908152602001600020600601546006600084815260200190815260200160002060050181905550600660008381526020019081526020016000206006015460066000848152602001908152602001600020600401819055506006600083815260200190815260200160002060030154600660008481526020019081526020016000206002018190555060066000838152602001908152602001600020600101546006600084815260200190815260200160002060000181905550600060066000848152602001908152602001600020600a0160006101000a81548160ff021916908315150217905550600060066000848152602001908152602001600020600c0160006101000a81548160ff021916908315150217905550600160009054906101000a900473ffffffffffffffffffffffffffffffffffffffff1673ffffffffffffffffffffffffffffffffffffffff1663346c94cf8360006040518363ffffffff1660e01b8152600401611e61929190614c54565b600060405180830381600087803b158015611e7b57600080fd5b505af1158015611e8f573d6000803e3d6000fd5b50505050611eb26006600084815260200190815260200160002060060154612de4565b6001600a6000828254611ec59190614e19565b925050819055508073ffffffffffffffffffffffffffffffffffffffff167f635de93c531f71858abd0ece9557f458352b45f876b0810a46bd1adc0944a42983604051611f129190614c39565b60405180910390a25050565b611f266125a0565b73ffffffffffffffffffffffffffffffffffffffff16611f446111c8565b73ffffffffffffffffffffffffffffffffffffffff1614611f9a576040517f08c379a0000000000000000000000000000000000000000000000000000000008152600401611f9190614b59565b60405180910390fd5b6001151560066000878152602001908152602001600020600a0160009054906101000a900460ff16151514612004576040517f08c379a0000000000000000000000000000000000000000000000000000000008152600401611ffb90614b19565b60405180910390fd5b600060066000878152602001908152602001600020600b01541461205d576040517f08c379a000000000000000000000000000000000000000000000000000000000815260040161205490614b79565b60405180910390fd5b61207d600660008781526020019081526020016000206004015485612df0565b600160009054906101000a900473ffffffffffffffffffffffffffffffffffffffff1673ffffffffffffffffffffffffffffffffffffffff1663162094c486836040518363ffffffff1660e01b81526004016120da929190614c7d565b600060405180830381600087803b1580156120f457600080fd5b505af1158015612108573d6000803e3d6000fd5b50505050836006600087815260200190815260200160002060050181905550836006600087815260200190815260200160002060040181905550826006600087815260200190815260200160002060020181905550816006600087815260200190815260200160002060000181905550600060066000878152602001908152602001600020600a0160006101000a81548160ff021916908315150217905550600060066000878152602001908152602001600020600c0160006101000a81548160ff021916908315150217905550600160009054906101000a900473ffffffffffffffffffffffffffffffffffffffff1673ffffffffffffffffffffffffffffffffffffffff1663346c94cf8660006040518363ffffffff1660e01b8152600401612234929190614c54565b600060405180830381600087803b15801561224e57600080fd5b505af1158015612262573d6000803e3d6000fd5b50505050600160009054906101000a900473ffffffffffffffffffffffffffffffffffffffff1673ffffffffffffffffffffffffffffffffffffffff16636352211e866040518263ffffffff1660e01b81526004016122c19190614c39565b60206040518083038186803b1580156122d957600080fd5b505afa1580156122ed573d6000803e3d6000fd5b505050506040513d601f19601f82011682018060405250810190612311919061424d565b73ffffffffffffffffffffffffffffffffffffffff167f7faed872658ab10c4f98b4705a343cb26b9739b37e202617569d97fb3ddb7ef9866040516123569190614c39565b60405180910390a25050505050565b61236d6125a0565b73ffffffffffffffffffffffffffffffffffffffff1661238b6111c8565b73ffffffffffffffffffffffffffffffffffffffff16146123e1576040517f08c379a00000000000000000000000000000000000000000000000000000000081526004016123d890614b59565b60405180910390fd5b600073ffffffffffffffffffffffffffffffffffffffff168173ffffffffffffffffffffffffffffffffffffffff161415612451576040517f08c379a000000000000000000000000000000000000000000000000000000000815260040161244890614ad9565b60405180910390fd5b8073ffffffffffffffffffffffffffffffffffffffff1660008054906101000a900473ffffffffffffffffffffffffffffffffffffffff1673ffffffffffffffffffffffffffffffffffffffff167f8be0079c531659141344cd1fd0a4f28419497f9722a3daafe3b4186f6b6457e060405160405180910390a3806000806101000a81548173ffffffffffffffffffffffffffffffffffffffff021916908373ffffffffffffffffffffffffffffffffffffffff16021790555050565b60008060008060066000868152602001908152602001600020600701546006600087815260200190815260200160002060080154600660008881526020019081526020016000206002015460066000898152602001908152602001600020600b015493509350935093509193509193565b60008082600f0b121561259157600080fd5b604082600f0b901d9050919050565b600033905090565b60006001151560066000848152602001908152602001600020600a0160009054906101000a900460ff16151514612614576040517f08c379a000000000000000000000000000000000000000000000000000000000815260040161260b90614b19565b60405180910390fd5b6000600360009054906101000a900473ffffffffffffffffffffffffffffffffffffffff1673ffffffffffffffffffffffffffffffffffffffff1663b7d002076040518163ffffffff1660e01b815260040160206040518083038186803b15801561267e57600080fd5b505afa158015612692573d6000803e3d6000fd5b505050506040513d601f19601f820116820180604052508101906126b69190614398565b905060006126c384612e06565b90506126cf8183612efe565b92506127106040518060400160405280601c81526020017f436f6e747261637420726573737572656374696f6e2070726963653a0000000081525084612fb9565b5050919050565b600081905061278b60098281548110612759577f4e487b7100000000000000000000000000000000000000000000000000000000600052603260045260246000fd5b90600052602060002090600291828204019190066010029054906101000a9004600f0b6127866001613055565b613078565b600982815481106127c5577f4e487b7100000000000000000000000000000000000000000000000000000000600052603260045260246000fd5b90600052602060002090600291828204019190066010026101000a8154816fffffffffffffffffffffffffffffffff0219169083600f0b6fffffffffffffffffffffffffffffffff1602179055505050565b60008190506001816128299190614e19565b600980549050101561299b5760006001826128449190614e19565b67ffffffffffffffff811115612883577f4e487b7100000000000000000000000000000000000000000000000000000000600052604160045260246000fd5b6040519080825280602002602001820160405280156128b15781602001602082028036833780820191505090505b50905060005b60098054905081101561298157600981815481106128fe577f4e487b7100000000000000000000000000000000000000000000000000000000600052603260045260246000fd5b90600052602060002090600291828204019190066010029054906101000a9004600f0b82828151811061295a577f4e487b7100000000000000000000000000000000000000000000000000000000600052603260045260246000fd5b6020026020010190600f0b9081600f0b81525050808061297990614ff7565b9150506128b7565b508060099080519060200190612998929190613fc9565b50505b612a0a600982815481106129d8577f4e487b7100000000000000000000000000000000000000000000000000000000600052603260045260246000fd5b90600052602060002090600291828204019190066010029054906101000a9004600f0b612a056001613055565b6130df565b60098281548110612a44577f4e487b7100000000000000000000000000000000000000000000000000000000600052603260045260246000fd5b90600052602060002090600291828204019190066010026101000a8154816fffffffffffffffffffffffffffffffff0219169083600f0b6fffffffffffffffffffffffffffffffff1602179055505050565b612b3284848484604051602401612ab09493929190614a66565b6040516020818303038152906040527fa0c4b225000000000000000000000000000000000000000000000000000000007bffffffffffffffffffffffffffffffffffffffffffffffffffffffff19166020820180517bffffffffffffffffffffffffffffffffffffffffffffffffffffffff8381831617835250505050613146565b50505050565b6001151560066000838152602001908152602001600020600a0160009054906101000a900460ff16151514612ba2576040517f08c379a0000000000000000000000000000000000000000000000000000000008152600401612b9990614b19565b60405180910390fd5b600060066000838152602001908152602001600020600b015414612bfb576040517f08c379a0000000000000000000000000000000000000000000000000000000008152600401612bf290614b79565b60405180910390fd5b600060066000838152602001908152602001600020600a0160006101000a81548160ff021916908315150217905550600060066000838152602001908152602001600020600c0160006101000a81548160ff021916908315150217905550600160009054906101000a900473ffffffffffffffffffffffffffffffffffffffff1673ffffffffffffffffffffffffffffffffffffffff1663346c94cf8260006040518363ffffffff1660e01b8152600401612cb7929190614c54565b600060405180830381600087803b158015612cd157600080fd5b505af1158015612ce5573d6000803e3d6000fd5b50505050600160009054906101000a900473ffffffffffffffffffffffffffffffffffffffff1673ffffffffffffffffffffffffffffffffffffffff16636352211e826040518263ffffffff1660e01b8152600401612d449190614c39565b60206040518083038186803b158015612d5c57600080fd5b505afa158015612d70573d6000803e3d6000fd5b505050506040513d601f19601f82011682018060405250810190612d94919061424d565b73ffffffffffffffffffffffffffffffffffffffff167f7faed872658ab10c4f98b4705a343cb26b9739b37e202617569d97fb3ddb7ef982604051612dd99190614c39565b60405180910390a250565b612ded81612817565b50565b612df982612717565b612e0281612de4565b5050565b600080600660008481526020019081526020016000206005015490506000612e2e6000613055565b905060005b828111612eb557612ea08260098381548110612e78577f4e487b7100000000000000000000000000000000000000000000000000000000600052603260045260246000fd5b90600052602060002090600291828204019190066010029054906101000a9004600f0b6130df565b91508080612ead90614ff7565b915050612e33565b50612eca81612ec5600a54613055565b61316f565b90506000612ed783613055565b9050612ef4612ee58361321f565b612eef8384613298565b613298565b9350505050919050565b600080821415612f115760009050612fb3565b600083600f0b1215612f2257600080fd5b600060406fffffffffffffffffffffffffffffffff841685600f0b02901c90506000608084901c85600f0b02905077ffffffffffffffffffffffffffffffffffffffffffffffff811115612f7557600080fd5b604081901b9050817fffffffffffffffffffffffffffffffffffffffffffffffffffffffffffffffff03811115612fab57600080fd5b818101925050505b92915050565b6130518282604051602401612fcf929190614a36565b6040516020818303038152906040527f9710a9d0000000000000000000000000000000000000000000000000000000007bffffffffffffffffffffffffffffffffffffffffffffffffffffffff19166020820180517bffffffffffffffffffffffffffffffffffffffffffffffffffffffff8381831617835250505050613146565b5050565b6000677fffffffffffffff82111561306c57600080fd5b604082901b9050919050565b60008082600f0b84600f0b0390507fffffffffffffffffffffffffffffffff80000000000000000000000000000000600f0b81121580156130cc57506f7fffffffffffffffffffffffffffffff600f0b8113155b6130d557600080fd5b8091505092915050565b60008082600f0b84600f0b0190507fffffffffffffffffffffffffffffffff80000000000000000000000000000000600f0b811215801561313357506f7fffffffffffffffffffffffffffffff600f0b8113155b61313c57600080fd5b8091505092915050565b60008151905060006a636f6e736f6c652e6c6f679050602083016000808483855afa5050505050565b60008082600f0b141561318157600080fd5b600082600f0b604085600f0b901b816131c3577f4e487b7100000000000000000000000000000000000000000000000000000000600052601260045260246000fd5b0590507fffffffffffffffffffffffffffffffff80000000000000000000000000000000600f0b811215801561320c57506f7fffffffffffffffffffffffffffffff600f0b8113155b61321557600080fd5b8091505092915050565b60006840000000000000000082600f0b1261323957600080fd5b7fffffffffffffffffffffffffffffffffffffffffffffffc0000000000000000082600f0b121561326d5760009050613293565b6132906080700171547652b82fe1777d0ffda0d23a7d1284600f0b02901d613303565b90505b919050565b600080604083600f0b85600f0b02901d90507fffffffffffffffffffffffffffffffff80000000000000000000000000000000600f0b81121580156132f057506f7fffffffffffffffffffffffffffffff600f0b8113155b6132f957600080fd5b8091505092915050565b60006840000000000000000082600f0b1261331d57600080fd5b7fffffffffffffffffffffffffffffffffffffffffffffffc0000000000000000082600f0b12156133515760009050613efe565b60006f80000000000000000000000000000000905060006780000000000000008416600f0b131561339757608070016a09e667f3bcc908b2fb1366ea957d3e8202901c90505b60006740000000000000008416600f0b13156133c85760807001306fe0a31b7152de8d5a46305c85edec8202901c90505b60006720000000000000008416600f0b13156133f95760807001172b83c7d517adcdf7c8c50eb14a791f8202901c90505b60006710000000000000008416600f0b131561342a57608070010b5586cf9890f6298b92b71842a983638202901c90505b60006708000000000000008416600f0b131561345b5760807001059b0d31585743ae7c548eb68ca417fd8202901c90505b60006704000000000000008416600f0b131561348c576080700102c9a3e778060ee6f7caca4f7a29bde88202901c90505b60006702000000000000008416600f0b13156134bd57608070010163da9fb33356d84a66ae336dcdfa3f8202901c90505b60006701000000000000008416600f0b13156134ee576080700100b1afa5abcbed6129ab13ec11dc95438202901c90505b600066800000000000008416600f0b131561351e57608070010058c86da1c09ea1ff19d294cf2f679b8202901c90505b600066400000000000008416600f0b131561354e5760807001002c605e2e8cec506d21bfc89a23a00f8202901c90505b600066200000000000008416600f0b131561357e576080700100162f3904051fa128bca9c55c31e5df8202901c90505b600066100000000000008416600f0b13156135ae5760807001000b175effdc76ba38e31671ca9397258202901c90505b600066080000000000008416600f0b13156135de576080700100058ba01fb9f96d6cacd4b180917c3d8202901c90505b600066040000000000008416600f0b131561360e57608070010002c5cc37da9491d0985c348c68e7b38202901c90505b600066020000000000008416600f0b131561363e5760807001000162e525ee054754457d59952920268202901c90505b600066010000000000008416600f0b131561366e57608070010000b17255775c040618bf4a4ade83fc8202901c90505b6000658000000000008416600f0b131561369d5760807001000058b91b5bc9ae2eed81e9b7d4cfab8202901c90505b6000654000000000008416600f0b13156136cc576080700100002c5c89d5ec6ca4d7c8acc017b7c98202901c90505b6000652000000000008416600f0b13156136fb57608070010000162e43f4f831060e02d839a9d16d8202901c90505b6000651000000000008416600f0b131561372a576080700100000b1721bcfc99d9f890ea069117638202901c90505b6000650800000000008416600f0b131561375957608070010000058b90cf1e6d97f9ca14dbcc16288202901c90505b6000650400000000008416600f0b13156137885760807001000002c5c863b73f016468f6bac5ca2b8202901c90505b6000650200000000008416600f0b13156137b7576080700100000162e430e5a18f6119e3c02282a58202901c90505b6000650100000000008416600f0b13156137e65760807001000000b1721835514b86e6d96efd1bfe8202901c90505b60006480000000008416600f0b1315613814576080700100000058b90c0b48c6be5df846c5b2ef8202901c90505b60006440000000008416600f0b131561384257608070010000002c5c8601cc6b9e94213c72737a8202901c90505b60006420000000008416600f0b13156138705760807001000000162e42fff037df38aa2b219f068202901c90505b60006410000000008416600f0b131561389e57608070010000000b17217fba9c739aa5819f44f98202901c90505b60006408000000008416600f0b13156138cc5760807001000000058b90bfcdee5acd3c1cedc8238202901c90505b60006404000000008416600f0b13156138fa576080700100000002c5c85fe31f35a6a30da1be508202901c90505b60006402000000008416600f0b131561392857608070010000000162e42ff0999ce3541b9fffcf8202901c90505b60006401000000008416600f0b1315613956576080700100000000b17217f80f4ef5aadda455548202901c90505b600063800000008416600f0b131561398357608070010000000058b90bfbf8479bd5a81b51ad8202901c90505b600063400000008416600f0b13156139b05760807001000000002c5c85fdf84bd62ae30a74cc8202901c90505b600063200000008416600f0b13156139dd576080700100000000162e42fefb2fed257559bdaa8202901c90505b600063100000008416600f0b1315613a0a5760807001000000000b17217f7d5a7716bba4a9ae8202901c90505b600063080000008416600f0b1315613a37576080700100000000058b90bfbe9ddbac5e109cce8202901c90505b600063040000008416600f0b1315613a6457608070010000000002c5c85fdf4b15de6f17eb0d8202901c90505b600063020000008416600f0b1315613a915760807001000000000162e42fefa494f1478fde058202901c90505b600063010000008416600f0b1315613abe57608070010000000000b17217f7d20cf927c8e94c8202901c90505b6000628000008416600f0b1315613aea5760807001000000000058b90bfbe8f71cb4e4b33d8202901c90505b6000624000008416600f0b1315613b16576080700100000000002c5c85fdf477b662b269458202901c90505b6000622000008416600f0b1315613b4257608070010000000000162e42fefa3ae53369388c8202901c90505b6000621000008416600f0b1315613b6e576080700100000000000b17217f7d1d351a389d408202901c90505b6000620800008416600f0b1315613b9a57608070010000000000058b90bfbe8e8b2d3d4ede8202901c90505b6000620400008416600f0b1315613bc65760807001000000000002c5c85fdf4741bea6e77e8202901c90505b6000620200008416600f0b1315613bf2576080700100000000000162e42fefa39fe95583c28202901c90505b6000620100008416600f0b1315613c1e5760807001000000000000b17217f7d1cfb72b45e18202901c90505b60006180008416600f0b1315613c49576080700100000000000058b90bfbe8e7cc35c3f08202901c90505b60006140008416600f0b1315613c7457608070010000000000002c5c85fdf473e242ea388202901c90505b60006120008416600f0b1315613c9f5760807001000000000000162e42fefa39f02b772c8202901c90505b60006110008416600f0b1315613cca57608070010000000000000b17217f7d1cf7d83c1a8202901c90505b60006108008416600f0b1315613cf55760807001000000000000058b90bfbe8e7bdcbe2e8202901c90505b60006104008416600f0b1315613d20576080700100000000000002c5c85fdf473dea871f8202901c90505b60006102008416600f0b1315613d4b57608070010000000000000162e42fefa39ef44d918202901c90505b60006101008416600f0b1315613d76576080700100000000000000b17217f7d1cf79e9498202901c90505b600060808416600f0b1315613da057608070010000000000000058b90bfbe8e7bce5448202901c90505b600060408416600f0b1315613dca5760807001000000000000002c5c85fdf473de6eca8202901c90505b600060208416600f0b1315613df4576080700100000000000000162e42fefa39ef366f8202901c90505b600060108416600f0b1315613e1e5760807001000000000000000b17217f7d1cf79afa8202901c90505b600060088416600f0b1315613e48576080700100000000000000058b90bfbe8e7bcd6d8202901c90505b600060048416600f0b1315613e7257608070010000000000000002c5c85fdf473de6b28202901c90505b600060028416600f0b1315613e9c5760807001000000000000000162e42fefa39ef3588202901c90505b600060018416600f0b1315613ec657608070010000000000000000b17217f7d1cf79ab8202901c90505b604083600f0b901d603f03600f0b81901c90506f7fffffffffffffffffffffffffffffff600f0b811115613ef957600080fd5b809150505b919050565b828054613f0f90614fc5565b90600052602060002090601f016020900481019282613f315760008555613f78565b82601f10613f4a57805160ff1916838001178555613f78565b82800160010185558215613f78579182015b82811115613f77578251825591602001919060010190613f5c565b5b509050613f8591906140a0565b5090565b508054613f9590614fc5565b6000825580601f10613fa75750613fc6565b601f016020900490600052602060002090810190613fc591906140a0565b5b50565b8280548282559060005260206000209060010160029004810192821561408f5791602002820160005b8382111561405157835183826101000a8154816fffffffffffffffffffffffffffffffff0219169083600f0b6fffffffffffffffffffffffffffffffff1602179055509260200192601001602081600f01049283019260010302613ff2565b801561408d5782816101000a8154906fffffffffffffffffffffffffffffffff0219169055601001602081600f01049283019260010302614051565b505b50905061409c91906140a0565b5090565b5b808211156140b95760008160009055506001016140a1565b5090565b60006140d06140cb84614d53565b614d22565b905080838252602082019050828560208602820111156140ef57600080fd5b60005b8581101561411f578161410588826141fa565b8452602084019350602083019250506001810190506140f2565b5050509392505050565b600061413c61413784614d7f565b614d22565b90508281526020810184848401111561415457600080fd5b61415f848285614f59565b509392505050565b600081359050614176816150de565b92915050565b60008151905061418b816150de565b92915050565b600082601f8301126141a257600080fd5b81356141b28482602086016140bd565b91505092915050565b6000815190506141ca816150f5565b92915050565b600082601f8301126141e157600080fd5b81356141f1848260208601614129565b91505092915050565b6000813590506142098161510c565b92915050565b60008151905061421e8161510c565b92915050565b60006020828403121561423657600080fd5b600061424484828501614167565b91505092915050565b60006020828403121561425f57600080fd5b600061426d8482850161417c565b91505092915050565b600080600080600060a0868803121561428e57600080fd5b600061429c88828901614167565b95505060206142ad888289016141fa565b94505060406142be888289016141fa565b93505060606142cf888289016141fa565b925050608086013567ffffffffffffffff8111156142ec57600080fd5b6142f8888289016141d0565b9150509295509295909350565b60006020828403121561431757600080fd5b600082013567ffffffffffffffff81111561433157600080fd5b61433d84828501614191565b91505092915050565b60006020828403121561435857600080fd5b6000614366848285016141bb565b91505092915050565b60006020828403121561438157600080fd5b600061438f848285016141fa565b91505092915050565b6000602082840312156143aa57600080fd5b60006143b88482850161420f565b91505092915050565b600080604083850312156143d457600080fd5b60006143e2858286016141fa565b92505060206143f3858286016141fa565b9150509250929050565b600080600080600060a0868803121561441557600080fd5b6000614423888289016141fa565b9550506020614434888289016141fa565b9450506040614445888289016141fa565b9350506060614456888289016141fa565b925050608086013567ffffffffffffffff81111561447357600080fd5b61447f888289016141d0565b9150509295509295909350565b6000614498838361495a565b60208301905092915050565b6144ad81614efd565b82525050565b60006144be82614dd4565b6144c88185614df7565b93506144d383614daf565b8060005b838110156145045781516144eb888261448c565b97506144f683614dea565b9250506001810190506144d7565b5085935050505092915050565b61451a81614f0f565b82525050565b600061452b82614ddf565b6145358185614e08565b9350614545818560208601614f68565b61454e816150cd565b840191505092915050565b6000815461456681614fc5565b6145708186614e08565b9450600182166000811461458b576001811461459d576145d0565b60ff19831686526020860193506145d0565b6145a685614dbf565b60005b838110156145c8578154818901526001820191506020810190506145a9565b808801955050505b50505092915050565b60006145e6601a83614e08565b91507f496e76616c696420726573737572656374696f6e20636f756e740000000000006000830152602082019050919050565b6000614626602683614e08565b91507f4f776e61626c653a206e6577206f776e657220697320746865207a65726f206160008301527f64647265737300000000000000000000000000000000000000000000000000006020830152604082019050919050565b600061468c601183614e08565b91507f536e6f6f6b206973206e6f7420646561640000000000000000000000000000006000830152602082019050919050565b60006146cc601483614e08565b91507f536e6f6f6b206973206e6f7420696e20706c61790000000000000000000000006000830152602082019050919050565b600061470c602083614e08565b91507f536e6f6f6b206973206e6f7420616c6c6f77656420666f7220706c6179696e676000830152602082019050919050565b600061474c602083614e08565b91507f4f776e61626c653a2063616c6c6572206973206e6f7420746865206f776e65726000830152602082019050919050565b600061478c600d83614e08565b91507f536e6f6f6b2069732064656164000000000000000000000000000000000000006000830152602082019050919050565b60006147cc601883614e08565b91507f536e6f6f6b20697320616c726561647920696e20706c617900000000000000006000830152602082019050919050565b600061480c602483614e08565b91507f526573737572656374696f6e20706572696f64206f6620736e6f6f6b20656c6160008301527f70736564000000000000000000000000000000000000000000000000000000006020830152604082019050919050565b6000614872602983614e08565b91507f4f6e6c7920736e6f6f6b206f776e65722063616e20726573737572656374206460008301527f65616420736e6f6f6b00000000000000000000000000000000000000000000006020830152604082019050919050565b60006148d8600f83614e08565b91507f4e6f7420746f6b656e206f776e657200000000000000000000000000000000006000830152602082019050919050565b6000614918601c83614e08565b91507f4e6f7420656e6f7567682066756e647320666f72206d696e74696e67000000006000830152602082019050919050565b61495481614f3b565b82525050565b61496381614f45565b82525050565b600060208201905061497e60008301846144a4565b92915050565b600060608201905061499960008301866144a4565b6149a660208301856144a4565b6149b3604083018461494b565b949350505050565b60006040820190506149d060008301856144a4565b81810360208301526149e28184614520565b90509392505050565b6000604082019050614a0060008301856144a4565b614a0d602083018461494b565b9392505050565b60006020820190508181036000830152614a2e81846144b3565b905092915050565b60006040820190508181036000830152614a508185614520565b9050614a5f602083018461494b565b9392505050565b60006080820190508181036000830152614a808187614520565b9050614a8f602083018661494b565b8181036040830152614aa18185614520565b9050614ab0606083018461494b565b95945050505050565b60006020820190508181036000830152614ad2816145d9565b9050919050565b60006020820190508181036000830152614af281614619565b9050919050565b60006020820190508181036000830152614b128161467f565b9050919050565b60006020820190508181036000830152614b32816146bf565b9050919050565b60006020820190508181036000830152614b52816146ff565b9050919050565b60006020820190508181036000830152614b728161473f565b9050919050565b60006020820190508181036000830152614b928161477f565b9050919050565b60006020820190508181036000830152614bb2816147bf565b9050919050565b60006020820190508181036000830152614bd2816147ff565b9050919050565b60006020820190508181036000830152614bf281614865565b9050919050565b60006020820190508181036000830152614c12816148cb565b9050919050565b60006020820190508181036000830152614c328161490b565b9050919050565b6000602082019050614c4e600083018461494b565b92915050565b6000604082019050614c69600083018561494b565b614c766020830184614511565b9392505050565b6000604082019050614c92600083018561494b565b8181036020830152614ca48184614520565b90509392505050565b6000604082019050614cc2600083018561494b565b8181036020830152614cd48184614559565b90509392505050565b6000608082019050614cf2600083018761494b565b614cff602083018661494b565b614d0c604083018561494b565b614d19606083018461494b565b95945050505050565b6000604051905081810181811067ffffffffffffffff82111715614d4957614d4861509e565b5b8060405250919050565b600067ffffffffffffffff821115614d6e57614d6d61509e565b5b602082029050602081019050919050565b600067ffffffffffffffff821115614d9a57614d9961509e565b5b601f19601f8301169050602081019050919050565b6000819050602082019050919050565b60008190508160005260206000209050919050565b600081519050919050565b600081519050919050565b6000602082019050919050565b600082825260208201905092915050565b600082825260208201905092915050565b6000614e2482614f3b565b9150614e2f83614f3b565b9250827fffffffffffffffffffffffffffffffffffffffffffffffffffffffffffffffff03821115614e6457614e63615040565b5b828201905092915050565b6000614e7a82614f3b565b9150614e8583614f3b565b9250817fffffffffffffffffffffffffffffffffffffffffffffffffffffffffffffffff0483118215151615614ebe57614ebd615040565b5b828202905092915050565b6000614ed482614f3b565b9150614edf83614f3b565b925082821015614ef257614ef1615040565b5b828203905092915050565b6000614f0882614f1b565b9050919050565b60008115159050919050565b600073ffffffffffffffffffffffffffffffffffffffff82169050919050565b6000819050919050565b600067ffffffffffffffff82169050919050565b82818337600083830152505050565b60005b83811015614f86578082015181840152602081019050614f6b565b83811115614f95576000848401525b50505050565b6000614fa682614f3b565b91506000821415614fba57614fb9615040565b5b600182039050919050565b60006002820490506001821680614fdd57607f821691505b60208210811415614ff157614ff061506f565b5b50919050565b600061500282614f3b565b91507fffffffffffffffffffffffffffffffffffffffffffffffffffffffffffffffff82141561503557615034615040565b5b600182019050919050565b7f4e487b7100000000000000000000000000000000000000000000000000000000600052601160045260246000fd5b7f4e487b7100000000000000000000000000000000000000000000000000000000600052602260045260246000fd5b7f4e487b7100000000000000000000000000000000000000000000000000000000600052604160045260246000fd5b6000601f19601f8301169050919050565b6150e781614efd565b81146150f257600080fd5b50565b6150fe81614f0f565b811461510957600080fd5b50565b61511581614f3b565b811461512057600080fd5b5056fea2646970667358221220d42533b0705bde00b5e1fb86ae83c72a71ac5b89491c61a0ea433406c8d82ae964736f6c63430008000033",
  "devdoc": {
    "kind": "dev",
    "methods": {
      "owner()": {
        "details": "Returns the address of the current owner."
      },
      "renounceOwnership()": {
        "details": "Leaves the contract without owner. It will not be possible to call `onlyOwner` functions anymore. Can only be called by the current owner. NOTE: Renouncing ownership will leave the contract without an owner, thereby removing any functionality that is only available to the owner."
      },
      "transferOwnership(address)": {
        "details": "Transfers ownership of the contract to a new account (`newOwner`). Can only be called by the current owner."
      }
    },
    "version": 1
  },
  "userdoc": {
    "kind": "user",
    "methods": {},
    "version": 1
  },
  "storageLayout": {
    "storage": [
      {
        "astId": 330,
        "contract": "contracts/SnookGame.sol:SnookGame",
        "label": "_owner",
        "offset": 0,
        "slot": "0",
        "type": "t_address"
      },
      {
        "astId": 6820,
        "contract": "contracts/SnookGame.sol:SnookGame",
        "label": "_snook",
        "offset": 0,
        "slot": "1",
        "type": "t_contract(SnookToken)8331"
      },
      {
        "astId": 6823,
        "contract": "contracts/SnookGame.sol:SnookGame",
        "label": "_skill",
        "offset": 0,
        "slot": "2",
        "type": "t_contract(SkillToken)6754"
      },
      {
        "astId": 6826,
        "contract": "contracts/SnookGame.sol:SnookGame",
        "label": "_uniswap",
        "offset": 0,
        "slot": "3",
        "type": "t_contract(IUiniswapUSDCSkill)6687"
      },
      {
        "astId": 6828,
        "contract": "contracts/SnookGame.sol:SnookGame",
        "label": "_burialDelay",
        "offset": 0,
        "slot": "4",
        "type": "t_uint256"
      },
      {
        "astId": 6830,
        "contract": "contracts/SnookGame.sol:SnookGame",
        "label": "_treasury",
        "offset": 0,
        "slot": "5",
        "type": "t_address"
      },
      {
        "astId": 6862,
        "contract": "contracts/SnookGame.sol:SnookGame",
        "label": "_descriptors",
        "offset": 0,
        "slot": "6",
        "type": "t_mapping(t_uint256,t_struct(Descriptor)6857_storage)"
      },
      {
        "astId": 6865,
        "contract": "contracts/SnookGame.sol:SnookGame",
        "label": "_morgue",
        "offset": 0,
        "slot": "7",
        "type": "t_array(t_uint256)dyn_storage"
      },
      {
        "astId": 6868,
        "contract": "contracts/SnookGame.sol:SnookGame",
        "label": "_sanctuary",
        "offset": 0,
        "slot": "8",
        "type": "t_array(t_uint256)dyn_storage"
      },
      {
        "astId": 6871,
        "contract": "contracts/SnookGame.sol:SnookGame",
        "label": "_traitHist",
        "offset": 0,
        "slot": "9",
        "type": "t_array(t_int128)dyn_storage"
      },
      {
        "astId": 6873,
        "contract": "contracts/SnookGame.sol:SnookGame",
        "label": "_aliveSnookCount",
        "offset": 0,
        "slot": "10",
        "type": "t_uint256"
      }
    ],
    "types": {
      "t_address": {
        "encoding": "inplace",
        "label": "address",
        "numberOfBytes": "20"
      },
      "t_array(t_int128)dyn_storage": {
        "base": "t_int128",
        "encoding": "dynamic_array",
        "label": "int128[]",
        "numberOfBytes": "32"
      },
      "t_array(t_uint256)dyn_storage": {
        "base": "t_uint256",
        "encoding": "dynamic_array",
        "label": "uint256[]",
        "numberOfBytes": "32"
      },
      "t_bool": {
        "encoding": "inplace",
        "label": "bool",
        "numberOfBytes": "1"
      },
      "t_contract(IUiniswapUSDCSkill)6687": {
        "encoding": "inplace",
        "label": "contract IUiniswapUSDCSkill",
        "numberOfBytes": "20"
      },
      "t_contract(SkillToken)6754": {
        "encoding": "inplace",
        "label": "contract SkillToken",
        "numberOfBytes": "20"
      },
      "t_contract(SnookToken)8331": {
        "encoding": "inplace",
        "label": "contract SnookToken",
        "numberOfBytes": "20"
      },
      "t_int128": {
        "encoding": "inplace",
        "label": "int128",
        "numberOfBytes": "16"
      },
      "t_mapping(t_uint256,t_struct(Descriptor)6857_storage)": {
        "encoding": "mapping",
        "key": "t_uint256",
        "label": "mapping(uint256 => struct SnookGame.Descriptor)",
        "numberOfBytes": "32",
        "value": "t_struct(Descriptor)6857_storage"
      },
      "t_string_storage": {
        "encoding": "bytes",
        "label": "string",
        "numberOfBytes": "32"
      },
      "t_struct(Descriptor)6857_storage": {
        "encoding": "inplace",
        "label": "struct SnookGame.Descriptor",
        "members": [
          {
            "astId": 6832,
            "contract": "contracts/SnookGame.sol:SnookGame",
            "label": "score",
            "offset": 0,
            "slot": "0",
            "type": "t_uint256"
          },
          {
            "astId": 6834,
            "contract": "contracts/SnookGame.sol:SnookGame",
            "label": "onRessurectionScore",
            "offset": 0,
            "slot": "1",
            "type": "t_uint256"
          },
          {
            "astId": 6836,
            "contract": "contracts/SnookGame.sol:SnookGame",
            "label": "stars",
            "offset": 0,
            "slot": "2",
            "type": "t_uint256"
          },
          {
            "astId": 6838,
            "contract": "contracts/SnookGame.sol:SnookGame",
            "label": "onRessurectionStars",
            "offset": 0,
            "slot": "3",
            "type": "t_uint256"
          },
          {
            "astId": 6840,
            "contract": "contracts/SnookGame.sol:SnookGame",
            "label": "onGameEntryTraitCount",
            "offset": 0,
            "slot": "4",
            "type": "t_uint256"
          },
          {
            "astId": 6842,
            "contract": "contracts/SnookGame.sol:SnookGame",
            "label": "traitCount",
            "offset": 0,
            "slot": "5",
            "type": "t_uint256"
          },
          {
            "astId": 6844,
            "contract": "contracts/SnookGame.sol:SnookGame",
            "label": "onRessurectionTraitCount",
            "offset": 0,
            "slot": "6",
            "type": "t_uint256"
          },
          {
            "astId": 6846,
            "contract": "contracts/SnookGame.sol:SnookGame",
            "label": "ressurectionPrice",
            "offset": 0,
            "slot": "7",
            "type": "t_uint256"
          },
          {
            "astId": 6848,
            "contract": "contracts/SnookGame.sol:SnookGame",
            "label": "ressurectionCount",
            "offset": 0,
            "slot": "8",
            "type": "t_uint256"
          },
          {
            "astId": 6850,
            "contract": "contracts/SnookGame.sol:SnookGame",
            "label": "onRessurectionTokenURI",
            "offset": 0,
            "slot": "9",
            "type": "t_string_storage"
          },
          {
            "astId": 6852,
            "contract": "contracts/SnookGame.sol:SnookGame",
            "label": "ingame",
            "offset": 0,
            "slot": "10",
            "type": "t_bool"
          },
          {
            "astId": 6854,
            "contract": "contracts/SnookGame.sol:SnookGame",
            "label": "deathTime",
            "offset": 0,
            "slot": "11",
            "type": "t_uint256"
          },
          {
            "astId": 6856,
            "contract": "contracts/SnookGame.sol:SnookGame",
            "label": "gameAllowed",
            "offset": 0,
            "slot": "12",
            "type": "t_bool"
          }
        ],
        "numberOfBytes": "416"
      },
      "t_uint256": {
        "encoding": "inplace",
        "label": "uint256",
        "numberOfBytes": "32"
      }
    }
  }
}