{
  "address": "0x9c0dBE2C652d0e3f146f1071827232c6747ac272",
  "abi": [
    {
      "inputs": [
        {
          "internalType": "address",
          "name": "skill",
          "type": "address"
        }
      ],
      "stateMutability": "nonpayable",
      "type": "constructor"
    },
    {
      "anonymous": false,
      "inputs": [
        {
          "indexed": true,
          "internalType": "address",
          "name": "previousOwner",
          "type": "address"
        },
        {
          "indexed": true,
          "internalType": "address",
          "name": "newOwner",
          "type": "address"
        }
      ],
      "name": "OwnershipTransferred",
      "type": "event"
    },
    {
      "inputs": [],
      "name": "_percentageSum",
      "outputs": [
        {
          "internalType": "uint256",
          "name": "",
          "type": "uint256"
        }
      ],
      "stateMutability": "view",
      "type": "function"
    },
    {
      "inputs": [],
      "name": "allocate",
      "outputs": [],
      "stateMutability": "nonpayable",
      "type": "function"
    },
    {
      "inputs": [],
      "name": "owner",
      "outputs": [
        {
          "internalType": "address",
          "name": "",
          "type": "address"
        }
      ],
      "stateMutability": "view",
      "type": "function"
    },
    {
      "inputs": [
        {
          "internalType": "address",
          "name": "allocatee",
          "type": "address"
        }
      ],
      "name": "remove",
      "outputs": [],
      "stateMutability": "nonpayable",
      "type": "function"
    },
    {
      "inputs": [],
      "name": "renounceOwnership",
      "outputs": [],
      "stateMutability": "nonpayable",
      "type": "function"
    },
    {
      "inputs": [
        {
          "internalType": "address",
          "name": "newOwner",
          "type": "address"
        }
      ],
      "name": "transferOwnership",
      "outputs": [],
      "stateMutability": "nonpayable",
      "type": "function"
    },
    {
      "inputs": [
        {
          "internalType": "address",
          "name": "allocatee",
          "type": "address"
        },
        {
          "internalType": "uint256",
          "name": "percentage",
          "type": "uint256"
        },
        {
          "internalType": "uint256",
          "name": "periodicity",
          "type": "uint256"
        }
      ],
      "name": "upsert",
      "outputs": [],
      "stateMutability": "nonpayable",
      "type": "function"
    }
  ],
  "transactionHash": "0xb64c697ca565169c785a87027b2528298ed254f519841291a6ae5bf1cc0c9492",
  "args": [
    "0xf4DA28AD365Bc76A97DDE4cb6bd3458b36BD13A7"
  ],
  "solcInputHash": "dc4a6d371d5821643f38edc0b3063173",
  "bytecode": "0x60806040523480156200001157600080fd5b50604051620016913803806200169183398181016040528101906200003791906200014e565b6000620000496200012f60201b60201c565b9050806000806101000a81548173ffffffffffffffffffffffffffffffffffffffff021916908373ffffffffffffffffffffffffffffffffffffffff1602179055508073ffffffffffffffffffffffffffffffffffffffff16600073ffffffffffffffffffffffffffffffffffffffff167f8be0079c531659141344cd1fd0a4f28419497f9722a3daafe3b4186f6b6457e060405160405180910390a35080600660006101000a81548173ffffffffffffffffffffffffffffffffffffffff021916908373ffffffffffffffffffffffffffffffffffffffff16021790555050620001c8565b600033905090565b6000815190506200014881620001ae565b92915050565b6000602082840312156200016157600080fd5b6000620001718482850162000137565b91505092915050565b600062000187826200018e565b9050919050565b600073ffffffffffffffffffffffffffffffffffffffff82169050919050565b620001b9816200017a565b8114620001c557600080fd5b50565b6114b980620001d86000396000f3fe608060405234801561001057600080fd5b506004361061007d5760003560e01c80638da5cb5b1161005b5780638da5cb5b146100c6578063abaa9916146100e4578063d6010ee8146100ee578063f2fde38b1461010a5761007d565b806329092d0e14610082578063715018a61461009e5780637c6b5a66146100a8575b600080fd5b61009c60048036038101906100979190610eb6565b610126565b005b6100a66102d6565b005b6100b0610410565b6040516100bd919061120e565b60405180910390f35b6100ce6104ac565b6040516100db919061112a565b60405180910390f35b6100ec6104d5565b005b61010860048036038101906101039190610edf565b6107b6565b005b610124600480360381019061011f9190610eb6565b61092a565b005b61012e610ad3565b73ffffffffffffffffffffffffffffffffffffffff1661014c6104ac565b73ffffffffffffffffffffffffffffffffffffffff16146101a2576040517f08c379a0000000000000000000000000000000000000000000000000000000008152600401610199906111ce565b60405180910390fd5b6101b6816001610adb90919063ffffffff16565b6101f5576040517f08c379a00000000000000000000000000000000000000000000000000000000081526004016101ec906111ee565b60405180910390fd5b610209816001610b0b90919063ffffffff16565b50600360008273ffffffffffffffffffffffffffffffffffffffff1673ffffffffffffffffffffffffffffffffffffffff16815260200190815260200160002060009055600460008273ffffffffffffffffffffffffffffffffffffffff1673ffffffffffffffffffffffffffffffffffffffff16815260200190815260200160002060009055600560008273ffffffffffffffffffffffffffffffffffffffff1673ffffffffffffffffffffffffffffffffffffffff1681526020019081526020016000206000905550565b6102de610ad3565b73ffffffffffffffffffffffffffffffffffffffff166102fc6104ac565b73ffffffffffffffffffffffffffffffffffffffff1614610352576040517f08c379a0000000000000000000000000000000000000000000000000000000008152600401610349906111ce565b60405180910390fd5b600073ffffffffffffffffffffffffffffffffffffffff1660008054906101000a900473ffffffffffffffffffffffffffffffffffffffff1673ffffffffffffffffffffffffffffffffffffffff167f8be0079c531659141344cd1fd0a4f28419497f9722a3daafe3b4186f6b6457e060405160405180910390a360008060006101000a81548173ffffffffffffffffffffffffffffffffffffffff021916908373ffffffffffffffffffffffffffffffffffffffff160217905550565b6000806000905060005b6104246001610b3b565b8110156104a4576000610441826001610b5090919063ffffffff16565b9050600360008273ffffffffffffffffffffffffffffffffffffffff1673ffffffffffffffffffffffffffffffffffffffff168152602001908152602001600020548361048e919061123a565b925050808061049c90611397565b91505061041a565b508091505090565b60008060009054906101000a900473ffffffffffffffffffffffffffffffffffffffff16905090565b6000600660009054906101000a900473ffffffffffffffffffffffffffffffffffffffff1673ffffffffffffffffffffffffffffffffffffffff166370a08231306040518263ffffffff1660e01b8152600401610532919061112a565b60206040518083038186803b15801561054a57600080fd5b505afa15801561055e573d6000803e3d6000fd5b505050506040513d601f19601f820116820180604052508101906105829190610f57565b905060005b6105916001610b3b565b8110156107b25760006105ae826001610b5090919063ffffffff16565b9050426001600460008473ffffffffffffffffffffffffffffffffffffffff1673ffffffffffffffffffffffffffffffffffffffff168152602001908152602001600020546105fd91906112c1565b600560008473ffffffffffffffffffffffffffffffffffffffff1673ffffffffffffffffffffffffffffffffffffffff16815260200190815260200160002054610647919061123a565b101561079e5760006064600360008473ffffffffffffffffffffffffffffffffffffffff1673ffffffffffffffffffffffffffffffffffffffff168152602001908152602001600020548561069c91906112c1565b6106a69190611290565b9050600660009054906101000a900473ffffffffffffffffffffffffffffffffffffffff1673ffffffffffffffffffffffffffffffffffffffff1663a9059cbb83836040518363ffffffff1660e01b8152600401610705929190611145565b602060405180830381600087803b15801561071f57600080fd5b505af1158015610733573d6000803e3d6000fd5b505050506040513d601f19601f820116820180604052508101906107579190610f2e565b5042600560008473ffffffffffffffffffffffffffffffffffffffff1673ffffffffffffffffffffffffffffffffffffffff16815260200190815260200160002081905550505b5080806107aa90611397565b915050610587565b5050565b6107be610ad3565b73ffffffffffffffffffffffffffffffffffffffff166107dc6104ac565b73ffffffffffffffffffffffffffffffffffffffff1614610832576040517f08c379a0000000000000000000000000000000000000000000000000000000008152600401610829906111ce565b60405180910390fd5b60648261083d610410565b610847919061123a565b1115610888576040517f08c379a000000000000000000000000000000000000000000000000000000000815260040161087f906111ae565b60405180910390fd5b61089c836001610b6a90919063ffffffff16565b5081600360008573ffffffffffffffffffffffffffffffffffffffff1673ffffffffffffffffffffffffffffffffffffffff1681526020019081526020016000208190555080600460008573ffffffffffffffffffffffffffffffffffffffff1673ffffffffffffffffffffffffffffffffffffffff16815260200190815260200160002081905550505050565b610932610ad3565b73ffffffffffffffffffffffffffffffffffffffff166109506104ac565b73ffffffffffffffffffffffffffffffffffffffff16146109a6576040517f08c379a000000000000000000000000000000000000000000000000000000000815260040161099d906111ce565b60405180910390fd5b600073ffffffffffffffffffffffffffffffffffffffff168173ffffffffffffffffffffffffffffffffffffffff161415610a16576040517f08c379a0000000000000000000000000000000000000000000000000000000008152600401610a0d9061118e565b60405180910390fd5b8073ffffffffffffffffffffffffffffffffffffffff1660008054906101000a900473ffffffffffffffffffffffffffffffffffffffff1673ffffffffffffffffffffffffffffffffffffffff167f8be0079c531659141344cd1fd0a4f28419497f9722a3daafe3b4186f6b6457e060405160405180910390a3806000806101000a81548173ffffffffffffffffffffffffffffffffffffffff021916908373ffffffffffffffffffffffffffffffffffffffff16021790555050565b600033905090565b6000610b03836000018373ffffffffffffffffffffffffffffffffffffffff1660001b610b9a565b905092915050565b6000610b33836000018373ffffffffffffffffffffffffffffffffffffffff1660001b610bbd565b905092915050565b6000610b4982600001610d47565b9050919050565b6000610b5f8360000183610d58565b60001c905092915050565b6000610b92836000018373ffffffffffffffffffffffffffffffffffffffff1660001b610df2565b905092915050565b600080836001016000848152602001908152602001600020541415905092915050565b60008083600101600084815260200190815260200160002054905060008114610d3b576000600182610bef919061131b565b9050600060018660000180549050610c07919061131b565b90506000866000018281548110610c47577f4e487b7100000000000000000000000000000000000000000000000000000000600052603260045260246000fd5b9060005260206000200154905080876000018481548110610c91577f4e487b7100000000000000000000000000000000000000000000000000000000600052603260045260246000fd5b9060005260206000200181905550600183610cac919061123a565b8760010160008381526020019081526020016000208190555086600001805480610cff577f4e487b7100000000000000000000000000000000000000000000000000000000600052603160045260246000fd5b60019003818190600052602060002001600090559055866001016000878152602001908152602001600020600090556001945050505050610d41565b60009150505b92915050565b600081600001805490509050919050565b600081836000018054905011610da3576040517f08c379a0000000000000000000000000000000000000000000000000000000008152600401610d9a9061116e565b60405180910390fd5b826000018281548110610ddf577f4e487b7100000000000000000000000000000000000000000000000000000000600052603260045260246000fd5b9060005260206000200154905092915050565b6000610dfe8383610b9a565b610e57578260000182908060018154018082558091505060019003906000526020600020016000909190919091505582600001805490508360010160008481526020019081526020016000208190555060019050610e5c565b600090505b92915050565b600081359050610e718161143e565b92915050565b600081519050610e8681611455565b92915050565b600081359050610e9b8161146c565b92915050565b600081519050610eb08161146c565b92915050565b600060208284031215610ec857600080fd5b6000610ed684828501610e62565b91505092915050565b600080600060608486031215610ef457600080fd5b6000610f0286828701610e62565b9350506020610f1386828701610e8c565b9250506040610f2486828701610e8c565b9150509250925092565b600060208284031215610f4057600080fd5b6000610f4e84828501610e77565b91505092915050565b600060208284031215610f6957600080fd5b6000610f7784828501610ea1565b91505092915050565b610f898161134f565b82525050565b6000610f9c602283611229565b91507f456e756d657261626c655365743a20696e646578206f7574206f6620626f756e60008301527f64730000000000000000000000000000000000000000000000000000000000006020830152604082019050919050565b6000611002602683611229565b91507f4f776e61626c653a206e6577206f776e657220697320746865207a65726f206160008301527f64647265737300000000000000000000000000000000000000000000000000006020830152604082019050919050565b6000611068601283611229565b91507f496e76616c69642070657263656e7461676500000000000000000000000000006000830152602082019050919050565b60006110a8602083611229565b91507f4f776e61626c653a2063616c6c6572206973206e6f7420746865206f776e65726000830152602082019050919050565b60006110e8601183611229565b91507f4e6f207375636820616c6c6f63617465650000000000000000000000000000006000830152602082019050919050565b6111248161138d565b82525050565b600060208201905061113f6000830184610f80565b92915050565b600060408201905061115a6000830185610f80565b611167602083018461111b565b9392505050565b6000602082019050818103600083015261118781610f8f565b9050919050565b600060208201905081810360008301526111a781610ff5565b9050919050565b600060208201905081810360008301526111c78161105b565b9050919050565b600060208201905081810360008301526111e78161109b565b9050919050565b60006020820190508181036000830152611207816110db565b9050919050565b6000602082019050611223600083018461111b565b92915050565b600082825260208201905092915050565b60006112458261138d565b91506112508361138d565b9250827fffffffffffffffffffffffffffffffffffffffffffffffffffffffffffffffff03821115611285576112846113e0565b5b828201905092915050565b600061129b8261138d565b91506112a68361138d565b9250826112b6576112b561140f565b5b828204905092915050565b60006112cc8261138d565b91506112d78361138d565b9250817fffffffffffffffffffffffffffffffffffffffffffffffffffffffffffffffff04831182151516156113105761130f6113e0565b5b828202905092915050565b60006113268261138d565b91506113318361138d565b925082821015611344576113436113e0565b5b828203905092915050565b600061135a8261136d565b9050919050565b60008115159050919050565b600073ffffffffffffffffffffffffffffffffffffffff82169050919050565b6000819050919050565b60006113a28261138d565b91507fffffffffffffffffffffffffffffffffffffffffffffffffffffffffffffffff8214156113d5576113d46113e0565b5b600182019050919050565b7f4e487b7100000000000000000000000000000000000000000000000000000000600052601160045260246000fd5b7f4e487b7100000000000000000000000000000000000000000000000000000000600052601260045260246000fd5b6114478161134f565b811461145257600080fd5b50565b61145e81611361565b811461146957600080fd5b50565b6114758161138d565b811461148057600080fd5b5056fea26469706673582212208183f4990f3d0d751cbd873c2f1c85b1597ca4cd8c6f096b7624ca6a60429b4764736f6c63430008000033",
  "devdoc": {
    "kind": "dev",
    "methods": {
      "owner()": {
        "details": "Returns the address of the current owner."
      },
      "renounceOwnership()": {
        "details": "Leaves the contract without owner. It will not be possible to call `onlyOwner` functions anymore. Can only be called by the current owner. NOTE: Renouncing ownership will leave the contract without an owner, thereby removing any functionality that is only available to the owner."
      },
      "transferOwnership(address)": {
        "details": "Transfers ownership of the contract to a new account (`newOwner`). Can only be called by the current owner."
      }
    },
    "version": 1
  },
  "userdoc": {
    "kind": "user",
    "methods": {},
    "version": 1
  },
  "storageLayout": {
    "storage": [
      {
        "astId": 330,
        "contract": "contracts/Treasury.sol:Treasury",
        "label": "_owner",
        "offset": 0,
        "slot": "0",
        "type": "t_address"
      },
      {
        "astId": 8959,
        "contract": "contracts/Treasury.sol:Treasury",
        "label": "_allocatees",
        "offset": 0,
        "slot": "1",
        "type": "t_struct(AddressSet)3638_storage"
      },
      {
        "astId": 8963,
        "contract": "contracts/Treasury.sol:Treasury",
        "label": "_percentages",
        "offset": 0,
        "slot": "3",
        "type": "t_mapping(t_address,t_uint256)"
      },
      {
        "astId": 8967,
        "contract": "contracts/Treasury.sol:Treasury",
        "label": "_periodicities",
        "offset": 0,
        "slot": "4",
        "type": "t_mapping(t_address,t_uint256)"
      },
      {
        "astId": 8971,
        "contract": "contracts/Treasury.sol:Treasury",
        "label": "_allocTimes",
        "offset": 0,
        "slot": "5",
        "type": "t_mapping(t_address,t_uint256)"
      },
      {
        "astId": 8974,
        "contract": "contracts/Treasury.sol:Treasury",
        "label": "_skill",
        "offset": 0,
        "slot": "6",
        "type": "t_contract(SkillToken)6754"
      }
    ],
    "types": {
      "t_address": {
        "encoding": "inplace",
        "label": "address",
        "numberOfBytes": "20"
      },
      "t_array(t_bytes32)dyn_storage": {
        "base": "t_bytes32",
        "encoding": "dynamic_array",
        "label": "bytes32[]",
        "numberOfBytes": "32"
      },
      "t_bytes32": {
        "encoding": "inplace",
        "label": "bytes32",
        "numberOfBytes": "32"
      },
      "t_contract(SkillToken)6754": {
        "encoding": "inplace",
        "label": "contract SkillToken",
        "numberOfBytes": "20"
      },
      "t_mapping(t_address,t_uint256)": {
        "encoding": "mapping",
        "key": "t_address",
        "label": "mapping(address => uint256)",
        "numberOfBytes": "32",
        "value": "t_uint256"
      },
      "t_mapping(t_bytes32,t_uint256)": {
        "encoding": "mapping",
        "key": "t_bytes32",
        "label": "mapping(bytes32 => uint256)",
        "numberOfBytes": "32",
        "value": "t_uint256"
      },
      "t_struct(AddressSet)3638_storage": {
        "encoding": "inplace",
        "label": "struct EnumerableSet.AddressSet",
        "members": [
          {
            "astId": 3637,
            "contract": "contracts/Treasury.sol:Treasury",
            "label": "_inner",
            "offset": 0,
            "slot": "0",
            "type": "t_struct(Set)3361_storage"
          }
        ],
        "numberOfBytes": "64"
      },
      "t_struct(Set)3361_storage": {
        "encoding": "inplace",
        "label": "struct EnumerableSet.Set",
        "members": [
          {
            "astId": 3356,
            "contract": "contracts/Treasury.sol:Treasury",
            "label": "_values",
            "offset": 0,
            "slot": "0",
            "type": "t_array(t_bytes32)dyn_storage"
          },
          {
            "astId": 3360,
            "contract": "contracts/Treasury.sol:Treasury",
            "label": "_indexes",
            "offset": 0,
            "slot": "1",
            "type": "t_mapping(t_bytes32,t_uint256)"
          }
        ],
        "numberOfBytes": "64"
      },
      "t_uint256": {
        "encoding": "inplace",
        "label": "uint256",
        "numberOfBytes": "32"
      }
    }
  }
}