{
  "address": "0x733206f4C40633525b160F8A7574a1Ec8B0aa74e",
  "abi": [
    {
      "anonymous": false,
      "inputs": [
        {
          "indexed": false,
          "internalType": "uint256",
          "name": "roomId",
          "type": "uint256"
        }
      ],
      "name": "AgedActiveRoomDeleted",
      "type": "event"
    },
    {
      "anonymous": false,
      "inputs": [
        {
          "indexed": false,
          "internalType": "uint256",
          "name": "roomId",
          "type": "uint256"
        }
      ],
      "name": "EmergencyUnstake",
      "type": "event"
    },
    {
      "anonymous": false,
      "inputs": [
        {
          "indexed": false,
          "internalType": "uint256",
          "name": "roomId",
          "type": "uint256"
        },
        {
          "indexed": false,
          "internalType": "address",
          "name": "roomOwner",
          "type": "address"
        }
      ],
      "name": "FreeRoomCreated",
      "type": "event"
    },
    {
      "anonymous": false,
      "inputs": [
        {
          "indexed": false,
          "internalType": "uint256",
          "name": "roomId",
          "type": "uint256"
        },
        {
          "indexed": false,
          "internalType": "address",
          "name": "participant",
          "type": "address"
        }
      ],
      "name": "JoinedFreeRoom",
      "type": "event"
    },
    {
      "anonymous": false,
      "inputs": [
        {
          "indexed": false,
          "internalType": "address",
          "name": "account",
          "type": "address"
        }
      ],
      "name": "Paused",
      "type": "event"
    },
    {
      "anonymous": false,
      "inputs": [
        {
          "indexed": true,
          "internalType": "bytes32",
          "name": "role",
          "type": "bytes32"
        },
        {
          "indexed": true,
          "internalType": "bytes32",
          "name": "previousAdminRole",
          "type": "bytes32"
        },
        {
          "indexed": true,
          "internalType": "bytes32",
          "name": "newAdminRole",
          "type": "bytes32"
        }
      ],
      "name": "RoleAdminChanged",
      "type": "event"
    },
    {
      "anonymous": false,
      "inputs": [
        {
          "indexed": true,
          "internalType": "bytes32",
          "name": "role",
          "type": "bytes32"
        },
        {
          "indexed": true,
          "internalType": "address",
          "name": "account",
          "type": "address"
        },
        {
          "indexed": true,
          "internalType": "address",
          "name": "sender",
          "type": "address"
        }
      ],
      "name": "RoleGranted",
      "type": "event"
    },
    {
      "anonymous": false,
      "inputs": [
        {
          "indexed": true,
          "internalType": "bytes32",
          "name": "role",
          "type": "bytes32"
        },
        {
          "indexed": true,
          "internalType": "address",
          "name": "account",
          "type": "address"
        },
        {
          "indexed": true,
          "internalType": "address",
          "name": "sender",
          "type": "address"
        }
      ],
      "name": "RoleRevoked",
      "type": "event"
    },
    {
      "anonymous": false,
      "inputs": [
        {
          "indexed": false,
          "internalType": "uint256",
          "name": "roomId",
          "type": "uint256"
        },
        {
          "indexed": false,
          "internalType": "address",
          "name": "roomOwner",
          "type": "address"
        }
      ],
      "name": "RoomCreated",
      "type": "event"
    },
    {
      "anonymous": false,
      "inputs": [
        {
          "indexed": false,
          "internalType": "uint256",
          "name": "roomId",
          "type": "uint256"
        },
        {
          "indexed": false,
          "internalType": "address payable[]",
          "name": "winners",
          "type": "address[]"
        },
        {
          "indexed": false,
          "internalType": "address payable[]",
          "name": "unseenParticipants",
          "type": "address[]"
        }
      ],
      "name": "RoomFinished",
      "type": "event"
    },
    {
      "anonymous": false,
      "inputs": [
        {
          "indexed": false,
          "internalType": "uint256",
          "name": "roomId",
          "type": "uint256"
        }
      ],
      "name": "RoomLocked",
      "type": "event"
    },
    {
      "anonymous": false,
      "inputs": [
        {
          "indexed": false,
          "internalType": "uint256",
          "name": "roomId",
          "type": "uint256"
        },
        {
          "indexed": false,
          "internalType": "address",
          "name": "participant",
          "type": "address"
        }
      ],
      "name": "StakeAdded",
      "type": "event"
    },
    {
      "anonymous": false,
      "inputs": [
        {
          "indexed": false,
          "internalType": "address",
          "name": "account",
          "type": "address"
        }
      ],
      "name": "Unpaused",
      "type": "event"
    },
    {
      "inputs": [],
      "name": "DEFAULT_ADMIN_ROLE",
      "outputs": [
        {
          "internalType": "bytes32",
          "name": "",
          "type": "bytes32"
        }
      ],
      "stateMutability": "view",
      "type": "function"
    },
    {
      "inputs": [
        {
          "internalType": "uint256",
          "name": "maxParticipantCount",
          "type": "uint256"
        },
        {
          "internalType": "uint256",
          "name": "totalStake",
          "type": "uint256"
        },
        {
          "internalType": "bool",
          "name": "isStakeInNativeCurrency",
          "type": "bool"
        },
        {
          "internalType": "enum IBigBoyTable.ROOM_MODE",
          "name": "roomMode",
          "type": "uint8"
        },
        {
          "internalType": "string",
          "name": "pwdRef",
          "type": "string"
        },
        {
          "internalType": "bytes32",
          "name": "collectionId",
          "type": "bytes32"
        },
        {
          "internalType": "uint256",
          "name": "rounds",
          "type": "uint256"
        }
      ],
      "name": "createFreeRoom",
      "outputs": [],
      "stateMutability": "payable",
      "type": "function"
    },
    {
      "inputs": [
        {
          "internalType": "uint256",
          "name": "maxParticipantCount",
          "type": "uint256"
        },
        {
          "internalType": "uint256",
          "name": "requiredStakeAmount",
          "type": "uint256"
        },
        {
          "internalType": "bool",
          "name": "isStakeInNativeCurrency",
          "type": "bool"
        },
        {
          "internalType": "enum IBigBoyTable.ROOM_MODE",
          "name": "roomMode",
          "type": "uint8"
        },
        {
          "internalType": "string",
          "name": "pwdRef",
          "type": "string"
        },
        {
          "internalType": "bytes32",
          "name": "collectionId",
          "type": "bytes32"
        },
        {
          "internalType": "uint256",
          "name": "rounds",
          "type": "uint256"
        }
      ],
      "name": "createRoom",
      "outputs": [],
      "stateMutability": "nonpayable",
      "type": "function"
    },
    {
      "inputs": [
        {
          "internalType": "uint256",
          "name": "roomId",
          "type": "uint256"
        }
      ],
      "name": "deleteAgedActiveRoom",
      "outputs": [],
      "stateMutability": "nonpayable",
      "type": "function"
    },
    {
      "inputs": [
        {
          "internalType": "uint256",
          "name": "roomId",
          "type": "uint256"
        }
      ],
      "name": "emergencyUnstake",
      "outputs": [],
      "stateMutability": "nonpayable",
      "type": "function"
    },
    {
      "inputs": [],
      "name": "getActiveRoomCount",
      "outputs": [
        {
          "internalType": "uint256",
          "name": "",
          "type": "uint256"
        }
      ],
      "stateMutability": "view",
      "type": "function"
    },
    {
      "inputs": [],
      "name": "getActiveRoomDeletionDelayInSeconds",
      "outputs": [
        {
          "internalType": "uint256",
          "name": "",
          "type": "uint256"
        }
      ],
      "stateMutability": "view",
      "type": "function"
    },
    {
      "inputs": [
        {
          "internalType": "uint256",
          "name": "startIdx",
          "type": "uint256"
        },
        {
          "internalType": "uint256",
          "name": "endIdx",
          "type": "uint256"
        }
      ],
      "name": "getActiveRooms",
      "outputs": [
        {
          "components": [
            {
              "internalType": "uint256",
              "name": "id",
              "type": "uint256"
            },
            {
              "internalType": "uint256",
              "name": "participantCount",
              "type": "uint256"
            },
            {
              "internalType": "address payable[]",
              "name": "participants",
              "type": "address[]"
            },
            {
              "internalType": "uint256",
              "name": "requiredStakeAmount",
              "type": "uint256"
            },
            {
              "internalType": "bool",
              "name": "isStakeInNativeCurrency",
              "type": "bool"
            },
            {
              "internalType": "address payable",
              "name": "owner",
              "type": "address"
            },
            {
              "internalType": "enum IBigBoyTable.ROOM_MODE",
              "name": "roomMode",
              "type": "uint8"
            },
            {
              "internalType": "uint256",
              "name": "rounds",
              "type": "uint256"
            },
            {
              "internalType": "bool",
              "name": "canJoinForFree",
              "type": "bool"
            },
            {
              "internalType": "uint256",
              "name": "createdAt",
              "type": "uint256"
            },
            {
              "internalType": "uint256",
              "name": "lockedAt",
              "type": "uint256"
            },
            {
              "internalType": "uint256",
              "name": "totalStake",
              "type": "uint256"
            },
            {
              "internalType": "string",
              "name": "pwdRef",
              "type": "string"
            },
            {
              "internalType": "bytes32",
              "name": "collectionId",
              "type": "bytes32"
            }
          ],
          "internalType": "struct IBigBoyTable.Room[]",
          "name": "",
          "type": "tuple[]"
        }
      ],
      "stateMutability": "view",
      "type": "function"
    },
    {
      "inputs": [],
      "name": "getEmergencyExtractorRole",
      "outputs": [
        {
          "internalType": "bytes32",
          "name": "",
          "type": "bytes32"
        }
      ],
      "stateMutability": "pure",
      "type": "function"
    },
    {
      "inputs": [],
      "name": "getExtractorRole",
      "outputs": [
        {
          "internalType": "bytes32",
          "name": "",
          "type": "bytes32"
        }
      ],
      "stateMutability": "pure",
      "type": "function"
    },
    {
      "inputs": [],
      "name": "getFinishedRoomCount",
      "outputs": [
        {
          "internalType": "uint256",
          "name": "",
          "type": "uint256"
        }
      ],
      "stateMutability": "view",
      "type": "function"
    },
    {
      "inputs": [
        {
          "internalType": "uint256",
          "name": "startIdx",
          "type": "uint256"
        },
        {
          "internalType": "uint256",
          "name": "endIdx",
          "type": "uint256"
        }
      ],
      "name": "getFinishedRooms",
      "outputs": [
        {
          "components": [
            {
              "internalType": "uint256",
              "name": "id",
              "type": "uint256"
            },
            {
              "internalType": "uint256",
              "name": "participantCount",
              "type": "uint256"
            },
            {
              "internalType": "address payable[]",
              "name": "participants",
              "type": "address[]"
            },
            {
              "internalType": "uint256",
              "name": "requiredStakeAmount",
              "type": "uint256"
            },
            {
              "internalType": "bool",
              "name": "isStakeInNativeCurrency",
              "type": "bool"
            },
            {
              "internalType": "address payable",
              "name": "owner",
              "type": "address"
            },
            {
              "internalType": "enum IBigBoyTable.ROOM_MODE",
              "name": "roomMode",
              "type": "uint8"
            },
            {
              "internalType": "uint256",
              "name": "rounds",
              "type": "uint256"
            },
            {
              "internalType": "bool",
              "name": "canJoinForFree",
              "type": "bool"
            },
            {
              "internalType": "uint256",
              "name": "createdAt",
              "type": "uint256"
            },
            {
              "internalType": "uint256",
              "name": "lockedAt",
              "type": "uint256"
            },
            {
              "internalType": "uint256",
              "name": "totalStake",
              "type": "uint256"
            },
            {
              "internalType": "string",
              "name": "pwdRef",
              "type": "string"
            },
            {
              "internalType": "bytes32",
              "name": "collectionId",
              "type": "bytes32"
            }
          ],
          "internalType": "struct IBigBoyTable.Room[]",
          "name": "",
          "type": "tuple[]"
        }
      ],
      "stateMutability": "view",
      "type": "function"
    },
    {
      "inputs": [],
      "name": "getFoundersAddress",
      "outputs": [
        {
          "internalType": "address payable",
          "name": "",
          "type": "address"
        }
      ],
      "stateMutability": "view",
      "type": "function"
    },
    {
      "inputs": [],
      "name": "getLockingWindowInSeconds",
      "outputs": [
        {
          "internalType": "uint256",
          "name": "",
          "type": "uint256"
        }
      ],
      "stateMutability": "view",
      "type": "function"
    },
    {
      "inputs": [],
      "name": "getMaxParticipantsPerRoom",
      "outputs": [
        {
          "internalType": "uint256",
          "name": "",
          "type": "uint256"
        }
      ],
      "stateMutability": "pure",
      "type": "function"
    },
    {
      "inputs": [],
      "name": "getMaxRounds",
      "outputs": [
        {
          "internalType": "uint256",
          "name": "",
          "type": "uint256"
        }
      ],
      "stateMutability": "pure",
      "type": "function"
    },
    {
      "inputs": [],
      "name": "getMinParticipantsPerRoom",
      "outputs": [
        {
          "internalType": "uint256",
          "name": "",
          "type": "uint256"
        }
      ],
      "stateMutability": "pure",
      "type": "function"
    },
    {
      "inputs": [],
      "name": "getMinimalStakeInNative",
      "outputs": [
        {
          "internalType": "uint256",
          "name": "",
          "type": "uint256"
        }
      ],
      "stateMutability": "view",
      "type": "function"
    },
    {
      "inputs": [],
      "name": "getMinimalStakeInSNK",
      "outputs": [
        {
          "internalType": "uint256",
          "name": "",
          "type": "uint256"
        }
      ],
      "stateMutability": "view",
      "type": "function"
    },
    {
      "inputs": [],
      "name": "getMinimalStakeInUSDC",
      "outputs": [
        {
          "internalType": "uint256",
          "name": "",
          "type": "uint256"
        }
      ],
      "stateMutability": "view",
      "type": "function"
    },
    {
      "inputs": [],
      "name": "getNative2USDCRatioInEtherUnits",
      "outputs": [
        {
          "internalType": "uint256",
          "name": "",
          "type": "uint256"
        },
        {
          "internalType": "uint256",
          "name": "",
          "type": "uint256"
        }
      ],
      "stateMutability": "view",
      "type": "function"
    },
    {
      "inputs": [],
      "name": "getPauserRole",
      "outputs": [
        {
          "internalType": "bytes32",
          "name": "",
          "type": "bytes32"
        }
      ],
      "stateMutability": "pure",
      "type": "function"
    },
    {
      "inputs": [
        {
          "internalType": "bytes32",
          "name": "role",
          "type": "bytes32"
        }
      ],
      "name": "getRoleAdmin",
      "outputs": [
        {
          "internalType": "bytes32",
          "name": "",
          "type": "bytes32"
        }
      ],
      "stateMutability": "view",
      "type": "function"
    },
    {
      "inputs": [
        {
          "internalType": "bytes32",
          "name": "role",
          "type": "bytes32"
        },
        {
          "internalType": "uint256",
          "name": "index",
          "type": "uint256"
        }
      ],
      "name": "getRoleMember",
      "outputs": [
        {
          "internalType": "address",
          "name": "",
          "type": "address"
        }
      ],
      "stateMutability": "view",
      "type": "function"
    },
    {
      "inputs": [
        {
          "internalType": "bytes32",
          "name": "role",
          "type": "bytes32"
        }
      ],
      "name": "getRoleMemberCount",
      "outputs": [
        {
          "internalType": "uint256",
          "name": "",
          "type": "uint256"
        }
      ],
      "stateMutability": "view",
      "type": "function"
    },
    {
      "inputs": [
        {
          "internalType": "uint256",
          "name": "roomId",
          "type": "uint256"
        }
      ],
      "name": "getRoom",
      "outputs": [
        {
          "components": [
            {
              "internalType": "uint256",
              "name": "id",
              "type": "uint256"
            },
            {
              "internalType": "uint256",
              "name": "participantCount",
              "type": "uint256"
            },
            {
              "internalType": "address payable[]",
              "name": "participants",
              "type": "address[]"
            },
            {
              "internalType": "uint256",
              "name": "requiredStakeAmount",
              "type": "uint256"
            },
            {
              "internalType": "bool",
              "name": "isStakeInNativeCurrency",
              "type": "bool"
            },
            {
              "internalType": "address payable",
              "name": "owner",
              "type": "address"
            },
            {
              "internalType": "enum IBigBoyTable.ROOM_MODE",
              "name": "roomMode",
              "type": "uint8"
            },
            {
              "internalType": "uint256",
              "name": "rounds",
              "type": "uint256"
            },
            {
              "internalType": "bool",
              "name": "canJoinForFree",
              "type": "bool"
            },
            {
              "internalType": "uint256",
              "name": "createdAt",
              "type": "uint256"
            },
            {
              "internalType": "uint256",
              "name": "lockedAt",
              "type": "uint256"
            },
            {
              "internalType": "uint256",
              "name": "totalStake",
              "type": "uint256"
            },
            {
              "internalType": "string",
              "name": "pwdRef",
              "type": "string"
            },
            {
              "internalType": "bytes32",
              "name": "collectionId",
              "type": "bytes32"
            }
          ],
          "internalType": "struct IBigBoyTable.Room",
          "name": "",
          "type": "tuple"
        }
      ],
      "stateMutability": "view",
      "type": "function"
    },
    {
      "inputs": [],
      "name": "getRoomCreationPriceInSNK",
      "outputs": [
        {
          "internalType": "uint256",
          "name": "",
          "type": "uint256"
        }
      ],
      "stateMutability": "view",
      "type": "function"
    },
    {
      "inputs": [],
      "name": "getRoomCreationPriceInUSDC",
      "outputs": [
        {
          "internalType": "uint256",
          "name": "",
          "type": "uint256"
        }
      ],
      "stateMutability": "view",
      "type": "function"
    },
    {
      "inputs": [],
      "name": "getStakingWindowInSeconds",
      "outputs": [
        {
          "internalType": "uint256",
          "name": "",
          "type": "uint256"
        }
      ],
      "stateMutability": "view",
      "type": "function"
    },
    {
      "inputs": [],
      "name": "getWinningFeeInPercents",
      "outputs": [
        {
          "internalType": "uint256",
          "name": "",
          "type": "uint256"
        }
      ],
      "stateMutability": "view",
      "type": "function"
    },
    {
      "inputs": [
        {
          "internalType": "bytes32",
          "name": "role",
          "type": "bytes32"
        },
        {
          "internalType": "address",
          "name": "account",
          "type": "address"
        }
      ],
      "name": "grantRole",
      "outputs": [],
      "stateMutability": "nonpayable",
      "type": "function"
    },
    {
      "inputs": [
        {
          "internalType": "bytes32",
          "name": "role",
          "type": "bytes32"
        },
        {
          "internalType": "address",
          "name": "account",
          "type": "address"
        }
      ],
      "name": "hasRole",
      "outputs": [
        {
          "internalType": "bool",
          "name": "",
          "type": "bool"
        }
      ],
      "stateMutability": "view",
      "type": "function"
    },
    {
      "inputs": [
        {
          "components": [
            {
              "internalType": "address",
              "name": "adminAccount",
              "type": "address"
            },
            {
              "internalType": "uint256",
              "name": "winningFeeInPercents",
              "type": "uint256"
            },
            {
              "internalType": "uint256",
              "name": "roomCreationPriceInUSDC",
              "type": "uint256"
            },
            {
              "internalType": "uint256",
              "name": "lockingWindowInSeconds",
              "type": "uint256"
            },
            {
              "internalType": "uint256",
              "name": "stakingWindowInSeconds",
              "type": "uint256"
            },
            {
              "internalType": "uint256",
              "name": "activeRoomDeletionDelayInSeconds",
              "type": "uint256"
            },
            {
              "internalType": "uint256",
              "name": "minimalStakeInUSDC",
              "type": "uint256"
            },
            {
              "internalType": "uint256",
              "name": "native2usdcNumerator",
              "type": "uint256"
            },
            {
              "internalType": "uint256",
              "name": "native2usdcDenominator",
              "type": "uint256"
            },
            {
              "internalType": "address payable",
              "name": "foundersAddress",
              "type": "address"
            },
            {
              "internalType": "address",
              "name": "skill",
              "type": "address"
            },
            {
              "internalType": "address",
              "name": "ecosystem",
              "type": "address"
            },
            {
              "internalType": "address",
              "name": "uniswap",
              "type": "address"
            },
            {
              "internalType": "address",
              "name": "collectionList",
              "type": "address"
            }
          ],
          "internalType": "struct BigBoyTable.InitializerParameters",
          "name": "params",
          "type": "tuple"
        }
      ],
      "name": "initialize",
      "outputs": [],
      "stateMutability": "nonpayable",
      "type": "function"
    },
    {
      "inputs": [
        {
          "internalType": "uint256",
          "name": "roomId",
          "type": "uint256"
        }
      ],
      "name": "joinFreeRoom",
      "outputs": [],
      "stateMutability": "nonpayable",
      "type": "function"
    },
    {
      "inputs": [
        {
          "internalType": "uint256",
          "name": "roomId",
          "type": "uint256"
        }
      ],
      "name": "lockRoom",
      "outputs": [],
      "stateMutability": "nonpayable",
      "type": "function"
    },
    {
      "inputs": [],
      "name": "paused",
      "outputs": [
        {
          "internalType": "bool",
          "name": "",
          "type": "bool"
        }
      ],
      "stateMutability": "view",
      "type": "function"
    },
    {
      "inputs": [
        {
          "internalType": "bytes32",
          "name": "role",
          "type": "bytes32"
        },
        {
          "internalType": "address",
          "name": "account",
          "type": "address"
        }
      ],
      "name": "renounceRole",
      "outputs": [],
      "stateMutability": "nonpayable",
      "type": "function"
    },
    {
      "inputs": [
        {
          "internalType": "uint256",
          "name": "roomId",
          "type": "uint256"
        },
        {
          "internalType": "address payable[]",
          "name": "winners",
          "type": "address[]"
        },
        {
          "internalType": "address payable[]",
          "name": "players",
          "type": "address[]"
        }
      ],
      "name": "reportWinners",
      "outputs": [],
      "stateMutability": "nonpayable",
      "type": "function"
    },
    {
      "inputs": [
        {
          "internalType": "bytes32",
          "name": "role",
          "type": "bytes32"
        },
        {
          "internalType": "address",
          "name": "account",
          "type": "address"
        }
      ],
      "name": "revokeRole",
      "outputs": [],
      "stateMutability": "nonpayable",
      "type": "function"
    },
    {
      "inputs": [
        {
          "internalType": "uint256",
          "name": "activeRoomDeletionDelayInSeconds",
          "type": "uint256"
        }
      ],
      "name": "setActiveRoomDeletionDelayInSeconds",
      "outputs": [],
      "stateMutability": "nonpayable",
      "type": "function"
    },
    {
      "inputs": [
        {
          "internalType": "address payable",
          "name": "foundersAddress",
          "type": "address"
        }
      ],
      "name": "setFoundersAddress",
      "outputs": [],
      "stateMutability": "nonpayable",
      "type": "function"
    },
    {
      "inputs": [
        {
          "internalType": "uint256",
          "name": "lockingWindowInSeconds",
          "type": "uint256"
        }
      ],
      "name": "setLockingWindowInSeconds",
      "outputs": [],
      "stateMutability": "nonpayable",
      "type": "function"
    },
    {
      "inputs": [
        {
          "internalType": "uint256",
          "name": "minimalStakeInUSDC",
          "type": "uint256"
        }
      ],
      "name": "setMinimalStakeInUSDC",
      "outputs": [],
      "stateMutability": "nonpayable",
      "type": "function"
    },
    {
      "inputs": [
        {
          "internalType": "uint256",
          "name": "numerator",
          "type": "uint256"
        },
        {
          "internalType": "uint256",
          "name": "denominator",
          "type": "uint256"
        }
      ],
      "name": "setNative2USDCRatioInEtherUnits",
      "outputs": [],
      "stateMutability": "nonpayable",
      "type": "function"
    },
    {
      "inputs": [
        {
          "internalType": "uint256",
          "name": "roomCreationPriceInUSDC",
          "type": "uint256"
        }
      ],
      "name": "setRoomCreationPriceInUSDC",
      "outputs": [],
      "stateMutability": "nonpayable",
      "type": "function"
    },
    {
      "inputs": [
        {
          "internalType": "uint256",
          "name": "stakingWindowInSeconds",
          "type": "uint256"
        }
      ],
      "name": "setStakingWindowInSeconds",
      "outputs": [],
      "stateMutability": "nonpayable",
      "type": "function"
    },
    {
      "inputs": [
        {
          "internalType": "uint256",
          "name": "winningFeeInPercents",
          "type": "uint256"
        }
      ],
      "name": "setWinningFeeInPercents",
      "outputs": [],
      "stateMutability": "nonpayable",
      "type": "function"
    },
    {
      "inputs": [
        {
          "internalType": "uint256",
          "name": "roomId",
          "type": "uint256"
        }
      ],
      "name": "stakeNative",
      "outputs": [],
      "stateMutability": "payable",
      "type": "function"
    },
    {
      "inputs": [
        {
          "internalType": "uint256",
          "name": "roomId",
          "type": "uint256"
        }
      ],
      "name": "stakeSNK",
      "outputs": [],
      "stateMutability": "nonpayable",
      "type": "function"
    },
    {
      "inputs": [
        {
          "internalType": "bytes4",
          "name": "interfaceId",
          "type": "bytes4"
        }
      ],
      "name": "supportsInterface",
      "outputs": [
        {
          "internalType": "bool",
          "name": "",
          "type": "bool"
        }
      ],
      "stateMutability": "view",
      "type": "function"
    }
  ],
  "transactionHash": "0x0698637e5f048743b9e8a3b29dec0ffece4be564500ddfd3673fdcbfb6086366",
  "args": [],
  "solcInputHash": "9d2ec488373a42d9dd2ee8647cf82526",
  "bytecode": "0x608060405234801561001057600080fd5b5061518e806100206000396000f3fe6080604052600436106102c95760003560e01c806391d1485411610175578063cb741d14116100dc578063e63c6bf011610095578063ef2f1eeb1161006f578063ef2f1eeb14610808578063f4f2326314610828578063f6c9b7441461083d578063fbbabcaf14610852576102c9565b8063e63c6bf0146107c0578063ea799802146107d3578063edd5ac11146107f3576102c9565b8063cb741d14146106fd578063ceb3ea621461071d578063d547741f1461073d578063d8df05601461075d578063e06ff9c614610780578063e358df8f146107a0576102c9565b8063b70862411161012e578063b70862411461065e578063bc12b71614610673578063bfadc65c14610693578063c1b931be146106a8578063c68ae885146106bd578063ca15c873146106dd576102c9565b806391d14854146105cc5780639447b1a4146105ec5780639847931f146106015780639d06c30914610616578063a217fddf14610636578063ad647c4e1461064b576102c9565b80632f2ff15d116102345780636d8a74cb116101ed57806387565d5e116101c757806387565d5e1461054a5780638b2d22371461056a5780638d320ca21461057f5780639010d07c1461059f576102c9565b80636d8a74cb146104db5780637d64985214610508578063834e5eaa14610535576102c9565b80632f2ff15d1461043c57806336568abe1461045c5780634309ae121461047c5780634f8f2b01146104915780635c975abb146104a65780636acb4980146104bb576102c9565b806317c8884d1161028657806317c8884d1461039d57806319eab083146103bd5780631e6e4e04146103d2578063248a9ca3146103e757806328f0e286146104075780632acf73e814610427576102c9565b8063012ce501146102ce57806301ffc9a7146102f05780630d090fbb146103265780630ef0a52f14610348578063156a387614610368578063166ad63414610388575b600080fd5b3480156102da57600080fd5b506102ee6102e9366004614187565b610867565b005b3480156102fc57600080fd5b5061031061030b3660046141ef565b610ad3565b60405161031d9190614618565b60405180910390f35b34801561033257600080fd5b5061033b610b00565b60405161031d9190614623565b34801561035457600080fd5b506102ee6103633660046141ce565b610b07565b34801561037457600080fd5b506102ee6103833660046142b1565b610b30565b34801561039457600080fd5b5061033b610b88565b3480156103a957600080fd5b506102ee6103b8366004614187565b610b8f565b3480156103c957600080fd5b5061033b610bb1565b3480156103de57600080fd5b5061033b610bc0565b3480156103f357600080fd5b5061033b610402366004614187565b610be4565b34801561041357600080fd5b506102ee610422366004614247565b610bf9565b34801561043357600080fd5b5061033b6116ee565b34801561044857600080fd5b506102ee61045736600461419f565b6116f3565b34801561046857600080fd5b506102ee61047736600461419f565b61171a565b34801561048857600080fd5b5061033b61173c565b34801561049d57600080fd5b5061033b611760565b3480156104b257600080fd5b5061031061176a565b3480156104c757600080fd5b506102ee6104d6366004614187565b611773565b3480156104e757600080fd5b506104fb6104f6366004614187565b611795565b60405161031d9190614e63565b34801561051457600080fd5b506105286105233660046141ce565b6119b9565b60405161031d91906145b8565b34801561054157600080fd5b5061033b611cb0565b34801561055657600080fd5b506102ee610565366004614133565b611cb7565b34801561057657600080fd5b5061033b611cf5565b34801561058b57600080fd5b506102ee61059a366004614187565b611cfa565b3480156105ab57600080fd5b506105bf6105ba3660046141ce565b611d1c565b60405161031d9190614567565b3480156105d857600080fd5b506103106105e736600461419f565b611d3b565b3480156105f857600080fd5b5061033b611d66565b34801561060d57600080fd5b5061033b611d6d565b34801561062257600080fd5b506102ee610631366004614187565b611d77565b34801561064257600080fd5b5061033b611e77565b6102ee6106593660046142b1565b611e7c565b34801561066a57600080fd5b5061033b611fc0565b34801561067f57600080fd5b506102ee61068e366004614187565b611fc7565b34801561069f57600080fd5b5061033b611fe9565b3480156106b457600080fd5b5061033b611fee565b3480156106c957600080fd5b506102ee6106d8366004614187565b612000565b3480156106e957600080fd5b5061033b6106f8366004614187565b612268565b34801561070957600080fd5b506102ee610718366004614187565b61227f565b34801561072957600080fd5b506102ee610738366004614187565b6125c1565b34801561074957600080fd5b506102ee61075836600461419f565b6125e3565b34801561076957600080fd5b506107726125ed565b60405161031d929190614ec2565b34801561078c57600080fd5b5061052861079b3660046141ce565b6125f9565b3480156107ac57600080fd5b506102ee6107bb366004614187565b6128e6565b6102ee6107ce366004614187565b612908565b3480156107df57600080fd5b506102ee6107ee366004614217565b612a32565b3480156107ff57600080fd5b506105bf612c44565b34801561081457600080fd5b506102ee610823366004614187565b612c53565b34801561083457600080fd5b5061033b612dfc565b34801561084957600080fd5b5061033b612e09565b34801561085e57600080fd5b5061033b612e16565b8061087461010982612e1d565b6108995760405162461bcd60e51b815260040161089090614d65565b60405180910390fd5b7f4edebb69cd9d6569902dabdec7c91c11f65df00335e42b9a2c13432f7bb3ff0e6108cb816108c6612e29565b612e2d565b600083815261010860205260409020600481015460ff166109e357600681015460ff166109de5760005b81600101548110156109dc5760fd546002830180546001600160a01b039092169163a9059cbb91908490811061093b57634e487b7160e01b600052603260045260246000fd5b60009182526020909120015460038501546040516001600160e01b031960e085901b168152610977926001600160a01b0316919060040161457b565b602060405180830381600087803b15801561099157600080fd5b505af11580156109a5573d6000803e3d6000fd5b505050506040513d601f19601f820116820180604052508101906109c9919061416b565b50806109d4816150ce565b9150506108f5565b505b610a7a565b600681015460ff16610a7a5760005b8160010154811015610a7857816002018181548110610a2157634e487b7160e01b600052603260045260246000fd5b600091825260208220015460038401546040516001600160a01b039092169281156108fc029290818181858888f19350505050158015610a65573d6000803e3d6000fd5b5080610a70816150ce565b9150506109f2565b505b4260078201556000600882018190556001820181905560098201556040517f0efda3452a76bf3b550355556930eba4bd2b56b2bc81b6c0eb56c4679a6a064c90610ac5908690614623565b60405180910390a150505050565b60006001600160e01b03198216635a05180f60e01b1480610af85750610af882612e91565b90505b919050565b6101025490565b600080516020615139833981519152610b22816108c6612e29565b506101069190915561010755565b6000610b428989898989898989612eb6565b90507fdeb4915464f2fab35f9ed95b8c2dc62a1af9edc45ebc42643517a7893e49bca88133604051610b75929190614e76565b60405180910390a1505050505050505050565b6101055490565b600080516020615139833981519152610baa816108c6612e29565b5061010255565b6000610bbb6132de565b905090565b7f11cf46bea1094f63335637b879e8021ce59a9008b10e90c59d17337675ebc79290565b60009081526065602052604090206001015490565b82610c0661010982612e1d565b610c225760405162461bcd60e51b815260040161089090614d65565b7f11cf46bea1094f63335637b879e8021ce59a9008b10e90c59d17337675ebc792610c4f816108c6612e29565b60008581526101086020908152604080832081516101c08101835281548152600182015481850152600282018054845181870281018701865281815292959394860193830182828015610ccb57602002820191906000526020600020905b81546001600160a01b03168152600190910190602001808311610cad575b505050918352505060038201546020820152600482015460ff808216151560408401526001600160a01b036101008304166060840152608090920191600160a81b909104166002811115610d2f57634e487b7160e01b600052602160045260246000fd5b6002811115610d4e57634e487b7160e01b600052602160045260246000fd5b815260058201546020820152600682015460ff16151560408201526007820154606082015260088201546080820152600982015460a0820152600a8201805460c090920191610d9c90615099565b80601f0160208091040260200160405190810160405280929190818152602001828054610dc890615099565b8015610e155780601f10610dea57610100808354040283529160200191610e15565b820191906000526020600020905b815481529060010190602001808311610df857829003601f168201915b50505050508152602001600b820154815250509050600081610140015111610e4f5760405162461bcd60e51b815260040161089090614c97565b61010354816101400151610e639190614ed0565b4211610e815760405162461bcd60e51b815260040161089090614818565b6002845110158015610e9857508060200151845111155b610eb45760405162461bcd60e51b8152600401610890906147e1565b6001855110158015610ec857508351855111155b610ee45760405162461bcd60e51b815260040161089090614c29565b610eee81866132ec565b1515600114610f0f5760405162461bcd60e51b815260040161089090614875565b610f1981856132ec565b1515600114610f3a5760405162461bcd60e51b8152600401610890906148d2565b6000868152610108602052604081206006015460609060ff16158015610f64575082602001518651105b156110ea57610f778684604001516133be565b905080518360600151610f8a919061501c565b9150818361016001818151610f9f919061503b565b90525060005b81518110156110e85760808401516110705760fd5482516001600160a01b039091169063a9059cbb90849084908110610fee57634e487b7160e01b600052603260045260246000fd5b602002602001015186606001516040518363ffffffff1660e01b815260040161101892919061457b565b602060405180830381600087803b15801561103257600080fd5b505af1158015611046573d6000803e3d6000fd5b505050506040513d601f19601f8201168201806040525081019061106a919061416b565b506110d6565b81818151811061109057634e487b7160e01b600052603260045260246000fd5b60200260200101516001600160a01b03166108fc85606001519081150290604051600060405180830381858888f193505050501580156110d4573d6000803e3d6000fd5b505b806110e0816150ce565b915050610fa5565b505b6000606461010154856101600151611102919061501c565b61110c9190614ee8565b905060008060008060001b876101a001511461124f5760fe546101a088015160405163681c3cc960e01b81526001600160a01b039092169163681c3cc99161115691600401614623565b60206040518083038186803b15801561116e57600080fd5b505afa158015611182573d6000803e3d6000fd5b505050506040513d601f19601f820116820180604052508101906111a6919061422f565b60fe546101a0890151604051637263bac360e11b81529294506001600160a01b039091169163e4c77586916111dd91600401614623565b60206040518083038186803b1580156111f557600080fd5b505afa158015611209573d6000803e3d6000fd5b505050506040513d601f19601f8201168201806040525081019061122d919061414f565b9050606482886101600151611242919061501c565b61124c9190614ee8565b92505b60008b5184868a6101600151611265919061503b565b61126f919061503b565b6112799190614ee8565b60808901519091506113135760fd5460fc5460405163a9059cbb60e01b81526001600160a01b039283169263a9059cbb926112bb92911690899060040161457b565b602060405180830381600087803b1580156112d557600080fd5b505af11580156112e9573d6000803e3d6000fd5b505050506040513d601f19601f8201168201806040525081019061130d919061416b565b50611396565b60fc546040516000916001600160a01b0316908790611331906144ef565b60006040518083038185875af1925050503d806000811461136e576040519150601f19603f3d011682016040523d82523d6000602084013e611373565b606091505b50509050806113945760405162461bcd60e51b815260040161089090614bb1565b505b6000841180156113aa57506101a088015115155b8015611435575060fe546101a089015160405163170da40760e21b81526001600160a01b0390921691635c36901c916113e591600401614623565b60206040518083038186803b1580156113fd57600080fd5b505afa158015611411573d6000803e3d6000fd5b505050506040513d601f19601f82011682018060405250810190611435919061416b565b1561154b5760808801516114cd5760fd5460405163a9059cbb60e01b81526001600160a01b039091169063a9059cbb90611475908590889060040161457b565b602060405180830381600087803b15801561148f57600080fd5b505af11580156114a3573d6000803e3d6000fd5b505050506040513d601f19601f820116820180604052508101906114c7919061416b565b5061154b565b6000826001600160a01b0316856040516114e6906144ef565b60006040518083038185875af1925050503d8060008114611523576040519150601f19603f3d011682016040523d82523d6000602084013e611528565b606091505b50509050806115495760405162461bcd60e51b815260040161089090614b6a565b505b60005b8c518110156116895760808901516116155760fd548d516001600160a01b039091169063a9059cbb908f908490811061159757634e487b7160e01b600052603260045260246000fd5b6020026020010151846040518363ffffffff1660e01b81526004016115bd92919061457b565b602060405180830381600087803b1580156115d757600080fd5b505af11580156115eb573d6000803e3d6000fd5b505050506040513d601f19601f8201168201806040525081019061160f919061416b565b50611677565b8c818151811061163557634e487b7160e01b600052603260045260246000fd5b60200260200101516001600160a01b03166108fc839081150290604051600060405180830381858888f19350505050158015611675573d6000803e3d6000fd5b505b80611681816150ce565b91505061154e565b506116966101098e613647565b506116a361010b8e613653565b507f61fe78b87b005cff1b592934cf5c5cc4e3008e05bc916a9752c48f3ad8b751c68d8d886040516116d793929190614e8d565b60405180910390a150505050505050505050505050565b606490565b6116fd828261365f565b6000828152609760205260409020611715908261367e565b505050565b6117248282613693565b600082815260976020526040902061171590826136d5565b7f4edebb69cd9d6569902dabdec7c91c11f65df00335e42b9a2c13432f7bb3ff0e90565b6000610bbb6136ea565b60c95460ff1690565b60008051602061513983398151915261178e816108c6612e29565b5061010d55565b61179d613efd565b6117a961010983612e1d565b806117bb57506117bb61010b83612e1d565b6117d75760405162461bcd60e51b815260040161089090614a6a565b6000828152610108602090815260409182902082516101c081018452815481526001820154818401526002820180548551818602810186018752818152929593949386019383018282801561185557602002820191906000526020600020905b81546001600160a01b03168152600190910190602001808311611837575b505050918352505060038201546020820152600482015460ff808216151560408401526001600160a01b036101008304166060840152608090920191600160a81b9091041660028111156118b957634e487b7160e01b600052602160045260246000fd5b60028111156118d857634e487b7160e01b600052602160045260246000fd5b815260058201546020820152600682015460ff16151560408201526007820154606082015260088201546080820152600982015460a0820152600a8201805460c09092019161192690615099565b80601f016020809104026020016040519081016040528092919081815260200182805461195290615099565b801561199f5780601f106119745761010080835404028352916020019161199f565b820191906000526020600020905b81548152906001019060200180831161198257829003601f168201915b50505050508152602001600b820154815250509050919050565b606081831080156119d457506119d06101096136f8565b8211155b6119f05760405162461bcd60e51b815260040161089090614745565b60006119fc848461503b565b67ffffffffffffffff811115611a2257634e487b7160e01b600052604160045260246000fd5b604051908082528060200260200182016040528015611a5b57816020015b611a48613efd565b815260200190600190039081611a405790505b509050835b83811015611ca6576101086000611a7961010984613703565b8152602001908152602001600020604051806101c0016040529081600082015481526020016001820154815260200160028201805480602002602001604051908101604052809291908181526020018280548015611b0057602002820191906000526020600020905b81546001600160a01b03168152600190910190602001808311611ae2575b505050918352505060038201546020820152600482015460ff808216151560408401526001600160a01b036101008304166060840152608090920191600160a81b909104166002811115611b6457634e487b7160e01b600052602160045260246000fd5b6002811115611b8357634e487b7160e01b600052602160045260246000fd5b815260058201546020820152600682015460ff16151560408201526007820154606082015260088201546080820152600982015460a0820152600a8201805460c090920191611bd190615099565b80601f0160208091040260200160405190810160405280929190818152602001828054611bfd90615099565b8015611c4a5780601f10611c1f57610100808354040283529160200191611c4a565b820191906000526020600020905b815481529060010190602001808311611c2d57829003601f168201915b50505050508152602001600b82015481525050828683611c6a919061503b565b81518110611c8857634e487b7160e01b600052603260045260246000fd5b60200260200101819052508080611c9e906150ce565b915050611a60565b5090505b92915050565b6101045490565b600080516020615139833981519152611cd2816108c6612e29565b5060fc80546001600160a01b0319166001600160a01b0392909216919091179055565b600290565b600080516020615139833981519152611d15816108c6612e29565b5061010355565b6000828152609760205260408120611d349083613703565b9392505050565b60009182526065602090815260408084206001600160a01b0393909316845291905290205460ff1690565b6101015490565b6000610bbb61370f565b80611d8461010982612e1d565b611da05760405162461bcd60e51b815260040161089090614d65565b600082815261010860205260409020600481015461010090046001600160a01b03163314611de05760405162461bcd60e51b815260040161089090614bfa565b600881015415611e025760405162461bcd60e51b8152600401610890906147aa565b61010d548160070154611e159190614ed0565b421115611e345760405162461bcd60e51b815260040161089090614a33565b4260088201556040517f76e8d3f2e1eda7b2aff7a471cc350013f132caca7b60b6c43bc09f525414b60f90611e6a908590614623565b60405180910390a1505050565b600081565b85158015611f0b575060fd546040516323b872dd60e01b81526001600160a01b03909116906323b872dd90611eb990339030908c90600401614594565b602060405180830381600087803b158015611ed357600080fd5b505af1158015611ee7573d6000803e3d6000fd5b505050506040513d601f19601f82011682018060405250810190611f0b919061416b565b80611f2257506001861515148015611f2257508634145b611f3e5760405162461bcd60e51b815260040161089090614b33565b6000611f508989898989898989612eb6565b6000818152610108602052604090819020600981018b905560068101805460ff191660011790559051919250907f1a90e66d0456e3af5e76c3cfe0c1da5f6676ea4d3e51556d86fd0d1a6ad2dd0990611fac9084903390614e76565b60405180910390a150505050505050505050565b6101035490565b600080516020615139833981519152611fe2816108c6612e29565b5061010555565b601890565b60008051602061513983398151915290565b8061200d61010982612e1d565b6120295760405162461bcd60e51b815260040161089090614d65565b600081815261010860205260409020600801546120585760405162461bcd60e51b815260040161089090614a98565b61010354600082815261010860205260409020600801546120799190614ed0565b4211156120985760405162461bcd60e51b815260040161089090614ce7565b6000818152610108602052604090206002810154600190910154106120cf5760405162461bcd60e51b8152600401610890906149c2565b600082815261010860205260409020600481015460ff16156121035760405162461bcd60e51b8152600401610890906146b6565b60fd5460038201546040516323b872dd60e01b81526001600160a01b03909216916323b872dd9161213a9133913091600401614594565b602060405180830381600087803b15801561215457600080fd5b505af1158015612168573d6000803e3d6000fd5b505050506040513d601f19601f8201168201806040525081019061218c919061416b565b6121a85760405162461bcd60e51b815260040161089090614acf565b33816002018260010154815481106121d057634e487b7160e01b600052603260045260246000fd5b9060005260206000200160006101000a8154816001600160a01b0302191690836001600160a01b0316021790555060018160010160008282546122139190614ed0565b90915550506003810154600982018054600090612231908490614ed0565b90915550506040517ff12a66daa955e8255b989ee232c8ad1f6d294f4448b87f72b497295e54758a4f90611e6a9085903390614e76565b6000818152609760205260408120610af8906136f8565b8061228c61010982612e1d565b6122a85760405162461bcd60e51b815260040161089090614d65565b61010454600083815261010860205260409020600701546122c99190614ed0565b42116122e75760405162461bcd60e51b815260040161089090614773565b600082815261010860205260409020600681015460ff161515600114156123fe57600481015460ff1615156001141561236457600481015460098201546040516101009092046001600160a01b0316916108fc82150291906000818181858888f1935050505015801561235e573d6000803e3d6000fd5b506123f9565b60fd54600480830154600984015460405163a9059cbb60e01b81526001600160a01b039485169463a9059cbb946123a594610100900490911692910161457b565b602060405180830381600087803b1580156123bf57600080fd5b505af11580156123d3573d6000803e3d6000fd5b505050506040513d601f19601f820116820180604052508101906123f7919061416b565b505b612585565b600481015460ff161515600114156124995760005b81600101548110156123f75781600201818154811061244257634e487b7160e01b600052603260045260246000fd5b600091825260208220015460038401546040516001600160a01b039092169281156108fc029290818181858888f19350505050158015612486573d6000803e3d6000fd5b5080612491816150ce565b915050612413565b60005b81600101548110156125835760fd546002830180546001600160a01b039092169163a9059cbb9190849081106124e257634e487b7160e01b600052603260045260246000fd5b60009182526020909120015460038501546040516001600160e01b031960e085901b16815261251e926001600160a01b0316919060040161457b565b602060405180830381600087803b15801561253857600080fd5b505af115801561254c573d6000803e3d6000fd5b505050506040513d601f19601f82011682018060405250810190612570919061416b565b508061257b816150ce565b91505061249c565b505b61259161010984613647565b507f90a6e7b3e793c835ae7bd0cdb2cafd5f03b11e536eef9eb6ad1791cb82bf0d3883604051611e6a9190614623565b6000805160206151398339815191526125dc816108c6612e29565b5061010155565b611724828261371d565b61010654610107549091565b60608183108015612614575061261061010b6136f8565b8211155b6126305760405162461bcd60e51b815260040161089090614745565b600061263c848461503b565b67ffffffffffffffff81111561266257634e487b7160e01b600052604160045260246000fd5b60405190808252806020026020018201604052801561269b57816020015b612688613efd565b8152602001906001900390816126805790505b509050835b83811015611ca65761010860006126b961010b84613703565b8152602001908152602001600020604051806101c001604052908160008201548152602001600182015481526020016002820180548060200260200160405190810160405280929190818152602001828054801561274057602002820191906000526020600020905b81546001600160a01b03168152600190910190602001808311612722575b505050918352505060038201546020820152600482015460ff808216151560408401526001600160a01b036101008304166060840152608090920191600160a81b9091041660028111156127a457634e487b7160e01b600052602160045260246000fd5b60028111156127c357634e487b7160e01b600052602160045260246000fd5b815260058201546020820152600682015460ff16151560408201526007820154606082015260088201546080820152600982015460a0820152600a8201805460c09092019161281190615099565b80601f016020809104026020016040519081016040528092919081815260200182805461283d90615099565b801561288a5780601f1061285f5761010080835404028352916020019161288a565b820191906000526020600020905b81548152906001019060200180831161286d57829003601f168201915b50505050508152602001600b820154815250508286836128aa919061503b565b815181106128c857634e487b7160e01b600052603260045260246000fd5b602002602001018190525080806128de906150ce565b9150506126a0565b600080516020615139833981519152612901816108c6612e29565b5061010455565b8061291561010982612e1d565b6129315760405162461bcd60e51b815260040161089090614d65565b600081815261010860205260409020600801546129605760405162461bcd60e51b815260040161089090614a98565b61010354600082815261010860205260409020600801546129819190614ed0565b4211156129a05760405162461bcd60e51b815260040161089090614ce7565b6000818152610108602052604090206002810154600190910154106129d75760405162461bcd60e51b8152600401610890906149c2565b600082815261010860205260409020600481015460ff161515600114612a0f5760405162461bcd60e51b815260040161089090614c60565b806003015434146121a85760405162461bcd60e51b815260040161089090614dcb565b600054610100900460ff1680612a4b575060005460ff16155b612a675760405162461bcd60e51b815260040161089090614974565b600054610100900460ff16158015612a92576000805460ff1961ff0019909116610100171660011790555b612a9a61373c565b612aa26137d1565b612ab96000612ab46020850185614133565b613841565b612aea7f11cf46bea1094f63335637b879e8021ce59a9008b10e90c59d17337675ebc792612ab46020850185614133565b612afc61014083016101208401614133565b60fc80546001600160a01b0319166001600160a01b0392909216919091179055612b2e61016083016101408401614133565b60fd80546001600160a01b0319166001600160a01b0392909216919091179055612b6061018083016101608401614133565b60ff80546001600160a01b0319166001600160a01b0392909216919091179055612b926101a083016101808401614133565b61010080546001600160a01b0319166001600160a01b0392909216919091179055612bc56101c083016101a08401614133565b60fe80546001600160a01b0319166001600160a01b0392909216919091179055602082013561010155604082013561010255606082013561010d5560808201356101035560a08201356101045560c08201356101055560e082013561010655610100820135610107558015612c40576000805461ff00191690555b5050565b60fc546001600160a01b031690565b80612c6061010982612e1d565b612c7c5760405162461bcd60e51b815260040161089090614d65565b60008181526101086020526040902060080154612cab5760405162461bcd60e51b815260040161089090614a98565b6101035460008281526101086020526040902060080154612ccc9190614ed0565b421115612ceb5760405162461bcd60e51b815260040161089090614ce7565b600081815261010860205260409020600281015460019091015410612d225760405162461bcd60e51b8152600401610890906149c2565b600082815261010860205260409020600681015460ff161515600114612d5a5760405162461bcd60e51b815260040161089090614d9c565b3381600201826001015481548110612d8257634e487b7160e01b600052603260045260246000fd5b9060005260206000200160006101000a8154816001600160a01b0302191690836001600160a01b031602179055506001816001016000828254612dc59190614ed0565b90915550506040517fad05497db7681a74140530daeedc0d0178492f9de1518990947e7cf27c83de5990611e6a9085903390614e76565b6000610bbb61010b6136f8565b6000610bbb6101096136f8565b61010d5490565b6000611d34838361384b565b3390565b612e378282611d3b565b612c4057612e4f816001600160a01b03166014613863565b612e5a836020613863565b604051602001612e6b9291906144f2565b60408051601f198184030181529082905262461bcd60e51b82526108909160040161462c565b60006001600160e01b03198216637965db0b60e01b1480610af85750610af882613a15565b600080866002811115612ed957634e487b7160e01b600052602160045260246000fd5b1480612f0457506001866002811115612f0257634e487b7160e01b600052602160045260246000fd5b145b612f205760405162461bcd60e51b815260040161089090614a04565b600082118015612f31575060188211155b612f4d5760405162461bcd60e51b815260040161089090614b06565b60028910158015612f5f575060648911155b612f7b5760405162461bcd60e51b8152600401610890906146fe565b86158015612f905750612f8c6132de565b8810155b80612faf57506001871515148015612faf5750612fab6136ea565b8810155b612fcb5760405162461bcd60e51b815260040161089090614d1e565b60fd5460ff546001600160a01b03918216916323b872dd91339116612fee61370f565b6040518463ffffffff1660e01b815260040161300c93929190614594565b602060405180830381600087803b15801561302657600080fd5b505af115801561303a573d6000803e3d6000fd5b505050506040513d601f19601f8201168201806040525081019061305e919061416b565b61307a5760405162461bcd60e51b81526004016108909061492f565b61308460fb613a2e565b600061309060fb613a37565b9050604051806101c00160405280828152602001600081526020018b67ffffffffffffffff8111156130d257634e487b7160e01b600052604160045260246000fd5b6040519080825280602002602001820160405280156130fb578160200160208202803683370190505b508152602081018b9052891515604082015233606082015260800188600281111561313657634e487b7160e01b600052602160045260246000fd5b8152602001848152602001600015158152602001428152602001600081526020016000815260200187878080601f0160208091040260200160405190810160405280939291908181526020018383808284376000920182905250938552505050602091820187905283815261010882526040908190208351815583830151600182015590830151805191926131d392600285019290910190613f9b565b5060608201516003820155608082015160048201805460a08501516001600160a01b031661010002610100600160a81b031993151560ff1990921691909117929092169190911780825560c0840151919060ff60a81b1916600160a81b83600281111561325057634e487b7160e01b600052602160045260246000fd5b021790555060e0820151600582015561010082015160068201805460ff191691151591909117905561012082015160078201556101408201516008820155610160820151600982015561018082015180516132b591600a840191602090910190614000565b506101a09190910151600b909101556132d061010982613653565b509998505050505050505050565b6000610bbb61010554613a3b565b6000805b82518110156133b4576000805b8560200151811015613390578560400151818151811061332d57634e487b7160e01b600052603260045260246000fd5b60200260200101516001600160a01b031685848151811061335e57634e487b7160e01b600052603260045260246000fd5b60200260200101516001600160a01b0316141561337e5760019150613390565b80613388816150ce565b9150506132fd565b50806133a157600092505050611caa565b50806133ac816150ce565b9150506132f0565b5060019392505050565b805182516060918491849111156133d55750829050835b6000815183516133e59190614ed0565b905060008167ffffffffffffffff81111561341057634e487b7160e01b600052604160045260246000fd5b604051908082528060200260200182016040528015613439578160200160208202803683370190505b5090506000805b8551811015613567576000805b86518110156134d95786818151811061347657634e487b7160e01b600052603260045260246000fd5b60200260200101516001600160a01b03168884815181106134a757634e487b7160e01b600052603260045260246000fd5b60200260200101516001600160a01b031614156134c757600191506134d9565b806134d1816150ce565b91505061344d565b5080613554578682815181106134ff57634e487b7160e01b600052603260045260246000fd5b6020026020010151848480613513906150ce565b95508151811061353357634e487b7160e01b600052603260045260246000fd5b60200260200101906001600160a01b031690816001600160a01b0316815250505b508061355f816150ce565b915050613440565b5060008167ffffffffffffffff81111561359157634e487b7160e01b600052604160045260246000fd5b6040519080825280602002602001820160405280156135ba578160200160208202803683370190505b50905060005b8281101561363a578381815181106135e857634e487b7160e01b600052603260045260246000fd5b602002602001015182828151811061361057634e487b7160e01b600052603260045260246000fd5b6001600160a01b039092166020928302919091019091015280613632816150ce565b9150506135c0565b5098975050505050505050565b6000611d348383613af2565b6000611d348383613c09565b61366882610be4565b613674816108c6612e29565b6117158383613c53565b6000611d34836001600160a01b038416613c09565b61369b612e29565b6001600160a01b0316816001600160a01b0316146136cb5760405162461bcd60e51b815260040161089090614e14565b612c408282613cda565b6000611d34836001600160a01b038416613af2565b6000610bbb61010554613d5f565b6000610af882613a37565b6000611d348383613da9565b6000610bbb61010254613a3b565b61372682610be4565b613732816108c6612e29565b6117158383613cda565b600054610100900460ff1680613755575060005460ff16155b6137715760405162461bcd60e51b815260040161089090614974565b600054610100900460ff1615801561379c576000805460ff1961ff0019909116610100171660011790555b6137a4613e02565b6137ac613e02565b6137b4613e02565b6137bc613e02565b80156137ce576000805461ff00191690555b50565b600054610100900460ff16806137ea575060005460ff16155b6138065760405162461bcd60e51b815260040161089090614974565b600054610100900460ff16158015613831576000805460ff1961ff0019909116610100171660011790555b613839613e02565b6137bc613e75565b6116fd8282613ef3565b60009081526001919091016020526040902054151590565b6060600061387283600261501c565b61387d906002614ed0565b67ffffffffffffffff8111156138a357634e487b7160e01b600052604160045260246000fd5b6040519080825280601f01601f1916602001820160405280156138cd576020820181803683370190505b509050600360fc1b816000815181106138f657634e487b7160e01b600052603260045260246000fd5b60200101906001600160f81b031916908160001a905350600f60fb1b8160018151811061393357634e487b7160e01b600052603260045260246000fd5b60200101906001600160f81b031916908160001a905350600061395784600261501c565b613962906001614ed0565b90505b60018111156139f6576f181899199a1a9b1b9c1cb0b131b232b360811b85600f16601081106139a457634e487b7160e01b600052603260045260246000fd5b1a60f81b8282815181106139c857634e487b7160e01b600052603260045260246000fd5b60200101906001600160f81b031916908160001a90535060049490941c936139ef81615082565b9050613965565b508315611d345760405162461bcd60e51b815260040161089090614681565b6001600160e01b031981166301ffc9a760e01b14919050565b80546001019055565b5490565b60008061010060009054906101000a90046001600160a01b03166001600160a01b031663b7d002076040518163ffffffff1660e01b815260040160206040518083038186803b158015613a8d57600080fd5b505afa158015613aa1573d6000803e3d6000fd5b505050506040513d601f19601f82011682018060405250810190613ac5919061422f565b9050613ad36006600a614f4e565b613add828561501c565b613ae890600461501c565b611d349190614ee8565b60008181526001830160205260408120548015613bff576000613b1660018361503b565b8554909150600090613b2a9060019061503b565b90506000866000018281548110613b5157634e487b7160e01b600052603260045260246000fd5b9060005260206000200154905080876000018481548110613b8257634e487b7160e01b600052603260045260246000fd5b600091825260208083209091019290925582815260018901909152604090208490558654879080613bc357634e487b7160e01b600052603160045260246000fd5b60019003818190600052602060002001600090559055866001016000878152602001908152602001600020600090556001945050505050611caa565b6000915050611caa565b6000613c15838361384b565b613c4b57508154600181810184556000848152602080822090930184905584548482528286019093526040902091909155611caa565b506000611caa565b613c5d8282611d3b565b612c405760008281526065602090815260408083206001600160a01b03851684529091529020805460ff19166001179055613c96612e29565b6001600160a01b0316816001600160a01b0316837f2f8788117e7eff1d82e926ec794901d17c78024a50270940304540a733656f0d60405160405180910390a45050565b613ce48282611d3b565b15612c405760008281526065602090815260408083206001600160a01b03851684529091529020805460ff19169055613d1b612e29565b6001600160a01b0316816001600160a01b0316837ff6391f5c32d9c69d2a47ea670b442974b53935d1edc7fd64eb21e047a839171b60405160405180910390a45050565b6000613d6d6006600a614f4e565b613d796012600a614f4e565b6101075461010654613d8b908661501c565b613d959190614ee8565b613d9f919061501c565b610af89190614ee8565b81546000908210613dcc5760405162461bcd60e51b81526004016108909061463f565b826000018281548110613def57634e487b7160e01b600052603260045260246000fd5b9060005260206000200154905092915050565b600054610100900460ff1680613e1b575060005460ff16155b613e375760405162461bcd60e51b815260040161089090614974565b600054610100900460ff161580156137bc576000805460ff1961ff00199091166101001716600117905580156137ce576000805461ff001916905550565b600054610100900460ff1680613e8e575060005460ff16155b613eaa5760405162461bcd60e51b815260040161089090614974565b600054610100900460ff16158015613ed5576000805460ff1961ff0019909116610100171660011790555b60c9805460ff1916905580156137ce576000805461ff001916905550565b612c408282613c53565b604051806101c001604052806000815260200160008152602001606081526020016000815260200160001515815260200160006001600160a01b0316815260200160006002811115613f5f57634e487b7160e01b600052602160045260246000fd5b81526020016000815260200160001515815260200160008152602001600081526020016000815260200160608152602001600080191681525090565b828054828255906000526020600020908101928215613ff0579160200282015b82811115613ff057825182546001600160a01b0319166001600160a01b03909116178255602090920191600190910190613fbb565b50613ffc929150614074565b5090565b82805461400c90615099565b90600052602060002090601f01602090048101928261402e5760008555613ff0565b82601f1061404757805160ff1916838001178555613ff0565b82800160010185558215613ff0579182015b82811115613ff0578251825591602001919060010190614059565b5b80821115613ffc5760008155600101614075565b8035610afb81615115565b600082601f8301126140a4578081fd5b8135602067ffffffffffffffff808311156140c1576140c16150ff565b818302604051838282010181811084821117156140e0576140e06150ff565b604052848152838101925086840182880185018910156140fe578687fd5b8692505b858310156141275761411381614089565b845292840192600192909201918401614102565b50979650505050505050565b600060208284031215614144578081fd5b8135611d3481615115565b600060208284031215614160578081fd5b8151611d3481615115565b60006020828403121561417c578081fd5b8151611d348161512a565b600060208284031215614198578081fd5b5035919050565b600080604083850312156141b1578081fd5b8235915060208301356141c381615115565b809150509250929050565b600080604083850312156141e0578182fd5b50508035926020909101359150565b600060208284031215614200578081fd5b81356001600160e01b031981168114611d34578182fd5b60006101c08284031215614229578081fd5b50919050565b600060208284031215614240578081fd5b5051919050565b60008060006060848603121561425b578081fd5b83359250602084013567ffffffffffffffff80821115614279578283fd5b61428587838801614094565b9350604086013591508082111561429a578283fd5b506142a786828701614094565b9150509250925092565b60008060008060008060008060e0898b0312156142cc578586fd5b883597506020890135965060408901356142e58161512a565b95506060890135600381106142f8578485fd5b9450608089013567ffffffffffffffff80821115614314578586fd5b818b0191508b601f830112614327578586fd5b813581811115614335578687fd5b8c6020828501011115614346578687fd5b999c989b50969995986020919091019790965060a08601359560c00135945092505050565b6001600160a01b03169052565b6000815180845260208085019450808401835b838110156143b05781516001600160a01b03168752958201959082019060010161438b565b509495945050505050565b15159052565b600381106143df57634e487b7160e01b600052602160045260246000fd5b9052565b600081518084526143fb816020860160208601615052565b601f01601f19169290920160200192915050565b60006101c08251845260208301516020850152604083015181604086015261443982860182614378565b91505060608301516060850152608083015161445860808601826143bb565b5060a083015161446b60a086018261436b565b5060c083015161447e60c08601826143c1565b5060e083015160e08501526101008084015161449c828701826143bb565b505061012083810151908501526101408084015190850152610160808401519085015261018080840151858303828701526144d783826143e3565b6101a095860151969095019590955250919392505050565b90565b60007f416363657373436f6e74726f6c3a206163636f756e74200000000000000000008252835161452a816017850160208801615052565b7001034b99036b4b9b9b4b733903937b6329607d1b601791840191820152835161455b816028840160208801615052565b01602801949350505050565b6001600160a01b0391909116815260200190565b6001600160a01b03929092168252602082015260400190565b6001600160a01b039384168152919092166020820152604081019190915260600190565b6000602080830181845280855180835260408601915060408482028701019250838701855b8281101561460b57603f198886030184526145f985835161440f565b945092850192908501906001016145dd565b5092979650505050505050565b901515815260200190565b90815260200190565b600060208252611d3460208301846143e3565b60208082526022908201527f456e756d657261626c655365743a20696e646578206f7574206f6620626f756e604082015261647360f01b606082015260800190565b6020808252818101527f537472696e67733a20686578206c656e67746820696e73756666696369656e74604082015260600190565b60208082526028908201527f4242543a207374616b65732073686f756c6420626520696e206e61746976652060408201526763757272656e637960c01b606082015260800190565b60208082526027908201527f4242543a20696e76616c6964206d6178206e756d626572206f66207061727469604082015266636970616e747360c81b606082015260800190565b6020808252601490820152734242543a20696e76616c696420696e646578657360601b604082015260600190565b6020808252601c908201527f4242543a20726f6f6d206973206e6f74206167656420656e6f75676800000000604082015260600190565b60208082526018908201527f4242543a20726f6f6d20616c7265616479206c6f636b65640000000000000000604082015260600190565b6020808252601e908201527f4242543a20696e76616c6964206e756d626572206f6620706c61796572730000604082015260600190565b6020808252603a908201527f4242543a2063616e6e6f74207265706f72742077696e6e657273206265666f7260408201527f65207374616b696e672077696e646f7720697320636c6f736564000000000000606082015260800190565b60208082526038908201527f4242543a206f6e65206f72206d6f7265206f66207265706f727465642077696e60408201527f6e65727320617265206e6f74207061727469636970616e740000000000000000606082015260800190565b60208082526038908201527f4242543a206f6e65206f72206d6f7265206f66207265706f7274656420706c6160408201527f7965727320617265206e6f74207061727469636970616e740000000000000000606082015260800190565b60208082526025908201527f4242543a204e6f7420656e6f75676820534e4b20666f7220726f6f6d2063726560408201526430ba34b7b760d91b606082015260800190565b6020808252602e908201527f496e697469616c697a61626c653a20636f6e747261637420697320616c72656160408201526d191e481a5b9a5d1a585b1a5e995960921b606082015260800190565b60208082526022908201527f4242543a206e6f206d6f7265207061727469636970616e747320706f737369626040820152616c6560f01b606082015260800190565b6020808252601590820152744242543a20756e737570706f72746564206d6f646560581b604082015260600190565b6020808252601d908201527f4242543a206c6f636b696e672077696e646f7720697320636c6f736564000000604082015260600190565b6020808252601490820152731090950e881a5b9d985b1a59081c9bdbdb481a5960621b604082015260600190565b60208082526017908201527f4242543a20726f6f6d206973206e6f74206c6f636b6564000000000000000000604082015260600190565b6020808252601d908201527f4242543a206e6f7420656e6f75676820534e4b20666f72207374616b65000000604082015260600190565b6020808252601390820152724242543a20696e76616c696420726f756e647360681b604082015260600190565b6020808252601f908201527f4242543a206e6f7420656e6f7567682066756e647320666f72207374616b6500604082015260600190565b60208082526027908201527f4242543a20726576736861726520776173206e6f742073656e7420746f20726560408201526618da5c1a595b9d60ca1b606082015260800190565b60208082526029908201527f4242543a2077696e6e696e672066656520776173206e6f742073656e7420746f60408201526820666f756e6465727360b81b606082015260800190565b60208082526015908201527421212a1d103737ba1030903937b7b69037bbb732b960591b604082015260600190565b6020808252601e908201527f4242543a20696e76616c6964206e756d626572206f662077696e6e6572730000604082015260600190565b6020808252601c908201527f4242543a207374616b65732073686f756c6420626520696e20534e4b00000000604082015260600190565b60208082526030908201527f4242543a2063616e6e6f74207265706f72742077696e6e657273206265666f7260408201526f19481c9bdbdb481a5cc81b1bd8dad95960821b606082015260800190565b6020808252601a908201527f4242543a207374616b696e672077696e646f7720636c6f736564000000000000604082015260600190565b60208082526027908201527f4242543a2072657175697265645374616b65206973206c657373207468616e206040820152661b5a5b9a5b585b60ca1b606082015260800190565b60208082526017908201527f4242543a20726f6f6d206973206e6f7420616374697665000000000000000000604082015260600190565b6020808252601590820152744242543a20726f6f6d206973206e6f74206672656560581b604082015260600190565b60208082526029908201527f4242543a206e6f7420656e6f756768206e61746976652063757272656e637920604082015268666f72207374616b6560b81b606082015260800190565b6020808252602f908201527f416363657373436f6e74726f6c3a2063616e206f6e6c792072656e6f756e636560408201526e103937b632b9903337b91039b2b63360891b606082015260800190565b600060208252611d34602083018461440f565b9182526001600160a01b0316602082015260400190565b600084825260606020830152614ea66060830185614378565b8281036040840152614eb88185614378565b9695505050505050565b918252602082015260400190565b60008219821115614ee357614ee36150e9565b500190565b600082614f0357634e487b7160e01b81526012600452602481fd5b500490565b80825b6001808611614f1a5750614f45565b818704821115614f2c57614f2c6150e9565b80861615614f3957918102915b9490941c938002614f0b565b94509492505050565b6000611d346000198484600082614f6757506001611d34565b81614f7457506000611d34565b8160018114614f8a5760028114614f9457614fc1565b6001915050611d34565b60ff841115614fa557614fa56150e9565b6001841b915084821115614fbb57614fbb6150e9565b50611d34565b5060208310610133831016604e8410600b8410161715614ff4575081810a83811115614fef57614fef6150e9565b611d34565b6150018484846001614f08565b808604821115615013576150136150e9565b02949350505050565b6000816000190483118215151615615036576150366150e9565b500290565b60008282101561504d5761504d6150e9565b500390565b60005b8381101561506d578181015183820152602001615055565b8381111561507c576000848401525b50505050565b600081615091576150916150e9565b506000190190565b6002810460018216806150ad57607f821691505b6020821081141561422957634e487b7160e01b600052602260045260246000fd5b60006000198214156150e2576150e26150e9565b5060010190565b634e487b7160e01b600052601160045260246000fd5b634e487b7160e01b600052604160045260246000fd5b6001600160a01b03811681146137ce57600080fd5b80151581146137ce57600080fdfe65d7a28e3265b37a6474929f336521b332c1681b933f6cb9f3376673440d862aa26469706673582212201a2d9a37aecaae81603432a12c18c8bc2e71590761200d7b9a920680334000d764736f6c63430008000033",
  "devdoc": {
    "kind": "dev",
    "methods": {
      "getRoleAdmin(bytes32)": {
        "details": "Returns the admin role that controls `role`. See {grantRole} and {revokeRole}. To change a role's admin, use {_setRoleAdmin}."
      },
      "getRoleMember(bytes32,uint256)": {
        "details": "Returns one of the accounts that have `role`. `index` must be a value between 0 and {getRoleMemberCount}, non-inclusive. Role bearers are not sorted in any particular way, and their ordering may change at any point. WARNING: When using {getRoleMember} and {getRoleMemberCount}, make sure you perform all queries on the same block. See the following https://forum.openzeppelin.com/t/iterating-over-elements-on-enumerableset-in-openzeppelin-contracts/2296[forum post] for more information."
      },
      "getRoleMemberCount(bytes32)": {
        "details": "Returns the number of accounts that have `role`. Can be used together with {getRoleMember} to enumerate all bearers of a role."
      },
      "grantRole(bytes32,address)": {
        "details": "Overload {grantRole} to track enumerable memberships"
      },
      "hasRole(bytes32,address)": {
        "details": "Returns `true` if `account` has been granted `role`."
      },
      "lockRoom(uint256)": {
        "details": "After room locking, the stakes are possible during staking window."
      },
      "paused()": {
        "details": "Returns true if the contract is paused, and false otherwise."
      },
      "renounceRole(bytes32,address)": {
        "details": "Overload {renounceRole} to track enumerable memberships"
      },
      "reportWinners(uint256,address[],address[])": {
        "details": "Not all participants may successfully join the game (the server may not see an event of the stake from one of them). So we return the stake to participants who staked but not played. "
      },
      "revokeRole(bytes32,address)": {
        "details": "Overload {revokeRole} to track enumerable memberships"
      },
      "supportsInterface(bytes4)": {
        "details": "See {IERC165-supportsInterface}."
      }
    },
    "version": 1
  },
  "userdoc": {
    "kind": "user",
    "methods": {},
    "version": 1
  },
  "storageLayout": {
    "storage": [
      {
        "astId": 753,
        "contract": "contracts/BigBoyTable.sol:BigBoyTable",
        "label": "_initialized",
        "offset": 0,
        "slot": "0",
        "type": "t_bool"
      },
      {
        "astId": 756,
        "contract": "contracts/BigBoyTable.sol:BigBoyTable",
        "label": "_initializing",
        "offset": 1,
        "slot": "0",
        "type": "t_bool"
      },
      {
        "astId": 2658,
        "contract": "contracts/BigBoyTable.sol:BigBoyTable",
        "label": "__gap",
        "offset": 0,
        "slot": "1",
        "type": "t_array(t_uint256)50_storage"
      },
      {
        "astId": 2907,
        "contract": "contracts/BigBoyTable.sol:BigBoyTable",
        "label": "__gap",
        "offset": 0,
        "slot": "51",
        "type": "t_array(t_uint256)50_storage"
      },
      {
        "astId": 307,
        "contract": "contracts/BigBoyTable.sol:BigBoyTable",
        "label": "_roles",
        "offset": 0,
        "slot": "101",
        "type": "t_mapping(t_bytes32,t_struct(RoleData)302_storage)"
      },
      {
        "astId": 615,
        "contract": "contracts/BigBoyTable.sol:BigBoyTable",
        "label": "__gap",
        "offset": 0,
        "slot": "102",
        "type": "t_array(t_uint256)49_storage"
      },
      {
        "astId": 62,
        "contract": "contracts/BigBoyTable.sol:BigBoyTable",
        "label": "_roleMembers",
        "offset": 0,
        "slot": "151",
        "type": "t_mapping(t_bytes32,t_struct(AddressSet)3206_storage)"
      },
      {
        "astId": 219,
        "contract": "contracts/BigBoyTable.sol:BigBoyTable",
        "label": "__gap",
        "offset": 0,
        "slot": "152",
        "type": "t_array(t_uint256)49_storage"
      },
      {
        "astId": 814,
        "contract": "contracts/BigBoyTable.sol:BigBoyTable",
        "label": "_paused",
        "offset": 0,
        "slot": "201",
        "type": "t_bool"
      },
      {
        "astId": 905,
        "contract": "contracts/BigBoyTable.sol:BigBoyTable",
        "label": "__gap",
        "offset": 0,
        "slot": "202",
        "type": "t_array(t_uint256)49_storage"
      },
      {
        "astId": 9643,
        "contract": "contracts/BigBoyTable.sol:BigBoyTable",
        "label": "_roomIds",
        "offset": 0,
        "slot": "251",
        "type": "t_struct(Counter)4707_storage"
      },
      {
        "astId": 9645,
        "contract": "contracts/BigBoyTable.sol:BigBoyTable",
        "label": "_foundersAddress",
        "offset": 0,
        "slot": "252",
        "type": "t_address_payable"
      },
      {
        "astId": 9648,
        "contract": "contracts/BigBoyTable.sol:BigBoyTable",
        "label": "_skill",
        "offset": 0,
        "slot": "253",
        "type": "t_contract(ISkillToken)13975"
      },
      {
        "astId": 9651,
        "contract": "contracts/BigBoyTable.sol:BigBoyTable",
        "label": "_collectionList",
        "offset": 0,
        "slot": "254",
        "type": "t_contract(ICollectionList)13667"
      },
      {
        "astId": 9653,
        "contract": "contracts/BigBoyTable.sol:BigBoyTable",
        "label": "_ecosystem",
        "offset": 0,
        "slot": "255",
        "type": "t_address"
      },
      {
        "astId": 9656,
        "contract": "contracts/BigBoyTable.sol:BigBoyTable",
        "label": "_uniswap",
        "offset": 0,
        "slot": "256",
        "type": "t_contract(IUniswapUSDCSkill)14513"
      },
      {
        "astId": 9658,
        "contract": "contracts/BigBoyTable.sol:BigBoyTable",
        "label": "_winningFeeInPercents",
        "offset": 0,
        "slot": "257",
        "type": "t_uint256"
      },
      {
        "astId": 9660,
        "contract": "contracts/BigBoyTable.sol:BigBoyTable",
        "label": "_roomCreationPriceInUSDC",
        "offset": 0,
        "slot": "258",
        "type": "t_uint256"
      },
      {
        "astId": 9662,
        "contract": "contracts/BigBoyTable.sol:BigBoyTable",
        "label": "_stakingWindowInSeconds",
        "offset": 0,
        "slot": "259",
        "type": "t_uint256"
      },
      {
        "astId": 9664,
        "contract": "contracts/BigBoyTable.sol:BigBoyTable",
        "label": "_activeRoomDeletionDelayInSeconds",
        "offset": 0,
        "slot": "260",
        "type": "t_uint256"
      },
      {
        "astId": 9666,
        "contract": "contracts/BigBoyTable.sol:BigBoyTable",
        "label": "_minimalStakeInUSDC",
        "offset": 0,
        "slot": "261",
        "type": "t_uint256"
      },
      {
        "astId": 9668,
        "contract": "contracts/BigBoyTable.sol:BigBoyTable",
        "label": "_native2usdcNumerator",
        "offset": 0,
        "slot": "262",
        "type": "t_uint256"
      },
      {
        "astId": 9670,
        "contract": "contracts/BigBoyTable.sol:BigBoyTable",
        "label": "_native2usdcDenominator",
        "offset": 0,
        "slot": "263",
        "type": "t_uint256"
      },
      {
        "astId": 9675,
        "contract": "contracts/BigBoyTable.sol:BigBoyTable",
        "label": "_rooms",
        "offset": 0,
        "slot": "264",
        "type": "t_mapping(t_uint256,t_struct(Room)13122_storage)"
      },
      {
        "astId": 9678,
        "contract": "contracts/BigBoyTable.sol:BigBoyTable",
        "label": "_activeRoomIds",
        "offset": 0,
        "slot": "265",
        "type": "t_struct(UintSet)5211_storage"
      },
      {
        "astId": 9681,
        "contract": "contracts/BigBoyTable.sol:BigBoyTable",
        "label": "_finishedRoomIds",
        "offset": 0,
        "slot": "267",
        "type": "t_struct(UintSet)5211_storage"
      },
      {
        "astId": 9683,
        "contract": "contracts/BigBoyTable.sol:BigBoyTable",
        "label": "_lockingWindowInSeconds",
        "offset": 0,
        "slot": "269",
        "type": "t_uint256"
      }
    ],
    "types": {
      "t_address": {
        "encoding": "inplace",
        "label": "address",
        "numberOfBytes": "20"
      },
      "t_address_payable": {
        "encoding": "inplace",
        "label": "address payable",
        "numberOfBytes": "20"
      },
      "t_array(t_address_payable)dyn_storage": {
        "base": "t_address_payable",
        "encoding": "dynamic_array",
        "label": "address payable[]",
        "numberOfBytes": "32"
      },
      "t_array(t_bytes32)dyn_storage": {
        "base": "t_bytes32",
        "encoding": "dynamic_array",
        "label": "bytes32[]",
        "numberOfBytes": "32"
      },
      "t_array(t_uint256)49_storage": {
        "base": "t_uint256",
        "encoding": "inplace",
        "label": "uint256[49]",
        "numberOfBytes": "1568"
      },
      "t_array(t_uint256)50_storage": {
        "base": "t_uint256",
        "encoding": "inplace",
        "label": "uint256[50]",
        "numberOfBytes": "1600"
      },
      "t_bool": {
        "encoding": "inplace",
        "label": "bool",
        "numberOfBytes": "1"
      },
      "t_bytes32": {
        "encoding": "inplace",
        "label": "bytes32",
        "numberOfBytes": "32"
      },
      "t_contract(ICollectionList)13667": {
        "encoding": "inplace",
        "label": "contract ICollectionList",
        "numberOfBytes": "20"
      },
      "t_contract(ISkillToken)13975": {
        "encoding": "inplace",
        "label": "contract ISkillToken",
        "numberOfBytes": "20"
      },
      "t_contract(IUniswapUSDCSkill)14513": {
        "encoding": "inplace",
        "label": "contract IUniswapUSDCSkill",
        "numberOfBytes": "20"
      },
      "t_enum(ROOM_MODE)13091": {
        "encoding": "inplace",
        "label": "enum IBigBoyTable.ROOM_MODE",
        "numberOfBytes": "1"
      },
      "t_mapping(t_address,t_bool)": {
        "encoding": "mapping",
        "key": "t_address",
        "label": "mapping(address => bool)",
        "numberOfBytes": "32",
        "value": "t_bool"
      },
      "t_mapping(t_bytes32,t_struct(AddressSet)3206_storage)": {
        "encoding": "mapping",
        "key": "t_bytes32",
        "label": "mapping(bytes32 => struct EnumerableSetUpgradeable.AddressSet)",
        "numberOfBytes": "32",
        "value": "t_struct(AddressSet)3206_storage"
      },
      "t_mapping(t_bytes32,t_struct(RoleData)302_storage)": {
        "encoding": "mapping",
        "key": "t_bytes32",
        "label": "mapping(bytes32 => struct AccessControlUpgradeable.RoleData)",
        "numberOfBytes": "32",
        "value": "t_struct(RoleData)302_storage"
      },
      "t_mapping(t_bytes32,t_uint256)": {
        "encoding": "mapping",
        "key": "t_bytes32",
        "label": "mapping(bytes32 => uint256)",
        "numberOfBytes": "32",
        "value": "t_uint256"
      },
      "t_mapping(t_uint256,t_struct(Room)13122_storage)": {
        "encoding": "mapping",
        "key": "t_uint256",
        "label": "mapping(uint256 => struct IBigBoyTable.Room)",
        "numberOfBytes": "32",
        "value": "t_struct(Room)13122_storage"
      },
      "t_string_storage": {
        "encoding": "bytes",
        "label": "string",
        "numberOfBytes": "32"
      },
      "t_struct(AddressSet)3206_storage": {
        "encoding": "inplace",
        "label": "struct EnumerableSetUpgradeable.AddressSet",
        "members": [
          {
            "astId": 3205,
            "contract": "contracts/BigBoyTable.sol:BigBoyTable",
            "label": "_inner",
            "offset": 0,
            "slot": "0",
            "type": "t_struct(Set)2931_storage"
          }
        ],
        "numberOfBytes": "64"
      },
      "t_struct(Counter)4707_storage": {
        "encoding": "inplace",
        "label": "struct Counters.Counter",
        "members": [
          {
            "astId": 4706,
            "contract": "contracts/BigBoyTable.sol:BigBoyTable",
            "label": "_value",
            "offset": 0,
            "slot": "0",
            "type": "t_uint256"
          }
        ],
        "numberOfBytes": "32"
      },
      "t_struct(RoleData)302_storage": {
        "encoding": "inplace",
        "label": "struct AccessControlUpgradeable.RoleData",
        "members": [
          {
            "astId": 299,
            "contract": "contracts/BigBoyTable.sol:BigBoyTable",
            "label": "members",
            "offset": 0,
            "slot": "0",
            "type": "t_mapping(t_address,t_bool)"
          },
          {
            "astId": 301,
            "contract": "contracts/BigBoyTable.sol:BigBoyTable",
            "label": "adminRole",
            "offset": 0,
            "slot": "1",
            "type": "t_bytes32"
          }
        ],
        "numberOfBytes": "64"
      },
      "t_struct(Room)13122_storage": {
        "encoding": "inplace",
        "label": "struct IBigBoyTable.Room",
        "members": [
          {
            "astId": 13093,
            "contract": "contracts/BigBoyTable.sol:BigBoyTable",
            "label": "id",
            "offset": 0,
            "slot": "0",
            "type": "t_uint256"
          },
          {
            "astId": 13095,
            "contract": "contracts/BigBoyTable.sol:BigBoyTable",
            "label": "participantCount",
            "offset": 0,
            "slot": "1",
            "type": "t_uint256"
          },
          {
            "astId": 13098,
            "contract": "contracts/BigBoyTable.sol:BigBoyTable",
            "label": "participants",
            "offset": 0,
            "slot": "2",
            "type": "t_array(t_address_payable)dyn_storage"
          },
          {
            "astId": 13100,
            "contract": "contracts/BigBoyTable.sol:BigBoyTable",
            "label": "requiredStakeAmount",
            "offset": 0,
            "slot": "3",
            "type": "t_uint256"
          },
          {
            "astId": 13102,
            "contract": "contracts/BigBoyTable.sol:BigBoyTable",
            "label": "isStakeInNativeCurrency",
            "offset": 0,
            "slot": "4",
            "type": "t_bool"
          },
          {
            "astId": 13104,
            "contract": "contracts/BigBoyTable.sol:BigBoyTable",
            "label": "owner",
            "offset": 1,
            "slot": "4",
            "type": "t_address_payable"
          },
          {
            "astId": 13107,
            "contract": "contracts/BigBoyTable.sol:BigBoyTable",
            "label": "roomMode",
            "offset": 21,
            "slot": "4",
            "type": "t_enum(ROOM_MODE)13091"
          },
          {
            "astId": 13109,
            "contract": "contracts/BigBoyTable.sol:BigBoyTable",
            "label": "rounds",
            "offset": 0,
            "slot": "5",
            "type": "t_uint256"
          },
          {
            "astId": 13111,
            "contract": "contracts/BigBoyTable.sol:BigBoyTable",
            "label": "canJoinForFree",
            "offset": 0,
            "slot": "6",
            "type": "t_bool"
          },
          {
            "astId": 13113,
            "contract": "contracts/BigBoyTable.sol:BigBoyTable",
            "label": "createdAt",
            "offset": 0,
            "slot": "7",
            "type": "t_uint256"
          },
          {
            "astId": 13115,
            "contract": "contracts/BigBoyTable.sol:BigBoyTable",
            "label": "lockedAt",
            "offset": 0,
            "slot": "8",
            "type": "t_uint256"
          },
          {
            "astId": 13117,
            "contract": "contracts/BigBoyTable.sol:BigBoyTable",
            "label": "totalStake",
            "offset": 0,
            "slot": "9",
            "type": "t_uint256"
          },
          {
            "astId": 13119,
            "contract": "contracts/BigBoyTable.sol:BigBoyTable",
            "label": "pwdRef",
            "offset": 0,
            "slot": "10",
            "type": "t_string_storage"
          },
          {
            "astId": 13121,
            "contract": "contracts/BigBoyTable.sol:BigBoyTable",
            "label": "collectionId",
            "offset": 0,
            "slot": "11",
            "type": "t_bytes32"
          }
        ],
        "numberOfBytes": "384"
      },
      "t_struct(Set)2931_storage": {
        "encoding": "inplace",
        "label": "struct EnumerableSetUpgradeable.Set",
        "members": [
          {
            "astId": 2926,
            "contract": "contracts/BigBoyTable.sol:BigBoyTable",
            "label": "_values",
            "offset": 0,
            "slot": "0",
            "type": "t_array(t_bytes32)dyn_storage"
          },
          {
            "astId": 2930,
            "contract": "contracts/BigBoyTable.sol:BigBoyTable",
            "label": "_indexes",
            "offset": 0,
            "slot": "1",
            "type": "t_mapping(t_bytes32,t_uint256)"
          }
        ],
        "numberOfBytes": "64"
      },
      "t_struct(Set)4809_storage": {
        "encoding": "inplace",
        "label": "struct EnumerableSet.Set",
        "members": [
          {
            "astId": 4804,
            "contract": "contracts/BigBoyTable.sol:BigBoyTable",
            "label": "_values",
            "offset": 0,
            "slot": "0",
            "type": "t_array(t_bytes32)dyn_storage"
          },
          {
            "astId": 4808,
            "contract": "contracts/BigBoyTable.sol:BigBoyTable",
            "label": "_indexes",
            "offset": 0,
            "slot": "1",
            "type": "t_mapping(t_bytes32,t_uint256)"
          }
        ],
        "numberOfBytes": "64"
      },
      "t_struct(UintSet)5211_storage": {
        "encoding": "inplace",
        "label": "struct EnumerableSet.UintSet",
        "members": [
          {
            "astId": 5210,
            "contract": "contracts/BigBoyTable.sol:BigBoyTable",
            "label": "_inner",
            "offset": 0,
            "slot": "0",
            "type": "t_struct(Set)4809_storage"
          }
        ],
        "numberOfBytes": "64"
      },
      "t_uint256": {
        "encoding": "inplace",
        "label": "uint256",
        "numberOfBytes": "32"
      }
    }
  }
}