{
  "address": "0x1a395ac98e53a76ab0B3ACA61b33fA43dE46e96d",
  "abi": [
    {
      "inputs": [
        {
          "internalType": "address",
          "name": "state",
          "type": "address"
        },
        {
          "internalType": "address",
          "name": "snook",
          "type": "address"
        },
        {
          "internalType": "address",
          "name": "skinRewards",
          "type": "address"
        },
        {
          "internalType": "address",
          "name": "afterdeath",
          "type": "address"
        },
        {
          "internalType": "address",
          "name": "adminAccount",
          "type": "address"
        },
        {
          "internalType": "uint256",
          "name": "maxTokenCount",
          "type": "uint256"
        }
      ],
      "stateMutability": "nonpayable",
      "type": "constructor"
    },
    {
      "anonymous": false,
      "inputs": [
        {
          "indexed": true,
          "internalType": "address",
          "name": "to",
          "type": "address"
        },
        {
          "indexed": false,
          "internalType": "uint256",
          "name": "tokenId",
          "type": "uint256"
        }
      ],
      "name": "Birth",
      "type": "event"
    },
    {
      "anonymous": false,
      "inputs": [
        {
          "indexed": false,
          "internalType": "uint256",
          "name": "count",
          "type": "uint256"
        }
      ],
      "name": "BulkMint",
      "type": "event"
    },
    {
      "anonymous": false,
      "inputs": [
        {
          "indexed": false,
          "internalType": "address",
          "name": "account",
          "type": "address"
        }
      ],
      "name": "Paused",
      "type": "event"
    },
    {
      "anonymous": false,
      "inputs": [
        {
          "indexed": true,
          "internalType": "bytes32",
          "name": "role",
          "type": "bytes32"
        },
        {
          "indexed": true,
          "internalType": "bytes32",
          "name": "previousAdminRole",
          "type": "bytes32"
        },
        {
          "indexed": true,
          "internalType": "bytes32",
          "name": "newAdminRole",
          "type": "bytes32"
        }
      ],
      "name": "RoleAdminChanged",
      "type": "event"
    },
    {
      "anonymous": false,
      "inputs": [
        {
          "indexed": true,
          "internalType": "bytes32",
          "name": "role",
          "type": "bytes32"
        },
        {
          "indexed": true,
          "internalType": "address",
          "name": "account",
          "type": "address"
        },
        {
          "indexed": true,
          "internalType": "address",
          "name": "sender",
          "type": "address"
        }
      ],
      "name": "RoleGranted",
      "type": "event"
    },
    {
      "anonymous": false,
      "inputs": [
        {
          "indexed": true,
          "internalType": "bytes32",
          "name": "role",
          "type": "bytes32"
        },
        {
          "indexed": true,
          "internalType": "address",
          "name": "account",
          "type": "address"
        },
        {
          "indexed": true,
          "internalType": "address",
          "name": "sender",
          "type": "address"
        }
      ],
      "name": "RoleRevoked",
      "type": "event"
    },
    {
      "anonymous": false,
      "inputs": [
        {
          "indexed": false,
          "internalType": "address",
          "name": "account",
          "type": "address"
        }
      ],
      "name": "Unpaused",
      "type": "event"
    },
    {
      "inputs": [],
      "name": "DEFAULT_ADMIN_ROLE",
      "outputs": [
        {
          "internalType": "bytes32",
          "name": "",
          "type": "bytes32"
        }
      ],
      "stateMutability": "view",
      "type": "function"
    },
    {
      "inputs": [],
      "name": "MINTER_ROLE",
      "outputs": [
        {
          "internalType": "bytes32",
          "name": "",
          "type": "bytes32"
        }
      ],
      "stateMutability": "view",
      "type": "function"
    },
    {
      "inputs": [],
      "name": "PAUSER_ROLE",
      "outputs": [
        {
          "internalType": "bytes32",
          "name": "",
          "type": "bytes32"
        }
      ],
      "stateMutability": "view",
      "type": "function"
    },
    {
      "inputs": [],
      "name": "TraitCount",
      "outputs": [
        {
          "internalType": "uint256",
          "name": "",
          "type": "uint256"
        }
      ],
      "stateMutability": "view",
      "type": "function"
    },
    {
      "inputs": [
        {
          "internalType": "address[]",
          "name": "tos",
          "type": "address[]"
        },
        {
          "internalType": "string[][]",
          "name": "arrTokenURIs",
          "type": "string[][]"
        }
      ],
      "name": "bulkMint",
      "outputs": [],
      "stateMutability": "nonpayable",
      "type": "function"
    },
    {
      "inputs": [],
      "name": "getMaxTokenCount",
      "outputs": [
        {
          "internalType": "uint256",
          "name": "",
          "type": "uint256"
        }
      ],
      "stateMutability": "view",
      "type": "function"
    },
    {
      "inputs": [],
      "name": "getMintedCount",
      "outputs": [
        {
          "internalType": "uint256",
          "name": "",
          "type": "uint256"
        }
      ],
      "stateMutability": "view",
      "type": "function"
    },
    {
      "inputs": [
        {
          "internalType": "bytes32",
          "name": "role",
          "type": "bytes32"
        }
      ],
      "name": "getRoleAdmin",
      "outputs": [
        {
          "internalType": "bytes32",
          "name": "",
          "type": "bytes32"
        }
      ],
      "stateMutability": "view",
      "type": "function"
    },
    {
      "inputs": [
        {
          "internalType": "bytes32",
          "name": "role",
          "type": "bytes32"
        },
        {
          "internalType": "uint256",
          "name": "index",
          "type": "uint256"
        }
      ],
      "name": "getRoleMember",
      "outputs": [
        {
          "internalType": "address",
          "name": "",
          "type": "address"
        }
      ],
      "stateMutability": "view",
      "type": "function"
    },
    {
      "inputs": [
        {
          "internalType": "bytes32",
          "name": "role",
          "type": "bytes32"
        }
      ],
      "name": "getRoleMemberCount",
      "outputs": [
        {
          "internalType": "uint256",
          "name": "",
          "type": "uint256"
        }
      ],
      "stateMutability": "view",
      "type": "function"
    },
    {
      "inputs": [
        {
          "internalType": "bytes32",
          "name": "role",
          "type": "bytes32"
        },
        {
          "internalType": "address",
          "name": "account",
          "type": "address"
        }
      ],
      "name": "grantRole",
      "outputs": [],
      "stateMutability": "nonpayable",
      "type": "function"
    },
    {
      "inputs": [
        {
          "internalType": "bytes32",
          "name": "role",
          "type": "bytes32"
        },
        {
          "internalType": "address",
          "name": "account",
          "type": "address"
        }
      ],
      "name": "hasRole",
      "outputs": [
        {
          "internalType": "bool",
          "name": "",
          "type": "bool"
        }
      ],
      "stateMutability": "view",
      "type": "function"
    },
    {
      "inputs": [],
      "name": "pause",
      "outputs": [],
      "stateMutability": "nonpayable",
      "type": "function"
    },
    {
      "inputs": [],
      "name": "paused",
      "outputs": [
        {
          "internalType": "bool",
          "name": "",
          "type": "bool"
        }
      ],
      "stateMutability": "view",
      "type": "function"
    },
    {
      "inputs": [
        {
          "internalType": "bytes32",
          "name": "role",
          "type": "bytes32"
        },
        {
          "internalType": "address",
          "name": "account",
          "type": "address"
        }
      ],
      "name": "renounceRole",
      "outputs": [],
      "stateMutability": "nonpayable",
      "type": "function"
    },
    {
      "inputs": [
        {
          "internalType": "bytes32",
          "name": "role",
          "type": "bytes32"
        },
        {
          "internalType": "address",
          "name": "account",
          "type": "address"
        }
      ],
      "name": "revokeRole",
      "outputs": [],
      "stateMutability": "nonpayable",
      "type": "function"
    },
    {
      "inputs": [
        {
          "internalType": "bytes4",
          "name": "interfaceId",
          "type": "bytes4"
        }
      ],
      "name": "supportsInterface",
      "outputs": [
        {
          "internalType": "bool",
          "name": "",
          "type": "bool"
        }
      ],
      "stateMutability": "view",
      "type": "function"
    },
    {
      "inputs": [],
      "name": "unpause",
      "outputs": [],
      "stateMutability": "nonpayable",
      "type": "function"
    }
  ],
  "transactionHash": "0xb1d329a1fa9301d58dd472054678cddf73d19ac1cfc6f1d2a6d86365c28c3fd9",
  "args": [
    "0x3473fd176c8F552a1283165cF586EE44BD5b168a",
    "0x4372597f1c600D86598675DCB6cF5713bB7525Cf",
    "0xD6588E9C555D35B0274f47Dc6b9D4D7917602347",
    "0x6BC8f0128e4Aaa0B3678b67BB93715fa70fAf3D3",
    "0x11fe914689525618c322fc9cd76333BA15a932a6",
    "100800"
  ],
  "solcInputHash": "f7515452157d4fabe3e4b8fe13e75eb8",
  "bytecode": "0x60a06040523480156200001157600080fd5b50604051620019a3380380620019a38339810160408190526200003491620002b9565b600280546000600681905560808490526001600160a01b03808a16610100026001600160a81b031990931692909217909255600580548883166001600160a01b031991821617909155600380548884169083161790556004805492871692909116919091179055620000a790836200010b565b620000d37f9f2df0fed2c77648de5860a4cc508cd0818c85b8b8a1ab4ceeef8d981c8956a6836200010b565b620000ff7f65d7a28e3265b37a6474929f336521b332c1681b933f6cb9f3376673440d862a836200010b565b50505050505062000330565b6200012282826200014e60201b620006281760201c565b600082815260016020908152604090912062000149918390620006366200015e821b17901c565b505050565b6200015a82826200017e565b5050565b600062000175836001600160a01b03841662000208565b90505b92915050565b6200018a828262000257565b6200015a576000828152602081815260408083206001600160a01b03851684529091529020805460ff19166001179055620001c462000280565b6001600160a01b0316816001600160a01b0316837f2f8788117e7eff1d82e926ec794901d17c78024a50270940304540a733656f0d60405160405180910390a45050565b600062000216838362000284565b6200024e5750815460018181018455600084815260208082209093018490558454848252828601909352604090209190915562000178565b50600062000178565b6000918252602082815260408084206001600160a01b0393909316845291905290205460ff1690565b3390565b60009081526001919091016020526040902054151590565b80516001600160a01b0381168114620002b457600080fd5b919050565b60008060008060008060c08789031215620002d2578182fd5b620002dd876200029c565b9550620002ed602088016200029c565b9450620002fd604088016200029c565b93506200030d606088016200029c565b92506200031d608088016200029c565b915060a087015190509295509295509295565b60805161165062000353600039600081816102ab015261045f01526116506000f3fe608060405234801561001057600080fd5b50600436106101165760003560e01c806391d14854116100a2578063ca15c87311610071578063ca15c87314610202578063d539139314610215578063d547741f1461021d578063e63ab1e914610230578063ebc9bd3b1461023857610116565b806391d14854146101cc57806393c84007146101df5780639f77b7b3146101e7578063a217fddf146101fa57610116565b806336568abe116100e957806336568abe146101815780633f4ba83a146101945780635c975abb1461019c5780638456cb59146101a45780639010d07c146101ac57610116565b806301ffc9a71461011b578063248a9ca3146101445780632f2ff15d146101645780632f83a4a314610179575b600080fd5b61012e61012936600461117f565b610240565b60405161013b91906112a6565b60405180910390f35b61015761015236600461111b565b61026d565b60405161013b91906112b1565b610177610172366004611133565b610282565b005b6101576102a9565b61017761018f366004611133565b6102cd565b6101776102ef565b61012e610359565b610177610362565b6101bf6101ba36600461115e565b6103bc565b60405161013b9190611266565b61012e6101da366004611133565b6103dd565b610157610406565b6101776101f536600461105d565b61040b565b6101576105b4565b61015761021036600461111b565b6105b9565b6101576105d0565b61017761022b366004611133565b6105f4565b6101576105fe565b610157610622565b60006001600160e01b03198216635a05180f60e01b148061026557506102658261064b565b90505b919050565b60009081526020819052604090206001015490565b61028c8282610670565b60008281526001602052604090206102a49082610636565b505050565b7f000000000000000000000000000000000000000000000000000000000000000090565b6102d7828261068f565b60008281526001602052604090206102a490826106d1565b7f65d7a28e3265b37a6474929f336521b332c1681b933f6cb9f3376673440d862a6103218161031c6106e6565b6106ea565b610329610359565b61034e5760405162461bcd60e51b815260040161034590611344565b60405180910390fd5b61035661074e565b50565b60025460ff1690565b7f65d7a28e3265b37a6474929f336521b332c1681b933f6cb9f3376673440d862a61038f8161031c6106e6565b610397610359565b156103b45760405162461bcd60e51b815260040161034590611372565b6103566107bc565b60008281526001602052604081206103d49083610817565b90505b92915050565b6000918252602082815260408084206001600160a01b0393909316845291905290205460ff1690565b600181565b7f9f2df0fed2c77648de5860a4cc508cd0818c85b8b8a1ab4ceeef8d981c8956a66104388161031c6106e6565b610440610359565b1561045d5760405162461bcd60e51b815260040161034590611372565b7f00000000000000000000000000000000000000000000000000000000000000006006541061049e5760405162461bcd60e51b81526004016103459061139c565b6000805b84518110156105765760008582815181106104cd57634e487b7160e01b600052603260045260246000fd5b6020026020010151905060008583815181106104f957634e487b7160e01b600052603260045260246000fd5b6020026020010151905060005b8151811015610560576105408383838151811061053357634e487b7160e01b600052603260045260246000fd5b6020026020010151610823565b8461054a816115d3565b9550508080610558906115d3565b915050610506565b505050808061056e906115d3565b9150506104a2565b507f65f41458a2c91da70d04a12fa1bf14c0cbd4a7ad663ae79e3db9324a93fe15ff816040516105a691906112b1565b60405180910390a150505050565b600081565b600081815260016020526040812061026590610a5d565b7f9f2df0fed2c77648de5860a4cc508cd0818c85b8b8a1ab4ceeef8d981c8956a681565b6102d78282610a68565b7f65d7a28e3265b37a6474929f336521b332c1681b933f6cb9f3376673440d862a81565b60065490565b6106328282610a87565b5050565b60006103d4836001600160a01b038416610b0c565b60006001600160e01b03198216637965db0b60e01b1480610265575061026582610b56565b6106798261026d565b6106858161031c6106e6565b6102a48383610a87565b6106976106e6565b6001600160a01b0316816001600160a01b0316146106c75760405162461bcd60e51b8152600401610345906113ca565b6106328282610b6f565b60006103d4836001600160a01b038416610bf2565b3390565b6106f482826103dd565b6106325761070c816001600160a01b03166014610d09565b610717836020610d09565b6040516020016107289291906111f1565b60408051601f198184030181529082905262461bcd60e51b8252610345916004016112ba565b610756610359565b6107725760405162461bcd60e51b815260040161034590611344565b6002805460ff191690557f5db9ee0a495bf2e6ff9c91a7834c1ba4fdd244a5e8aa4e537bd38aeae4b073aa6107a56106e6565b6040516107b29190611266565b60405180910390a1565b6107c4610359565b156107e15760405162461bcd60e51b815260040161034590611372565b6002805460ff191660011790557f62e78cea01bee320cd4e420270b5ea74000d11b0c9f74754ebdbfc544b05a2586107a56106e6565b60006103d48383610ebb565b60055460405163d0def52160e01b81526000916001600160a01b03169063d0def52190610856908690869060040161127a565b602060405180830381600087803b15801561087057600080fd5b505af1158015610884573d6000803e3d6000fd5b505050506040513d601f19601f820116820180604052508101906108a891906111a7565b90506000604051806101a001604052806000815260200160008152602001600181526020016000815260200160008152602001600081526020016000815260200160008152602001604051806020016040528060008152508152602001600181526020016000815260200160001515815260200160058152509050600260019054906101000a90046001600160a01b03166001600160a01b0316637c5d3f4183836040518363ffffffff1660e01b8152600401610966929190611427565b600060405180830381600087803b15801561098057600080fd5b505af1158015610994573d6000803e3d6000fd5b5050600480546040516329348a8b60e11b81526001600160a01b039091169350635269151692506109ca91600191829101611419565b600060405180830381600087803b1580156109e457600080fd5b505af11580156109f8573d6000803e3d6000fd5b50505050600160066000828254610a0f919061153e565b92505081905550836001600160a01b03167fe3e9cb4c9675332e1e71c04808555c8071daa68327830cac01cc33d4087a64e983604051610a4f91906112b1565b60405180910390a250505050565b600061026582610f14565b610a718261026d565b610a7d8161031c6106e6565b6102a48383610b6f565b610a9182826103dd565b610632576000828152602081815260408083206001600160a01b03851684529091529020805460ff19166001179055610ac86106e6565b6001600160a01b0316816001600160a01b0316837f2f8788117e7eff1d82e926ec794901d17c78024a50270940304540a733656f0d60405160405180910390a45050565b6000610b188383610f18565b610b4e575081546001818101845560008481526020808220909301849055845484825282860190935260409020919091556103d7565b5060006103d7565b6001600160e01b031981166301ffc9a760e01b14919050565b610b7982826103dd565b15610632576000828152602081815260408083206001600160a01b03851684529091529020805460ff19169055610bae6106e6565b6001600160a01b0316816001600160a01b0316837ff6391f5c32d9c69d2a47ea670b442974b53935d1edc7fd64eb21e047a839171b60405160405180910390a45050565b60008181526001830160205260408120548015610cff576000610c16600183611575565b8554909150600090610c2a90600190611575565b90506000866000018281548110610c5157634e487b7160e01b600052603260045260246000fd5b9060005260206000200154905080876000018481548110610c8257634e487b7160e01b600052603260045260246000fd5b600091825260208083209091019290925582815260018901909152604090208490558654879080610cc357634e487b7160e01b600052603160045260246000fd5b600190038181906000526020600020016000905590558660010160008781526020019081526020016000206000905560019450505050506103d7565b60009150506103d7565b60606000610d18836002611556565b610d2390600261153e565b67ffffffffffffffff811115610d4957634e487b7160e01b600052604160045260246000fd5b6040519080825280601f01601f191660200182016040528015610d73576020820181803683370190505b509050600360fc1b81600081518110610d9c57634e487b7160e01b600052603260045260246000fd5b60200101906001600160f81b031916908160001a905350600f60fb1b81600181518110610dd957634e487b7160e01b600052603260045260246000fd5b60200101906001600160f81b031916908160001a9053506000610dfd846002611556565b610e0890600161153e565b90505b6001811115610e9c576f181899199a1a9b1b9c1cb0b131b232b360811b85600f1660108110610e4a57634e487b7160e01b600052603260045260246000fd5b1a60f81b828281518110610e6e57634e487b7160e01b600052603260045260246000fd5b60200101906001600160f81b031916908160001a90535060049490941c93610e95816115bc565b9050610e0b565b5083156103d45760405162461bcd60e51b81526004016103459061130f565b81546000908210610ede5760405162461bcd60e51b8152600401610345906112cd565b826000018281548110610f0157634e487b7160e01b600052603260045260246000fd5b9060005260206000200154905092915050565b5490565b60009081526001919091016020526040902054151590565b80356001600160a01b038116811461026857600080fd5b600082601f830112610f57578081fd5b610f69610f64833561151a565b6114f0565b82358152602080820191908401835b8535811015611052578135860187603f820112610f93578586fd5b6020810135610fa4610f648261151a565b818152602081019060408401895b8481101561103857813586018d605f820112610fcc578b8cfd5b604081013567ffffffffffffffff811115610fe957610fe9611604565b610ffc601f8201601f19166020016114f0565b8181528f6060838501011115611010578d8efd5b81606084016020830137602091810182018e9052865294850194929092019150600101610fb2565b505087525050602094850194929092019150600101610f78565b509095945050505050565b6000806040838503121561106f578182fd5b823567ffffffffffffffff80821115611086578384fd5b818501915085601f830112611099578384fd5b813560206110a9610f648361151a565b82815281810190858301838502870184018b10156110c5578889fd5b8896505b848710156110ee576110da81610f30565b8352600196909601959183019183016110c9565b5096505086013592505080821115611104578283fd5b5061111185828601610f47565b9150509250929050565b60006020828403121561112c578081fd5b5035919050565b60008060408385031215611145578182fd5b8235915061115560208401610f30565b90509250929050565b60008060408385031215611170578182fd5b50508035926020909101359150565b600060208284031215611190578081fd5b81356001600160e01b0319811681146103d4578182fd5b6000602082840312156111b8578081fd5b5051919050565b15159052565b600081518084526111dd81602086016020860161158c565b601f01601f19169290920160200192915050565b60007f416363657373436f6e74726f6c3a206163636f756e74200000000000000000008252835161122981601785016020880161158c565b7001034b99036b4b9b9b4b733903937b6329607d1b601791840191820152835161125a81602884016020880161158c565b01602801949350505050565b6001600160a01b0391909116815260200190565b6001600160a01b038316815260406020820181905260009061129e908301846111c5565b949350505050565b901515815260200190565b90815260200190565b6000602082526103d460208301846111c5565b60208082526022908201527f456e756d657261626c655365743a20696e646578206f7574206f6620626f756e604082015261647360f01b606082015260800190565b6020808252818101527f537472696e67733a20686578206c656e67746820696e73756666696369656e74604082015260600190565b60208082526014908201527314185d5cd8589b194e881b9bdd081c185d5cd95960621b604082015260600190565b60208082526010908201526f14185d5cd8589b194e881c185d5cd95960821b604082015260600190565b6020808252601490820152735347453a204e6f206d6f7265206d696e74696e6760601b604082015260600190565b6020808252602f908201527f416363657373436f6e74726f6c3a2063616e206f6e6c792072656e6f756e636560408201526e103937b632b9903337b91039b2b63360891b606082015260800190565b918252602082015260400190565b600083825260406020830152825160408301526020830151606083015260408301516080830152606083015160a0830152608083015160c083015260a083015160e083015260c0830151610100818185015260e0850151915061012082818601528186015192506101a0915061014082818701526114a96101e08701856111c5565b91870151610160878101919091529087015161018080880191909152908701519193506114d8838701836111bf565b808701516101c0870152505050809150509392505050565b60405181810167ffffffffffffffff8111828210171561151257611512611604565b604052919050565b600067ffffffffffffffff82111561153457611534611604565b5060209081020190565b60008219821115611551576115516115ee565b500190565b6000816000190483118215151615611570576115706115ee565b500290565b600082821015611587576115876115ee565b500390565b60005b838110156115a757818101518382015260200161158f565b838111156115b6576000848401525b50505050565b6000816115cb576115cb6115ee565b506000190190565b60006000198214156115e7576115e76115ee565b5060010190565b634e487b7160e01b600052601160045260246000fd5b634e487b7160e01b600052604160045260246000fdfea26469706673582212201380ba360f770a99607cb5d36240d2be5416fee86107eb88e581634d65fe2a9164736f6c63430008000033",
  "devdoc": {
    "kind": "dev",
    "methods": {
      "getRoleAdmin(bytes32)": {
        "details": "Returns the admin role that controls `role`. See {grantRole} and {revokeRole}. To change a role's admin, use {_setRoleAdmin}."
      },
      "getRoleMember(bytes32,uint256)": {
        "details": "Returns one of the accounts that have `role`. `index` must be a value between 0 and {getRoleMemberCount}, non-inclusive. Role bearers are not sorted in any particular way, and their ordering may change at any point. WARNING: When using {getRoleMember} and {getRoleMemberCount}, make sure you perform all queries on the same block. See the following https://forum.openzeppelin.com/t/iterating-over-elements-on-enumerableset-in-openzeppelin-contracts/2296[forum post] for more information."
      },
      "getRoleMemberCount(bytes32)": {
        "details": "Returns the number of accounts that have `role`. Can be used together with {getRoleMember} to enumerate all bearers of a role."
      },
      "grantRole(bytes32,address)": {
        "details": "Overload {grantRole} to track enumerable memberships"
      },
      "hasRole(bytes32,address)": {
        "details": "Returns `true` if `account` has been granted `role`."
      },
      "paused()": {
        "details": "Returns true if the contract is paused, and false otherwise."
      },
      "renounceRole(bytes32,address)": {
        "details": "Overload {renounceRole} to track enumerable memberships"
      },
      "revokeRole(bytes32,address)": {
        "details": "Overload {revokeRole} to track enumerable memberships"
      },
      "supportsInterface(bytes4)": {
        "details": "See {IERC165-supportsInterface}."
      }
    },
    "version": 1
  },
  "userdoc": {
    "kind": "user",
    "methods": {},
    "version": 1
  },
  "storageLayout": {
    "storage": [
      {
        "astId": 3496,
        "contract": "contracts/SGE.sol:SGE",
        "label": "_roles",
        "offset": 0,
        "slot": "0",
        "type": "t_mapping(t_bytes32,t_struct(RoleData)3491_storage)"
      },
      {
        "astId": 3837,
        "contract": "contracts/SGE.sol:SGE",
        "label": "_roleMembers",
        "offset": 0,
        "slot": "1",
        "type": "t_mapping(t_bytes32,t_struct(AddressSet)6916_storage)"
      },
      {
        "astId": 4009,
        "contract": "contracts/SGE.sol:SGE",
        "label": "_paused",
        "offset": 0,
        "slot": "2",
        "type": "t_bool"
      },
      {
        "astId": 12498,
        "contract": "contracts/SGE.sol:SGE",
        "label": "_state",
        "offset": 1,
        "slot": "2",
        "type": "t_contract(ISnookState)12114"
      },
      {
        "astId": 12501,
        "contract": "contracts/SGE.sol:SGE",
        "label": "_skinRewards",
        "offset": 0,
        "slot": "3",
        "type": "t_contract(ISkinRewards)11894"
      },
      {
        "astId": 12504,
        "contract": "contracts/SGE.sol:SGE",
        "label": "_afterdeath",
        "offset": 0,
        "slot": "4",
        "type": "t_contract(IAfterdeath)11584"
      },
      {
        "astId": 12507,
        "contract": "contracts/SGE.sol:SGE",
        "label": "_snook",
        "offset": 0,
        "slot": "5",
        "type": "t_contract(SnookToken)15588"
      },
      {
        "astId": 12509,
        "contract": "contracts/SGE.sol:SGE",
        "label": "_mintedCount",
        "offset": 0,
        "slot": "6",
        "type": "t_uint256"
      }
    ],
    "types": {
      "t_address": {
        "encoding": "inplace",
        "label": "address",
        "numberOfBytes": "20"
      },
      "t_array(t_bytes32)dyn_storage": {
        "base": "t_bytes32",
        "encoding": "dynamic_array",
        "label": "bytes32[]",
        "numberOfBytes": "32"
      },
      "t_bool": {
        "encoding": "inplace",
        "label": "bool",
        "numberOfBytes": "1"
      },
      "t_bytes32": {
        "encoding": "inplace",
        "label": "bytes32",
        "numberOfBytes": "32"
      },
      "t_contract(IAfterdeath)11584": {
        "encoding": "inplace",
        "label": "contract IAfterdeath",
        "numberOfBytes": "20"
      },
      "t_contract(ISkinRewards)11894": {
        "encoding": "inplace",
        "label": "contract ISkinRewards",
        "numberOfBytes": "20"
      },
      "t_contract(ISnookState)12114": {
        "encoding": "inplace",
        "label": "contract ISnookState",
        "numberOfBytes": "20"
      },
      "t_contract(SnookToken)15588": {
        "encoding": "inplace",
        "label": "contract SnookToken",
        "numberOfBytes": "20"
      },
      "t_mapping(t_address,t_bool)": {
        "encoding": "mapping",
        "key": "t_address",
        "label": "mapping(address => bool)",
        "numberOfBytes": "32",
        "value": "t_bool"
      },
      "t_mapping(t_bytes32,t_struct(AddressSet)6916_storage)": {
        "encoding": "mapping",
        "key": "t_bytes32",
        "label": "mapping(bytes32 => struct EnumerableSet.AddressSet)",
        "numberOfBytes": "32",
        "value": "t_struct(AddressSet)6916_storage"
      },
      "t_mapping(t_bytes32,t_struct(RoleData)3491_storage)": {
        "encoding": "mapping",
        "key": "t_bytes32",
        "label": "mapping(bytes32 => struct AccessControl.RoleData)",
        "numberOfBytes": "32",
        "value": "t_struct(RoleData)3491_storage"
      },
      "t_mapping(t_bytes32,t_uint256)": {
        "encoding": "mapping",
        "key": "t_bytes32",
        "label": "mapping(bytes32 => uint256)",
        "numberOfBytes": "32",
        "value": "t_uint256"
      },
      "t_struct(AddressSet)6916_storage": {
        "encoding": "inplace",
        "label": "struct EnumerableSet.AddressSet",
        "members": [
          {
            "astId": 6915,
            "contract": "contracts/SGE.sol:SGE",
            "label": "_inner",
            "offset": 0,
            "slot": "0",
            "type": "t_struct(Set)6641_storage"
          }
        ],
        "numberOfBytes": "64"
      },
      "t_struct(RoleData)3491_storage": {
        "encoding": "inplace",
        "label": "struct AccessControl.RoleData",
        "members": [
          {
            "astId": 3488,
            "contract": "contracts/SGE.sol:SGE",
            "label": "members",
            "offset": 0,
            "slot": "0",
            "type": "t_mapping(t_address,t_bool)"
          },
          {
            "astId": 3490,
            "contract": "contracts/SGE.sol:SGE",
            "label": "adminRole",
            "offset": 0,
            "slot": "1",
            "type": "t_bytes32"
          }
        ],
        "numberOfBytes": "64"
      },
      "t_struct(Set)6641_storage": {
        "encoding": "inplace",
        "label": "struct EnumerableSet.Set",
        "members": [
          {
            "astId": 6636,
            "contract": "contracts/SGE.sol:SGE",
            "label": "_values",
            "offset": 0,
            "slot": "0",
            "type": "t_array(t_bytes32)dyn_storage"
          },
          {
            "astId": 6640,
            "contract": "contracts/SGE.sol:SGE",
            "label": "_indexes",
            "offset": 0,
            "slot": "1",
            "type": "t_mapping(t_bytes32,t_uint256)"
          }
        ],
        "numberOfBytes": "64"
      },
      "t_uint256": {
        "encoding": "inplace",
        "label": "uint256",
        "numberOfBytes": "32"
      }
    }
  }
}