{
  "address": "0x7c7961C6669Bf3710D31bBd7fe42E4a9bBc17D67",
  "abi": [
    {
      "anonymous": false,
      "inputs": [
        {
          "indexed": true,
          "internalType": "address",
          "name": "owner",
          "type": "address"
        },
        {
          "indexed": true,
          "internalType": "address",
          "name": "approved",
          "type": "address"
        },
        {
          "indexed": true,
          "internalType": "uint256",
          "name": "tokenId",
          "type": "uint256"
        }
      ],
      "name": "Approval",
      "type": "event"
    },
    {
      "anonymous": false,
      "inputs": [
        {
          "indexed": true,
          "internalType": "address",
          "name": "owner",
          "type": "address"
        },
        {
          "indexed": true,
          "internalType": "address",
          "name": "operator",
          "type": "address"
        },
        {
          "indexed": false,
          "internalType": "bool",
          "name": "approved",
          "type": "bool"
        }
      ],
      "name": "ApprovalForAll",
      "type": "event"
    },
    {
      "anonymous": false,
      "inputs": [
        {
          "indexed": true,
          "internalType": "address",
          "name": "from",
          "type": "address"
        },
        {
          "indexed": false,
          "internalType": "uint256",
          "name": "tokenId",
          "type": "uint256"
        },
        {
          "indexed": false,
          "internalType": "bool",
          "name": "locked",
          "type": "bool"
        },
        {
          "indexed": false,
          "internalType": "string",
          "name": "reason",
          "type": "string"
        }
      ],
      "name": "Locked",
      "type": "event"
    },
    {
      "anonymous": false,
      "inputs": [
        {
          "indexed": true,
          "internalType": "address",
          "name": "previousOwner",
          "type": "address"
        },
        {
          "indexed": true,
          "internalType": "address",
          "name": "newOwner",
          "type": "address"
        }
      ],
      "name": "OwnershipTransferred",
      "type": "event"
    },
    {
      "anonymous": false,
      "inputs": [
        {
          "indexed": true,
          "internalType": "address",
          "name": "from",
          "type": "address"
        },
        {
          "indexed": true,
          "internalType": "address",
          "name": "to",
          "type": "address"
        },
        {
          "indexed": true,
          "internalType": "uint256",
          "name": "tokenId",
          "type": "uint256"
        }
      ],
      "name": "Transfer",
      "type": "event"
    },
    {
      "inputs": [
        {
          "internalType": "address",
          "name": "to",
          "type": "address"
        },
        {
          "internalType": "uint256",
          "name": "tokenId",
          "type": "uint256"
        }
      ],
      "name": "approve",
      "outputs": [],
      "stateMutability": "nonpayable",
      "type": "function"
    },
    {
      "inputs": [
        {
          "internalType": "address",
          "name": "owner",
          "type": "address"
        }
      ],
      "name": "balanceOf",
      "outputs": [
        {
          "internalType": "uint256",
          "name": "",
          "type": "uint256"
        }
      ],
      "stateMutability": "view",
      "type": "function"
    },
    {
      "inputs": [
        {
          "internalType": "uint256",
          "name": "tokenId",
          "type": "uint256"
        }
      ],
      "name": "burn",
      "outputs": [],
      "stateMutability": "nonpayable",
      "type": "function"
    },
    {
      "inputs": [
        {
          "internalType": "uint256",
          "name": "tokenId",
          "type": "uint256"
        }
      ],
      "name": "exists",
      "outputs": [
        {
          "internalType": "bool",
          "name": "",
          "type": "bool"
        }
      ],
      "stateMutability": "view",
      "type": "function"
    },
    {
      "inputs": [
        {
          "internalType": "uint256",
          "name": "tokenId",
          "type": "uint256"
        }
      ],
      "name": "getApproved",
      "outputs": [
        {
          "internalType": "address",
          "name": "",
          "type": "address"
        }
      ],
      "stateMutability": "view",
      "type": "function"
    },
    {
      "inputs": [
        {
          "internalType": "uint256",
          "name": "tokenId",
          "type": "uint256"
        }
      ],
      "name": "getKillerTokenId",
      "outputs": [
        {
          "internalType": "uint256",
          "name": "",
          "type": "uint256"
        }
      ],
      "stateMutability": "view",
      "type": "function"
    },
    {
      "inputs": [
        {
          "internalType": "address",
          "name": "game",
          "type": "address"
        },
        {
          "internalType": "address",
          "name": "afterdeath",
          "type": "address"
        },
        {
          "internalType": "string",
          "name": "tokenName",
          "type": "string"
        },
        {
          "internalType": "string",
          "name": "tokenSymbol",
          "type": "string"
        }
      ],
      "name": "initialize",
      "outputs": [],
      "stateMutability": "nonpayable",
      "type": "function"
    },
    {
      "inputs": [
        {
          "internalType": "address",
          "name": "marketplace",
          "type": "address"
        }
      ],
      "name": "initialize3",
      "outputs": [],
      "stateMutability": "nonpayable",
      "type": "function"
    },
    {
      "inputs": [
        {
          "internalType": "address",
          "name": "owner",
          "type": "address"
        },
        {
          "internalType": "address",
          "name": "operator",
          "type": "address"
        }
      ],
      "name": "isApprovedForAll",
      "outputs": [
        {
          "internalType": "bool",
          "name": "",
          "type": "bool"
        }
      ],
      "stateMutability": "view",
      "type": "function"
    },
    {
      "inputs": [
        {
          "internalType": "uint256",
          "name": "tokenId",
          "type": "uint256"
        }
      ],
      "name": "isLocked",
      "outputs": [
        {
          "internalType": "bool",
          "name": "",
          "type": "bool"
        }
      ],
      "stateMutability": "view",
      "type": "function"
    },
    {
      "inputs": [
        {
          "internalType": "uint256",
          "name": "tokenId",
          "type": "uint256"
        },
        {
          "internalType": "bool",
          "name": "on",
          "type": "bool"
        },
        {
          "internalType": "string",
          "name": "reason",
          "type": "string"
        }
      ],
      "name": "lock",
      "outputs": [],
      "stateMutability": "nonpayable",
      "type": "function"
    },
    {
      "inputs": [
        {
          "internalType": "address",
          "name": "to",
          "type": "address"
        },
        {
          "internalType": "string",
          "name": "tokenURI_",
          "type": "string"
        }
      ],
      "name": "mint",
      "outputs": [
        {
          "internalType": "uint256",
          "name": "",
          "type": "uint256"
        }
      ],
      "stateMutability": "nonpayable",
      "type": "function"
    },
    {
      "inputs": [
        {
          "internalType": "address",
          "name": "to",
          "type": "address"
        },
        {
          "internalType": "string[]",
          "name": "tokenURIs",
          "type": "string[]"
        }
      ],
      "name": "multimint",
      "outputs": [
        {
          "internalType": "uint256[]",
          "name": "",
          "type": "uint256[]"
        }
      ],
      "stateMutability": "nonpayable",
      "type": "function"
    },
    {
      "inputs": [],
      "name": "name",
      "outputs": [
        {
          "internalType": "string",
          "name": "",
          "type": "string"
        }
      ],
      "stateMutability": "view",
      "type": "function"
    },
    {
      "inputs": [],
      "name": "owner",
      "outputs": [
        {
          "internalType": "address",
          "name": "",
          "type": "address"
        }
      ],
      "stateMutability": "view",
      "type": "function"
    },
    {
      "inputs": [
        {
          "internalType": "uint256",
          "name": "tokenId",
          "type": "uint256"
        }
      ],
      "name": "ownerOf",
      "outputs": [
        {
          "internalType": "address",
          "name": "",
          "type": "address"
        }
      ],
      "stateMutability": "view",
      "type": "function"
    },
    {
      "inputs": [],
      "name": "renounceOwnership",
      "outputs": [],
      "stateMutability": "nonpayable",
      "type": "function"
    },
    {
      "inputs": [
        {
          "internalType": "address",
          "name": "from",
          "type": "address"
        },
        {
          "internalType": "address",
          "name": "to",
          "type": "address"
        },
        {
          "internalType": "uint256",
          "name": "tokenId",
          "type": "uint256"
        }
      ],
      "name": "safeTransferFrom",
      "outputs": [],
      "stateMutability": "nonpayable",
      "type": "function"
    },
    {
      "inputs": [
        {
          "internalType": "address",
          "name": "from",
          "type": "address"
        },
        {
          "internalType": "address",
          "name": "to",
          "type": "address"
        },
        {
          "internalType": "uint256",
          "name": "tokenId",
          "type": "uint256"
        },
        {
          "internalType": "bytes",
          "name": "_data",
          "type": "bytes"
        }
      ],
      "name": "safeTransferFrom",
      "outputs": [],
      "stateMutability": "nonpayable",
      "type": "function"
    },
    {
      "inputs": [
        {
          "internalType": "address",
          "name": "operator",
          "type": "address"
        },
        {
          "internalType": "bool",
          "name": "approved",
          "type": "bool"
        }
      ],
      "name": "setApprovalForAll",
      "outputs": [],
      "stateMutability": "nonpayable",
      "type": "function"
    },
    {
      "inputs": [
        {
          "internalType": "uint256",
          "name": "tokenId",
          "type": "uint256"
        },
        {
          "internalType": "uint256",
          "name": "killerTokenId",
          "type": "uint256"
        }
      ],
      "name": "setKillerTokenId",
      "outputs": [],
      "stateMutability": "nonpayable",
      "type": "function"
    },
    {
      "inputs": [
        {
          "internalType": "uint256",
          "name": "tokenId",
          "type": "uint256"
        },
        {
          "internalType": "string",
          "name": "tokenURI_",
          "type": "string"
        }
      ],
      "name": "setTokenURI",
      "outputs": [],
      "stateMutability": "nonpayable",
      "type": "function"
    },
    {
      "inputs": [
        {
          "internalType": "bytes4",
          "name": "interfaceId",
          "type": "bytes4"
        }
      ],
      "name": "supportsInterface",
      "outputs": [
        {
          "internalType": "bool",
          "name": "",
          "type": "bool"
        }
      ],
      "stateMutability": "view",
      "type": "function"
    },
    {
      "inputs": [],
      "name": "symbol",
      "outputs": [
        {
          "internalType": "string",
          "name": "",
          "type": "string"
        }
      ],
      "stateMutability": "view",
      "type": "function"
    },
    {
      "inputs": [
        {
          "internalType": "uint256",
          "name": "index",
          "type": "uint256"
        }
      ],
      "name": "tokenByIndex",
      "outputs": [
        {
          "internalType": "uint256",
          "name": "",
          "type": "uint256"
        }
      ],
      "stateMutability": "view",
      "type": "function"
    },
    {
      "inputs": [
        {
          "internalType": "address",
          "name": "owner",
          "type": "address"
        },
        {
          "internalType": "uint256",
          "name": "index",
          "type": "uint256"
        }
      ],
      "name": "tokenOfOwnerByIndex",
      "outputs": [
        {
          "internalType": "uint256",
          "name": "",
          "type": "uint256"
        }
      ],
      "stateMutability": "view",
      "type": "function"
    },
    {
      "inputs": [
        {
          "internalType": "uint256",
          "name": "tokenId",
          "type": "uint256"
        }
      ],
      "name": "tokenURI",
      "outputs": [
        {
          "internalType": "string",
          "name": "",
          "type": "string"
        }
      ],
      "stateMutability": "view",
      "type": "function"
    },
    {
      "inputs": [],
      "name": "totalSupply",
      "outputs": [
        {
          "internalType": "uint256",
          "name": "",
          "type": "uint256"
        }
      ],
      "stateMutability": "view",
      "type": "function"
    },
    {
      "inputs": [
        {
          "internalType": "address",
          "name": "from",
          "type": "address"
        },
        {
          "internalType": "address",
          "name": "to",
          "type": "address"
        },
        {
          "internalType": "uint256",
          "name": "tokenId",
          "type": "uint256"
        }
      ],
      "name": "transferFrom",
      "outputs": [],
      "stateMutability": "nonpayable",
      "type": "function"
    },
    {
      "inputs": [
        {
          "internalType": "address",
          "name": "newOwner",
          "type": "address"
        }
      ],
      "name": "transferOwnership",
      "outputs": [],
      "stateMutability": "nonpayable",
      "type": "function"
    }
  ],
  "transactionHash": "0x58a9db3d1c4296917965828d07c0d0b0e9f1913ede087e9758139f852e097583",
  "args": [],
  "solcInputHash": "19063bf12242da398d63933e0596727b",
  "bytecode": "0x608060405234801561001057600080fd5b50612a4e806100206000396000f3fe608060405234801561001057600080fd5b50600436106101da5760003560e01c806370a0823111610104578063c87b56dd116100a2578063efc7cf2611610071578063efc7cf26146103d5578063f24d5aeb146103e8578063f2fde38b14610408578063f6aacfb11461041b576101da565b8063c87b56dd14610389578063d0def5211461039c578063d9a8536b146103af578063e985e9c5146103c2576101da565b806395d89b41116100de57806395d89b4114610348578063a22cb46514610350578063b88d4fde14610363578063bfbf01d714610376576101da565b806370a0823114610325578063715018a6146103385780638da5cb5b14610340576101da565b80632016a0d21161017c57806342966c681161014b57806342966c68146102d95780634f558e79146102ec5780634f6ccce7146102ff5780636352211e14610312576101da565b80632016a0d21461028d57806323b872dd146102a05780632f745c59146102b357806342842e0e146102c6576101da565b8063095ea7b3116101b8578063095ea7b31461023d578063111b2da114610252578063162094c41461026557806318160ddd14610278576101da565b806301ffc9a7146101df57806306fdde0314610208578063081812fc1461021d575b600080fd5b6101f26101ed366004612022565b61042e565b6040516101ff91906121f7565b60405180910390f35b610210610441565b6040516101ff9190612202565b61023061022b36600461205a565b6104d3565b6040516101ff9190612162565b61025061024b366004611ff9565b61051f565b005b6102506102603660046120f6565b6105b7565b6102506102733660046120c7565b610621565b6102806106bd565b6040516101ff91906128d2565b61025061029b366004611dda565b6106c3565b6102506102ae366004611e5c565b610790565b6102806102c1366004611ff9565b6107c8565b6102506102d4366004611e5c565b61081a565b6102506102e736600461205a565b610835565b6101f26102fa36600461205a565b610898565b61028061030d36600461205a565b6108a3565b61023061032036600461205a565b6108fe565b610280610333366004611d8e565b610933565b610250610977565b610230610a00565b610210610a0f565b61025061035e366004611f84565b610a1e565b610250610371366004611e97565b610aec565b610250610384366004612072565b610b2b565b61021061039736600461205a565b610bef565b6102806103aa366004611fad565b610cb5565b6102506103bd366004611d8e565b610d44565b6101f26103d0366004611da8565b610d91565b6102806103e336600461205a565b610dbf565b6103fb6103f6366004611f04565b610dfa565b6040516101ff91906121b3565b610250610416366004611d8e565b610f6a565b6101f261042936600461205a565b61102b565b60006104398261106e565b90505b919050565b60606065805461045090612980565b80601f016020809104026020016040519081016040528092919081815260200182805461047c90612980565b80156104c95780601f1061049e576101008083540402835291602001916104c9565b820191906000526020600020905b8154815290600101906020018083116104ac57829003601f168201915b5050505050905090565b60006104de82611093565b6105035760405162461bcd60e51b81526004016104fa906125d5565b60405180910390fd5b506000908152606960205260409020546001600160a01b031690565b600061052a826108fe565b9050806001600160a01b0316836001600160a01b0316141561055e5760405162461bcd60e51b81526004016104fa90612771565b806001600160a01b03166105706110b0565b6001600160a01b0316148061058c575061058c816103d06110b0565b6105a85760405162461bcd60e51b81526004016104fa906123f6565b6105b283836110b4565b505050565b610130546001600160a01b03163314806105dc5750610131546001600160a01b031633145b806105f25750610136546001600160a01b031633145b61060e5760405162461bcd60e51b81526004016104fa9061284f565b6000918252610135602052604090912055565b610130546001600160a01b03163314806106465750610131546001600160a01b031633145b8061065c5750610136546001600160a01b031633145b6106785760405162461bcd60e51b81526004016104fa9061284f565b61068182611093565b61069d5760405162461bcd60e51b81526004016104fa90612621565b600082815261012e6020908152604090912082516105b292840190611c3f565b60cb5490565b600054610100900460ff16806106dc575060005460ff16155b6106f85760405162461bcd60e51b81526004016104fa906124e6565b600054610100900460ff16158015610723576000805460ff1961ff0019909116610100171660011790555b61072d8383611122565b6107356111b2565b61073d6111b2565b61074561123e565b61013080546001600160a01b038088166001600160a01b0319928316179092556101318054928716929091169190911790558015610789576000805461ff00191690555b5050505050565b6107a161079b6110b0565b826112ae565b6107bd5760405162461bcd60e51b81526004016104fa906127b2565b6105b2838383611333565b60006107d383610933565b82106107f15760405162461bcd60e51b81526004016104fa90612215565b506001600160a01b0391909116600090815260c960209081526040808320938352929052205490565b6105b283838360405180602001604052806000815250610aec565b610130546001600160a01b031633148061085a5750610131546001600160a01b031633145b806108705750610136546001600160a01b031633145b61088c5760405162461bcd60e51b81526004016104fa9061284f565b61089581611460565b50565b600061043982611093565b60006108ad6106bd565b82106108cb5760405162461bcd60e51b81526004016104fa90612803565b60cb82815481106108ec57634e487b7160e01b600052603260045260246000fd5b90600052602060002001549050919050565b6000818152606760205260408120546001600160a01b0316806104395760405162461bcd60e51b81526004016104fa9061249d565b60006001600160a01b03821661095b5760405162461bcd60e51b81526004016104fa90612453565b506001600160a01b031660009081526068602052604090205490565b61097f6110b0565b6001600160a01b0316610990610a00565b6001600160a01b0316146109b65760405162461bcd60e51b81526004016104fa9061266d565b60fb546040516000916001600160a01b0316907f8be0079c531659141344cd1fd0a4f28419497f9722a3daafe3b4186f6b6457e0908390a360fb80546001600160a01b0319169055565b60fb546001600160a01b031690565b60606066805461045090612980565b610a266110b0565b6001600160a01b0316826001600160a01b03161415610a575760405162461bcd60e51b81526004016104fa90612373565b80606a6000610a646110b0565b6001600160a01b03908116825260208083019390935260409182016000908120918716808252919093529120805460ff191692151592909217909155610aa86110b0565b6001600160a01b03167f17307eab39ab6107e8899845ad3d59bd9653f200f220920489ca2b5937696c3183604051610ae091906121f7565b60405180910390a35050565b610afd610af76110b0565b836112ae565b610b195760405162461bcd60e51b81526004016104fa906127b2565b610b2584848484611507565b50505050565b610130546001600160a01b0316331480610b505750610131546001600160a01b031633145b80610b665750610136546001600160a01b031633145b610b825760405162461bcd60e51b81526004016104fa9061284f565b600083815261012f60205260409020805460ff1916831515179055610ba6836108fe565b6001600160a01b03167f9b1f32b2ac6053f6fae289edfb73a7ac908cd2eae6cf05f6122e8658c927bb7d848484604051610be2939291906128db565b60405180910390a2505050565b6060610bfa82611093565b610c165760405162461bcd60e51b81526004016104fa90612722565b600082815261012e602052604090208054610c3090612980565b80601f0160208091040260200160405190810160405280929190818152602001828054610c5c90612980565b8015610ca95780601f10610c7e57610100808354040283529160200191610ca9565b820191906000526020600020905b815481529060010190602001808311610c8c57829003601f168201915b50505050509050919050565b610130546000906001600160a01b0316331480610cdd5750610131546001600160a01b031633145b80610cf35750610136546001600160a01b031633145b610d0f5760405162461bcd60e51b81526004016104fa9061284f565b610d1a61012d61153a565b6000610d2761012d611543565b9050610d338482611547565b610d3d8184610621565b9392505050565b610136546001600160a01b031615610d6e5760405162461bcd60e51b81526004016104fa90612534565b61013680546001600160a01b0319166001600160a01b0392909216919091179055565b6001600160a01b039182166000908152606a6020908152604080832093909416825291909152205460ff1690565b6000610dca82611093565b610de65760405162461bcd60e51b81526004016104fa906125a0565b506000908152610135602052604090205490565b610130546060906001600160a01b0316331480610e225750610131546001600160a01b031633145b80610e385750610136546001600160a01b031633145b610e545760405162461bcd60e51b81526004016104fa9061284f565b60008267ffffffffffffffff811115610e7d57634e487b7160e01b600052604160045260246000fd5b604051908082528060200260200182016040528015610ea6578160200160208202803683370190505b50905060005b83811015610f6157610f2486868684818110610ed857634e487b7160e01b600052603260045260246000fd5b9050602002810190610eea9190612905565b8080601f016020809104026020016040519081016040528093929190818152602001838380828437600092019190915250610cb592505050565b828281518110610f4457634e487b7160e01b600052603260045260246000fd5b602090810291909101015280610f59816129bb565b915050610eac565b50949350505050565b610f726110b0565b6001600160a01b0316610f83610a00565b6001600160a01b031614610fa95760405162461bcd60e51b81526004016104fa9061266d565b6001600160a01b038116610fcf5760405162461bcd60e51b81526004016104fa906122b2565b60fb546040516001600160a01b038084169216907f8be0079c531659141344cd1fd0a4f28419497f9722a3daafe3b4186f6b6457e090600090a360fb80546001600160a01b0319166001600160a01b0392909216919091179055565b600061103682611093565b15156001146110575760405162461bcd60e51b81526004016104fa90612886565b50600090815261012f602052604090205460ff1690565b60006001600160e01b0319821663780e9d6360e01b1480610439575061043982611626565b6000908152606760205260409020546001600160a01b0316151590565b3390565b600081815260696020526040902080546001600160a01b0319166001600160a01b03841690811790915581906110e9826108fe565b6001600160a01b03167f8c5be1e5ebec7d5bd14f71427d1e84f3dd0314c0f7b2291e5b200ac8c7c3b92560405160405180910390a45050565b600054610100900460ff168061113b575060005460ff16155b6111575760405162461bcd60e51b81526004016104fa906124e6565b600054610100900460ff16158015611182576000805460ff1961ff0019909116610100171660011790555b61118a611666565b611192611666565b61119c83836116d9565b80156105b2576000805461ff0019169055505050565b600054610100900460ff16806111cb575060005460ff16155b6111e75760405162461bcd60e51b81526004016104fa906124e6565b600054610100900460ff16158015611212576000805460ff1961ff0019909116610100171660011790555b61121a611666565b611222611666565b61122a611666565b8015610895576000805461ff001916905550565b600054610100900460ff1680611257575060005460ff16155b6112735760405162461bcd60e51b81526004016104fa906124e6565b600054610100900460ff1615801561129e576000805460ff1961ff0019909116610100171660011790555b6112a6611666565b61122a611777565b60006112b982611093565b6112d55760405162461bcd60e51b81526004016104fa906123aa565b60006112e0836108fe565b9050806001600160a01b0316846001600160a01b0316148061131b5750836001600160a01b0316611310846104d3565b6001600160a01b0316145b8061132b575061132b8185610d91565b949350505050565b826001600160a01b0316611346826108fe565b6001600160a01b03161461136c5760405162461bcd60e51b81526004016104fa906126a2565b6001600160a01b0382166113925760405162461bcd60e51b81526004016104fa9061232f565b61139d838383611843565b6113a86000826110b4565b6001600160a01b03831660009081526068602052604081208054600192906113d1908490612969565b90915550506001600160a01b03821660009081526068602052604081208054600192906113ff908490612951565b909155505060008181526067602052604080822080546001600160a01b0319166001600160a01b0386811691821790925591518493918716917fddf252ad1be2c89b69c2b068fc378daa952ba7f163c4a11628f55a4df523b3ef91a4505050565b600061146b826108fe565b905061147981600084611843565b6114846000836110b4565b6001600160a01b03811660009081526068602052604081208054600192906114ad908490612969565b909155505060008281526067602052604080822080546001600160a01b0319169055518391906001600160a01b038416907fddf252ad1be2c89b69c2b068fc378daa952ba7f163c4a11628f55a4df523b3ef908390a45050565b611512848484611333565b61151e8484848461187e565b610b255760405162461bcd60e51b81526004016104fa90612260565b80546001019055565b5490565b6001600160a01b03821661156d5760405162461bcd60e51b81526004016104fa9061256b565b61157681611093565b156115935760405162461bcd60e51b81526004016104fa906122f8565b61159f60008383611843565b6001600160a01b03821660009081526068602052604081208054600192906115c8908490612951565b909155505060008181526067602052604080822080546001600160a01b0319166001600160a01b03861690811790915590518392907fddf252ad1be2c89b69c2b068fc378daa952ba7f163c4a11628f55a4df523b3ef908290a45050565b60006001600160e01b031982166380ac58cd60e01b148061165757506001600160e01b03198216635b5e139f60e01b145b80610439575061043982611999565b600054610100900460ff168061167f575060005460ff16155b61169b5760405162461bcd60e51b81526004016104fa906124e6565b600054610100900460ff1615801561122a576000805460ff1961ff0019909116610100171660011790558015610895576000805461ff001916905550565b600054610100900460ff16806116f2575060005460ff16155b61170e5760405162461bcd60e51b81526004016104fa906124e6565b600054610100900460ff16158015611739576000805460ff1961ff0019909116610100171660011790555b825161174c906065906020860190611c3f565b508151611760906066906020850190611c3f565b5080156105b2576000805461ff0019169055505050565b600054610100900460ff1680611790575060005460ff16155b6117ac5760405162461bcd60e51b81526004016104fa906124e6565b600054610100900460ff161580156117d7576000805460ff1961ff0019909116610100171660011790555b60006117e16110b0565b60fb80546001600160a01b0319166001600160a01b038316908117909155604051919250906000907f8be0079c531659141344cd1fd0a4f28419497f9722a3daafe3b4186f6b6457e0908290a3508015610895576000805461ff001916905550565b61184e8383836119b2565b600081815261012f602052604090205460ff16156105b25760405162461bcd60e51b81526004016104fa906126eb565b6000611892846001600160a01b0316611a3b565b1561198e57836001600160a01b031663150b7a026118ae6110b0565b8786866040518563ffffffff1660e01b81526004016118d09493929190612176565b602060405180830381600087803b1580156118ea57600080fd5b505af192505050801561191a575060408051601f3d908101601f191682019092526119179181019061203e565b60015b611974573d808015611948576040519150601f19603f3d011682016040523d82523d6000602084013e61194d565b606091505b50805161196c5760405162461bcd60e51b81526004016104fa90612260565b805181602001fd5b6001600160e01b031916630a85bd0160e11b14905061132b565b506001949350505050565b6001600160e01b031981166301ffc9a760e01b14919050565b6119bd8383836105b2565b6001600160a01b0383166119d9576119d481611a41565b6119fc565b816001600160a01b0316836001600160a01b0316146119fc576119fc8382611a85565b6001600160a01b038216611a1857611a1381611b22565b6105b2565b826001600160a01b0316826001600160a01b0316146105b2576105b28282611bfb565b3b151590565b60cb8054600083815260cc60205260408120829055600182018355919091527fa7ce836d032b2bf62b7e2097a8e0a6d8aeb35405ad15271e96d3b0188a1d06fb0155565b60006001611a9284610933565b611a9c9190612969565b600083815260ca6020526040902054909150808214611aef576001600160a01b038416600090815260c960209081526040808320858452825280832054848452818420819055835260ca90915290208190555b50600091825260ca602090815260408084208490556001600160a01b03909416835260c981528383209183525290812055565b60cb54600090611b3490600190612969565b600083815260cc602052604081205460cb8054939450909284908110611b6a57634e487b7160e01b600052603260045260246000fd5b906000526020600020015490508060cb8381548110611b9957634e487b7160e01b600052603260045260246000fd5b600091825260208083209091019290925582815260cc909152604080822084905585825281205560cb805480611bdf57634e487b7160e01b600052603160045260246000fd5b6001900381819060005260206000200160009055905550505050565b6000611c0683610933565b6001600160a01b03909316600090815260c960209081526040808320868452825280832085905593825260ca9052919091209190915550565b828054611c4b90612980565b90600052602060002090601f016020900481019282611c6d5760008555611cb3565b82601f10611c8657805160ff1916838001178555611cb3565b82800160010185558215611cb3579182015b82811115611cb3578251825591602001919060010190611c98565b50611cbf929150611cc3565b5090565b5b80821115611cbf5760008155600101611cc4565b600067ffffffffffffffff80841115611cf357611cf36129ec565b604051601f8501601f191681016020018281118282101715611d1757611d176129ec565b604052848152915081838501861015611d2f57600080fd5b8484602083013760006020868301015250509392505050565b80356001600160a01b038116811461043c57600080fd5b8035801515811461043c57600080fd5b600082601f830112611d7f578081fd5b610d3d83833560208501611cd8565b600060208284031215611d9f578081fd5b610d3d82611d48565b60008060408385031215611dba578081fd5b611dc383611d48565b9150611dd160208401611d48565b90509250929050565b60008060008060808587031215611def578182fd5b611df885611d48565b9350611e0660208601611d48565b9250604085013567ffffffffffffffff80821115611e22578384fd5b611e2e88838901611d6f565b93506060870135915080821115611e43578283fd5b50611e5087828801611d6f565b91505092959194509250565b600080600060608486031215611e70578283fd5b611e7984611d48565b9250611e8760208501611d48565b9150604084013590509250925092565b60008060008060808587031215611eac578384fd5b611eb585611d48565b9350611ec360208601611d48565b925060408501359150606085013567ffffffffffffffff811115611ee5578182fd5b8501601f81018713611ef5578182fd5b611e5087823560208401611cd8565b600080600060408486031215611f18578283fd5b611f2184611d48565b9250602084013567ffffffffffffffff80821115611f3d578384fd5b818601915086601f830112611f50578384fd5b813581811115611f5e578485fd5b8760208083028501011115611f71578485fd5b6020830194508093505050509250925092565b60008060408385031215611f96578182fd5b611f9f83611d48565b9150611dd160208401611d5f565b60008060408385031215611fbf578182fd5b611fc883611d48565b9150602083013567ffffffffffffffff811115611fe3578182fd5b611fef85828601611d6f565b9150509250929050565b6000806040838503121561200b578182fd5b61201483611d48565b946020939093013593505050565b600060208284031215612033578081fd5b8135610d3d81612a02565b60006020828403121561204f578081fd5b8151610d3d81612a02565b60006020828403121561206b578081fd5b5035919050565b600080600060608486031215612086578081fd5b8335925061209660208501611d5f565b9150604084013567ffffffffffffffff8111156120b1578182fd5b6120bd86828701611d6f565b9150509250925092565b600080604083850312156120d9578182fd5b82359150602083013567ffffffffffffffff811115611fe3578182fd5b60008060408385031215612108578182fd5b50508035926020909101359150565b60008151808452815b8181101561213c57602081850181015186830182015201612120565b8181111561214d5782602083870101525b50601f01601f19169290920160200192915050565b6001600160a01b0391909116815260200190565b6001600160a01b03858116825284166020820152604081018390526080606082018190526000906121a990830184612117565b9695505050505050565b6020808252825182820181905260009190848201906040850190845b818110156121eb578351835292840192918401916001016121cf565b50909695505050505050565b901515815260200190565b600060208252610d3d6020830184612117565b6020808252602b908201527f455243373231456e756d657261626c653a206f776e657220696e646578206f7560408201526a74206f6620626f756e647360a81b606082015260800190565b60208082526032908201527f4552433732313a207472616e7366657220746f206e6f6e20455243373231526560408201527131b2b4bb32b91034b6b83632b6b2b73a32b960711b606082015260800190565b60208082526026908201527f4f776e61626c653a206e6577206f776e657220697320746865207a65726f206160408201526564647265737360d01b606082015260800190565b6020808252601c908201527f4552433732313a20746f6b656e20616c7265616479206d696e74656400000000604082015260600190565b60208082526024908201527f4552433732313a207472616e7366657220746f20746865207a65726f206164646040820152637265737360e01b606082015260800190565b60208082526019908201527f4552433732313a20617070726f766520746f2063616c6c657200000000000000604082015260600190565b6020808252602c908201527f4552433732313a206f70657261746f7220717565727920666f72206e6f6e657860408201526b34b9ba32b73a103a37b5b2b760a11b606082015260800190565b60208082526038908201527f4552433732313a20617070726f76652063616c6c6572206973206e6f74206f7760408201527f6e6572206e6f7220617070726f76656420666f7220616c6c0000000000000000606082015260800190565b6020808252602a908201527f4552433732313a2062616c616e636520717565727920666f7220746865207a65604082015269726f206164647265737360b01b606082015260800190565b60208082526029908201527f4552433732313a206f776e657220717565727920666f72206e6f6e657869737460408201526832b73a103a37b5b2b760b91b606082015260800190565b6020808252602e908201527f496e697469616c697a61626c653a20636f6e747261637420697320616c72656160408201526d191e481a5b9a5d1a585b1a5e995960921b606082015260800190565b6020808252601f908201527f536e6f6f6b546f6b656e3a20616c726561647920696e697469616c697a656400604082015260600190565b6020808252818101527f4552433732313a206d696e7420746f20746865207a65726f2061646472657373604082015260600190565b6020808252818101527f536e6f6f6b546f6b656e3a20746f6b656e20646f6573206e6f74206578697374604082015260600190565b6020808252602c908201527f4552433732313a20617070726f76656420717565727920666f72206e6f6e657860408201526b34b9ba32b73a103a37b5b2b760a11b606082015260800190565b6020808252602c908201527f4552433732314d657461646174613a2055524920736574206f66206e6f6e657860408201526b34b9ba32b73a103a37b5b2b760a11b606082015260800190565b6020808252818101527f4f776e61626c653a2063616c6c6572206973206e6f7420746865206f776e6572604082015260600190565b60208082526029908201527f4552433732313a207472616e73666572206f6620746f6b656e2074686174206960408201526839903737ba1037bbb760b91b606082015260800190565b6020808252601b908201527f536e6f6f6b546f6b656e3a20546f6b656e206973206c6f636b65640000000000604082015260600190565b6020808252602f908201527f4552433732314d657461646174613a2055524920717565727920666f72206e6f60408201526e3732bc34b9ba32b73a103a37b5b2b760891b606082015260800190565b60208082526021908201527f4552433732313a20617070726f76616c20746f2063757272656e74206f776e656040820152603960f91b606082015260800190565b60208082526031908201527f4552433732313a207472616e736665722063616c6c6572206973206e6f74206f6040820152701ddb995c881b9bdc88185c1c1c9bdd9959607a1b606082015260800190565b6020808252602c908201527f455243373231456e756d657261626c653a20676c6f62616c20696e646578206f60408201526b7574206f6620626f756e647360a01b606082015260800190565b6020808252601e908201527f536e6f6f6b546f6b656e3a204e6f742067616d6520636f6e7472616374730000604082015260600190565b6020808252602c908201527f4552433732313a2069734c6f636b656420717565727920666f72206e6f6e657860408201526b34b9ba32b73a103a37b5b2b760a11b606082015260800190565b90815260200190565b60008482528315156020830152606060408301526128fc6060830184612117565b95945050505050565b6000808335601e1984360301811261291b578283fd5b83018035915067ffffffffffffffff821115612935578283fd5b60200191503681900382131561294a57600080fd5b9250929050565b60008219821115612964576129646129d6565b500190565b60008282101561297b5761297b6129d6565b500390565b60028104600182168061299457607f821691505b602082108114156129b557634e487b7160e01b600052602260045260246000fd5b50919050565b60006000198214156129cf576129cf6129d6565b5060010190565b634e487b7160e01b600052601160045260246000fd5b634e487b7160e01b600052604160045260246000fd5b6001600160e01b03198116811461089557600080fdfea2646970667358221220fd03969fdd4bfef2b71a0acad4a58c99e9929d4902532d16d0c748d44625864764736f6c63430008000033",
  "devdoc": {
    "kind": "dev",
    "methods": {
      "approve(address,uint256)": {
        "details": "See {IERC721-approve}."
      },
      "balanceOf(address)": {
        "details": "See {IERC721-balanceOf}."
      },
      "burn(uint256)": {
        "details": "Burns `tokenId`. See {ERC721-_burn}. Requirements: - The caller must own `tokenId` or be an approved operator."
      },
      "getApproved(uint256)": {
        "details": "See {IERC721-getApproved}."
      },
      "isApprovedForAll(address,address)": {
        "details": "See {IERC721-isApprovedForAll}."
      },
      "name()": {
        "details": "See {IERC721Metadata-name}."
      },
      "owner()": {
        "details": "Returns the address of the current owner."
      },
      "ownerOf(uint256)": {
        "details": "See {IERC721-ownerOf}."
      },
      "renounceOwnership()": {
        "details": "Leaves the contract without owner. It will not be possible to call `onlyOwner` functions anymore. Can only be called by the current owner. NOTE: Renouncing ownership will leave the contract without an owner, thereby removing any functionality that is only available to the owner."
      },
      "safeTransferFrom(address,address,uint256)": {
        "details": "See {IERC721-safeTransferFrom}."
      },
      "safeTransferFrom(address,address,uint256,bytes)": {
        "details": "See {IERC721-safeTransferFrom}."
      },
      "setApprovalForAll(address,bool)": {
        "details": "See {IERC721-setApprovalForAll}."
      },
      "symbol()": {
        "details": "See {IERC721Metadata-symbol}."
      },
      "tokenByIndex(uint256)": {
        "details": "See {IERC721Enumerable-tokenByIndex}."
      },
      "tokenOfOwnerByIndex(address,uint256)": {
        "details": "See {IERC721Enumerable-tokenOfOwnerByIndex}."
      },
      "tokenURI(uint256)": {
        "details": "See {IERC721Metadata-tokenURI}."
      },
      "totalSupply()": {
        "details": "See {IERC721Enumerable-totalSupply}."
      },
      "transferFrom(address,address,uint256)": {
        "details": "See {IERC721-transferFrom}."
      },
      "transferOwnership(address)": {
        "details": "Transfers ownership of the contract to a new account (`newOwner`). Can only be called by the current owner."
      }
    },
    "version": 1
  },
  "userdoc": {
    "kind": "user",
    "methods": {},
    "version": 1
  },
  "storageLayout": {
    "storage": [
      {
        "astId": 753,
        "contract": "contracts/SnookToken.sol:SnookToken",
        "label": "_initialized",
        "offset": 0,
        "slot": "0",
        "type": "t_bool"
      },
      {
        "astId": 756,
        "contract": "contracts/SnookToken.sol:SnookToken",
        "label": "_initializing",
        "offset": 1,
        "slot": "0",
        "type": "t_bool"
      },
      {
        "astId": 2658,
        "contract": "contracts/SnookToken.sol:SnookToken",
        "label": "__gap",
        "offset": 0,
        "slot": "1",
        "type": "t_array(t_uint256)50_storage"
      },
      {
        "astId": 2907,
        "contract": "contracts/SnookToken.sol:SnookToken",
        "label": "__gap",
        "offset": 0,
        "slot": "51",
        "type": "t_array(t_uint256)50_storage"
      },
      {
        "astId": 935,
        "contract": "contracts/SnookToken.sol:SnookToken",
        "label": "_name",
        "offset": 0,
        "slot": "101",
        "type": "t_string_storage"
      },
      {
        "astId": 937,
        "contract": "contracts/SnookToken.sol:SnookToken",
        "label": "_symbol",
        "offset": 0,
        "slot": "102",
        "type": "t_string_storage"
      },
      {
        "astId": 941,
        "contract": "contracts/SnookToken.sol:SnookToken",
        "label": "_owners",
        "offset": 0,
        "slot": "103",
        "type": "t_mapping(t_uint256,t_address)"
      },
      {
        "astId": 945,
        "contract": "contracts/SnookToken.sol:SnookToken",
        "label": "_balances",
        "offset": 0,
        "slot": "104",
        "type": "t_mapping(t_address,t_uint256)"
      },
      {
        "astId": 949,
        "contract": "contracts/SnookToken.sol:SnookToken",
        "label": "_tokenApprovals",
        "offset": 0,
        "slot": "105",
        "type": "t_mapping(t_uint256,t_address)"
      },
      {
        "astId": 955,
        "contract": "contracts/SnookToken.sol:SnookToken",
        "label": "_operatorApprovals",
        "offset": 0,
        "slot": "106",
        "type": "t_mapping(t_address,t_mapping(t_address,t_bool))"
      },
      {
        "astId": 1753,
        "contract": "contracts/SnookToken.sol:SnookToken",
        "label": "__gap",
        "offset": 0,
        "slot": "107",
        "type": "t_array(t_uint256)44_storage"
      },
      {
        "astId": 1945,
        "contract": "contracts/SnookToken.sol:SnookToken",
        "label": "__gap",
        "offset": 0,
        "slot": "151",
        "type": "t_array(t_uint256)50_storage"
      },
      {
        "astId": 1985,
        "contract": "contracts/SnookToken.sol:SnookToken",
        "label": "_ownedTokens",
        "offset": 0,
        "slot": "201",
        "type": "t_mapping(t_address,t_mapping(t_uint256,t_uint256))"
      },
      {
        "astId": 1989,
        "contract": "contracts/SnookToken.sol:SnookToken",
        "label": "_ownedTokensIndex",
        "offset": 0,
        "slot": "202",
        "type": "t_mapping(t_uint256,t_uint256)"
      },
      {
        "astId": 1992,
        "contract": "contracts/SnookToken.sol:SnookToken",
        "label": "_allTokens",
        "offset": 0,
        "slot": "203",
        "type": "t_array(t_uint256)dyn_storage"
      },
      {
        "astId": 1996,
        "contract": "contracts/SnookToken.sol:SnookToken",
        "label": "_allTokensIndex",
        "offset": 0,
        "slot": "204",
        "type": "t_mapping(t_uint256,t_uint256)"
      },
      {
        "astId": 2311,
        "contract": "contracts/SnookToken.sol:SnookToken",
        "label": "__gap",
        "offset": 0,
        "slot": "205",
        "type": "t_array(t_uint256)46_storage"
      },
      {
        "astId": 627,
        "contract": "contracts/SnookToken.sol:SnookToken",
        "label": "_owner",
        "offset": 0,
        "slot": "251",
        "type": "t_address"
      },
      {
        "astId": 746,
        "contract": "contracts/SnookToken.sol:SnookToken",
        "label": "__gap",
        "offset": 0,
        "slot": "252",
        "type": "t_array(t_uint256)49_storage"
      },
      {
        "astId": 12822,
        "contract": "contracts/SnookToken.sol:SnookToken",
        "label": "_tokenIds",
        "offset": 0,
        "slot": "301",
        "type": "t_struct(Counter)4707_storage"
      },
      {
        "astId": 12826,
        "contract": "contracts/SnookToken.sol:SnookToken",
        "label": "_tokenURIs",
        "offset": 0,
        "slot": "302",
        "type": "t_mapping(t_uint256,t_string_storage)"
      },
      {
        "astId": 12830,
        "contract": "contracts/SnookToken.sol:SnookToken",
        "label": "_locked",
        "offset": 0,
        "slot": "303",
        "type": "t_mapping(t_uint256,t_bool)"
      },
      {
        "astId": 12832,
        "contract": "contracts/SnookToken.sol:SnookToken",
        "label": "_game",
        "offset": 0,
        "slot": "304",
        "type": "t_address"
      },
      {
        "astId": 12834,
        "contract": "contracts/SnookToken.sol:SnookToken",
        "label": "_afterdeath",
        "offset": 0,
        "slot": "305",
        "type": "t_address"
      },
      {
        "astId": 12836,
        "contract": "contracts/SnookToken.sol:SnookToken",
        "label": "_UNUSED",
        "offset": 0,
        "slot": "306",
        "type": "t_address"
      },
      {
        "astId": 12842,
        "contract": "contracts/SnookToken.sol:SnookToken",
        "label": "_UNUSED2",
        "offset": 0,
        "slot": "307",
        "type": "t_mapping(t_uint256,t_array(t_uint256)2_storage)"
      },
      {
        "astId": 12844,
        "contract": "contracts/SnookToken.sol:SnookToken",
        "label": "_UNUSED3",
        "offset": 0,
        "slot": "308",
        "type": "t_address"
      },
      {
        "astId": 12848,
        "contract": "contracts/SnookToken.sol:SnookToken",
        "label": "_tokenKillerToken",
        "offset": 0,
        "slot": "309",
        "type": "t_mapping(t_uint256,t_uint256)"
      },
      {
        "astId": 12850,
        "contract": "contracts/SnookToken.sol:SnookToken",
        "label": "_marketplace",
        "offset": 0,
        "slot": "310",
        "type": "t_address"
      }
    ],
    "types": {
      "t_address": {
        "encoding": "inplace",
        "label": "address",
        "numberOfBytes": "20"
      },
      "t_array(t_uint256)2_storage": {
        "base": "t_uint256",
        "encoding": "inplace",
        "label": "uint256[2]",
        "numberOfBytes": "64"
      },
      "t_array(t_uint256)44_storage": {
        "base": "t_uint256",
        "encoding": "inplace",
        "label": "uint256[44]",
        "numberOfBytes": "1408"
      },
      "t_array(t_uint256)46_storage": {
        "base": "t_uint256",
        "encoding": "inplace",
        "label": "uint256[46]",
        "numberOfBytes": "1472"
      },
      "t_array(t_uint256)49_storage": {
        "base": "t_uint256",
        "encoding": "inplace",
        "label": "uint256[49]",
        "numberOfBytes": "1568"
      },
      "t_array(t_uint256)50_storage": {
        "base": "t_uint256",
        "encoding": "inplace",
        "label": "uint256[50]",
        "numberOfBytes": "1600"
      },
      "t_array(t_uint256)dyn_storage": {
        "base": "t_uint256",
        "encoding": "dynamic_array",
        "label": "uint256[]",
        "numberOfBytes": "32"
      },
      "t_bool": {
        "encoding": "inplace",
        "label": "bool",
        "numberOfBytes": "1"
      },
      "t_mapping(t_address,t_bool)": {
        "encoding": "mapping",
        "key": "t_address",
        "label": "mapping(address => bool)",
        "numberOfBytes": "32",
        "value": "t_bool"
      },
      "t_mapping(t_address,t_mapping(t_address,t_bool))": {
        "encoding": "mapping",
        "key": "t_address",
        "label": "mapping(address => mapping(address => bool))",
        "numberOfBytes": "32",
        "value": "t_mapping(t_address,t_bool)"
      },
      "t_mapping(t_address,t_mapping(t_uint256,t_uint256))": {
        "encoding": "mapping",
        "key": "t_address",
        "label": "mapping(address => mapping(uint256 => uint256))",
        "numberOfBytes": "32",
        "value": "t_mapping(t_uint256,t_uint256)"
      },
      "t_mapping(t_address,t_uint256)": {
        "encoding": "mapping",
        "key": "t_address",
        "label": "mapping(address => uint256)",
        "numberOfBytes": "32",
        "value": "t_uint256"
      },
      "t_mapping(t_uint256,t_address)": {
        "encoding": "mapping",
        "key": "t_uint256",
        "label": "mapping(uint256 => address)",
        "numberOfBytes": "32",
        "value": "t_address"
      },
      "t_mapping(t_uint256,t_array(t_uint256)2_storage)": {
        "encoding": "mapping",
        "key": "t_uint256",
        "label": "mapping(uint256 => uint256[2])",
        "numberOfBytes": "32",
        "value": "t_array(t_uint256)2_storage"
      },
      "t_mapping(t_uint256,t_bool)": {
        "encoding": "mapping",
        "key": "t_uint256",
        "label": "mapping(uint256 => bool)",
        "numberOfBytes": "32",
        "value": "t_bool"
      },
      "t_mapping(t_uint256,t_string_storage)": {
        "encoding": "mapping",
        "key": "t_uint256",
        "label": "mapping(uint256 => string)",
        "numberOfBytes": "32",
        "value": "t_string_storage"
      },
      "t_mapping(t_uint256,t_uint256)": {
        "encoding": "mapping",
        "key": "t_uint256",
        "label": "mapping(uint256 => uint256)",
        "numberOfBytes": "32",
        "value": "t_uint256"
      },
      "t_string_storage": {
        "encoding": "bytes",
        "label": "string",
        "numberOfBytes": "32"
      },
      "t_struct(Counter)4707_storage": {
        "encoding": "inplace",
        "label": "struct Counters.Counter",
        "members": [
          {
            "astId": 4706,
            "contract": "contracts/SnookToken.sol:SnookToken",
            "label": "_value",
            "offset": 0,
            "slot": "0",
            "type": "t_uint256"
          }
        ],
        "numberOfBytes": "32"
      },
      "t_uint256": {
        "encoding": "inplace",
        "label": "uint256",
        "numberOfBytes": "32"
      }
    }
  }
}