{
  "address": "0x5FbDB2315678afecb367f032d93F642f64180aa3",
  "abi": [
    {
      "inputs": [],
      "stateMutability": "nonpayable",
      "type": "constructor"
    },
    {
      "anonymous": false,
      "inputs": [
        {
          "indexed": true,
          "internalType": "address",
          "name": "owner",
          "type": "address"
        },
        {
          "indexed": true,
          "internalType": "address",
          "name": "approved",
          "type": "address"
        },
        {
          "indexed": true,
          "internalType": "uint256",
          "name": "tokenId",
          "type": "uint256"
        }
      ],
      "name": "Approval",
      "type": "event"
    },
    {
      "anonymous": false,
      "inputs": [
        {
          "indexed": true,
          "internalType": "address",
          "name": "owner",
          "type": "address"
        },
        {
          "indexed": true,
          "internalType": "address",
          "name": "operator",
          "type": "address"
        },
        {
          "indexed": false,
          "internalType": "bool",
          "name": "approved",
          "type": "bool"
        }
      ],
      "name": "ApprovalForAll",
      "type": "event"
    },
    {
      "anonymous": false,
      "inputs": [
        {
          "indexed": true,
          "internalType": "bytes32",
          "name": "role",
          "type": "bytes32"
        },
        {
          "indexed": true,
          "internalType": "bytes32",
          "name": "previousAdminRole",
          "type": "bytes32"
        },
        {
          "indexed": true,
          "internalType": "bytes32",
          "name": "newAdminRole",
          "type": "bytes32"
        }
      ],
      "name": "RoleAdminChanged",
      "type": "event"
    },
    {
      "anonymous": false,
      "inputs": [
        {
          "indexed": true,
          "internalType": "bytes32",
          "name": "role",
          "type": "bytes32"
        },
        {
          "indexed": true,
          "internalType": "address",
          "name": "account",
          "type": "address"
        },
        {
          "indexed": true,
          "internalType": "address",
          "name": "sender",
          "type": "address"
        }
      ],
      "name": "RoleGranted",
      "type": "event"
    },
    {
      "anonymous": false,
      "inputs": [
        {
          "indexed": true,
          "internalType": "bytes32",
          "name": "role",
          "type": "bytes32"
        },
        {
          "indexed": true,
          "internalType": "address",
          "name": "account",
          "type": "address"
        },
        {
          "indexed": true,
          "internalType": "address",
          "name": "sender",
          "type": "address"
        }
      ],
      "name": "RoleRevoked",
      "type": "event"
    },
    {
      "anonymous": false,
      "inputs": [
        {
          "indexed": true,
          "internalType": "address",
          "name": "from",
          "type": "address"
        },
        {
          "indexed": true,
          "internalType": "address",
          "name": "to",
          "type": "address"
        },
        {
          "indexed": true,
          "internalType": "uint256",
          "name": "tokenId",
          "type": "uint256"
        }
      ],
      "name": "Transfer",
      "type": "event"
    },
    {
      "inputs": [],
      "name": "DEFAULT_ADMIN_ROLE",
      "outputs": [
        {
          "internalType": "bytes32",
          "name": "",
          "type": "bytes32"
        }
      ],
      "stateMutability": "view",
      "type": "function"
    },
    {
      "inputs": [],
      "name": "MINTER_ROLE",
      "outputs": [
        {
          "internalType": "bytes32",
          "name": "",
          "type": "bytes32"
        }
      ],
      "stateMutability": "view",
      "type": "function"
    },
    {
      "inputs": [
        {
          "internalType": "address",
          "name": "to",
          "type": "address"
        },
        {
          "internalType": "uint256",
          "name": "tokenId",
          "type": "uint256"
        }
      ],
      "name": "approve",
      "outputs": [],
      "stateMutability": "nonpayable",
      "type": "function"
    },
    {
      "inputs": [
        {
          "internalType": "address",
          "name": "owner",
          "type": "address"
        }
      ],
      "name": "balanceOf",
      "outputs": [
        {
          "internalType": "uint256",
          "name": "",
          "type": "uint256"
        }
      ],
      "stateMutability": "view",
      "type": "function"
    },
    {
      "inputs": [
        {
          "internalType": "uint256",
          "name": "tokenId",
          "type": "uint256"
        }
      ],
      "name": "burn",
      "outputs": [],
      "stateMutability": "nonpayable",
      "type": "function"
    },
    {
      "inputs": [
        {
          "internalType": "uint256",
          "name": "tokenId",
          "type": "uint256"
        }
      ],
      "name": "getApproved",
      "outputs": [
        {
          "internalType": "address",
          "name": "",
          "type": "address"
        }
      ],
      "stateMutability": "view",
      "type": "function"
    },
    {
      "inputs": [
        {
          "internalType": "bytes32",
          "name": "role",
          "type": "bytes32"
        }
      ],
      "name": "getRoleAdmin",
      "outputs": [
        {
          "internalType": "bytes32",
          "name": "",
          "type": "bytes32"
        }
      ],
      "stateMutability": "view",
      "type": "function"
    },
    {
      "inputs": [
        {
          "internalType": "bytes32",
          "name": "role",
          "type": "bytes32"
        },
        {
          "internalType": "address",
          "name": "account",
          "type": "address"
        }
      ],
      "name": "grantRole",
      "outputs": [],
      "stateMutability": "nonpayable",
      "type": "function"
    },
    {
      "inputs": [
        {
          "internalType": "bytes32",
          "name": "role",
          "type": "bytes32"
        },
        {
          "internalType": "address",
          "name": "account",
          "type": "address"
        }
      ],
      "name": "hasRole",
      "outputs": [
        {
          "internalType": "bool",
          "name": "",
          "type": "bool"
        }
      ],
      "stateMutability": "view",
      "type": "function"
    },
    {
      "inputs": [
        {
          "internalType": "address",
          "name": "owner",
          "type": "address"
        },
        {
          "internalType": "address",
          "name": "operator",
          "type": "address"
        }
      ],
      "name": "isApprovedForAll",
      "outputs": [
        {
          "internalType": "bool",
          "name": "",
          "type": "bool"
        }
      ],
      "stateMutability": "view",
      "type": "function"
    },
    {
      "inputs": [
        {
          "internalType": "uint256",
          "name": "tokenId",
          "type": "uint256"
        }
      ],
      "name": "isLocked",
      "outputs": [
        {
          "internalType": "bool",
          "name": "",
          "type": "bool"
        }
      ],
      "stateMutability": "view",
      "type": "function"
    },
    {
      "inputs": [
        {
          "internalType": "uint256",
          "name": "tokenId",
          "type": "uint256"
        },
        {
          "internalType": "bool",
          "name": "on",
          "type": "bool"
        }
      ],
      "name": "lock",
      "outputs": [],
      "stateMutability": "nonpayable",
      "type": "function"
    },
    {
      "inputs": [
        {
          "internalType": "address",
          "name": "to",
          "type": "address"
        },
        {
          "internalType": "string",
          "name": "tokenURI_",
          "type": "string"
        }
      ],
      "name": "mint",
      "outputs": [
        {
          "internalType": "uint256",
          "name": "",
          "type": "uint256"
        }
      ],
      "stateMutability": "nonpayable",
      "type": "function"
    },
    {
      "inputs": [],
      "name": "name",
      "outputs": [
        {
          "internalType": "string",
          "name": "",
          "type": "string"
        }
      ],
      "stateMutability": "view",
      "type": "function"
    },
    {
      "inputs": [
        {
          "internalType": "uint256",
          "name": "tokenId",
          "type": "uint256"
        }
      ],
      "name": "ownerOf",
      "outputs": [
        {
          "internalType": "address",
          "name": "",
          "type": "address"
        }
      ],
      "stateMutability": "view",
      "type": "function"
    },
    {
      "inputs": [
        {
          "internalType": "bytes32",
          "name": "role",
          "type": "bytes32"
        },
        {
          "internalType": "address",
          "name": "account",
          "type": "address"
        }
      ],
      "name": "renounceRole",
      "outputs": [],
      "stateMutability": "nonpayable",
      "type": "function"
    },
    {
      "inputs": [
        {
          "internalType": "bytes32",
          "name": "role",
          "type": "bytes32"
        },
        {
          "internalType": "address",
          "name": "account",
          "type": "address"
        }
      ],
      "name": "revokeRole",
      "outputs": [],
      "stateMutability": "nonpayable",
      "type": "function"
    },
    {
      "inputs": [
        {
          "internalType": "address",
          "name": "from",
          "type": "address"
        },
        {
          "internalType": "address",
          "name": "to",
          "type": "address"
        },
        {
          "internalType": "uint256",
          "name": "tokenId",
          "type": "uint256"
        }
      ],
      "name": "safeTransferFrom",
      "outputs": [],
      "stateMutability": "nonpayable",
      "type": "function"
    },
    {
      "inputs": [
        {
          "internalType": "address",
          "name": "from",
          "type": "address"
        },
        {
          "internalType": "address",
          "name": "to",
          "type": "address"
        },
        {
          "internalType": "uint256",
          "name": "tokenId",
          "type": "uint256"
        },
        {
          "internalType": "bytes",
          "name": "_data",
          "type": "bytes"
        }
      ],
      "name": "safeTransferFrom",
      "outputs": [],
      "stateMutability": "nonpayable",
      "type": "function"
    },
    {
      "inputs": [
        {
          "internalType": "address",
          "name": "operator",
          "type": "address"
        },
        {
          "internalType": "bool",
          "name": "approved",
          "type": "bool"
        }
      ],
      "name": "setApprovalForAll",
      "outputs": [],
      "stateMutability": "nonpayable",
      "type": "function"
    },
    {
      "inputs": [
        {
          "internalType": "uint256",
          "name": "tokenId",
          "type": "uint256"
        },
        {
          "internalType": "string",
          "name": "tokenURI_",
          "type": "string"
        }
      ],
      "name": "setTokenURI",
      "outputs": [],
      "stateMutability": "nonpayable",
      "type": "function"
    },
    {
      "inputs": [
        {
          "internalType": "bytes4",
          "name": "interfaceId",
          "type": "bytes4"
        }
      ],
      "name": "supportsInterface",
      "outputs": [
        {
          "internalType": "bool",
          "name": "",
          "type": "bool"
        }
      ],
      "stateMutability": "view",
      "type": "function"
    },
    {
      "inputs": [],
      "name": "symbol",
      "outputs": [
        {
          "internalType": "string",
          "name": "",
          "type": "string"
        }
      ],
      "stateMutability": "view",
      "type": "function"
    },
    {
      "inputs": [
        {
          "internalType": "uint256",
          "name": "index",
          "type": "uint256"
        }
      ],
      "name": "tokenByIndex",
      "outputs": [
        {
          "internalType": "uint256",
          "name": "",
          "type": "uint256"
        }
      ],
      "stateMutability": "view",
      "type": "function"
    },
    {
      "inputs": [
        {
          "internalType": "address",
          "name": "owner",
          "type": "address"
        },
        {
          "internalType": "uint256",
          "name": "index",
          "type": "uint256"
        }
      ],
      "name": "tokenOfOwnerByIndex",
      "outputs": [
        {
          "internalType": "uint256",
          "name": "",
          "type": "uint256"
        }
      ],
      "stateMutability": "view",
      "type": "function"
    },
    {
      "inputs": [
        {
          "internalType": "uint256",
          "name": "tokenId",
          "type": "uint256"
        }
      ],
      "name": "tokenURI",
      "outputs": [
        {
          "internalType": "string",
          "name": "",
          "type": "string"
        }
      ],
      "stateMutability": "view",
      "type": "function"
    },
    {
      "inputs": [],
      "name": "totalSupply",
      "outputs": [
        {
          "internalType": "uint256",
          "name": "",
          "type": "uint256"
        }
      ],
      "stateMutability": "view",
      "type": "function"
    },
    {
      "inputs": [
        {
          "internalType": "address",
          "name": "from",
          "type": "address"
        },
        {
          "internalType": "address",
          "name": "to",
          "type": "address"
        },
        {
          "internalType": "uint256",
          "name": "tokenId",
          "type": "uint256"
        }
      ],
      "name": "transferFrom",
      "outputs": [],
      "stateMutability": "nonpayable",
      "type": "function"
    }
  ],
  "transactionHash": "0x01badb5ba3bf1c06c17812c4c29de515946a8a016053859fb6965509d2ad2a1b",
  "args": [],
  "solcInputHash": "e8c0e419bb249421199c096c6d4bdc5e",
  "bytecode": "0x60806040523480156200001157600080fd5b506040518060400160405280600a81526020017f536e6f6f6b546f6b656e000000000000000000000000000000000000000000008152506040518060400160405280600381526020017f534e4b000000000000000000000000000000000000000000000000000000000081525081600090805190602001906200009692919062000257565b508060019080519060200190620000af92919062000257565b505050620000d66000801b620000ca620000dc60201b60201c565b620000e460201b60201c565b6200036c565b600033905090565b620000f68282620000fa60201b60201c565b5050565b6200010c8282620001ec60201b60201c565b620001e85760016006600084815260200190815260200160002060000160008373ffffffffffffffffffffffffffffffffffffffff1673ffffffffffffffffffffffffffffffffffffffff16815260200190815260200160002060006101000a81548160ff0219169083151502179055506200018d620000dc60201b60201c565b73ffffffffffffffffffffffffffffffffffffffff168173ffffffffffffffffffffffffffffffffffffffff16837f2f8788117e7eff1d82e926ec794901d17c78024a50270940304540a733656f0d60405160405180910390a45b5050565b60006006600084815260200190815260200160002060000160008373ffffffffffffffffffffffffffffffffffffffff1673ffffffffffffffffffffffffffffffffffffffff16815260200190815260200160002060009054906101000a900460ff16905092915050565b828054620002659062000307565b90600052602060002090601f016020900481019282620002895760008555620002d5565b82601f10620002a457805160ff1916838001178555620002d5565b82800160010185558215620002d5579182015b82811115620002d4578251825591602001919060010190620002b7565b5b509050620002e49190620002e8565b5090565b5b8082111562000303576000816000905550600101620002e9565b5090565b600060028204905060018216806200032057607f821691505b602082108114156200033757620003366200033d565b5b50919050565b7f4e487b7100000000000000000000000000000000000000000000000000000000600052602260045260246000fd5b613ca1806200037c6000396000f3fe608060405234801561001057600080fd5b50600436106101c45760003560e01c80634f6ccce7116100f9578063b88d4fde11610097578063d539139311610071578063d539139314610539578063d547741f14610557578063e985e9c514610573578063f6aacfb1146105a3576101c4565b8063b88d4fde146104bd578063c87b56dd146104d9578063d0def52114610509576101c4565b806391d14854116100d357806391d148541461043557806395d89b4114610465578063a217fddf14610483578063a22cb465146104a1576101c4565b80634f6ccce7146103a55780636352211e146103d557806370a0823114610405576101c4565b8063248a9ca311610166578063346c94cf11610140578063346c94cf1461033557806336568abe1461035157806342842e0e1461036d57806342966c6814610389576101c4565b8063248a9ca3146102b95780632f2ff15d146102e95780632f745c5914610305576101c4565b8063095ea7b3116101a2578063095ea7b314610247578063162094c41461026357806318160ddd1461027f57806323b872dd1461029d576101c4565b806301ffc9a7146101c957806306fdde03146101f9578063081812fc14610217575b600080fd5b6101e360048036038101906101de9190612b5c565b6105d3565b6040516101f091906135c2565b60405180910390f35b6102016105e5565b60405161020e91906135f8565b60405180910390f35b610231600480360381019061022c9190612bae565b610677565b60405161023e919061355b565b60405180910390f35b610261600480360381019061025c9190612abb565b6106fc565b005b61027d60048036038101906102789190612c13565b610814565b005b6102876108f8565b60405161029491906138fa565b60405180910390f35b6102b760048036038101906102b29190612961565b610905565b005b6102d360048036038101906102ce9190612af7565b610965565b6040516102e091906135dd565b60405180910390f35b61030360048036038101906102fe9190612b20565b610985565b005b61031f600480360381019061031a9190612abb565b6109eb565b60405161032c91906138fa565b60405180910390f35b61034f600480360381019061034a9190612bd7565b610a90565b005b61036b60048036038101906103669190612b20565b610b2f565b005b61038760048036038101906103829190612961565b610bb2565b005b6103a3600480360381019061039e9190612bae565b610bd2565b005b6103bf60048036038101906103ba9190612bae565b610c4e565b6040516103cc91906138fa565b60405180910390f35b6103ef60048036038101906103ea9190612bae565b610ce5565b6040516103fc919061355b565b60405180910390f35b61041f600480360381019061041a91906128fc565b610d97565b60405161042c91906138fa565b60405180910390f35b61044f600480360381019061044a9190612b20565b610e4f565b60405161045c91906135c2565b60405180910390f35b61046d610eba565b60405161047a91906135f8565b60405180910390f35b61048b610f4c565b60405161049891906135dd565b60405180910390f35b6104bb60048036038101906104b69190612a2b565b610f53565b005b6104d760048036038101906104d291906129b0565b6110d4565b005b6104f360048036038101906104ee9190612bae565b611136565b60405161050091906135f8565b60405180910390f35b610523600480360381019061051e9190612a67565b611223565b60405161053091906138fa565b60405180910390f35b6105416112cb565b60405161054e91906135dd565b60405180910390f35b610571600480360381019061056c9190612b20565b6112ef565b005b61058d60048036038101906105889190612925565b611355565b60405161059a91906135c2565b60405180910390f35b6105bd60048036038101906105b89190612bae565b6113e9565b6040516105ca91906135c2565b60405180910390f35b60006105de82611490565b9050919050565b6060600080546105f490613b28565b80601f016020809104026020016040519081016040528092919081815260200182805461062090613b28565b801561066d5780601f106106425761010080835404028352916020019161066d565b820191906000526020600020905b81548152906001019060200180831161065057829003601f168201915b5050505050905090565b60006106828261150a565b6106c1576040517f08c379a00000000000000000000000000000000000000000000000000000000081526004016106b8906137ba565b60405180910390fd5b6004600083815260200190815260200160002060009054906101000a900473ffffffffffffffffffffffffffffffffffffffff169050919050565b600061070782610ce5565b90508073ffffffffffffffffffffffffffffffffffffffff168373ffffffffffffffffffffffffffffffffffffffff161415610778576040517f08c379a000000000000000000000000000000000000000000000000000000000815260040161076f9061383a565b60405180910390fd5b8073ffffffffffffffffffffffffffffffffffffffff16610797611576565b73ffffffffffffffffffffffffffffffffffffffff1614806107c657506107c5816107c0611576565b611355565b5b610805576040517f08c379a00000000000000000000000000000000000000000000000000000000081526004016107fc9061371a565b60405180910390fd5b61080f838361157e565b505050565b6108457f9f2df0fed2c77648de5860a4cc508cd0818c85b8b8a1ab4ceeef8d981c8956a6610840611576565b610e4f565b610884576040517f08c379a000000000000000000000000000000000000000000000000000000000815260040161087b9061373a565b60405180910390fd5b61088d8261150a565b6108cc576040517f08c379a00000000000000000000000000000000000000000000000000000000081526004016108c3906137da565b60405180910390fd5b80600c600084815260200190815260200160002090805190602001906108f392919061270b565b505050565b6000600980549050905090565b610916610910611576565b82611637565b610955576040517f08c379a000000000000000000000000000000000000000000000000000000000815260040161094c9061387a565b60405180910390fd5b610960838383611715565b505050565b600060066000838152602001908152602001600020600101549050919050565b61099e61099183610965565b610999611576565b610e4f565b6109dd576040517f08c379a00000000000000000000000000000000000000000000000000000000081526004016109d49061361a565b60405180910390fd5b6109e78282611971565b5050565b60006109f683610d97565b8210610a37576040517f08c379a0000000000000000000000000000000000000000000000000000000008152600401610a2e9061363a565b60405180910390fd5b600760008473ffffffffffffffffffffffffffffffffffffffff1673ffffffffffffffffffffffffffffffffffffffff168152602001908152602001600020600083815260200190815260200160002054905092915050565b610ac17f9f2df0fed2c77648de5860a4cc508cd0818c85b8b8a1ab4ceeef8d981c8956a6610abc611576565b610e4f565b610b00576040517f08c379a0000000000000000000000000000000000000000000000000000000008152600401610af79061373a565b60405180910390fd5b80600d600084815260200190815260200160002060006101000a81548160ff0219169083151502179055505050565b610b37611576565b73ffffffffffffffffffffffffffffffffffffffff168173ffffffffffffffffffffffffffffffffffffffff1614610ba4576040517f08c379a0000000000000000000000000000000000000000000000000000000008152600401610b9b906138da565b60405180910390fd5b610bae8282611a52565b5050565b610bcd838383604051806020016040528060008152506110d4565b505050565b610c037f9f2df0fed2c77648de5860a4cc508cd0818c85b8b8a1ab4ceeef8d981c8956a6610bfe611576565b610e4f565b610c42576040517f08c379a0000000000000000000000000000000000000000000000000000000008152600401610c399061373a565b60405180910390fd5b610c4b81611b34565b50565b6000610c586108f8565b8210610c99576040517f08c379a0000000000000000000000000000000000000000000000000000000008152600401610c909061389a565b60405180910390fd5b60098281548110610cd3577f4e487b7100000000000000000000000000000000000000000000000000000000600052603260045260246000fd5b90600052602060002001549050919050565b6000806002600084815260200190815260200160002060009054906101000a900473ffffffffffffffffffffffffffffffffffffffff169050600073ffffffffffffffffffffffffffffffffffffffff168173ffffffffffffffffffffffffffffffffffffffff161415610d8e576040517f08c379a0000000000000000000000000000000000000000000000000000000008152600401610d859061377a565b60405180910390fd5b80915050919050565b60008073ffffffffffffffffffffffffffffffffffffffff168273ffffffffffffffffffffffffffffffffffffffff161415610e08576040517f08c379a0000000000000000000000000000000000000000000000000000000008152600401610dff9061375a565b60405180910390fd5b600360008373ffffffffffffffffffffffffffffffffffffffff1673ffffffffffffffffffffffffffffffffffffffff168152602001908152602001600020549050919050565b60006006600084815260200190815260200160002060000160008373ffffffffffffffffffffffffffffffffffffffff1673ffffffffffffffffffffffffffffffffffffffff16815260200190815260200160002060009054906101000a900460ff16905092915050565b606060018054610ec990613b28565b80601f0160208091040260200160405190810160405280929190818152602001828054610ef590613b28565b8015610f425780601f10610f1757610100808354040283529160200191610f42565b820191906000526020600020905b815481529060010190602001808311610f2557829003601f168201915b5050505050905090565b6000801b81565b610f5b611576565b73ffffffffffffffffffffffffffffffffffffffff168273ffffffffffffffffffffffffffffffffffffffff161415610fc9576040517f08c379a0000000000000000000000000000000000000000000000000000000008152600401610fc0906136ba565b60405180910390fd5b8060056000610fd6611576565b73ffffffffffffffffffffffffffffffffffffffff1673ffffffffffffffffffffffffffffffffffffffff16815260200190815260200160002060008473ffffffffffffffffffffffffffffffffffffffff1673ffffffffffffffffffffffffffffffffffffffff16815260200190815260200160002060006101000a81548160ff0219169083151502179055508173ffffffffffffffffffffffffffffffffffffffff16611083611576565b73ffffffffffffffffffffffffffffffffffffffff167f17307eab39ab6107e8899845ad3d59bd9653f200f220920489ca2b5937696c31836040516110c891906135c2565b60405180910390a35050565b6110e56110df611576565b83611637565b611124576040517f08c379a000000000000000000000000000000000000000000000000000000000815260040161111b9061387a565b60405180910390fd5b61113084848484611c45565b50505050565b60606111418261150a565b611180576040517f08c379a00000000000000000000000000000000000000000000000000000000081526004016111779061381a565b60405180910390fd5b600c6000838152602001908152602001600020805461119e90613b28565b80601f01602080910402602001604051908101604052809291908181526020018280546111ca90613b28565b80156112175780601f106111ec57610100808354040283529160200191611217565b820191906000526020600020905b8154815290600101906020018083116111fa57829003601f168201915b50505050509050919050565b60006112567f9f2df0fed2c77648de5860a4cc508cd0818c85b8b8a1ab4ceeef8d981c8956a6611251611576565b610e4f565b611295576040517f08c379a000000000000000000000000000000000000000000000000000000000815260040161128c9061373a565b60405180910390fd5b61129f600b611ca1565b60006112ab600b611cb7565b90506112b78482611cc5565b6112c18184610814565b8091505092915050565b7f9f2df0fed2c77648de5860a4cc508cd0818c85b8b8a1ab4ceeef8d981c8956a681565b6113086112fb83610965565b611303611576565b610e4f565b611347576040517f08c379a000000000000000000000000000000000000000000000000000000000815260040161133e906136fa565b60405180910390fd5b6113518282611a52565b5050565b6000600560008473ffffffffffffffffffffffffffffffffffffffff1673ffffffffffffffffffffffffffffffffffffffff16815260200190815260200160002060008373ffffffffffffffffffffffffffffffffffffffff1673ffffffffffffffffffffffffffffffffffffffff16815260200190815260200160002060009054906101000a900460ff16905092915050565b60006113f3611576565b73ffffffffffffffffffffffffffffffffffffffff1661141283610ce5565b73ffffffffffffffffffffffffffffffffffffffff1614611468576040517f08c379a000000000000000000000000000000000000000000000000000000000815260040161145f906138ba565b60405180910390fd5b600d600083815260200190815260200160002060009054906101000a900460ff169050919050565b60007f780e9d63000000000000000000000000000000000000000000000000000000007bffffffffffffffffffffffffffffffffffffffffffffffffffffffff1916827bffffffffffffffffffffffffffffffffffffffffffffffffffffffff19161480611503575061150282611e93565b5b9050919050565b60008073ffffffffffffffffffffffffffffffffffffffff166002600084815260200190815260200160002060009054906101000a900473ffffffffffffffffffffffffffffffffffffffff1673ffffffffffffffffffffffffffffffffffffffff1614159050919050565b600033905090565b816004600083815260200190815260200160002060006101000a81548173ffffffffffffffffffffffffffffffffffffffff021916908373ffffffffffffffffffffffffffffffffffffffff160217905550808273ffffffffffffffffffffffffffffffffffffffff166115f183610ce5565b73ffffffffffffffffffffffffffffffffffffffff167f8c5be1e5ebec7d5bd14f71427d1e84f3dd0314c0f7b2291e5b200ac8c7c3b92560405160405180910390a45050565b60006116428261150a565b611681576040517f08c379a0000000000000000000000000000000000000000000000000000000008152600401611678906136da565b60405180910390fd5b600061168c83610ce5565b90508073ffffffffffffffffffffffffffffffffffffffff168473ffffffffffffffffffffffffffffffffffffffff1614806116fb57508373ffffffffffffffffffffffffffffffffffffffff166116e384610677565b73ffffffffffffffffffffffffffffffffffffffff16145b8061170c575061170b8185611355565b5b91505092915050565b8273ffffffffffffffffffffffffffffffffffffffff1661173582610ce5565b73ffffffffffffffffffffffffffffffffffffffff161461178b576040517f08c379a0000000000000000000000000000000000000000000000000000000008152600401611782906137fa565b60405180910390fd5b600073ffffffffffffffffffffffffffffffffffffffff168273ffffffffffffffffffffffffffffffffffffffff1614156117fb576040517f08c379a00000000000000000000000000000000000000000000000000000000081526004016117f29061369a565b60405180910390fd5b611806838383611f0d565b61181160008261157e565b6001600360008573ffffffffffffffffffffffffffffffffffffffff1673ffffffffffffffffffffffffffffffffffffffff16815260200190815260200160002060008282546118619190613a34565b925050819055506001600360008473ffffffffffffffffffffffffffffffffffffffff1673ffffffffffffffffffffffffffffffffffffffff16815260200190815260200160002060008282546118b891906139de565b92505081905550816002600083815260200190815260200160002060006101000a81548173ffffffffffffffffffffffffffffffffffffffff021916908373ffffffffffffffffffffffffffffffffffffffff160217905550808273ffffffffffffffffffffffffffffffffffffffff168473ffffffffffffffffffffffffffffffffffffffff167fddf252ad1be2c89b69c2b068fc378daa952ba7f163c4a11628f55a4df523b3ef60405160405180910390a4505050565b61197b8282610e4f565b611a4e5760016006600084815260200190815260200160002060000160008373ffffffffffffffffffffffffffffffffffffffff1673ffffffffffffffffffffffffffffffffffffffff16815260200190815260200160002060006101000a81548160ff0219169083151502179055506119f3611576565b73ffffffffffffffffffffffffffffffffffffffff168173ffffffffffffffffffffffffffffffffffffffff16837f2f8788117e7eff1d82e926ec794901d17c78024a50270940304540a733656f0d60405160405180910390a45b5050565b611a5c8282610e4f565b15611b305760006006600084815260200190815260200160002060000160008373ffffffffffffffffffffffffffffffffffffffff1673ffffffffffffffffffffffffffffffffffffffff16815260200190815260200160002060006101000a81548160ff021916908315150217905550611ad5611576565b73ffffffffffffffffffffffffffffffffffffffff168173ffffffffffffffffffffffffffffffffffffffff16837ff6391f5c32d9c69d2a47ea670b442974b53935d1edc7fd64eb21e047a839171b60405160405180910390a45b5050565b6000611b3f82610ce5565b9050611b4d81600084611f0d565b611b5860008361157e565b6001600360008373ffffffffffffffffffffffffffffffffffffffff1673ffffffffffffffffffffffffffffffffffffffff1681526020019081526020016000206000828254611ba89190613a34565b925050819055506002600083815260200190815260200160002060006101000a81549073ffffffffffffffffffffffffffffffffffffffff021916905581600073ffffffffffffffffffffffffffffffffffffffff168273ffffffffffffffffffffffffffffffffffffffff167fddf252ad1be2c89b69c2b068fc378daa952ba7f163c4a11628f55a4df523b3ef60405160405180910390a45050565b611c50848484611715565b611c5c84848484611f84565b611c9b576040517f08c379a0000000000000000000000000000000000000000000000000000000008152600401611c929061365a565b60405180910390fd5b50505050565b6001816000016000828254019250508190555050565b600081600001549050919050565b600073ffffffffffffffffffffffffffffffffffffffff168273ffffffffffffffffffffffffffffffffffffffff161415611d35576040517f08c379a0000000000000000000000000000000000000000000000000000000008152600401611d2c9061379a565b60405180910390fd5b611d3e8161150a565b15611d7e576040517f08c379a0000000000000000000000000000000000000000000000000000000008152600401611d759061367a565b60405180910390fd5b611d8a60008383611f0d565b6001600360008473ffffffffffffffffffffffffffffffffffffffff1673ffffffffffffffffffffffffffffffffffffffff1681526020019081526020016000206000828254611dda91906139de565b92505081905550816002600083815260200190815260200160002060006101000a81548173ffffffffffffffffffffffffffffffffffffffff021916908373ffffffffffffffffffffffffffffffffffffffff160217905550808273ffffffffffffffffffffffffffffffffffffffff16600073ffffffffffffffffffffffffffffffffffffffff167fddf252ad1be2c89b69c2b068fc378daa952ba7f163c4a11628f55a4df523b3ef60405160405180910390a45050565b60007f7965db0b000000000000000000000000000000000000000000000000000000007bffffffffffffffffffffffffffffffffffffffffffffffffffffffff1916827bffffffffffffffffffffffffffffffffffffffffffffffffffffffff19161480611f065750611f058261211b565b5b9050919050565b611f188383836121fd565b60001515600d600083815260200190815260200160002060009054906101000a900460ff16151514611f7f576040517f08c379a0000000000000000000000000000000000000000000000000000000008152600401611f769061385a565b60405180910390fd5b505050565b6000611fa58473ffffffffffffffffffffffffffffffffffffffff16612311565b1561210e578373ffffffffffffffffffffffffffffffffffffffff1663150b7a02611fce611576565b8786866040518563ffffffff1660e01b8152600401611ff09493929190613576565b602060405180830381600087803b15801561200a57600080fd5b505af192505050801561203b57506040513d601f19601f820116820180604052508101906120389190612b85565b60015b6120be573d806000811461206b576040519150601f19603f3d011682016040523d82523d6000602084013e612070565b606091505b506000815114156120b6576040517f08c379a00000000000000000000000000000000000000000000000000000000081526004016120ad9061365a565b60405180910390fd5b805181602001fd5b63150b7a0260e01b7bffffffffffffffffffffffffffffffffffffffffffffffffffffffff1916817bffffffffffffffffffffffffffffffffffffffffffffffffffffffff191614915050612113565b600190505b949350505050565b60007f80ac58cd000000000000000000000000000000000000000000000000000000007bffffffffffffffffffffffffffffffffffffffffffffffffffffffff1916827bffffffffffffffffffffffffffffffffffffffffffffffffffffffff191614806121e657507f5b5e139f000000000000000000000000000000000000000000000000000000007bffffffffffffffffffffffffffffffffffffffffffffffffffffffff1916827bffffffffffffffffffffffffffffffffffffffffffffffffffffffff1916145b806121f657506121f582612324565b5b9050919050565b61220883838361238e565b600073ffffffffffffffffffffffffffffffffffffffff168373ffffffffffffffffffffffffffffffffffffffff16141561224b5761224681612393565b61228a565b8173ffffffffffffffffffffffffffffffffffffffff168373ffffffffffffffffffffffffffffffffffffffff16146122895761228883826123dc565b5b5b600073ffffffffffffffffffffffffffffffffffffffff168273ffffffffffffffffffffffffffffffffffffffff1614156122cd576122c881612549565b61230c565b8273ffffffffffffffffffffffffffffffffffffffff168273ffffffffffffffffffffffffffffffffffffffff161461230b5761230a828261268c565b5b5b505050565b600080823b905060008111915050919050565b60007f01ffc9a7000000000000000000000000000000000000000000000000000000007bffffffffffffffffffffffffffffffffffffffffffffffffffffffff1916827bffffffffffffffffffffffffffffffffffffffffffffffffffffffff1916149050919050565b505050565b600980549050600a600083815260200190815260200160002081905550600981908060018154018082558091505060019003906000526020600020016000909190919091505550565b600060016123e984610d97565b6123f39190613a34565b90506000600860008481526020019081526020016000205490508181146124d8576000600760008673ffffffffffffffffffffffffffffffffffffffff1673ffffffffffffffffffffffffffffffffffffffff168152602001908152602001600020600084815260200190815260200160002054905080600760008773ffffffffffffffffffffffffffffffffffffffff1673ffffffffffffffffffffffffffffffffffffffff168152602001908152602001600020600084815260200190815260200160002081905550816008600083815260200190815260200160002081905550505b6008600084815260200190815260200160002060009055600760008573ffffffffffffffffffffffffffffffffffffffff1673ffffffffffffffffffffffffffffffffffffffff16815260200190815260200160002060008381526020019081526020016000206000905550505050565b6000600160098054905061255d9190613a34565b90506000600a60008481526020019081526020016000205490506000600983815481106125b3577f4e487b7100000000000000000000000000000000000000000000000000000000600052603260045260246000fd5b9060005260206000200154905080600983815481106125fb577f4e487b7100000000000000000000000000000000000000000000000000000000600052603260045260246000fd5b906000526020600020018190555081600a600083815260200190815260200160002081905550600a6000858152602001908152602001600020600090556009805480612670577f4e487b7100000000000000000000000000000000000000000000000000000000600052603160045260246000fd5b6001900381819060005260206000200160009055905550505050565b600061269783610d97565b905081600760008573ffffffffffffffffffffffffffffffffffffffff1673ffffffffffffffffffffffffffffffffffffffff168152602001908152602001600020600083815260200190815260200160002081905550806008600084815260200190815260200160002081905550505050565b82805461271790613b28565b90600052602060002090601f0160209004810192826127395760008555612780565b82601f1061275257805160ff1916838001178555612780565b82800160010185558215612780579182015b8281111561277f578251825591602001919060010190612764565b5b50905061278d9190612791565b5090565b5b808211156127aa576000816000905550600101612792565b5090565b60006127c16127bc84613946565b613915565b9050828152602081018484840111156127d957600080fd5b6127e4848285613ae6565b509392505050565b60006127ff6127fa84613976565b613915565b90508281526020810184848401111561281757600080fd5b612822848285613ae6565b509392505050565b60008135905061283981613bf8565b92915050565b60008135905061284e81613c0f565b92915050565b60008135905061286381613c26565b92915050565b60008135905061287881613c3d565b92915050565b60008151905061288d81613c3d565b92915050565b600082601f8301126128a457600080fd5b81356128b48482602086016127ae565b91505092915050565b600082601f8301126128ce57600080fd5b81356128de8482602086016127ec565b91505092915050565b6000813590506128f681613c54565b92915050565b60006020828403121561290e57600080fd5b600061291c8482850161282a565b91505092915050565b6000806040838503121561293857600080fd5b60006129468582860161282a565b92505060206129578582860161282a565b9150509250929050565b60008060006060848603121561297657600080fd5b60006129848682870161282a565b93505060206129958682870161282a565b92505060406129a6868287016128e7565b9150509250925092565b600080600080608085870312156129c657600080fd5b60006129d48782880161282a565b94505060206129e58782880161282a565b93505060406129f6878288016128e7565b925050606085013567ffffffffffffffff811115612a1357600080fd5b612a1f87828801612893565b91505092959194509250565b60008060408385031215612a3e57600080fd5b6000612a4c8582860161282a565b9250506020612a5d8582860161283f565b9150509250929050565b60008060408385031215612a7a57600080fd5b6000612a888582860161282a565b925050602083013567ffffffffffffffff811115612aa557600080fd5b612ab1858286016128bd565b9150509250929050565b60008060408385031215612ace57600080fd5b6000612adc8582860161282a565b9250506020612aed858286016128e7565b9150509250929050565b600060208284031215612b0957600080fd5b6000612b1784828501612854565b91505092915050565b60008060408385031215612b3357600080fd5b6000612b4185828601612854565b9250506020612b528582860161282a565b9150509250929050565b600060208284031215612b6e57600080fd5b6000612b7c84828501612869565b91505092915050565b600060208284031215612b9757600080fd5b6000612ba58482850161287e565b91505092915050565b600060208284031215612bc057600080fd5b6000612bce848285016128e7565b91505092915050565b60008060408385031215612bea57600080fd5b6000612bf8858286016128e7565b9250506020612c098582860161283f565b9150509250929050565b60008060408385031215612c2657600080fd5b6000612c34858286016128e7565b925050602083013567ffffffffffffffff811115612c5157600080fd5b612c5d858286016128bd565b9150509250929050565b612c7081613a68565b82525050565b612c7f81613a7a565b82525050565b612c8e81613a86565b82525050565b6000612c9f826139a6565b612ca981856139bc565b9350612cb9818560208601613af5565b612cc281613be7565b840191505092915050565b6000612cd8826139b1565b612ce281856139cd565b9350612cf2818560208601613af5565b612cfb81613be7565b840191505092915050565b6000612d13602f836139cd565b91507f416363657373436f6e74726f6c3a2073656e646572206d75737420626520616e60008301527f2061646d696e20746f206772616e7400000000000000000000000000000000006020830152604082019050919050565b6000612d79602b836139cd565b91507f455243373231456e756d657261626c653a206f776e657220696e646578206f7560008301527f74206f6620626f756e64730000000000000000000000000000000000000000006020830152604082019050919050565b6000612ddf6032836139cd565b91507f4552433732313a207472616e7366657220746f206e6f6e20455243373231526560008301527f63656976657220696d706c656d656e74657200000000000000000000000000006020830152604082019050919050565b6000612e45601c836139cd565b91507f4552433732313a20746f6b656e20616c7265616479206d696e746564000000006000830152602082019050919050565b6000612e856024836139cd565b91507f4552433732313a207472616e7366657220746f20746865207a65726f2061646460008301527f72657373000000000000000000000000000000000000000000000000000000006020830152604082019050919050565b6000612eeb6019836139cd565b91507f4552433732313a20617070726f766520746f2063616c6c6572000000000000006000830152602082019050919050565b6000612f2b602c836139cd565b91507f4552433732313a206f70657261746f7220717565727920666f72206e6f6e657860008301527f697374656e7420746f6b656e00000000000000000000000000000000000000006020830152604082019050919050565b6000612f916030836139cd565b91507f416363657373436f6e74726f6c3a2073656e646572206d75737420626520616e60008301527f2061646d696e20746f207265766f6b65000000000000000000000000000000006020830152604082019050919050565b6000612ff76038836139cd565b91507f4552433732313a20617070726f76652063616c6c6572206973206e6f74206f7760008301527f6e6572206e6f7220617070726f76656420666f7220616c6c00000000000000006020830152604082019050919050565b600061305d6016836139cd565b91507f43616c6c6572206973206e6f742061206d696e746572000000000000000000006000830152602082019050919050565b600061309d602a836139cd565b91507f4552433732313a2062616c616e636520717565727920666f7220746865207a6560008301527f726f2061646472657373000000000000000000000000000000000000000000006020830152604082019050919050565b60006131036029836139cd565b91507f4552433732313a206f776e657220717565727920666f72206e6f6e657869737460008301527f656e7420746f6b656e00000000000000000000000000000000000000000000006020830152604082019050919050565b60006131696020836139cd565b91507f4552433732313a206d696e7420746f20746865207a65726f20616464726573736000830152602082019050919050565b60006131a9602c836139cd565b91507f4552433732313a20617070726f76656420717565727920666f72206e6f6e657860008301527f697374656e7420746f6b656e00000000000000000000000000000000000000006020830152604082019050919050565b600061320f602c836139cd565b91507f4552433732314d657461646174613a2055524920736574206f66206e6f6e657860008301527f697374656e7420746f6b656e00000000000000000000000000000000000000006020830152604082019050919050565b60006132756029836139cd565b91507f4552433732313a207472616e73666572206f6620746f6b656e2074686174206960008301527f73206e6f74206f776e00000000000000000000000000000000000000000000006020830152604082019050919050565b60006132db602f836139cd565b91507f4552433732314d657461646174613a2055524920717565727920666f72206e6f60008301527f6e6578697374656e7420746f6b656e00000000000000000000000000000000006020830152604082019050919050565b60006133416021836139cd565b91507f4552433732313a20617070726f76616c20746f2063757272656e74206f776e6560008301527f72000000000000000000000000000000000000000000000000000000000000006020830152604082019050919050565b60006133a7600f836139cd565b91507f546f6b656e206973206c6f636b656400000000000000000000000000000000006000830152602082019050919050565b60006133e76031836139cd565b91507f4552433732313a207472616e736665722063616c6c6572206973206e6f74206f60008301527f776e6572206e6f7220617070726f7665640000000000000000000000000000006020830152604082019050919050565b600061344d602c836139cd565b91507f455243373231456e756d657261626c653a20676c6f62616c20696e646578206f60008301527f7574206f6620626f756e647300000000000000000000000000000000000000006020830152604082019050919050565b60006134b3600f836139cd565b91507f4e6f7420746f6b656e206f776e657200000000000000000000000000000000006000830152602082019050919050565b60006134f3602f836139cd565b91507f416363657373436f6e74726f6c3a2063616e206f6e6c792072656e6f756e636560008301527f20726f6c657320666f722073656c6600000000000000000000000000000000006020830152604082019050919050565b61355581613adc565b82525050565b60006020820190506135706000830184612c67565b92915050565b600060808201905061358b6000830187612c67565b6135986020830186612c67565b6135a5604083018561354c565b81810360608301526135b78184612c94565b905095945050505050565b60006020820190506135d76000830184612c76565b92915050565b60006020820190506135f26000830184612c85565b92915050565b600060208201905081810360008301526136128184612ccd565b905092915050565b6000602082019050818103600083015261363381612d06565b9050919050565b6000602082019050818103600083015261365381612d6c565b9050919050565b6000602082019050818103600083015261367381612dd2565b9050919050565b6000602082019050818103600083015261369381612e38565b9050919050565b600060208201905081810360008301526136b381612e78565b9050919050565b600060208201905081810360008301526136d381612ede565b9050919050565b600060208201905081810360008301526136f381612f1e565b9050919050565b6000602082019050818103600083015261371381612f84565b9050919050565b6000602082019050818103600083015261373381612fea565b9050919050565b6000602082019050818103600083015261375381613050565b9050919050565b6000602082019050818103600083015261377381613090565b9050919050565b60006020820190508181036000830152613793816130f6565b9050919050565b600060208201905081810360008301526137b38161315c565b9050919050565b600060208201905081810360008301526137d38161319c565b9050919050565b600060208201905081810360008301526137f381613202565b9050919050565b6000602082019050818103600083015261381381613268565b9050919050565b60006020820190508181036000830152613833816132ce565b9050919050565b6000602082019050818103600083015261385381613334565b9050919050565b600060208201905081810360008301526138738161339a565b9050919050565b60006020820190508181036000830152613893816133da565b9050919050565b600060208201905081810360008301526138b381613440565b9050919050565b600060208201905081810360008301526138d3816134a6565b9050919050565b600060208201905081810360008301526138f3816134e6565b9050919050565b600060208201905061390f600083018461354c565b92915050565b6000604051905081810181811067ffffffffffffffff8211171561393c5761393b613bb8565b5b8060405250919050565b600067ffffffffffffffff82111561396157613960613bb8565b5b601f19601f8301169050602081019050919050565b600067ffffffffffffffff82111561399157613990613bb8565b5b601f19601f8301169050602081019050919050565b600081519050919050565b600081519050919050565b600082825260208201905092915050565b600082825260208201905092915050565b60006139e982613adc565b91506139f483613adc565b9250827fffffffffffffffffffffffffffffffffffffffffffffffffffffffffffffffff03821115613a2957613a28613b5a565b5b828201905092915050565b6000613a3f82613adc565b9150613a4a83613adc565b925082821015613a5d57613a5c613b5a565b5b828203905092915050565b6000613a7382613abc565b9050919050565b60008115159050919050565b6000819050919050565b60007fffffffff0000000000000000000000000000000000000000000000000000000082169050919050565b600073ffffffffffffffffffffffffffffffffffffffff82169050919050565b6000819050919050565b82818337600083830152505050565b60005b83811015613b13578082015181840152602081019050613af8565b83811115613b22576000848401525b50505050565b60006002820490506001821680613b4057607f821691505b60208210811415613b5457613b53613b89565b5b50919050565b7f4e487b7100000000000000000000000000000000000000000000000000000000600052601160045260246000fd5b7f4e487b7100000000000000000000000000000000000000000000000000000000600052602260045260246000fd5b7f4e487b7100000000000000000000000000000000000000000000000000000000600052604160045260246000fd5b6000601f19601f8301169050919050565b613c0181613a68565b8114613c0c57600080fd5b50565b613c1881613a7a565b8114613c2357600080fd5b50565b613c2f81613a86565b8114613c3a57600080fd5b50565b613c4681613a90565b8114613c5157600080fd5b50565b613c5d81613adc565b8114613c6857600080fd5b5056fea26469706673582212203c146456a827ff06b9a6f0a0a889deb34e12da033ea7a0f44ccfc8c4a8f8d51b64736f6c63430008000033",
  "devdoc": {
    "kind": "dev",
    "methods": {
      "approve(address,uint256)": {
        "details": "See {IERC721-approve}."
      },
      "balanceOf(address)": {
        "details": "See {IERC721-balanceOf}."
      },
      "burn(uint256)": {
        "details": "Burns `tokenId`. See {ERC721-_burn}. Requirements: - The caller must own `tokenId` or be an approved operator."
      },
      "getApproved(uint256)": {
        "details": "See {IERC721-getApproved}."
      },
      "getRoleAdmin(bytes32)": {
        "details": "Returns the admin role that controls `role`. See {grantRole} and {revokeRole}. To change a role's admin, use {_setRoleAdmin}."
      },
      "grantRole(bytes32,address)": {
        "details": "Grants `role` to `account`. If `account` had not been already granted `role`, emits a {RoleGranted} event. Requirements: - the caller must have ``role``'s admin role."
      },
      "hasRole(bytes32,address)": {
        "details": "Returns `true` if `account` has been granted `role`."
      },
      "isApprovedForAll(address,address)": {
        "details": "See {IERC721-isApprovedForAll}."
      },
      "name()": {
        "details": "See {IERC721Metadata-name}."
      },
      "ownerOf(uint256)": {
        "details": "See {IERC721-ownerOf}."
      },
      "renounceRole(bytes32,address)": {
        "details": "Revokes `role` from the calling account. Roles are often managed via {grantRole} and {revokeRole}: this function's purpose is to provide a mechanism for accounts to lose their privileges if they are compromised (such as when a trusted device is misplaced). If the calling account had been granted `role`, emits a {RoleRevoked} event. Requirements: - the caller must be `account`."
      },
      "revokeRole(bytes32,address)": {
        "details": "Revokes `role` from `account`. If `account` had been granted `role`, emits a {RoleRevoked} event. Requirements: - the caller must have ``role``'s admin role."
      },
      "safeTransferFrom(address,address,uint256)": {
        "details": "See {IERC721-safeTransferFrom}."
      },
      "safeTransferFrom(address,address,uint256,bytes)": {
        "details": "See {IERC721-safeTransferFrom}."
      },
      "setApprovalForAll(address,bool)": {
        "details": "See {IERC721-setApprovalForAll}."
      },
      "symbol()": {
        "details": "See {IERC721Metadata-symbol}."
      },
      "tokenByIndex(uint256)": {
        "details": "See {IERC721Enumerable-tokenByIndex}."
      },
      "tokenOfOwnerByIndex(address,uint256)": {
        "details": "See {IERC721Enumerable-tokenOfOwnerByIndex}."
      },
      "tokenURI(uint256)": {
        "details": "See {IERC721Metadata-tokenURI}."
      },
      "totalSupply()": {
        "details": "See {IERC721Enumerable-totalSupply}."
      },
      "transferFrom(address,address,uint256)": {
        "details": "See {IERC721-transferFrom}."
      }
    },
    "version": 1
  },
  "userdoc": {
    "kind": "user",
    "methods": {},
    "version": 1
  },
  "storageLayout": {
    "storage": [
      {
        "astId": 1038,
        "contract": "contracts/SnookToken.sol:SnookToken",
        "label": "_name",
        "offset": 0,
        "slot": "0",
        "type": "t_string_storage"
      },
      {
        "astId": 1040,
        "contract": "contracts/SnookToken.sol:SnookToken",
        "label": "_symbol",
        "offset": 0,
        "slot": "1",
        "type": "t_string_storage"
      },
      {
        "astId": 1044,
        "contract": "contracts/SnookToken.sol:SnookToken",
        "label": "_owners",
        "offset": 0,
        "slot": "2",
        "type": "t_mapping(t_uint256,t_address)"
      },
      {
        "astId": 1048,
        "contract": "contracts/SnookToken.sol:SnookToken",
        "label": "_balances",
        "offset": 0,
        "slot": "3",
        "type": "t_mapping(t_address,t_uint256)"
      },
      {
        "astId": 1052,
        "contract": "contracts/SnookToken.sol:SnookToken",
        "label": "_tokenApprovals",
        "offset": 0,
        "slot": "4",
        "type": "t_mapping(t_uint256,t_address)"
      },
      {
        "astId": 1058,
        "contract": "contracts/SnookToken.sol:SnookToken",
        "label": "_operatorApprovals",
        "offset": 0,
        "slot": "5",
        "type": "t_mapping(t_address,t_mapping(t_address,t_bool))"
      },
      {
        "astId": 61,
        "contract": "contracts/SnookToken.sol:SnookToken",
        "label": "_roles",
        "offset": 0,
        "slot": "6",
        "type": "t_mapping(t_bytes32,t_struct(RoleData)56_storage)"
      },
      {
        "astId": 2011,
        "contract": "contracts/SnookToken.sol:SnookToken",
        "label": "_ownedTokens",
        "offset": 0,
        "slot": "7",
        "type": "t_mapping(t_address,t_mapping(t_uint256,t_uint256))"
      },
      {
        "astId": 2015,
        "contract": "contracts/SnookToken.sol:SnookToken",
        "label": "_ownedTokensIndex",
        "offset": 0,
        "slot": "8",
        "type": "t_mapping(t_uint256,t_uint256)"
      },
      {
        "astId": 2018,
        "contract": "contracts/SnookToken.sol:SnookToken",
        "label": "_allTokens",
        "offset": 0,
        "slot": "9",
        "type": "t_array(t_uint256)dyn_storage"
      },
      {
        "astId": 2022,
        "contract": "contracts/SnookToken.sol:SnookToken",
        "label": "_allTokensIndex",
        "offset": 0,
        "slot": "10",
        "type": "t_mapping(t_uint256,t_uint256)"
      },
      {
        "astId": 7333,
        "contract": "contracts/SnookToken.sol:SnookToken",
        "label": "_tokenIds",
        "offset": 0,
        "slot": "11",
        "type": "t_struct(Counter)2717_storage"
      },
      {
        "astId": 7337,
        "contract": "contracts/SnookToken.sol:SnookToken",
        "label": "_tokenURIs",
        "offset": 0,
        "slot": "12",
        "type": "t_mapping(t_uint256,t_string_storage)"
      },
      {
        "astId": 7341,
        "contract": "contracts/SnookToken.sol:SnookToken",
        "label": "_locked",
        "offset": 0,
        "slot": "13",
        "type": "t_mapping(t_uint256,t_bool)"
      }
    ],
    "types": {
      "t_address": {
        "encoding": "inplace",
        "label": "address",
        "numberOfBytes": "20"
      },
      "t_array(t_uint256)dyn_storage": {
        "base": "t_uint256",
        "encoding": "dynamic_array",
        "label": "uint256[]",
        "numberOfBytes": "32"
      },
      "t_bool": {
        "encoding": "inplace",
        "label": "bool",
        "numberOfBytes": "1"
      },
      "t_bytes32": {
        "encoding": "inplace",
        "label": "bytes32",
        "numberOfBytes": "32"
      },
      "t_mapping(t_address,t_bool)": {
        "encoding": "mapping",
        "key": "t_address",
        "label": "mapping(address => bool)",
        "numberOfBytes": "32",
        "value": "t_bool"
      },
      "t_mapping(t_address,t_mapping(t_address,t_bool))": {
        "encoding": "mapping",
        "key": "t_address",
        "label": "mapping(address => mapping(address => bool))",
        "numberOfBytes": "32",
        "value": "t_mapping(t_address,t_bool)"
      },
      "t_mapping(t_address,t_mapping(t_uint256,t_uint256))": {
        "encoding": "mapping",
        "key": "t_address",
        "label": "mapping(address => mapping(uint256 => uint256))",
        "numberOfBytes": "32",
        "value": "t_mapping(t_uint256,t_uint256)"
      },
      "t_mapping(t_address,t_uint256)": {
        "encoding": "mapping",
        "key": "t_address",
        "label": "mapping(address => uint256)",
        "numberOfBytes": "32",
        "value": "t_uint256"
      },
      "t_mapping(t_bytes32,t_struct(RoleData)56_storage)": {
        "encoding": "mapping",
        "key": "t_bytes32",
        "label": "mapping(bytes32 => struct AccessControl.RoleData)",
        "numberOfBytes": "32",
        "value": "t_struct(RoleData)56_storage"
      },
      "t_mapping(t_uint256,t_address)": {
        "encoding": "mapping",
        "key": "t_uint256",
        "label": "mapping(uint256 => address)",
        "numberOfBytes": "32",
        "value": "t_address"
      },
      "t_mapping(t_uint256,t_bool)": {
        "encoding": "mapping",
        "key": "t_uint256",
        "label": "mapping(uint256 => bool)",
        "numberOfBytes": "32",
        "value": "t_bool"
      },
      "t_mapping(t_uint256,t_string_storage)": {
        "encoding": "mapping",
        "key": "t_uint256",
        "label": "mapping(uint256 => string)",
        "numberOfBytes": "32",
        "value": "t_string_storage"
      },
      "t_mapping(t_uint256,t_uint256)": {
        "encoding": "mapping",
        "key": "t_uint256",
        "label": "mapping(uint256 => uint256)",
        "numberOfBytes": "32",
        "value": "t_uint256"
      },
      "t_string_storage": {
        "encoding": "bytes",
        "label": "string",
        "numberOfBytes": "32"
      },
      "t_struct(Counter)2717_storage": {
        "encoding": "inplace",
        "label": "struct Counters.Counter",
        "members": [
          {
            "astId": 2716,
            "contract": "contracts/SnookToken.sol:SnookToken",
            "label": "_value",
            "offset": 0,
            "slot": "0",
            "type": "t_uint256"
          }
        ],
        "numberOfBytes": "32"
      },
      "t_struct(RoleData)56_storage": {
        "encoding": "inplace",
        "label": "struct AccessControl.RoleData",
        "members": [
          {
            "astId": 53,
            "contract": "contracts/SnookToken.sol:SnookToken",
            "label": "members",
            "offset": 0,
            "slot": "0",
            "type": "t_mapping(t_address,t_bool)"
          },
          {
            "astId": 55,
            "contract": "contracts/SnookToken.sol:SnookToken",
            "label": "adminRole",
            "offset": 0,
            "slot": "1",
            "type": "t_bytes32"
          }
        ],
        "numberOfBytes": "64"
      },
      "t_uint256": {
        "encoding": "inplace",
        "label": "uint256",
        "numberOfBytes": "32"
      }
    }
  }
}