{
  "address": "0x610178dA211FEF7D417bC0e6FeD39F05609AD788",
  "abi": [
    {
      "inputs": [
        {
          "internalType": "address",
          "name": "snook_",
          "type": "address"
        },
        {
          "internalType": "address",
          "name": "skill_",
          "type": "address"
        },
        {
          "internalType": "address",
          "name": "uniswap_",
          "type": "address"
        }
      ],
      "stateMutability": "nonpayable",
      "type": "constructor"
    },
    {
      "anonymous": false,
      "inputs": [
        {
          "indexed": true,
          "internalType": "address",
          "name": "to",
          "type": "address"
        },
        {
          "indexed": false,
          "internalType": "uint256",
          "name": "tokenId",
          "type": "uint256"
        }
      ],
      "name": "Birth",
      "type": "event"
    },
    {
      "anonymous": false,
      "inputs": [
        {
          "indexed": true,
          "internalType": "address",
          "name": "to",
          "type": "address"
        },
        {
          "indexed": false,
          "internalType": "uint256",
          "name": "tokenId",
          "type": "uint256"
        }
      ],
      "name": "Death",
      "type": "event"
    },
    {
      "anonymous": false,
      "inputs": [
        {
          "indexed": true,
          "internalType": "address",
          "name": "from",
          "type": "address"
        },
        {
          "indexed": false,
          "internalType": "uint256",
          "name": "tokenId",
          "type": "uint256"
        }
      ],
      "name": "Entrance",
      "type": "event"
    },
    {
      "anonymous": false,
      "inputs": [
        {
          "indexed": true,
          "internalType": "address",
          "name": "to",
          "type": "address"
        },
        {
          "indexed": false,
          "internalType": "uint256",
          "name": "tokenId",
          "type": "uint256"
        }
      ],
      "name": "Extraction",
      "type": "event"
    },
    {
      "anonymous": false,
      "inputs": [
        {
          "indexed": true,
          "internalType": "address",
          "name": "from",
          "type": "address"
        },
        {
          "indexed": false,
          "internalType": "uint256",
          "name": "tokenId",
          "type": "uint256"
        }
      ],
      "name": "GameAllowed",
      "type": "event"
    },
    {
      "anonymous": false,
      "inputs": [
        {
          "indexed": true,
          "internalType": "address",
          "name": "previousOwner",
          "type": "address"
        },
        {
          "indexed": true,
          "internalType": "address",
          "name": "newOwner",
          "type": "address"
        }
      ],
      "name": "OwnershipTransferred",
      "type": "event"
    },
    {
      "anonymous": false,
      "inputs": [
        {
          "indexed": true,
          "internalType": "address",
          "name": "from",
          "type": "address"
        },
        {
          "indexed": false,
          "internalType": "uint256",
          "name": "tokenId",
          "type": "uint256"
        }
      ],
      "name": "Ressurection",
      "type": "event"
    },
    {
      "inputs": [
        {
          "internalType": "uint256",
          "name": "tokenId",
          "type": "uint256"
        }
      ],
      "name": "allowGame",
      "outputs": [],
      "stateMutability": "nonpayable",
      "type": "function"
    },
    {
      "inputs": [],
      "name": "bury",
      "outputs": [],
      "stateMutability": "nonpayable",
      "type": "function"
    },
    {
      "inputs": [
        {
          "internalType": "uint256",
          "name": "tokenId",
          "type": "uint256"
        }
      ],
      "name": "describe",
      "outputs": [
        {
          "internalType": "uint256[]",
          "name": "traitIds",
          "type": "uint256[]"
        },
        {
          "internalType": "uint256",
          "name": "ressurectionPrice",
          "type": "uint256"
        },
        {
          "internalType": "uint256",
          "name": "ressurectionCount",
          "type": "uint256"
        }
      ],
      "stateMutability": "view",
      "type": "function"
    },
    {
      "inputs": [
        {
          "internalType": "uint256",
          "name": "tokenId",
          "type": "uint256"
        }
      ],
      "name": "enterGame",
      "outputs": [],
      "stateMutability": "nonpayable",
      "type": "function"
    },
    {
      "inputs": [
        {
          "internalType": "uint256",
          "name": "tokenId",
          "type": "uint256"
        },
        {
          "internalType": "uint256[]",
          "name": "traitIds",
          "type": "uint256[]"
        },
        {
          "internalType": "string",
          "name": "tokenURI_",
          "type": "string"
        }
      ],
      "name": "extractSnook",
      "outputs": [],
      "stateMutability": "nonpayable",
      "type": "function"
    },
    {
      "inputs": [
        {
          "internalType": "uint256[]",
          "name": "tokenIds",
          "type": "uint256[]"
        }
      ],
      "name": "extractSnooksWithoutUpdate",
      "outputs": [],
      "stateMutability": "nonpayable",
      "type": "function"
    },
    {
      "inputs": [
        {
          "internalType": "address",
          "name": "to",
          "type": "address"
        },
        {
          "internalType": "uint256[]",
          "name": "traitIds",
          "type": "uint256[]"
        },
        {
          "internalType": "string",
          "name": "tokenURI_",
          "type": "string"
        }
      ],
      "name": "mint",
      "outputs": [],
      "stateMutability": "nonpayable",
      "type": "function"
    },
    {
      "inputs": [],
      "name": "owner",
      "outputs": [
        {
          "internalType": "address",
          "name": "",
          "type": "address"
        }
      ],
      "stateMutability": "view",
      "type": "function"
    },
    {
      "inputs": [],
      "name": "renounceOwnership",
      "outputs": [],
      "stateMutability": "nonpayable",
      "type": "function"
    },
    {
      "inputs": [
        {
          "internalType": "uint256",
          "name": "tokenId",
          "type": "uint256"
        }
      ],
      "name": "ressurect",
      "outputs": [],
      "stateMutability": "nonpayable",
      "type": "function"
    },
    {
      "inputs": [
        {
          "internalType": "uint256",
          "name": "tokenId",
          "type": "uint256"
        },
        {
          "internalType": "uint256[]",
          "name": "onRessurectionTraitIds",
          "type": "uint256[]"
        },
        {
          "internalType": "string",
          "name": "onRessurectionTokenURI",
          "type": "string"
        }
      ],
      "name": "setDeathTime",
      "outputs": [],
      "stateMutability": "nonpayable",
      "type": "function"
    },
    {
      "inputs": [
        {
          "internalType": "address",
          "name": "newOwner",
          "type": "address"
        }
      ],
      "name": "transferOwnership",
      "outputs": [],
      "stateMutability": "nonpayable",
      "type": "function"
    }
  ],
  "transactionHash": "0xb7c807d14c50a03acf3880e6f83fbc620a45527470c718d9fd9b4dad48eb7ebb",
  "args": [
    "0x5FbDB2315678afecb367f032d93F642f64180aa3",
    "0xe7f1725E7734CE288F8367e1Bb143E90bb3F0512",
    "0x8A791620dd6260079BF849Dc5567aDC3F2FdC318"
  ],
  "solcInputHash": "e8c0e419bb249421199c096c6d4bdc5e",
  "bytecode": "0x60806040523480156200001157600080fd5b5060405162004996380380620049968339818101604052810190620000379190620001d2565b600062000049620001b360201b60201c565b9050806000806101000a81548173ffffffffffffffffffffffffffffffffffffffff021916908373ffffffffffffffffffffffffffffffffffffffff1602179055508073ffffffffffffffffffffffffffffffffffffffff16600073ffffffffffffffffffffffffffffffffffffffff167f8be0079c531659141344cd1fd0a4f28419497f9722a3daafe3b4186f6b6457e060405160405180910390a35082600160006101000a81548173ffffffffffffffffffffffffffffffffffffffff021916908373ffffffffffffffffffffffffffffffffffffffff16021790555081600260006101000a81548173ffffffffffffffffffffffffffffffffffffffff021916908373ffffffffffffffffffffffffffffffffffffffff16021790555080600360006101000a81548173ffffffffffffffffffffffffffffffffffffffff021916908373ffffffffffffffffffffffffffffffffffffffff16021790555050505062000276565b600033905090565b600081519050620001cc816200025c565b92915050565b600080600060608486031215620001e857600080fd5b6000620001f886828701620001bb565b93505060206200020b86828701620001bb565b92505060406200021e86828701620001bb565b9150509250925092565b600062000235826200023c565b9050919050565b600073ffffffffffffffffffffffffffffffffffffffff82169050919050565b620002678162000228565b81146200027357600080fd5b50565b61471080620002866000396000f3fe608060405234801561001057600080fd5b50600436106100b45760003560e01c80638da5cb5b116100715780638da5cb5b1461013d578063912774f11461015b578063b6ad335b14610177578063c430a96514610193578063f2fde38b146101af578063f7707537146101cb576100b4565b806343d6582b146100b95780634de6b94a146100d557806356f59a46146100f157806361161aae1461010d578063715018a6146101175780638bc1327914610121575b600080fd5b6100d360048036038101906100ce9190613b3c565b6101fd565b005b6100ef60048036038101906100ea9190613b8e565b610507565b005b61010b60048036038101906101069190613ad2565b6108eb565b005b6101156109d3565b005b61011f610d31565b005b61013b60048036038101906101369190613b8e565b610e6b565b005b6101456110e2565b6040516101529190614084565b60405180910390f35b61017560048036038101906101709190613b3c565b61110b565b005b610191600480360381019061018c9190613b3c565b6112a9565b005b6101ad60048036038101906101a89190613a53565b611758565b005b6101c960048036038101906101c49190613a01565b611c8b565b005b6101e560048036038101906101e09190613b3c565b611e34565b6040516101f49392919061412f565b60405180910390f35b610205611ff4565b73ffffffffffffffffffffffffffffffffffffffff166102236110e2565b73ffffffffffffffffffffffffffffffffffffffff1614610279576040517f08c379a0000000000000000000000000000000000000000000000000000000008152600401610270906141ed565b60405180910390fd5b600015156004600083815260200190815260200160002060050160009054906101000a900460ff161515146102e3576040517f08c379a00000000000000000000000000000000000000000000000000000000081526004016102da9061424d565b60405180910390fd5b600115156004600083815260200190815260200160002060070160009054906101000a900460ff1615151461034d576040517f08c379a0000000000000000000000000000000000000000000000000000000008152600401610344906141cd565b60405180910390fd5b600160009054906101000a900473ffffffffffffffffffffffffffffffffffffffff1673ffffffffffffffffffffffffffffffffffffffff1663346c94cf8260016040518363ffffffff1660e01b81526004016103ab9291906142e8565b600060405180830381600087803b1580156103c557600080fd5b505af11580156103d9573d6000803e3d6000fd5b5050505060016004600083815260200190815260200160002060050160006101000a81548160ff021916908315150217905550600160009054906101000a900473ffffffffffffffffffffffffffffffffffffffff1673ffffffffffffffffffffffffffffffffffffffff16636352211e826040518263ffffffff1660e01b815260040161046791906142cd565b60206040518083038186803b15801561047f57600080fd5b505afa158015610493573d6000803e3d6000fd5b505050506040513d601f19601f820116820180604052508101906104b79190613a2a565b73ffffffffffffffffffffffffffffffffffffffff167f1c0251a31b09c979bf5ff3067d4a40b935e1e8c6a0a4df1340f878ceb028f101826040516104fc91906142cd565b60405180910390a250565b61050f611ff4565b73ffffffffffffffffffffffffffffffffffffffff1661052d6110e2565b73ffffffffffffffffffffffffffffffffffffffff1614610583576040517f08c379a000000000000000000000000000000000000000000000000000000000815260040161057a906141ed565b60405180910390fd5b600115156004600085815260200190815260200160002060050160009054906101000a900460ff161515146105ed576040517f08c379a00000000000000000000000000000000000000000000000000000000081526004016105e4906141ad565b60405180910390fd5b6000600460008581526020019081526020016000206006015414610646576040517f08c379a000000000000000000000000000000000000000000000000000000000815260040161063d9061422d565b60405180910390fd5b600160009054906101000a900473ffffffffffffffffffffffffffffffffffffffff1673ffffffffffffffffffffffffffffffffffffffff1663162094c484836040518363ffffffff1660e01b81526004016106a3929190614311565b600060405180830381600087803b1580156106bd57600080fd5b505af11580156106d1573d6000803e3d6000fd5b50505050816004600085815260200190815260200160002060000190805190602001906106ff9291906136f7565b5060006004600085815260200190815260200160002060050160006101000a81548160ff02191690831515021790555060006004600085815260200190815260200160002060070160006101000a81548160ff021916908315150217905550600160009054906101000a900473ffffffffffffffffffffffffffffffffffffffff1673ffffffffffffffffffffffffffffffffffffffff1663346c94cf8460006040518363ffffffff1660e01b81526004016107bc9291906142e8565b600060405180830381600087803b1580156107d657600080fd5b505af11580156107ea573d6000803e3d6000fd5b50505050600160009054906101000a900473ffffffffffffffffffffffffffffffffffffffff1673ffffffffffffffffffffffffffffffffffffffff16636352211e846040518263ffffffff1660e01b815260040161084991906142cd565b60206040518083038186803b15801561086157600080fd5b505afa158015610875573d6000803e3d6000fd5b505050506040513d601f19601f820116820180604052508101906108999190613a2a565b73ffffffffffffffffffffffffffffffffffffffff167f7faed872658ab10c4f98b4705a343cb26b9739b37e202617569d97fb3ddb7ef9846040516108de91906142cd565b60405180910390a2505050565b6108f3611ff4565b73ffffffffffffffffffffffffffffffffffffffff166109116110e2565b73ffffffffffffffffffffffffffffffffffffffff1614610967576040517f08c379a000000000000000000000000000000000000000000000000000000000815260040161095e906141ed565b60405180910390fd5b60005b81518110156109cf576109bc8282815181106109af577f4e487b7100000000000000000000000000000000000000000000000000000000600052603260045260246000fd5b6020026020010151611ffc565b80806109c7906145ae565b91505061096a565b5050565b6109db611ff4565b73ffffffffffffffffffffffffffffffffffffffff166109f96110e2565b73ffffffffffffffffffffffffffffffffffffffff1614610a4f576040517f08c379a0000000000000000000000000000000000000000000000000000000008152600401610a46906141ed565b60405180910390fd5b60005b600160009054906101000a900473ffffffffffffffffffffffffffffffffffffffff1673ffffffffffffffffffffffffffffffffffffffff166318160ddd6040518163ffffffff1660e01b815260040160206040518083038186803b158015610aba57600080fd5b505afa158015610ace573d6000803e3d6000fd5b505050506040513d601f19601f82011682018060405250810190610af29190613b65565b811015610d2e576000600160009054906101000a900473ffffffffffffffffffffffffffffffffffffffff1673ffffffffffffffffffffffffffffffffffffffff16634f6ccce7836040518263ffffffff1660e01b8152600401610b5691906142cd565b60206040518083038186803b158015610b6e57600080fd5b505afa158015610b82573d6000803e3d6000fd5b505050506040513d601f19601f82011682018060405250810190610ba69190613b65565b9050600115156004600083815260200190815260200160002060050160009054906101000a900460ff161515148015610c015750610f3c42610be89190614468565b6004600083815260200190815260200160002060060154105b15610d1a57600160009054906101000a900473ffffffffffffffffffffffffffffffffffffffff1673ffffffffffffffffffffffffffffffffffffffff166342966c68826040518263ffffffff1660e01b8152600401610c6191906142cd565b600060405180830381600087803b158015610c7b57600080fd5b505af1158015610c8f573d6000803e3d6000fd5b505050506004600082815260200190815260200160002060008082016000610cb79190613744565b60018201600090556002820160009055600382016000610cd79190613744565b600482016000610ce79190613765565b6005820160006101000a81549060ff021916905560068201600090556007820160006101000a81549060ff021916905550505b508080610d26906145ae565b915050610a52565b50565b610d39611ff4565b73ffffffffffffffffffffffffffffffffffffffff16610d576110e2565b73ffffffffffffffffffffffffffffffffffffffff1614610dad576040517f08c379a0000000000000000000000000000000000000000000000000000000008152600401610da4906141ed565b60405180910390fd5b600073ffffffffffffffffffffffffffffffffffffffff1660008054906101000a900473ffffffffffffffffffffffffffffffffffffffff1673ffffffffffffffffffffffffffffffffffffffff167f8be0079c531659141344cd1fd0a4f28419497f9722a3daafe3b4186f6b6457e060405160405180910390a360008060006101000a81548173ffffffffffffffffffffffffffffffffffffffff021916908373ffffffffffffffffffffffffffffffffffffffff160217905550565b610e73611ff4565b73ffffffffffffffffffffffffffffffffffffffff16610e916110e2565b73ffffffffffffffffffffffffffffffffffffffff1614610ee7576040517f08c379a0000000000000000000000000000000000000000000000000000000008152600401610ede906141ed565b60405180910390fd5b600115156004600085815260200190815260200160002060050160009054906101000a900460ff16151514610f51576040517f08c379a0000000000000000000000000000000000000000000000000000000008152600401610f48906141ad565b60405180910390fd5b426004600085815260200190815260200160002060060181905550610f75836122a8565b600460008581526020019081526020016000206001018190555081600460008581526020019081526020016000206003019080519060200190610fb99291906136f7565b5080600460008581526020019081526020016000206004019080519060200190610fe49291906137a5565b50600160009054906101000a900473ffffffffffffffffffffffffffffffffffffffff1673ffffffffffffffffffffffffffffffffffffffff16636352211e846040518263ffffffff1660e01b815260040161104091906142cd565b60206040518083038186803b15801561105857600080fd5b505afa15801561106c573d6000803e3d6000fd5b505050506040513d601f19601f820116820180604052508101906110909190613a2a565b73ffffffffffffffffffffffffffffffffffffffff167fae995c79a88e396955e94cb3d6a80e56e1269ee8f5f9c3ab36de945cb05affbe846040516110d591906142cd565b60405180910390a2505050565b60008060009054906101000a900473ffffffffffffffffffffffffffffffffffffffff16905090565b6000600160009054906101000a900473ffffffffffffffffffffffffffffffffffffffff1673ffffffffffffffffffffffffffffffffffffffff16636352211e836040518263ffffffff1660e01b815260040161116891906142cd565b60206040518083038186803b15801561118057600080fd5b505afa158015611194573d6000803e3d6000fd5b505050506040513d601f19601f820116820180604052508101906111b89190613a2a565b90503373ffffffffffffffffffffffffffffffffffffffff168173ffffffffffffffffffffffffffffffffffffffff1614611228576040517f08c379a000000000000000000000000000000000000000000000000000000000815260040161121f9061428d565b60405180910390fd5b60016004600084815260200190815260200160002060070160006101000a81548160ff0219169083151502179055508073ffffffffffffffffffffffffffffffffffffffff167f12bae11c6883938b7e48a44cf253005c0ba036de7f6aa982ed3005597c7d13148360405161129d91906142cd565b60405180910390a25050565b6000600160009054906101000a900473ffffffffffffffffffffffffffffffffffffffff1673ffffffffffffffffffffffffffffffffffffffff16636352211e836040518263ffffffff1660e01b815260040161130691906142cd565b60206040518083038186803b15801561131e57600080fd5b505afa158015611332573d6000803e3d6000fd5b505050506040513d601f19601f820116820180604052508101906113569190613a2a565b90503373ffffffffffffffffffffffffffffffffffffffff168173ffffffffffffffffffffffffffffffffffffffff16146113c6576040517f08c379a00000000000000000000000000000000000000000000000000000000081526004016113bd9061426d565b60405180910390fd5b600060046000848152602001908152602001600020600601541161141f576040517f08c379a00000000000000000000000000000000000000000000000000000000081526004016114169061418d565b60405180910390fd5b600260009054906101000a900473ffffffffffffffffffffffffffffffffffffffff1673ffffffffffffffffffffffffffffffffffffffff166323b872dd823060046000878152602001908152602001600020600101546040518463ffffffff1660e01b81526004016114949392919061409f565b602060405180830381600087803b1580156114ae57600080fd5b505af11580156114c2573d6000803e3d6000fd5b505050506040513d601f19601f820116820180604052508101906114e69190613b13565b6114ef57600080fd5b60016004600084815260200190815260200160002060020160008282546115169190614468565b9250508190555060006004600084815260200190815260200160002060060181905550600160009054906101000a900473ffffffffffffffffffffffffffffffffffffffff1673ffffffffffffffffffffffffffffffffffffffff1663162094c483600460008681526020019081526020016000206004016040518363ffffffff1660e01b81526004016115ab929190614341565b600060405180830381600087803b1580156115c557600080fd5b505af11580156115d9573d6000803e3d6000fd5b50505050600460008381526020019081526020016000206003016004600084815260200190815260200160002060000190805461161792919061382b565b5060006004600084815260200190815260200160002060050160006101000a81548160ff02191690831515021790555060006004600084815260200190815260200160002060070160006101000a81548160ff021916908315150217905550600160009054906101000a900473ffffffffffffffffffffffffffffffffffffffff1673ffffffffffffffffffffffffffffffffffffffff1663346c94cf8360006040518363ffffffff1660e01b81526004016116d49291906142e8565b600060405180830381600087803b1580156116ee57600080fd5b505af1158015611702573d6000803e3d6000fd5b505050508073ffffffffffffffffffffffffffffffffffffffff167f635de93c531f71858abd0ece9557f458352b45f876b0810a46bd1adc0944a4298360405161174c91906142cd565b60405180910390a25050565b611760611ff4565b73ffffffffffffffffffffffffffffffffffffffff1661177e6110e2565b73ffffffffffffffffffffffffffffffffffffffff16146117d4576040517f08c379a00000000000000000000000000000000000000000000000000000000081526004016117cb906141ed565b60405180910390fd5b6000600360009054906101000a900473ffffffffffffffffffffffffffffffffffffffff1673ffffffffffffffffffffffffffffffffffffffff1663b7d002076040518163ffffffff1660e01b815260040160206040518083038186803b15801561183e57600080fd5b505afa158015611852573d6000803e3d6000fd5b505050506040513d601f19601f820116820180604052508101906118769190613b65565b9050600260009054906101000a900473ffffffffffffffffffffffffffffffffffffffff1673ffffffffffffffffffffffffffffffffffffffff166323b872dd8530846040518463ffffffff1660e01b81526004016118d79392919061409f565b602060405180830381600087803b1580156118f157600080fd5b505af1158015611905573d6000803e3d6000fd5b505050506040513d601f19601f820116820180604052508101906119299190613b13565b611968576040517f08c379a000000000000000000000000000000000000000000000000000000000815260040161195f906142ad565b60405180910390fd5b6000600160009054906101000a900473ffffffffffffffffffffffffffffffffffffffff1673ffffffffffffffffffffffffffffffffffffffff1663d0def52186856040518363ffffffff1660e01b81526004016119c79291906140d6565b602060405180830381600087803b1580156119e157600080fd5b505af11580156119f5573d6000803e3d6000fd5b505050506040513d601f19601f82011682018060405250810190611a199190613b65565b90506040518061010001604052808581526020016000815260200160008152602001600067ffffffffffffffff811115611a7c577f4e487b7100000000000000000000000000000000000000000000000000000000600052604160045260246000fd5b604051908082528060200260200182016040528015611aaa5781602001602082028036833780820191505090505b5081526020016040518060200160405280600081525081526020016000151581526020016000815260200160001515815250600460008381526020019081526020016000206000820151816000019080519060200190611b0b9291906136f7565b5060208201518160010155604082015181600201556060820151816003019080519060200190611b3c9291906136f7565b506080820151816004019080519060200190611b599291906137a5565b5060a08201518160050160006101000a81548160ff02191690831515021790555060c0820151816006015560e08201518160070160006101000a81548160ff021916908315150217905550905050600260009054906101000a900473ffffffffffffffffffffffffffffffffffffffff1673ffffffffffffffffffffffffffffffffffffffff16639dc29fac30846040518363ffffffff1660e01b8152600401611c04929190614106565b600060405180830381600087803b158015611c1e57600080fd5b505af1158015611c32573d6000803e3d6000fd5b505050508473ffffffffffffffffffffffffffffffffffffffff167fe3e9cb4c9675332e1e71c04808555c8071daa68327830cac01cc33d4087a64e982604051611c7c91906142cd565b60405180910390a25050505050565b611c93611ff4565b73ffffffffffffffffffffffffffffffffffffffff16611cb16110e2565b73ffffffffffffffffffffffffffffffffffffffff1614611d07576040517f08c379a0000000000000000000000000000000000000000000000000000000008152600401611cfe906141ed565b60405180910390fd5b600073ffffffffffffffffffffffffffffffffffffffff168173ffffffffffffffffffffffffffffffffffffffff161415611d77576040517f08c379a0000000000000000000000000000000000000000000000000000000008152600401611d6e9061416d565b60405180910390fd5b8073ffffffffffffffffffffffffffffffffffffffff1660008054906101000a900473ffffffffffffffffffffffffffffffffffffffff1673ffffffffffffffffffffffffffffffffffffffff167f8be0079c531659141344cd1fd0a4f28419497f9722a3daafe3b4186f6b6457e060405160405180910390a3806000806101000a81548173ffffffffffffffffffffffffffffffffffffffff021916908373ffffffffffffffffffffffffffffffffffffffff16021790555050565b60606000803373ffffffffffffffffffffffffffffffffffffffff16600160009054906101000a900473ffffffffffffffffffffffffffffffffffffffff1673ffffffffffffffffffffffffffffffffffffffff16636352211e866040518263ffffffff1660e01b8152600401611eab91906142cd565b60206040518083038186803b158015611ec357600080fd5b505afa158015611ed7573d6000803e3d6000fd5b505050506040513d601f19601f82011682018060405250810190611efb9190613a2a565b73ffffffffffffffffffffffffffffffffffffffff1614611f51576040517f08c379a0000000000000000000000000000000000000000000000000000000008152600401611f489061420d565b60405180910390fd5b600460008581526020019081526020016000206000016004600086815260200190815260200160002060010154600460008781526020019081526020016000206002015482805480602002602001604051908101604052809291908181526020018280548015611fe057602002820191906000526020600020905b815481526020019060010190808311611fcc575b505050505092509250925092509193909250565b600033905090565b600115156004600083815260200190815260200160002060050160009054906101000a900460ff16151514612066576040517f08c379a000000000000000000000000000000000000000000000000000000000815260040161205d906141ad565b60405180910390fd5b60006004600083815260200190815260200160002060060154146120bf576040517f08c379a00000000000000000000000000000000000000000000000000000000081526004016120b69061422d565b60405180910390fd5b60006004600083815260200190815260200160002060050160006101000a81548160ff02191690831515021790555060006004600083815260200190815260200160002060070160006101000a81548160ff021916908315150217905550600160009054906101000a900473ffffffffffffffffffffffffffffffffffffffff1673ffffffffffffffffffffffffffffffffffffffff1663346c94cf8260006040518363ffffffff1660e01b815260040161217b9291906142e8565b600060405180830381600087803b15801561219557600080fd5b505af11580156121a9573d6000803e3d6000fd5b50505050600160009054906101000a900473ffffffffffffffffffffffffffffffffffffffff1673ffffffffffffffffffffffffffffffffffffffff16636352211e826040518263ffffffff1660e01b815260040161220891906142cd565b60206040518083038186803b15801561222057600080fd5b505afa158015612234573d6000803e3d6000fd5b505050506040513d601f19601f820116820180604052508101906122589190613a2a565b73ffffffffffffffffffffffffffffffffffffffff167f7faed872658ab10c4f98b4705a343cb26b9739b37e202617569d97fb3ddb7ef98260405161229d91906142cd565b60405180910390a250565b6000600115156004600084815260200190815260200160002060050160009054906101000a900460ff16151514612314576040517f08c379a000000000000000000000000000000000000000000000000000000000815260040161230b906141ad565b60405180910390fd5b6000600360009054906101000a900473ffffffffffffffffffffffffffffffffffffffff1673ffffffffffffffffffffffffffffffffffffffff1663b7d002076040518163ffffffff1660e01b815260040160206040518083038186803b15801561237e57600080fd5b505afa158015612392573d6000803e3d6000fd5b505050506040513d601f19601f820116820180604052508101906123b69190613b65565b905060006123c3846123d8565b90506123cf818361281e565b92505050919050565b6000806123e560006128d9565b90506060600080600090505b600160009054906101000a900473ffffffffffffffffffffffffffffffffffffffff1673ffffffffffffffffffffffffffffffffffffffff166318160ddd6040518163ffffffff1660e01b815260040160206040518083038186803b15801561245957600080fd5b505afa15801561246d573d6000803e3d6000fd5b505050506040513d601f19601f820116820180604052508101906124919190613b65565b8110156126aa576000600160009054906101000a900473ffffffffffffffffffffffffffffffffffffffff1673ffffffffffffffffffffffffffffffffffffffff16634f6ccce7836040518263ffffffff1660e01b81526004016124f591906142cd565b60206040518083038186803b15801561250d57600080fd5b505afa158015612521573d6000803e3d6000fd5b505050506040513d601f19601f820116820180604052508101906125459190613b65565b90506004600082815260200190815260200160002060000180549050925082845110156125de578267ffffffffffffffff8111156125ac577f4e487b7100000000000000000000000000000000000000000000000000000000600052604160045260246000fd5b6040519080825280602002602001820160405280156125da5781602001602082028036833780820191505090505b5093505b61263d846001856125ef91906144be565b81518110612626577f4e487b7100000000000000000000000000000000000000000000000000000000600052603260045260246000fd5b602002602001015161263860016128d9565b6128fc565b8460018561264b91906144be565b81518110612682577f4e487b7100000000000000000000000000000000000000000000000000000000600052603260045260246000fd5b6020026020010190600f0b9081600f0b815250505080806126a2906145ae565b9150506123f1565b506004600086815260200190815260200160002060000180549050905060005b818110156127315761271c8484838151811061270f577f4e487b7100000000000000000000000000000000000000000000000000000000600052603260045260246000fd5b60200260200101516128fc565b93508080612729906145ae565b9150506126ca565b5060006127dc600160009054906101000a900473ffffffffffffffffffffffffffffffffffffffff1673ffffffffffffffffffffffffffffffffffffffff166318160ddd6040518163ffffffff1660e01b815260040160206040518083038186803b15801561279f57600080fd5b505afa1580156127b3573d6000803e3d6000fd5b505050506040513d601f19601f820116820180604052508101906127d79190613b65565b6128d9565b90506127e88482612963565b935060006127f5836128d9565b905061281261280386612a13565b61280d8384612a8c565b612a8c565b95505050505050919050565b60008082141561283157600090506128d3565b600083600f0b121561284257600080fd5b600060406fffffffffffffffffffffffffffffffff841685600f0b02901c90506000608084901c85600f0b02905077ffffffffffffffffffffffffffffffffffffffffffffffff81111561289557600080fd5b604081901b9050817fffffffffffffffffffffffffffffffffffffffffffffffffffffffffffffffff038111156128cb57600080fd5b818101925050505b92915050565b6000677fffffffffffffff8211156128f057600080fd5b604082901b9050919050565b60008082600f0b84600f0b0190507fffffffffffffffffffffffffffffffff80000000000000000000000000000000600f0b811215801561295057506f7fffffffffffffffffffffffffffffff600f0b8113155b61295957600080fd5b8091505092915050565b60008082600f0b141561297557600080fd5b600082600f0b604085600f0b901b816129b7577f4e487b7100000000000000000000000000000000000000000000000000000000600052601260045260246000fd5b0590507fffffffffffffffffffffffffffffffff80000000000000000000000000000000600f0b8112158015612a0057506f7fffffffffffffffffffffffffffffff600f0b8113155b612a0957600080fd5b8091505092915050565b60006840000000000000000082600f0b12612a2d57600080fd5b7fffffffffffffffffffffffffffffffffffffffffffffffc0000000000000000082600f0b1215612a615760009050612a87565b612a846080700171547652b82fe1777d0ffda0d23a7d1284600f0b02901d612af7565b90505b919050565b600080604083600f0b85600f0b02901d90507fffffffffffffffffffffffffffffffff80000000000000000000000000000000600f0b8112158015612ae457506f7fffffffffffffffffffffffffffffff600f0b8113155b612aed57600080fd5b8091505092915050565b60006840000000000000000082600f0b12612b1157600080fd5b7fffffffffffffffffffffffffffffffffffffffffffffffc0000000000000000082600f0b1215612b4557600090506136f2565b60006f80000000000000000000000000000000905060006780000000000000008416600f0b1315612b8b57608070016a09e667f3bcc908b2fb1366ea957d3e8202901c90505b60006740000000000000008416600f0b1315612bbc5760807001306fe0a31b7152de8d5a46305c85edec8202901c90505b60006720000000000000008416600f0b1315612bed5760807001172b83c7d517adcdf7c8c50eb14a791f8202901c90505b60006710000000000000008416600f0b1315612c1e57608070010b5586cf9890f6298b92b71842a983638202901c90505b60006708000000000000008416600f0b1315612c4f5760807001059b0d31585743ae7c548eb68ca417fd8202901c90505b60006704000000000000008416600f0b1315612c80576080700102c9a3e778060ee6f7caca4f7a29bde88202901c90505b60006702000000000000008416600f0b1315612cb157608070010163da9fb33356d84a66ae336dcdfa3f8202901c90505b60006701000000000000008416600f0b1315612ce2576080700100b1afa5abcbed6129ab13ec11dc95438202901c90505b600066800000000000008416600f0b1315612d1257608070010058c86da1c09ea1ff19d294cf2f679b8202901c90505b600066400000000000008416600f0b1315612d425760807001002c605e2e8cec506d21bfc89a23a00f8202901c90505b600066200000000000008416600f0b1315612d72576080700100162f3904051fa128bca9c55c31e5df8202901c90505b600066100000000000008416600f0b1315612da25760807001000b175effdc76ba38e31671ca9397258202901c90505b600066080000000000008416600f0b1315612dd2576080700100058ba01fb9f96d6cacd4b180917c3d8202901c90505b600066040000000000008416600f0b1315612e0257608070010002c5cc37da9491d0985c348c68e7b38202901c90505b600066020000000000008416600f0b1315612e325760807001000162e525ee054754457d59952920268202901c90505b600066010000000000008416600f0b1315612e6257608070010000b17255775c040618bf4a4ade83fc8202901c90505b6000658000000000008416600f0b1315612e915760807001000058b91b5bc9ae2eed81e9b7d4cfab8202901c90505b6000654000000000008416600f0b1315612ec0576080700100002c5c89d5ec6ca4d7c8acc017b7c98202901c90505b6000652000000000008416600f0b1315612eef57608070010000162e43f4f831060e02d839a9d16d8202901c90505b6000651000000000008416600f0b1315612f1e576080700100000b1721bcfc99d9f890ea069117638202901c90505b6000650800000000008416600f0b1315612f4d57608070010000058b90cf1e6d97f9ca14dbcc16288202901c90505b6000650400000000008416600f0b1315612f7c5760807001000002c5c863b73f016468f6bac5ca2b8202901c90505b6000650200000000008416600f0b1315612fab576080700100000162e430e5a18f6119e3c02282a58202901c90505b6000650100000000008416600f0b1315612fda5760807001000000b1721835514b86e6d96efd1bfe8202901c90505b60006480000000008416600f0b1315613008576080700100000058b90c0b48c6be5df846c5b2ef8202901c90505b60006440000000008416600f0b131561303657608070010000002c5c8601cc6b9e94213c72737a8202901c90505b60006420000000008416600f0b13156130645760807001000000162e42fff037df38aa2b219f068202901c90505b60006410000000008416600f0b131561309257608070010000000b17217fba9c739aa5819f44f98202901c90505b60006408000000008416600f0b13156130c05760807001000000058b90bfcdee5acd3c1cedc8238202901c90505b60006404000000008416600f0b13156130ee576080700100000002c5c85fe31f35a6a30da1be508202901c90505b60006402000000008416600f0b131561311c57608070010000000162e42ff0999ce3541b9fffcf8202901c90505b60006401000000008416600f0b131561314a576080700100000000b17217f80f4ef5aadda455548202901c90505b600063800000008416600f0b131561317757608070010000000058b90bfbf8479bd5a81b51ad8202901c90505b600063400000008416600f0b13156131a45760807001000000002c5c85fdf84bd62ae30a74cc8202901c90505b600063200000008416600f0b13156131d1576080700100000000162e42fefb2fed257559bdaa8202901c90505b600063100000008416600f0b13156131fe5760807001000000000b17217f7d5a7716bba4a9ae8202901c90505b600063080000008416600f0b131561322b576080700100000000058b90bfbe9ddbac5e109cce8202901c90505b600063040000008416600f0b131561325857608070010000000002c5c85fdf4b15de6f17eb0d8202901c90505b600063020000008416600f0b13156132855760807001000000000162e42fefa494f1478fde058202901c90505b600063010000008416600f0b13156132b257608070010000000000b17217f7d20cf927c8e94c8202901c90505b6000628000008416600f0b13156132de5760807001000000000058b90bfbe8f71cb4e4b33d8202901c90505b6000624000008416600f0b131561330a576080700100000000002c5c85fdf477b662b269458202901c90505b6000622000008416600f0b131561333657608070010000000000162e42fefa3ae53369388c8202901c90505b6000621000008416600f0b1315613362576080700100000000000b17217f7d1d351a389d408202901c90505b6000620800008416600f0b131561338e57608070010000000000058b90bfbe8e8b2d3d4ede8202901c90505b6000620400008416600f0b13156133ba5760807001000000000002c5c85fdf4741bea6e77e8202901c90505b6000620200008416600f0b13156133e6576080700100000000000162e42fefa39fe95583c28202901c90505b6000620100008416600f0b13156134125760807001000000000000b17217f7d1cfb72b45e18202901c90505b60006180008416600f0b131561343d576080700100000000000058b90bfbe8e7cc35c3f08202901c90505b60006140008416600f0b131561346857608070010000000000002c5c85fdf473e242ea388202901c90505b60006120008416600f0b13156134935760807001000000000000162e42fefa39f02b772c8202901c90505b60006110008416600f0b13156134be57608070010000000000000b17217f7d1cf7d83c1a8202901c90505b60006108008416600f0b13156134e95760807001000000000000058b90bfbe8e7bdcbe2e8202901c90505b60006104008416600f0b1315613514576080700100000000000002c5c85fdf473dea871f8202901c90505b60006102008416600f0b131561353f57608070010000000000000162e42fefa39ef44d918202901c90505b60006101008416600f0b131561356a576080700100000000000000b17217f7d1cf79e9498202901c90505b600060808416600f0b131561359457608070010000000000000058b90bfbe8e7bce5448202901c90505b600060408416600f0b13156135be5760807001000000000000002c5c85fdf473de6eca8202901c90505b600060208416600f0b13156135e8576080700100000000000000162e42fefa39ef366f8202901c90505b600060108416600f0b13156136125760807001000000000000000b17217f7d1cf79afa8202901c90505b600060088416600f0b131561363c576080700100000000000000058b90bfbe8e7bcd6d8202901c90505b600060048416600f0b131561366657608070010000000000000002c5c85fdf473de6b28202901c90505b600060028416600f0b13156136905760807001000000000000000162e42fefa39ef3588202901c90505b600060018416600f0b13156136ba57608070010000000000000000b17217f7d1cf79ab8202901c90505b604083600f0b901d603f03600f0b81901c90506f7fffffffffffffffffffffffffffffff600f0b8111156136ed57600080fd5b809150505b919050565b828054828255906000526020600020908101928215613733579160200282015b82811115613732578251825591602001919060010190613717565b5b509050613740919061387d565b5090565b5080546000825590600052602060002090810190613762919061387d565b50565b5080546137719061457c565b6000825580601f1061378357506137a2565b601f0160209004906000526020600020908101906137a1919061387d565b5b50565b8280546137b19061457c565b90600052602060002090601f0160209004810192826137d3576000855561381a565b82601f106137ec57805160ff191683800117855561381a565b8280016001018555821561381a579182015b828111156138195782518255916020019190600101906137fe565b5b509050613827919061387d565b5090565b82805482825590600052602060002090810192821561386c5760005260206000209182015b8281111561386b578254825591600101919060010190613850565b5b509050613879919061387d565b5090565b5b8082111561389657600081600090555060010161387e565b5090565b60006138ad6138a8846143a2565b614371565b905080838252602082019050828560208602820111156138cc57600080fd5b60005b858110156138fc57816138e288826139d7565b8452602084019350602083019250506001810190506138cf565b5050509392505050565b6000613919613914846143ce565b614371565b90508281526020810184848401111561393157600080fd5b61393c84828561453a565b509392505050565b60008135905061395381614695565b92915050565b60008151905061396881614695565b92915050565b600082601f83011261397f57600080fd5b813561398f84826020860161389a565b91505092915050565b6000815190506139a7816146ac565b92915050565b600082601f8301126139be57600080fd5b81356139ce848260208601613906565b91505092915050565b6000813590506139e6816146c3565b92915050565b6000815190506139fb816146c3565b92915050565b600060208284031215613a1357600080fd5b6000613a2184828501613944565b91505092915050565b600060208284031215613a3c57600080fd5b6000613a4a84828501613959565b91505092915050565b600080600060608486031215613a6857600080fd5b6000613a7686828701613944565b935050602084013567ffffffffffffffff811115613a9357600080fd5b613a9f8682870161396e565b925050604084013567ffffffffffffffff811115613abc57600080fd5b613ac8868287016139ad565b9150509250925092565b600060208284031215613ae457600080fd5b600082013567ffffffffffffffff811115613afe57600080fd5b613b0a8482850161396e565b91505092915050565b600060208284031215613b2557600080fd5b6000613b3384828501613998565b91505092915050565b600060208284031215613b4e57600080fd5b6000613b5c848285016139d7565b91505092915050565b600060208284031215613b7757600080fd5b6000613b85848285016139ec565b91505092915050565b600080600060608486031215613ba357600080fd5b6000613bb1868287016139d7565b935050602084013567ffffffffffffffff811115613bce57600080fd5b613bda8682870161396e565b925050604084013567ffffffffffffffff811115613bf757600080fd5b613c03868287016139ad565b9150509250925092565b6000613c198383614066565b60208301905092915050565b613c2e816144f2565b82525050565b6000613c3f82614423565b613c498185614446565b9350613c54836143fe565b8060005b83811015613c85578151613c6c8882613c0d565b9750613c7783614439565b925050600181019050613c58565b5085935050505092915050565b613c9b81614504565b82525050565b6000613cac8261442e565b613cb68185614457565b9350613cc6818560208601614549565b613ccf81614684565b840191505092915050565b60008154613ce78161457c565b613cf18186614457565b94506001821660008114613d0c5760018114613d1e57613d51565b60ff1983168652602086019350613d51565b613d278561440e565b60005b83811015613d4957815481890152600182019150602081019050613d2a565b808801955050505b50505092915050565b6000613d67602683614457565b91507f4f776e61626c653a206e6577206f776e657220697320746865207a65726f206160008301527f64647265737300000000000000000000000000000000000000000000000000006020830152604082019050919050565b6000613dcd601183614457565b91507f536e6f6f6b206973206e6f7420646561640000000000000000000000000000006000830152602082019050919050565b6000613e0d601483614457565b91507f536e6f6f6b206973206e6f7420696e20706c61790000000000000000000000006000830152602082019050919050565b6000613e4d602083614457565b91507f536e6f6f6b206973206e6f7420616c6c6f77656420666f7220706c6179696e676000830152602082019050919050565b6000613e8d602083614457565b91507f4f776e61626c653a2063616c6c6572206973206e6f7420746865206f776e65726000830152602082019050919050565b6000613ecd601b83614457565b91507f4f6e6c7920746f6b656e206f776e6572206861732061636365737300000000006000830152602082019050919050565b6000613f0d600d83614457565b91507f536e6f6f6b2069732064656164000000000000000000000000000000000000006000830152602082019050919050565b6000613f4d601883614457565b91507f536e6f6f6b20697320616c726561647920696e20706c617900000000000000006000830152602082019050919050565b6000613f8d602983614457565b91507f4f6e6c7920736e6f6f6b206f776e65722063616e20726573737572656374206460008301527f65616420736e6f6f6b00000000000000000000000000000000000000000000006020830152604082019050919050565b6000613ff3600f83614457565b91507f4e6f7420746f6b656e206f776e657200000000000000000000000000000000006000830152602082019050919050565b6000614033601c83614457565b91507f4e6f7420656e6f7567682066756e647320666f72206d696e74696e67000000006000830152602082019050919050565b61406f81614530565b82525050565b61407e81614530565b82525050565b60006020820190506140996000830184613c25565b92915050565b60006060820190506140b46000830186613c25565b6140c16020830185613c25565b6140ce6040830184614075565b949350505050565b60006040820190506140eb6000830185613c25565b81810360208301526140fd8184613ca1565b90509392505050565b600060408201905061411b6000830185613c25565b6141286020830184614075565b9392505050565b600060608201905081810360008301526141498186613c34565b90506141586020830185614075565b6141656040830184614075565b949350505050565b6000602082019050818103600083015261418681613d5a565b9050919050565b600060208201905081810360008301526141a681613dc0565b9050919050565b600060208201905081810360008301526141c681613e00565b9050919050565b600060208201905081810360008301526141e681613e40565b9050919050565b6000602082019050818103600083015261420681613e80565b9050919050565b6000602082019050818103600083015261422681613ec0565b9050919050565b6000602082019050818103600083015261424681613f00565b9050919050565b6000602082019050818103600083015261426681613f40565b9050919050565b6000602082019050818103600083015261428681613f80565b9050919050565b600060208201905081810360008301526142a681613fe6565b9050919050565b600060208201905081810360008301526142c681614026565b9050919050565b60006020820190506142e26000830184614075565b92915050565b60006040820190506142fd6000830185614075565b61430a6020830184613c92565b9392505050565b60006040820190506143266000830185614075565b81810360208301526143388184613ca1565b90509392505050565b60006040820190506143566000830185614075565b81810360208301526143688184613cda565b90509392505050565b6000604051905081810181811067ffffffffffffffff8211171561439857614397614655565b5b8060405250919050565b600067ffffffffffffffff8211156143bd576143bc614655565b5b602082029050602081019050919050565b600067ffffffffffffffff8211156143e9576143e8614655565b5b601f19601f8301169050602081019050919050565b6000819050602082019050919050565b60008190508160005260206000209050919050565b600081519050919050565b600081519050919050565b6000602082019050919050565b600082825260208201905092915050565b600082825260208201905092915050565b600061447382614530565b915061447e83614530565b9250827fffffffffffffffffffffffffffffffffffffffffffffffffffffffffffffffff038211156144b3576144b26145f7565b5b828201905092915050565b60006144c982614530565b91506144d483614530565b9250828210156144e7576144e66145f7565b5b828203905092915050565b60006144fd82614510565b9050919050565b60008115159050919050565b600073ffffffffffffffffffffffffffffffffffffffff82169050919050565b6000819050919050565b82818337600083830152505050565b60005b8381101561456757808201518184015260208101905061454c565b83811115614576576000848401525b50505050565b6000600282049050600182168061459457607f821691505b602082108114156145a8576145a7614626565b5b50919050565b60006145b982614530565b91507fffffffffffffffffffffffffffffffffffffffffffffffffffffffffffffffff8214156145ec576145eb6145f7565b5b600182019050919050565b7f4e487b7100000000000000000000000000000000000000000000000000000000600052601160045260246000fd5b7f4e487b7100000000000000000000000000000000000000000000000000000000600052602260045260246000fd5b7f4e487b7100000000000000000000000000000000000000000000000000000000600052604160045260246000fd5b6000601f19601f8301169050919050565b61469e816144f2565b81146146a957600080fd5b50565b6146b581614504565b81146146c057600080fd5b50565b6146cc81614530565b81146146d757600080fd5b5056fea2646970667358221220ed0cd7d12cb5f58de70bb60fe929c3c1dd1601830e005353effaae1e4206847564736f6c63430008000033",
  "devdoc": {
    "kind": "dev",
    "methods": {
      "owner()": {
        "details": "Returns the address of the current owner."
      },
      "renounceOwnership()": {
        "details": "Leaves the contract without owner. It will not be possible to call `onlyOwner` functions anymore. Can only be called by the current owner. NOTE: Renouncing ownership will leave the contract without an owner, thereby removing any functionality that is only available to the owner."
      },
      "transferOwnership(address)": {
        "details": "Transfers ownership of the contract to a new account (`newOwner`). Can only be called by the current owner."
      }
    },
    "version": 1
  },
  "userdoc": {
    "kind": "user",
    "methods": {},
    "version": 1
  },
  "storageLayout": {
    "storage": [
      {
        "astId": 330,
        "contract": "contracts/SnookGame.sol:SnookGame",
        "label": "_owner",
        "offset": 0,
        "slot": "0",
        "type": "t_address"
      },
      {
        "astId": 6477,
        "contract": "contracts/SnookGame.sol:SnookGame",
        "label": "_snook",
        "offset": 0,
        "slot": "1",
        "type": "t_contract(SnookToken)7560"
      },
      {
        "astId": 6480,
        "contract": "contracts/SnookGame.sol:SnookGame",
        "label": "_skill",
        "offset": 0,
        "slot": "2",
        "type": "t_contract(SkillToken)6416"
      },
      {
        "astId": 6483,
        "contract": "contracts/SnookGame.sol:SnookGame",
        "label": "_uniswap",
        "offset": 0,
        "slot": "3",
        "type": "t_contract(IUiniswapUSDCSkill)6348"
      },
      {
        "astId": 6507,
        "contract": "contracts/SnookGame.sol:SnookGame",
        "label": "_descriptors",
        "offset": 0,
        "slot": "4",
        "type": "t_mapping(t_uint256,t_struct(Descriptor)6502_storage)"
      }
    ],
    "types": {
      "t_address": {
        "encoding": "inplace",
        "label": "address",
        "numberOfBytes": "20"
      },
      "t_array(t_uint256)dyn_storage": {
        "base": "t_uint256",
        "encoding": "dynamic_array",
        "label": "uint256[]",
        "numberOfBytes": "32"
      },
      "t_bool": {
        "encoding": "inplace",
        "label": "bool",
        "numberOfBytes": "1"
      },
      "t_contract(IUiniswapUSDCSkill)6348": {
        "encoding": "inplace",
        "label": "contract IUiniswapUSDCSkill",
        "numberOfBytes": "20"
      },
      "t_contract(SkillToken)6416": {
        "encoding": "inplace",
        "label": "contract SkillToken",
        "numberOfBytes": "20"
      },
      "t_contract(SnookToken)7560": {
        "encoding": "inplace",
        "label": "contract SnookToken",
        "numberOfBytes": "20"
      },
      "t_mapping(t_uint256,t_struct(Descriptor)6502_storage)": {
        "encoding": "mapping",
        "key": "t_uint256",
        "label": "mapping(uint256 => struct SnookGame.Descriptor)",
        "numberOfBytes": "32",
        "value": "t_struct(Descriptor)6502_storage"
      },
      "t_string_storage": {
        "encoding": "bytes",
        "label": "string",
        "numberOfBytes": "32"
      },
      "t_struct(Descriptor)6502_storage": {
        "encoding": "inplace",
        "label": "struct SnookGame.Descriptor",
        "members": [
          {
            "astId": 6486,
            "contract": "contracts/SnookGame.sol:SnookGame",
            "label": "traitIds",
            "offset": 0,
            "slot": "0",
            "type": "t_array(t_uint256)dyn_storage"
          },
          {
            "astId": 6488,
            "contract": "contracts/SnookGame.sol:SnookGame",
            "label": "ressurectionPrice",
            "offset": 0,
            "slot": "1",
            "type": "t_uint256"
          },
          {
            "astId": 6490,
            "contract": "contracts/SnookGame.sol:SnookGame",
            "label": "ressurectionCount",
            "offset": 0,
            "slot": "2",
            "type": "t_uint256"
          },
          {
            "astId": 6493,
            "contract": "contracts/SnookGame.sol:SnookGame",
            "label": "onRessurectionTraitIds",
            "offset": 0,
            "slot": "3",
            "type": "t_array(t_uint256)dyn_storage"
          },
          {
            "astId": 6495,
            "contract": "contracts/SnookGame.sol:SnookGame",
            "label": "onRessurectionTokenURI",
            "offset": 0,
            "slot": "4",
            "type": "t_string_storage"
          },
          {
            "astId": 6497,
            "contract": "contracts/SnookGame.sol:SnookGame",
            "label": "ingame",
            "offset": 0,
            "slot": "5",
            "type": "t_bool"
          },
          {
            "astId": 6499,
            "contract": "contracts/SnookGame.sol:SnookGame",
            "label": "deathTime",
            "offset": 0,
            "slot": "6",
            "type": "t_uint256"
          },
          {
            "astId": 6501,
            "contract": "contracts/SnookGame.sol:SnookGame",
            "label": "gameAllowed",
            "offset": 0,
            "slot": "7",
            "type": "t_bool"
          }
        ],
        "numberOfBytes": "256"
      },
      "t_uint256": {
        "encoding": "inplace",
        "label": "uint256",
        "numberOfBytes": "32"
      }
    }
  }
}