{
  "address": "0x4569F997E4314E924fdBf21617FB6dc6fEcD3DcA",
  "abi": [
    {
      "anonymous": false,
      "inputs": [
        {
          "indexed": false,
          "internalType": "uint256",
          "name": "startIdx",
          "type": "uint256"
        },
        {
          "indexed": false,
          "internalType": "uint256",
          "name": "endIdx",
          "type": "uint256"
        }
      ],
      "name": "Bury",
      "type": "event"
    },
    {
      "anonymous": false,
      "inputs": [
        {
          "indexed": true,
          "internalType": "address",
          "name": "from",
          "type": "address"
        },
        {
          "indexed": false,
          "internalType": "uint256",
          "name": "tokenId",
          "type": "uint256"
        }
      ],
      "name": "Resurrection",
      "type": "event"
    },
    {
      "inputs": [],
      "name": "LIVES_PER_SNOOK_ON_RESURRECTION",
      "outputs": [
        {
          "internalType": "uint256",
          "name": "",
          "type": "uint256"
        }
      ],
      "stateMutability": "view",
      "type": "function"
    },
    {
      "inputs": [
        {
          "internalType": "uint256",
          "name": "requestedBurials",
          "type": "uint256"
        }
      ],
      "name": "bury",
      "outputs": [],
      "stateMutability": "nonpayable",
      "type": "function"
    },
    {
      "inputs": [],
      "name": "getAliveSnookCount",
      "outputs": [
        {
          "internalType": "uint256",
          "name": "",
          "type": "uint256"
        }
      ],
      "stateMutability": "view",
      "type": "function"
    },
    {
      "inputs": [],
      "name": "getBurialDelayInSeconds",
      "outputs": [
        {
          "internalType": "uint256",
          "name": "",
          "type": "uint256"
        }
      ],
      "stateMutability": "view",
      "type": "function"
    },
    {
      "inputs": [
        {
          "internalType": "uint256",
          "name": "startIdx",
          "type": "uint256"
        },
        {
          "internalType": "uint256",
          "name": "endIdx",
          "type": "uint256"
        }
      ],
      "name": "getMorgue",
      "outputs": [
        {
          "internalType": "uint256[]",
          "name": "",
          "type": "uint256[]"
        }
      ],
      "stateMutability": "view",
      "type": "function"
    },
    {
      "inputs": [],
      "name": "getMorgueLength",
      "outputs": [
        {
          "internalType": "uint256",
          "name": "",
          "type": "uint256"
        }
      ],
      "stateMutability": "view",
      "type": "function"
    },
    {
      "inputs": [
        {
          "internalType": "uint256",
          "name": "startIdx",
          "type": "uint256"
        },
        {
          "internalType": "uint256",
          "name": "endIdx",
          "type": "uint256"
        }
      ],
      "name": "getRemovedFromMorgue",
      "outputs": [
        {
          "internalType": "uint256[]",
          "name": "",
          "type": "uint256[]"
        }
      ],
      "stateMutability": "view",
      "type": "function"
    },
    {
      "inputs": [],
      "name": "getRemovedFromMorgueLength",
      "outputs": [
        {
          "internalType": "uint256",
          "name": "",
          "type": "uint256"
        }
      ],
      "stateMutability": "view",
      "type": "function"
    },
    {
      "inputs": [
        {
          "internalType": "uint256",
          "name": "tokenId",
          "type": "uint256"
        }
      ],
      "name": "getResurrectionPrice",
      "outputs": [
        {
          "internalType": "uint256",
          "name": "",
          "type": "uint256"
        }
      ],
      "stateMutability": "view",
      "type": "function"
    },
    {
      "inputs": [],
      "name": "getSNKAddress",
      "outputs": [
        {
          "internalType": "address",
          "name": "",
          "type": "address"
        }
      ],
      "stateMutability": "view",
      "type": "function"
    },
    {
      "inputs": [],
      "name": "getSNOOKAddress",
      "outputs": [
        {
          "internalType": "address",
          "name": "",
          "type": "address"
        }
      ],
      "stateMutability": "view",
      "type": "function"
    },
    {
      "inputs": [],
      "name": "getSnookGameAddress",
      "outputs": [
        {
          "internalType": "address",
          "name": "",
          "type": "address"
        }
      ],
      "stateMutability": "view",
      "type": "function"
    },
    {
      "inputs": [],
      "name": "getSnookStateAddress",
      "outputs": [
        {
          "internalType": "address",
          "name": "",
          "type": "address"
        }
      ],
      "stateMutability": "view",
      "type": "function"
    },
    {
      "inputs": [],
      "name": "getTraitHist",
      "outputs": [
        {
          "internalType": "uint64[]",
          "name": "",
          "type": "uint64[]"
        }
      ],
      "stateMutability": "view",
      "type": "function"
    },
    {
      "inputs": [],
      "name": "getTreasuryAddress",
      "outputs": [
        {
          "internalType": "address",
          "name": "",
          "type": "address"
        }
      ],
      "stateMutability": "view",
      "type": "function"
    },
    {
      "inputs": [],
      "name": "getUniswapUSDCSkillAddress",
      "outputs": [
        {
          "internalType": "address",
          "name": "",
          "type": "address"
        }
      ],
      "stateMutability": "view",
      "type": "function"
    },
    {
      "inputs": [
        {
          "internalType": "address",
          "name": "state",
          "type": "address"
        },
        {
          "internalType": "address",
          "name": "skill",
          "type": "address"
        },
        {
          "internalType": "address",
          "name": "snook",
          "type": "address"
        },
        {
          "internalType": "address",
          "name": "uniswap",
          "type": "address"
        },
        {
          "internalType": "address",
          "name": "treasury",
          "type": "address"
        },
        {
          "internalType": "address",
          "name": "game",
          "type": "address"
        },
        {
          "internalType": "uint256",
          "name": "BurialDelayInSeconds",
          "type": "uint256"
        }
      ],
      "name": "initialize",
      "outputs": [],
      "stateMutability": "nonpayable",
      "type": "function"
    },
    {
      "inputs": [
        {
          "internalType": "uint256",
          "name": "tokenId",
          "type": "uint256"
        }
      ],
      "name": "resurrect",
      "outputs": [],
      "stateMutability": "nonpayable",
      "type": "function"
    },
    {
      "inputs": [
        {
          "internalType": "uint256",
          "name": "tokenId",
          "type": "uint256"
        }
      ],
      "name": "toMorgue",
      "outputs": [],
      "stateMutability": "nonpayable",
      "type": "function"
    },
    {
      "inputs": [
        {
          "internalType": "uint256",
          "name": "count",
          "type": "uint256"
        }
      ],
      "name": "updateAliveSnookCount",
      "outputs": [],
      "stateMutability": "nonpayable",
      "type": "function"
    },
    {
      "inputs": [
        {
          "internalType": "uint256",
          "name": "traitCount",
          "type": "uint256"
        }
      ],
      "name": "updateOnDeath",
      "outputs": [],
      "stateMutability": "nonpayable",
      "type": "function"
    },
    {
      "inputs": [
        {
          "internalType": "uint256",
          "name": "onGameEntryTraitCount",
          "type": "uint256"
        },
        {
          "internalType": "uint256",
          "name": "traitCount",
          "type": "uint256"
        }
      ],
      "name": "updateOnExtraction",
      "outputs": [],
      "stateMutability": "nonpayable",
      "type": "function"
    },
    {
      "inputs": [
        {
          "internalType": "uint256",
          "name": "traitCount",
          "type": "uint256"
        },
        {
          "internalType": "uint256",
          "name": "snookCount",
          "type": "uint256"
        }
      ],
      "name": "updateOnMint",
      "outputs": [],
      "stateMutability": "nonpayable",
      "type": "function"
    }
  ],
  "transactionHash": "0xd7eaef25b72e3aa3ca681d2503412966cee4062c1922780c955f40cbaead1e93",
  "args": [],
  "solcInputHash": "773758c6cb7796fc33376193135cc715",
  "bytecode": "0x608060405234801561001057600080fd5b50612d9d806100206000396000f3fe608060405234801561001057600080fd5b506004361061014d5760003560e01c80638765c91f116100c3578063cab85f371161007c578063cab85f3714610271578063e002460414610279578063e0a87cfb14610281578063e9b1d66414610289578063eb427dcf1461029c578063f61fef74146102af5761014d565b80638765c91f14610220578063938ce1f714610228578063a5a2295c14610230578063abf74d5f14610243578063bde28ef514610256578063c97bafe11461025e5761014d565b80632fd6a344116101155780632fd6a344146101c25780634b6d2b82146101d757806352691516146101df5780637a9aa2b0146101f25780637e99a74e146101fa578063811c2bab1461020d5761014d565b80630b751db5146101525780631460e3901461017057806317971ca01461018557806323d0b9e41461019a57806329b54832146101a2575b600080fd5b61015a6102c2565b60405161016791906128be565b60405180910390f35b61018361017e366004612685565b6102d1565b005b61018d61042d565b6040516101679190612afc565b61015a610433565b6101b56101b036600461286b565b610442565b604051610167919061290f565b6101ca610557565b6040516101679190612953565b61018d61065b565b6101836101ed36600461286b565b610661565b61015a6106af565b61018d61020836600461283b565b6106be565b61018361021b36600461283b565b610779565b61015a610ce2565b61018d610cf7565b6101b561023e36600461286b565b610cfd565b61018361025136600461283b565b610e08565b61018d6111d2565b61018361026c36600461286b565b6111d7565b61015a61120f565b61015a61121e565b61018d61122d565b61018361029736600461283b565b611233565b6101836102aa36600461283b565b61126b565b6101836102bd36600461283b565b6112ca565b6003546001600160a01b031690565b600054610100900460ff16806102ea575060005460ff16155b61030f5760405162461bcd60e51b8152600401610306906129f9565b60405180910390fd5b600054610100900460ff1615801561033a576000805460ff1961ff0019909116610100171660011790555b600180546001600160a01b03199081166001600160a01b038b8116919091179092556002805482168984161790556003805482168a84161790556000805462010000600160b01b031916620100008985160217815560068054831688851617905560078054909216928616929092179055600583905560408051918252602082019081905290516103cd916009916124e4565b506000600a81905560408051918252602082019081905290516103f291600b9161259f565b50604080516000815260208101918290525161041091600c9161259f565b508015610423576000805461ff00191690555b5050505050505050565b600c5490565b6002546001600160a01b031690565b6060600c54821115801561045557508183105b6104715760405162461bcd60e51b815260040161030690612ac5565b600061047d8484612cc4565b67ffffffffffffffff8111156104a357634e487b7160e01b600052604160045260246000fd5b6040519080825280602002602001820160405280156104cc578160200160208202803683370190505b509050835b8381101561054d57600c81815481106104fa57634e487b7160e01b600052603260045260246000fd5b90600052602060002001548286836105129190612cc4565b8151811061053057634e487b7160e01b600052603260045260246000fd5b60209081029190910101528061054581612d0b565b9150506104d1565b5090505b92915050565b60095460609060008167ffffffffffffffff81111561058657634e487b7160e01b600052604160045260246000fd5b6040519080825280602002602001820160405280156105af578160200160208202803683370190505b50905060005b8281101561065457610609600982815481106105e157634e487b7160e01b600052603260045260246000fd5b90600052602060002090600291828204019190066010029054906101000a9004600f0b611318565b82828151811061062957634e487b7160e01b600052603260045260246000fd5b67ffffffffffffffff909216602092830291909101909101528061064c81612d0b565b9150506105b5565b5091505090565b600b5490565b6007546001600160a01b0316331461068b5760405162461bcd60e51b815260040161030690612a47565b61069482611334565b80600a60008282546106a69190612c8d565b90915550505050565b6007546001600160a01b031690565b600080600060029054906101000a90046001600160a01b03166001600160a01b031663b7d002076040518163ffffffff1660e01b815260040160206040518083038186803b15801561070f57600080fd5b505afa158015610723573d6000803e3d6000fd5b505050506040513d601f19601f820116820180604052508101906107479190612853565b905060006107548461150c565b90506000610762828461165e565b90508281101561076f5750815b925050505b919050565b600154604051636a6f3e1d60e01b81526000916001600160a01b031690636a6f3e1d906107aa908590600401612afc565b60006040518083038186803b1580156107c257600080fd5b505afa1580156107d6573d6000803e3d6000fd5b505050506040513d6000823e601f3d908101601f191682016040526107fe919081019061272b565b60025460405163f6aacfb160e01b81529192506001600160a01b03169063f6aacfb19061082f908590600401612afc565b60206040518083038186803b15801561084757600080fd5b505afa15801561085b573d6000803e3d6000fd5b505050506040513d601f19601f8201168201806040525081019061087f9190612711565b15156001146108a05760405162461bcd60e51b815260040161030690612a7e565b6000816101400151116108c55760405162461bcd60e51b815260040161030690612995565b4260055460016108d59190612ca5565b8261014001516108e59190612c8d565b10156109035760405162461bcd60e51b8152600401610306906129d7565b60035460608201516040516323b872dd60e01b81526001600160a01b03909216916323b872dd9161093a91339130916004016128d2565b602060405180830381600087803b15801561095457600080fd5b505af1158015610968573d6000803e3d6000fd5b505050506040513d601f19601f8201168201806040525081019061098c9190612711565b6109a85760405162461bcd60e51b815260040161030690612aa3565b600354600654606083015160405163095ea7b360e01b81526001600160a01b039384169363095ea7b3936109e1939116916004016128f6565b602060405180830381600087803b1580156109fb57600080fd5b505af1158015610a0f573d6000803e3d6000fd5b505050506040513d601f19601f82011682018060405250810190610a339190612711565b50600654606082015160405163021e7be960e41b81526001600160a01b03909216916321e7be9091610a6791600401612afc565b600060405180830381600087803b158015610a8157600080fd5b505af1158015610a95573d6000803e3d6000fd5b50505050600760009054906101000a90046001600160a01b03166001600160a01b031663bf042def6040518163ffffffff1660e01b8152600401600060405180830381600087803b158015610ae957600080fd5b505af1158015610afd573d6000803e3d6000fd5b50505050600181608001818151610b149190612c8d565b9052506000610140820152600254610100820151604051630588253160e21b81526001600160a01b039092169163162094c491610b5691869190600401612b62565b600060405180830381600087803b158015610b7057600080fd5b505af1158015610b84573d6000803e3d6000fd5b50505060e0820151604080840182905261012084019190915260c0830151602084015260a083015183526001610180840181905254905163366a446b60e21b81526001600160a01b03909116915063d9a911ac90610be89085908590600401612b7b565b600060405180830381600087803b158015610c0257600080fd5b505af1158015610c16573d6000803e3d6000fd5b505060025460405163bfbf01d760e01b81526001600160a01b03909116925063bfbf01d79150610c4d908590600090600401612b05565b600060405180830381600087803b158015610c6757600080fd5b505af1158015610c7b573d6000803e3d6000fd5b50505050610c8c8160e001516116c6565b6001600a6000828254610c9f9190612c8d565b909155505060405133907f9e30025c6e9b06c7d57ffe526a70b917b8d5c44462a953c7aa1b875661e192c590610cd6908590612afc565b60405180910390a25050565b6000546201000090046001600160a01b031690565b600a5490565b6060600b548211158015610d1057508183105b610d2c5760405162461bcd60e51b815260040161030690612ac5565b6000610d388484612cc4565b67ffffffffffffffff811115610d5e57634e487b7160e01b600052604160045260246000fd5b604051908082528060200260200182016040528015610d87578160200160208202803683370190505b509050835b8381101561054d57600b8181548110610db557634e487b7160e01b600052603260045260246000fd5b9060005260206000200154828683610dcd9190612cc4565b81518110610deb57634e487b7160e01b600052603260045260246000fd5b602090810291909101015280610e0081612d0b565b915050610d8c565b600c54600b54600090610e1c908390612cc4565b90506000818411610e2d5783610e2f565b815b905060005b8181101561118f576000600b610e4a8387612c8d565b81548110610e6857634e487b7160e01b600052603260045260246000fd5b6000918252602090912001546002546040516331a9108f60e11b81529192506001600160a01b031690636352211e90610ea5908490600401612afc565b60206040518083038186803b158015610ebd57600080fd5b505afa925050508015610eed575060408051601f3d908101601f19168201909252610eea91810190612669565b60015b610f2957600c80546001810182556000919091527fdf6966c971051c3d54ec59162606531493a51404a002842f56009d7e5cf4a8c7015561117d565b50600154604051636a6f3e1d60e01b81526000916001600160a01b031690636a6f3e1d90610f5b908590600401612afc565b60006040518083038186803b158015610f7357600080fd5b505afa158015610f87573d6000803e3d6000fd5b505050506040513d6000823e601f3d908101601f19168201604052610faf919081019061272b565b9050610fc0828261014001516116d2565b156111295760025460405163bfbf01d760e01b81526001600160a01b039091169063bfbf01d790610ff8908590600090600401612b36565b600060405180830381600087803b15801561101257600080fd5b505af1158015611026573d6000803e3d6000fd5b5050600254604051630852cd8d60e31b81526001600160a01b0390911692506342966c68915061105a908590600401612afc565b600060405180830381600087803b15801561107457600080fd5b505af1158015611088573d6000803e3d6000fd5b5050600154604051631d62956160e31b81526001600160a01b03909116925063eb14ab0891506110bc908590600401612afc565b600060405180830381600087803b1580156110d657600080fd5b505af11580156110ea573d6000803e3d6000fd5b5050600c80546001810182556000919091527fdf6966c971051c3d54ec59162606531493a51404a002842f56009d7e5cf4a8c7018490555061117a9050565b6111388282610140015161178e565b1561114457505061118f565b600c80546001810182556000919091527fdf6966c971051c3d54ec59162606531493a51404a002842f56009d7e5cf4a8c7018290555b50505b8061118781612d0b565b915050610e34565b50600c546040517f5e5f8c58bbcf5f3d574136b8d3ee4884fa429c07ae4c07a37ecf1b3b02f43b99916111c491869190612c55565b60405180910390a150505050565b600181565b6007546001600160a01b031633146112015760405162461bcd60e51b815260040161030690612a47565b61120b828261184a565b5050565b6001546001600160a01b031690565b6006546001600160a01b031690565b60055490565b7323fca1b66c39f2b6ef226b9f0f47686e27e0dfa033146112665760405162461bcd60e51b8152600401610306906129b4565b600a55565b6007546001600160a01b031633146112955760405162461bcd60e51b815260040161030690612a47565b600b80546001810182556000919091527f0175b7a638427703f0dbe7bb9bbf987a2551717b34e79f33b5b1008d1fa01db90155565b6007546001600160a01b031633146112f45760405162461bcd60e51b815260040161030690612a47565b6112fd8161185c565b6001600a60008282546113109190612cc4565b909155505050565b60008082600f0b121561132a57600080fd5b50600f0b60401d90565b80611340816001612c8d565b6009541015611457576000611356826001612c8d565b67ffffffffffffffff81111561137c57634e487b7160e01b600052604160045260246000fd5b6040519080825280602002602001820160405280156113a5578160200160208202803683370190505b50905060005b60095481101561144057600981815481106113d657634e487b7160e01b600052603260045260246000fd5b90600052602060002090600291828204019190066010029054906101000a9004600f0b82828151811061141957634e487b7160e01b600052603260045260246000fd5b6020026020010190600f0b9081600f0b81525050808061143890612d0b565b9150506113ab565b5080516114549060099060208401906124e4565b50505b6114ab6009828154811061147b57634e487b7160e01b600052603260045260246000fd5b6000918252602090912060028204015460106001928316026101000a9004600f0b906114a6906118b5565b6118d3565b600982815481106114cc57634e487b7160e01b600052603260045260246000fd5b90600052602060002090600291828204019190066010026101000a8154816001600160801b030219169083600f0b6001600160801b031602179055505050565b600154604051636a6f3e1d60e01b815260009182916001600160a01b0390911690636a6f3e1d90611541908690600401612afc565b60006040518083038186803b15801561155957600080fd5b505afa15801561156d573d6000803e3d6000fd5b505050506040513d6000823e601f3d908101601f19168201604052611595919081019061272b565b604081015190915060006115a8816118b5565b905060005b8281116116155761160182600983815481106115d957634e487b7160e01b600052603260045260246000fd5b90600052602060002090600291828204019190066010029054906101000a9004600f0b6118d3565b91508061160d81612d0b565b9150506115ad565b5061162a81611625600a546118b5565b611907565b90506000611637836118b5565b90506116546116458361196d565b61164f83846119c2565b6119c2565b9695505050505050565b60008161166d57506000610551565b600083600f0b121561167e57600080fd5b600f83900b6001600160801b038316810260401c90608084901c026001600160c01b038111156116ad57600080fd5b60401b81198111156116be57600080fd5b019392505050565b6116cf81611334565b50565b60025460405163f6aacfb160e01b81526000916001600160a01b03169063f6aacfb190611703908690600401612afc565b60206040518083038186803b15801561171b57600080fd5b505afa15801561172f573d6000803e3d6000fd5b505050506040513d601f19601f820116820180604052508101906117539190612711565b151560011480156117645750600082115b8015611787575042600554600161177b9190612ca5565b6117859084612c8d565b105b9392505050565b60025460405163f6aacfb160e01b81526000916001600160a01b03169063f6aacfb1906117bf908690600401612afc565b60206040518083038186803b1580156117d757600080fd5b505afa1580156117eb573d6000803e3d6000fd5b505050506040513d601f19601f8201168201806040525081019061180f9190612711565b151560011480156118205750600082115b801561178757504260055460016118379190612ca5565b6118419084612c8d565b10159392505050565b6118538261185c565b61120b816116c6565b60008190506114ab6009828154811061188557634e487b7160e01b600052603260045260246000fd5b6000918252602090912060028204015460106001928316026101000a9004600f0b906118b0906118b5565b6119f8565b6000677fffffffffffffff8211156118cc57600080fd5b5060401b90565b6000600f83810b9083900b0160016001607f1b031981128015906118fe575060016001607f1b038113155b61178757600080fd5b600081600f0b6000141561191a57600080fd5b600082600f0b604085600f0b901b8161194357634e487b7160e01b600052601260045260246000fd5b05905060016001607f1b031981128015906118fe575060016001607f1b0381131561178757600080fd5b6000600160461b82600f0b1261198257600080fd5b683fffffffffffffffff1982600f0b121561199f57506000610774565b610551608083600f0b700171547652b82fe1777d0ffda0d23a7d1202901d611a2b565b6000600f83810b9083900b0260401d60016001607f1b031981128015906118fe575060016001607f1b0381131561178757600080fd5b6000600f82810b9084900b0360016001607f1b031981128015906118fe575060016001607f1b0381131561178757600080fd5b6000600160461b82600f0b12611a4057600080fd5b683fffffffffffffffff1982600f0b1215611a5d57506000610774565b6001607f1b60006780000000000000008416600f0b1315611a8f5770016a09e667f3bcc908b2fb1366ea957d3e0260801c5b60008367400000000000000016600f0b1315611abc577001306fe0a31b7152de8d5a46305c85edec0260801c5b60008367200000000000000016600f0b1315611ae9577001172b83c7d517adcdf7c8c50eb14a791f0260801c5b60008367100000000000000016600f0b1315611b165770010b5586cf9890f6298b92b71842a983630260801c5b60008367080000000000000016600f0b1315611b43577001059b0d31585743ae7c548eb68ca417fd0260801c5b60008367040000000000000016600f0b1315611b7057700102c9a3e778060ee6f7caca4f7a29bde80260801c5b60008367020000000000000016600f0b1315611b9d5770010163da9fb33356d84a66ae336dcdfa3f0260801c5b60008367010000000000000016600f0b1315611bca57700100b1afa5abcbed6129ab13ec11dc95430260801c5b600083668000000000000016600f0b1315611bf65770010058c86da1c09ea1ff19d294cf2f679b0260801c5b600083664000000000000016600f0b1315611c22577001002c605e2e8cec506d21bfc89a23a00f0260801c5b600083662000000000000016600f0b1315611c4e57700100162f3904051fa128bca9c55c31e5df0260801c5b600083661000000000000016600f0b1315611c7a577001000b175effdc76ba38e31671ca9397250260801c5b600083660800000000000016600f0b1315611ca657700100058ba01fb9f96d6cacd4b180917c3d0260801c5b600083660400000000000016600f0b1315611cd25770010002c5cc37da9491d0985c348c68e7b30260801c5b600083660200000000000016600f0b1315611cfe577001000162e525ee054754457d59952920260260801c5b600083660100000000000016600f0b1315611d2a5770010000b17255775c040618bf4a4ade83fc0260801c5b6000836580000000000016600f0b1315611d55577001000058b91b5bc9ae2eed81e9b7d4cfab0260801c5b6000836540000000000016600f0b1315611d8057700100002c5c89d5ec6ca4d7c8acc017b7c90260801c5b6000836520000000000016600f0b1315611dab5770010000162e43f4f831060e02d839a9d16d0260801c5b6000836510000000000016600f0b1315611dd657700100000b1721bcfc99d9f890ea069117630260801c5b6000836508000000000016600f0b1315611e015770010000058b90cf1e6d97f9ca14dbcc16280260801c5b6000836504000000000016600f0b1315611e2c577001000002c5c863b73f016468f6bac5ca2b0260801c5b6000836502000000000016600f0b1315611e5757700100000162e430e5a18f6119e3c02282a50260801c5b6000836501000000000016600f0b1315611e82577001000000b1721835514b86e6d96efd1bfe0260801c5b60008364800000000016600f0b1315611eac57700100000058b90c0b48c6be5df846c5b2ef0260801c5b60008364400000000016600f0b1315611ed65770010000002c5c8601cc6b9e94213c72737a0260801c5b60008364200000000016600f0b1315611f00577001000000162e42fff037df38aa2b219f060260801c5b60008364100000000016600f0b1315611f2a5770010000000b17217fba9c739aa5819f44f90260801c5b60008364080000000016600f0b1315611f54577001000000058b90bfcdee5acd3c1cedc8230260801c5b60008364040000000016600f0b1315611f7e57700100000002c5c85fe31f35a6a30da1be500260801c5b60008364020000000016600f0b1315611fa85770010000000162e42ff0999ce3541b9fffcf0260801c5b60008364010000000016600f0b1315611fd257700100000000b17217f80f4ef5aadda455540260801c5b600083638000000016600f0b1315611ffb5770010000000058b90bfbf8479bd5a81b51ad0260801c5b600083634000000016600f0b1315612024577001000000002c5c85fdf84bd62ae30a74cc0260801c5b600083632000000016600f0b131561204d57700100000000162e42fefb2fed257559bdaa0260801c5b600083631000000016600f0b1315612076577001000000000b17217f7d5a7716bba4a9ae0260801c5b600083630800000016600f0b131561209f57700100000000058b90bfbe9ddbac5e109cce0260801c5b600083630400000016600f0b13156120c85770010000000002c5c85fdf4b15de6f17eb0d0260801c5b600083630200000016600f0b13156120f1577001000000000162e42fefa494f1478fde050260801c5b600083630100000016600f0b131561211a5770010000000000b17217f7d20cf927c8e94c0260801c5b6000836280000016600f0b1315612142577001000000000058b90bfbe8f71cb4e4b33d0260801c5b6000836240000016600f0b131561216a57700100000000002c5c85fdf477b662b269450260801c5b6000836220000016600f0b13156121925770010000000000162e42fefa3ae53369388c0260801c5b6000836210000016600f0b13156121ba57700100000000000b17217f7d1d351a389d400260801c5b6000836208000016600f0b13156121e25770010000000000058b90bfbe8e8b2d3d4ede0260801c5b6000836204000016600f0b131561220a577001000000000002c5c85fdf4741bea6e77e0260801c5b6000836202000016600f0b131561223257700100000000000162e42fefa39fe95583c20260801c5b6000836201000016600f0b131561225a577001000000000000b17217f7d1cfb72b45e10260801c5b60008361800016600f0b131561228157700100000000000058b90bfbe8e7cc35c3f00260801c5b60008361400016600f0b13156122a85770010000000000002c5c85fdf473e242ea380260801c5b60008361200016600f0b13156122cf577001000000000000162e42fefa39f02b772c0260801c5b60008361100016600f0b13156122f65770010000000000000b17217f7d1cf7d83c1a0260801c5b60008361080016600f0b131561231d577001000000000000058b90bfbe8e7bdcbe2e0260801c5b60008361040016600f0b131561234457700100000000000002c5c85fdf473dea871f0260801c5b60008361020016600f0b131561236b5770010000000000000162e42fefa39ef44d910260801c5b60008361010016600f0b131561239257700100000000000000b17217f7d1cf79e9490260801c5b600083608016600f0b13156123b85770010000000000000058b90bfbe8e7bce5440260801c5b600083604016600f0b13156123de577001000000000000002c5c85fdf473de6eca0260801c5b600083602016600f0b131561240457700100000000000000162e42fefa39ef366f0260801c5b600083601016600f0b131561242a577001000000000000000b17217f7d1cf79afa0260801c5b600083600816600f0b131561245057700100000000000000058b90bfbe8e7bcd6d0260801c5b600083600416600f0b13156124765770010000000000000002c5c85fdf473de6b20260801c5b600083600216600f0b131561249c577001000000000000000162e42fefa39ef3580260801c5b600083600116600f0b13156124c25770010000000000000000b17217f7d1cf79ab0260801c5b600f83810b60401d603f03900b1c60016001607f1b0381111561055157600080fd5b8280548282559060005260206000209060010160029004810192821561258f5791602002820160005b8382111561255a57835183826101000a8154816001600160801b030219169083600f0b6001600160801b031602179055509260200192601001602081600f0104928301926001030261250d565b801561258d5782816101000a8154906001600160801b030219169055601001602081600f0104928301926001030261255a565b505b5061259b9291506125da565b5090565b82805482825590600052602060002090810192821561258f579160200282015b8281111561258f5782518255916020019190600101906125bf565b5b8082111561259b57600081556001016125db565b8051801515811461077457600080fd5b600082601f83011261260f578081fd5b815167ffffffffffffffff81111561262957612629612d3c565b61263c601f8201601f1916602001612c63565b818152846020838601011115612650578283fd5b612661826020830160208701612cdb565b949350505050565b60006020828403121561267a578081fd5b815161178781612d52565b600080600080600080600060e0888a03121561269f578283fd5b87356126aa81612d52565b965060208801356126ba81612d52565b955060408801356126ca81612d52565b945060608801356126da81612d52565b935060808801356126ea81612d52565b925060a08801356126fa81612d52565b8092505060c0880135905092959891949750929550565b600060208284031215612722578081fd5b611787826125ef565b60006020828403121561273c578081fd5b815167ffffffffffffffff80821115612753578283fd5b81840191506101c0808387031215612769578384fd5b61277281612c63565b9050825181526020830151602082015260408301516040820152606083015160608201526080830151608082015260a083015160a082015260c083015160c082015260e083015160e082015261010080840151838111156127d1578586fd5b6127dd888287016125ff565b918301919091525061012083810151908201526101408084015190820152610160915061280b8284016125ef565b82820152610180915081830151828201526101a0915061282c8284016125ef565b91810191909152949350505050565b60006020828403121561284c578081fd5b5035919050565b600060208284031215612864578081fd5b5051919050565b6000806040838503121561287d578182fd5b50508035926020909101359150565b15159052565b600081518084526128aa816020860160208601612cdb565b601f01601f19169290920160200192915050565b6001600160a01b0391909116815260200190565b6001600160a01b039384168152919092166020820152604081019190915260600190565b6001600160a01b03929092168252602082015260400190565b6020808252825182820181905260009190848201906040850190845b818110156129475783518352928401929184019160010161292b565b50909695505050505050565b6020808252825182820181905260009190848201906040850190845b8181101561294757835167ffffffffffffffff168352928401929184019160010161296f565b602080825260059082015264416c69766560d81b604082015260600190565b6020808252600990820152682337b93134b23232b760b91b604082015260600190565b602080825260089082015267546f6f206c61746560c01b604082015260600190565b6020808252602e908201527f496e697469616c697a61626c653a20636f6e747261637420697320616c72656160408201526d191e481a5b9a5d1a585b1a5e995960921b606082015260800190565b6020808252601e908201527f416674657264656174683a204e6f742067616d6520636f6e7472616374730000604082015260600190565b6020808252600b908201526a4e6f7420696e2067616d6560a81b604082015260600190565b6020808252600890820152674e6f2066756e647360c01b604082015260600190565b6020808252601b908201527f416674657264656174683a20696e76616c696420696e64657865730000000000604082015260600190565b90815260200190565b91825215156020820152606060408201819052600990820152681c995cdd5c9c9958dd60ba1b608082015260a00190565b91825215156020820152606060408201819052600490820152636275727960e01b608082015260a00190565b6000838252604060208301526126616040830184612892565b600083825260406020830152825160408301526020830151606083015260408301516080830152606083015160a0830152608083015160c083015260a083015160e083015260c0830151610100818185015260e0850151915061012082818601528186015192506101c091506101408281870152612bfd610200870185612892565b91870151610160878101919091529087015161018080880191909152908701519193506101a0612c2f8188018461288c565b908701519286019290925250840151612c4c6101e085018261288c565b50949350505050565b918252602082015260400190565b60405181810167ffffffffffffffff81118282101715612c8557612c85612d3c565b604052919050565b60008219821115612ca057612ca0612d26565b500190565b6000816000190483118215151615612cbf57612cbf612d26565b500290565b600082821015612cd657612cd6612d26565b500390565b60005b83811015612cf6578181015183820152602001612cde565b83811115612d05576000848401525b50505050565b6000600019821415612d1f57612d1f612d26565b5060010190565b634e487b7160e01b600052601160045260246000fd5b634e487b7160e01b600052604160045260246000fd5b6001600160a01b03811681146116cf57600080fdfea2646970667358221220a5b3dbfeae29f04637660c8adf0ac8298242e8b3ff31f3d35c40a2792c4a3d1e64736f6c63430008000033",
  "devdoc": {
    "kind": "dev",
    "methods": {},
    "version": 1
  },
  "userdoc": {
    "kind": "user",
    "methods": {},
    "version": 1
  },
  "storageLayout": {
    "storage": [
      {
        "astId": 753,
        "contract": "contracts/Afterdeath.sol:Afterdeath",
        "label": "_initialized",
        "offset": 0,
        "slot": "0",
        "type": "t_bool"
      },
      {
        "astId": 756,
        "contract": "contracts/Afterdeath.sol:Afterdeath",
        "label": "_initializing",
        "offset": 1,
        "slot": "0",
        "type": "t_bool"
      },
      {
        "astId": 7942,
        "contract": "contracts/Afterdeath.sol:Afterdeath",
        "label": "_uniswap",
        "offset": 2,
        "slot": "0",
        "type": "t_contract(IUniswapUSDCSkill)10364"
      },
      {
        "astId": 7945,
        "contract": "contracts/Afterdeath.sol:Afterdeath",
        "label": "_state",
        "offset": 0,
        "slot": "1",
        "type": "t_contract(ISnookState)10092"
      },
      {
        "astId": 7948,
        "contract": "contracts/Afterdeath.sol:Afterdeath",
        "label": "_snook",
        "offset": 0,
        "slot": "2",
        "type": "t_contract(SnookToken)13881"
      },
      {
        "astId": 7951,
        "contract": "contracts/Afterdeath.sol:Afterdeath",
        "label": "_skill",
        "offset": 0,
        "slot": "3",
        "type": "t_contract(ISkillToken)9826"
      },
      {
        "astId": 7953,
        "contract": "contracts/Afterdeath.sol:Afterdeath",
        "label": "_UNUSED",
        "offset": 0,
        "slot": "4",
        "type": "t_uint256"
      },
      {
        "astId": 7955,
        "contract": "contracts/Afterdeath.sol:Afterdeath",
        "label": "_BurialDelayInSeconds",
        "offset": 0,
        "slot": "5",
        "type": "t_uint256"
      },
      {
        "astId": 7957,
        "contract": "contracts/Afterdeath.sol:Afterdeath",
        "label": "_treasury",
        "offset": 0,
        "slot": "6",
        "type": "t_address"
      },
      {
        "astId": 7959,
        "contract": "contracts/Afterdeath.sol:Afterdeath",
        "label": "_game",
        "offset": 0,
        "slot": "7",
        "type": "t_address"
      },
      {
        "astId": 7961,
        "contract": "contracts/Afterdeath.sol:Afterdeath",
        "label": "_UNUSED2",
        "offset": 0,
        "slot": "8",
        "type": "t_address"
      },
      {
        "astId": 7964,
        "contract": "contracts/Afterdeath.sol:Afterdeath",
        "label": "_traitHist",
        "offset": 0,
        "slot": "9",
        "type": "t_array(t_int128)dyn_storage"
      },
      {
        "astId": 7966,
        "contract": "contracts/Afterdeath.sol:Afterdeath",
        "label": "_aliveSnookCount",
        "offset": 0,
        "slot": "10",
        "type": "t_uint256"
      },
      {
        "astId": 7969,
        "contract": "contracts/Afterdeath.sol:Afterdeath",
        "label": "_morgue",
        "offset": 0,
        "slot": "11",
        "type": "t_array(t_uint256)dyn_storage"
      },
      {
        "astId": 7972,
        "contract": "contracts/Afterdeath.sol:Afterdeath",
        "label": "_removedFromMorgue",
        "offset": 0,
        "slot": "12",
        "type": "t_array(t_uint256)dyn_storage"
      }
    ],
    "types": {
      "t_address": {
        "encoding": "inplace",
        "label": "address",
        "numberOfBytes": "20"
      },
      "t_array(t_int128)dyn_storage": {
        "base": "t_int128",
        "encoding": "dynamic_array",
        "label": "int128[]",
        "numberOfBytes": "32"
      },
      "t_array(t_uint256)dyn_storage": {
        "base": "t_uint256",
        "encoding": "dynamic_array",
        "label": "uint256[]",
        "numberOfBytes": "32"
      },
      "t_bool": {
        "encoding": "inplace",
        "label": "bool",
        "numberOfBytes": "1"
      },
      "t_contract(ISkillToken)9826": {
        "encoding": "inplace",
        "label": "contract ISkillToken",
        "numberOfBytes": "20"
      },
      "t_contract(ISnookState)10092": {
        "encoding": "inplace",
        "label": "contract ISnookState",
        "numberOfBytes": "20"
      },
      "t_contract(IUniswapUSDCSkill)10364": {
        "encoding": "inplace",
        "label": "contract IUniswapUSDCSkill",
        "numberOfBytes": "20"
      },
      "t_contract(SnookToken)13881": {
        "encoding": "inplace",
        "label": "contract SnookToken",
        "numberOfBytes": "20"
      },
      "t_int128": {
        "encoding": "inplace",
        "label": "int128",
        "numberOfBytes": "16"
      },
      "t_uint256": {
        "encoding": "inplace",
        "label": "uint256",
        "numberOfBytes": "32"
      }
    }
  }
}