{
  "address": "0x2826A1c49B2B66dd0d1a077a8E01b3E4A76e30c9",
  "abi": [
    {
      "anonymous": false,
      "inputs": [
        {
          "indexed": false,
          "internalType": "address",
          "name": "to",
          "type": "address"
        }
      ],
      "name": "NoLuck",
      "type": "event"
    },
    {
      "anonymous": false,
      "inputs": [
        {
          "indexed": false,
          "internalType": "address",
          "name": "to",
          "type": "address"
        },
        {
          "indexed": false,
          "internalType": "uint256",
          "name": "prizeAmount",
          "type": "uint256"
        }
      ],
      "name": "SNKPrizeWin",
      "type": "event"
    },
    {
      "anonymous": false,
      "inputs": [
        {
          "indexed": false,
          "internalType": "address",
          "name": "to",
          "type": "address"
        },
        {
          "indexed": false,
          "internalType": "uint256",
          "name": "snookId",
          "type": "uint256"
        }
      ],
      "name": "SNOOKPrizeWin",
      "type": "event"
    },
    {
      "inputs": [],
      "name": "checkin",
      "outputs": [],
      "stateMutability": "nonpayable",
      "type": "function"
    },
    {
      "inputs": [],
      "name": "getRequiredCheckinsToGoldenWheel",
      "outputs": [
        {
          "internalType": "uint256",
          "name": "",
          "type": "uint256"
        }
      ],
      "stateMutability": "view",
      "type": "function"
    },
    {
      "inputs": [],
      "name": "getRequiredCheckinsToSilverWheel",
      "outputs": [
        {
          "internalType": "uint256",
          "name": "",
          "type": "uint256"
        }
      ],
      "stateMutability": "view",
      "type": "function"
    },
    {
      "inputs": [
        {
          "internalType": "address",
          "name": "a",
          "type": "address"
        }
      ],
      "name": "getStatusFor",
      "outputs": [
        {
          "internalType": "uint256",
          "name": "silverWheels",
          "type": "uint256"
        },
        {
          "internalType": "uint256",
          "name": "goldenWheels",
          "type": "uint256"
        },
        {
          "internalType": "uint256",
          "name": "checkinCount",
          "type": "uint256"
        },
        {
          "internalType": "uint256",
          "name": "lastCheckinTimestamp",
          "type": "uint256"
        }
      ],
      "stateMutability": "view",
      "type": "function"
    },
    {
      "inputs": [
        {
          "internalType": "uint256",
          "name": "secondsInDay",
          "type": "uint256"
        },
        {
          "internalType": "contract IPRNG",
          "name": "prng",
          "type": "address"
        },
        {
          "internalType": "contract ITreasury",
          "name": "treasury",
          "type": "address"
        },
        {
          "internalType": "uint256",
          "name": "chanceToWin200SNK1in",
          "type": "uint256"
        },
        {
          "internalType": "uint256",
          "name": "chanceToWin500SNK1in",
          "type": "uint256"
        },
        {
          "internalType": "uint256",
          "name": "chanceToMintSNOOK1in",
          "type": "uint256"
        },
        {
          "internalType": "uint256",
          "name": "requiredCheckinsToSilverWheel",
          "type": "uint256"
        },
        {
          "internalType": "uint256",
          "name": "requiredCheckinsToGoldenWheel",
          "type": "uint256"
        }
      ],
      "name": "initialize",
      "outputs": [],
      "stateMutability": "nonpayable",
      "type": "function"
    },
    {
      "inputs": [],
      "name": "spinGoldenWheel",
      "outputs": [],
      "stateMutability": "nonpayable",
      "type": "function"
    },
    {
      "inputs": [],
      "name": "spinSilverWheel",
      "outputs": [],
      "stateMutability": "nonpayable",
      "type": "function"
    }
  ],
  "transactionHash": "0xb055ae55eb4591299849427ca789e9187e2dab721bd5abbaee14a6104dc95f41",
  "args": [],
  "solcInputHash": "eb58ef29acbf0156203b04a341067614",
  "bytecode": "0x608060405234801561001057600080fd5b50610ac9806100206000396000f3fe608060405234801561001057600080fd5b506004361061007d5760003560e01c8063651577341161005b57806365157734146100cd5780636bfdd4dc146100e05780638ee5df65146100e8578063baeb0718146100f05761007d565b80632b488877146100825780635e9327ff146100a05780636318bcf6146100c3575b600080fd5b61008a6100f8565b60405161009791906109dd565b60405180910390f35b6100b36100ae366004610807565b6100fe565b60405161009794939291906109e6565b6100cb61011c565b005b6100cb6100db366004610842565b61041b565b6100cb6104e6565b61008a610740565b6100cb610746565b60085490565b60008060008061010d856107be565b93509350935093509193509193565b6000610127336107be565b5050915050600081116101555760405162461bcd60e51b815260040161014c906109b3565b60405180910390fd5b600360009054906101000a90046001600160a01b03166001600160a01b0316632a1bbc346040518163ffffffff1660e01b8152600401600060405180830381600087803b1580156101a557600080fd5b505af11580156101b9573d6000803e3d6000fd5b505060095433600090815260016020819052604082200180549294509250906101e3908490610a4e565b90915550506003546005546040516344dc5a4960e11b81526000926001600160a01b0316916389b8b4929161021b9190600401610a01565b602060405180830381600087803b15801561023557600080fd5b505af1158015610249573d6000803e3d6000fd5b505050506040513d601f19601f8201168201806040525081019061026d91906108af565b6003546006546040516344dc5a4960e11b815267ffffffffffffffff9390931693506000926001600160a01b03909216916389b8b492916102b091600401610a01565b602060405180830381600087803b1580156102ca57600080fd5b505af11580156102de573d6000803e3d6000fd5b505050506040513d601f19601f8201168201806040525081019061030291906108af565b67ffffffffffffffff1690506000826103255750680ad78ebc5ac6200000610336565b816103365750681b1ae4d6e2ef5000005b80156103dd576004805460405163412f4f3160e11b81526001600160a01b039091169163825e9e629161036d9133918691016108eb565b600060405180830381600087803b15801561038757600080fd5b505af115801561039b573d6000803e3d6000fd5b505050507fdbecff103b8ba5ae1292b737363ce7a6a6af3cae7364d08a1d3384d2219c5a3333826040516103d09291906108eb565b60405180910390a1610415565b7f9b5b377fb9211713b7e47651d4bbb7481643ec2f18027198d1043532ceb0d2ef3360405161040c91906108d7565b60405180910390a15b50505050565b600054610100900460ff1680610434575060005460ff16155b6104505760405162461bcd60e51b815260040161014c90610965565b600054610100900460ff1615801561047b576000805460ff1961ff0019909116610100171660011790555b6002899055600380546001600160a01b03808b166001600160a01b03199283161790925560048054928a16929091169190911790556005869055600685905560078490556008839055600982905580156104db576000805461ff00191690555b505050505050505050565b60006104f1336107be565b5050509050600081116105165760405162461bcd60e51b815260040161014c90610904565b600360009054906101000a90046001600160a01b03166001600160a01b0316632a1bbc346040518163ffffffff1660e01b8152600401600060405180830381600087803b15801561056657600080fd5b505af115801561057a573d6000803e3d6000fd5b505060085433600090815260016020819052604082200180549294509250906105a4908490610a4e565b90915550506003546007546040516344dc5a4960e11b81526000926001600160a01b0316916389b8b492916105dc9190600401610a01565b602060405180830381600087803b1580156105f657600080fd5b505af115801561060a573d6000803e3d6000fd5b505050506040513d601f19601f8201168201806040525081019061062e91906108af565b67ffffffffffffffff169050806107045760048054604051630125ccd360e61b81526000926001600160a01b039092169163497334c091610671913391016108d7565b602060405180830381600087803b15801561068b57600080fd5b505af115801561069f573d6000803e3d6000fd5b505050506040513d601f19601f820116820180604052508101906106c3919061082a565b90507feac065d8ebb9d6e71957c64b14341064100cb2991b53369bf3c2d034d999ef3c33826040516106f69291906108eb565b60405180910390a15061073c565b7f9b5b377fb9211713b7e47651d4bbb7481643ec2f18027198d1043532ceb0d2ef3360405161073391906108d7565b60405180910390a15b5050565b60095490565b600254336000908152600160205260409020546107639042610a4e565b10156107815760405162461bcd60e51b815260040161014c9061092e565b336000908152600160208190526040822081018054919290916107a5908490610a16565b9091555050336000908152600160205260409020429055565b6001600160a01b03811660009081526001602081905260408220908101549054600854839291906107ef9083610a2e565b6009546107fc9084610a2e565b935093509193509193565b600060208284031215610818578081fd5b813561082381610a7b565b9392505050565b60006020828403121561083b578081fd5b5051919050565b600080600080600080600080610100898b03121561085e578384fd5b88359750602089013561087081610a7b565b9650604089013561088081610a7b565b979a96995096976060810135975060808101359660a0820135965060c0820135955060e0909101359350915050565b6000602082840312156108c0578081fd5b815167ffffffffffffffff81168114610823578182fd5b6001600160a01b0391909116815260200190565b6001600160a01b03929092168252602082015260400190565b60208082526010908201526f4e6f2073696c76657220776865656c7360801b604082015260600190565b6020808252601d908201527f4c75636b576865656c3a20616c726561647920636865636b656420696e000000604082015260600190565b6020808252602e908201527f496e697469616c697a61626c653a20636f6e747261637420697320616c72656160408201526d191e481a5b9a5d1a585b1a5e995960921b606082015260800190565b60208082526010908201526f4e6f20676f6c64656e20776865656c7360801b604082015260600190565b90815260200190565b93845260208401929092526040830152606082015260800190565b67ffffffffffffffff91909116815260200190565b60008219821115610a2957610a29610a65565b500190565b600082610a4957634e487b7160e01b81526012600452602481fd5b500490565b600082821015610a6057610a60610a65565b500390565b634e487b7160e01b600052601160045260246000fd5b6001600160a01b0381168114610a9057600080fd5b5056fea2646970667358221220d0e131473ddc17372f8d85d23f736cb6ef7f3add4d9e041cc56e78ffcdde9eda64736f6c63430008000033",
  "devdoc": {
    "kind": "dev",
    "methods": {},
    "version": 1
  },
  "userdoc": {
    "kind": "user",
    "methods": {},
    "version": 1
  },
  "storageLayout": {
    "storage": [
      {
        "astId": 753,
        "contract": "contracts/LuckWheel.sol:LuckWheel",
        "label": "_initialized",
        "offset": 0,
        "slot": "0",
        "type": "t_bool"
      },
      {
        "astId": 756,
        "contract": "contracts/LuckWheel.sol:LuckWheel",
        "label": "_initializing",
        "offset": 1,
        "slot": "0",
        "type": "t_bool"
      },
      {
        "astId": 10338,
        "contract": "contracts/LuckWheel.sol:LuckWheel",
        "label": "_accountCheckin",
        "offset": 0,
        "slot": "1",
        "type": "t_mapping(t_address,t_struct(AccountCheckin)10333_storage)"
      },
      {
        "astId": 10340,
        "contract": "contracts/LuckWheel.sol:LuckWheel",
        "label": "_secondsInDay",
        "offset": 0,
        "slot": "2",
        "type": "t_uint256"
      },
      {
        "astId": 10343,
        "contract": "contracts/LuckWheel.sol:LuckWheel",
        "label": "_prng",
        "offset": 0,
        "slot": "3",
        "type": "t_contract(IPRNG)9726"
      },
      {
        "astId": 10346,
        "contract": "contracts/LuckWheel.sol:LuckWheel",
        "label": "_treasury",
        "offset": 0,
        "slot": "4",
        "type": "t_contract(ITreasury)10309"
      },
      {
        "astId": 10348,
        "contract": "contracts/LuckWheel.sol:LuckWheel",
        "label": "_chanceToWin200SNK1in",
        "offset": 0,
        "slot": "5",
        "type": "t_uint256"
      },
      {
        "astId": 10350,
        "contract": "contracts/LuckWheel.sol:LuckWheel",
        "label": "_chanceToWin500SNK1in",
        "offset": 0,
        "slot": "6",
        "type": "t_uint256"
      },
      {
        "astId": 10352,
        "contract": "contracts/LuckWheel.sol:LuckWheel",
        "label": "_chanceToMintSNOOK1in",
        "offset": 0,
        "slot": "7",
        "type": "t_uint256"
      },
      {
        "astId": 10354,
        "contract": "contracts/LuckWheel.sol:LuckWheel",
        "label": "_requiredCheckinsToSilverWheel",
        "offset": 0,
        "slot": "8",
        "type": "t_uint256"
      },
      {
        "astId": 10356,
        "contract": "contracts/LuckWheel.sol:LuckWheel",
        "label": "_requiredCheckinsToGoldenWheel",
        "offset": 0,
        "slot": "9",
        "type": "t_uint256"
      }
    ],
    "types": {
      "t_address": {
        "encoding": "inplace",
        "label": "address",
        "numberOfBytes": "20"
      },
      "t_bool": {
        "encoding": "inplace",
        "label": "bool",
        "numberOfBytes": "1"
      },
      "t_contract(IPRNG)9726": {
        "encoding": "inplace",
        "label": "contract IPRNG",
        "numberOfBytes": "20"
      },
      "t_contract(ITreasury)10309": {
        "encoding": "inplace",
        "label": "contract ITreasury",
        "numberOfBytes": "20"
      },
      "t_mapping(t_address,t_struct(AccountCheckin)10333_storage)": {
        "encoding": "mapping",
        "key": "t_address",
        "label": "mapping(address => struct LuckWheel.AccountCheckin)",
        "numberOfBytes": "32",
        "value": "t_struct(AccountCheckin)10333_storage"
      },
      "t_struct(AccountCheckin)10333_storage": {
        "encoding": "inplace",
        "label": "struct LuckWheel.AccountCheckin",
        "members": [
          {
            "astId": 10330,
            "contract": "contracts/LuckWheel.sol:LuckWheel",
            "label": "timestamp",
            "offset": 0,
            "slot": "0",
            "type": "t_uint256"
          },
          {
            "astId": 10332,
            "contract": "contracts/LuckWheel.sol:LuckWheel",
            "label": "count",
            "offset": 0,
            "slot": "1",
            "type": "t_uint256"
          }
        ],
        "numberOfBytes": "64"
      },
      "t_uint256": {
        "encoding": "inplace",
        "label": "uint256",
        "numberOfBytes": "32"
      }
    }
  }
}