{
  "address": "0x45984341DC1ABFBAc26B0Fc8bB8113713A993688",
  "abi": [
    {
      "anonymous": false,
      "inputs": [
        {
          "indexed": true,
          "internalType": "address",
          "name": "to",
          "type": "address"
        },
        {
          "indexed": false,
          "internalType": "uint256",
          "name": "tokenId",
          "type": "uint256"
        },
        {
          "indexed": false,
          "internalType": "uint256",
          "name": "price",
          "type": "uint256"
        },
        {
          "indexed": false,
          "internalType": "uint256",
          "name": "traitId",
          "type": "uint256"
        }
      ],
      "name": "Birth2",
      "type": "event"
    },
    {
      "anonymous": false,
      "inputs": [
        {
          "indexed": true,
          "internalType": "address",
          "name": "to",
          "type": "address"
        },
        {
          "indexed": false,
          "internalType": "uint256",
          "name": "tokenId",
          "type": "uint256"
        },
        {
          "indexed": false,
          "internalType": "uint256",
          "name": "killerTokenId",
          "type": "uint256"
        },
        {
          "indexed": false,
          "internalType": "uint256",
          "name": "remainingLives",
          "type": "uint256"
        },
        {
          "indexed": false,
          "internalType": "uint256",
          "name": "killerChainId",
          "type": "uint256"
        }
      ],
      "name": "Death",
      "type": "event"
    },
    {
      "anonymous": false,
      "inputs": [
        {
          "indexed": true,
          "internalType": "address",
          "name": "from",
          "type": "address"
        },
        {
          "indexed": false,
          "internalType": "uint256",
          "name": "tokenId",
          "type": "uint256"
        }
      ],
      "name": "Entry",
      "type": "event"
    },
    {
      "anonymous": false,
      "inputs": [
        {
          "indexed": true,
          "internalType": "address",
          "name": "to",
          "type": "address"
        },
        {
          "indexed": false,
          "internalType": "uint256",
          "name": "tokenId",
          "type": "uint256"
        }
      ],
      "name": "Extraction",
      "type": "event"
    },
    {
      "anonymous": false,
      "inputs": [
        {
          "indexed": true,
          "internalType": "address",
          "name": "from",
          "type": "address"
        },
        {
          "indexed": false,
          "internalType": "uint256",
          "name": "tokenId",
          "type": "uint256"
        }
      ],
      "name": "GameAllowed",
      "type": "event"
    },
    {
      "anonymous": false,
      "inputs": [
        {
          "indexed": false,
          "internalType": "uint256",
          "name": "g1",
          "type": "uint256"
        },
        {
          "indexed": false,
          "internalType": "uint256",
          "name": "g2",
          "type": "uint256"
        }
      ],
      "name": "GasUsage",
      "type": "event"
    },
    {
      "anonymous": false,
      "inputs": [
        {
          "indexed": true,
          "internalType": "address",
          "name": "to",
          "type": "address"
        },
        {
          "indexed": false,
          "internalType": "uint256",
          "name": "tokenId",
          "type": "uint256"
        },
        {
          "indexed": false,
          "internalType": "uint256",
          "name": "killedTokenId",
          "type": "uint256"
        },
        {
          "indexed": false,
          "internalType": "uint256",
          "name": "killedChainId",
          "type": "uint256"
        }
      ],
      "name": "Killing",
      "type": "event"
    },
    {
      "anonymous": false,
      "inputs": [
        {
          "indexed": false,
          "internalType": "address",
          "name": "account",
          "type": "address"
        }
      ],
      "name": "Paused",
      "type": "event"
    },
    {
      "anonymous": false,
      "inputs": [
        {
          "indexed": true,
          "internalType": "address",
          "name": "to",
          "type": "address"
        },
        {
          "indexed": false,
          "internalType": "uint256",
          "name": "rewardsAmount",
          "type": "uint256"
        }
      ],
      "name": "PpkClaimed",
      "type": "event"
    },
    {
      "anonymous": false,
      "inputs": [
        {
          "indexed": true,
          "internalType": "bytes32",
          "name": "role",
          "type": "bytes32"
        },
        {
          "indexed": true,
          "internalType": "bytes32",
          "name": "previousAdminRole",
          "type": "bytes32"
        },
        {
          "indexed": true,
          "internalType": "bytes32",
          "name": "newAdminRole",
          "type": "bytes32"
        }
      ],
      "name": "RoleAdminChanged",
      "type": "event"
    },
    {
      "anonymous": false,
      "inputs": [
        {
          "indexed": true,
          "internalType": "bytes32",
          "name": "role",
          "type": "bytes32"
        },
        {
          "indexed": true,
          "internalType": "address",
          "name": "account",
          "type": "address"
        },
        {
          "indexed": true,
          "internalType": "address",
          "name": "sender",
          "type": "address"
        }
      ],
      "name": "RoleGranted",
      "type": "event"
    },
    {
      "anonymous": false,
      "inputs": [
        {
          "indexed": true,
          "internalType": "bytes32",
          "name": "role",
          "type": "bytes32"
        },
        {
          "indexed": true,
          "internalType": "address",
          "name": "account",
          "type": "address"
        },
        {
          "indexed": true,
          "internalType": "address",
          "name": "sender",
          "type": "address"
        }
      ],
      "name": "RoleRevoked",
      "type": "event"
    },
    {
      "anonymous": false,
      "inputs": [
        {
          "indexed": false,
          "internalType": "address",
          "name": "account",
          "type": "address"
        }
      ],
      "name": "Unpaused",
      "type": "event"
    },
    {
      "inputs": [],
      "name": "DEFAULT_ADMIN_ROLE",
      "outputs": [
        {
          "internalType": "bytes32",
          "name": "",
          "type": "bytes32"
        }
      ],
      "stateMutability": "view",
      "type": "function"
    },
    {
      "inputs": [],
      "name": "EMERGENCY_EXTRACTOR_ROLE",
      "outputs": [
        {
          "internalType": "bytes32",
          "name": "",
          "type": "bytes32"
        }
      ],
      "stateMutability": "view",
      "type": "function"
    },
    {
      "inputs": [],
      "name": "EXTRACTOR_ROLE",
      "outputs": [
        {
          "internalType": "bytes32",
          "name": "",
          "type": "bytes32"
        }
      ],
      "stateMutability": "view",
      "type": "function"
    },
    {
      "inputs": [],
      "name": "KILLER_ROLE",
      "outputs": [
        {
          "internalType": "bytes32",
          "name": "",
          "type": "bytes32"
        }
      ],
      "stateMutability": "view",
      "type": "function"
    },
    {
      "inputs": [],
      "name": "MINT_BURN_PERCENTAGE",
      "outputs": [
        {
          "internalType": "uint256",
          "name": "",
          "type": "uint256"
        }
      ],
      "stateMutability": "view",
      "type": "function"
    },
    {
      "inputs": [],
      "name": "MINT_ECOSYSTEM_PERCENTAGE",
      "outputs": [
        {
          "internalType": "uint256",
          "name": "",
          "type": "uint256"
        }
      ],
      "stateMutability": "view",
      "type": "function"
    },
    {
      "inputs": [],
      "name": "MINT_TREASURY_PERCENTAGE",
      "outputs": [
        {
          "internalType": "uint256",
          "name": "",
          "type": "uint256"
        }
      ],
      "stateMutability": "view",
      "type": "function"
    },
    {
      "inputs": [],
      "name": "PAUSER_ROLE",
      "outputs": [
        {
          "internalType": "bytes32",
          "name": "",
          "type": "bytes32"
        }
      ],
      "stateMutability": "view",
      "type": "function"
    },
    {
      "inputs": [],
      "name": "TRAITCOUNT_MINT2",
      "outputs": [
        {
          "internalType": "uint256",
          "name": "",
          "type": "uint256"
        }
      ],
      "stateMutability": "view",
      "type": "function"
    },
    {
      "inputs": [],
      "name": "claimPpkRewards",
      "outputs": [],
      "stateMutability": "nonpayable",
      "type": "function"
    },
    {
      "inputs": [],
      "name": "computePpk",
      "outputs": [
        {
          "internalType": "uint256",
          "name": "",
          "type": "uint256"
        }
      ],
      "stateMutability": "view",
      "type": "function"
    },
    {
      "inputs": [
        {
          "internalType": "uint256",
          "name": "tokenId",
          "type": "uint256"
        }
      ],
      "name": "describe",
      "outputs": [
        {
          "components": [
            {
              "internalType": "uint256",
              "name": "score",
              "type": "uint256"
            },
            {
              "internalType": "uint256",
              "name": "stars",
              "type": "uint256"
            },
            {
              "internalType": "uint256",
              "name": "traitCount",
              "type": "uint256"
            },
            {
              "internalType": "uint256",
              "name": "resurrectionPrice",
              "type": "uint256"
            },
            {
              "internalType": "uint256",
              "name": "resurrectionCount",
              "type": "uint256"
            },
            {
              "internalType": "uint256",
              "name": "onResurrectionScore",
              "type": "uint256"
            },
            {
              "internalType": "uint256",
              "name": "onResurrectionStars",
              "type": "uint256"
            },
            {
              "internalType": "uint256",
              "name": "onResurrectionTraitCount",
              "type": "uint256"
            },
            {
              "internalType": "string",
              "name": "onResurrectionTokenURI",
              "type": "string"
            },
            {
              "internalType": "uint256",
              "name": "onGameEntryTraitCount",
              "type": "uint256"
            },
            {
              "internalType": "uint256",
              "name": "deathTime",
              "type": "uint256"
            },
            {
              "internalType": "bool",
              "name": "gameAllowed",
              "type": "bool"
            },
            {
              "internalType": "uint256",
              "name": "lives",
              "type": "uint256"
            },
            {
              "internalType": "bool",
              "name": "forSale",
              "type": "bool"
            }
          ],
          "internalType": "struct IDescriptorUser.Descriptor",
          "name": "d",
          "type": "tuple"
        }
      ],
      "stateMutability": "view",
      "type": "function"
    },
    {
      "inputs": [
        {
          "internalType": "uint256",
          "name": "tokenId",
          "type": "uint256"
        }
      ],
      "name": "enterGame2",
      "outputs": [],
      "stateMutability": "nonpayable",
      "type": "function"
    },
    {
      "inputs": [
        {
          "internalType": "uint256",
          "name": "tokenId",
          "type": "uint256"
        },
        {
          "internalType": "uint256",
          "name": "traitCount",
          "type": "uint256"
        },
        {
          "internalType": "uint256",
          "name": "stars",
          "type": "uint256"
        },
        {
          "internalType": "uint256",
          "name": "score",
          "type": "uint256"
        },
        {
          "internalType": "string",
          "name": "tokenURI_",
          "type": "string"
        }
      ],
      "name": "extractSnook",
      "outputs": [],
      "stateMutability": "nonpayable",
      "type": "function"
    },
    {
      "inputs": [
        {
          "internalType": "uint256[]",
          "name": "tokenIds",
          "type": "uint256[]"
        }
      ],
      "name": "extractSnooksWithoutUpdate",
      "outputs": [],
      "stateMutability": "nonpayable",
      "type": "function"
    },
    {
      "inputs": [],
      "name": "getAfterdeathAddress",
      "outputs": [
        {
          "internalType": "address",
          "name": "",
          "type": "address"
        }
      ],
      "stateMutability": "view",
      "type": "function"
    },
    {
      "inputs": [],
      "name": "getBurnSafeAddress",
      "outputs": [
        {
          "internalType": "address",
          "name": "",
          "type": "address"
        }
      ],
      "stateMutability": "view",
      "type": "function"
    },
    {
      "inputs": [
        {
          "internalType": "address",
          "name": "account",
          "type": "address"
        }
      ],
      "name": "getKillsAndComputePpkRewards",
      "outputs": [
        {
          "internalType": "uint256",
          "name": "",
          "type": "uint256"
        },
        {
          "internalType": "uint256",
          "name": "",
          "type": "uint256"
        }
      ],
      "stateMutability": "view",
      "type": "function"
    },
    {
      "inputs": [],
      "name": "getLivesPerSnook",
      "outputs": [
        {
          "internalType": "uint256",
          "name": "",
          "type": "uint256"
        }
      ],
      "stateMutability": "pure",
      "type": "function"
    },
    {
      "inputs": [],
      "name": "getPpkCounter",
      "outputs": [
        {
          "internalType": "uint256",
          "name": "",
          "type": "uint256"
        }
      ],
      "stateMutability": "view",
      "type": "function"
    },
    {
      "inputs": [
        {
          "internalType": "bytes32",
          "name": "role",
          "type": "bytes32"
        }
      ],
      "name": "getRoleAdmin",
      "outputs": [
        {
          "internalType": "bytes32",
          "name": "",
          "type": "bytes32"
        }
      ],
      "stateMutability": "view",
      "type": "function"
    },
    {
      "inputs": [
        {
          "internalType": "bytes32",
          "name": "role",
          "type": "bytes32"
        },
        {
          "internalType": "uint256",
          "name": "index",
          "type": "uint256"
        }
      ],
      "name": "getRoleMember",
      "outputs": [
        {
          "internalType": "address",
          "name": "",
          "type": "address"
        }
      ],
      "stateMutability": "view",
      "type": "function"
    },
    {
      "inputs": [
        {
          "internalType": "bytes32",
          "name": "role",
          "type": "bytes32"
        }
      ],
      "name": "getRoleMemberCount",
      "outputs": [
        {
          "internalType": "uint256",
          "name": "",
          "type": "uint256"
        }
      ],
      "stateMutability": "view",
      "type": "function"
    },
    {
      "inputs": [],
      "name": "getSNKAddress",
      "outputs": [
        {
          "internalType": "address",
          "name": "",
          "type": "address"
        }
      ],
      "stateMutability": "view",
      "type": "function"
    },
    {
      "inputs": [],
      "name": "getSNOOKAddress",
      "outputs": [
        {
          "internalType": "address",
          "name": "",
          "type": "address"
        }
      ],
      "stateMutability": "view",
      "type": "function"
    },
    {
      "inputs": [],
      "name": "getSnookStateAddress",
      "outputs": [
        {
          "internalType": "address",
          "name": "",
          "type": "address"
        }
      ],
      "stateMutability": "view",
      "type": "function"
    },
    {
      "inputs": [],
      "name": "getUniswapUSDCSkillAddress",
      "outputs": [
        {
          "internalType": "address",
          "name": "",
          "type": "address"
        }
      ],
      "stateMutability": "view",
      "type": "function"
    },
    {
      "inputs": [
        {
          "internalType": "bytes32",
          "name": "role",
          "type": "bytes32"
        },
        {
          "internalType": "address",
          "name": "account",
          "type": "address"
        }
      ],
      "name": "grantRole",
      "outputs": [],
      "stateMutability": "nonpayable",
      "type": "function"
    },
    {
      "inputs": [
        {
          "internalType": "bytes32",
          "name": "role",
          "type": "bytes32"
        },
        {
          "internalType": "address",
          "name": "account",
          "type": "address"
        }
      ],
      "name": "hasRole",
      "outputs": [
        {
          "internalType": "bool",
          "name": "",
          "type": "bool"
        }
      ],
      "stateMutability": "view",
      "type": "function"
    },
    {
      "inputs": [],
      "name": "increamentPpkCounter",
      "outputs": [],
      "stateMutability": "nonpayable",
      "type": "function"
    },
    {
      "inputs": [
        {
          "internalType": "address",
          "name": "state",
          "type": "address"
        },
        {
          "internalType": "address",
          "name": "snook",
          "type": "address"
        },
        {
          "internalType": "address",
          "name": "skill",
          "type": "address"
        },
        {
          "internalType": "address",
          "name": "uniswap",
          "type": "address"
        },
        {
          "internalType": "address",
          "name": "afterdeath",
          "type": "address"
        },
        {
          "internalType": "address",
          "name": "adminAccount",
          "type": "address"
        }
      ],
      "name": "initialize",
      "outputs": [],
      "stateMutability": "nonpayable",
      "type": "function"
    },
    {
      "inputs": [
        {
          "internalType": "address",
          "name": "prng",
          "type": "address"
        },
        {
          "internalType": "string[52]",
          "name": "mintTokenCIDs",
          "type": "string[52]"
        }
      ],
      "name": "initialize2",
      "outputs": [],
      "stateMutability": "nonpayable",
      "type": "function"
    },
    {
      "inputs": [
        {
          "internalType": "address",
          "name": "ecosystem",
          "type": "address"
        },
        {
          "internalType": "address",
          "name": "treasury",
          "type": "address"
        }
      ],
      "name": "initialize3",
      "outputs": [],
      "stateMutability": "nonpayable",
      "type": "function"
    },
    {
      "inputs": [
        {
          "internalType": "bool",
          "name": "isBridged_",
          "type": "bool"
        },
        {
          "internalType": "address",
          "name": "burnsafe",
          "type": "address"
        }
      ],
      "name": "initialize4",
      "outputs": [],
      "stateMutability": "nonpayable",
      "type": "function"
    },
    {
      "inputs": [],
      "name": "isBridged",
      "outputs": [
        {
          "internalType": "bool",
          "name": "",
          "type": "bool"
        }
      ],
      "stateMutability": "view",
      "type": "function"
    },
    {
      "inputs": [
        {
          "internalType": "uint256",
          "name": "count",
          "type": "uint256"
        }
      ],
      "name": "mint2",
      "outputs": [
        {
          "internalType": "uint256[]",
          "name": "",
          "type": "uint256[]"
        }
      ],
      "stateMutability": "nonpayable",
      "type": "function"
    },
    {
      "inputs": [],
      "name": "pause",
      "outputs": [],
      "stateMutability": "nonpayable",
      "type": "function"
    },
    {
      "inputs": [],
      "name": "paused",
      "outputs": [
        {
          "internalType": "bool",
          "name": "",
          "type": "bool"
        }
      ],
      "stateMutability": "view",
      "type": "function"
    },
    {
      "inputs": [
        {
          "internalType": "bytes32",
          "name": "role",
          "type": "bytes32"
        },
        {
          "internalType": "address",
          "name": "account",
          "type": "address"
        }
      ],
      "name": "renounceRole",
      "outputs": [],
      "stateMutability": "nonpayable",
      "type": "function"
    },
    {
      "inputs": [
        {
          "internalType": "uint256",
          "name": "tokenId",
          "type": "uint256"
        },
        {
          "internalType": "uint256",
          "name": "traitCount",
          "type": "uint256"
        },
        {
          "internalType": "uint256",
          "name": "stars",
          "type": "uint256"
        },
        {
          "internalType": "string",
          "name": "tokenURI",
          "type": "string"
        },
        {
          "internalType": "uint256",
          "name": "killerTokenId",
          "type": "uint256"
        },
        {
          "internalType": "bool",
          "name": "unlock",
          "type": "bool"
        }
      ],
      "name": "reportKill",
      "outputs": [],
      "stateMutability": "nonpayable",
      "type": "function"
    },
    {
      "inputs": [
        {
          "internalType": "uint256",
          "name": "tokenId",
          "type": "uint256"
        },
        {
          "internalType": "uint256",
          "name": "traitCount",
          "type": "uint256"
        },
        {
          "internalType": "uint256",
          "name": "stars",
          "type": "uint256"
        },
        {
          "internalType": "string",
          "name": "tokenURI",
          "type": "string"
        },
        {
          "internalType": "uint256",
          "name": "killerTokenId",
          "type": "uint256"
        },
        {
          "internalType": "bool",
          "name": "unlock",
          "type": "bool"
        },
        {
          "internalType": "uint256",
          "name": "killerChainId",
          "type": "uint256"
        }
      ],
      "name": "reportKilled",
      "outputs": [],
      "stateMutability": "nonpayable",
      "type": "function"
    },
    {
      "inputs": [
        {
          "internalType": "uint256",
          "name": "tokenId",
          "type": "uint256"
        },
        {
          "internalType": "uint256",
          "name": "killedTokenId",
          "type": "uint256"
        },
        {
          "internalType": "uint256",
          "name": "killedChainId",
          "type": "uint256"
        }
      ],
      "name": "reportKiller",
      "outputs": [],
      "stateMutability": "nonpayable",
      "type": "function"
    },
    {
      "inputs": [
        {
          "internalType": "bytes32",
          "name": "role",
          "type": "bytes32"
        },
        {
          "internalType": "address",
          "name": "account",
          "type": "address"
        }
      ],
      "name": "revokeRole",
      "outputs": [],
      "stateMutability": "nonpayable",
      "type": "function"
    },
    {
      "inputs": [
        {
          "internalType": "bytes4",
          "name": "interfaceId",
          "type": "bytes4"
        }
      ],
      "name": "supportsInterface",
      "outputs": [
        {
          "internalType": "bool",
          "name": "",
          "type": "bool"
        }
      ],
      "stateMutability": "view",
      "type": "function"
    },
    {
      "inputs": [],
      "name": "unpause",
      "outputs": [],
      "stateMutability": "nonpayable",
      "type": "function"
    }
  ],
  "transactionHash": "0xb97eee77d36c1591f8214f67f7e3a697b12c1010ac33e264bd94925652b06dfc",
  "args": [],
  "solcInputHash": "773758c6cb7796fc33376193135cc715",
  "bytecode": "0x608060405234801561001057600080fd5b50614f40806100206000396000f3fe608060405234801561001057600080fd5b506004361061027f5760003560e01c8063a217fddf1161015c578063cc2a9a5b116100ce578063f216b71211610087578063f216b712146104e5578063f697081a146104ed578063f7707537146104f5578063f815d62f14610515578063f8d05b101461051d578063faaf9e3d146105255761027f565b8063cc2a9a5b14610494578063cf39ce4f146104a7578063d547741f146104af578063e3643046146104c2578063e63ab1e9146104ca578063e6d7d0cd146104d25761027f565b8063bbfce7e711610120578063bbfce7e714610443578063bf042def14610456578063bf499d5f1461045e578063ca15c87314610466578063cab85f3714610479578063cb3794d4146104815761027f565b8063a217fddf14610405578063ad12d5231461040d578063b3d0108114610420578063b5ef727d14610428578063b85f2108146104305761027f565b80635c975abb116101f55780638765c91f116101b95780638765c91f146103b45780639010d07c146103bc57806391d14854146103cf5780639651a2bc146103e25780639e1ca919146103f5578063a1e66c6a146103fd5761027f565b80635c975abb146103735780635c9bd33b1461037b5780635d599ee51461038357806370debac91461038b5780638456cb59146103ac5761027f565b806336568abe1161024757806336568abe146102ff5780633aa18088146103125780633f4ba83a14610332578063553a9c1a1461033a57806356f230581461034d57806356f59a46146103605761027f565b806301ffc9a7146102845780630b751db5146102ad57806323d0b9e4146102c2578063248a9ca3146102ca5780632f2ff15d146102ea575b600080fd5b610297610292366004614122565b61052d565b6040516102a4919061470f565b60405180910390f35b6102b561055a565b6040516102a491906145ca565b6102b5610569565b6102dd6102d83660046140c5565b610578565b6040516102a4919061471a565b6102fd6102f83660046140dd565b61058d565b005b6102fd61030d3660046140dd565b6105b4565b6103256103203660046140c5565b6105d6565b6040516102a4919061468c565b6102fd610d81565b6102fd610348366004614317565b610dd0565b6102fd61035b3660046140a8565b6112f9565b6102fd61036e366004613f7a565b611371565b610297611411565b61029761141a565b6102dd61142b565b61039e610399366004613dc3565b61144f565b6040516102a4929190614c93565b6102fd611464565b6102b56114ac565b6102b56103ca366004614101565b6114bb565b6102976103dd3660046140dd565b6114dc565b6102fd6103f0366004613eb4565b611507565b6102dd61155b565b6102dd611562565b6102dd611574565b6102fd61041b3660046140c5565b611579565b6102b5611813565b6102dd611823565b6102fd61043e36600461429c565b611828565b6102fd610451366004614271565b611ead565b6102fd61210e565b6102dd612151565b6102dd6104743660046140c5565b612156565b6102b561216d565b6102fd61048f36600461439b565b61217c565b6102fd6104a2366004613e33565b6125b4565b6102dd6126b9565b6102fd6104bd3660046140dd565b6126be565b6102dd6126c8565b6102dd6126cd565b6102fd6104e0366004613dfb565b6126df565b6102dd6127b7565b6102b56127db565b6105086105033660046140c5565b6127eb565b6040516102a49190614b62565b6102dd612877565b6102dd612886565b6102fd61288b565b60006001600160e01b03198216635a05180f60e01b14806105525750610552826129ac565b90505b919050565b60fc546001600160a01b031690565b60fb546001600160a01b031690565b60009081526065602052604090206001015490565b61059782826129d1565b60008281526097602052604090206105af90826129f0565b505050565b6105be8282612a05565b60008281526097602052604090206105af9082612a4b565b60606105e0611411565b156106065760405162461bcd60e51b81526004016105fd90614908565b60405180910390fd5b600082116106265760405162461bcd60e51b81526004016105fd906149f3565b60fd546040805163b7d0020760e01b815290516000926001600160a01b03169163b7d00207916004808301926020929190829003018186803b15801561066b57600080fd5b505afa15801561067f573d6000803e3d6000fd5b505050506040513d601f19601f820116820180604052508101906106a39190614259565b9050600060056106b38386614da8565b6106bd9190614da8565b60fc546040516323b872dd60e01b81529192506001600160a01b0316906323b872dd906106f2903390309086906004016145de565b602060405180830381600087803b15801561070c57600080fd5b505af1158015610720573d6000803e3d6000fd5b505050506040513d601f19601f82011682018060405250810190610744919061408c565b6107605760405162461bcd60e51b81526004016105fd9061489c565b6000846001600160401b0381111561078857634e487b7160e01b600052604160045260246000fd5b6040519080825280602002602001820160405280156107bb57816020015b60608152602001906001900390816107a65790505b5090506000856001600160401b038111156107e657634e487b7160e01b600052604160045260246000fd5b60405190808252806020026020018201604052801561081f57816020015b61080c613b71565b8152602001906001900390816108045790505b50905060005b86811015610923576000610837612a60565b5090508084838151811061085b57634e487b7160e01b600052603260045260246000fd5b6020026020010181905250604051806101c0016040528060008152602001600081526020016001815260200160008152602001600081526020016000815260200160008152602001600081526020016040518060200160405280600081525081526020016001815260200160008152602001600015158152602001600581526020016000151581525083838151811061090457634e487b7160e01b600052603260045260246000fd5b602002602001018190525050808061091b90614e60565b915050610825565b5060fb5460405163f24d5aeb60e01b81526000916001600160a01b03169063f24d5aeb906109579033908790600401614602565b600060405180830381600087803b15801561097157600080fd5b505af1158015610985573d6000803e3d6000fd5b505050506040513d6000823e601f3d908101601f191682016040526109ad9190810190614009565b60ff54604051636d733a1760e01b81529192506001600160a01b031690636d733a17906109e0908490869060040161469f565b600060405180830381600087803b1580156109fa57600080fd5b505af1158015610a0e573d6000803e3d6000fd5b50505050600587610a1f9190614da8565b6101366000828254610a319190614d45565b90915550600090506064610a46601487614da8565b610a509190614d88565b61013a54909150600160a01b900460ff16610ace5760fc54604051632770a7eb60e21b81526001600160a01b0390911690639dc29fac90610a979030908590600401614673565b600060405180830381600087803b158015610ab157600080fd5b505af1158015610ac5573d6000803e3d6000fd5b50505050610b59565b60fc5461013a5460405163a9059cbb60e01b81526001600160a01b039283169263a9059cbb92610b05929116908590600401614673565b602060405180830381600087803b158015610b1f57600080fd5b505af1158015610b33573d6000803e3d6000fd5b505050506040513d601f19601f82011682018060405250810190610b57919061408c565b505b60006064610b68604c88614da8565b610b729190614d88565b60fc546101395460405163095ea7b360e01b81529293506001600160a01b039182169263095ea7b392610bab9216908590600401614673565b602060405180830381600087803b158015610bc557600080fd5b505af1158015610bd9573d6000803e3d6000fd5b505050506040513d601f19601f82011682018060405250810190610bfd919061408c565b5061013954604051636ddd6c8b60e11b81526001600160a01b039091169063dbbad91690610c2f90849060040161471a565b600060405180830381600087803b158015610c4957600080fd5b505af1158015610c5d573d6000803e3d6000fd5b505050506000818388610c709190614dc7565b610c7a9190614dc7565b60fc546101385460405163a9059cbb60e01b81529293506001600160a01b039182169263a9059cbb92610cb39216908590600401614673565b602060405180830381600087803b158015610ccd57600080fd5b505af1158015610ce1573d6000803e3d6000fd5b505050506040513d601f19601f82011682018060405250810190610d05919061408c565b50610100546001600160a01b03166352691516610d238c6001614da8565b8c6040518363ffffffff1660e01b8152600401610d41929190614c93565b600060405180830381600087803b158015610d5b57600080fd5b505af1158015610d6f573d6000803e3d6000fd5b50959c9b505050505050505050505050565b600080516020614eeb833981519152610da181610d9c612e62565b612e66565b610da9611411565b610dc55760405162461bcd60e51b81526004016105fd906147f1565b610dcd612eca565b50565b600080516020614ecb833981519152610deb81610d9c612e62565b610df3611411565b15610e105760405162461bcd60e51b81526004016105fd90614908565b60ff54604051636a6f3e1d60e01b81526000916001600160a01b031690636a6f3e1d90610e41908d9060040161471a565b60006040518083038186803b158015610e5957600080fd5b505afa158015610e6d573d6000803e3d6000fd5b505050506040513d6000823e601f3d908101601f19168201604052610e95919081019061414a565b60fb5460405163f6aacfb160e01b81529192506001600160a01b03169063f6aacfb190610ec6908d9060040161471a565b60206040518083038186803b158015610ede57600080fd5b505afa158015610ef2573d6000803e3d6000fd5b505050506040513d601f19601f82011682018060405250810190610f16919061408c565b1515600114610f375760405162461bcd60e51b81526004016105fd906147c1565b61014081015115610f5a5760405162461bcd60e51b81526004016105fd90614aba565b89851415610f7c5760016101366000828254610f769190614dc7565b90915550505b61018081015115610f9f5760018161018001818151610f9b9190614dc7565b9052505b61018081015161114d574261014082015261010054604051633f4cd3a760e11b81526001600160a01b0390911690637e99a74e90610fe1908d9060040161471a565b60206040518083038186803b158015610ff957600080fd5b505afa15801561100d573d6000803e3d6000fd5b505050506040513d601f19601f820116820180604052508101906110319190614259565b606082015260e0810189905260c08101889052604080516020601f8901819004810282018101909252878152908890889081908401838280828437600092019190915250505050610100808301919091525460405163eb427dcf60e01b81526001600160a01b039091169063eb427dcf906110b0908d9060040161471a565b600060405180830381600087803b1580156110ca57600080fd5b505af11580156110de573d6000803e3d6000fd5b5050610100546040808501519051633d87fbdd60e21b81526001600160a01b03909216935063f61fef7492506111169160040161471a565b600060405180830381600087803b15801561113057600080fd5b505af1158015611144573d6000803e3d6000fd5b505050506111be565b600184151514156111be5760fb5460405163bfbf01d760e01b81526001600160a01b039091169063bfbf01d79061118b908d90600090600401614b75565b600060405180830381600087803b1580156111a557600080fd5b505af11580156111b9573d6000803e3d6000fd5b505050505b60ff5460405163366a446b60e21b81526001600160a01b039091169063d9a911ac906111f0908d908590600401614c7a565b600060405180830381600087803b15801561120a57600080fd5b505af115801561121e573d6000803e3d6000fd5b505060fb546040516331a9108f60e11b81526001600160a01b039091169250636352211e9150611252908d9060040161471a565b60206040518083038186803b15801561126a57600080fd5b505afa15801561127e573d6000803e3d6000fd5b505050506040513d601f19601f820116820180604052508101906112a29190613ddf565b6001600160a01b03167fa56d5cc0fe722918425eb7b68f147546cfdc6664d22823d16f60797fb9a2ba6d8b87846101800151876040516112e59493929190614cb7565b60405180910390a250505050505050505050565b61013a54600160a81b900460ff16156113245760405162461bcd60e51b81526004016105fd90614a83565b600060fe5561013a805460ff60a81b196001600160a01b039093166001600160a01b0319941515600160a01b0260ff60a01b1990921691909117939093169290921716600160a81b179055565b7f4edebb69cd9d6569902dabdec7c91c11f65df00335e42b9a2c13432f7bb3ff0e61139e81610d9c612e62565b6113a6611411565b156113c35760405162461bcd60e51b81526004016105fd90614908565b60005b82518110156105af576113ff8382815181106113f257634e487b7160e01b600052603260045260246000fd5b6020026020010151612f38565b8061140981614e60565b9150506113c6565b60c95460ff1690565b61013a54600160a01b900460ff1690565b7f11cf46bea1094f63335637b879e8021ce59a9008b10e90c59d17337675ebc79281565b60008061145b8361319f565b91509150915091565b600080516020614eeb83398151915261147f81610d9c612e62565b611487611411565b156114a45760405162461bcd60e51b81526004016105fd90614908565b610dcd6131f2565b60fd546001600160a01b031690565b60008281526097602052604081206114d3908361324d565b90505b92915050565b60009182526065602090815260408084206001600160a01b0393909316845291905290205460ff1690565b610101546001600160a01b0316156115315760405162461bcd60e51b81526004016105fd90614a83565b61010180546001600160a01b0319166001600160a01b0384161790556105af610102826034613be4565b6101365490565b600080516020614ecb83398151915281565b600081565b611581611411565b1561159e5760405162461bcd60e51b81526004016105fd90614908565b60fb546040516331a9108f60e11b81526001600160a01b0390911690636352211e906115ce90849060040161471a565b60206040518083038186803b1580156115e657600080fd5b505afa1580156115fa573d6000803e3d6000fd5b505050506040513d601f19601f8201168201806040525081019061161e9190613ddf565b6001600160a01b0316336001600160a01b03161461164e5760405162461bcd60e51b81526004016105fd906149ca565b60fb5460405163f6aacfb160e01b81526001600160a01b039091169063f6aacfb19061167e90849060040161471a565b60206040518083038186803b15801561169657600080fd5b505afa1580156116aa573d6000803e3d6000fd5b505050506040513d601f19601f820116820180604052508101906116ce919061408c565b156116eb5760405162461bcd60e51b81526004016105fd906148e7565b60fb5460405163bfbf01d760e01b81526001600160a01b039091169063bfbf01d79061171e908490600190600401614bab565b600060405180830381600087803b15801561173857600080fd5b505af115801561174c573d6000803e3d6000fd5b505060fb546040516331a9108f60e11b81526001600160a01b039091169250636352211e915061178090849060040161471a565b60206040518083038186803b15801561179857600080fd5b505afa1580156117ac573d6000803e3d6000fd5b505050506040513d601f19601f820116820180604052508101906117d09190613ddf565b6001600160a01b03167f6badce09299f7f7600a82aeaaf2801e2ea536ed021bb15fde48fdc2b072934eb82604051611808919061471a565b60405180910390a250565b61013a546001600160a01b031690565b604c81565b600080516020614ecb83398151915261184381610d9c612e62565b61184b611411565b156118685760405162461bcd60e51b81526004016105fd90614908565b60ff54604051636a6f3e1d60e01b81526000916001600160a01b031690636a6f3e1d90611899908c9060040161471a565b60006040518083038186803b1580156118b157600080fd5b505afa1580156118c5573d6000803e3d6000fd5b505050506040513d6000823e601f3d908101601f191682016040526118ed919081019061414a565b60fb54604051634f558e7960e01b81529192506001600160a01b031690634f558e799061191e90879060040161471a565b60206040518083038186803b15801561193657600080fd5b505afa15801561194a573d6000803e3d6000fd5b505050506040513d601f19601f8201168201806040525081019061196e919061408c565b151560011461198f5760405162461bcd60e51b81526004016105fd90614865565b60fb5460405163f6aacfb160e01b81526001600160a01b039091169063f6aacfb1906119bf908c9060040161471a565b60206040518083038186803b1580156119d757600080fd5b505afa1580156119eb573d6000803e3d6000fd5b505050506040513d601f19601f82011682018060405250810190611a0f919061408c565b1515600114611a305760405162461bcd60e51b81526004016105fd90614a36565b61014081015115611a535760405162461bcd60e51b81526004016105fd90614aba565b88841415611a7a5760016101366000828254611a6f9190614dc7565b90915550611b319050565b60fb546040516331a9108f60e11b81526000916001600160a01b031690636352211e90611aab90889060040161471a565b60206040518083038186803b158015611ac357600080fd5b505afa158015611ad7573d6000803e3d6000fd5b505050506040513d601f19601f82011682018060405250810190611afb9190613ddf565b6001600160a01b0381166000908152610137602052604081208054929350600192909190611b2a908490614d45565b9091555050505b61018081015115611b545760018161018001818151611b509190614dc7565b9052505b610180810151611d02574261014082015261010054604051633f4cd3a760e11b81526001600160a01b0390911690637e99a74e90611b96908c9060040161471a565b60206040518083038186803b158015611bae57600080fd5b505afa158015611bc2573d6000803e3d6000fd5b505050506040513d601f19601f82011682018060405250810190611be69190614259565b606082015260e0810188905260c08101879052604080516020601f8801819004810282018101909252868152908790879081908401838280828437600092019190915250505050610100808301919091525460405163eb427dcf60e01b81526001600160a01b039091169063eb427dcf90611c65908c9060040161471a565b600060405180830381600087803b158015611c7f57600080fd5b505af1158015611c93573d6000803e3d6000fd5b5050610100546040808501519051633d87fbdd60e21b81526001600160a01b03909216935063f61fef749250611ccb9160040161471a565b600060405180830381600087803b158015611ce557600080fd5b505af1158015611cf9573d6000803e3d6000fd5b50505050611d73565b60018315151415611d735760fb5460405163bfbf01d760e01b81526001600160a01b039091169063bfbf01d790611d40908c90600090600401614b75565b600060405180830381600087803b158015611d5a57600080fd5b505af1158015611d6e573d6000803e3d6000fd5b505050505b60ff5460405163366a446b60e21b81526001600160a01b039091169063d9a911ac90611da5908c908590600401614c7a565b600060405180830381600087803b158015611dbf57600080fd5b505af1158015611dd3573d6000803e3d6000fd5b505060fb546040516331a9108f60e11b81526001600160a01b039091169250636352211e9150611e07908c9060040161471a565b60206040518083038186803b158015611e1f57600080fd5b505afa158015611e33573d6000803e3d6000fd5b505050506040513d601f19601f82011682018060405250810190611e579190613ddf565b6001600160a01b03167fa56d5cc0fe722918425eb7b68f147546cfdc6664d22823d16f60797fb9a2ba6d8a8684610180015146604051611e9a9493929190614cb7565b60405180910390a2505050505050505050565b600080516020614ecb833981519152611ec881610d9c612e62565b611ed0611411565b15611eed5760405162461bcd60e51b81526004016105fd90614908565b60fb54604051634f558e7960e01b81526001600160a01b0390911690634f558e7990611f1d90879060040161471a565b60206040518083038186803b158015611f3557600080fd5b505afa158015611f49573d6000803e3d6000fd5b505050506040513d601f19601f82011682018060405250810190611f6d919061408c565b1515600114611f8e5760405162461bcd60e51b81526004016105fd9061481f565b60fb546040516331a9108f60e11b81526000916001600160a01b031690636352211e90611fbf90889060040161471a565b60206040518083038186803b158015611fd757600080fd5b505afa158015611feb573d6000803e3d6000fd5b505050506040513d601f19601f8201168201806040525081019061200f9190613ddf565b6001600160a01b038116600090815261013760205260408120805492935060019290919061203e908490614d45565b909155505060fb546040516331a9108f60e11b81526001600160a01b0390911690636352211e9061207390889060040161471a565b60206040518083038186803b15801561208b57600080fd5b505afa15801561209f573d6000803e3d6000fd5b505050506040513d601f19601f820116820180604052508101906120c39190613ddf565b6001600160a01b03167fee68ddc9ef4813ba80957a7001ba51f8a83e3071c62f17c923d9bbb2b2071fe08686866040516120ff93929190614ca1565b60405180910390a25050505050565b610100546001600160a01b031633146121395760405162461bcd60e51b81526004016105fd90614a5b565b610136805490600061214a83614e60565b9190505550565b600590565b600081815260976020526040812061055290613259565b60ff546001600160a01b031690565b7f11cf46bea1094f63335637b879e8021ce59a9008b10e90c59d17337675ebc7926121a981610d9c612e62565b6121b1611411565b156121ce5760405162461bcd60e51b81526004016105fd90614908565b60ff54604051636a6f3e1d60e01b81526000916001600160a01b031690636a6f3e1d906121ff908b9060040161471a565b60006040518083038186803b15801561221757600080fd5b505afa15801561222b573d6000803e3d6000fd5b505050506040513d6000823e601f3d908101601f19168201604052612253919081019061414a565b60fb5460405163f6aacfb160e01b81529192506001600160a01b03169063f6aacfb190612284908b9060040161471a565b60206040518083038186803b15801561229c57600080fd5b505afa1580156122b0573d6000803e3d6000fd5b505050506040513d601f19601f820116820180604052508101906122d4919061408c565b15156001146122f55760405162461bcd60e51b81526004016105fd90614a36565b610140810151156123185760405162461bcd60e51b81526004016105fd906148c9565b60048611156123395760405162461bcd60e51b81526004016105fd90614980565b6101005461012082015160405163c97bafe160e01b81526001600160a01b039092169163c97bafe191612370918b90600401614c93565b600060405180830381600087803b15801561238a57600080fd5b505af115801561239e573d6000803e3d6000fd5b505060fb54604051630588253160e21b81526001600160a01b03909116925063162094c491506123d6908b9088908890600401614c44565b600060405180830381600087803b1580156123f057600080fd5b505af1158015612404573d6000803e3d6000fd5b50505050604080820188905261012082018890526020820187905285825260ff54905163366a446b60e21b81526001600160a01b039091169063d9a911ac90612453908b908590600401614c7a565b600060405180830381600087803b15801561246d57600080fd5b505af1158015612481573d6000803e3d6000fd5b505060fb5460405163bfbf01d760e01b81526001600160a01b03909116925063bfbf01d791506124b8908b90600090600401614c15565b600060405180830381600087803b1580156124d257600080fd5b505af11580156124e6573d6000803e3d6000fd5b505060fb546040516331a9108f60e11b81526001600160a01b039091169250636352211e915061251a908b9060040161471a565b60206040518083038186803b15801561253257600080fd5b505afa158015612546573d6000803e3d6000fd5b505050506040513d601f19601f8201168201806040525081019061256a9190613ddf565b6001600160a01b03167f7faed872658ab10c4f98b4705a343cb26b9739b37e202617569d97fb3ddb7ef9896040516125a2919061471a565b60405180910390a25050505050505050565b600054610100900460ff16806125cd575060005460ff16155b6125e95760405162461bcd60e51b81526004016105fd90614932565b600054610100900460ff16158015612614576000805460ff1961ff0019909116610100171660011790555b61261c613264565b6126246132f8565b60fd80546001600160a01b03199081166001600160a01b038781169190911790925560fb8054821689841617905560fc8054821688841617905560ff805482168a84161790556101008054909116918516919091179055612686600083613368565b61269e600080516020614eeb83398151915283613368565b80156126b0576000805461ff00191690555b50505050505050565b600481565b6105be8282613372565b600181565b600080516020614eeb83398151915281565b610138546001600160a01b0316156127095760405162461bcd60e51b81526004016105fd90614a83565b61013880546001600160a01b038085166001600160a01b03199283161790925561013980548484169216919091179055610100546040805163938ce1f760e01b81529051919092169163938ce1f7916004808301926020929190829003018186803b15801561277757600080fd5b505afa15801561278b573d6000803e3d6000fd5b505050506040513d601f19601f820116820180604052508101906127af9190614259565b610136555050565b7f4edebb69cd9d6569902dabdec7c91c11f65df00335e42b9a2c13432f7bb3ff0e81565b610100546001600160a01b031690565b6127f3613b71565b60ff54604051636a6f3e1d60e01b81526001600160a01b0390911690636a6f3e1d9061282390859060040161471a565b60006040518083038186803b15801561283b57600080fd5b505afa15801561284f573d6000803e3d6000fd5b505050506040513d6000823e601f3d908101601f19168201604052610552919081019061414a565b6000612881613391565b905090565b601481565b3360006128978261319f565b915050600081116128ba5760405162461bcd60e51b81526004016105fd90614aef565b6001600160a01b038216600090815261013760205260408120546101368054919290916128e8908490614dc7565b90915550506001600160a01b0380831660009081526101376020526040808220919091556101395490516384b13ac760e01b81529116906384b13ac7906129359085908590600401614673565b600060405180830381600087803b15801561294f57600080fd5b505af1158015612963573d6000803e3d6000fd5b50505050816001600160a01b03167f82575769d6cf83966efcd5cee6230e68d90a4f1aeca7508f57783f2e1cf2c3a6826040516129a0919061471a565b60405180910390a25050565b60006001600160e01b03198216637965db0b60e01b1480610552575061055282613434565b6129da82610578565b6129e681610d9c612e62565b6105af838361344d565b60006114d3836001600160a01b0384166134d4565b612a0d612e62565b6001600160a01b0316816001600160a01b031614612a3d5760405162461bcd60e51b81526004016105fd90614b13565b612a47828261351e565b5050565b60006114d3836001600160a01b0384166135a3565b6060600061010160009054906101000a90046001600160a01b03166001600160a01b0316632a1bbc346040518163ffffffff1660e01b8152600401600060405180830381600087803b158015612ab557600080fd5b505af1158015612ac9573d6000803e3d6000fd5b5050610101546040516344dc5a4960e11b8152600093506001600160a01b0390911691506389b8b49290612b0290601b90600401614723565b602060405180830381600087803b158015612b1c57600080fd5b505af1158015612b30573d6000803e3d6000fd5b505050506040513d601f19601f82011682018060405250810190612b549190614402565b612b5f906001614d5d565b6001600160401b03169050600060405180602001604052806000815250905060008060018410158015612b93575060058411155b15612c3057610101546040516344dc5a4960e11b8152600093506001600160a01b03909116906389b8b49290612bce90601490600401614723565b602060405180830381600087803b158015612be857600080fd5b505af1158015612bfc573d6000803e3d6000fd5b505050506040513d601f19601f82011682018060405250810190612c209190614402565b6001600160401b03169050612d7a565b60068410158015612c425750600f8411155b15612c8657612c5360146000614d45565b610101546040516344dc5a4960e11b81529193506001600160a01b0316906389b8b49290612bce90601490600401614723565b60108410158015612c98575060128411155b15612ce7576014612caa816000614d45565b612cb49190614d45565b610101546040516344dc5a4960e11b81529193506001600160a01b0316906389b8b49290612bce90600390600401614723565b60138410158015612cf9575060158411155b15612d175760036014612d0d816000614d45565b612caa9190614d45565b60168410158015612d29575060188411155b15612d48576003806014612d3e816000614d45565b612d0d9190614d45565b60198410158015612d5a5750601b8411155b15612d7a57600380806014612d70816000614d45565b612d3e9190614d45565b604080518082019091526007815266697066733a2f2f60c81b6020820152612e5690610102612da98486614d45565b60348110612dc757634e487b7160e01b600052603260045260246000fd5b018054612dd390614e25565b80601f0160208091040260200160405190810160405280929190818152602001828054612dff90614e25565b8015612e4c5780601f10612e2157610100808354040283529160200191612e4c565b820191906000526020600020905b815481529060010190602001808311612e2f57829003601f168201915b50505050506136ba565b95509293505050509091565b3390565b612e7082826114dc565b612a4757612e88816001600160a01b03166014613850565b612e93836020613850565b604051602001612ea4929190614555565b60408051601f198184030181529082905262461bcd60e51b82526105fd91600401614737565b612ed2611411565b612eee5760405162461bcd60e51b81526004016105fd906147f1565b60c9805460ff191690557f5db9ee0a495bf2e6ff9c91a7834c1ba4fdd244a5e8aa4e537bd38aeae4b073aa612f21612e62565b604051612f2e91906145ca565b60405180910390a1565b60ff54604051636a6f3e1d60e01b81526000916001600160a01b031690636a6f3e1d90612f6990859060040161471a565b60006040518083038186803b158015612f8157600080fd5b505afa158015612f95573d6000803e3d6000fd5b505050506040513d6000823e601f3d908101601f19168201604052612fbd919081019061414a565b60fb5460405163f6aacfb160e01b81529192506001600160a01b03169063f6aacfb190612fee90859060040161471a565b60206040518083038186803b15801561300657600080fd5b505afa15801561301a573d6000803e3d6000fd5b505050506040513d601f19601f8201168201806040525081019061303e919061408c565b151560011461305f5760405162461bcd60e51b81526004016105fd90614a36565b610140810151156130825760405162461bcd60e51b81526004016105fd906148c9565b60fb5460405163bfbf01d760e01b81526001600160a01b039091169063bfbf01d7906130b5908590600090600401614bdd565b600060405180830381600087803b1580156130cf57600080fd5b505af11580156130e3573d6000803e3d6000fd5b505060fb546040516331a9108f60e11b81526001600160a01b039091169250636352211e915061311790859060040161471a565b60206040518083038186803b15801561312f57600080fd5b505afa158015613143573d6000803e3d6000fd5b505050506040513d601f19601f820116820180604052508101906131679190613ddf565b6001600160a01b03167f7faed872658ab10c4f98b4705a343cb26b9739b37e202617569d97fb3ddb7ef9836040516129a0919061471a565b6001600160a01b03811660009081526101376020526040812054819081906131c5613391565b6131cf9190614da8565b6001600160a01b0394909416600090815261013760205260409020549492505050565b6131fa611411565b156132175760405162461bcd60e51b81526004016105fd90614908565b60c9805460ff191660011790557f62e78cea01bee320cd4e420270b5ea74000d11b0c9f74754ebdbfc544b05a258612f21612e62565b60006114d38383613a01565b600061055282613a5a565b600054610100900460ff168061327d575060005460ff16155b6132995760405162461bcd60e51b81526004016105fd90614932565b600054610100900460ff161580156132c4576000805460ff1961ff0019909116610100171660011790555b6132cc613a5e565b6132d4613a5e565b6132dc613a5e565b6132e4613a5e565b8015610dcd576000805461ff001916905550565b600054610100900460ff1680613311575060005460ff16155b61332d5760405162461bcd60e51b81526004016105fd90614932565b600054610100900460ff16158015613358576000805460ff1961ff0019909116610100171660011790555b613360613a5e565b6132e4613ad1565b6105978282613b4f565b61337b82610578565b61338781610d9c612e62565b6105af838361351e565b61013654600090819015612881576101365461013960009054906101000a90046001600160a01b03166001600160a01b0316637d817a356040518163ffffffff1660e01b815260040160206040518083038186803b1580156133f257600080fd5b505afa158015613406573d6000803e3d6000fd5b505050506040513d601f19601f8201168201806040525081019061342a9190614259565b6114d69190614d88565b6001600160e01b031981166301ffc9a760e01b14919050565b61345782826114dc565b612a475760008281526065602090815260408083206001600160a01b03851684529091529020805460ff19166001179055613490612e62565b6001600160a01b0316816001600160a01b0316837f2f8788117e7eff1d82e926ec794901d17c78024a50270940304540a733656f0d60405160405180910390a45050565b60006134e08383613b59565b613516575081546001818101845560008481526020808220909301849055845484825282860190935260409020919091556114d6565b5060006114d6565b61352882826114dc565b15612a475760008281526065602090815260408083206001600160a01b03851684529091529020805460ff1916905561355f612e62565b6001600160a01b0316816001600160a01b0316837ff6391f5c32d9c69d2a47ea670b442974b53935d1edc7fd64eb21e047a839171b60405160405180910390a45050565b600081815260018301602052604081205480156136b05760006135c7600183614dc7565b85549091506000906135db90600190614dc7565b9050600086600001828154811061360257634e487b7160e01b600052603260045260246000fd5b906000526020600020015490508087600001848154811061363357634e487b7160e01b600052603260045260246000fd5b60009182526020808320909101929092558281526001890190915260409020849055865487908061367457634e487b7160e01b600052603160045260246000fd5b600190038181906000526020600020016000905590558660010160008781526020019081526020016000206000905560019450505050506114d6565b60009150506114d6565b80518251606091849184916000916136d29190614d45565b6001600160401b038111156136f757634e487b7160e01b600052604160045260246000fd5b6040519080825280601f01601f191660200182016040528015613721576020820181803683370190505b5090506000805b84518110156137b45784818151811061375157634e487b7160e01b600052603260045260246000fd5b01602001516001600160f81b031916838361376b81614e60565b94508151811061378b57634e487b7160e01b600052603260045260246000fd5b60200101906001600160f81b031916908160001a905350806137ac81614e60565b915050613728565b5060005b8351811015613844578381815181106137e157634e487b7160e01b600052603260045260246000fd5b01602001516001600160f81b03191683836137fb81614e60565b94508151811061381b57634e487b7160e01b600052603260045260246000fd5b60200101906001600160f81b031916908160001a9053508061383c81614e60565b9150506137b8565b50909695505050505050565b6060600061385f836002614da8565b61386a906002614d45565b6001600160401b0381111561388f57634e487b7160e01b600052604160045260246000fd5b6040519080825280601f01601f1916602001820160405280156138b9576020820181803683370190505b509050600360fc1b816000815181106138e257634e487b7160e01b600052603260045260246000fd5b60200101906001600160f81b031916908160001a905350600f60fb1b8160018151811061391f57634e487b7160e01b600052603260045260246000fd5b60200101906001600160f81b031916908160001a9053506000613943846002614da8565b61394e906001614d45565b90505b60018111156139e2576f181899199a1a9b1b9c1cb0b131b232b360811b85600f166010811061399057634e487b7160e01b600052603260045260246000fd5b1a60f81b8282815181106139b457634e487b7160e01b600052603260045260246000fd5b60200101906001600160f81b031916908160001a90535060049490941c936139db81614e0e565b9050613951565b5083156114d35760405162461bcd60e51b81526004016105fd9061478c565b81546000908210613a245760405162461bcd60e51b81526004016105fd9061474a565b826000018281548110613a4757634e487b7160e01b600052603260045260246000fd5b9060005260206000200154905092915050565b5490565b600054610100900460ff1680613a77575060005460ff16155b613a935760405162461bcd60e51b81526004016105fd90614932565b600054610100900460ff161580156132e4576000805460ff1961ff0019909116610100171660011790558015610dcd576000805461ff001916905550565b600054610100900460ff1680613aea575060005460ff16155b613b065760405162461bcd60e51b81526004016105fd90614932565b600054610100900460ff16158015613b31576000805460ff1961ff0019909116610100171660011790555b60c9805460ff191690558015610dcd576000805461ff001916905550565b612a47828261344d565b60009081526001919091016020526040902054151590565b604051806101c001604052806000815260200160008152602001600081526020016000815260200160008152602001600081526020016000815260200160008152602001606081526020016000815260200160008152602001600015158152602001600081526020016000151581525090565b8260348101928215613c24579160200282015b82811115613c245782518051613c14918491602090910190613c34565b5091602001919060010190613bf7565b50613c30929150613cb4565b5090565b828054613c4090614e25565b90600052602060002090601f016020900481019282613c625760008555613ca8565b82601f10613c7b57805160ff1916838001178555613ca8565b82800160010185558215613ca8579182015b82811115613ca8578251825591602001919060010190613c8d565b50613c30929150613cd1565b80821115613c30576000613cc88282613ce6565b50600101613cb4565b5b80821115613c305760008155600101613cd2565b508054613cf290614e25565b6000825580601f10613d045750610dcd565b601f016020900490600052602060002090810190610dcd9190613cd1565b805161055581614ebc565b60008083601f840112613d3e578182fd5b5081356001600160401b03811115613d54578182fd5b602083019150836020828501011115613d6c57600080fd5b9250929050565b600082601f830112613d83578081fd5b8151613d96613d9182614d1e565b614cd2565b818152846020838601011115613daa578283fd5b613dbb826020830160208701614dde565b949350505050565b600060208284031215613dd4578081fd5b81356114d381614ea7565b600060208284031215613df0578081fd5b81516114d381614ea7565b60008060408385031215613e0d578081fd5b8235613e1881614ea7565b91506020830135613e2881614ea7565b809150509250929050565b60008060008060008060c08789031215613e4b578182fd5b8635613e5681614ea7565b95506020870135613e6681614ea7565b94506040870135613e7681614ea7565b93506060870135613e8681614ea7565b92506080870135613e9681614ea7565b915060a0870135613ea681614ea7565b809150509295509295509295565b60008060408385031215613ec6578182fd5b8235613ed181614ea7565b91506020838101356001600160401b03811115613eec578283fd5b8401601f8082018713613efd578384fd5b613f08610680614cd2565b8083865b6034811015613f6a57813586018b86820112613f26578889fd5b8035613f34613d9182614d1e565b8181528d8a838501011115613f47578a8bfd5b818a84018b83013790810189018a90528552509286019290860190600101613f0c565b5096999098509650505050505050565b60006020808385031215613f8c578182fd5b82356001600160401b03811115613fa1578283fd5b8301601f81018513613fb1578283fd5b8035613fbf613d9182614cfb565b8181528381019083850185840285018601891015613fdb578687fd5b8694505b83851015613ffd578035835260019490940193918501918501613fdf565b50979650505050505050565b6000602080838503121561401b578182fd5b82516001600160401b03811115614030578283fd5b8301601f81018513614040578283fd5b805161404e613d9182614cfb565b818152838101908385018584028501860189101561406a578687fd5b8694505b83851015613ffd57805183526001949094019391850191850161406e565b60006020828403121561409d578081fd5b81516114d381614ebc565b600080604083850312156140ba578182fd5b8235613e1881614ebc565b6000602082840312156140d6578081fd5b5035919050565b600080604083850312156140ef578182fd5b823591506020830135613e2881614ea7565b60008060408385031215614113578182fd5b50508035926020909101359150565b600060208284031215614133578081fd5b81356001600160e01b0319811681146114d3578182fd5b60006020828403121561415b578081fd5b81516001600160401b0380821115614171578283fd5b81840191506101c0808387031215614187578384fd5b61419081614cd2565b9050825181526020830151602082015260408301516040820152606083015160608201526080830151608082015260a083015160a082015260c083015160c082015260e083015160e082015261010080840151838111156141ef578586fd5b6141fb88828701613d73565b9183019190915250610120838101519082015261014080840151908201526101609150614229828401613d22565b82820152610180915081830151828201526101a0915061424a828401613d22565b91810191909152949350505050565b60006020828403121561426a578081fd5b5051919050565b600080600060608486031215614285578081fd5b505081359360208301359350604090920135919050565b600080600080600080600060c0888a0312156142b6578485fd5b87359650602088013595506040880135945060608801356001600160401b038111156142e0578182fd5b6142ec8a828b01613d2d565b9095509350506080880135915060a088013561430781614ebc565b8091505092959891949750929550565b60008060008060008060008060e0898b031215614332578182fd5b88359750602089013596506040890135955060608901356001600160401b0381111561435c578283fd5b6143688b828c01613d2d565b9096509450506080890135925060a089013561438381614ebc565b8092505060c089013590509295985092959890939650565b60008060008060008060a087890312156143b3578384fd5b8635955060208701359450604087013593506060870135925060808701356001600160401b038111156143e4578283fd5b6143f089828a01613d2d565b979a9699509497509295939492505050565b600060208284031215614413578081fd5b81516001600160401b03811681146114d3578182fd5b6000815180845260208085019450808401835b838110156144585781518752958201959082019060010161443c565b509495945050505050565b15159052565b60008151808452614481816020860160208601614dde565b601f01601f19169290920160200192915050565b60006101c0825184526020830151602085015260408301516040850152606083015160608501526080830151608085015260a083015160a085015260c083015160c085015260e083015160e08501526101008084015182828701526144fc83870182614469565b925050506101208084015181860152506101408084015181860152506101608084015161452b82870182614463565b505061018083810151908501526101a08084015161454b82870182614463565b5090949350505050565b60007f416363657373436f6e74726f6c3a206163636f756e74200000000000000000008252835161458d816017850160208801614dde565b7001034b99036b4b9b9b4b733903937b6329607d1b60179184019182015283516145be816028840160208801614dde565b01602801949350505050565b6001600160a01b0391909116815260200190565b6001600160a01b039384168152919092166020820152604081019190915260600190565b6001600160a01b0383168152604060208083018290528351918301829052600091606081830285018101929190850190868301855b8281101561466557605f19888703018452614653868351614469565b95509284019290840190600101614637565b509398975050505050505050565b6001600160a01b03929092168252602082015260400190565b6000602082526114d36020830184614429565b6000604082526146b26040830185614429565b602083820381850152818551808452828401915082838202850101838801865b8381101561470057601f198784030185526146ee838351614495565b948601949250908501906001016146d2565b50909998505050505050505050565b901515815260200190565b90815260200190565b6001600160401b0391909116815260200190565b6000602082526114d36020830184614469565b60208082526022908201527f456e756d657261626c655365743a20696e646578206f7574206f6620626f756e604082015261647360f01b606082015260800190565b6020808252818101527f537472696e67733a20686578206c656e67746820696e73756666696369656e74604082015260600190565b602080825260169082015275536e6f6f6b47616d653a206e6f7420696e20706c617960501b604082015260600190565b60208082526014908201527314185d5cd8589b194e881b9bdd081c185d5cd95960621b604082015260600190565b60208082526026908201527f536e6f6f6b47616d653a206b696c6c657220746f6b656e20646f6573206e6f7460408201526508195e1a5cdd60d21b606082015260800190565b6020808252601b908201527f4b696c6c657220746f6b656e20646f6573206e6f742065786973740000000000604082015260600190565b602080825260139082015272536e6f6f6b47616d653a204e6f2066756e647360681b604082015260600190565b6020808252600490820152631119585960e21b604082015260600190565b602080825260079082015266496e20706c617960c81b604082015260600190565b60208082526010908201526f14185d5cd8589b194e881c185d5cd95960821b604082015260600190565b6020808252602e908201527f496e697469616c697a61626c653a20636f6e747261637420697320616c72656160408201526d191e481a5b9a5d1a585b1a5e995960921b606082015260800190565b6020808252602a908201527f536e6f6f6b47616d653a2063616e6e6f742061737369676e206d6f7265207468604082015269616e203420737461727360b01b606082015260800190565b6020808252600f908201526e2737ba1039b737b7b59037bbb732b960891b604082015260600190565b60208082526023908201527f536e6f6f6b47616d653a2073686f756c6420626520677265617465722074686160408201526206e20360ec1b606082015260800190565b6020808252600b908201526a4e6f7420696e20706c617960a81b604082015260600190565b6020808252600e908201526d09cdee840c2cce8cae4c8cac2e8d60931b604082015260600190565b6020808252601b908201527f536e6f6f6b47616d653a20616c72656164792065786563757465640000000000604082015260600190565b6020808252818101527f536e6f6f6b47616d653a20746f6b656e20697320616c72656164792064656164604082015260600190565b6020808252600a90820152694e6f207265776172647360b01b604082015260600190565b6020808252602f908201527f416363657373436f6e74726f6c3a2063616e206f6e6c792072656e6f756e636560408201526e103937b632b9903337b91039b2b63360891b606082015260800190565b6000602082526114d36020830184614495565b91825215156020820152606060408201819052600e908201526d3ab73637b1b590313c903ab9b2b960911b608082015260a00190565b91825215156020820152606060408201819052600a908201526932b73a32b923b0b6b29960b11b608082015260a00190565b918252151560208201526060604082018190526010908201526f195b595c99d95b98de515e1d1c9858dd60821b608082015260a00190565b9182521515602082015260606040820181905260079082015266195e1d1c9858dd60ca1b608082015260a00190565b60008482526040602083015282604083015282846060840137818301606090810191909152601f909201601f1916010192915050565b600083825260406020830152613dbb6040830184614495565b918252602082015260400190565b9283526020830191909152604082015260600190565b93845260208401929092526040830152606082015260800190565b6040518181016001600160401b0381118282101715614cf357614cf3614e91565b604052919050565b60006001600160401b03821115614d1457614d14614e91565b5060209081020190565b60006001600160401b03821115614d3757614d37614e91565b50601f01601f191660200190565b60008219821115614d5857614d58614e7b565b500190565b60006001600160401b03808316818516808303821115614d7f57614d7f614e7b565b01949350505050565b600082614da357634e487b7160e01b81526012600452602481fd5b500490565b6000816000190483118215151615614dc257614dc2614e7b565b500290565b600082821015614dd957614dd9614e7b565b500390565b60005b83811015614df9578181015183820152602001614de1565b83811115614e08576000848401525b50505050565b600081614e1d57614e1d614e7b565b506000190190565b600281046001821680614e3957607f821691505b60208210811415614e5a57634e487b7160e01b600052602260045260246000fd5b50919050565b6000600019821415614e7457614e74614e7b565b5060010190565b634e487b7160e01b600052601160045260246000fd5b634e487b7160e01b600052604160045260246000fd5b6001600160a01b0381168114610dcd57600080fd5b8015158114610dcd57600080fdfee6e3949e8a695ab324c56918234e431a010aea56ecd8572ccdd0adf70b8b664b65d7a28e3265b37a6474929f336521b332c1681b933f6cb9f3376673440d862aa26469706673582212201c8adc47cd6c36419f613b2b02ffc65e99c51ca5fd1deaeec8cfe7c71739b64364736f6c63430008000033",
  "devdoc": {
    "kind": "dev",
    "methods": {
      "getRoleAdmin(bytes32)": {
        "details": "Returns the admin role that controls `role`. See {grantRole} and {revokeRole}. To change a role's admin, use {_setRoleAdmin}."
      },
      "getRoleMember(bytes32,uint256)": {
        "details": "Returns one of the accounts that have `role`. `index` must be a value between 0 and {getRoleMemberCount}, non-inclusive. Role bearers are not sorted in any particular way, and their ordering may change at any point. WARNING: When using {getRoleMember} and {getRoleMemberCount}, make sure you perform all queries on the same block. See the following https://forum.openzeppelin.com/t/iterating-over-elements-on-enumerableset-in-openzeppelin-contracts/2296[forum post] for more information."
      },
      "getRoleMemberCount(bytes32)": {
        "details": "Returns the number of accounts that have `role`. Can be used together with {getRoleMember} to enumerate all bearers of a role."
      },
      "grantRole(bytes32,address)": {
        "details": "Overload {grantRole} to track enumerable memberships"
      },
      "hasRole(bytes32,address)": {
        "details": "Returns `true` if `account` has been granted `role`."
      },
      "paused()": {
        "details": "Returns true if the contract is paused, and false otherwise."
      },
      "renounceRole(bytes32,address)": {
        "details": "Overload {renounceRole} to track enumerable memberships"
      },
      "revokeRole(bytes32,address)": {
        "details": "Overload {revokeRole} to track enumerable memberships"
      },
      "supportsInterface(bytes4)": {
        "details": "See {IERC165-supportsInterface}."
      }
    },
    "version": 1
  },
  "userdoc": {
    "kind": "user",
    "methods": {},
    "version": 1
  },
  "storageLayout": {
    "storage": [
      {
        "astId": 753,
        "contract": "contracts/SnookGame.sol:SnookGame",
        "label": "_initialized",
        "offset": 0,
        "slot": "0",
        "type": "t_bool"
      },
      {
        "astId": 756,
        "contract": "contracts/SnookGame.sol:SnookGame",
        "label": "_initializing",
        "offset": 1,
        "slot": "0",
        "type": "t_bool"
      },
      {
        "astId": 2658,
        "contract": "contracts/SnookGame.sol:SnookGame",
        "label": "__gap",
        "offset": 0,
        "slot": "1",
        "type": "t_array(t_uint256)50_storage"
      },
      {
        "astId": 2907,
        "contract": "contracts/SnookGame.sol:SnookGame",
        "label": "__gap",
        "offset": 0,
        "slot": "51",
        "type": "t_array(t_uint256)50_storage"
      },
      {
        "astId": 307,
        "contract": "contracts/SnookGame.sol:SnookGame",
        "label": "_roles",
        "offset": 0,
        "slot": "101",
        "type": "t_mapping(t_bytes32,t_struct(RoleData)302_storage)"
      },
      {
        "astId": 615,
        "contract": "contracts/SnookGame.sol:SnookGame",
        "label": "__gap",
        "offset": 0,
        "slot": "102",
        "type": "t_array(t_uint256)49_storage"
      },
      {
        "astId": 62,
        "contract": "contracts/SnookGame.sol:SnookGame",
        "label": "_roleMembers",
        "offset": 0,
        "slot": "151",
        "type": "t_mapping(t_bytes32,t_struct(AddressSet)3206_storage)"
      },
      {
        "astId": 219,
        "contract": "contracts/SnookGame.sol:SnookGame",
        "label": "__gap",
        "offset": 0,
        "slot": "152",
        "type": "t_array(t_uint256)49_storage"
      },
      {
        "astId": 814,
        "contract": "contracts/SnookGame.sol:SnookGame",
        "label": "_paused",
        "offset": 0,
        "slot": "201",
        "type": "t_bool"
      },
      {
        "astId": 905,
        "contract": "contracts/SnookGame.sol:SnookGame",
        "label": "__gap",
        "offset": 0,
        "slot": "202",
        "type": "t_array(t_uint256)49_storage"
      },
      {
        "astId": 11651,
        "contract": "contracts/SnookGame.sol:SnookGame",
        "label": "_snook",
        "offset": 0,
        "slot": "251",
        "type": "t_contract(SnookToken)13881"
      },
      {
        "astId": 11654,
        "contract": "contracts/SnookGame.sol:SnookGame",
        "label": "_skill",
        "offset": 0,
        "slot": "252",
        "type": "t_contract(ISkillToken)9826"
      },
      {
        "astId": 11657,
        "contract": "contracts/SnookGame.sol:SnookGame",
        "label": "_uniswap",
        "offset": 0,
        "slot": "253",
        "type": "t_contract(IUniswapUSDCSkill)10364"
      },
      {
        "astId": 11659,
        "contract": "contracts/SnookGame.sol:SnookGame",
        "label": "_UNUSED",
        "offset": 0,
        "slot": "254",
        "type": "t_uint256"
      },
      {
        "astId": 11662,
        "contract": "contracts/SnookGame.sol:SnookGame",
        "label": "_state",
        "offset": 0,
        "slot": "255",
        "type": "t_contract(ISnookState)10092"
      },
      {
        "astId": 11665,
        "contract": "contracts/SnookGame.sol:SnookGame",
        "label": "_afterdeath",
        "offset": 0,
        "slot": "256",
        "type": "t_contract(IAfterdeath)9452"
      },
      {
        "astId": 11668,
        "contract": "contracts/SnookGame.sol:SnookGame",
        "label": "_prng",
        "offset": 0,
        "slot": "257",
        "type": "t_contract(IPRNG)9735"
      },
      {
        "astId": 11672,
        "contract": "contracts/SnookGame.sol:SnookGame",
        "label": "_mintTokenCIDs",
        "offset": 0,
        "slot": "258",
        "type": "t_array(t_string_storage)52_storage"
      },
      {
        "astId": 11674,
        "contract": "contracts/SnookGame.sol:SnookGame",
        "label": "_spc",
        "offset": 0,
        "slot": "310",
        "type": "t_uint256"
      },
      {
        "astId": 11678,
        "contract": "contracts/SnookGame.sol:SnookGame",
        "label": "accountKills",
        "offset": 0,
        "slot": "311",
        "type": "t_mapping(t_address,t_uint256)"
      },
      {
        "astId": 11680,
        "contract": "contracts/SnookGame.sol:SnookGame",
        "label": "_ecosystem",
        "offset": 0,
        "slot": "312",
        "type": "t_address"
      },
      {
        "astId": 11683,
        "contract": "contracts/SnookGame.sol:SnookGame",
        "label": "_treasury",
        "offset": 0,
        "slot": "313",
        "type": "t_contract(ITreasury)10356"
      },
      {
        "astId": 11685,
        "contract": "contracts/SnookGame.sol:SnookGame",
        "label": "_burnsafe",
        "offset": 0,
        "slot": "314",
        "type": "t_address"
      },
      {
        "astId": 11687,
        "contract": "contracts/SnookGame.sol:SnookGame",
        "label": "_isBridged",
        "offset": 20,
        "slot": "314",
        "type": "t_bool"
      },
      {
        "astId": 11689,
        "contract": "contracts/SnookGame.sol:SnookGame",
        "label": "_isInitialized4",
        "offset": 21,
        "slot": "314",
        "type": "t_bool"
      }
    ],
    "types": {
      "t_address": {
        "encoding": "inplace",
        "label": "address",
        "numberOfBytes": "20"
      },
      "t_array(t_bytes32)dyn_storage": {
        "base": "t_bytes32",
        "encoding": "dynamic_array",
        "label": "bytes32[]",
        "numberOfBytes": "32"
      },
      "t_array(t_string_storage)52_storage": {
        "base": "t_string_storage",
        "encoding": "inplace",
        "label": "string[52]",
        "numberOfBytes": "1664"
      },
      "t_array(t_uint256)49_storage": {
        "base": "t_uint256",
        "encoding": "inplace",
        "label": "uint256[49]",
        "numberOfBytes": "1568"
      },
      "t_array(t_uint256)50_storage": {
        "base": "t_uint256",
        "encoding": "inplace",
        "label": "uint256[50]",
        "numberOfBytes": "1600"
      },
      "t_bool": {
        "encoding": "inplace",
        "label": "bool",
        "numberOfBytes": "1"
      },
      "t_bytes32": {
        "encoding": "inplace",
        "label": "bytes32",
        "numberOfBytes": "32"
      },
      "t_contract(IAfterdeath)9452": {
        "encoding": "inplace",
        "label": "contract IAfterdeath",
        "numberOfBytes": "20"
      },
      "t_contract(IPRNG)9735": {
        "encoding": "inplace",
        "label": "contract IPRNG",
        "numberOfBytes": "20"
      },
      "t_contract(ISkillToken)9826": {
        "encoding": "inplace",
        "label": "contract ISkillToken",
        "numberOfBytes": "20"
      },
      "t_contract(ISnookState)10092": {
        "encoding": "inplace",
        "label": "contract ISnookState",
        "numberOfBytes": "20"
      },
      "t_contract(ITreasury)10356": {
        "encoding": "inplace",
        "label": "contract ITreasury",
        "numberOfBytes": "20"
      },
      "t_contract(IUniswapUSDCSkill)10364": {
        "encoding": "inplace",
        "label": "contract IUniswapUSDCSkill",
        "numberOfBytes": "20"
      },
      "t_contract(SnookToken)13881": {
        "encoding": "inplace",
        "label": "contract SnookToken",
        "numberOfBytes": "20"
      },
      "t_mapping(t_address,t_bool)": {
        "encoding": "mapping",
        "key": "t_address",
        "label": "mapping(address => bool)",
        "numberOfBytes": "32",
        "value": "t_bool"
      },
      "t_mapping(t_address,t_uint256)": {
        "encoding": "mapping",
        "key": "t_address",
        "label": "mapping(address => uint256)",
        "numberOfBytes": "32",
        "value": "t_uint256"
      },
      "t_mapping(t_bytes32,t_struct(AddressSet)3206_storage)": {
        "encoding": "mapping",
        "key": "t_bytes32",
        "label": "mapping(bytes32 => struct EnumerableSetUpgradeable.AddressSet)",
        "numberOfBytes": "32",
        "value": "t_struct(AddressSet)3206_storage"
      },
      "t_mapping(t_bytes32,t_struct(RoleData)302_storage)": {
        "encoding": "mapping",
        "key": "t_bytes32",
        "label": "mapping(bytes32 => struct AccessControlUpgradeable.RoleData)",
        "numberOfBytes": "32",
        "value": "t_struct(RoleData)302_storage"
      },
      "t_mapping(t_bytes32,t_uint256)": {
        "encoding": "mapping",
        "key": "t_bytes32",
        "label": "mapping(bytes32 => uint256)",
        "numberOfBytes": "32",
        "value": "t_uint256"
      },
      "t_string_storage": {
        "encoding": "bytes",
        "label": "string",
        "numberOfBytes": "32"
      },
      "t_struct(AddressSet)3206_storage": {
        "encoding": "inplace",
        "label": "struct EnumerableSetUpgradeable.AddressSet",
        "members": [
          {
            "astId": 3205,
            "contract": "contracts/SnookGame.sol:SnookGame",
            "label": "_inner",
            "offset": 0,
            "slot": "0",
            "type": "t_struct(Set)2931_storage"
          }
        ],
        "numberOfBytes": "64"
      },
      "t_struct(RoleData)302_storage": {
        "encoding": "inplace",
        "label": "struct AccessControlUpgradeable.RoleData",
        "members": [
          {
            "astId": 299,
            "contract": "contracts/SnookGame.sol:SnookGame",
            "label": "members",
            "offset": 0,
            "slot": "0",
            "type": "t_mapping(t_address,t_bool)"
          },
          {
            "astId": 301,
            "contract": "contracts/SnookGame.sol:SnookGame",
            "label": "adminRole",
            "offset": 0,
            "slot": "1",
            "type": "t_bytes32"
          }
        ],
        "numberOfBytes": "64"
      },
      "t_struct(Set)2931_storage": {
        "encoding": "inplace",
        "label": "struct EnumerableSetUpgradeable.Set",
        "members": [
          {
            "astId": 2926,
            "contract": "contracts/SnookGame.sol:SnookGame",
            "label": "_values",
            "offset": 0,
            "slot": "0",
            "type": "t_array(t_bytes32)dyn_storage"
          },
          {
            "astId": 2930,
            "contract": "contracts/SnookGame.sol:SnookGame",
            "label": "_indexes",
            "offset": 0,
            "slot": "1",
            "type": "t_mapping(t_bytes32,t_uint256)"
          }
        ],
        "numberOfBytes": "64"
      },
      "t_uint256": {
        "encoding": "inplace",
        "label": "uint256",
        "numberOfBytes": "32"
      }
    }
  }
}