{
  "address": "0xEf301B20E99aEEA37C5D1d12f7B3E48Af0DB0dA9",
  "abi": [
    {
      "anonymous": false,
      "inputs": [
        {
          "indexed": false,
          "internalType": "uint256",
          "name": "collectionId",
          "type": "uint256"
        }
      ],
      "name": "CollectionAdded",
      "type": "event"
    },
    {
      "anonymous": false,
      "inputs": [
        {
          "indexed": false,
          "internalType": "uint256",
          "name": "collectionId",
          "type": "uint256"
        }
      ],
      "name": "CollectionRemoved",
      "type": "event"
    },
    {
      "anonymous": false,
      "inputs": [
        {
          "indexed": false,
          "internalType": "uint256",
          "name": "collectionId",
          "type": "uint256"
        },
        {
          "indexed": false,
          "internalType": "uint256",
          "name": "releasedCount",
          "type": "uint256"
        },
        {
          "indexed": false,
          "internalType": "uint256",
          "name": "remainingCount",
          "type": "uint256"
        }
      ],
      "name": "DepositsReleased",
      "type": "event"
    },
    {
      "anonymous": false,
      "inputs": [
        {
          "indexed": false,
          "internalType": "address",
          "name": "account",
          "type": "address"
        }
      ],
      "name": "Paused",
      "type": "event"
    },
    {
      "anonymous": false,
      "inputs": [
        {
          "indexed": true,
          "internalType": "bytes32",
          "name": "role",
          "type": "bytes32"
        },
        {
          "indexed": true,
          "internalType": "bytes32",
          "name": "previousAdminRole",
          "type": "bytes32"
        },
        {
          "indexed": true,
          "internalType": "bytes32",
          "name": "newAdminRole",
          "type": "bytes32"
        }
      ],
      "name": "RoleAdminChanged",
      "type": "event"
    },
    {
      "anonymous": false,
      "inputs": [
        {
          "indexed": true,
          "internalType": "bytes32",
          "name": "role",
          "type": "bytes32"
        },
        {
          "indexed": true,
          "internalType": "address",
          "name": "account",
          "type": "address"
        },
        {
          "indexed": true,
          "internalType": "address",
          "name": "sender",
          "type": "address"
        }
      ],
      "name": "RoleGranted",
      "type": "event"
    },
    {
      "anonymous": false,
      "inputs": [
        {
          "indexed": true,
          "internalType": "bytes32",
          "name": "role",
          "type": "bytes32"
        },
        {
          "indexed": true,
          "internalType": "address",
          "name": "account",
          "type": "address"
        },
        {
          "indexed": true,
          "internalType": "address",
          "name": "sender",
          "type": "address"
        }
      ],
      "name": "RoleRevoked",
      "type": "event"
    },
    {
      "anonymous": false,
      "inputs": [
        {
          "indexed": false,
          "internalType": "uint256",
          "name": "collectionId",
          "type": "uint256"
        },
        {
          "indexed": false,
          "internalType": "address",
          "name": "depositor",
          "type": "address"
        },
        {
          "indexed": false,
          "internalType": "uint256",
          "name": "amount",
          "type": "uint256"
        },
        {
          "indexed": false,
          "internalType": "bool",
          "name": "newStatus",
          "type": "bool"
        }
      ],
      "name": "SNKDeposited",
      "type": "event"
    },
    {
      "anonymous": false,
      "inputs": [
        {
          "indexed": false,
          "internalType": "uint256",
          "name": "collectionId",
          "type": "uint256"
        },
        {
          "indexed": false,
          "internalType": "address",
          "name": "depositor",
          "type": "address"
        },
        {
          "indexed": false,
          "internalType": "uint256",
          "name": "amount",
          "type": "uint256"
        },
        {
          "indexed": false,
          "internalType": "bool",
          "name": "newStatus",
          "type": "bool"
        }
      ],
      "name": "SNKWithdrawn",
      "type": "event"
    },
    {
      "anonymous": false,
      "inputs": [
        {
          "indexed": false,
          "internalType": "address",
          "name": "account",
          "type": "address"
        }
      ],
      "name": "Unpaused",
      "type": "event"
    },
    {
      "inputs": [],
      "name": "DEFAULT_ADMIN_ROLE",
      "outputs": [
        {
          "internalType": "bytes32",
          "name": "",
          "type": "bytes32"
        }
      ],
      "stateMutability": "view",
      "type": "function"
    },
    {
      "inputs": [
        {
          "internalType": "string",
          "name": "name",
          "type": "string"
        },
        {
          "internalType": "uint256",
          "name": "chainId",
          "type": "uint256"
        },
        {
          "internalType": "address",
          "name": "token",
          "type": "address"
        },
        {
          "internalType": "uint256",
          "name": "accessThresholdInCollectionTokens",
          "type": "uint256"
        },
        {
          "internalType": "uint256",
          "name": "activityThresholdInSNK",
          "type": "uint256"
        },
        {
          "internalType": "uint256",
          "name": "lockPeriodInSeconds",
          "type": "uint256"
        },
        {
          "internalType": "uint256",
          "name": "revshareInPercents",
          "type": "uint256"
        },
        {
          "internalType": "address payable",
          "name": "revshareRecipient",
          "type": "address"
        }
      ],
      "name": "addCollection",
      "outputs": [],
      "stateMutability": "nonpayable",
      "type": "function"
    },
    {
      "inputs": [
        {
          "internalType": "uint256",
          "name": "collectionId",
          "type": "uint256"
        },
        {
          "internalType": "uint256",
          "name": "amount",
          "type": "uint256"
        }
      ],
      "name": "depositSNK",
      "outputs": [],
      "stateMutability": "nonpayable",
      "type": "function"
    },
    {
      "inputs": [],
      "name": "getCollectionCount",
      "outputs": [
        {
          "internalType": "uint256",
          "name": "",
          "type": "uint256"
        }
      ],
      "stateMutability": "view",
      "type": "function"
    },
    {
      "inputs": [
        {
          "internalType": "uint256",
          "name": "startIdx",
          "type": "uint256"
        },
        {
          "internalType": "uint256",
          "name": "endIdx",
          "type": "uint256"
        }
      ],
      "name": "getCollections",
      "outputs": [
        {
          "components": [
            {
              "internalType": "uint256",
              "name": "id",
              "type": "uint256"
            },
            {
              "internalType": "string",
              "name": "name",
              "type": "string"
            },
            {
              "internalType": "uint256",
              "name": "chainId",
              "type": "uint256"
            },
            {
              "internalType": "address",
              "name": "token",
              "type": "address"
            },
            {
              "internalType": "uint256",
              "name": "accessThresholdInCollectionTokens",
              "type": "uint256"
            },
            {
              "internalType": "uint256",
              "name": "activityThresholdInSNK",
              "type": "uint256"
            },
            {
              "internalType": "uint256",
              "name": "lockPeriodInSeconds",
              "type": "uint256"
            },
            {
              "internalType": "uint256",
              "name": "revshareInPercents",
              "type": "uint256"
            },
            {
              "internalType": "address payable",
              "name": "revshareRecipient",
              "type": "address"
            },
            {
              "internalType": "uint256",
              "name": "depositedSNK",
              "type": "uint256"
            },
            {
              "internalType": "bool",
              "name": "active",
              "type": "bool"
            },
            {
              "internalType": "uint256",
              "name": "lockedAt",
              "type": "uint256"
            },
            {
              "internalType": "bool",
              "name": "depositsEnabled",
              "type": "bool"
            }
          ],
          "internalType": "struct ICollectionList.Collection[]",
          "name": "",
          "type": "tuple[]"
        }
      ],
      "stateMutability": "view",
      "type": "function"
    },
    {
      "inputs": [
        {
          "internalType": "uint256",
          "name": "collectionId",
          "type": "uint256"
        }
      ],
      "name": "getDepositRecordCount",
      "outputs": [
        {
          "internalType": "uint256",
          "name": "",
          "type": "uint256"
        }
      ],
      "stateMutability": "view",
      "type": "function"
    },
    {
      "inputs": [],
      "name": "getPauserRole",
      "outputs": [
        {
          "internalType": "bytes32",
          "name": "",
          "type": "bytes32"
        }
      ],
      "stateMutability": "pure",
      "type": "function"
    },
    {
      "inputs": [
        {
          "internalType": "uint256",
          "name": "collectionId",
          "type": "uint256"
        }
      ],
      "name": "getRevshareInPercents",
      "outputs": [
        {
          "internalType": "uint256",
          "name": "",
          "type": "uint256"
        }
      ],
      "stateMutability": "view",
      "type": "function"
    },
    {
      "inputs": [
        {
          "internalType": "uint256",
          "name": "collectionId",
          "type": "uint256"
        }
      ],
      "name": "getRevshareRecipient",
      "outputs": [
        {
          "internalType": "address payable",
          "name": "",
          "type": "address"
        }
      ],
      "stateMutability": "view",
      "type": "function"
    },
    {
      "inputs": [
        {
          "internalType": "bytes32",
          "name": "role",
          "type": "bytes32"
        }
      ],
      "name": "getRoleAdmin",
      "outputs": [
        {
          "internalType": "bytes32",
          "name": "",
          "type": "bytes32"
        }
      ],
      "stateMutability": "view",
      "type": "function"
    },
    {
      "inputs": [
        {
          "internalType": "bytes32",
          "name": "role",
          "type": "bytes32"
        },
        {
          "internalType": "uint256",
          "name": "index",
          "type": "uint256"
        }
      ],
      "name": "getRoleMember",
      "outputs": [
        {
          "internalType": "address",
          "name": "",
          "type": "address"
        }
      ],
      "stateMutability": "view",
      "type": "function"
    },
    {
      "inputs": [
        {
          "internalType": "bytes32",
          "name": "role",
          "type": "bytes32"
        }
      ],
      "name": "getRoleMemberCount",
      "outputs": [
        {
          "internalType": "uint256",
          "name": "",
          "type": "uint256"
        }
      ],
      "stateMutability": "view",
      "type": "function"
    },
    {
      "inputs": [
        {
          "internalType": "bytes32",
          "name": "role",
          "type": "bytes32"
        },
        {
          "internalType": "address",
          "name": "account",
          "type": "address"
        }
      ],
      "name": "grantRole",
      "outputs": [],
      "stateMutability": "nonpayable",
      "type": "function"
    },
    {
      "inputs": [
        {
          "internalType": "bytes32",
          "name": "role",
          "type": "bytes32"
        },
        {
          "internalType": "address",
          "name": "account",
          "type": "address"
        }
      ],
      "name": "hasRole",
      "outputs": [
        {
          "internalType": "bool",
          "name": "",
          "type": "bool"
        }
      ],
      "stateMutability": "view",
      "type": "function"
    },
    {
      "inputs": [
        {
          "internalType": "address",
          "name": "adminAccount",
          "type": "address"
        },
        {
          "internalType": "address",
          "name": "skill",
          "type": "address"
        }
      ],
      "name": "initialize",
      "outputs": [],
      "stateMutability": "nonpayable",
      "type": "function"
    },
    {
      "inputs": [
        {
          "internalType": "uint256",
          "name": "collectionId",
          "type": "uint256"
        }
      ],
      "name": "isActive",
      "outputs": [
        {
          "internalType": "bool",
          "name": "",
          "type": "bool"
        }
      ],
      "stateMutability": "view",
      "type": "function"
    },
    {
      "inputs": [],
      "name": "paused",
      "outputs": [
        {
          "internalType": "bool",
          "name": "",
          "type": "bool"
        }
      ],
      "stateMutability": "view",
      "type": "function"
    },
    {
      "inputs": [
        {
          "internalType": "uint256",
          "name": "collectionId",
          "type": "uint256"
        },
        {
          "internalType": "uint256",
          "name": "count",
          "type": "uint256"
        }
      ],
      "name": "releaseDeposits",
      "outputs": [],
      "stateMutability": "nonpayable",
      "type": "function"
    },
    {
      "inputs": [
        {
          "internalType": "uint256",
          "name": "collectionId",
          "type": "uint256"
        }
      ],
      "name": "removeCollection",
      "outputs": [],
      "stateMutability": "nonpayable",
      "type": "function"
    },
    {
      "inputs": [
        {
          "internalType": "bytes32",
          "name": "role",
          "type": "bytes32"
        },
        {
          "internalType": "address",
          "name": "account",
          "type": "address"
        }
      ],
      "name": "renounceRole",
      "outputs": [],
      "stateMutability": "nonpayable",
      "type": "function"
    },
    {
      "inputs": [
        {
          "internalType": "bytes32",
          "name": "role",
          "type": "bytes32"
        },
        {
          "internalType": "address",
          "name": "account",
          "type": "address"
        }
      ],
      "name": "revokeRole",
      "outputs": [],
      "stateMutability": "nonpayable",
      "type": "function"
    },
    {
      "inputs": [
        {
          "internalType": "uint256",
          "name": "collectionId",
          "type": "uint256"
        },
        {
          "internalType": "uint256",
          "name": "accessThresholdInCollectionTokens",
          "type": "uint256"
        }
      ],
      "name": "setAccessThresholdInCollectionTokens",
      "outputs": [],
      "stateMutability": "nonpayable",
      "type": "function"
    },
    {
      "inputs": [
        {
          "internalType": "uint256",
          "name": "collectionId",
          "type": "uint256"
        },
        {
          "internalType": "uint256",
          "name": "activityThresholdInSNK",
          "type": "uint256"
        }
      ],
      "name": "setActivityThresholdInSNK",
      "outputs": [],
      "stateMutability": "nonpayable",
      "type": "function"
    },
    {
      "inputs": [
        {
          "internalType": "uint256",
          "name": "collectionId",
          "type": "uint256"
        },
        {
          "internalType": "uint256",
          "name": "chainId",
          "type": "uint256"
        }
      ],
      "name": "setChainId",
      "outputs": [],
      "stateMutability": "nonpayable",
      "type": "function"
    },
    {
      "inputs": [
        {
          "internalType": "uint256",
          "name": "collectionId",
          "type": "uint256"
        }
      ],
      "name": "setLock",
      "outputs": [],
      "stateMutability": "nonpayable",
      "type": "function"
    },
    {
      "inputs": [
        {
          "internalType": "uint256",
          "name": "collectionId",
          "type": "uint256"
        },
        {
          "internalType": "uint256",
          "name": "lockPeriodInSeconds",
          "type": "uint256"
        }
      ],
      "name": "setLockPeriodInSeconds",
      "outputs": [],
      "stateMutability": "nonpayable",
      "type": "function"
    },
    {
      "inputs": [
        {
          "internalType": "uint256",
          "name": "collectionId",
          "type": "uint256"
        },
        {
          "internalType": "string",
          "name": "name",
          "type": "string"
        }
      ],
      "name": "setName",
      "outputs": [],
      "stateMutability": "nonpayable",
      "type": "function"
    },
    {
      "inputs": [
        {
          "internalType": "uint256",
          "name": "collectionId",
          "type": "uint256"
        },
        {
          "internalType": "uint256",
          "name": "revshareInPercents",
          "type": "uint256"
        }
      ],
      "name": "setRevshareInPercents",
      "outputs": [],
      "stateMutability": "nonpayable",
      "type": "function"
    },
    {
      "inputs": [
        {
          "internalType": "uint256",
          "name": "collectionId",
          "type": "uint256"
        },
        {
          "internalType": "address payable",
          "name": "revshareRecipient",
          "type": "address"
        }
      ],
      "name": "setRevshareRecipient",
      "outputs": [],
      "stateMutability": "nonpayable",
      "type": "function"
    },
    {
      "inputs": [
        {
          "internalType": "uint256",
          "name": "collectionId",
          "type": "uint256"
        },
        {
          "internalType": "address",
          "name": "token",
          "type": "address"
        }
      ],
      "name": "setToken",
      "outputs": [],
      "stateMutability": "nonpayable",
      "type": "function"
    },
    {
      "inputs": [
        {
          "internalType": "bytes4",
          "name": "interfaceId",
          "type": "bytes4"
        }
      ],
      "name": "supportsInterface",
      "outputs": [
        {
          "internalType": "bool",
          "name": "",
          "type": "bool"
        }
      ],
      "stateMutability": "view",
      "type": "function"
    },
    {
      "inputs": [
        {
          "internalType": "uint256",
          "name": "collectionId",
          "type": "uint256"
        }
      ],
      "name": "toggleDepositAccepting",
      "outputs": [],
      "stateMutability": "nonpayable",
      "type": "function"
    },
    {
      "inputs": [
        {
          "internalType": "uint256",
          "name": "collectionId",
          "type": "uint256"
        }
      ],
      "name": "withdrawSNK",
      "outputs": [],
      "stateMutability": "nonpayable",
      "type": "function"
    }
  ],
  "transactionHash": "0x99f9c6896c0c5a94956da48ae8599bfa9226f65237c068adb84dc40d0ee9da8b",
  "args": [],
  "solcInputHash": "44bc5b6e9efb9005c0cdf786881a4dc8",
  "bytecode": "0x608060405234801561001057600080fd5b506129b8806100206000396000f3fe608060405234801561001057600080fd5b50600436106101fb5760003560e01c80638b71a0f31161011a578063af906cf3116100ad578063d547741f1161007c578063d547741f14610427578063dadd45891461043a578063de8203621461044d578063e2083b8f14610460578063fe55932a14610473576101fb565b8063af906cf3146103e6578063c1b931be146103f9578063ca15c87314610401578063d3e1574714610414576101fb565b8063a217fddf116100e9578063a217fddf146103a5578063a36a53c6146103ad578063aa6033db146103c0578063ae490643146103d3576101fb565b80638b71a0f31461033f5780639010d07c1461035257806391d14854146103725780639dcdbf1514610385576101fb565b80632f2ff15d11610192578063595075fb11610161578063595075fb146102fe5780635c975abb146103115780636631a4f41461031957806382afd23b1461032c576101fb565b80632f2ff15d146102b257806336568abe146102c5578063485cc955146102d85780635234c105146102eb576101fb565b806321f93b1e116101ce57806321f93b1e14610266578063248a9ca314610279578063291fbd231461028c5780632cc7569b1461029f576101fb565b806301ffc9a7146102005780631c10106f146102295780631cce59cb1461023e5780632068314314610251575b600080fd5b61021361020e3660046120f9565b610486565b604051610220919061249e565b60405180910390f35b6102316104b3565b60405161022091906124a9565b61023161024c36600461209c565b6104c4565b61026461025f3660046120d8565b610517565b005b6102646102743660046120d8565b61073e565b61023161028736600461209c565b6107a2565b61026461029a3660046120b4565b6107b7565b6102646102ad36600461209c565b610832565b6102646102c03660046120b4565b61089f565b6102646102d33660046120b4565b6108c6565b6102646102e6366004612044565b6108e8565b6102646102f936600461209c565b610994565b61023161030c36600461209c565b610b6f565b610213610bb3565b6102646103273660046120d8565b610bbc565b61021361033a36600461209c565b610dde565b61026461034d366004612121565b610e27565b6103656103603660046120d8565b61103d565b604051610220919061233d565b6102136103803660046120b4565b61105e565b6103986103933660046120d8565b611089565b604051610220919061238e565b6102316112dc565b6103656103bb36600461209c565b6112e1565b6102646103ce3660046120d8565b611330565b6102646103e13660046120d8565b61138f565b6102646103f43660046120b4565b6113ee565b610231611469565b61023161040f36600461209c565b61147b565b61026461042236600461209c565b611492565b6102646104353660046120b4565b6114f3565b61026461044836600461209c565b6114fd565b61026461045b3660046120d8565b6115ba565b61026461046e3660046120d8565b611619565b6102646104813660046121dc565b611678565b60006001600160e01b03198216635a05180f60e01b14806104ab57506104ab826116ec565b90505b919050565b60006104bf60fe611711565b905090565b6000816104d260fe8261171c565b15156001146104fc5760405162461bcd60e51b81526004016104f39061253c565b60405180910390fd5b600083815260fd602052604090206007015491505b50919050565b8161052360fe8261171c565b15156001146105445760405162461bcd60e51b81526004016104f39061253c565b61054c610bb3565b156105695760405162461bcd60e51b81526004016104f390612674565b600083815260fd60205260409020600c81015460ff1615156001146105a05760405162461bcd60e51b81526004016104f390612770565b60fc546040516323b872dd60e01b81526001600160a01b03909116906323b872dd906105d490339030908890600401612351565b602060405180830381600087803b1580156105ee57600080fd5b505af1158015610602573d6000803e3d6000fd5b505050506040513d601f19601f82011682018060405250810190610626919061207c565b6106425760405162461bcd60e51b81526004016104f390612581565b82816009016000828254610656919061283c565b909155505060058101546009820154600a83018054929091101560ff19909216919091178155600085815261010060209081526040808320338085529083528184208890558884526101018352818420825180840184528281528085018a815282546001818101855593885295909620905160029095020180546001600160a01b0319166001600160a01b03909516949094178455935192909301919091558354925490517f490bceb94d953ebe5fd5e929fd19ffe312ecb5a2445b09ad5cb675bb0c20dfb0936107309390929091889160ff1690612800565b60405180910390a150505050565b8161074a60fe8261171c565b151560011461076b5760405162461bcd60e51b81526004016104f39061253c565b60008051602061296383398151915261078b81610786611728565b61172c565b5050600091825260fd602052604090912060020155565b60009081526065602052604090206001015490565b816107c360fe8261171c565b15156001146107e45760405162461bcd60e51b81526004016104f39061253c565b6000805160206129638339815191526107ff81610786611728565b5050600091825260fd602052604090912060080180546001600160a01b0319166001600160a01b03909216919091179055565b8061083e60fe8261171c565b151560011461085f5760405162461bcd60e51b81526004016104f39061253c565b60008051602061296383398151915261087a81610786611728565b5050600090815260fd60205260409020600c01805460ff19811660ff90911615179055565b6108a98282611794565b60008281526097602052604090206108c190826117b3565b505050565b6108d082826117c8565b60008281526097602052604090206108c1908261180a565b600054610100900460ff1680610901575060005460ff16155b61091d5760405162461bcd60e51b81526004016104f3906126d5565b600054610100900460ff16158015610948576000805460ff1961ff0019909116610100171660011790555b61095061181f565b6109586118b4565b610963600084611924565b60fc80546001600160a01b0319166001600160a01b03841617905580156108c1576000805461ff0019169055505050565b806109a060fe8261171c565b15156001146109c15760405162461bcd60e51b81526004016104f39061253c565b6109c9610bb3565b156109e65760405162461bcd60e51b81526004016104f390612674565b600082815260fd6020908152604080832061010083528184203385529092529091205480610a265760405162461bcd60e51b81526004016104f3906125b6565b42826006015483600b0154610a3b919061283c565b10610a585760405162461bcd60e51b81526004016104f3906125f9565b60fc5460405163a9059cbb60e01b81526001600160a01b039091169063a9059cbb90610a8a9033908590600401612375565b602060405180830381600087803b158015610aa457600080fd5b505af1158015610ab8573d6000803e3d6000fd5b505050506040513d601f19601f82011682018060405250810190610adc919061207c565b5080826009016000828254610af19190612873565b90915550506000848152610100602090815260408083203380855292528083209290925560058401546009850154600a8601805460ff191692909110159190911790819055845492517f4bdc73f206138f2d4de1919d89a9e42cf40f9bed3ec1b608752ad27afc9c999a936107309390929091869160ff1690612800565b600081610b7d60fe8261171c565b1515600114610b9e5760405162461bcd60e51b81526004016104f39061253c565b50506000908152610101602052604090205490565b60c95460ff1690565b81610bc860fe8261171c565b1515600114610be95760405162461bcd60e51b81526004016104f39061253c565b600080516020612963833981519152610c0481610786611728565b600084815260fd60205260409020600c015460ff1615610c365760405162461bcd60e51b81526004016104f390612723565b600084815261010160205260408120905b84811015610d9a57815480610c5c5750610d9a565b600083610c6a600184612873565b81548110610c8857634e487b7160e01b600052603260045260246000fd5b6000918252602091829020604080518082018252600290930290910180546001600160a01b0390811680855260019092015494840185905260fc54925163a9059cbb60e01b8152939550919091169263a9059cbb92610ceb929190600401612375565b602060405180830381600087803b158015610d0557600080fd5b505af1158015610d19573d6000803e3d6000fd5b505050506040513d601f19601f82011682018060405250810190610d3d919061207c565b5083805480610d5c57634e487b7160e01b600052603160045260246000fd5b60008281526020812060026000199093019283020180546001600160a01b031916815560010155905550819050610d9281612906565b915050610c47565b81546040517fd98be83fb2fa8eb661178627132e71153152274d58bc1ddcf5eb87fba17574f491610dce9189918591612826565b60405180910390a1505050505050565b600081610dec60fe8261171c565b1515600114610e0d5760405162461bcd60e51b81526004016104f39061253c565b5050600090815260fd60205260409020600a015460ff1690565b600080516020612963833981519152610e4281610786611728565b610e4c60fb61192e565b6000610e5860fb611937565b9050604051806101a001604052808281526020018c8c8080601f0160208091040260200160405190810160405280939291908181526020018383808284376000920182905250938552505050602082018c90526001600160a01b03808c166040840152606083018b9052608083018a905260a0830189905260c08301889052861660e0830152610100820152610120018715610ef5576000610ef8565b60015b151581524260208083019190915260016040928301819052600085815260fd835292909220835181558382015180519193610f399390850192910190611f22565b506040820151600282015560608201516003820180546001600160a01b039283166001600160a01b0319918216179091556080840151600484015560a0840151600584015560c0840151600684015560e084015160078401556101008401516008840180549190931691161790556101208201516009820155610140820151600a8201805491151560ff19928316179055610160830151600b83015561018090920151600c909101805491151591909216179055610ff860fe8261193b565b507f7f51fefb7dc58758a80c274fa8aac5a9ae05c5e7774fd84ddd339f5625f3b27f8160405161102891906124a9565b60405180910390a15050505050505050505050565b60008281526097602052604081206110559083611947565b90505b92915050565b60009182526065602090815260408084206001600160a01b0393909316845291905290205460ff1690565b606081831080156110a3575061109f60fe611711565b8211155b6110bf5760405162461bcd60e51b81526004016104f39061269e565b60006110cb8484612873565b67ffffffffffffffff8111156110f157634e487b7160e01b600052604160045260246000fd5b60405190808252806020026020018201604052801561112a57816020015b611117611fa6565b81526020019060019003908161110f5790505b509050835b838110156112d457600061114460fe83611947565b905060fd6000828152602001908152602001600020604051806101a00160405290816000820154815260200160018201805461117f906128d1565b80601f01602080910402602001604051908101604052809291908181526020018280546111ab906128d1565b80156111f85780601f106111cd576101008083540402835291602001916111f8565b820191906000526020600020905b8154815290600101906020018083116111db57829003601f168201915b50505091835250506002820154602082015260038201546001600160a01b0390811660408301526004830154606083015260058301546080830152600683015460a0830152600783015460c083015260088301541660e08201526009820154610100820152600a82015460ff9081161515610120830152600b830154610140830152600c90920154909116151561016090910152836112978885612873565b815181106112b557634e487b7160e01b600052603260045260246000fd5b60200260200101819052505080806112cc90612906565b91505061112f565b509392505050565b600081565b6000816112ef60fe8261171c565b15156001146113105760405162461bcd60e51b81526004016104f39061253c565b5050600090815260fd60205260409020600801546001600160a01b031690565b8161133c60fe8261171c565b151560011461135d5760405162461bcd60e51b81526004016104f39061253c565b60008051602061296383398151915261137881610786611728565b5050600091825260fd602052604090912060040155565b8161139b60fe8261171c565b15156001146113bc5760405162461bcd60e51b81526004016104f39061253c565b6000805160206129638339815191526113d781610786611728565b5050600091825260fd602052604090912060070155565b816113fa60fe8261171c565b151560011461141b5760405162461bcd60e51b81526004016104f39061253c565b60008051602061296383398151915261143681610786611728565b5050600091825260fd602052604090912060030180546001600160a01b0319166001600160a01b03909216919091179055565b60008051602061296383398151915290565b60008181526097602052604081206104ab90611711565b8061149e60fe8261171c565b15156001146114bf5760405162461bcd60e51b81526004016104f39061253c565b6000805160206129638339815191526114da81610786611728565b5050600090815260fd6020526040902042600b90910155565b6108d08282611953565b8061150960fe8261171c565b151560011461152a5760405162461bcd60e51b81526004016104f39061253c565b60008051602061296383398151915261154581610786611728565b60008381526101016020526040902054156115725760405162461bcd60e51b81526004016104f39061262e565b61157d60fe84611972565b507f580023a93098446e629b00a7b7f6b11df4c87a9cbccefd402b14edd77f01ecfe836040516115ad91906124a9565b60405180910390a1505050565b816115c660fe8261171c565b15156001146115e75760405162461bcd60e51b81526004016104f39061253c565b60008051602061296383398151915261160281610786611728565b5050600091825260fd602052604090912060050155565b8161162560fe8261171c565b15156001146116465760405162461bcd60e51b81526004016104f39061253c565b60008051602061296383398151915261166181610786611728565b5050600091825260fd602052604090912060060155565b8161168460fe8261171c565b15156001146116a55760405162461bcd60e51b81526004016104f39061253c565b6000805160206129638339815191526116c081610786611728565b600084815260fd6020908152604090912084516116e592600190920191860190611f22565b5050505050565b60006001600160e01b03198216637965db0b60e01b14806104ab57506104ab8261197e565b60006104ab82611937565b60006110558383611997565b3390565b611736828261105e565b6117905761174e816001600160a01b031660146119af565b6117598360206119af565b60405160200161176a9291906122c8565b60408051601f198184030181529082905262461bcd60e51b82526104f3916004016124b2565b5050565b61179d826107a2565b6117a981610786611728565b6108c18383611b61565b6000611055836001600160a01b038416611be8565b6117d0611728565b6001600160a01b0316816001600160a01b0316146118005760405162461bcd60e51b81526004016104f3906127b1565b6117908282611c32565b6000611055836001600160a01b038416611cb7565b600054610100900460ff1680611838575060005460ff16155b6118545760405162461bcd60e51b81526004016104f3906126d5565b600054610100900460ff1615801561187f576000805460ff1961ff0019909116610100171660011790555b611887611dce565b61188f611dce565b611897611dce565b61189f611dce565b80156118b1576000805461ff00191690555b50565b600054610100900460ff16806118cd575060005460ff16155b6118e95760405162461bcd60e51b81526004016104f3906126d5565b600054610100900460ff16158015611914576000805460ff1961ff0019909116610100171660011790555b61191c611dce565b61189f611e41565b6108a98282611ebf565b80546001019055565b5490565b60006110558383611be8565b60006110558383611ec9565b61195c826107a2565b61196881610786611728565b6108c18383611c32565b60006110558383611cb7565b6001600160e01b031981166301ffc9a760e01b14919050565b60009081526001919091016020526040902054151590565b606060006119be836002612854565b6119c990600261283c565b67ffffffffffffffff8111156119ef57634e487b7160e01b600052604160045260246000fd5b6040519080825280601f01601f191660200182016040528015611a19576020820181803683370190505b509050600360fc1b81600081518110611a4257634e487b7160e01b600052603260045260246000fd5b60200101906001600160f81b031916908160001a905350600f60fb1b81600181518110611a7f57634e487b7160e01b600052603260045260246000fd5b60200101906001600160f81b031916908160001a9053506000611aa3846002612854565b611aae90600161283c565b90505b6001811115611b42576f181899199a1a9b1b9c1cb0b131b232b360811b85600f1660108110611af057634e487b7160e01b600052603260045260246000fd5b1a60f81b828281518110611b1457634e487b7160e01b600052603260045260246000fd5b60200101906001600160f81b031916908160001a90535060049490941c93611b3b816128ba565b9050611ab1565b5083156110555760405162461bcd60e51b81526004016104f390612507565b611b6b828261105e565b6117905760008281526065602090815260408083206001600160a01b03851684529091529020805460ff19166001179055611ba4611728565b6001600160a01b0316816001600160a01b0316837f2f8788117e7eff1d82e926ec794901d17c78024a50270940304540a733656f0d60405160405180910390a45050565b6000611bf48383611997565b611c2a57508154600181810184556000848152602080822090930184905584548482528286019093526040902091909155611058565b506000611058565b611c3c828261105e565b156117905760008281526065602090815260408083206001600160a01b03851684529091529020805460ff19169055611c73611728565b6001600160a01b0316816001600160a01b0316837ff6391f5c32d9c69d2a47ea670b442974b53935d1edc7fd64eb21e047a839171b60405160405180910390a45050565b60008181526001830160205260408120548015611dc4576000611cdb600183612873565b8554909150600090611cef90600190612873565b90506000866000018281548110611d1657634e487b7160e01b600052603260045260246000fd5b9060005260206000200154905080876000018481548110611d4757634e487b7160e01b600052603260045260246000fd5b600091825260208083209091019290925582815260018901909152604090208490558654879080611d8857634e487b7160e01b600052603160045260246000fd5b60019003818190600052602060002001600090559055866001016000878152602001908152602001600020600090556001945050505050611058565b6000915050611058565b600054610100900460ff1680611de7575060005460ff16155b611e035760405162461bcd60e51b81526004016104f3906126d5565b600054610100900460ff1615801561189f576000805460ff1961ff00199091166101001716600117905580156118b1576000805461ff001916905550565b600054610100900460ff1680611e5a575060005460ff16155b611e765760405162461bcd60e51b81526004016104f3906126d5565b600054610100900460ff16158015611ea1576000805460ff1961ff0019909116610100171660011790555b60c9805460ff1916905580156118b1576000805461ff001916905550565b6117908282611b61565b81546000908210611eec5760405162461bcd60e51b81526004016104f3906124c5565b826000018281548110611f0f57634e487b7160e01b600052603260045260246000fd5b9060005260206000200154905092915050565b828054611f2e906128d1565b90600052602060002090601f016020900481019282611f505760008555611f96565b82601f10611f6957805160ff1916838001178555611f96565b82800160010185558215611f96579182015b82811115611f96578251825591602001919060010190611f7b565b50611fa2929150612024565b5090565b604051806101a0016040528060008152602001606081526020016000815260200160006001600160a01b031681526020016000815260200160008152602001600081526020016000815260200160006001600160a01b0316815260200160008152602001600015158152602001600081526020016000151581525090565b5b80821115611fa25760008155600101612025565b80356104ae8161294d565b60008060408385031215612056578182fd5b82356120618161294d565b915060208301356120718161294d565b809150509250929050565b60006020828403121561208d578081fd5b81518015158114611055578182fd5b6000602082840312156120ad578081fd5b5035919050565b600080604083850312156120c6578182fd5b8235915060208301356120718161294d565b600080604083850312156120ea578182fd5b50508035926020909101359150565b60006020828403121561210a578081fd5b81356001600160e01b031981168114611055578182fd5b60008060008060008060008060006101008a8c03121561213f578485fd5b893567ffffffffffffffff80821115612156578687fd5b818c0191508c601f830112612169578687fd5b813581811115612177578788fd5b8d6020828501011115612188578788fd5b60209283019b509950508a013596506121a360408b01612039565b955060608a0135945060808a0135935060a08a0135925060c08a013591506121cd60e08b01612039565b90509295985092959850929598565b600080604083850312156121ee578182fd5b8235915060208084013567ffffffffffffffff8082111561220d578384fd5b818601915086601f830112612220578384fd5b81358181111561223257612232612937565b604051601f8201601f191681018501838111828210171561225557612255612937565b604052818152838201850189101561226b578586fd5b81858501868301378585838301015280955050505050509250929050565b6001600160a01b03169052565b15159052565b600081518084526122b481602086016020860161288a565b601f01601f19169290920160200192915050565b60007f416363657373436f6e74726f6c3a206163636f756e74200000000000000000008252835161230081601785016020880161288a565b7001034b99036b4b9b9b4b733903937b6329607d1b601791840191820152835161233181602884016020880161288a565b01602801949350505050565b6001600160a01b0391909116815260200190565b6001600160a01b039384168152919092166020820152604081019190915260600190565b6001600160a01b03929092168252602082015260400190565b60208082528251828201819052600091906040908185019080840286018301878501865b8381101561249057603f1989840301855281516101a08151855288820151818a8701526123e18287018261229c565b91505087820151888601526060808301516123fe82880182612289565b50506080828101519086015260a0808301519086015260c0808301519086015260e080830151908601526101008083015161243b82880182612289565b505061012082810151908601526101408083015161245b82880182612296565b50506101608281015190860152610180918201519161247c81870184612296565b5095880195935050908601906001016123b2565b509098975050505050505050565b901515815260200190565b90815260200190565b600060208252611055602083018461229c565b60208082526022908201527f456e756d657261626c655365743a20696e646578206f7574206f6620626f756e604082015261647360f01b606082015260800190565b6020808252818101527f537472696e67733a20686578206c656e67746820696e73756666696369656e74604082015260600190565b60208082526025908201527f436f6c6c656374696f6e4c6973743a20696e76616c696420636f6c6c656374696040820152641bdb881a5960da1b606082015260800190565b6020808252818101527f436f6c6c656374696f6e4c6973743a206e6f7420656e6f7567682066756e6473604082015260600190565b60208082526023908201527f436f6c6c656374696f6e4c6973743a206e6f7468696e6720746f20776974686460408201526272617760e81b606082015260800190565b6020808252818101527f436f6c6c656374696f6e4c6973743a2066756e647320617265206c6f636b6564604082015260600190565b60208082526026908201527f436f6c6c656374696f6e4c6973743a2072656c65617365206465706f7369747360408201526508199a5c9cdd60d21b606082015260800190565b60208082526010908201526f14185d5cd8589b194e881c185d5cd95960821b604082015260600190565b6020808252601f908201527f436f6c6c656374696f6e4c6973743a20696e76616c696420696e646578657300604082015260600190565b6020808252602e908201527f496e697469616c697a61626c653a20636f6e747261637420697320616c72656160408201526d191e481a5b9a5d1a585b1a5e995960921b606082015260800190565b6020808252602d908201527f436f6c6c656374696f6e4c6973743a206465706f736974696e672073686f756c60408201526c1908189948191a5cd8589b1959609a1b606082015260800190565b60208082526021908201527f436f6c6c656374696f6e4c6973743a206465706f736974732064697361626c656040820152601960fa1b606082015260800190565b6020808252602f908201527f416363657373436f6e74726f6c3a2063616e206f6e6c792072656e6f756e636560408201526e103937b632b9903337b91039b2b63360891b606082015260800190565b9384526001600160a01b0392909216602084015260408301521515606082015260800190565b9283526020830191909152604082015260600190565b6000821982111561284f5761284f612921565b500190565b600081600019048311821515161561286e5761286e612921565b500290565b60008282101561288557612885612921565b500390565b60005b838110156128a557818101518382015260200161288d565b838111156128b4576000848401525b50505050565b6000816128c9576128c9612921565b506000190190565b6002810460018216806128e557607f821691505b6020821081141561051157634e487b7160e01b600052602260045260246000fd5b600060001982141561291a5761291a612921565b5060010190565b634e487b7160e01b600052601160045260246000fd5b634e487b7160e01b600052604160045260246000fd5b6001600160a01b03811681146118b157600080fdfe65d7a28e3265b37a6474929f336521b332c1681b933f6cb9f3376673440d862aa2646970667358221220f3a0ab424b04199afd4c80a3a57e0d3a5fc32c22d8c1de6f5735823b57ef5f7564736f6c63430008000033",
  "devdoc": {
    "kind": "dev",
    "methods": {
      "getRoleAdmin(bytes32)": {
        "details": "Returns the admin role that controls `role`. See {grantRole} and {revokeRole}. To change a role's admin, use {_setRoleAdmin}."
      },
      "getRoleMember(bytes32,uint256)": {
        "details": "Returns one of the accounts that have `role`. `index` must be a value between 0 and {getRoleMemberCount}, non-inclusive. Role bearers are not sorted in any particular way, and their ordering may change at any point. WARNING: When using {getRoleMember} and {getRoleMemberCount}, make sure you perform all queries on the same block. See the following https://forum.openzeppelin.com/t/iterating-over-elements-on-enumerableset-in-openzeppelin-contracts/2296[forum post] for more information."
      },
      "getRoleMemberCount(bytes32)": {
        "details": "Returns the number of accounts that have `role`. Can be used together with {getRoleMember} to enumerate all bearers of a role."
      },
      "grantRole(bytes32,address)": {
        "details": "Overload {grantRole} to track enumerable memberships"
      },
      "hasRole(bytes32,address)": {
        "details": "Returns `true` if `account` has been granted `role`."
      },
      "isActive(uint256)": {
        "details": "Function used by BBT contract"
      },
      "paused()": {
        "details": "Returns true if the contract is paused, and false otherwise."
      },
      "renounceRole(bytes32,address)": {
        "details": "Overload {renounceRole} to track enumerable memberships"
      },
      "revokeRole(bytes32,address)": {
        "details": "Overload {revokeRole} to track enumerable memberships"
      },
      "supportsInterface(bytes4)": {
        "details": "See {IERC165-supportsInterface}."
      }
    },
    "stateVariables": {
      "_collectionIdDepositRecords": {
        "details": "For returning deposits when collection is removed.  "
      },
      "_collectionIdDepositorAmount": {
        "details": "For fast withdraw by depositor. "
      }
    },
    "version": 1
  },
  "userdoc": {
    "kind": "user",
    "methods": {},
    "version": 1
  },
  "storageLayout": {
    "storage": [
      {
        "astId": 753,
        "contract": "contracts/CollectionList.sol:CollectionList",
        "label": "_initialized",
        "offset": 0,
        "slot": "0",
        "type": "t_bool"
      },
      {
        "astId": 756,
        "contract": "contracts/CollectionList.sol:CollectionList",
        "label": "_initializing",
        "offset": 1,
        "slot": "0",
        "type": "t_bool"
      },
      {
        "astId": 2658,
        "contract": "contracts/CollectionList.sol:CollectionList",
        "label": "__gap",
        "offset": 0,
        "slot": "1",
        "type": "t_array(t_uint256)50_storage"
      },
      {
        "astId": 2907,
        "contract": "contracts/CollectionList.sol:CollectionList",
        "label": "__gap",
        "offset": 0,
        "slot": "51",
        "type": "t_array(t_uint256)50_storage"
      },
      {
        "astId": 307,
        "contract": "contracts/CollectionList.sol:CollectionList",
        "label": "_roles",
        "offset": 0,
        "slot": "101",
        "type": "t_mapping(t_bytes32,t_struct(RoleData)302_storage)"
      },
      {
        "astId": 615,
        "contract": "contracts/CollectionList.sol:CollectionList",
        "label": "__gap",
        "offset": 0,
        "slot": "102",
        "type": "t_array(t_uint256)49_storage"
      },
      {
        "astId": 62,
        "contract": "contracts/CollectionList.sol:CollectionList",
        "label": "_roleMembers",
        "offset": 0,
        "slot": "151",
        "type": "t_mapping(t_bytes32,t_struct(AddressSet)3206_storage)"
      },
      {
        "astId": 219,
        "contract": "contracts/CollectionList.sol:CollectionList",
        "label": "__gap",
        "offset": 0,
        "slot": "152",
        "type": "t_array(t_uint256)49_storage"
      },
      {
        "astId": 814,
        "contract": "contracts/CollectionList.sol:CollectionList",
        "label": "_paused",
        "offset": 0,
        "slot": "201",
        "type": "t_bool"
      },
      {
        "astId": 905,
        "contract": "contracts/CollectionList.sol:CollectionList",
        "label": "__gap",
        "offset": 0,
        "slot": "202",
        "type": "t_array(t_uint256)49_storage"
      },
      {
        "astId": 11572,
        "contract": "contracts/CollectionList.sol:CollectionList",
        "label": "_collectionIdCounter",
        "offset": 0,
        "slot": "251",
        "type": "t_struct(Counter)4707_storage"
      },
      {
        "astId": 11575,
        "contract": "contracts/CollectionList.sol:CollectionList",
        "label": "_skill",
        "offset": 0,
        "slot": "252",
        "type": "t_contract(ISkillToken)13411"
      },
      {
        "astId": 11580,
        "contract": "contracts/CollectionList.sol:CollectionList",
        "label": "_collectionIdCollection",
        "offset": 0,
        "slot": "253",
        "type": "t_mapping(t_uint256,t_struct(Collection)12908_storage)"
      },
      {
        "astId": 11583,
        "contract": "contracts/CollectionList.sol:CollectionList",
        "label": "_collectionIds",
        "offset": 0,
        "slot": "254",
        "type": "t_struct(UintSet)5211_storage"
      },
      {
        "astId": 11590,
        "contract": "contracts/CollectionList.sol:CollectionList",
        "label": "_collectionIdDepositorAmount",
        "offset": 0,
        "slot": "256",
        "type": "t_mapping(t_uint256,t_mapping(t_address,t_uint256))"
      },
      {
        "astId": 11597,
        "contract": "contracts/CollectionList.sol:CollectionList",
        "label": "_collectionIdDepositRecords",
        "offset": 0,
        "slot": "257",
        "type": "t_mapping(t_uint256,t_array(t_struct(DepositRecord)11560_storage)dyn_storage)"
      }
    ],
    "types": {
      "t_address": {
        "encoding": "inplace",
        "label": "address",
        "numberOfBytes": "20"
      },
      "t_address_payable": {
        "encoding": "inplace",
        "label": "address payable",
        "numberOfBytes": "20"
      },
      "t_array(t_bytes32)dyn_storage": {
        "base": "t_bytes32",
        "encoding": "dynamic_array",
        "label": "bytes32[]",
        "numberOfBytes": "32"
      },
      "t_array(t_struct(DepositRecord)11560_storage)dyn_storage": {
        "base": "t_struct(DepositRecord)11560_storage",
        "encoding": "dynamic_array",
        "label": "struct CollectionList.DepositRecord[]",
        "numberOfBytes": "32"
      },
      "t_array(t_uint256)49_storage": {
        "base": "t_uint256",
        "encoding": "inplace",
        "label": "uint256[49]",
        "numberOfBytes": "1568"
      },
      "t_array(t_uint256)50_storage": {
        "base": "t_uint256",
        "encoding": "inplace",
        "label": "uint256[50]",
        "numberOfBytes": "1600"
      },
      "t_bool": {
        "encoding": "inplace",
        "label": "bool",
        "numberOfBytes": "1"
      },
      "t_bytes32": {
        "encoding": "inplace",
        "label": "bytes32",
        "numberOfBytes": "32"
      },
      "t_contract(ISkillToken)13411": {
        "encoding": "inplace",
        "label": "contract ISkillToken",
        "numberOfBytes": "20"
      },
      "t_mapping(t_address,t_bool)": {
        "encoding": "mapping",
        "key": "t_address",
        "label": "mapping(address => bool)",
        "numberOfBytes": "32",
        "value": "t_bool"
      },
      "t_mapping(t_address,t_uint256)": {
        "encoding": "mapping",
        "key": "t_address",
        "label": "mapping(address => uint256)",
        "numberOfBytes": "32",
        "value": "t_uint256"
      },
      "t_mapping(t_bytes32,t_struct(AddressSet)3206_storage)": {
        "encoding": "mapping",
        "key": "t_bytes32",
        "label": "mapping(bytes32 => struct EnumerableSetUpgradeable.AddressSet)",
        "numberOfBytes": "32",
        "value": "t_struct(AddressSet)3206_storage"
      },
      "t_mapping(t_bytes32,t_struct(RoleData)302_storage)": {
        "encoding": "mapping",
        "key": "t_bytes32",
        "label": "mapping(bytes32 => struct AccessControlUpgradeable.RoleData)",
        "numberOfBytes": "32",
        "value": "t_struct(RoleData)302_storage"
      },
      "t_mapping(t_bytes32,t_uint256)": {
        "encoding": "mapping",
        "key": "t_bytes32",
        "label": "mapping(bytes32 => uint256)",
        "numberOfBytes": "32",
        "value": "t_uint256"
      },
      "t_mapping(t_uint256,t_array(t_struct(DepositRecord)11560_storage)dyn_storage)": {
        "encoding": "mapping",
        "key": "t_uint256",
        "label": "mapping(uint256 => struct CollectionList.DepositRecord[])",
        "numberOfBytes": "32",
        "value": "t_array(t_struct(DepositRecord)11560_storage)dyn_storage"
      },
      "t_mapping(t_uint256,t_mapping(t_address,t_uint256))": {
        "encoding": "mapping",
        "key": "t_uint256",
        "label": "mapping(uint256 => mapping(address => uint256))",
        "numberOfBytes": "32",
        "value": "t_mapping(t_address,t_uint256)"
      },
      "t_mapping(t_uint256,t_struct(Collection)12908_storage)": {
        "encoding": "mapping",
        "key": "t_uint256",
        "label": "mapping(uint256 => struct ICollectionList.Collection)",
        "numberOfBytes": "32",
        "value": "t_struct(Collection)12908_storage"
      },
      "t_string_storage": {
        "encoding": "bytes",
        "label": "string",
        "numberOfBytes": "32"
      },
      "t_struct(AddressSet)3206_storage": {
        "encoding": "inplace",
        "label": "struct EnumerableSetUpgradeable.AddressSet",
        "members": [
          {
            "astId": 3205,
            "contract": "contracts/CollectionList.sol:CollectionList",
            "label": "_inner",
            "offset": 0,
            "slot": "0",
            "type": "t_struct(Set)2931_storage"
          }
        ],
        "numberOfBytes": "64"
      },
      "t_struct(Collection)12908_storage": {
        "encoding": "inplace",
        "label": "struct ICollectionList.Collection",
        "members": [
          {
            "astId": 12883,
            "contract": "contracts/CollectionList.sol:CollectionList",
            "label": "id",
            "offset": 0,
            "slot": "0",
            "type": "t_uint256"
          },
          {
            "astId": 12885,
            "contract": "contracts/CollectionList.sol:CollectionList",
            "label": "name",
            "offset": 0,
            "slot": "1",
            "type": "t_string_storage"
          },
          {
            "astId": 12887,
            "contract": "contracts/CollectionList.sol:CollectionList",
            "label": "chainId",
            "offset": 0,
            "slot": "2",
            "type": "t_uint256"
          },
          {
            "astId": 12889,
            "contract": "contracts/CollectionList.sol:CollectionList",
            "label": "token",
            "offset": 0,
            "slot": "3",
            "type": "t_address"
          },
          {
            "astId": 12891,
            "contract": "contracts/CollectionList.sol:CollectionList",
            "label": "accessThresholdInCollectionTokens",
            "offset": 0,
            "slot": "4",
            "type": "t_uint256"
          },
          {
            "astId": 12893,
            "contract": "contracts/CollectionList.sol:CollectionList",
            "label": "activityThresholdInSNK",
            "offset": 0,
            "slot": "5",
            "type": "t_uint256"
          },
          {
            "astId": 12895,
            "contract": "contracts/CollectionList.sol:CollectionList",
            "label": "lockPeriodInSeconds",
            "offset": 0,
            "slot": "6",
            "type": "t_uint256"
          },
          {
            "astId": 12897,
            "contract": "contracts/CollectionList.sol:CollectionList",
            "label": "revshareInPercents",
            "offset": 0,
            "slot": "7",
            "type": "t_uint256"
          },
          {
            "astId": 12899,
            "contract": "contracts/CollectionList.sol:CollectionList",
            "label": "revshareRecipient",
            "offset": 0,
            "slot": "8",
            "type": "t_address_payable"
          },
          {
            "astId": 12901,
            "contract": "contracts/CollectionList.sol:CollectionList",
            "label": "depositedSNK",
            "offset": 0,
            "slot": "9",
            "type": "t_uint256"
          },
          {
            "astId": 12903,
            "contract": "contracts/CollectionList.sol:CollectionList",
            "label": "active",
            "offset": 0,
            "slot": "10",
            "type": "t_bool"
          },
          {
            "astId": 12905,
            "contract": "contracts/CollectionList.sol:CollectionList",
            "label": "lockedAt",
            "offset": 0,
            "slot": "11",
            "type": "t_uint256"
          },
          {
            "astId": 12907,
            "contract": "contracts/CollectionList.sol:CollectionList",
            "label": "depositsEnabled",
            "offset": 0,
            "slot": "12",
            "type": "t_bool"
          }
        ],
        "numberOfBytes": "416"
      },
      "t_struct(Counter)4707_storage": {
        "encoding": "inplace",
        "label": "struct Counters.Counter",
        "members": [
          {
            "astId": 4706,
            "contract": "contracts/CollectionList.sol:CollectionList",
            "label": "_value",
            "offset": 0,
            "slot": "0",
            "type": "t_uint256"
          }
        ],
        "numberOfBytes": "32"
      },
      "t_struct(DepositRecord)11560_storage": {
        "encoding": "inplace",
        "label": "struct CollectionList.DepositRecord",
        "members": [
          {
            "astId": 11557,
            "contract": "contracts/CollectionList.sol:CollectionList",
            "label": "depositor",
            "offset": 0,
            "slot": "0",
            "type": "t_address"
          },
          {
            "astId": 11559,
            "contract": "contracts/CollectionList.sol:CollectionList",
            "label": "amount",
            "offset": 0,
            "slot": "1",
            "type": "t_uint256"
          }
        ],
        "numberOfBytes": "64"
      },
      "t_struct(RoleData)302_storage": {
        "encoding": "inplace",
        "label": "struct AccessControlUpgradeable.RoleData",
        "members": [
          {
            "astId": 299,
            "contract": "contracts/CollectionList.sol:CollectionList",
            "label": "members",
            "offset": 0,
            "slot": "0",
            "type": "t_mapping(t_address,t_bool)"
          },
          {
            "astId": 301,
            "contract": "contracts/CollectionList.sol:CollectionList",
            "label": "adminRole",
            "offset": 0,
            "slot": "1",
            "type": "t_bytes32"
          }
        ],
        "numberOfBytes": "64"
      },
      "t_struct(Set)2931_storage": {
        "encoding": "inplace",
        "label": "struct EnumerableSetUpgradeable.Set",
        "members": [
          {
            "astId": 2926,
            "contract": "contracts/CollectionList.sol:CollectionList",
            "label": "_values",
            "offset": 0,
            "slot": "0",
            "type": "t_array(t_bytes32)dyn_storage"
          },
          {
            "astId": 2930,
            "contract": "contracts/CollectionList.sol:CollectionList",
            "label": "_indexes",
            "offset": 0,
            "slot": "1",
            "type": "t_mapping(t_bytes32,t_uint256)"
          }
        ],
        "numberOfBytes": "64"
      },
      "t_struct(Set)4809_storage": {
        "encoding": "inplace",
        "label": "struct EnumerableSet.Set",
        "members": [
          {
            "astId": 4804,
            "contract": "contracts/CollectionList.sol:CollectionList",
            "label": "_values",
            "offset": 0,
            "slot": "0",
            "type": "t_array(t_bytes32)dyn_storage"
          },
          {
            "astId": 4808,
            "contract": "contracts/CollectionList.sol:CollectionList",
            "label": "_indexes",
            "offset": 0,
            "slot": "1",
            "type": "t_mapping(t_bytes32,t_uint256)"
          }
        ],
        "numberOfBytes": "64"
      },
      "t_struct(UintSet)5211_storage": {
        "encoding": "inplace",
        "label": "struct EnumerableSet.UintSet",
        "members": [
          {
            "astId": 5210,
            "contract": "contracts/CollectionList.sol:CollectionList",
            "label": "_inner",
            "offset": 0,
            "slot": "0",
            "type": "t_struct(Set)4809_storage"
          }
        ],
        "numberOfBytes": "64"
      },
      "t_uint256": {
        "encoding": "inplace",
        "label": "uint256",
        "numberOfBytes": "32"
      }
    }
  }
}