{
  "address": "0x97c2953C109eaDa52881731a4f6Ae12Ead8E512b",
  "abi": [
    {
      "anonymous": false,
      "inputs": [
        {
          "indexed": false,
          "internalType": "address",
          "name": "account",
          "type": "address"
        }
      ],
      "name": "Paused",
      "type": "event"
    },
    {
      "anonymous": false,
      "inputs": [
        {
          "indexed": true,
          "internalType": "bytes32",
          "name": "role",
          "type": "bytes32"
        },
        {
          "indexed": true,
          "internalType": "bytes32",
          "name": "previousAdminRole",
          "type": "bytes32"
        },
        {
          "indexed": true,
          "internalType": "bytes32",
          "name": "newAdminRole",
          "type": "bytes32"
        }
      ],
      "name": "RoleAdminChanged",
      "type": "event"
    },
    {
      "anonymous": false,
      "inputs": [
        {
          "indexed": true,
          "internalType": "bytes32",
          "name": "role",
          "type": "bytes32"
        },
        {
          "indexed": true,
          "internalType": "address",
          "name": "account",
          "type": "address"
        },
        {
          "indexed": true,
          "internalType": "address",
          "name": "sender",
          "type": "address"
        }
      ],
      "name": "RoleGranted",
      "type": "event"
    },
    {
      "anonymous": false,
      "inputs": [
        {
          "indexed": true,
          "internalType": "bytes32",
          "name": "role",
          "type": "bytes32"
        },
        {
          "indexed": true,
          "internalType": "address",
          "name": "account",
          "type": "address"
        },
        {
          "indexed": true,
          "internalType": "address",
          "name": "sender",
          "type": "address"
        }
      ],
      "name": "RoleRevoked",
      "type": "event"
    },
    {
      "anonymous": false,
      "inputs": [
        {
          "indexed": false,
          "internalType": "uint256",
          "name": "tokenId",
          "type": "uint256"
        },
        {
          "indexed": false,
          "internalType": "address",
          "name": "seller",
          "type": "address"
        },
        {
          "indexed": false,
          "internalType": "address",
          "name": "buyer",
          "type": "address"
        },
        {
          "indexed": false,
          "internalType": "uint256",
          "name": "price",
          "type": "uint256"
        }
      ],
      "name": "SnookBuy",
      "type": "event"
    },
    {
      "anonymous": false,
      "inputs": [
        {
          "indexed": false,
          "internalType": "uint256",
          "name": "tokenId",
          "type": "uint256"
        }
      ],
      "name": "SnookPlacementForSale",
      "type": "event"
    },
    {
      "anonymous": false,
      "inputs": [
        {
          "indexed": false,
          "internalType": "uint256",
          "name": "tokenId",
          "type": "uint256"
        },
        {
          "indexed": false,
          "internalType": "uint256",
          "name": "previousPrice",
          "type": "uint256"
        },
        {
          "indexed": false,
          "internalType": "uint256",
          "name": "price",
          "type": "uint256"
        }
      ],
      "name": "SnookPriceChange",
      "type": "event"
    },
    {
      "anonymous": false,
      "inputs": [
        {
          "indexed": false,
          "internalType": "uint256",
          "name": "tokenId",
          "type": "uint256"
        }
      ],
      "name": "SnookRemovalFromSale",
      "type": "event"
    },
    {
      "anonymous": false,
      "inputs": [
        {
          "indexed": false,
          "internalType": "address",
          "name": "account",
          "type": "address"
        }
      ],
      "name": "Unpaused",
      "type": "event"
    },
    {
      "inputs": [],
      "name": "DEFAULT_ADMIN_ROLE",
      "outputs": [
        {
          "internalType": "bytes32",
          "name": "",
          "type": "bytes32"
        }
      ],
      "stateMutability": "view",
      "type": "function"
    },
    {
      "inputs": [],
      "name": "PAUSER_ROLE",
      "outputs": [
        {
          "internalType": "bytes32",
          "name": "",
          "type": "bytes32"
        }
      ],
      "stateMutability": "view",
      "type": "function"
    },
    {
      "inputs": [
        {
          "internalType": "uint256",
          "name": "tokenId",
          "type": "uint256"
        }
      ],
      "name": "buySnook",
      "outputs": [],
      "stateMutability": "payable",
      "type": "function"
    },
    {
      "inputs": [
        {
          "internalType": "uint256",
          "name": "tokenId",
          "type": "uint256"
        },
        {
          "internalType": "uint256",
          "name": "price",
          "type": "uint256"
        }
      ],
      "name": "changeSnookPrice",
      "outputs": [],
      "stateMutability": "nonpayable",
      "type": "function"
    },
    {
      "inputs": [
        {
          "internalType": "uint256",
          "name": "tokenId",
          "type": "uint256"
        }
      ],
      "name": "getAmountToSeller",
      "outputs": [
        {
          "internalType": "uint256",
          "name": "",
          "type": "uint256"
        }
      ],
      "stateMutability": "view",
      "type": "function"
    },
    {
      "inputs": [],
      "name": "getCountOfTokensForSale",
      "outputs": [
        {
          "internalType": "uint256",
          "name": "",
          "type": "uint256"
        }
      ],
      "stateMutability": "view",
      "type": "function"
    },
    {
      "inputs": [],
      "name": "getMarketplaceFee",
      "outputs": [
        {
          "internalType": "uint256",
          "name": "",
          "type": "uint256"
        }
      ],
      "stateMutability": "view",
      "type": "function"
    },
    {
      "inputs": [],
      "name": "getMarketplaceSafeAddress",
      "outputs": [
        {
          "internalType": "address",
          "name": "",
          "type": "address"
        }
      ],
      "stateMutability": "view",
      "type": "function"
    },
    {
      "inputs": [
        {
          "internalType": "bytes32",
          "name": "role",
          "type": "bytes32"
        }
      ],
      "name": "getRoleAdmin",
      "outputs": [
        {
          "internalType": "bytes32",
          "name": "",
          "type": "bytes32"
        }
      ],
      "stateMutability": "view",
      "type": "function"
    },
    {
      "inputs": [
        {
          "internalType": "bytes32",
          "name": "role",
          "type": "bytes32"
        },
        {
          "internalType": "uint256",
          "name": "index",
          "type": "uint256"
        }
      ],
      "name": "getRoleMember",
      "outputs": [
        {
          "internalType": "address",
          "name": "",
          "type": "address"
        }
      ],
      "stateMutability": "view",
      "type": "function"
    },
    {
      "inputs": [
        {
          "internalType": "bytes32",
          "name": "role",
          "type": "bytes32"
        }
      ],
      "name": "getRoleMemberCount",
      "outputs": [
        {
          "internalType": "uint256",
          "name": "",
          "type": "uint256"
        }
      ],
      "stateMutability": "view",
      "type": "function"
    },
    {
      "inputs": [],
      "name": "getSNKAddress",
      "outputs": [
        {
          "internalType": "address",
          "name": "",
          "type": "address"
        }
      ],
      "stateMutability": "view",
      "type": "function"
    },
    {
      "inputs": [],
      "name": "getSNOOKAddress",
      "outputs": [
        {
          "internalType": "address",
          "name": "",
          "type": "address"
        }
      ],
      "stateMutability": "view",
      "type": "function"
    },
    {
      "inputs": [
        {
          "internalType": "uint256",
          "name": "start",
          "type": "uint256"
        },
        {
          "internalType": "uint256",
          "name": "end",
          "type": "uint256"
        }
      ],
      "name": "getTokensForSale",
      "outputs": [
        {
          "components": [
            {
              "internalType": "uint256",
              "name": "tokenId",
              "type": "uint256"
            },
            {
              "internalType": "address",
              "name": "tokenOwner",
              "type": "address"
            },
            {
              "internalType": "string",
              "name": "tokenURI",
              "type": "string"
            },
            {
              "internalType": "uint256",
              "name": "price",
              "type": "uint256"
            },
            {
              "internalType": "uint256",
              "name": "listedAt",
              "type": "uint256"
            }
          ],
          "internalType": "struct IMarketplace.TokenForSale[]",
          "name": "",
          "type": "tuple[]"
        }
      ],
      "stateMutability": "view",
      "type": "function"
    },
    {
      "inputs": [
        {
          "internalType": "bytes32",
          "name": "role",
          "type": "bytes32"
        },
        {
          "internalType": "address",
          "name": "account",
          "type": "address"
        }
      ],
      "name": "grantRole",
      "outputs": [],
      "stateMutability": "nonpayable",
      "type": "function"
    },
    {
      "inputs": [
        {
          "internalType": "bytes32",
          "name": "role",
          "type": "bytes32"
        },
        {
          "internalType": "address",
          "name": "account",
          "type": "address"
        }
      ],
      "name": "hasRole",
      "outputs": [
        {
          "internalType": "bool",
          "name": "",
          "type": "bool"
        }
      ],
      "stateMutability": "view",
      "type": "function"
    },
    {
      "inputs": [
        {
          "internalType": "address",
          "name": "snook",
          "type": "address"
        },
        {
          "internalType": "address",
          "name": "skill",
          "type": "address"
        },
        {
          "internalType": "address",
          "name": "state",
          "type": "address"
        },
        {
          "internalType": "address payable",
          "name": "marketplaceSafe",
          "type": "address"
        },
        {
          "internalType": "uint256",
          "name": "marketplaceFee",
          "type": "uint256"
        }
      ],
      "name": "initialize",
      "outputs": [],
      "stateMutability": "nonpayable",
      "type": "function"
    },
    {
      "inputs": [],
      "name": "pause",
      "outputs": [],
      "stateMutability": "nonpayable",
      "type": "function"
    },
    {
      "inputs": [],
      "name": "paused",
      "outputs": [
        {
          "internalType": "bool",
          "name": "",
          "type": "bool"
        }
      ],
      "stateMutability": "view",
      "type": "function"
    },
    {
      "inputs": [
        {
          "internalType": "uint256",
          "name": "tokenId",
          "type": "uint256"
        },
        {
          "internalType": "uint256",
          "name": "price",
          "type": "uint256"
        }
      ],
      "name": "placeSnookForSale",
      "outputs": [],
      "stateMutability": "nonpayable",
      "type": "function"
    },
    {
      "inputs": [
        {
          "internalType": "uint256",
          "name": "tokenId",
          "type": "uint256"
        }
      ],
      "name": "removeSnookFromSale",
      "outputs": [],
      "stateMutability": "nonpayable",
      "type": "function"
    },
    {
      "inputs": [
        {
          "internalType": "bytes32",
          "name": "role",
          "type": "bytes32"
        },
        {
          "internalType": "address",
          "name": "account",
          "type": "address"
        }
      ],
      "name": "renounceRole",
      "outputs": [],
      "stateMutability": "nonpayable",
      "type": "function"
    },
    {
      "inputs": [
        {
          "internalType": "bytes32",
          "name": "role",
          "type": "bytes32"
        },
        {
          "internalType": "address",
          "name": "account",
          "type": "address"
        }
      ],
      "name": "revokeRole",
      "outputs": [],
      "stateMutability": "nonpayable",
      "type": "function"
    },
    {
      "inputs": [
        {
          "internalType": "uint256",
          "name": "marketplaceFee",
          "type": "uint256"
        }
      ],
      "name": "setMarketplaceFee",
      "outputs": [],
      "stateMutability": "nonpayable",
      "type": "function"
    },
    {
      "inputs": [
        {
          "internalType": "address payable",
          "name": "marketplaceSafe",
          "type": "address"
        }
      ],
      "name": "setMarketplaceSafeAddress",
      "outputs": [],
      "stateMutability": "nonpayable",
      "type": "function"
    },
    {
      "inputs": [
        {
          "internalType": "bytes4",
          "name": "interfaceId",
          "type": "bytes4"
        }
      ],
      "name": "supportsInterface",
      "outputs": [
        {
          "internalType": "bool",
          "name": "",
          "type": "bool"
        }
      ],
      "stateMutability": "view",
      "type": "function"
    },
    {
      "inputs": [],
      "name": "unpause",
      "outputs": [],
      "stateMutability": "nonpayable",
      "type": "function"
    }
  ],
  "transactionHash": "0x1f65383d9989f81d1fb1e64f8f9c0a88e678b68a9f8b3407dfae740e5fe845eb",
  "args": [],
  "solcInputHash": "44bc5b6e9efb9005c0cdf786881a4dc8",
  "bytecode": "0x608060405234801561001057600080fd5b506127f7806100206000396000f3fe60806040526004361061019c5760003560e01c80638d305668116100ec578063b1ae6cb01161008a578063e63ab1e911610064578063e63ab1e914610450578063eb87d01f14610465578063f595945914610492578063f7013ef6146104a55761019c565b8063b1ae6cb0146103f0578063ca15c87314610410578063d547741f146104305761019c565b80639407ea98116100c65780639407ea981461037b57806395b81e5a1461039b5780639e1b903d146103bb578063a217fddf146103db5761019c565b80638d3056681461031b5780639010d07c1461033b57806391d148541461035b5761019c565b806326a7b37b116101595780633f4ba83a116101335780633f4ba83a146102c75780635c975abb146102dc5780638456cb59146102f157806389afada5146103065761019c565b806326a7b37b146102725780632f2ff15d1461028757806336568abe146102a75761019c565b806301ffc9a7146101a15780630b751db5146101d75780630c338e2f146101f95780632109f07e1461021b57806323d0b9e414610230578063248a9ca314610245575b600080fd5b3480156101ad57600080fd5b506101c16101bc366004611f42565b6104c5565b6040516101ce9190612229565b60405180910390f35b3480156101e357600080fd5b506101ec6104f2565b6040516101ce9190612154565b34801561020557600080fd5b50610219610214366004611f21565b610501565b005b34801561022757600080fd5b506101ec610664565b34801561023c57600080fd5b506101ec610673565b34801561025157600080fd5b50610265610260366004611eda565b610682565b6040516101ce9190612234565b34801561027e57600080fd5b50610265610697565b34801561029357600080fd5b506102196102a2366004611ef2565b61069d565b3480156102b357600080fd5b506102196102c2366004611ef2565b6106c4565b3480156102d357600080fd5b506102196106e6565b3480156102e857600080fd5b506101c1610735565b3480156102fd57600080fd5b5061021961073e565b34801561031257600080fd5b50610265610786565b34801561032757600080fd5b50610219610336366004611e41565b610798565b34801561034757600080fd5b506101ec610356366004611f21565b6107d6565b34801561036757600080fd5b506101c1610376366004611ef2565b6107f7565b34801561038757600080fd5b50610219610396366004611eda565b610822565b3480156103a757600080fd5b506102196103b6366004611eda565b610843565b3480156103c757600080fd5b506102196103d6366004611f21565b61095c565b3480156103e757600080fd5b50610265610c51565b3480156103fc57600080fd5b5061026561040b366004611eda565b610c56565b34801561041c57600080fd5b5061026561042b366004611eda565b610c61565b34801561043c57600080fd5b5061021961044b366004611ef2565b610c78565b34801561045c57600080fd5b50610265610c82565b34801561047157600080fd5b50610485610480366004611f21565b610c94565b6040516101ce919061218c565b6102196104a0366004611eda565b610f02565b3480156104b157600080fd5b506102196104c0366004611e5d565b61114b565b60006001600160e01b03198216635a05180f60e01b14806104ea57506104ea82611224565b90505b919050565b60fc546001600160a01b031690565b60fb546040516331a9108f60e11b815283916001600160a01b031690636352211e90610531908490600401612234565b60206040518083038186803b15801561054957600080fd5b505afa15801561055d573d6000803e3d6000fd5b505050506040513d601f19601f820116820180604052508101906105819190611e25565b6001600160a01b0316336001600160a01b0316146105ba5760405162461bcd60e51b81526004016105b190612447565b60405180910390fd5b6105c2610735565b156105df5760405162461bcd60e51b81526004016105b190612372565b6105eb61010284611249565b151560011461060c5760405162461bcd60e51b81526004016105b190612421565b600083815261010060205260409081902080549084905590517fff98a0572b587b0802a863c7a63253132a9bca2a4308d8b0ba14161c9da077fb9061065690869084908790612650565b60405180910390a150505050565b60fe546001600160a01b031690565b60fb546001600160a01b031690565b60009081526065602052604090206001015490565b60ff5490565b6106a78282611255565b60008281526097602052604090206106bf9082611274565b505050565b6106ce8282611289565b60008281526097602052604090206106bf90826112cf565b6000805160206127a2833981519152610706816107016112e4565b6112e8565b61070e610735565b61072a5760405162461bcd60e51b81526004016105b1906122c7565b61073261134c565b50565b60c95460ff1690565b6000805160206127a2833981519152610759816107016112e4565b610761610735565b1561077e5760405162461bcd60e51b81526004016105b190612372565b6107326113ba565b6000610793610102611415565b905090565b6000805160206127a28339815191526107b3816107016112e4565b5060fe80546001600160a01b0319166001600160a01b0392909216919091179055565b60008281526097602052604081206107ee9083611420565b90505b92915050565b60009182526065602090815260408084206001600160a01b0393909316845291905290205460ff1690565b6000805160206127a283398151915261083d816107016112e4565b5060ff55565b60fb546040516331a9108f60e11b815282916001600160a01b031690636352211e90610873908490600401612234565b60206040518083038186803b15801561088b57600080fd5b505afa15801561089f573d6000803e3d6000fd5b505050506040513d601f19601f820116820180604052508101906108c39190611e25565b6001600160a01b0316336001600160a01b0316146108f35760405162461bcd60e51b81526004016105b190612447565b6108fb610735565b156109185760405162461bcd60e51b81526004016105b190612372565b6109218261142c565b7f06d67396e303534702daaf9354c689fb90857b01ac17e919dc87498da1b83498826040516109509190612234565b60405180910390a15050565b60fb546040516331a9108f60e11b815283916001600160a01b031690636352211e9061098c908490600401612234565b60206040518083038186803b1580156109a457600080fd5b505afa1580156109b8573d6000803e3d6000fd5b505050506040513d601f19601f820116820180604052508101906109dc9190611e25565b6001600160a01b0316336001600160a01b031614610a0c5760405162461bcd60e51b81526004016105b190612447565b60fb5460405163020604bf60e21b815230916001600160a01b03169063081812fc90610a3c908790600401612234565b60206040518083038186803b158015610a5457600080fd5b505afa158015610a68573d6000803e3d6000fd5b505050506040513d601f19601f82011682018060405250810190610a8c9190611e25565b6001600160a01b031614610ab25760405162461bcd60e51b81526004016105b19061239c565b60fb5460405163f6aacfb160e01b81526001600160a01b039091169063f6aacfb190610ae2908690600401612234565b60206040518083038186803b158015610afa57600080fd5b505afa158015610b0e573d6000803e3d6000fd5b505050506040513d601f19601f82011682018060405250810190610b329190611ec0565b15610b4f5760405162461bcd60e51b81526004016105b190612470565b610b5b61010284611249565b15610b785760405162461bcd60e51b81526004016105b1906122f5565b610b838360016114f3565b60fb5460405163bfbf01d760e01b81526001600160a01b039091169063bfbf01d790610bb690869060019060040161250d565b600060405180830381600087803b158015610bd057600080fd5b505af1158015610be4573d6000803e3d6000fd5b505050600084815261010060209081526040808320869055610101909152902042905550610c14610102846115eb565b507fb173ec95f919caaf77778142cdef0b29c1cbb9fbf3f748f69a5bb1eba1defb6d83604051610c449190612234565b60405180910390a1505050565b600081565b60006104ea826115f7565b60008181526097602052604081206104ea90611415565b6106ce8282611652565b6000805160206127a283398151915281565b606081831115610cb65760405162461bcd60e51b81526004016105b190612349565b610cc1610102611415565b821115610cd657610cd3610102611415565b91505b6000610ce284846126e7565b67ffffffffffffffff811115610d0857634e487b7160e01b600052604160045260246000fd5b604051908082528060200260200182016040528015610d4157816020015b610d2e611d7b565b815260200190600190039081610d265790505b509050835b83811015610efa576000610d5c61010283611420565b60fb5460405163c87b56dd60e01b81529192506000916001600160a01b039091169063c87b56dd90610d92908590600401612234565b60006040518083038186803b158015610daa57600080fd5b505afa158015610dbe573d6000803e3d6000fd5b505050506040513d6000823e601f3d908101601f19168201604052610de69190810190611f6a565b6040805160a08101825284815260fb5491516331a9108f60e11b81529293509160208301916001600160a01b031690636352211e90610e29908790600401612234565b60206040518083038186803b158015610e4157600080fd5b505afa158015610e55573d6000803e3d6000fd5b505050506040513d601f19601f82011682018060405250810190610e799190611e25565b6001600160a01b0316815260208082018490526000858152610100825260408082205481850152868252610101909252205460609091015284610ebc89866126e7565b81518110610eda57634e487b7160e01b600052603260045260246000fd5b602002602001018190525050508080610ef290612745565b915050610d46565b509392505050565b610f0a610735565b15610f275760405162461bcd60e51b81526004016105b190612372565b610f3361010282611249565b1515600114610f545760405162461bcd60e51b81526004016105b190612421565b6000818152610100602052604090205434811115610f845760405162461bcd60e51b81526004016105b19061231f565b60fb546040516331a9108f60e11b815233916000916001600160a01b0390911690636352211e90610fb9908790600401612234565b60206040518083038186803b158015610fd157600080fd5b505afa158015610fe5573d6000803e3d6000fd5b505050506040513d601f19601f820116820180604052508101906110099190611e25565b9050600061101685611671565b90506000611023866115f7565b905061102e8661142c565b60fb54604051632142170760e11b81526001600160a01b03909116906342842e0e9061106290869088908b90600401612168565b600060405180830381600087803b15801561107c57600080fd5b505af1158015611090573d6000803e3d6000fd5b50506040516001600160a01b038616925083156108fc02915083906000818181858888f193505050501580156110ca573d6000803e3d6000fd5b5060fe546040516001600160a01b039091169083156108fc029084906000818181858888f19350505050158015611105573d6000803e3d6000fd5b507f9618c245a735f63a5e82ad21e0f7a51a8170d2fca81822eaaeb6578d73c051578684868860405161113b94939291906124e8565b60405180910390a1505050505050565b600054610100900460ff1680611164575060005460ff16155b6111805760405162461bcd60e51b81526004016105b1906123d3565b600054610100900460ff161580156111ab576000805460ff1961ff0019909116610100171660011790555b6111b36116cd565b6111bb611761565b60fb80546001600160a01b038089166001600160a01b03199283161790925560fc805488841690831617905560fd805487841690831617905560fe80549286169290911691909117905560ff829055801561121c576000805461ff00191690555b505050505050565b60006001600160e01b03198216637965db0b60e01b14806104ea57506104ea826117d1565b60006107ee83836117ea565b61125e82610682565b61126a816107016112e4565b6106bf8383611802565b60006107ee836001600160a01b038416611889565b6112916112e4565b6001600160a01b0316816001600160a01b0316146112c15760405162461bcd60e51b81526004016105b190612499565b6112cb82826118d3565b5050565b60006107ee836001600160a01b038416611958565b3390565b6112f282826107f7565b6112cb5761130a816001600160a01b03166014611a6f565b611315836020611a6f565b6040516020016113269291906120df565b60408051601f198184030181529082905262461bcd60e51b82526105b19160040161223d565b611354610735565b6113705760405162461bcd60e51b81526004016105b1906122c7565b60c9805460ff191690557f5db9ee0a495bf2e6ff9c91a7834c1ba4fdd244a5e8aa4e537bd38aeae4b073aa6113a36112e4565b6040516113b09190612154565b60405180910390a1565b6113c2610735565b156113df5760405162461bcd60e51b81526004016105b190612372565b60c9805460ff191660011790557f62e78cea01bee320cd4e420270b5ea74000d11b0c9f74754ebdbfc544b05a2586113a36112e4565b60006104ea82611c21565b60006107ee8383611c25565b61143861010282611249565b15156001146114595760405162461bcd60e51b81526004016105b190612421565b6114648160006114f3565b60fb5460405163bfbf01d760e01b81526001600160a01b039091169063bfbf01d79061149790849060009060040161253d565b600060405180830381600087803b1580156114b157600080fd5b505af11580156114c5573d6000803e3d6000fd5b505050600082815261010060209081526040808320839055610101909152812055506112cb61010282611c7e565b60fd54604051636a6f3e1d60e01b81526000916001600160a01b031690636a6f3e1d90611524908690600401612234565b60006040518083038186803b15801561153c57600080fd5b505afa158015611550573d6000803e3d6000fd5b505050506040513d6000823e601f3d908101601f191682016040526115789190810190611f9d565b8215156101a082015260fd5460405163366a446b60e21b81529192506001600160a01b03169063d9a911ac906115b49086908590600401612576565b600060405180830381600087803b1580156115ce57600080fd5b505af11580156115e2573d6000803e3d6000fd5b50505050505050565b60006107ee8383611889565b600061160561010283611249565b15156001146116265760405162461bcd60e51b81526004016105b190612421565b600082815261010060205260408120549061164084611671565b61164a90836126e7565b949350505050565b61165b82610682565b611667816107016112e4565b6106bf83836118d3565b600061167f61010283611249565b15156001146116a05760405162461bcd60e51b81526004016105b190612421565b6000828152610100602052604081205460ff549091906064906116c390846126c8565b61164a91906126a8565b600054610100900460ff16806116e6575060005460ff16155b6117025760405162461bcd60e51b81526004016105b1906123d3565b600054610100900460ff1615801561172d576000805460ff1961ff0019909116610100171660011790555b611735611c8a565b61173d611c8a565b611745611c8a565b61174d611c8a565b8015610732576000805461ff001916905550565b600054610100900460ff168061177a575060005460ff16155b6117965760405162461bcd60e51b81526004016105b1906123d3565b600054610100900460ff161580156117c1576000805460ff1961ff0019909116610100171660011790555b6117c9611c8a565b61174d611cfd565b6001600160e01b031981166301ffc9a760e01b14919050565b60009081526001919091016020526040902054151590565b61180c82826107f7565b6112cb5760008281526065602090815260408083206001600160a01b03851684529091529020805460ff191660011790556118456112e4565b6001600160a01b0316816001600160a01b0316837f2f8788117e7eff1d82e926ec794901d17c78024a50270940304540a733656f0d60405160405180910390a45050565b600061189583836117ea565b6118cb575081546001818101845560008481526020808220909301849055845484825282860190935260409020919091556107f1565b5060006107f1565b6118dd82826107f7565b156112cb5760008281526065602090815260408083206001600160a01b03851684529091529020805460ff191690556119146112e4565b6001600160a01b0316816001600160a01b0316837ff6391f5c32d9c69d2a47ea670b442974b53935d1edc7fd64eb21e047a839171b60405160405180910390a45050565b60008181526001830160205260408120548015611a6557600061197c6001836126e7565b8554909150600090611990906001906126e7565b905060008660000182815481106119b757634e487b7160e01b600052603260045260246000fd5b90600052602060002001549050808760000184815481106119e857634e487b7160e01b600052603260045260246000fd5b600091825260208083209091019290925582815260018901909152604090208490558654879080611a2957634e487b7160e01b600052603160045260246000fd5b600190038181906000526020600020016000905590558660010160008781526020019081526020016000206000905560019450505050506107f1565b60009150506107f1565b60606000611a7e8360026126c8565b611a89906002612690565b67ffffffffffffffff811115611aaf57634e487b7160e01b600052604160045260246000fd5b6040519080825280601f01601f191660200182016040528015611ad9576020820181803683370190505b509050600360fc1b81600081518110611b0257634e487b7160e01b600052603260045260246000fd5b60200101906001600160f81b031916908160001a905350600f60fb1b81600181518110611b3f57634e487b7160e01b600052603260045260246000fd5b60200101906001600160f81b031916908160001a9053506000611b638460026126c8565b611b6e906001612690565b90505b6001811115611c02576f181899199a1a9b1b9c1cb0b131b232b360811b85600f1660108110611bb057634e487b7160e01b600052603260045260246000fd5b1a60f81b828281518110611bd457634e487b7160e01b600052603260045260246000fd5b60200101906001600160f81b031916908160001a90535060049490941c93611bfb8161272e565b9050611b71565b5083156107ee5760405162461bcd60e51b81526004016105b190612292565b5490565b81546000908210611c485760405162461bcd60e51b81526004016105b190612250565b826000018281548110611c6b57634e487b7160e01b600052603260045260246000fd5b9060005260206000200154905092915050565b60006107ee8383611958565b600054610100900460ff1680611ca3575060005460ff16155b611cbf5760405162461bcd60e51b81526004016105b1906123d3565b600054610100900460ff1615801561174d576000805460ff1961ff0019909116610100171660011790558015610732576000805461ff001916905550565b600054610100900460ff1680611d16575060005460ff16155b611d325760405162461bcd60e51b81526004016105b1906123d3565b600054610100900460ff16158015611d5d576000805460ff1961ff0019909116610100171660011790555b60c9805460ff191690558015610732576000805461ff001916905550565b6040518060a001604052806000815260200160006001600160a01b031681526020016060815260200160008152602001600081525090565b805180151581146104ed57600080fd5b600082601f830112611dd3578081fd5b815167ffffffffffffffff811115611ded57611ded612776565b611e00601f8201601f1916602001612666565b818152846020838601011115611e14578283fd5b61164a8260208301602087016126fe565b600060208284031215611e36578081fd5b81516107ee8161278c565b600060208284031215611e52578081fd5b81356107ee8161278c565b600080600080600060a08688031215611e74578081fd5b8535611e7f8161278c565b94506020860135611e8f8161278c565b93506040860135611e9f8161278c565b92506060860135611eaf8161278c565b949793965091946080013592915050565b600060208284031215611ed1578081fd5b6107ee82611db3565b600060208284031215611eeb578081fd5b5035919050565b60008060408385031215611f04578182fd5b823591506020830135611f168161278c565b809150509250929050565b60008060408385031215611f33578182fd5b50508035926020909101359150565b600060208284031215611f53578081fd5b81356001600160e01b0319811681146107ee578182fd5b600060208284031215611f7b578081fd5b815167ffffffffffffffff811115611f91578182fd5b61164a84828501611dc3565b600060208284031215611fae578081fd5b815167ffffffffffffffff80821115611fc5578283fd5b81840191506101c0808387031215611fdb578384fd5b611fe481612666565b9050825181526020830151602082015260408301516040820152606083015160608201526080830151608082015260a083015160a082015260c083015160c082015260e083015160e08201526101008084015183811115612043578586fd5b61204f88828701611dc3565b918301919091525061012083810151908201526101408084015190820152610160915061207d828401611db3565b82820152610180915081830151828201526101a0915061209e828401611db3565b91810191909152949350505050565b15159052565b600081518084526120cb8160208601602086016126fe565b601f01601f19169290920160200192915050565b60007f416363657373436f6e74726f6c3a206163636f756e7420000000000000000000825283516121178160178501602088016126fe565b7001034b99036b4b9b9b4b733903937b6329607d1b60179184019182015283516121488160288401602088016126fe565b01602801949350505050565b6001600160a01b0391909116815260200190565b6001600160a01b039384168152919092166020820152604081019190915260600190565b60208082528251828201819052600091906040908185019080840286018301878501865b8381101561221b57888303603f19018552815180518452878101516001600160a01b0316888501528681015160a0888601819052906121f1828701826120b3565b606084810151908801526080938401519390960192909252505093860193908601906001016121b0565b509098975050505050505050565b901515815260200190565b90815260200190565b6000602082526107ee60208301846120b3565b60208082526022908201527f456e756d657261626c655365743a20696e646578206f7574206f6620626f756e604082015261647360f01b606082015260800190565b6020808252818101527f537472696e67733a20686578206c656e67746820696e73756666696369656e74604082015260600190565b60208082526014908201527314185d5cd8589b194e881b9bdd081c185d5cd95960621b604082015260600190565b60208082526010908201526f416c726561647920666f722073616c6560801b604082015260600190565b60208082526010908201526f4e6f7420656e6f7567682066756e647360801b604082015260600190565b6020808252600f908201526e696e76616c696420696e646578657360881b604082015260600190565b60208082526010908201526f14185d5cd8589b194e881c185d5cd95960821b604082015260600190565b60208082526018908201527f436f6e7472616374206973206e6f7420617070726f7665640000000000000000604082015260600190565b6020808252602e908201527f496e697469616c697a61626c653a20636f6e747261637420697320616c72656160408201526d191e481a5b9a5d1a585b1a5e995960921b606082015260800190565b6020808252600c908201526b4e6f7420666f722073616c6560a01b604082015260600190565b6020808252600f908201526e2737ba1039b737b7b59037bbb732b960891b604082015260600190565b6020808252600f908201526e14db9bdbdac81a5cc81b1bd8dad959608a1b604082015260600190565b6020808252602f908201527f416363657373436f6e74726f6c3a2063616e206f6e6c792072656e6f756e636560408201526e103937b632b9903337b91039b2b63360891b606082015260800190565b9384526001600160a01b03928316602085015291166040830152606082015260800190565b9182521515602082015260606040820181905260089082015267466f722073616c6560c01b608082015260a00190565b918252151560208201526060604082018190526011908201527052656d6f7665642066726f6d2073616c6560781b608082015260a00190565b600083825260406020830152825160408301526020830151606083015260408301516080830152606083015160a0830152608083015160c083015260a083015160e083015260c0830151610100818185015260e0850151915061012082818601528186015192506101c0915061014082818701526125f86102008701856120b3565b91870151610160878101919091529087015161018080880191909152908701519193506101a061262a818801846120ad565b9087015192860192909252508401516126476101e08501826120ad565b50949350505050565b9283526020830191909152604082015260600190565b60405181810167ffffffffffffffff8111828210171561268857612688612776565b604052919050565b600082198211156126a3576126a3612760565b500190565b6000826126c357634e487b7160e01b81526012600452602481fd5b500490565b60008160001904831182151516156126e2576126e2612760565b500290565b6000828210156126f9576126f9612760565b500390565b60005b83811015612719578181015183820152602001612701565b83811115612728576000848401525b50505050565b60008161273d5761273d612760565b506000190190565b600060001982141561275957612759612760565b5060010190565b634e487b7160e01b600052601160045260246000fd5b634e487b7160e01b600052604160045260246000fd5b6001600160a01b038116811461073257600080fdfe65d7a28e3265b37a6474929f336521b332c1681b933f6cb9f3376673440d862aa26469706673582212201f0be70632c396b3e5f07e36a0d7f979e5756f6ba7df04fcc2f6f787ce68ad7164736f6c63430008000033",
  "devdoc": {
    "kind": "dev",
    "methods": {
      "getRoleAdmin(bytes32)": {
        "details": "Returns the admin role that controls `role`. See {grantRole} and {revokeRole}. To change a role's admin, use {_setRoleAdmin}."
      },
      "getRoleMember(bytes32,uint256)": {
        "details": "Returns one of the accounts that have `role`. `index` must be a value between 0 and {getRoleMemberCount}, non-inclusive. Role bearers are not sorted in any particular way, and their ordering may change at any point. WARNING: When using {getRoleMember} and {getRoleMemberCount}, make sure you perform all queries on the same block. See the following https://forum.openzeppelin.com/t/iterating-over-elements-on-enumerableset-in-openzeppelin-contracts/2296[forum post] for more information."
      },
      "getRoleMemberCount(bytes32)": {
        "details": "Returns the number of accounts that have `role`. Can be used together with {getRoleMember} to enumerate all bearers of a role."
      },
      "grantRole(bytes32,address)": {
        "details": "Overload {grantRole} to track enumerable memberships"
      },
      "hasRole(bytes32,address)": {
        "details": "Returns `true` if `account` has been granted `role`."
      },
      "paused()": {
        "details": "Returns true if the contract is paused, and false otherwise."
      },
      "renounceRole(bytes32,address)": {
        "details": "Overload {renounceRole} to track enumerable memberships"
      },
      "revokeRole(bytes32,address)": {
        "details": "Overload {revokeRole} to track enumerable memberships"
      },
      "supportsInterface(bytes4)": {
        "details": "See {IERC165-supportsInterface}."
      }
    },
    "version": 1
  },
  "userdoc": {
    "kind": "user",
    "methods": {},
    "version": 1
  },
  "storageLayout": {
    "storage": [
      {
        "astId": 753,
        "contract": "contracts/Marketplace.sol:Marketplace",
        "label": "_initialized",
        "offset": 0,
        "slot": "0",
        "type": "t_bool"
      },
      {
        "astId": 756,
        "contract": "contracts/Marketplace.sol:Marketplace",
        "label": "_initializing",
        "offset": 1,
        "slot": "0",
        "type": "t_bool"
      },
      {
        "astId": 2658,
        "contract": "contracts/Marketplace.sol:Marketplace",
        "label": "__gap",
        "offset": 0,
        "slot": "1",
        "type": "t_array(t_uint256)50_storage"
      },
      {
        "astId": 2907,
        "contract": "contracts/Marketplace.sol:Marketplace",
        "label": "__gap",
        "offset": 0,
        "slot": "51",
        "type": "t_array(t_uint256)50_storage"
      },
      {
        "astId": 307,
        "contract": "contracts/Marketplace.sol:Marketplace",
        "label": "_roles",
        "offset": 0,
        "slot": "101",
        "type": "t_mapping(t_bytes32,t_struct(RoleData)302_storage)"
      },
      {
        "astId": 615,
        "contract": "contracts/Marketplace.sol:Marketplace",
        "label": "__gap",
        "offset": 0,
        "slot": "102",
        "type": "t_array(t_uint256)49_storage"
      },
      {
        "astId": 62,
        "contract": "contracts/Marketplace.sol:Marketplace",
        "label": "_roleMembers",
        "offset": 0,
        "slot": "151",
        "type": "t_mapping(t_bytes32,t_struct(AddressSet)3206_storage)"
      },
      {
        "astId": 219,
        "contract": "contracts/Marketplace.sol:Marketplace",
        "label": "__gap",
        "offset": 0,
        "slot": "152",
        "type": "t_array(t_uint256)49_storage"
      },
      {
        "astId": 814,
        "contract": "contracts/Marketplace.sol:Marketplace",
        "label": "_paused",
        "offset": 0,
        "slot": "201",
        "type": "t_bool"
      },
      {
        "astId": 905,
        "contract": "contracts/Marketplace.sol:Marketplace",
        "label": "__gap",
        "offset": 0,
        "slot": "202",
        "type": "t_array(t_uint256)49_storage"
      },
      {
        "astId": 14353,
        "contract": "contracts/Marketplace.sol:Marketplace",
        "label": "_snook",
        "offset": 0,
        "slot": "251",
        "type": "t_contract(SnookToken)17466"
      },
      {
        "astId": 14356,
        "contract": "contracts/Marketplace.sol:Marketplace",
        "label": "_skill",
        "offset": 0,
        "slot": "252",
        "type": "t_contract(ISkillToken)13411"
      },
      {
        "astId": 14359,
        "contract": "contracts/Marketplace.sol:Marketplace",
        "label": "_state",
        "offset": 0,
        "slot": "253",
        "type": "t_contract(ISnookState)13677"
      },
      {
        "astId": 14361,
        "contract": "contracts/Marketplace.sol:Marketplace",
        "label": "_marketplaceSafe",
        "offset": 0,
        "slot": "254",
        "type": "t_address_payable"
      },
      {
        "astId": 14363,
        "contract": "contracts/Marketplace.sol:Marketplace",
        "label": "_marketplaceFee",
        "offset": 0,
        "slot": "255",
        "type": "t_uint256"
      },
      {
        "astId": 14367,
        "contract": "contracts/Marketplace.sol:Marketplace",
        "label": "_tokenIdPrice",
        "offset": 0,
        "slot": "256",
        "type": "t_mapping(t_uint256,t_uint256)"
      },
      {
        "astId": 14371,
        "contract": "contracts/Marketplace.sol:Marketplace",
        "label": "_tokenIdListedAt",
        "offset": 0,
        "slot": "257",
        "type": "t_mapping(t_uint256,t_uint256)"
      },
      {
        "astId": 14374,
        "contract": "contracts/Marketplace.sol:Marketplace",
        "label": "_tokenIdsForSale",
        "offset": 0,
        "slot": "258",
        "type": "t_struct(UintSet)3333_storage"
      }
    ],
    "types": {
      "t_address": {
        "encoding": "inplace",
        "label": "address",
        "numberOfBytes": "20"
      },
      "t_address_payable": {
        "encoding": "inplace",
        "label": "address payable",
        "numberOfBytes": "20"
      },
      "t_array(t_bytes32)dyn_storage": {
        "base": "t_bytes32",
        "encoding": "dynamic_array",
        "label": "bytes32[]",
        "numberOfBytes": "32"
      },
      "t_array(t_uint256)49_storage": {
        "base": "t_uint256",
        "encoding": "inplace",
        "label": "uint256[49]",
        "numberOfBytes": "1568"
      },
      "t_array(t_uint256)50_storage": {
        "base": "t_uint256",
        "encoding": "inplace",
        "label": "uint256[50]",
        "numberOfBytes": "1600"
      },
      "t_bool": {
        "encoding": "inplace",
        "label": "bool",
        "numberOfBytes": "1"
      },
      "t_bytes32": {
        "encoding": "inplace",
        "label": "bytes32",
        "numberOfBytes": "32"
      },
      "t_contract(ISkillToken)13411": {
        "encoding": "inplace",
        "label": "contract ISkillToken",
        "numberOfBytes": "20"
      },
      "t_contract(ISnookState)13677": {
        "encoding": "inplace",
        "label": "contract ISnookState",
        "numberOfBytes": "20"
      },
      "t_contract(SnookToken)17466": {
        "encoding": "inplace",
        "label": "contract SnookToken",
        "numberOfBytes": "20"
      },
      "t_mapping(t_address,t_bool)": {
        "encoding": "mapping",
        "key": "t_address",
        "label": "mapping(address => bool)",
        "numberOfBytes": "32",
        "value": "t_bool"
      },
      "t_mapping(t_bytes32,t_struct(AddressSet)3206_storage)": {
        "encoding": "mapping",
        "key": "t_bytes32",
        "label": "mapping(bytes32 => struct EnumerableSetUpgradeable.AddressSet)",
        "numberOfBytes": "32",
        "value": "t_struct(AddressSet)3206_storage"
      },
      "t_mapping(t_bytes32,t_struct(RoleData)302_storage)": {
        "encoding": "mapping",
        "key": "t_bytes32",
        "label": "mapping(bytes32 => struct AccessControlUpgradeable.RoleData)",
        "numberOfBytes": "32",
        "value": "t_struct(RoleData)302_storage"
      },
      "t_mapping(t_bytes32,t_uint256)": {
        "encoding": "mapping",
        "key": "t_bytes32",
        "label": "mapping(bytes32 => uint256)",
        "numberOfBytes": "32",
        "value": "t_uint256"
      },
      "t_mapping(t_uint256,t_uint256)": {
        "encoding": "mapping",
        "key": "t_uint256",
        "label": "mapping(uint256 => uint256)",
        "numberOfBytes": "32",
        "value": "t_uint256"
      },
      "t_struct(AddressSet)3206_storage": {
        "encoding": "inplace",
        "label": "struct EnumerableSetUpgradeable.AddressSet",
        "members": [
          {
            "astId": 3205,
            "contract": "contracts/Marketplace.sol:Marketplace",
            "label": "_inner",
            "offset": 0,
            "slot": "0",
            "type": "t_struct(Set)2931_storage"
          }
        ],
        "numberOfBytes": "64"
      },
      "t_struct(RoleData)302_storage": {
        "encoding": "inplace",
        "label": "struct AccessControlUpgradeable.RoleData",
        "members": [
          {
            "astId": 299,
            "contract": "contracts/Marketplace.sol:Marketplace",
            "label": "members",
            "offset": 0,
            "slot": "0",
            "type": "t_mapping(t_address,t_bool)"
          },
          {
            "astId": 301,
            "contract": "contracts/Marketplace.sol:Marketplace",
            "label": "adminRole",
            "offset": 0,
            "slot": "1",
            "type": "t_bytes32"
          }
        ],
        "numberOfBytes": "64"
      },
      "t_struct(Set)2931_storage": {
        "encoding": "inplace",
        "label": "struct EnumerableSetUpgradeable.Set",
        "members": [
          {
            "astId": 2926,
            "contract": "contracts/Marketplace.sol:Marketplace",
            "label": "_values",
            "offset": 0,
            "slot": "0",
            "type": "t_array(t_bytes32)dyn_storage"
          },
          {
            "astId": 2930,
            "contract": "contracts/Marketplace.sol:Marketplace",
            "label": "_indexes",
            "offset": 0,
            "slot": "1",
            "type": "t_mapping(t_bytes32,t_uint256)"
          }
        ],
        "numberOfBytes": "64"
      },
      "t_struct(UintSet)3333_storage": {
        "encoding": "inplace",
        "label": "struct EnumerableSetUpgradeable.UintSet",
        "members": [
          {
            "astId": 3332,
            "contract": "contracts/Marketplace.sol:Marketplace",
            "label": "_inner",
            "offset": 0,
            "slot": "0",
            "type": "t_struct(Set)2931_storage"
          }
        ],
        "numberOfBytes": "64"
      },
      "t_uint256": {
        "encoding": "inplace",
        "label": "uint256",
        "numberOfBytes": "32"
      }
    }
  }
}