{
  "address": "0x7c5A0A3e4C0cdCF81f523468e52D1E12e9912b8B",
  "abi": [
    {
      "anonymous": false,
      "inputs": [
        {
          "indexed": false,
          "internalType": "address",
          "name": "beneficiary",
          "type": "address"
        },
        {
          "indexed": false,
          "internalType": "address",
          "name": "tokenTimelock",
          "type": "address"
        },
        {
          "indexed": false,
          "internalType": "uint256",
          "name": "depositAmount",
          "type": "uint256"
        },
        {
          "indexed": false,
          "internalType": "uint256",
          "name": "rewards",
          "type": "uint256"
        },
        {
          "indexed": false,
          "internalType": "uint256",
          "name": "rewardsToBurn",
          "type": "uint256"
        },
        {
          "indexed": false,
          "internalType": "uint256",
          "name": "rewardsToPay",
          "type": "uint256"
        }
      ],
      "name": "Deposit",
      "type": "event"
    },
    {
      "anonymous": false,
      "inputs": [
        {
          "indexed": false,
          "internalType": "address",
          "name": "account",
          "type": "address"
        }
      ],
      "name": "Paused",
      "type": "event"
    },
    {
      "anonymous": false,
      "inputs": [
        {
          "indexed": false,
          "internalType": "uint256",
          "name": "minDepositAmount",
          "type": "uint256"
        },
        {
          "indexed": false,
          "internalType": "uint256",
          "name": "maxDepositAmount",
          "type": "uint256"
        },
        {
          "indexed": false,
          "internalType": "uint256",
          "name": "stakingRewardsBalance",
          "type": "uint256"
        },
        {
          "indexed": false,
          "internalType": "uint256",
          "name": "currentTotalSupply",
          "type": "uint256"
        }
      ],
      "name": "PeriodStart",
      "type": "event"
    },
    {
      "anonymous": false,
      "inputs": [
        {
          "indexed": true,
          "internalType": "bytes32",
          "name": "role",
          "type": "bytes32"
        },
        {
          "indexed": true,
          "internalType": "bytes32",
          "name": "previousAdminRole",
          "type": "bytes32"
        },
        {
          "indexed": true,
          "internalType": "bytes32",
          "name": "newAdminRole",
          "type": "bytes32"
        }
      ],
      "name": "RoleAdminChanged",
      "type": "event"
    },
    {
      "anonymous": false,
      "inputs": [
        {
          "indexed": true,
          "internalType": "bytes32",
          "name": "role",
          "type": "bytes32"
        },
        {
          "indexed": true,
          "internalType": "address",
          "name": "account",
          "type": "address"
        },
        {
          "indexed": true,
          "internalType": "address",
          "name": "sender",
          "type": "address"
        }
      ],
      "name": "RoleGranted",
      "type": "event"
    },
    {
      "anonymous": false,
      "inputs": [
        {
          "indexed": true,
          "internalType": "bytes32",
          "name": "role",
          "type": "bytes32"
        },
        {
          "indexed": true,
          "internalType": "address",
          "name": "account",
          "type": "address"
        },
        {
          "indexed": true,
          "internalType": "address",
          "name": "sender",
          "type": "address"
        }
      ],
      "name": "RoleRevoked",
      "type": "event"
    },
    {
      "anonymous": false,
      "inputs": [
        {
          "indexed": false,
          "internalType": "address",
          "name": "account",
          "type": "address"
        }
      ],
      "name": "Unpaused",
      "type": "event"
    },
    {
      "inputs": [],
      "name": "DEFAULT_ADMIN_ROLE",
      "outputs": [
        {
          "internalType": "bytes32",
          "name": "",
          "type": "bytes32"
        }
      ],
      "stateMutability": "view",
      "type": "function"
    },
    {
      "inputs": [],
      "name": "PAUSER_ROLE",
      "outputs": [
        {
          "internalType": "bytes32",
          "name": "",
          "type": "bytes32"
        }
      ],
      "stateMutability": "view",
      "type": "function"
    },
    {
      "inputs": [],
      "name": "burnBalance",
      "outputs": [],
      "stateMutability": "nonpayable",
      "type": "function"
    },
    {
      "inputs": [],
      "name": "burnFromOldVesting",
      "outputs": [],
      "stateMutability": "nonpayable",
      "type": "function"
    },
    {
      "inputs": [
        {
          "internalType": "uint256",
          "name": "amount",
          "type": "uint256"
        },
        {
          "internalType": "uint256",
          "name": "periodInDays",
          "type": "uint256"
        }
      ],
      "name": "computeRewards",
      "outputs": [
        {
          "internalType": "uint256",
          "name": "rewards",
          "type": "uint256"
        },
        {
          "internalType": "uint256",
          "name": "rewardsToBurn",
          "type": "uint256"
        },
        {
          "internalType": "uint256",
          "name": "rewardsToPay",
          "type": "uint256"
        }
      ],
      "stateMutability": "view",
      "type": "function"
    },
    {
      "inputs": [
        {
          "internalType": "uint256",
          "name": "amount",
          "type": "uint256"
        },
        {
          "internalType": "uint256",
          "name": "periodInDays",
          "type": "uint256"
        }
      ],
      "name": "deposit",
      "outputs": [],
      "stateMutability": "nonpayable",
      "type": "function"
    },
    {
      "inputs": [],
      "name": "getBurningRateInPercents",
      "outputs": [
        {
          "internalType": "uint256",
          "name": "",
          "type": "uint256"
        }
      ],
      "stateMutability": "view",
      "type": "function"
    },
    {
      "inputs": [],
      "name": "getDepositLimits",
      "outputs": [
        {
          "internalType": "uint256",
          "name": "",
          "type": "uint256"
        },
        {
          "internalType": "uint256",
          "name": "",
          "type": "uint256"
        }
      ],
      "stateMutability": "view",
      "type": "function"
    },
    {
      "inputs": [
        {
          "internalType": "address",
          "name": "beneficiary",
          "type": "address"
        }
      ],
      "name": "getDepositRecords",
      "outputs": [
        {
          "components": [
            {
              "internalType": "contract TokenTimelock",
              "name": "tokenTimelock",
              "type": "address"
            },
            {
              "internalType": "uint256",
              "name": "depositAmount",
              "type": "uint256"
            },
            {
              "internalType": "uint256",
              "name": "rewards",
              "type": "uint256"
            },
            {
              "internalType": "uint256",
              "name": "rewardsToBurn",
              "type": "uint256"
            },
            {
              "internalType": "uint256",
              "name": "rewardsToPay",
              "type": "uint256"
            }
          ],
          "internalType": "struct IStakingRewards.DepositRecord[]",
          "name": "",
          "type": "tuple[]"
        }
      ],
      "stateMutability": "view",
      "type": "function"
    },
    {
      "inputs": [],
      "name": "getInitialSNKSupplyInWei",
      "outputs": [
        {
          "internalType": "uint256",
          "name": "",
          "type": "uint256"
        }
      ],
      "stateMutability": "view",
      "type": "function"
    },
    {
      "inputs": [],
      "name": "getInterestRatePerDayInCentipercents",
      "outputs": [
        {
          "internalType": "uint256",
          "name": "",
          "type": "uint256"
        }
      ],
      "stateMutability": "view",
      "type": "function"
    },
    {
      "inputs": [],
      "name": "getMaxStakingPeriodInDays",
      "outputs": [
        {
          "internalType": "uint256",
          "name": "",
          "type": "uint256"
        }
      ],
      "stateMutability": "view",
      "type": "function"
    },
    {
      "inputs": [],
      "name": "getMinNumberOfStakers",
      "outputs": [
        {
          "internalType": "uint256",
          "name": "",
          "type": "uint256"
        }
      ],
      "stateMutability": "view",
      "type": "function"
    },
    {
      "inputs": [],
      "name": "getMinStakingPeriodInDays",
      "outputs": [
        {
          "internalType": "uint256",
          "name": "",
          "type": "uint256"
        }
      ],
      "stateMutability": "view",
      "type": "function"
    },
    {
      "inputs": [],
      "name": "getMinStakingValueCoef",
      "outputs": [
        {
          "internalType": "uint256",
          "name": "",
          "type": "uint256"
        }
      ],
      "stateMutability": "view",
      "type": "function"
    },
    {
      "inputs": [],
      "name": "getPrevInitTime",
      "outputs": [
        {
          "internalType": "uint256",
          "name": "",
          "type": "uint256"
        }
      ],
      "stateMutability": "view",
      "type": "function"
    },
    {
      "inputs": [
        {
          "internalType": "bytes32",
          "name": "role",
          "type": "bytes32"
        }
      ],
      "name": "getRoleAdmin",
      "outputs": [
        {
          "internalType": "bytes32",
          "name": "",
          "type": "bytes32"
        }
      ],
      "stateMutability": "view",
      "type": "function"
    },
    {
      "inputs": [
        {
          "internalType": "bytes32",
          "name": "role",
          "type": "bytes32"
        },
        {
          "internalType": "uint256",
          "name": "index",
          "type": "uint256"
        }
      ],
      "name": "getRoleMember",
      "outputs": [
        {
          "internalType": "address",
          "name": "",
          "type": "address"
        }
      ],
      "stateMutability": "view",
      "type": "function"
    },
    {
      "inputs": [
        {
          "internalType": "bytes32",
          "name": "role",
          "type": "bytes32"
        }
      ],
      "name": "getRoleMemberCount",
      "outputs": [
        {
          "internalType": "uint256",
          "name": "",
          "type": "uint256"
        }
      ],
      "stateMutability": "view",
      "type": "function"
    },
    {
      "inputs": [],
      "name": "getSNKAddress",
      "outputs": [
        {
          "internalType": "address",
          "name": "",
          "type": "address"
        }
      ],
      "stateMutability": "view",
      "type": "function"
    },
    {
      "inputs": [],
      "name": "getSecondsInDay",
      "outputs": [
        {
          "internalType": "uint256",
          "name": "",
          "type": "uint256"
        }
      ],
      "stateMutability": "view",
      "type": "function"
    },
    {
      "inputs": [],
      "name": "getTreasuryAddress",
      "outputs": [
        {
          "internalType": "address",
          "name": "",
          "type": "address"
        }
      ],
      "stateMutability": "view",
      "type": "function"
    },
    {
      "inputs": [
        {
          "internalType": "bytes32",
          "name": "role",
          "type": "bytes32"
        },
        {
          "internalType": "address",
          "name": "account",
          "type": "address"
        }
      ],
      "name": "grantRole",
      "outputs": [],
      "stateMutability": "nonpayable",
      "type": "function"
    },
    {
      "inputs": [
        {
          "internalType": "bytes32",
          "name": "role",
          "type": "bytes32"
        },
        {
          "internalType": "address",
          "name": "account",
          "type": "address"
        }
      ],
      "name": "hasRole",
      "outputs": [
        {
          "internalType": "bool",
          "name": "",
          "type": "bool"
        }
      ],
      "stateMutability": "view",
      "type": "function"
    },
    {
      "inputs": [
        {
          "internalType": "uint256",
          "name": "maxStakingPeriodInDays",
          "type": "uint256"
        }
      ],
      "name": "init",
      "outputs": [],
      "stateMutability": "nonpayable",
      "type": "function"
    },
    {
      "inputs": [
        {
          "internalType": "address",
          "name": "skill",
          "type": "address"
        },
        {
          "internalType": "address",
          "name": "treasury",
          "type": "address"
        },
        {
          "internalType": "uint256",
          "name": "minStakingPeriodInDays",
          "type": "uint256"
        },
        {
          "internalType": "uint256",
          "name": "minNumberOfStakers",
          "type": "uint256"
        },
        {
          "internalType": "uint256",
          "name": "interestRatePerDayInCentipercents",
          "type": "uint256"
        },
        {
          "internalType": "uint256",
          "name": "initialSkillSupplyInWei",
          "type": "uint256"
        },
        {
          "internalType": "uint256",
          "name": "minStakingValueCoef",
          "type": "uint256"
        },
        {
          "internalType": "uint256",
          "name": "burningRateInPercents",
          "type": "uint256"
        },
        {
          "internalType": "uint256",
          "name": "secondsInDay",
          "type": "uint256"
        },
        {
          "internalType": "address",
          "name": "adminAccount",
          "type": "address"
        }
      ],
      "name": "initialize",
      "outputs": [],
      "stateMutability": "nonpayable",
      "type": "function"
    },
    {
      "inputs": [
        {
          "internalType": "address",
          "name": "ecosystem",
          "type": "address"
        }
      ],
      "name": "initialize2",
      "outputs": [],
      "stateMutability": "nonpayable",
      "type": "function"
    },
    {
      "inputs": [],
      "name": "pause",
      "outputs": [],
      "stateMutability": "nonpayable",
      "type": "function"
    },
    {
      "inputs": [],
      "name": "paused",
      "outputs": [
        {
          "internalType": "bool",
          "name": "",
          "type": "bool"
        }
      ],
      "stateMutability": "view",
      "type": "function"
    },
    {
      "inputs": [
        {
          "internalType": "bytes32",
          "name": "role",
          "type": "bytes32"
        },
        {
          "internalType": "address",
          "name": "account",
          "type": "address"
        }
      ],
      "name": "renounceRole",
      "outputs": [],
      "stateMutability": "nonpayable",
      "type": "function"
    },
    {
      "inputs": [
        {
          "internalType": "bytes32",
          "name": "role",
          "type": "bytes32"
        },
        {
          "internalType": "address",
          "name": "account",
          "type": "address"
        }
      ],
      "name": "revokeRole",
      "outputs": [],
      "stateMutability": "nonpayable",
      "type": "function"
    },
    {
      "inputs": [
        {
          "internalType": "bytes4",
          "name": "interfaceId",
          "type": "bytes4"
        }
      ],
      "name": "supportsInterface",
      "outputs": [
        {
          "internalType": "bool",
          "name": "",
          "type": "bool"
        }
      ],
      "stateMutability": "view",
      "type": "function"
    },
    {
      "inputs": [],
      "name": "unpause",
      "outputs": [],
      "stateMutability": "nonpayable",
      "type": "function"
    }
  ],
  "transactionHash": "0x5e89a15974eb71325230495d00fdc550f8c081a8a2fb2a0a532d70ec204e72b1",
  "args": [],
  "solcInputHash": "44bc5b6e9efb9005c0cdf786881a4dc8",
  "bytecode": "0x608060405234801561001057600080fd5b50612154806100206000396000f3fe60806040523480156200001157600080fd5b50600436106200022b5760003560e01c80635ad1d7f91162000135578063b7b0422d11620000bd578063d59424b01162000087578063d59424b01462000459578063e00246041462000463578063e2bbb158146200046d578063e3f838981462000484578063e63ab1e9146200048e576200022b565b8063b7b0422d146200040a578063bc68fad91462000421578063ca15c873146200042b578063d547741f1462000442576200022b565b80639010d07c11620000ff5780639010d07c14620003ac57806391d1485414620003c3578063a217fddf14620003da578063b3a523c114620003e4576200022b565b80635ad1d7f914620003675780635c975abb146200037e5780637f414cf814620003885780638456cb5914620003a2576200022b565b806329ef339911620001b95780633f4ba83a11620001835780633f4ba83a146200033f57806340c032b21462000349578063457df5e414620003535780634fefa601146200035d576200022b565b806329ef339914620002fd5780632f2ff15d146200030757806336568abe146200031e5780633cabbf721462000335576200022b565b80630b751db511620001fb5780630b751db514620002aa5780630c49898014620002c3578063248a9ca314620002cf57806326dcff1514620002e6576200022b565b8062081e37146200023057806301ffc9a7146200025257806304515c4414620002785780630ae32c5714620002a0575b600080fd5b6200023a62000498565b60405162000249919062001cd6565b60405180910390f35b620002696200026336600462001b69565b6200049e565b60405162000249919062001ccb565b6200028f6200028936600462001b47565b620004ce565b604051620002499392919062001ff2565b6200023a620004ec565b620002b4620004f2565b60405162000249919062001c25565b620002cd62000502565b005b6200023a620002e036600462001b00565b6200069e565b620002cd620002f736600462001a32565b620006b3565b6200023a62000808565b620002cd6200031836600462001b19565b6200080f565b620002cd6200032f36600462001b19565b6200083a565b6200023a62000860565b620002cd62000867565b6200023a620008bc565b6200023a620008c3565b6200023a620008c9565b620002cd6200037836600462001a4f565b620008cf565b6200026962000a32565b6200039262000a3b565b6040516200024992919062001fe4565b620002cd62000a47565b620002b4620003bd36600462001b47565b62000a9a565b62000269620003d436600462001b19565b62000abd565b6200023a62000ae8565b620003fb620003f536600462001a32565b62000aed565b60405162000249919062001c52565b620002cd6200041b36600462001b00565b62000b9a565b620002cd62000de9565b6200023a6200043c36600462001b00565b62000f0f565b620002cd6200045336600462001b19565b62000f28565b6200023a62000f34565b620002b462000f3b565b620002cd6200047e36600462001b47565b62000f4b565b6200023a62000f8f565b6200023a62000f95565b60fe5490565b60006001600160e01b03198216635a05180f60e01b1480620004c65750620004c68262000fa8565b90505b919050565b6000806000620004df858562000fd0565b9250925092509250925092565b60fc5490565b610106546001600160a01b031690565b600080516020620020ff833981519152620005278162000521620010dd565b620010e1565b6200053162000a32565b156200055a5760405162461bcd60e51b8152600401620005519062001e51565b60405180910390fd5b6101095460ff1615620005815760405162461bcd60e51b8152600401620005519062001e27565b610106546040516370a0823160e01b81527373f45fa6f81535596600b7c2c93f4b5a71cb55e8916000916001600160a01b03909116906370a0823190620005cd90859060040162001c25565b60206040518083038186803b158015620005e657600080fd5b505afa158015620005fb573d6000803e3d6000fd5b505050506040513d601f19601f8201168201806040525081019062000621919062001b93565b61010654604051632770a7eb60e21b81529192506001600160a01b031690639dc29fac9062000657908590859060040162001c39565b600060405180830381600087803b1580156200067257600080fd5b505af115801562000687573d6000803e3d6000fd5b5050610109805460ff191660011790555050505050565b60009081526065602052604090206001015490565b61010954610100900460ff1615620006df5760405162461bcd60e51b8152600401620005519062001f19565b610106546040516370a0823160e01b81526000916001600160a01b0316906370a08231906200071390309060040162001c25565b60206040518083038186803b1580156200072c57600080fd5b505afa15801562000741573d6000803e3d6000fd5b505050506040513d601f19601f8201168201806040525081019062000767919062001b93565b6101065460405163a9059cbb60e01b81529192506001600160a01b03169063a9059cbb906200079d908590859060040162001c39565b602060405180830381600087803b158015620007b857600080fd5b505af1158015620007cd573d6000803e3d6000fd5b505050506040513d601f19601f82011682018060405250810190620007f3919062001ade565b5050610109805461ff00191661010017905550565b6101005490565b6200081b828262001154565b60008281526097602052604090206200083590826200117a565b505050565b62000846828262001191565b6000828152609760205260409020620008359082620011da565b6101055490565b600080516020620020ff833981519152620008868162000521620010dd565b6200089062000a32565b620008af5760405162461bcd60e51b8152600401620005519062001d8b565b620008b9620011f1565b50565b6101045490565b60fb5490565b60ff5490565b600054610100900460ff1680620008e9575060005460ff16155b620009085760405162461bcd60e51b8152600401620005519062001e7b565b600054610100900460ff1615801562000934576000805460ff1961ff0019909116610100171660011790555b600087118015620009455750600088115b8015620009525750600086115b80156200095f5750600085115b6200097e5760405162461bcd60e51b8152600401620005519062001f4e565b6200098862001268565b620009926200130a565b61010680546001600160a01b03808e166001600160a01b0319928316179092556101078054928d169290911691909117905560fe89905561010088905560ff87905560fc86905561010185905561010584905560fb839055620009f760008362001383565b62000a12600080516020620020ff8339815191528362001383565b801562000a25576000805461ff00191690555b5050505050505050505050565b60c95460ff1690565b61010354610102549091565b600080516020620020ff83398151915262000a668162000521620010dd565b62000a7062000a32565b1562000a905760405162461bcd60e51b8152600401620005519062001e51565b620008b96200138f565b600082815260976020526040812062000ab49083620013f1565b90505b92915050565b60009182526065602090815260408084206001600160a01b0393909316845291905290205460ff1690565b600081565b6001600160a01b038116600090815261010860209081526040808320805482518185028101850190935280835260609492939192909184015b8282101562000b8f5760008481526020908190206040805160a0810182526005860290920180546001600160a01b031683526001808201548486015260028201549284019290925260038101546060840152600401546080830152908352909201910162000b26565b505050509050919050565b610107546001600160a01b0316331462000bc85760405162461bcd60e51b8152600401620005519062001db9565b62000bd262000a32565b1562000bf25760405162461bcd60e51b8152600401620005519062001e51565b426101045560fd819055610106546040516370a0823160e01b81526000916001600160a01b0316906370a082319062000c3090309060040162001c25565b60206040518083038186803b15801562000c4957600080fd5b505afa15801562000c5e573d6000803e3d6000fd5b505050506040513d601f19601f8201168201806040525081019062000c84919062001b93565b9050600061010660009054906101000a90046001600160a01b03166001600160a01b03166318160ddd6040518163ffffffff1660e01b815260040160206040518083038186803b15801562000cd857600080fd5b505afa15801562000ced573d6000803e3d6000fd5b505050506040513d601f19601f8201168201806040525081019062000d13919062001b93565b9050600060fc54905083826101005460ff54612710878662000d3691906200205f565b62000d4291906200205f565b62000d4e91906200203e565b62000d5a91906200203e565b62000d6691906200203e565b62000d7291906200203e565b61010281905583101562000d87576101028390555b610101546101025462000d9b91906200203e565b610103819055610102546040517f1794702301983eba418ba14205a7e8c6d7c317e504d8bef769549798e55988669262000ddb9290918790879062002008565b60405180910390a150505050565b6101095460ff61010090910416151560011462000e1a5760405162461bcd60e51b8152600401620005519062001ec9565b610106546040516370a0823160e01b81526000916001600160a01b0316906370a082319062000e4e90309060040162001c25565b60206040518083038186803b15801562000e6757600080fd5b505afa15801562000e7c573d6000803e3d6000fd5b505050506040513d601f19601f8201168201806040525081019062000ea2919062001b93565b61010654604051632770a7eb60e21b81529192506001600160a01b031690639dc29fac9062000ed8903090859060040162001c39565b600060405180830381600087803b15801562000ef357600080fd5b505af115801562000f08573d6000803e3d6000fd5b5050505050565b6000818152609760205260408120620004c690620013ff565b6200084682826200140c565b6101015490565b610107546001600160a01b031690565b62000f5562000a32565b1562000f755760405162461bcd60e51b8152600401620005519062001e51565b60405162461bcd60e51b8152600401620005519062001df0565b60fd5490565b600080516020620020ff83398151915281565b60006001600160e01b03198216637965db0b60e01b1480620004c65750620004c68262001432565b600080600060fc5461271060ff5461010660009054906101000a90046001600160a01b03166001600160a01b03166318160ddd6040518163ffffffff1660e01b815260040160206040518083038186803b1580156200102e57600080fd5b505afa15801562001043573d6000803e3d6000fd5b505050506040513d601f19601f8201168201806040525081019062001069919062001b93565b62001075888a6200205f565b6200108191906200205f565b6200108d91906200205f565b6200109991906200203e565b620010a591906200203e565b925060646101055484620010ba91906200205f565b620010c691906200203e565b9150620010d4828462002081565b90509250925092565b3390565b620010ed828262000abd565b620011505762001108816001600160a01b031660146200144b565b620011158360206200144b565b6040516020016200112892919062001bac565b60408051601f198184030181529082905262461bcd60e51b8252620005519160040162001cdf565b5050565b6200115f826200069e565b6200116e8162000521620010dd565b62000835838362001612565b600062000ab4836001600160a01b0384166200169e565b6200119b620010dd565b6001600160a01b0316816001600160a01b031614620011ce5760405162461bcd60e51b8152600401620005519062001f95565b620011508282620016ed565b600062000ab4836001600160a01b03841662001777565b620011fb62000a32565b6200121a5760405162461bcd60e51b8152600401620005519062001d8b565b60c9805460ff191690557f5db9ee0a495bf2e6ff9c91a7834c1ba4fdd244a5e8aa4e537bd38aeae4b073aa6200124f620010dd565b6040516200125e919062001c25565b60405180910390a1565b600054610100900460ff168062001282575060005460ff16155b620012a15760405162461bcd60e51b8152600401620005519062001e7b565b600054610100900460ff16158015620012cd576000805460ff1961ff0019909116610100171660011790555b620012d762001898565b620012e162001898565b620012eb62001898565b620012f562001898565b8015620008b9576000805461ff001916905550565b600054610100900460ff168062001324575060005460ff16155b620013435760405162461bcd60e51b8152600401620005519062001e7b565b600054610100900460ff161580156200136f576000805460ff1961ff0019909116610100171660011790555b6200137962001898565b620012f562001911565b6200081b828262001995565b6200139962000a32565b15620013b95760405162461bcd60e51b8152600401620005519062001e51565b60c9805460ff191660011790557f62e78cea01bee320cd4e420270b5ea74000d11b0c9f74754ebdbfc544b05a2586200124f620010dd565b600062000ab48383620019a1565b6000620004c682620019fe565b62001417826200069e565b620014268162000521620010dd565b620008358383620016ed565b6001600160e01b031981166301ffc9a760e01b14919050565b606060006200145c8360026200205f565b6200146990600262002023565b67ffffffffffffffff8111156200149057634e487b7160e01b600052604160045260246000fd5b6040519080825280601f01601f191660200182016040528015620014bb576020820181803683370190505b509050600360fc1b81600081518110620014e557634e487b7160e01b600052603260045260246000fd5b60200101906001600160f81b031916908160001a905350600f60fb1b816001815181106200152357634e487b7160e01b600052603260045260246000fd5b60200101906001600160f81b031916908160001a9053506000620015498460026200205f565b6200155690600162002023565b90505b6001811115620015f0576f181899199a1a9b1b9c1cb0b131b232b360811b85600f16601081106200159a57634e487b7160e01b600052603260045260246000fd5b1a60f81b828281518110620015bf57634e487b7160e01b600052603260045260246000fd5b60200101906001600160f81b031916908160001a90535060049490941c93620015e881620020ce565b905062001559565b50831562000ab45760405162461bcd60e51b8152600401620005519062001d56565b6200161e828262000abd565b620011505760008281526065602090815260408083206001600160a01b03851684529091529020805460ff191660011790556200165a620010dd565b6001600160a01b0316816001600160a01b0316837f2f8788117e7eff1d82e926ec794901d17c78024a50270940304540a733656f0d60405160405180910390a45050565b6000620016ac838362001a02565b620016e45750815460018181018455600084815260208082209093018490558454848252828601909352604090209190915562000ab7565b50600062000ab7565b620016f9828262000abd565b15620011505760008281526065602090815260408083206001600160a01b03851684529091529020805460ff1916905562001733620010dd565b6001600160a01b0316816001600160a01b0316837ff6391f5c32d9c69d2a47ea670b442974b53935d1edc7fd64eb21e047a839171b60405160405180910390a45050565b600081815260018301602052604081205480156200188d5760006200179e60018362002081565b8554909150600090620017b49060019062002081565b90506000866000018281548110620017dc57634e487b7160e01b600052603260045260246000fd5b90600052602060002001549050808760000184815481106200180e57634e487b7160e01b600052603260045260246000fd5b6000918252602080832090910192909255828152600189019091526040902084905586548790806200185057634e487b7160e01b600052603160045260246000fd5b6001900381819060005260206000200160009055905586600101600087815260200190815260200160002060009055600194505050505062000ab7565b600091505062000ab7565b600054610100900460ff1680620018b2575060005460ff16155b620018d15760405162461bcd60e51b8152600401620005519062001e7b565b600054610100900460ff16158015620012f5576000805460ff1961ff0019909116610100171660011790558015620008b9576000805461ff001916905550565b600054610100900460ff16806200192b575060005460ff16155b6200194a5760405162461bcd60e51b8152600401620005519062001e7b565b600054610100900460ff1615801562001976576000805460ff1961ff0019909116610100171660011790555b60c9805460ff191690558015620008b9576000805461ff001916905550565b62001150828262001612565b81546000908210620019c75760405162461bcd60e51b8152600401620005519062001d14565b826000018281548110620019eb57634e487b7160e01b600052603260045260246000fd5b9060005260206000200154905092915050565b5490565b60009081526001919091016020526040902054151590565b80356001600160a01b0381168114620004c957600080fd5b60006020828403121562001a44578081fd5b62000ab48262001a1a565b6000806000806000806000806000806101408b8d03121562001a6f578586fd5b62001a7a8b62001a1a565b995062001a8a60208c0162001a1a565b985060408b0135975060608b0135965060808b0135955060a08b0135945060c08b0135935060e08b013592506101008b0135915062001acd6101208c0162001a1a565b90509295989b9194979a5092959850565b60006020828403121562001af0578081fd5b8151801515811462000ab4578182fd5b60006020828403121562001b12578081fd5b5035919050565b6000806040838503121562001b2c578182fd5b8235915062001b3e6020840162001a1a565b90509250929050565b6000806040838503121562001b5a578182fd5b50508035926020909101359150565b60006020828403121562001b7b578081fd5b81356001600160e01b03198116811462000ab4578182fd5b60006020828403121562001ba5578081fd5b5051919050565b60007f416363657373436f6e74726f6c3a206163636f756e74200000000000000000008252835162001be68160178501602088016200209b565b7001034b99036b4b9b9b4b733903937b6329607d1b601791840191820152835162001c198160288401602088016200209b565b01602801949350505050565b6001600160a01b0391909116815260200190565b6001600160a01b03929092168252602082015260400190565b602080825282518282018190526000919060409081850190868401855b8281101562001cbe57815180516001600160a01b0316855286810151878601528581015186860152606080820151908601526080908101519085015260a0909301929085019060010162001c6f565b5091979650505050505050565b901515815260200190565b90815260200190565b600060208252825180602084015262001d008160408501602087016200209b565b601f01601f19169190910160400192915050565b60208082526022908201527f456e756d657261626c655365743a20696e646578206f7574206f6620626f756e604082015261647360f01b606082015260800190565b6020808252818101527f537472696e67733a20686578206c656e67746820696e73756666696369656e74604082015260600190565b60208082526014908201527314185d5cd8589b194e881b9bdd081c185d5cd95960621b604082015260600190565b6020808252601c908201527f5374616b696e67526577617264733a204e6f7420747265617375727900000000604082015260600190565b60208082526018908201527f4e6f206d6f7265206465706f7369747320616c6c6f7765640000000000000000604082015260600190565b60208082526010908201526f105b1c9958591e48195e1958dd5d195960821b604082015260600190565b60208082526010908201526f14185d5cd8589b194e881c185d5cd95960821b604082015260600190565b6020808252602e908201527f496e697469616c697a61626c653a20636f6e747261637420697320616c72656160408201526d191e481a5b9a5d1a585b1a5e995960921b606082015260800190565b60208082526030908201527f5374616b696e67526577617264733a20726571756972657320696e697469616c60408201526f34bd329914149032bc32b1baba34b7b760811b606082015260800190565b6020808252818101527f5374616b696e67526577617264733a20616c7265616479206578656375746564604082015260600190565b60208082526027908201527f5374616b696e67526577617264733a205a65726f2076616c756573206e6f7420604082015266185b1b1bddd95960ca1b606082015260800190565b6020808252602f908201527f416363657373436f6e74726f6c3a2063616e206f6e6c792072656e6f756e636560408201526e103937b632b9903337b91039b2b63360891b606082015260800190565b918252602082015260400190565b9283526020830191909152604082015260600190565b93845260208401929092526040830152606082015260800190565b60008219821115620020395762002039620020e8565b500190565b6000826200205a57634e487b7160e01b81526012600452602481fd5b500490565b60008160001904831182151516156200207c576200207c620020e8565b500290565b600082821015620020965762002096620020e8565b500390565b60005b83811015620020b85781810151838201526020016200209e565b83811115620020c8576000848401525b50505050565b600081620020e057620020e0620020e8565b506000190190565b634e487b7160e01b600052601160045260246000fdfe65d7a28e3265b37a6474929f336521b332c1681b933f6cb9f3376673440d862aa2646970667358221220645b1adab5f022c0c9e6dad692f9be151a8f58dfac71ad3c3bd82a720fc4d0b364736f6c63430008000033",
  "devdoc": {
    "kind": "dev",
    "methods": {
      "getRoleAdmin(bytes32)": {
        "details": "Returns the admin role that controls `role`. See {grantRole} and {revokeRole}. To change a role's admin, use {_setRoleAdmin}."
      },
      "getRoleMember(bytes32,uint256)": {
        "details": "Returns one of the accounts that have `role`. `index` must be a value between 0 and {getRoleMemberCount}, non-inclusive. Role bearers are not sorted in any particular way, and their ordering may change at any point. WARNING: When using {getRoleMember} and {getRoleMemberCount}, make sure you perform all queries on the same block. See the following https://forum.openzeppelin.com/t/iterating-over-elements-on-enumerableset-in-openzeppelin-contracts/2296[forum post] for more information."
      },
      "getRoleMemberCount(bytes32)": {
        "details": "Returns the number of accounts that have `role`. Can be used together with {getRoleMember} to enumerate all bearers of a role."
      },
      "grantRole(bytes32,address)": {
        "details": "Overload {grantRole} to track enumerable memberships"
      },
      "hasRole(bytes32,address)": {
        "details": "Returns `true` if `account` has been granted `role`."
      },
      "paused()": {
        "details": "Returns true if the contract is paused, and false otherwise."
      },
      "renounceRole(bytes32,address)": {
        "details": "Overload {renounceRole} to track enumerable memberships"
      },
      "revokeRole(bytes32,address)": {
        "details": "Overload {revokeRole} to track enumerable memberships"
      },
      "supportsInterface(bytes4)": {
        "details": "See {IERC165-supportsInterface}."
      }
    },
    "version": 1
  },
  "userdoc": {
    "kind": "user",
    "methods": {},
    "version": 1
  },
  "storageLayout": {
    "storage": [
      {
        "astId": 753,
        "contract": "contracts/StakingRewards.sol:StakingRewards",
        "label": "_initialized",
        "offset": 0,
        "slot": "0",
        "type": "t_bool"
      },
      {
        "astId": 756,
        "contract": "contracts/StakingRewards.sol:StakingRewards",
        "label": "_initializing",
        "offset": 1,
        "slot": "0",
        "type": "t_bool"
      },
      {
        "astId": 2658,
        "contract": "contracts/StakingRewards.sol:StakingRewards",
        "label": "__gap",
        "offset": 0,
        "slot": "1",
        "type": "t_array(t_uint256)50_storage"
      },
      {
        "astId": 2907,
        "contract": "contracts/StakingRewards.sol:StakingRewards",
        "label": "__gap",
        "offset": 0,
        "slot": "51",
        "type": "t_array(t_uint256)50_storage"
      },
      {
        "astId": 307,
        "contract": "contracts/StakingRewards.sol:StakingRewards",
        "label": "_roles",
        "offset": 0,
        "slot": "101",
        "type": "t_mapping(t_bytes32,t_struct(RoleData)302_storage)"
      },
      {
        "astId": 615,
        "contract": "contracts/StakingRewards.sol:StakingRewards",
        "label": "__gap",
        "offset": 0,
        "slot": "102",
        "type": "t_array(t_uint256)49_storage"
      },
      {
        "astId": 62,
        "contract": "contracts/StakingRewards.sol:StakingRewards",
        "label": "_roleMembers",
        "offset": 0,
        "slot": "151",
        "type": "t_mapping(t_bytes32,t_struct(AddressSet)3206_storage)"
      },
      {
        "astId": 219,
        "contract": "contracts/StakingRewards.sol:StakingRewards",
        "label": "__gap",
        "offset": 0,
        "slot": "152",
        "type": "t_array(t_uint256)49_storage"
      },
      {
        "astId": 814,
        "contract": "contracts/StakingRewards.sol:StakingRewards",
        "label": "_paused",
        "offset": 0,
        "slot": "201",
        "type": "t_bool"
      },
      {
        "astId": 905,
        "contract": "contracts/StakingRewards.sol:StakingRewards",
        "label": "__gap",
        "offset": 0,
        "slot": "202",
        "type": "t_array(t_uint256)49_storage"
      },
      {
        "astId": 17485,
        "contract": "contracts/StakingRewards.sol:StakingRewards",
        "label": "_secondsInDay",
        "offset": 0,
        "slot": "251",
        "type": "t_uint256"
      },
      {
        "astId": 17487,
        "contract": "contracts/StakingRewards.sol:StakingRewards",
        "label": "_initialSkillSupplyInWei",
        "offset": 0,
        "slot": "252",
        "type": "t_uint256"
      },
      {
        "astId": 17489,
        "contract": "contracts/StakingRewards.sol:StakingRewards",
        "label": "_maxStakingPeriodInDays",
        "offset": 0,
        "slot": "253",
        "type": "t_uint256"
      },
      {
        "astId": 17491,
        "contract": "contracts/StakingRewards.sol:StakingRewards",
        "label": "_minStakingPeriodInDays",
        "offset": 0,
        "slot": "254",
        "type": "t_uint256"
      },
      {
        "astId": 17500,
        "contract": "contracts/StakingRewards.sol:StakingRewards",
        "label": "_interestRatePerDayInCentipercents",
        "offset": 0,
        "slot": "255",
        "type": "t_uint256"
      },
      {
        "astId": 17502,
        "contract": "contracts/StakingRewards.sol:StakingRewards",
        "label": "_minNumberOfStakers",
        "offset": 0,
        "slot": "256",
        "type": "t_uint256"
      },
      {
        "astId": 17504,
        "contract": "contracts/StakingRewards.sol:StakingRewards",
        "label": "_minStakingValueCoef",
        "offset": 0,
        "slot": "257",
        "type": "t_uint256"
      },
      {
        "astId": 17506,
        "contract": "contracts/StakingRewards.sol:StakingRewards",
        "label": "_cmax",
        "offset": 0,
        "slot": "258",
        "type": "t_uint256"
      },
      {
        "astId": 17508,
        "contract": "contracts/StakingRewards.sol:StakingRewards",
        "label": "_cmin",
        "offset": 0,
        "slot": "259",
        "type": "t_uint256"
      },
      {
        "astId": 17510,
        "contract": "contracts/StakingRewards.sol:StakingRewards",
        "label": "_prevInitTime",
        "offset": 0,
        "slot": "260",
        "type": "t_uint256"
      },
      {
        "astId": 17512,
        "contract": "contracts/StakingRewards.sol:StakingRewards",
        "label": "_burningRateInPercents",
        "offset": 0,
        "slot": "261",
        "type": "t_uint256"
      },
      {
        "astId": 17515,
        "contract": "contracts/StakingRewards.sol:StakingRewards",
        "label": "_skill",
        "offset": 0,
        "slot": "262",
        "type": "t_contract(ISkillToken)13411"
      },
      {
        "astId": 17517,
        "contract": "contracts/StakingRewards.sol:StakingRewards",
        "label": "_treasury",
        "offset": 0,
        "slot": "263",
        "type": "t_address"
      },
      {
        "astId": 17523,
        "contract": "contracts/StakingRewards.sol:StakingRewards",
        "label": "_beneficiaryDepositRecords",
        "offset": 0,
        "slot": "264",
        "type": "t_mapping(t_address,t_array(t_struct(DepositRecord)13716_storage)dyn_storage)"
      },
      {
        "astId": 17525,
        "contract": "contracts/StakingRewards.sol:StakingRewards",
        "label": "_burnExecuted",
        "offset": 0,
        "slot": "265",
        "type": "t_bool"
      },
      {
        "astId": 17527,
        "contract": "contracts/StakingRewards.sol:StakingRewards",
        "label": "_isInitialized2",
        "offset": 1,
        "slot": "265",
        "type": "t_bool"
      }
    ],
    "types": {
      "t_address": {
        "encoding": "inplace",
        "label": "address",
        "numberOfBytes": "20"
      },
      "t_array(t_bytes32)dyn_storage": {
        "base": "t_bytes32",
        "encoding": "dynamic_array",
        "label": "bytes32[]",
        "numberOfBytes": "32"
      },
      "t_array(t_struct(DepositRecord)13716_storage)dyn_storage": {
        "base": "t_struct(DepositRecord)13716_storage",
        "encoding": "dynamic_array",
        "label": "struct IStakingRewards.DepositRecord[]",
        "numberOfBytes": "32"
      },
      "t_array(t_uint256)49_storage": {
        "base": "t_uint256",
        "encoding": "inplace",
        "label": "uint256[49]",
        "numberOfBytes": "1568"
      },
      "t_array(t_uint256)50_storage": {
        "base": "t_uint256",
        "encoding": "inplace",
        "label": "uint256[50]",
        "numberOfBytes": "1600"
      },
      "t_bool": {
        "encoding": "inplace",
        "label": "bool",
        "numberOfBytes": "1"
      },
      "t_bytes32": {
        "encoding": "inplace",
        "label": "bytes32",
        "numberOfBytes": "32"
      },
      "t_contract(ISkillToken)13411": {
        "encoding": "inplace",
        "label": "contract ISkillToken",
        "numberOfBytes": "20"
      },
      "t_contract(TokenTimelock)4382": {
        "encoding": "inplace",
        "label": "contract TokenTimelock",
        "numberOfBytes": "20"
      },
      "t_mapping(t_address,t_array(t_struct(DepositRecord)13716_storage)dyn_storage)": {
        "encoding": "mapping",
        "key": "t_address",
        "label": "mapping(address => struct IStakingRewards.DepositRecord[])",
        "numberOfBytes": "32",
        "value": "t_array(t_struct(DepositRecord)13716_storage)dyn_storage"
      },
      "t_mapping(t_address,t_bool)": {
        "encoding": "mapping",
        "key": "t_address",
        "label": "mapping(address => bool)",
        "numberOfBytes": "32",
        "value": "t_bool"
      },
      "t_mapping(t_bytes32,t_struct(AddressSet)3206_storage)": {
        "encoding": "mapping",
        "key": "t_bytes32",
        "label": "mapping(bytes32 => struct EnumerableSetUpgradeable.AddressSet)",
        "numberOfBytes": "32",
        "value": "t_struct(AddressSet)3206_storage"
      },
      "t_mapping(t_bytes32,t_struct(RoleData)302_storage)": {
        "encoding": "mapping",
        "key": "t_bytes32",
        "label": "mapping(bytes32 => struct AccessControlUpgradeable.RoleData)",
        "numberOfBytes": "32",
        "value": "t_struct(RoleData)302_storage"
      },
      "t_mapping(t_bytes32,t_uint256)": {
        "encoding": "mapping",
        "key": "t_bytes32",
        "label": "mapping(bytes32 => uint256)",
        "numberOfBytes": "32",
        "value": "t_uint256"
      },
      "t_struct(AddressSet)3206_storage": {
        "encoding": "inplace",
        "label": "struct EnumerableSetUpgradeable.AddressSet",
        "members": [
          {
            "astId": 3205,
            "contract": "contracts/StakingRewards.sol:StakingRewards",
            "label": "_inner",
            "offset": 0,
            "slot": "0",
            "type": "t_struct(Set)2931_storage"
          }
        ],
        "numberOfBytes": "64"
      },
      "t_struct(DepositRecord)13716_storage": {
        "encoding": "inplace",
        "label": "struct IStakingRewards.DepositRecord",
        "members": [
          {
            "astId": 13707,
            "contract": "contracts/StakingRewards.sol:StakingRewards",
            "label": "tokenTimelock",
            "offset": 0,
            "slot": "0",
            "type": "t_contract(TokenTimelock)4382"
          },
          {
            "astId": 13709,
            "contract": "contracts/StakingRewards.sol:StakingRewards",
            "label": "depositAmount",
            "offset": 0,
            "slot": "1",
            "type": "t_uint256"
          },
          {
            "astId": 13711,
            "contract": "contracts/StakingRewards.sol:StakingRewards",
            "label": "rewards",
            "offset": 0,
            "slot": "2",
            "type": "t_uint256"
          },
          {
            "astId": 13713,
            "contract": "contracts/StakingRewards.sol:StakingRewards",
            "label": "rewardsToBurn",
            "offset": 0,
            "slot": "3",
            "type": "t_uint256"
          },
          {
            "astId": 13715,
            "contract": "contracts/StakingRewards.sol:StakingRewards",
            "label": "rewardsToPay",
            "offset": 0,
            "slot": "4",
            "type": "t_uint256"
          }
        ],
        "numberOfBytes": "160"
      },
      "t_struct(RoleData)302_storage": {
        "encoding": "inplace",
        "label": "struct AccessControlUpgradeable.RoleData",
        "members": [
          {
            "astId": 299,
            "contract": "contracts/StakingRewards.sol:StakingRewards",
            "label": "members",
            "offset": 0,
            "slot": "0",
            "type": "t_mapping(t_address,t_bool)"
          },
          {
            "astId": 301,
            "contract": "contracts/StakingRewards.sol:StakingRewards",
            "label": "adminRole",
            "offset": 0,
            "slot": "1",
            "type": "t_bytes32"
          }
        ],
        "numberOfBytes": "64"
      },
      "t_struct(Set)2931_storage": {
        "encoding": "inplace",
        "label": "struct EnumerableSetUpgradeable.Set",
        "members": [
          {
            "astId": 2926,
            "contract": "contracts/StakingRewards.sol:StakingRewards",
            "label": "_values",
            "offset": 0,
            "slot": "0",
            "type": "t_array(t_bytes32)dyn_storage"
          },
          {
            "astId": 2930,
            "contract": "contracts/StakingRewards.sol:StakingRewards",
            "label": "_indexes",
            "offset": 0,
            "slot": "1",
            "type": "t_mapping(t_bytes32,t_uint256)"
          }
        ],
        "numberOfBytes": "64"
      },
      "t_uint256": {
        "encoding": "inplace",
        "label": "uint256",
        "numberOfBytes": "32"
      }
    }
  }
}