{
  "address": "0x22f9A59FA9Bd0581a5A57F2ca6d169A7820c305B",
  "abi": [
    {
      "anonymous": false,
      "inputs": [
        {
          "indexed": false,
          "internalType": "uint256",
          "name": "roomId",
          "type": "uint256"
        }
      ],
      "name": "AgedActiveRoomDeleted",
      "type": "event"
    },
    {
      "anonymous": false,
      "inputs": [
        {
          "indexed": false,
          "internalType": "uint256",
          "name": "roomId",
          "type": "uint256"
        }
      ],
      "name": "EmergencyUnstake",
      "type": "event"
    },
    {
      "anonymous": false,
      "inputs": [
        {
          "indexed": false,
          "internalType": "uint256",
          "name": "roomId",
          "type": "uint256"
        },
        {
          "indexed": false,
          "internalType": "address",
          "name": "roomOwner",
          "type": "address"
        }
      ],
      "name": "FreeRoomCreated",
      "type": "event"
    },
    {
      "anonymous": false,
      "inputs": [
        {
          "indexed": false,
          "internalType": "uint256",
          "name": "roomId",
          "type": "uint256"
        },
        {
          "indexed": false,
          "internalType": "address",
          "name": "participant",
          "type": "address"
        }
      ],
      "name": "JoinedFreeRoom",
      "type": "event"
    },
    {
      "anonymous": false,
      "inputs": [
        {
          "indexed": false,
          "internalType": "address",
          "name": "account",
          "type": "address"
        }
      ],
      "name": "Paused",
      "type": "event"
    },
    {
      "anonymous": false,
      "inputs": [
        {
          "indexed": true,
          "internalType": "bytes32",
          "name": "role",
          "type": "bytes32"
        },
        {
          "indexed": true,
          "internalType": "bytes32",
          "name": "previousAdminRole",
          "type": "bytes32"
        },
        {
          "indexed": true,
          "internalType": "bytes32",
          "name": "newAdminRole",
          "type": "bytes32"
        }
      ],
      "name": "RoleAdminChanged",
      "type": "event"
    },
    {
      "anonymous": false,
      "inputs": [
        {
          "indexed": true,
          "internalType": "bytes32",
          "name": "role",
          "type": "bytes32"
        },
        {
          "indexed": true,
          "internalType": "address",
          "name": "account",
          "type": "address"
        },
        {
          "indexed": true,
          "internalType": "address",
          "name": "sender",
          "type": "address"
        }
      ],
      "name": "RoleGranted",
      "type": "event"
    },
    {
      "anonymous": false,
      "inputs": [
        {
          "indexed": true,
          "internalType": "bytes32",
          "name": "role",
          "type": "bytes32"
        },
        {
          "indexed": true,
          "internalType": "address",
          "name": "account",
          "type": "address"
        },
        {
          "indexed": true,
          "internalType": "address",
          "name": "sender",
          "type": "address"
        }
      ],
      "name": "RoleRevoked",
      "type": "event"
    },
    {
      "anonymous": false,
      "inputs": [
        {
          "indexed": false,
          "internalType": "uint256",
          "name": "roomId",
          "type": "uint256"
        },
        {
          "indexed": false,
          "internalType": "address",
          "name": "roomOwner",
          "type": "address"
        }
      ],
      "name": "RoomCreated",
      "type": "event"
    },
    {
      "anonymous": false,
      "inputs": [
        {
          "indexed": false,
          "internalType": "uint256",
          "name": "roomId",
          "type": "uint256"
        },
        {
          "indexed": false,
          "internalType": "address payable[]",
          "name": "winners",
          "type": "address[]"
        },
        {
          "indexed": false,
          "internalType": "address payable[]",
          "name": "unseenParticipants",
          "type": "address[]"
        }
      ],
      "name": "RoomFinished",
      "type": "event"
    },
    {
      "anonymous": false,
      "inputs": [
        {
          "indexed": false,
          "internalType": "uint256",
          "name": "roomId",
          "type": "uint256"
        }
      ],
      "name": "RoomLocked",
      "type": "event"
    },
    {
      "anonymous": false,
      "inputs": [
        {
          "indexed": false,
          "internalType": "uint256",
          "name": "roomId",
          "type": "uint256"
        },
        {
          "indexed": false,
          "internalType": "address",
          "name": "participant",
          "type": "address"
        }
      ],
      "name": "StakeAdded",
      "type": "event"
    },
    {
      "anonymous": false,
      "inputs": [
        {
          "indexed": false,
          "internalType": "address",
          "name": "account",
          "type": "address"
        }
      ],
      "name": "Unpaused",
      "type": "event"
    },
    {
      "inputs": [],
      "name": "DEFAULT_ADMIN_ROLE",
      "outputs": [
        {
          "internalType": "bytes32",
          "name": "",
          "type": "bytes32"
        }
      ],
      "stateMutability": "view",
      "type": "function"
    },
    {
      "inputs": [
        {
          "internalType": "uint256",
          "name": "maxParticipantCount",
          "type": "uint256"
        },
        {
          "internalType": "uint256",
          "name": "totalStake",
          "type": "uint256"
        },
        {
          "internalType": "bool",
          "name": "isStakeInNativeCurrency",
          "type": "bool"
        },
        {
          "internalType": "enum IBigBoyTable.ROOM_MODE",
          "name": "roomMode",
          "type": "uint8"
        },
        {
          "internalType": "string",
          "name": "pwdRef",
          "type": "string"
        },
        {
          "internalType": "bytes32",
          "name": "collectionId",
          "type": "bytes32"
        },
        {
          "internalType": "uint256",
          "name": "rounds",
          "type": "uint256"
        }
      ],
      "name": "createFreeRoom",
      "outputs": [],
      "stateMutability": "payable",
      "type": "function"
    },
    {
      "inputs": [
        {
          "internalType": "uint256",
          "name": "maxParticipantCount",
          "type": "uint256"
        },
        {
          "internalType": "uint256",
          "name": "requiredStakeAmount",
          "type": "uint256"
        },
        {
          "internalType": "bool",
          "name": "isStakeInNativeCurrency",
          "type": "bool"
        },
        {
          "internalType": "enum IBigBoyTable.ROOM_MODE",
          "name": "roomMode",
          "type": "uint8"
        },
        {
          "internalType": "string",
          "name": "pwdRef",
          "type": "string"
        },
        {
          "internalType": "bytes32",
          "name": "collectionId",
          "type": "bytes32"
        },
        {
          "internalType": "uint256",
          "name": "rounds",
          "type": "uint256"
        }
      ],
      "name": "createRoom",
      "outputs": [],
      "stateMutability": "nonpayable",
      "type": "function"
    },
    {
      "inputs": [
        {
          "internalType": "uint256",
          "name": "roomId",
          "type": "uint256"
        }
      ],
      "name": "deleteAgedActiveRoom",
      "outputs": [],
      "stateMutability": "nonpayable",
      "type": "function"
    },
    {
      "inputs": [
        {
          "internalType": "uint256",
          "name": "roomId",
          "type": "uint256"
        }
      ],
      "name": "emergencyUnstake",
      "outputs": [],
      "stateMutability": "nonpayable",
      "type": "function"
    },
    {
      "inputs": [],
      "name": "getActiveRoomCount",
      "outputs": [
        {
          "internalType": "uint256",
          "name": "",
          "type": "uint256"
        }
      ],
      "stateMutability": "view",
      "type": "function"
    },
    {
      "inputs": [],
      "name": "getActiveRoomDeletionDelayInSeconds",
      "outputs": [
        {
          "internalType": "uint256",
          "name": "",
          "type": "uint256"
        }
      ],
      "stateMutability": "view",
      "type": "function"
    },
    {
      "inputs": [
        {
          "internalType": "uint256",
          "name": "startIdx",
          "type": "uint256"
        },
        {
          "internalType": "uint256",
          "name": "endIdx",
          "type": "uint256"
        }
      ],
      "name": "getActiveRooms",
      "outputs": [
        {
          "components": [
            {
              "internalType": "uint256",
              "name": "id",
              "type": "uint256"
            },
            {
              "internalType": "uint256",
              "name": "participantCount",
              "type": "uint256"
            },
            {
              "internalType": "address payable[]",
              "name": "participants",
              "type": "address[]"
            },
            {
              "internalType": "uint256",
              "name": "requiredStakeAmount",
              "type": "uint256"
            },
            {
              "internalType": "bool",
              "name": "isStakeInNativeCurrency",
              "type": "bool"
            },
            {
              "internalType": "address payable",
              "name": "owner",
              "type": "address"
            },
            {
              "internalType": "enum IBigBoyTable.ROOM_MODE",
              "name": "roomMode",
              "type": "uint8"
            },
            {
              "internalType": "uint256",
              "name": "rounds",
              "type": "uint256"
            },
            {
              "internalType": "bool",
              "name": "canJoinForFree",
              "type": "bool"
            },
            {
              "internalType": "uint256",
              "name": "createdAt",
              "type": "uint256"
            },
            {
              "internalType": "uint256",
              "name": "lockedAt",
              "type": "uint256"
            },
            {
              "internalType": "uint256",
              "name": "totalStake",
              "type": "uint256"
            },
            {
              "internalType": "string",
              "name": "pwdRef",
              "type": "string"
            },
            {
              "internalType": "bytes32",
              "name": "collectionId",
              "type": "bytes32"
            }
          ],
          "internalType": "struct IBigBoyTable.Room[]",
          "name": "",
          "type": "tuple[]"
        }
      ],
      "stateMutability": "view",
      "type": "function"
    },
    {
      "inputs": [],
      "name": "getEmergencyExtractorRole",
      "outputs": [
        {
          "internalType": "bytes32",
          "name": "",
          "type": "bytes32"
        }
      ],
      "stateMutability": "pure",
      "type": "function"
    },
    {
      "inputs": [],
      "name": "getExtractorRole",
      "outputs": [
        {
          "internalType": "bytes32",
          "name": "",
          "type": "bytes32"
        }
      ],
      "stateMutability": "pure",
      "type": "function"
    },
    {
      "inputs": [],
      "name": "getFinishedRoomCount",
      "outputs": [
        {
          "internalType": "uint256",
          "name": "",
          "type": "uint256"
        }
      ],
      "stateMutability": "view",
      "type": "function"
    },
    {
      "inputs": [
        {
          "internalType": "uint256",
          "name": "startIdx",
          "type": "uint256"
        },
        {
          "internalType": "uint256",
          "name": "endIdx",
          "type": "uint256"
        }
      ],
      "name": "getFinishedRooms",
      "outputs": [
        {
          "components": [
            {
              "internalType": "uint256",
              "name": "id",
              "type": "uint256"
            },
            {
              "internalType": "uint256",
              "name": "participantCount",
              "type": "uint256"
            },
            {
              "internalType": "address payable[]",
              "name": "participants",
              "type": "address[]"
            },
            {
              "internalType": "uint256",
              "name": "requiredStakeAmount",
              "type": "uint256"
            },
            {
              "internalType": "bool",
              "name": "isStakeInNativeCurrency",
              "type": "bool"
            },
            {
              "internalType": "address payable",
              "name": "owner",
              "type": "address"
            },
            {
              "internalType": "enum IBigBoyTable.ROOM_MODE",
              "name": "roomMode",
              "type": "uint8"
            },
            {
              "internalType": "uint256",
              "name": "rounds",
              "type": "uint256"
            },
            {
              "internalType": "bool",
              "name": "canJoinForFree",
              "type": "bool"
            },
            {
              "internalType": "uint256",
              "name": "createdAt",
              "type": "uint256"
            },
            {
              "internalType": "uint256",
              "name": "lockedAt",
              "type": "uint256"
            },
            {
              "internalType": "uint256",
              "name": "totalStake",
              "type": "uint256"
            },
            {
              "internalType": "string",
              "name": "pwdRef",
              "type": "string"
            },
            {
              "internalType": "bytes32",
              "name": "collectionId",
              "type": "bytes32"
            }
          ],
          "internalType": "struct IBigBoyTable.Room[]",
          "name": "",
          "type": "tuple[]"
        }
      ],
      "stateMutability": "view",
      "type": "function"
    },
    {
      "inputs": [],
      "name": "getLockingWindowInSeconds",
      "outputs": [
        {
          "internalType": "uint256",
          "name": "",
          "type": "uint256"
        }
      ],
      "stateMutability": "view",
      "type": "function"
    },
    {
      "inputs": [],
      "name": "getMaxParticipantsPerRoom",
      "outputs": [
        {
          "internalType": "uint256",
          "name": "",
          "type": "uint256"
        }
      ],
      "stateMutability": "pure",
      "type": "function"
    },
    {
      "inputs": [],
      "name": "getMaxRounds",
      "outputs": [
        {
          "internalType": "uint256",
          "name": "",
          "type": "uint256"
        }
      ],
      "stateMutability": "pure",
      "type": "function"
    },
    {
      "inputs": [],
      "name": "getMinParticipantsPerRoom",
      "outputs": [
        {
          "internalType": "uint256",
          "name": "",
          "type": "uint256"
        }
      ],
      "stateMutability": "pure",
      "type": "function"
    },
    {
      "inputs": [],
      "name": "getMinimalStakeInNative",
      "outputs": [
        {
          "internalType": "uint256",
          "name": "",
          "type": "uint256"
        }
      ],
      "stateMutability": "view",
      "type": "function"
    },
    {
      "inputs": [],
      "name": "getMinimalStakeInSNK",
      "outputs": [
        {
          "internalType": "uint256",
          "name": "",
          "type": "uint256"
        }
      ],
      "stateMutability": "view",
      "type": "function"
    },
    {
      "inputs": [],
      "name": "getMinimalStakeInUSDC",
      "outputs": [
        {
          "internalType": "uint256",
          "name": "",
          "type": "uint256"
        }
      ],
      "stateMutability": "view",
      "type": "function"
    },
    {
      "inputs": [],
      "name": "getNative2USDCRatioInEtherUnits",
      "outputs": [
        {
          "internalType": "uint256",
          "name": "",
          "type": "uint256"
        },
        {
          "internalType": "uint256",
          "name": "",
          "type": "uint256"
        }
      ],
      "stateMutability": "view",
      "type": "function"
    },
    {
      "inputs": [],
      "name": "getPauserRole",
      "outputs": [
        {
          "internalType": "bytes32",
          "name": "",
          "type": "bytes32"
        }
      ],
      "stateMutability": "pure",
      "type": "function"
    },
    {
      "inputs": [
        {
          "internalType": "bytes32",
          "name": "role",
          "type": "bytes32"
        }
      ],
      "name": "getRoleAdmin",
      "outputs": [
        {
          "internalType": "bytes32",
          "name": "",
          "type": "bytes32"
        }
      ],
      "stateMutability": "view",
      "type": "function"
    },
    {
      "inputs": [
        {
          "internalType": "bytes32",
          "name": "role",
          "type": "bytes32"
        },
        {
          "internalType": "uint256",
          "name": "index",
          "type": "uint256"
        }
      ],
      "name": "getRoleMember",
      "outputs": [
        {
          "internalType": "address",
          "name": "",
          "type": "address"
        }
      ],
      "stateMutability": "view",
      "type": "function"
    },
    {
      "inputs": [
        {
          "internalType": "bytes32",
          "name": "role",
          "type": "bytes32"
        }
      ],
      "name": "getRoleMemberCount",
      "outputs": [
        {
          "internalType": "uint256",
          "name": "",
          "type": "uint256"
        }
      ],
      "stateMutability": "view",
      "type": "function"
    },
    {
      "inputs": [
        {
          "internalType": "uint256",
          "name": "roomId",
          "type": "uint256"
        }
      ],
      "name": "getRoom",
      "outputs": [
        {
          "components": [
            {
              "internalType": "uint256",
              "name": "id",
              "type": "uint256"
            },
            {
              "internalType": "uint256",
              "name": "participantCount",
              "type": "uint256"
            },
            {
              "internalType": "address payable[]",
              "name": "participants",
              "type": "address[]"
            },
            {
              "internalType": "uint256",
              "name": "requiredStakeAmount",
              "type": "uint256"
            },
            {
              "internalType": "bool",
              "name": "isStakeInNativeCurrency",
              "type": "bool"
            },
            {
              "internalType": "address payable",
              "name": "owner",
              "type": "address"
            },
            {
              "internalType": "enum IBigBoyTable.ROOM_MODE",
              "name": "roomMode",
              "type": "uint8"
            },
            {
              "internalType": "uint256",
              "name": "rounds",
              "type": "uint256"
            },
            {
              "internalType": "bool",
              "name": "canJoinForFree",
              "type": "bool"
            },
            {
              "internalType": "uint256",
              "name": "createdAt",
              "type": "uint256"
            },
            {
              "internalType": "uint256",
              "name": "lockedAt",
              "type": "uint256"
            },
            {
              "internalType": "uint256",
              "name": "totalStake",
              "type": "uint256"
            },
            {
              "internalType": "string",
              "name": "pwdRef",
              "type": "string"
            },
            {
              "internalType": "bytes32",
              "name": "collectionId",
              "type": "bytes32"
            }
          ],
          "internalType": "struct IBigBoyTable.Room",
          "name": "",
          "type": "tuple"
        }
      ],
      "stateMutability": "view",
      "type": "function"
    },
    {
      "inputs": [],
      "name": "getRoomCreationPriceInSNK",
      "outputs": [
        {
          "internalType": "uint256",
          "name": "",
          "type": "uint256"
        }
      ],
      "stateMutability": "view",
      "type": "function"
    },
    {
      "inputs": [],
      "name": "getRoomCreationPriceInUSDC",
      "outputs": [
        {
          "internalType": "uint256",
          "name": "",
          "type": "uint256"
        }
      ],
      "stateMutability": "view",
      "type": "function"
    },
    {
      "inputs": [],
      "name": "getStakingWindowInSeconds",
      "outputs": [
        {
          "internalType": "uint256",
          "name": "",
          "type": "uint256"
        }
      ],
      "stateMutability": "view",
      "type": "function"
    },
    {
      "inputs": [],
      "name": "getWinningFeeInPercents",
      "outputs": [
        {
          "internalType": "uint256",
          "name": "",
          "type": "uint256"
        }
      ],
      "stateMutability": "view",
      "type": "function"
    },
    {
      "inputs": [
        {
          "internalType": "bytes32",
          "name": "role",
          "type": "bytes32"
        },
        {
          "internalType": "address",
          "name": "account",
          "type": "address"
        }
      ],
      "name": "grantRole",
      "outputs": [],
      "stateMutability": "nonpayable",
      "type": "function"
    },
    {
      "inputs": [
        {
          "internalType": "bytes32",
          "name": "role",
          "type": "bytes32"
        },
        {
          "internalType": "address",
          "name": "account",
          "type": "address"
        }
      ],
      "name": "hasRole",
      "outputs": [
        {
          "internalType": "bool",
          "name": "",
          "type": "bool"
        }
      ],
      "stateMutability": "view",
      "type": "function"
    },
    {
      "inputs": [
        {
          "components": [
            {
              "internalType": "address",
              "name": "adminAccount",
              "type": "address"
            },
            {
              "internalType": "uint256",
              "name": "winningFeeInPercents",
              "type": "uint256"
            },
            {
              "internalType": "uint256",
              "name": "roomCreationPriceInUSDC",
              "type": "uint256"
            },
            {
              "internalType": "uint256",
              "name": "lockingWindowInSeconds",
              "type": "uint256"
            },
            {
              "internalType": "uint256",
              "name": "stakingWindowInSeconds",
              "type": "uint256"
            },
            {
              "internalType": "uint256",
              "name": "activeRoomDeletionDelayInSeconds",
              "type": "uint256"
            },
            {
              "internalType": "uint256",
              "name": "minimalStakeInUSDC",
              "type": "uint256"
            },
            {
              "internalType": "uint256",
              "name": "native2usdcNumerator",
              "type": "uint256"
            },
            {
              "internalType": "uint256",
              "name": "native2usdcDenominator",
              "type": "uint256"
            },
            {
              "internalType": "address payable",
              "name": "foundersAddress",
              "type": "address"
            },
            {
              "internalType": "address",
              "name": "skill",
              "type": "address"
            },
            {
              "internalType": "address",
              "name": "ecosystem",
              "type": "address"
            },
            {
              "internalType": "address",
              "name": "uniswap",
              "type": "address"
            },
            {
              "internalType": "address",
              "name": "collectionList",
              "type": "address"
            }
          ],
          "internalType": "struct BigBoyTable.InitializerParameters",
          "name": "params",
          "type": "tuple"
        }
      ],
      "name": "initialize",
      "outputs": [],
      "stateMutability": "nonpayable",
      "type": "function"
    },
    {
      "inputs": [
        {
          "internalType": "uint256",
          "name": "roomId",
          "type": "uint256"
        }
      ],
      "name": "joinFreeRoom",
      "outputs": [],
      "stateMutability": "nonpayable",
      "type": "function"
    },
    {
      "inputs": [
        {
          "internalType": "uint256",
          "name": "roomId",
          "type": "uint256"
        }
      ],
      "name": "lockRoom",
      "outputs": [],
      "stateMutability": "nonpayable",
      "type": "function"
    },
    {
      "inputs": [],
      "name": "paused",
      "outputs": [
        {
          "internalType": "bool",
          "name": "",
          "type": "bool"
        }
      ],
      "stateMutability": "view",
      "type": "function"
    },
    {
      "inputs": [
        {
          "internalType": "bytes32",
          "name": "role",
          "type": "bytes32"
        },
        {
          "internalType": "address",
          "name": "account",
          "type": "address"
        }
      ],
      "name": "renounceRole",
      "outputs": [],
      "stateMutability": "nonpayable",
      "type": "function"
    },
    {
      "inputs": [
        {
          "internalType": "uint256",
          "name": "roomId",
          "type": "uint256"
        },
        {
          "internalType": "address payable[]",
          "name": "winners",
          "type": "address[]"
        },
        {
          "internalType": "address payable[]",
          "name": "players",
          "type": "address[]"
        }
      ],
      "name": "reportWinners",
      "outputs": [],
      "stateMutability": "nonpayable",
      "type": "function"
    },
    {
      "inputs": [
        {
          "internalType": "bytes32",
          "name": "role",
          "type": "bytes32"
        },
        {
          "internalType": "address",
          "name": "account",
          "type": "address"
        }
      ],
      "name": "revokeRole",
      "outputs": [],
      "stateMutability": "nonpayable",
      "type": "function"
    },
    {
      "inputs": [
        {
          "internalType": "uint256",
          "name": "activeRoomDeletionDelayInSeconds",
          "type": "uint256"
        }
      ],
      "name": "setActiveRoomDeletionDelayInSeconds",
      "outputs": [],
      "stateMutability": "nonpayable",
      "type": "function"
    },
    {
      "inputs": [
        {
          "internalType": "uint256",
          "name": "lockingWindowInSeconds",
          "type": "uint256"
        }
      ],
      "name": "setLockingWindowInSeconds",
      "outputs": [],
      "stateMutability": "nonpayable",
      "type": "function"
    },
    {
      "inputs": [
        {
          "internalType": "uint256",
          "name": "minimalStakeInUSDC",
          "type": "uint256"
        }
      ],
      "name": "setMinimalStakeInUSDC",
      "outputs": [],
      "stateMutability": "nonpayable",
      "type": "function"
    },
    {
      "inputs": [
        {
          "internalType": "uint256",
          "name": "numerator",
          "type": "uint256"
        },
        {
          "internalType": "uint256",
          "name": "denominator",
          "type": "uint256"
        }
      ],
      "name": "setNative2USDCRatioInEtherUnits",
      "outputs": [],
      "stateMutability": "nonpayable",
      "type": "function"
    },
    {
      "inputs": [
        {
          "internalType": "uint256",
          "name": "roomCreationPriceInUSDC",
          "type": "uint256"
        }
      ],
      "name": "setRoomCreationPriceInUSDC",
      "outputs": [],
      "stateMutability": "nonpayable",
      "type": "function"
    },
    {
      "inputs": [
        {
          "internalType": "uint256",
          "name": "stakingWindowInSeconds",
          "type": "uint256"
        }
      ],
      "name": "setStakingWindowInSeconds",
      "outputs": [],
      "stateMutability": "nonpayable",
      "type": "function"
    },
    {
      "inputs": [
        {
          "internalType": "uint256",
          "name": "winningFeeInPercents",
          "type": "uint256"
        }
      ],
      "name": "setWinningFeeInPercents",
      "outputs": [],
      "stateMutability": "nonpayable",
      "type": "function"
    },
    {
      "inputs": [
        {
          "internalType": "uint256",
          "name": "roomId",
          "type": "uint256"
        }
      ],
      "name": "stakeNative",
      "outputs": [],
      "stateMutability": "payable",
      "type": "function"
    },
    {
      "inputs": [
        {
          "internalType": "uint256",
          "name": "roomId",
          "type": "uint256"
        }
      ],
      "name": "stakeSNK",
      "outputs": [],
      "stateMutability": "nonpayable",
      "type": "function"
    },
    {
      "inputs": [
        {
          "internalType": "bytes4",
          "name": "interfaceId",
          "type": "bytes4"
        }
      ],
      "name": "supportsInterface",
      "outputs": [
        {
          "internalType": "bool",
          "name": "",
          "type": "bool"
        }
      ],
      "stateMutability": "view",
      "type": "function"
    }
  ],
  "transactionHash": "0x0a12b77ae4cd23f0c808e34311a2a6228008b97f864a8a41bfd2d310c3cda0ba",
  "args": [],
  "solcInputHash": "3a214cd62dc29e4264901f84e1a4d30e",
  "bytecode": "0x608060405234801561001057600080fd5b50614fb6806100206000396000f3fe6080604052600436106102935760003560e01c806391d148541161015a578063cb741d14116100c1578063e63c6bf01161007a578063e63c6bf01461076a578063ea7998021461077d578063ef2f1eeb1461079d578063f4f23263146107bd578063f6c9b744146107d2578063fbbabcaf146107e757610293565b8063cb741d14146106a7578063ceb3ea62146106c7578063d547741f146106e7578063d8df056014610707578063e06ff9c61461072a578063e358df8f1461074a57610293565b8063b708624111610113578063b708624114610608578063bc12b7161461061d578063bfadc65c1461063d578063c1b931be14610652578063c68ae88514610667578063ca15c8731461068757610293565b806391d14854146105765780639447b1a4146105965780639847931f146105ab5780639d06c309146105c0578063a217fddf146105e0578063ad647c4e146105f557610293565b80632f2ff15d116101fe5780636d8a74cb116101b75780636d8a74cb146104a55780637d649852146104d2578063834e5eaa146104ff5780638b2d2237146105145780638d320ca2146105295780639010d07c1461054957610293565b80632f2ff15d1461040657806336568abe146104265780634309ae12146104465780634f8f2b011461045b5780635c975abb146104705780636acb49801461048557610293565b806317c8884d1161025057806317c8884d1461036757806319eab083146103875780631e6e4e041461039c578063248a9ca3146103b157806328f0e286146103d15780632acf73e8146103f157610293565b8063012ce5011461029857806301ffc9a7146102ba5780630d090fbb146102f05780630ef0a52f14610312578063156a387614610332578063166ad63414610352575b600080fd5b3480156102a457600080fd5b506102b86102b3366004614042565b6107fc565b005b3480156102c657600080fd5b506102da6102d53660046140aa565b610a68565b6040516102e791906144d0565b60405180910390f35b3480156102fc57600080fd5b50610305610a95565b6040516102e791906144db565b34801561031e57600080fd5b506102b861032d366004614089565b610a9c565b34801561033e57600080fd5b506102b861034d36600461416c565b610ac5565b34801561035e57600080fd5b50610305610b1d565b34801561037357600080fd5b506102b8610382366004614042565b610b24565b34801561039357600080fd5b50610305610b46565b3480156103a857600080fd5b50610305610b55565b3480156103bd57600080fd5b506103056103cc366004614042565b610b79565b3480156103dd57600080fd5b506102b86103ec366004614102565b610b8e565b3480156103fd57600080fd5b506103056115f6565b34801561041257600080fd5b506102b861042136600461405a565b6115fb565b34801561043257600080fd5b506102b861044136600461405a565b611622565b34801561045257600080fd5b50610305611644565b34801561046757600080fd5b50610305611668565b34801561047c57600080fd5b506102da611672565b34801561049157600080fd5b506102b86104a0366004614042565b61167b565b3480156104b157600080fd5b506104c56104c0366004614042565b61169d565b6040516102e79190614c8b565b3480156104de57600080fd5b506104f26104ed366004614089565b6118c1565b6040516102e79190614470565b34801561050b57600080fd5b50610305611bb8565b34801561052057600080fd5b50610305611bbf565b34801561053557600080fd5b506102b8610544366004614042565b611bc4565b34801561055557600080fd5b50610569610564366004614089565b611be6565b6040516102e7919061441f565b34801561058257600080fd5b506102da61059136600461405a565b611c05565b3480156105a257600080fd5b50610305611c30565b3480156105b757600080fd5b50610305611c37565b3480156105cc57600080fd5b506102b86105db366004614042565b611c41565b3480156105ec57600080fd5b50610305611d41565b6102b861060336600461416c565b611d46565b34801561061457600080fd5b50610305611e8a565b34801561062957600080fd5b506102b8610638366004614042565b611e91565b34801561064957600080fd5b50610305611eb3565b34801561065e57600080fd5b50610305611eb8565b34801561067357600080fd5b506102b8610682366004614042565b611eca565b34801561069357600080fd5b506103056106a2366004614042565b612132565b3480156106b357600080fd5b506102b86106c2366004614042565b612149565b3480156106d357600080fd5b506102b86106e2366004614042565b61248b565b3480156106f357600080fd5b506102b861070236600461405a565b6124ad565b34801561071357600080fd5b5061071c6124b7565b6040516102e7929190614cea565b34801561073657600080fd5b506104f2610745366004614089565b6124c3565b34801561075657600080fd5b506102b8610765366004614042565b6127b0565b6102b8610778366004614042565b6127d2565b34801561078957600080fd5b506102b86107983660046140d2565b6128fc565b3480156107a957600080fd5b506102b86107b8366004614042565b612b0e565b3480156107c957600080fd5b50610305612cb7565b3480156107de57600080fd5b50610305612cc4565b3480156107f357600080fd5b50610305612cd1565b8061080961010982612cd8565b61082e5760405162461bcd60e51b815260040161082590614b8d565b60405180910390fd5b7f4edebb69cd9d6569902dabdec7c91c11f65df00335e42b9a2c13432f7bb3ff0e6108608161085b612ce4565b612ce8565b600083815261010860205260409020600481015460ff1661097857600681015460ff166109735760005b81600101548110156109715760fd546002830180546001600160a01b039092169163a9059cbb9190849081106108d057634e487b7160e01b600052603260045260246000fd5b60009182526020909120015460038501546040516001600160e01b031960e085901b16815261090c926001600160a01b03169190600401614433565b602060405180830381600087803b15801561092657600080fd5b505af115801561093a573d6000803e3d6000fd5b505050506040513d601f19601f8201168201806040525081019061095e9190614026565b508061096981614ef6565b91505061088a565b505b610a0f565b600681015460ff16610a0f5760005b8160010154811015610a0d578160020181815481106109b657634e487b7160e01b600052603260045260246000fd5b600091825260208220015460038401546040516001600160a01b039092169281156108fc029290818181858888f193505050501580156109fa573d6000803e3d6000fd5b5080610a0581614ef6565b915050610987565b505b4260078201556000600882018190556001820181905560098201556040517f0efda3452a76bf3b550355556930eba4bd2b56b2bc81b6c0eb56c4679a6a064c90610a5a9086906144db565b60405180910390a150505050565b60006001600160e01b03198216635a05180f60e01b1480610a8d5750610a8d82612d4c565b90505b919050565b6101025490565b600080516020614f61833981519152610ab78161085b612ce4565b506101069190915561010755565b6000610ad78989898989898989612d71565b90507fdeb4915464f2fab35f9ed95b8c2dc62a1af9edc45ebc42643517a7893e49bca88133604051610b0a929190614c9e565b60405180910390a1505050505050505050565b6101055490565b600080516020614f61833981519152610b3f8161085b612ce4565b5061010255565b6000610b50613199565b905090565b7f11cf46bea1094f63335637b879e8021ce59a9008b10e90c59d17337675ebc79290565b60009081526065602052604090206001015490565b82610b9b61010982612cd8565b610bb75760405162461bcd60e51b815260040161082590614b8d565b7f11cf46bea1094f63335637b879e8021ce59a9008b10e90c59d17337675ebc792610be48161085b612ce4565b60008581526101086020908152604080832081516101c08101835281548152600182015481850152600282018054845181870281018701865281815292959394860193830182828015610c6057602002820191906000526020600020905b81546001600160a01b03168152600190910190602001808311610c42575b505050918352505060038201546020820152600482015460ff808216151560408401526001600160a01b036101008304166060840152608090920191600160a81b909104166002811115610cc457634e487b7160e01b600052602160045260246000fd5b6002811115610ce357634e487b7160e01b600052602160045260246000fd5b815260058201546020820152600682015460ff16151560408201526007820154606082015260088201546080820152600982015460a0820152600a8201805460c090920191610d3190614ec1565b80601f0160208091040260200160405190810160405280929190818152602001828054610d5d90614ec1565b8015610daa5780601f10610d7f57610100808354040283529160200191610daa565b820191906000526020600020905b815481529060010190602001808311610d8d57829003601f168201915b50505050508152602001600b820154815250509050600081610140015111610de45760405162461bcd60e51b815260040161082590614abf565b61010354816101400151610df89190614cf8565b4211610e165760405162461bcd60e51b8152600401610825906146d0565b6002845110158015610e2d57508060200151845111155b610e495760405162461bcd60e51b815260040161082590614699565b6001855110158015610e5d57508351855111155b610e795760405162461bcd60e51b815260040161082590614a51565b610e8381866131a7565b1515600114610ea45760405162461bcd60e51b81526004016108259061472d565b610eae81856131a7565b1515600114610ecf5760405162461bcd60e51b81526004016108259061478a565b6000868152610108602052604081206006015460609060ff16158015610ef9575082602001518651105b1561107f57610f0c868460400151613279565b905080518360600151610f1f9190614e44565b9150818361016001818151610f349190614e63565b90525060005b815181101561107d5760808401516110055760fd5482516001600160a01b039091169063a9059cbb90849084908110610f8357634e487b7160e01b600052603260045260246000fd5b602002602001015186606001516040518363ffffffff1660e01b8152600401610fad929190614433565b602060405180830381600087803b158015610fc757600080fd5b505af1158015610fdb573d6000803e3d6000fd5b505050506040513d601f19601f82011682018060405250810190610fff9190614026565b5061106b565b81818151811061102557634e487b7160e01b600052603260045260246000fd5b60200260200101516001600160a01b03166108fc85606001519081150290604051600060405180830381858888f19350505050158015611069573d6000803e3d6000fd5b505b8061107581614ef6565b915050610f3a565b505b60006064610101548561016001516110979190614e44565b6110a19190614d10565b905060008060008060001b876101a00151146111e45760fe546101a088015160405163681c3cc960e01b81526001600160a01b039092169163681c3cc9916110eb916004016144db565b60206040518083038186803b15801561110357600080fd5b505afa158015611117573d6000803e3d6000fd5b505050506040513d601f19601f8201168201806040525081019061113b91906140ea565b60fe546101a0890151604051637263bac360e11b81529294506001600160a01b039091169163e4c7758691611172916004016144db565b60206040518083038186803b15801561118a57600080fd5b505afa15801561119e573d6000803e3d6000fd5b505050506040513d601f19601f820116820180604052508101906111c2919061400a565b90506064828861016001516111d79190614e44565b6111e19190614d10565b92505b60008b5184868a61016001516111fa9190614e63565b6112049190614e63565b61120e9190614d10565b60808901519091506112a85760fd5460fc5460405163a9059cbb60e01b81526001600160a01b039283169263a9059cbb92611250929116908990600401614433565b602060405180830381600087803b15801561126a57600080fd5b505af115801561127e573d6000803e3d6000fd5b505050506040513d601f19601f820116820180604052508101906112a29190614026565b506112e4565b60fc546040516001600160a01b039091169086156108fc029087906000818181858888f193505050501580156112e2573d6000803e3d6000fd5b505b6000841180156112f857506101a088015115155b8015611383575060fe546101a089015160405163170da40760e21b81526001600160a01b0390921691635c36901c91611333916004016144db565b60206040518083038186803b15801561134b57600080fd5b505afa15801561135f573d6000803e3d6000fd5b505050506040513d601f19601f820116820180604052508101906113839190614026565b1561145357608088015161141b5760fd5460405163a9059cbb60e01b81526001600160a01b039091169063a9059cbb906113c39085908890600401614433565b602060405180830381600087803b1580156113dd57600080fd5b505af11580156113f1573d6000803e3d6000fd5b505050506040513d601f19601f820116820180604052508101906114159190614026565b50611453565b6040516001600160a01b0383169085156108fc029086906000818181858888f19350505050158015611451573d6000803e3d6000fd5b505b60005b8c5181101561159157608089015161151d5760fd548d516001600160a01b039091169063a9059cbb908f908490811061149f57634e487b7160e01b600052603260045260246000fd5b6020026020010151846040518363ffffffff1660e01b81526004016114c5929190614433565b602060405180830381600087803b1580156114df57600080fd5b505af11580156114f3573d6000803e3d6000fd5b505050506040513d601f19601f820116820180604052508101906115179190614026565b5061157f565b8c818151811061153d57634e487b7160e01b600052603260045260246000fd5b60200260200101516001600160a01b03166108fc839081150290604051600060405180830381858888f1935050505015801561157d573d6000803e3d6000fd5b505b8061158981614ef6565b915050611456565b5061159e6101098e613502565b506115ab61010b8e61350e565b507f61fe78b87b005cff1b592934cf5c5cc4e3008e05bc916a9752c48f3ad8b751c68d8d886040516115df93929190614cb5565b60405180910390a150505050505050505050505050565b606490565b611605828261351a565b600082815260976020526040902061161d9082613539565b505050565b61162c828261354e565b600082815260976020526040902061161d9082613590565b7f4edebb69cd9d6569902dabdec7c91c11f65df00335e42b9a2c13432f7bb3ff0e90565b6000610b506135a5565b60c95460ff1690565b600080516020614f618339815191526116968161085b612ce4565b5061010d55565b6116a5613db8565b6116b161010983612cd8565b806116c357506116c361010b83612cd8565b6116df5760405162461bcd60e51b815260040161082590614922565b6000828152610108602090815260409182902082516101c081018452815481526001820154818401526002820180548551818602810186018752818152929593949386019383018282801561175d57602002820191906000526020600020905b81546001600160a01b0316815260019091019060200180831161173f575b505050918352505060038201546020820152600482015460ff808216151560408401526001600160a01b036101008304166060840152608090920191600160a81b9091041660028111156117c157634e487b7160e01b600052602160045260246000fd5b60028111156117e057634e487b7160e01b600052602160045260246000fd5b815260058201546020820152600682015460ff16151560408201526007820154606082015260088201546080820152600982015460a0820152600a8201805460c09092019161182e90614ec1565b80601f016020809104026020016040519081016040528092919081815260200182805461185a90614ec1565b80156118a75780601f1061187c576101008083540402835291602001916118a7565b820191906000526020600020905b81548152906001019060200180831161188a57829003601f168201915b50505050508152602001600b820154815250509050919050565b606081831080156118dc57506118d86101096135b3565b8211155b6118f85760405162461bcd60e51b8152600401610825906145fd565b60006119048484614e63565b67ffffffffffffffff81111561192a57634e487b7160e01b600052604160045260246000fd5b60405190808252806020026020018201604052801561196357816020015b611950613db8565b8152602001906001900390816119485790505b509050835b83811015611bae576101086000611981610109846135be565b8152602001908152602001600020604051806101c0016040529081600082015481526020016001820154815260200160028201805480602002602001604051908101604052809291908181526020018280548015611a0857602002820191906000526020600020905b81546001600160a01b031681526001909101906020018083116119ea575b505050918352505060038201546020820152600482015460ff808216151560408401526001600160a01b036101008304166060840152608090920191600160a81b909104166002811115611a6c57634e487b7160e01b600052602160045260246000fd5b6002811115611a8b57634e487b7160e01b600052602160045260246000fd5b815260058201546020820152600682015460ff16151560408201526007820154606082015260088201546080820152600982015460a0820152600a8201805460c090920191611ad990614ec1565b80601f0160208091040260200160405190810160405280929190818152602001828054611b0590614ec1565b8015611b525780601f10611b2757610100808354040283529160200191611b52565b820191906000526020600020905b815481529060010190602001808311611b3557829003601f168201915b50505050508152602001600b82015481525050828683611b729190614e63565b81518110611b9057634e487b7160e01b600052603260045260246000fd5b60200260200101819052508080611ba690614ef6565b915050611968565b5090505b92915050565b6101045490565b600290565b600080516020614f61833981519152611bdf8161085b612ce4565b5061010355565b6000828152609760205260408120611bfe90836135be565b9392505050565b60009182526065602090815260408084206001600160a01b0393909316845291905290205460ff1690565b6101015490565b6000610b506135ca565b80611c4e61010982612cd8565b611c6a5760405162461bcd60e51b815260040161082590614b8d565b600082815261010860205260409020600481015461010090046001600160a01b03163314611caa5760405162461bcd60e51b815260040161082590614a22565b600881015415611ccc5760405162461bcd60e51b815260040161082590614662565b61010d548160070154611cdf9190614cf8565b421115611cfe5760405162461bcd60e51b8152600401610825906148eb565b4260088201556040517f76e8d3f2e1eda7b2aff7a471cc350013f132caca7b60b6c43bc09f525414b60f90611d349085906144db565b60405180910390a1505050565b600081565b85158015611dd5575060fd546040516323b872dd60e01b81526001600160a01b03909116906323b872dd90611d8390339030908c9060040161444c565b602060405180830381600087803b158015611d9d57600080fd5b505af1158015611db1573d6000803e3d6000fd5b505050506040513d601f19601f82011682018060405250810190611dd59190614026565b80611dec57506001861515148015611dec57508634145b611e085760405162461bcd60e51b8152600401610825906149eb565b6000611e1a8989898989898989612d71565b6000818152610108602052604090819020600981018b905560068101805460ff191660011790559051919250907f1a90e66d0456e3af5e76c3cfe0c1da5f6676ea4d3e51556d86fd0d1a6ad2dd0990611e769084903390614c9e565b60405180910390a150505050505050505050565b6101035490565b600080516020614f61833981519152611eac8161085b612ce4565b5061010555565b601890565b600080516020614f6183398151915290565b80611ed761010982612cd8565b611ef35760405162461bcd60e51b815260040161082590614b8d565b60008181526101086020526040902060080154611f225760405162461bcd60e51b815260040161082590614950565b6101035460008281526101086020526040902060080154611f439190614cf8565b421115611f625760405162461bcd60e51b815260040161082590614b0f565b600081815261010860205260409020600281015460019091015410611f995760405162461bcd60e51b81526004016108259061487a565b600082815261010860205260409020600481015460ff1615611fcd5760405162461bcd60e51b81526004016108259061456e565b60fd5460038201546040516323b872dd60e01b81526001600160a01b03909216916323b872dd91612004913391309160040161444c565b602060405180830381600087803b15801561201e57600080fd5b505af1158015612032573d6000803e3d6000fd5b505050506040513d601f19601f820116820180604052508101906120569190614026565b6120725760405162461bcd60e51b815260040161082590614987565b338160020182600101548154811061209a57634e487b7160e01b600052603260045260246000fd5b9060005260206000200160006101000a8154816001600160a01b0302191690836001600160a01b0316021790555060018160010160008282546120dd9190614cf8565b909155505060038101546009820180546000906120fb908490614cf8565b90915550506040517ff12a66daa955e8255b989ee232c8ad1f6d294f4448b87f72b497295e54758a4f90611d349085903390614c9e565b6000818152609760205260408120610a8d906135b3565b8061215661010982612cd8565b6121725760405162461bcd60e51b815260040161082590614b8d565b61010454600083815261010860205260409020600701546121939190614cf8565b42116121b15760405162461bcd60e51b81526004016108259061462b565b600082815261010860205260409020600681015460ff161515600114156122c857600481015460ff1615156001141561222e57600481015460098201546040516101009092046001600160a01b0316916108fc82150291906000818181858888f19350505050158015612228573d6000803e3d6000fd5b506122c3565b60fd54600480830154600984015460405163a9059cbb60e01b81526001600160a01b039485169463a9059cbb9461226f946101009004909116929101614433565b602060405180830381600087803b15801561228957600080fd5b505af115801561229d573d6000803e3d6000fd5b505050506040513d601f19601f820116820180604052508101906122c19190614026565b505b61244f565b600481015460ff161515600114156123635760005b81600101548110156122c15781600201818154811061230c57634e487b7160e01b600052603260045260246000fd5b600091825260208220015460038401546040516001600160a01b039092169281156108fc029290818181858888f19350505050158015612350573d6000803e3d6000fd5b508061235b81614ef6565b9150506122dd565b60005b816001015481101561244d5760fd546002830180546001600160a01b039092169163a9059cbb9190849081106123ac57634e487b7160e01b600052603260045260246000fd5b60009182526020909120015460038501546040516001600160e01b031960e085901b1681526123e8926001600160a01b03169190600401614433565b602060405180830381600087803b15801561240257600080fd5b505af1158015612416573d6000803e3d6000fd5b505050506040513d601f19601f8201168201806040525081019061243a9190614026565b508061244581614ef6565b915050612366565b505b61245b61010984613502565b507f90a6e7b3e793c835ae7bd0cdb2cafd5f03b11e536eef9eb6ad1791cb82bf0d3883604051611d3491906144db565b600080516020614f618339815191526124a68161085b612ce4565b5061010155565b61162c82826135d8565b61010654610107549091565b606081831080156124de57506124da6101096135b3565b8211155b6124fa5760405162461bcd60e51b8152600401610825906145fd565b60006125068484614e63565b67ffffffffffffffff81111561252c57634e487b7160e01b600052604160045260246000fd5b60405190808252806020026020018201604052801561256557816020015b612552613db8565b81526020019060019003908161254a5790505b509050835b83811015611bae57610108600061258361010b846135be565b8152602001908152602001600020604051806101c001604052908160008201548152602001600182015481526020016002820180548060200260200160405190810160405280929190818152602001828054801561260a57602002820191906000526020600020905b81546001600160a01b031681526001909101906020018083116125ec575b505050918352505060038201546020820152600482015460ff808216151560408401526001600160a01b036101008304166060840152608090920191600160a81b90910416600281111561266e57634e487b7160e01b600052602160045260246000fd5b600281111561268d57634e487b7160e01b600052602160045260246000fd5b815260058201546020820152600682015460ff16151560408201526007820154606082015260088201546080820152600982015460a0820152600a8201805460c0909201916126db90614ec1565b80601f016020809104026020016040519081016040528092919081815260200182805461270790614ec1565b80156127545780601f1061272957610100808354040283529160200191612754565b820191906000526020600020905b81548152906001019060200180831161273757829003601f168201915b50505050508152602001600b820154815250508286836127749190614e63565b8151811061279257634e487b7160e01b600052603260045260246000fd5b602002602001018190525080806127a890614ef6565b91505061256a565b600080516020614f618339815191526127cb8161085b612ce4565b5061010455565b806127df61010982612cd8565b6127fb5760405162461bcd60e51b815260040161082590614b8d565b6000818152610108602052604090206008015461282a5760405162461bcd60e51b815260040161082590614950565b610103546000828152610108602052604090206008015461284b9190614cf8565b42111561286a5760405162461bcd60e51b815260040161082590614b0f565b6000818152610108602052604090206002810154600190910154106128a15760405162461bcd60e51b81526004016108259061487a565b600082815261010860205260409020600481015460ff1615156001146128d95760405162461bcd60e51b815260040161082590614a88565b806003015434146120725760405162461bcd60e51b815260040161082590614bf3565b600054610100900460ff1680612915575060005460ff16155b6129315760405162461bcd60e51b81526004016108259061482c565b600054610100900460ff1615801561295c576000805460ff1961ff0019909116610100171660011790555b6129646135f7565b61296c61368c565b612983600061297e6020850185613fee565b6136fc565b6129b47f11cf46bea1094f63335637b879e8021ce59a9008b10e90c59d17337675ebc79261297e6020850185613fee565b6129c661014083016101208401613fee565b60fc80546001600160a01b0319166001600160a01b03929092169190911790556129f861016083016101408401613fee565b60fd80546001600160a01b0319166001600160a01b0392909216919091179055612a2a61018083016101608401613fee565b60ff80546001600160a01b0319166001600160a01b0392909216919091179055612a5c6101a083016101808401613fee565b61010080546001600160a01b0319166001600160a01b0392909216919091179055612a8f6101c083016101a08401613fee565b60fe80546001600160a01b0319166001600160a01b0392909216919091179055602082013561010155604082013561010255606082013561010d5560808201356101035560a08201356101045560c08201356101055560e082013561010655610100820135610107558015612b0a576000805461ff00191690555b5050565b80612b1b61010982612cd8565b612b375760405162461bcd60e51b815260040161082590614b8d565b60008181526101086020526040902060080154612b665760405162461bcd60e51b815260040161082590614950565b6101035460008281526101086020526040902060080154612b879190614cf8565b421115612ba65760405162461bcd60e51b815260040161082590614b0f565b600081815261010860205260409020600281015460019091015410612bdd5760405162461bcd60e51b81526004016108259061487a565b600082815261010860205260409020600681015460ff161515600114612c155760405162461bcd60e51b815260040161082590614bc4565b3381600201826001015481548110612c3d57634e487b7160e01b600052603260045260246000fd5b9060005260206000200160006101000a8154816001600160a01b0302191690836001600160a01b031602179055506001816001016000828254612c809190614cf8565b90915550506040517fad05497db7681a74140530daeedc0d0178492f9de1518990947e7cf27c83de5990611d349085903390614c9e565b6000610b5061010b6135b3565b6000610b506101096135b3565b61010d5490565b6000611bfe8383613706565b3390565b612cf28282611c05565b612b0a57612d0a816001600160a01b0316601461371e565b612d1583602061371e565b604051602001612d269291906143aa565b60408051601f198184030181529082905262461bcd60e51b8252610825916004016144e4565b60006001600160e01b03198216637965db0b60e01b1480610a8d5750610a8d826138d0565b600080866002811115612d9457634e487b7160e01b600052602160045260246000fd5b1480612dbf57506001866002811115612dbd57634e487b7160e01b600052602160045260246000fd5b145b612ddb5760405162461bcd60e51b8152600401610825906148bc565b600082118015612dec575060188211155b612e085760405162461bcd60e51b8152600401610825906149be565b60028910158015612e1a575060648911155b612e365760405162461bcd60e51b8152600401610825906145b6565b86158015612e4b5750612e47613199565b8810155b80612e6a57506001871515148015612e6a5750612e666135a5565b8810155b612e865760405162461bcd60e51b815260040161082590614b46565b60fd5460ff546001600160a01b03918216916323b872dd91339116612ea96135ca565b6040518463ffffffff1660e01b8152600401612ec79392919061444c565b602060405180830381600087803b158015612ee157600080fd5b505af1158015612ef5573d6000803e3d6000fd5b505050506040513d601f19601f82011682018060405250810190612f199190614026565b612f355760405162461bcd60e51b8152600401610825906147e7565b612f3f60fb6138e9565b6000612f4b60fb6138f2565b9050604051806101c00160405280828152602001600081526020018b67ffffffffffffffff811115612f8d57634e487b7160e01b600052604160045260246000fd5b604051908082528060200260200182016040528015612fb6578160200160208202803683370190505b508152602081018b90528915156040820152336060820152608001886002811115612ff157634e487b7160e01b600052602160045260246000fd5b8152602001848152602001600015158152602001428152602001600081526020016000815260200187878080601f01602080910402602001604051908101604052809392919081815260200183838082843760009201829052509385525050506020918201879052838152610108825260409081902083518155838301516001820155908301518051919261308e92600285019290910190613e56565b5060608201516003820155608082015160048201805460a08501516001600160a01b031661010002610100600160a81b031993151560ff1990921691909117929092169190911780825560c0840151919060ff60a81b1916600160a81b83600281111561310b57634e487b7160e01b600052602160045260246000fd5b021790555060e0820151600582015561010082015160068201805460ff1916911515919091179055610120820151600782015561014082015160088201556101608201516009820155610180820151805161317091600a840191602090910190613ebb565b506101a09190910151600b9091015561318b6101098261350e565b509998505050505050505050565b6000610b50610105546138f6565b6000805b825181101561326f576000805b856020015181101561324b57856040015181815181106131e857634e487b7160e01b600052603260045260246000fd5b60200260200101516001600160a01b031685848151811061321957634e487b7160e01b600052603260045260246000fd5b60200260200101516001600160a01b03161415613239576001915061324b565b8061324381614ef6565b9150506131b8565b508061325c57600092505050611bb2565b508061326781614ef6565b9150506131ab565b5060019392505050565b805182516060918491849111156132905750829050835b6000815183516132a09190614cf8565b905060008167ffffffffffffffff8111156132cb57634e487b7160e01b600052604160045260246000fd5b6040519080825280602002602001820160405280156132f4578160200160208202803683370190505b5090506000805b8551811015613422576000805b86518110156133945786818151811061333157634e487b7160e01b600052603260045260246000fd5b60200260200101516001600160a01b031688848151811061336257634e487b7160e01b600052603260045260246000fd5b60200260200101516001600160a01b031614156133825760019150613394565b8061338c81614ef6565b915050613308565b508061340f578682815181106133ba57634e487b7160e01b600052603260045260246000fd5b60200260200101518484806133ce90614ef6565b9550815181106133ee57634e487b7160e01b600052603260045260246000fd5b60200260200101906001600160a01b031690816001600160a01b0316815250505b508061341a81614ef6565b9150506132fb565b5060008167ffffffffffffffff81111561344c57634e487b7160e01b600052604160045260246000fd5b604051908082528060200260200182016040528015613475578160200160208202803683370190505b50905060005b828110156134f5578381815181106134a357634e487b7160e01b600052603260045260246000fd5b60200260200101518282815181106134cb57634e487b7160e01b600052603260045260246000fd5b6001600160a01b0390921660209283029190910190910152806134ed81614ef6565b91505061347b565b5098975050505050505050565b6000611bfe83836139ad565b6000611bfe8383613ac4565b61352382610b79565b61352f8161085b612ce4565b61161d8383613b0e565b6000611bfe836001600160a01b038416613ac4565b613556612ce4565b6001600160a01b0316816001600160a01b0316146135865760405162461bcd60e51b815260040161082590614c3c565b612b0a8282613b95565b6000611bfe836001600160a01b0384166139ad565b6000610b5061010554613c1a565b6000610a8d826138f2565b6000611bfe8383613c64565b6000610b50610102546138f6565b6135e182610b79565b6135ed8161085b612ce4565b61161d8383613b95565b600054610100900460ff1680613610575060005460ff16155b61362c5760405162461bcd60e51b81526004016108259061482c565b600054610100900460ff16158015613657576000805460ff1961ff0019909116610100171660011790555b61365f613cbd565b613667613cbd565b61366f613cbd565b613677613cbd565b8015613689576000805461ff00191690555b50565b600054610100900460ff16806136a5575060005460ff16155b6136c15760405162461bcd60e51b81526004016108259061482c565b600054610100900460ff161580156136ec576000805460ff1961ff0019909116610100171660011790555b6136f4613cbd565b613677613d30565b6116058282613dae565b60009081526001919091016020526040902054151590565b6060600061372d836002614e44565b613738906002614cf8565b67ffffffffffffffff81111561375e57634e487b7160e01b600052604160045260246000fd5b6040519080825280601f01601f191660200182016040528015613788576020820181803683370190505b509050600360fc1b816000815181106137b157634e487b7160e01b600052603260045260246000fd5b60200101906001600160f81b031916908160001a905350600f60fb1b816001815181106137ee57634e487b7160e01b600052603260045260246000fd5b60200101906001600160f81b031916908160001a9053506000613812846002614e44565b61381d906001614cf8565b90505b60018111156138b1576f181899199a1a9b1b9c1cb0b131b232b360811b85600f166010811061385f57634e487b7160e01b600052603260045260246000fd5b1a60f81b82828151811061388357634e487b7160e01b600052603260045260246000fd5b60200101906001600160f81b031916908160001a90535060049490941c936138aa81614eaa565b9050613820565b508315611bfe5760405162461bcd60e51b815260040161082590614539565b6001600160e01b031981166301ffc9a760e01b14919050565b80546001019055565b5490565b60008061010060009054906101000a90046001600160a01b03166001600160a01b031663b7d002076040518163ffffffff1660e01b815260040160206040518083038186803b15801561394857600080fd5b505afa15801561395c573d6000803e3d6000fd5b505050506040513d601f19601f8201168201806040525081019061398091906140ea565b905061398e6006600a614d76565b6139988285614e44565b6139a3906004614e44565b611bfe9190614d10565b60008181526001830160205260408120548015613aba5760006139d1600183614e63565b85549091506000906139e590600190614e63565b90506000866000018281548110613a0c57634e487b7160e01b600052603260045260246000fd5b9060005260206000200154905080876000018481548110613a3d57634e487b7160e01b600052603260045260246000fd5b600091825260208083209091019290925582815260018901909152604090208490558654879080613a7e57634e487b7160e01b600052603160045260246000fd5b60019003818190600052602060002001600090559055866001016000878152602001908152602001600020600090556001945050505050611bb2565b6000915050611bb2565b6000613ad08383613706565b613b0657508154600181810184556000848152602080822090930184905584548482528286019093526040902091909155611bb2565b506000611bb2565b613b188282611c05565b612b0a5760008281526065602090815260408083206001600160a01b03851684529091529020805460ff19166001179055613b51612ce4565b6001600160a01b0316816001600160a01b0316837f2f8788117e7eff1d82e926ec794901d17c78024a50270940304540a733656f0d60405160405180910390a45050565b613b9f8282611c05565b15612b0a5760008281526065602090815260408083206001600160a01b03851684529091529020805460ff19169055613bd6612ce4565b6001600160a01b0316816001600160a01b0316837ff6391f5c32d9c69d2a47ea670b442974b53935d1edc7fd64eb21e047a839171b60405160405180910390a45050565b6000613c286006600a614d76565b613c346012600a614d76565b6101075461010654613c469086614e44565b613c509190614d10565b613c5a9190614e44565b610a8d9190614d10565b81546000908210613c875760405162461bcd60e51b8152600401610825906144f7565b826000018281548110613caa57634e487b7160e01b600052603260045260246000fd5b9060005260206000200154905092915050565b600054610100900460ff1680613cd6575060005460ff16155b613cf25760405162461bcd60e51b81526004016108259061482c565b600054610100900460ff16158015613677576000805460ff1961ff0019909116610100171660011790558015613689576000805461ff001916905550565b600054610100900460ff1680613d49575060005460ff16155b613d655760405162461bcd60e51b81526004016108259061482c565b600054610100900460ff16158015613d90576000805460ff1961ff0019909116610100171660011790555b60c9805460ff191690558015613689576000805461ff001916905550565b612b0a8282613b0e565b604051806101c001604052806000815260200160008152602001606081526020016000815260200160001515815260200160006001600160a01b0316815260200160006002811115613e1a57634e487b7160e01b600052602160045260246000fd5b81526020016000815260200160001515815260200160008152602001600081526020016000815260200160608152602001600080191681525090565b828054828255906000526020600020908101928215613eab579160200282015b82811115613eab57825182546001600160a01b0319166001600160a01b03909116178255602090920191600190910190613e76565b50613eb7929150613f2f565b5090565b828054613ec790614ec1565b90600052602060002090601f016020900481019282613ee95760008555613eab565b82601f10613f0257805160ff1916838001178555613eab565b82800160010185558215613eab579182015b82811115613eab578251825591602001919060010190613f14565b5b80821115613eb75760008155600101613f30565b8035610a9081614f3d565b600082601f830112613f5f578081fd5b8135602067ffffffffffffffff80831115613f7c57613f7c614f27565b81830260405183828201018181108482111715613f9b57613f9b614f27565b60405284815283810192508684018288018501891015613fb9578687fd5b8692505b85831015613fe257613fce81613f44565b845292840192600192909201918401613fbd565b50979650505050505050565b600060208284031215613fff578081fd5b8135611bfe81614f3d565b60006020828403121561401b578081fd5b8151611bfe81614f3d565b600060208284031215614037578081fd5b8151611bfe81614f52565b600060208284031215614053578081fd5b5035919050565b6000806040838503121561406c578081fd5b82359150602083013561407e81614f3d565b809150509250929050565b6000806040838503121561409b578182fd5b50508035926020909101359150565b6000602082840312156140bb578081fd5b81356001600160e01b031981168114611bfe578182fd5b60006101c082840312156140e4578081fd5b50919050565b6000602082840312156140fb578081fd5b5051919050565b600080600060608486031215614116578081fd5b83359250602084013567ffffffffffffffff80821115614134578283fd5b61414087838801613f4f565b93506040860135915080821115614155578283fd5b5061416286828701613f4f565b9150509250925092565b60008060008060008060008060e0898b031215614187578586fd5b883597506020890135965060408901356141a081614f52565b95506060890135600381106141b3578485fd5b9450608089013567ffffffffffffffff808211156141cf578586fd5b818b0191508b601f8301126141e2578586fd5b8135818111156141f0578687fd5b8c6020828501011115614201578687fd5b999c989b50969995986020919091019790965060a08601359560c00135945092505050565b6001600160a01b03169052565b6000815180845260208085019450808401835b8381101561426b5781516001600160a01b031687529582019590820190600101614246565b509495945050505050565b15159052565b6003811061429a57634e487b7160e01b600052602160045260246000fd5b9052565b600081518084526142b6816020860160208601614e7a565b601f01601f19169290920160200192915050565b60006101c0825184526020830151602085015260408301518160408601526142f482860182614233565b9150506060830151606085015260808301516143136080860182614276565b5060a083015161432660a0860182614226565b5060c083015161433960c086018261427c565b5060e083015160e08501526101008084015161435782870182614276565b50506101208381015190850152610140808401519085015261016080840151908501526101808084015185830382870152614392838261429e565b6101a095860151969095019590955250919392505050565b60007f416363657373436f6e74726f6c3a206163636f756e7420000000000000000000825283516143e2816017850160208801614e7a565b7001034b99036b4b9b9b4b733903937b6329607d1b6017918401918201528351614413816028840160208801614e7a565b01602801949350505050565b6001600160a01b0391909116815260200190565b6001600160a01b03929092168252602082015260400190565b6001600160a01b039384168152919092166020820152604081019190915260600190565b6000602080830181845280855180835260408601915060408482028701019250838701855b828110156144c357603f198886030184526144b18583516142ca565b94509285019290850190600101614495565b5092979650505050505050565b901515815260200190565b90815260200190565b600060208252611bfe602083018461429e565b60208082526022908201527f456e756d657261626c655365743a20696e646578206f7574206f6620626f756e604082015261647360f01b606082015260800190565b6020808252818101527f537472696e67733a20686578206c656e67746820696e73756666696369656e74604082015260600190565b60208082526028908201527f4242543a207374616b65732073686f756c6420626520696e206e61746976652060408201526763757272656e637960c01b606082015260800190565b60208082526027908201527f4242543a20696e76616c6964206d6178206e756d626572206f66207061727469604082015266636970616e747360c81b606082015260800190565b6020808252601490820152734242543a20696e76616c696420696e646578657360601b604082015260600190565b6020808252601c908201527f4242543a20726f6f6d206973206e6f74206167656420656e6f75676800000000604082015260600190565b60208082526018908201527f4242543a20726f6f6d20616c7265616479206c6f636b65640000000000000000604082015260600190565b6020808252601e908201527f4242543a20696e76616c6964206e756d626572206f6620706c61796572730000604082015260600190565b6020808252603a908201527f4242543a2063616e6e6f74207265706f72742077696e6e657273206265666f7260408201527f65207374616b696e672077696e646f7720697320636c6f736564000000000000606082015260800190565b60208082526038908201527f4242543a206f6e65206f72206d6f7265206f66207265706f727465642077696e60408201527f6e65727320617265206e6f74207061727469636970616e740000000000000000606082015260800190565b60208082526038908201527f4242543a206f6e65206f72206d6f7265206f66207265706f7274656420706c6160408201527f7965727320617265206e6f74207061727469636970616e740000000000000000606082015260800190565b60208082526025908201527f4242543a204e6f7420656e6f75676820534e4b20666f7220726f6f6d2063726560408201526430ba34b7b760d91b606082015260800190565b6020808252602e908201527f496e697469616c697a61626c653a20636f6e747261637420697320616c72656160408201526d191e481a5b9a5d1a585b1a5e995960921b606082015260800190565b60208082526022908201527f4242543a206e6f206d6f7265207061727469636970616e747320706f737369626040820152616c6560f01b606082015260800190565b6020808252601590820152744242543a20756e737570706f72746564206d6f646560581b604082015260600190565b6020808252601d908201527f4242543a206c6f636b696e672077696e646f7720697320636c6f736564000000604082015260600190565b6020808252601490820152731090950e881a5b9d985b1a59081c9bdbdb481a5960621b604082015260600190565b60208082526017908201527f4242543a20726f6f6d206973206e6f74206c6f636b6564000000000000000000604082015260600190565b6020808252601d908201527f4242543a206e6f7420656e6f75676820534e4b20666f72207374616b65000000604082015260600190565b6020808252601390820152724242543a20696e76616c696420726f756e647360681b604082015260600190565b6020808252601f908201527f4242543a206e6f7420656e6f7567682066756e647320666f72207374616b6500604082015260600190565b60208082526015908201527421212a1d103737ba1030903937b7b69037bbb732b960591b604082015260600190565b6020808252601e908201527f4242543a20696e76616c6964206e756d626572206f662077696e6e6572730000604082015260600190565b6020808252601c908201527f4242543a207374616b65732073686f756c6420626520696e20534e4b00000000604082015260600190565b60208082526030908201527f4242543a2063616e6e6f74207265706f72742077696e6e657273206265666f7260408201526f19481c9bdbdb481a5cc81b1bd8dad95960821b606082015260800190565b6020808252601a908201527f4242543a207374616b696e672077696e646f7720636c6f736564000000000000604082015260600190565b60208082526027908201527f4242543a2072657175697265645374616b65206973206c657373207468616e206040820152661b5a5b9a5b585b60ca1b606082015260800190565b60208082526017908201527f4242543a20726f6f6d206973206e6f7420616374697665000000000000000000604082015260600190565b6020808252601590820152744242543a20726f6f6d206973206e6f74206672656560581b604082015260600190565b60208082526029908201527f4242543a206e6f7420656e6f756768206e61746976652063757272656e637920604082015268666f72207374616b6560b81b606082015260800190565b6020808252602f908201527f416363657373436f6e74726f6c3a2063616e206f6e6c792072656e6f756e636560408201526e103937b632b9903337b91039b2b63360891b606082015260800190565b600060208252611bfe60208301846142ca565b9182526001600160a01b0316602082015260400190565b600084825260606020830152614cce6060830185614233565b8281036040840152614ce08185614233565b9695505050505050565b918252602082015260400190565b60008219821115614d0b57614d0b614f11565b500190565b600082614d2b57634e487b7160e01b81526012600452602481fd5b500490565b80825b6001808611614d425750614d6d565b818704821115614d5457614d54614f11565b80861615614d6157918102915b9490941c938002614d33565b94509492505050565b6000611bfe6000198484600082614d8f57506001611bfe565b81614d9c57506000611bfe565b8160018114614db25760028114614dbc57614de9565b6001915050611bfe565b60ff841115614dcd57614dcd614f11565b6001841b915084821115614de357614de3614f11565b50611bfe565b5060208310610133831016604e8410600b8410161715614e1c575081810a83811115614e1757614e17614f11565b611bfe565b614e298484846001614d30565b808604821115614e3b57614e3b614f11565b02949350505050565b6000816000190483118215151615614e5e57614e5e614f11565b500290565b600082821015614e7557614e75614f11565b500390565b60005b83811015614e95578181015183820152602001614e7d565b83811115614ea4576000848401525b50505050565b600081614eb957614eb9614f11565b506000190190565b600281046001821680614ed557607f821691505b602082108114156140e457634e487b7160e01b600052602260045260246000fd5b6000600019821415614f0a57614f0a614f11565b5060010190565b634e487b7160e01b600052601160045260246000fd5b634e487b7160e01b600052604160045260246000fd5b6001600160a01b038116811461368957600080fd5b801515811461368957600080fdfe65d7a28e3265b37a6474929f336521b332c1681b933f6cb9f3376673440d862aa2646970667358221220390fb7d2d917b581f91a8d5eaf6c8802c96e7f63f87e7606b53a3a4758cc078f64736f6c63430008000033",
  "devdoc": {
    "kind": "dev",
    "methods": {
      "getRoleAdmin(bytes32)": {
        "details": "Returns the admin role that controls `role`. See {grantRole} and {revokeRole}. To change a role's admin, use {_setRoleAdmin}."
      },
      "getRoleMember(bytes32,uint256)": {
        "details": "Returns one of the accounts that have `role`. `index` must be a value between 0 and {getRoleMemberCount}, non-inclusive. Role bearers are not sorted in any particular way, and their ordering may change at any point. WARNING: When using {getRoleMember} and {getRoleMemberCount}, make sure you perform all queries on the same block. See the following https://forum.openzeppelin.com/t/iterating-over-elements-on-enumerableset-in-openzeppelin-contracts/2296[forum post] for more information."
      },
      "getRoleMemberCount(bytes32)": {
        "details": "Returns the number of accounts that have `role`. Can be used together with {getRoleMember} to enumerate all bearers of a role."
      },
      "grantRole(bytes32,address)": {
        "details": "Overload {grantRole} to track enumerable memberships"
      },
      "hasRole(bytes32,address)": {
        "details": "Returns `true` if `account` has been granted `role`."
      },
      "lockRoom(uint256)": {
        "details": "After room locking, the stakes are possible during staking window."
      },
      "paused()": {
        "details": "Returns true if the contract is paused, and false otherwise."
      },
      "renounceRole(bytes32,address)": {
        "details": "Overload {renounceRole} to track enumerable memberships"
      },
      "reportWinners(uint256,address[],address[])": {
        "details": "Not all participants may successfully join the game (the server may not see an event of the stake from one of them). So we return the stake to participants who staked but not played. "
      },
      "revokeRole(bytes32,address)": {
        "details": "Overload {revokeRole} to track enumerable memberships"
      },
      "supportsInterface(bytes4)": {
        "details": "See {IERC165-supportsInterface}."
      }
    },
    "version": 1
  },
  "userdoc": {
    "kind": "user",
    "methods": {},
    "version": 1
  },
  "storageLayout": {
    "storage": [
      {
        "astId": 753,
        "contract": "contracts/BigBoyTable.sol:BigBoyTable",
        "label": "_initialized",
        "offset": 0,
        "slot": "0",
        "type": "t_bool"
      },
      {
        "astId": 756,
        "contract": "contracts/BigBoyTable.sol:BigBoyTable",
        "label": "_initializing",
        "offset": 1,
        "slot": "0",
        "type": "t_bool"
      },
      {
        "astId": 2658,
        "contract": "contracts/BigBoyTable.sol:BigBoyTable",
        "label": "__gap",
        "offset": 0,
        "slot": "1",
        "type": "t_array(t_uint256)50_storage"
      },
      {
        "astId": 2907,
        "contract": "contracts/BigBoyTable.sol:BigBoyTable",
        "label": "__gap",
        "offset": 0,
        "slot": "51",
        "type": "t_array(t_uint256)50_storage"
      },
      {
        "astId": 307,
        "contract": "contracts/BigBoyTable.sol:BigBoyTable",
        "label": "_roles",
        "offset": 0,
        "slot": "101",
        "type": "t_mapping(t_bytes32,t_struct(RoleData)302_storage)"
      },
      {
        "astId": 615,
        "contract": "contracts/BigBoyTable.sol:BigBoyTable",
        "label": "__gap",
        "offset": 0,
        "slot": "102",
        "type": "t_array(t_uint256)49_storage"
      },
      {
        "astId": 62,
        "contract": "contracts/BigBoyTable.sol:BigBoyTable",
        "label": "_roleMembers",
        "offset": 0,
        "slot": "151",
        "type": "t_mapping(t_bytes32,t_struct(AddressSet)3206_storage)"
      },
      {
        "astId": 219,
        "contract": "contracts/BigBoyTable.sol:BigBoyTable",
        "label": "__gap",
        "offset": 0,
        "slot": "152",
        "type": "t_array(t_uint256)49_storage"
      },
      {
        "astId": 814,
        "contract": "contracts/BigBoyTable.sol:BigBoyTable",
        "label": "_paused",
        "offset": 0,
        "slot": "201",
        "type": "t_bool"
      },
      {
        "astId": 905,
        "contract": "contracts/BigBoyTable.sol:BigBoyTable",
        "label": "__gap",
        "offset": 0,
        "slot": "202",
        "type": "t_array(t_uint256)49_storage"
      },
      {
        "astId": 9643,
        "contract": "contracts/BigBoyTable.sol:BigBoyTable",
        "label": "_roomIds",
        "offset": 0,
        "slot": "251",
        "type": "t_struct(Counter)4707_storage"
      },
      {
        "astId": 9645,
        "contract": "contracts/BigBoyTable.sol:BigBoyTable",
        "label": "_foundersAddress",
        "offset": 0,
        "slot": "252",
        "type": "t_address_payable"
      },
      {
        "astId": 9648,
        "contract": "contracts/BigBoyTable.sol:BigBoyTable",
        "label": "_skill",
        "offset": 0,
        "slot": "253",
        "type": "t_contract(ISkillToken)13926"
      },
      {
        "astId": 9651,
        "contract": "contracts/BigBoyTable.sol:BigBoyTable",
        "label": "_collectionList",
        "offset": 0,
        "slot": "254",
        "type": "t_contract(ICollectionList)13618"
      },
      {
        "astId": 9653,
        "contract": "contracts/BigBoyTable.sol:BigBoyTable",
        "label": "_ecosystem",
        "offset": 0,
        "slot": "255",
        "type": "t_address"
      },
      {
        "astId": 9656,
        "contract": "contracts/BigBoyTable.sol:BigBoyTable",
        "label": "_uniswap",
        "offset": 0,
        "slot": "256",
        "type": "t_contract(IUniswapUSDCSkill)14464"
      },
      {
        "astId": 9658,
        "contract": "contracts/BigBoyTable.sol:BigBoyTable",
        "label": "_winningFeeInPercents",
        "offset": 0,
        "slot": "257",
        "type": "t_uint256"
      },
      {
        "astId": 9660,
        "contract": "contracts/BigBoyTable.sol:BigBoyTable",
        "label": "_roomCreationPriceInUSDC",
        "offset": 0,
        "slot": "258",
        "type": "t_uint256"
      },
      {
        "astId": 9662,
        "contract": "contracts/BigBoyTable.sol:BigBoyTable",
        "label": "_stakingWindowInSeconds",
        "offset": 0,
        "slot": "259",
        "type": "t_uint256"
      },
      {
        "astId": 9664,
        "contract": "contracts/BigBoyTable.sol:BigBoyTable",
        "label": "_activeRoomDeletionDelayInSeconds",
        "offset": 0,
        "slot": "260",
        "type": "t_uint256"
      },
      {
        "astId": 9666,
        "contract": "contracts/BigBoyTable.sol:BigBoyTable",
        "label": "_minimalStakeInUSDC",
        "offset": 0,
        "slot": "261",
        "type": "t_uint256"
      },
      {
        "astId": 9668,
        "contract": "contracts/BigBoyTable.sol:BigBoyTable",
        "label": "_native2usdcNumerator",
        "offset": 0,
        "slot": "262",
        "type": "t_uint256"
      },
      {
        "astId": 9670,
        "contract": "contracts/BigBoyTable.sol:BigBoyTable",
        "label": "_native2usdcDenominator",
        "offset": 0,
        "slot": "263",
        "type": "t_uint256"
      },
      {
        "astId": 9675,
        "contract": "contracts/BigBoyTable.sol:BigBoyTable",
        "label": "_rooms",
        "offset": 0,
        "slot": "264",
        "type": "t_mapping(t_uint256,t_struct(Room)13083_storage)"
      },
      {
        "astId": 9678,
        "contract": "contracts/BigBoyTable.sol:BigBoyTable",
        "label": "_activeRoomIds",
        "offset": 0,
        "slot": "265",
        "type": "t_struct(UintSet)5211_storage"
      },
      {
        "astId": 9681,
        "contract": "contracts/BigBoyTable.sol:BigBoyTable",
        "label": "_finishedRoomIds",
        "offset": 0,
        "slot": "267",
        "type": "t_struct(UintSet)5211_storage"
      },
      {
        "astId": 9683,
        "contract": "contracts/BigBoyTable.sol:BigBoyTable",
        "label": "_lockingWindowInSeconds",
        "offset": 0,
        "slot": "269",
        "type": "t_uint256"
      }
    ],
    "types": {
      "t_address": {
        "encoding": "inplace",
        "label": "address",
        "numberOfBytes": "20"
      },
      "t_address_payable": {
        "encoding": "inplace",
        "label": "address payable",
        "numberOfBytes": "20"
      },
      "t_array(t_address_payable)dyn_storage": {
        "base": "t_address_payable",
        "encoding": "dynamic_array",
        "label": "address payable[]",
        "numberOfBytes": "32"
      },
      "t_array(t_bytes32)dyn_storage": {
        "base": "t_bytes32",
        "encoding": "dynamic_array",
        "label": "bytes32[]",
        "numberOfBytes": "32"
      },
      "t_array(t_uint256)49_storage": {
        "base": "t_uint256",
        "encoding": "inplace",
        "label": "uint256[49]",
        "numberOfBytes": "1568"
      },
      "t_array(t_uint256)50_storage": {
        "base": "t_uint256",
        "encoding": "inplace",
        "label": "uint256[50]",
        "numberOfBytes": "1600"
      },
      "t_bool": {
        "encoding": "inplace",
        "label": "bool",
        "numberOfBytes": "1"
      },
      "t_bytes32": {
        "encoding": "inplace",
        "label": "bytes32",
        "numberOfBytes": "32"
      },
      "t_contract(ICollectionList)13618": {
        "encoding": "inplace",
        "label": "contract ICollectionList",
        "numberOfBytes": "20"
      },
      "t_contract(ISkillToken)13926": {
        "encoding": "inplace",
        "label": "contract ISkillToken",
        "numberOfBytes": "20"
      },
      "t_contract(IUniswapUSDCSkill)14464": {
        "encoding": "inplace",
        "label": "contract IUniswapUSDCSkill",
        "numberOfBytes": "20"
      },
      "t_enum(ROOM_MODE)13052": {
        "encoding": "inplace",
        "label": "enum IBigBoyTable.ROOM_MODE",
        "numberOfBytes": "1"
      },
      "t_mapping(t_address,t_bool)": {
        "encoding": "mapping",
        "key": "t_address",
        "label": "mapping(address => bool)",
        "numberOfBytes": "32",
        "value": "t_bool"
      },
      "t_mapping(t_bytes32,t_struct(AddressSet)3206_storage)": {
        "encoding": "mapping",
        "key": "t_bytes32",
        "label": "mapping(bytes32 => struct EnumerableSetUpgradeable.AddressSet)",
        "numberOfBytes": "32",
        "value": "t_struct(AddressSet)3206_storage"
      },
      "t_mapping(t_bytes32,t_struct(RoleData)302_storage)": {
        "encoding": "mapping",
        "key": "t_bytes32",
        "label": "mapping(bytes32 => struct AccessControlUpgradeable.RoleData)",
        "numberOfBytes": "32",
        "value": "t_struct(RoleData)302_storage"
      },
      "t_mapping(t_bytes32,t_uint256)": {
        "encoding": "mapping",
        "key": "t_bytes32",
        "label": "mapping(bytes32 => uint256)",
        "numberOfBytes": "32",
        "value": "t_uint256"
      },
      "t_mapping(t_uint256,t_struct(Room)13083_storage)": {
        "encoding": "mapping",
        "key": "t_uint256",
        "label": "mapping(uint256 => struct IBigBoyTable.Room)",
        "numberOfBytes": "32",
        "value": "t_struct(Room)13083_storage"
      },
      "t_string_storage": {
        "encoding": "bytes",
        "label": "string",
        "numberOfBytes": "32"
      },
      "t_struct(AddressSet)3206_storage": {
        "encoding": "inplace",
        "label": "struct EnumerableSetUpgradeable.AddressSet",
        "members": [
          {
            "astId": 3205,
            "contract": "contracts/BigBoyTable.sol:BigBoyTable",
            "label": "_inner",
            "offset": 0,
            "slot": "0",
            "type": "t_struct(Set)2931_storage"
          }
        ],
        "numberOfBytes": "64"
      },
      "t_struct(Counter)4707_storage": {
        "encoding": "inplace",
        "label": "struct Counters.Counter",
        "members": [
          {
            "astId": 4706,
            "contract": "contracts/BigBoyTable.sol:BigBoyTable",
            "label": "_value",
            "offset": 0,
            "slot": "0",
            "type": "t_uint256"
          }
        ],
        "numberOfBytes": "32"
      },
      "t_struct(RoleData)302_storage": {
        "encoding": "inplace",
        "label": "struct AccessControlUpgradeable.RoleData",
        "members": [
          {
            "astId": 299,
            "contract": "contracts/BigBoyTable.sol:BigBoyTable",
            "label": "members",
            "offset": 0,
            "slot": "0",
            "type": "t_mapping(t_address,t_bool)"
          },
          {
            "astId": 301,
            "contract": "contracts/BigBoyTable.sol:BigBoyTable",
            "label": "adminRole",
            "offset": 0,
            "slot": "1",
            "type": "t_bytes32"
          }
        ],
        "numberOfBytes": "64"
      },
      "t_struct(Room)13083_storage": {
        "encoding": "inplace",
        "label": "struct IBigBoyTable.Room",
        "members": [
          {
            "astId": 13054,
            "contract": "contracts/BigBoyTable.sol:BigBoyTable",
            "label": "id",
            "offset": 0,
            "slot": "0",
            "type": "t_uint256"
          },
          {
            "astId": 13056,
            "contract": "contracts/BigBoyTable.sol:BigBoyTable",
            "label": "participantCount",
            "offset": 0,
            "slot": "1",
            "type": "t_uint256"
          },
          {
            "astId": 13059,
            "contract": "contracts/BigBoyTable.sol:BigBoyTable",
            "label": "participants",
            "offset": 0,
            "slot": "2",
            "type": "t_array(t_address_payable)dyn_storage"
          },
          {
            "astId": 13061,
            "contract": "contracts/BigBoyTable.sol:BigBoyTable",
            "label": "requiredStakeAmount",
            "offset": 0,
            "slot": "3",
            "type": "t_uint256"
          },
          {
            "astId": 13063,
            "contract": "contracts/BigBoyTable.sol:BigBoyTable",
            "label": "isStakeInNativeCurrency",
            "offset": 0,
            "slot": "4",
            "type": "t_bool"
          },
          {
            "astId": 13065,
            "contract": "contracts/BigBoyTable.sol:BigBoyTable",
            "label": "owner",
            "offset": 1,
            "slot": "4",
            "type": "t_address_payable"
          },
          {
            "astId": 13068,
            "contract": "contracts/BigBoyTable.sol:BigBoyTable",
            "label": "roomMode",
            "offset": 21,
            "slot": "4",
            "type": "t_enum(ROOM_MODE)13052"
          },
          {
            "astId": 13070,
            "contract": "contracts/BigBoyTable.sol:BigBoyTable",
            "label": "rounds",
            "offset": 0,
            "slot": "5",
            "type": "t_uint256"
          },
          {
            "astId": 13072,
            "contract": "contracts/BigBoyTable.sol:BigBoyTable",
            "label": "canJoinForFree",
            "offset": 0,
            "slot": "6",
            "type": "t_bool"
          },
          {
            "astId": 13074,
            "contract": "contracts/BigBoyTable.sol:BigBoyTable",
            "label": "createdAt",
            "offset": 0,
            "slot": "7",
            "type": "t_uint256"
          },
          {
            "astId": 13076,
            "contract": "contracts/BigBoyTable.sol:BigBoyTable",
            "label": "lockedAt",
            "offset": 0,
            "slot": "8",
            "type": "t_uint256"
          },
          {
            "astId": 13078,
            "contract": "contracts/BigBoyTable.sol:BigBoyTable",
            "label": "totalStake",
            "offset": 0,
            "slot": "9",
            "type": "t_uint256"
          },
          {
            "astId": 13080,
            "contract": "contracts/BigBoyTable.sol:BigBoyTable",
            "label": "pwdRef",
            "offset": 0,
            "slot": "10",
            "type": "t_string_storage"
          },
          {
            "astId": 13082,
            "contract": "contracts/BigBoyTable.sol:BigBoyTable",
            "label": "collectionId",
            "offset": 0,
            "slot": "11",
            "type": "t_bytes32"
          }
        ],
        "numberOfBytes": "384"
      },
      "t_struct(Set)2931_storage": {
        "encoding": "inplace",
        "label": "struct EnumerableSetUpgradeable.Set",
        "members": [
          {
            "astId": 2926,
            "contract": "contracts/BigBoyTable.sol:BigBoyTable",
            "label": "_values",
            "offset": 0,
            "slot": "0",
            "type": "t_array(t_bytes32)dyn_storage"
          },
          {
            "astId": 2930,
            "contract": "contracts/BigBoyTable.sol:BigBoyTable",
            "label": "_indexes",
            "offset": 0,
            "slot": "1",
            "type": "t_mapping(t_bytes32,t_uint256)"
          }
        ],
        "numberOfBytes": "64"
      },
      "t_struct(Set)4809_storage": {
        "encoding": "inplace",
        "label": "struct EnumerableSet.Set",
        "members": [
          {
            "astId": 4804,
            "contract": "contracts/BigBoyTable.sol:BigBoyTable",
            "label": "_values",
            "offset": 0,
            "slot": "0",
            "type": "t_array(t_bytes32)dyn_storage"
          },
          {
            "astId": 4808,
            "contract": "contracts/BigBoyTable.sol:BigBoyTable",
            "label": "_indexes",
            "offset": 0,
            "slot": "1",
            "type": "t_mapping(t_bytes32,t_uint256)"
          }
        ],
        "numberOfBytes": "64"
      },
      "t_struct(UintSet)5211_storage": {
        "encoding": "inplace",
        "label": "struct EnumerableSet.UintSet",
        "members": [
          {
            "astId": 5210,
            "contract": "contracts/BigBoyTable.sol:BigBoyTable",
            "label": "_inner",
            "offset": 0,
            "slot": "0",
            "type": "t_struct(Set)4809_storage"
          }
        ],
        "numberOfBytes": "64"
      },
      "t_uint256": {
        "encoding": "inplace",
        "label": "uint256",
        "numberOfBytes": "32"
      }
    }
  }
}