{
  "address": "0x50df53b4473DE4e7767B33916Fb0194817231ACb",
  "abi": [
    {
      "anonymous": false,
      "inputs": [
        {
          "indexed": false,
          "internalType": "bytes32",
          "name": "collectionId",
          "type": "bytes32"
        }
      ],
      "name": "CollectionAdded",
      "type": "event"
    },
    {
      "anonymous": false,
      "inputs": [
        {
          "indexed": false,
          "internalType": "bytes32",
          "name": "collectionId",
          "type": "bytes32"
        }
      ],
      "name": "CollectionRemoved",
      "type": "event"
    },
    {
      "anonymous": false,
      "inputs": [
        {
          "indexed": false,
          "internalType": "bytes32",
          "name": "collectionId",
          "type": "bytes32"
        },
        {
          "indexed": false,
          "internalType": "uint256",
          "name": "releasedCount",
          "type": "uint256"
        },
        {
          "indexed": false,
          "internalType": "uint256",
          "name": "remainingCount",
          "type": "uint256"
        }
      ],
      "name": "DepositsReleased",
      "type": "event"
    },
    {
      "anonymous": false,
      "inputs": [
        {
          "indexed": false,
          "internalType": "address",
          "name": "account",
          "type": "address"
        }
      ],
      "name": "Paused",
      "type": "event"
    },
    {
      "anonymous": false,
      "inputs": [
        {
          "indexed": true,
          "internalType": "bytes32",
          "name": "role",
          "type": "bytes32"
        },
        {
          "indexed": true,
          "internalType": "bytes32",
          "name": "previousAdminRole",
          "type": "bytes32"
        },
        {
          "indexed": true,
          "internalType": "bytes32",
          "name": "newAdminRole",
          "type": "bytes32"
        }
      ],
      "name": "RoleAdminChanged",
      "type": "event"
    },
    {
      "anonymous": false,
      "inputs": [
        {
          "indexed": true,
          "internalType": "bytes32",
          "name": "role",
          "type": "bytes32"
        },
        {
          "indexed": true,
          "internalType": "address",
          "name": "account",
          "type": "address"
        },
        {
          "indexed": true,
          "internalType": "address",
          "name": "sender",
          "type": "address"
        }
      ],
      "name": "RoleGranted",
      "type": "event"
    },
    {
      "anonymous": false,
      "inputs": [
        {
          "indexed": true,
          "internalType": "bytes32",
          "name": "role",
          "type": "bytes32"
        },
        {
          "indexed": true,
          "internalType": "address",
          "name": "account",
          "type": "address"
        },
        {
          "indexed": true,
          "internalType": "address",
          "name": "sender",
          "type": "address"
        }
      ],
      "name": "RoleRevoked",
      "type": "event"
    },
    {
      "anonymous": false,
      "inputs": [
        {
          "indexed": false,
          "internalType": "bytes32",
          "name": "collectionId",
          "type": "bytes32"
        },
        {
          "indexed": false,
          "internalType": "address",
          "name": "depositor",
          "type": "address"
        },
        {
          "indexed": false,
          "internalType": "uint256",
          "name": "amount",
          "type": "uint256"
        },
        {
          "indexed": false,
          "internalType": "bool",
          "name": "newStatus",
          "type": "bool"
        }
      ],
      "name": "SNKDeposited",
      "type": "event"
    },
    {
      "anonymous": false,
      "inputs": [
        {
          "indexed": false,
          "internalType": "bytes32",
          "name": "collectionId",
          "type": "bytes32"
        },
        {
          "indexed": false,
          "internalType": "address",
          "name": "depositor",
          "type": "address"
        },
        {
          "indexed": false,
          "internalType": "uint256",
          "name": "amount",
          "type": "uint256"
        },
        {
          "indexed": false,
          "internalType": "bool",
          "name": "newStatus",
          "type": "bool"
        }
      ],
      "name": "SNKWithdrawn",
      "type": "event"
    },
    {
      "anonymous": false,
      "inputs": [
        {
          "indexed": false,
          "internalType": "address",
          "name": "account",
          "type": "address"
        }
      ],
      "name": "Unpaused",
      "type": "event"
    },
    {
      "inputs": [],
      "name": "DEFAULT_ADMIN_ROLE",
      "outputs": [
        {
          "internalType": "bytes32",
          "name": "",
          "type": "bytes32"
        }
      ],
      "stateMutability": "view",
      "type": "function"
    },
    {
      "inputs": [
        {
          "internalType": "string",
          "name": "name",
          "type": "string"
        },
        {
          "internalType": "uint256",
          "name": "chainId",
          "type": "uint256"
        },
        {
          "internalType": "address",
          "name": "token",
          "type": "address"
        },
        {
          "internalType": "uint256",
          "name": "accessThresholdInCollectionTokens",
          "type": "uint256"
        },
        {
          "internalType": "uint256",
          "name": "activityThresholdInSNK",
          "type": "uint256"
        },
        {
          "internalType": "uint256",
          "name": "lockPeriodInSeconds",
          "type": "uint256"
        },
        {
          "internalType": "uint256",
          "name": "revshareInPercents",
          "type": "uint256"
        },
        {
          "internalType": "address payable",
          "name": "revshareRecipient",
          "type": "address"
        }
      ],
      "name": "addCollection",
      "outputs": [],
      "stateMutability": "nonpayable",
      "type": "function"
    },
    {
      "inputs": [
        {
          "internalType": "bytes32",
          "name": "collectionId",
          "type": "bytes32"
        },
        {
          "internalType": "uint256",
          "name": "amount",
          "type": "uint256"
        }
      ],
      "name": "depositSNK",
      "outputs": [],
      "stateMutability": "nonpayable",
      "type": "function"
    },
    {
      "inputs": [
        {
          "internalType": "bytes32",
          "name": "collectionId",
          "type": "bytes32"
        }
      ],
      "name": "getCollection",
      "outputs": [
        {
          "components": [
            {
              "internalType": "bytes32",
              "name": "id",
              "type": "bytes32"
            },
            {
              "internalType": "string",
              "name": "name",
              "type": "string"
            },
            {
              "internalType": "uint256",
              "name": "chainId",
              "type": "uint256"
            },
            {
              "internalType": "address",
              "name": "token",
              "type": "address"
            },
            {
              "internalType": "uint256",
              "name": "accessThresholdInCollectionTokens",
              "type": "uint256"
            },
            {
              "internalType": "uint256",
              "name": "activityThresholdInSNK",
              "type": "uint256"
            },
            {
              "internalType": "uint256",
              "name": "lockPeriodInSeconds",
              "type": "uint256"
            },
            {
              "internalType": "uint256",
              "name": "revshareInPercents",
              "type": "uint256"
            },
            {
              "internalType": "address payable",
              "name": "revshareRecipient",
              "type": "address"
            },
            {
              "internalType": "uint256",
              "name": "depositedSNK",
              "type": "uint256"
            },
            {
              "internalType": "bool",
              "name": "active",
              "type": "bool"
            },
            {
              "internalType": "uint256",
              "name": "lockedAt",
              "type": "uint256"
            },
            {
              "internalType": "bool",
              "name": "depositsEnabled",
              "type": "bool"
            }
          ],
          "internalType": "struct ICollectionList.Collection",
          "name": "",
          "type": "tuple"
        }
      ],
      "stateMutability": "view",
      "type": "function"
    },
    {
      "inputs": [],
      "name": "getCollectionCount",
      "outputs": [
        {
          "internalType": "uint256",
          "name": "",
          "type": "uint256"
        }
      ],
      "stateMutability": "view",
      "type": "function"
    },
    {
      "inputs": [
        {
          "internalType": "uint256",
          "name": "startIdx",
          "type": "uint256"
        },
        {
          "internalType": "uint256",
          "name": "endIdx",
          "type": "uint256"
        }
      ],
      "name": "getCollections",
      "outputs": [
        {
          "components": [
            {
              "internalType": "bytes32",
              "name": "id",
              "type": "bytes32"
            },
            {
              "internalType": "string",
              "name": "name",
              "type": "string"
            },
            {
              "internalType": "uint256",
              "name": "chainId",
              "type": "uint256"
            },
            {
              "internalType": "address",
              "name": "token",
              "type": "address"
            },
            {
              "internalType": "uint256",
              "name": "accessThresholdInCollectionTokens",
              "type": "uint256"
            },
            {
              "internalType": "uint256",
              "name": "activityThresholdInSNK",
              "type": "uint256"
            },
            {
              "internalType": "uint256",
              "name": "lockPeriodInSeconds",
              "type": "uint256"
            },
            {
              "internalType": "uint256",
              "name": "revshareInPercents",
              "type": "uint256"
            },
            {
              "internalType": "address payable",
              "name": "revshareRecipient",
              "type": "address"
            },
            {
              "internalType": "uint256",
              "name": "depositedSNK",
              "type": "uint256"
            },
            {
              "internalType": "bool",
              "name": "active",
              "type": "bool"
            },
            {
              "internalType": "uint256",
              "name": "lockedAt",
              "type": "uint256"
            },
            {
              "internalType": "bool",
              "name": "depositsEnabled",
              "type": "bool"
            }
          ],
          "internalType": "struct ICollectionList.Collection[]",
          "name": "",
          "type": "tuple[]"
        }
      ],
      "stateMutability": "view",
      "type": "function"
    },
    {
      "inputs": [
        {
          "internalType": "bytes32",
          "name": "collectionId",
          "type": "bytes32"
        }
      ],
      "name": "getDepositRecordCount",
      "outputs": [
        {
          "internalType": "uint256",
          "name": "",
          "type": "uint256"
        }
      ],
      "stateMutability": "view",
      "type": "function"
    },
    {
      "inputs": [],
      "name": "getPauserRole",
      "outputs": [
        {
          "internalType": "bytes32",
          "name": "",
          "type": "bytes32"
        }
      ],
      "stateMutability": "pure",
      "type": "function"
    },
    {
      "inputs": [
        {
          "internalType": "bytes32",
          "name": "collectionId",
          "type": "bytes32"
        }
      ],
      "name": "getRevshareInPercents",
      "outputs": [
        {
          "internalType": "uint256",
          "name": "",
          "type": "uint256"
        }
      ],
      "stateMutability": "view",
      "type": "function"
    },
    {
      "inputs": [
        {
          "internalType": "bytes32",
          "name": "collectionId",
          "type": "bytes32"
        }
      ],
      "name": "getRevshareRecipient",
      "outputs": [
        {
          "internalType": "address payable",
          "name": "",
          "type": "address"
        }
      ],
      "stateMutability": "view",
      "type": "function"
    },
    {
      "inputs": [
        {
          "internalType": "bytes32",
          "name": "role",
          "type": "bytes32"
        }
      ],
      "name": "getRoleAdmin",
      "outputs": [
        {
          "internalType": "bytes32",
          "name": "",
          "type": "bytes32"
        }
      ],
      "stateMutability": "view",
      "type": "function"
    },
    {
      "inputs": [
        {
          "internalType": "bytes32",
          "name": "role",
          "type": "bytes32"
        },
        {
          "internalType": "uint256",
          "name": "index",
          "type": "uint256"
        }
      ],
      "name": "getRoleMember",
      "outputs": [
        {
          "internalType": "address",
          "name": "",
          "type": "address"
        }
      ],
      "stateMutability": "view",
      "type": "function"
    },
    {
      "inputs": [
        {
          "internalType": "bytes32",
          "name": "role",
          "type": "bytes32"
        }
      ],
      "name": "getRoleMemberCount",
      "outputs": [
        {
          "internalType": "uint256",
          "name": "",
          "type": "uint256"
        }
      ],
      "stateMutability": "view",
      "type": "function"
    },
    {
      "inputs": [
        {
          "internalType": "bytes32",
          "name": "role",
          "type": "bytes32"
        },
        {
          "internalType": "address",
          "name": "account",
          "type": "address"
        }
      ],
      "name": "grantRole",
      "outputs": [],
      "stateMutability": "nonpayable",
      "type": "function"
    },
    {
      "inputs": [
        {
          "internalType": "bytes32",
          "name": "role",
          "type": "bytes32"
        },
        {
          "internalType": "address",
          "name": "account",
          "type": "address"
        }
      ],
      "name": "hasRole",
      "outputs": [
        {
          "internalType": "bool",
          "name": "",
          "type": "bool"
        }
      ],
      "stateMutability": "view",
      "type": "function"
    },
    {
      "inputs": [
        {
          "internalType": "address",
          "name": "adminAccount",
          "type": "address"
        },
        {
          "internalType": "address",
          "name": "skill",
          "type": "address"
        }
      ],
      "name": "initialize",
      "outputs": [],
      "stateMutability": "nonpayable",
      "type": "function"
    },
    {
      "inputs": [
        {
          "internalType": "bytes32",
          "name": "collectionId",
          "type": "bytes32"
        }
      ],
      "name": "isActive",
      "outputs": [
        {
          "internalType": "bool",
          "name": "",
          "type": "bool"
        }
      ],
      "stateMutability": "view",
      "type": "function"
    },
    {
      "inputs": [],
      "name": "paused",
      "outputs": [
        {
          "internalType": "bool",
          "name": "",
          "type": "bool"
        }
      ],
      "stateMutability": "view",
      "type": "function"
    },
    {
      "inputs": [
        {
          "internalType": "bytes32",
          "name": "collectionId",
          "type": "bytes32"
        },
        {
          "internalType": "uint256",
          "name": "count",
          "type": "uint256"
        }
      ],
      "name": "releaseDeposits",
      "outputs": [],
      "stateMutability": "nonpayable",
      "type": "function"
    },
    {
      "inputs": [
        {
          "internalType": "bytes32",
          "name": "collectionId",
          "type": "bytes32"
        }
      ],
      "name": "removeCollection",
      "outputs": [],
      "stateMutability": "nonpayable",
      "type": "function"
    },
    {
      "inputs": [
        {
          "internalType": "bytes32",
          "name": "role",
          "type": "bytes32"
        },
        {
          "internalType": "address",
          "name": "account",
          "type": "address"
        }
      ],
      "name": "renounceRole",
      "outputs": [],
      "stateMutability": "nonpayable",
      "type": "function"
    },
    {
      "inputs": [
        {
          "internalType": "bytes32",
          "name": "role",
          "type": "bytes32"
        },
        {
          "internalType": "address",
          "name": "account",
          "type": "address"
        }
      ],
      "name": "revokeRole",
      "outputs": [],
      "stateMutability": "nonpayable",
      "type": "function"
    },
    {
      "inputs": [
        {
          "internalType": "bytes32",
          "name": "collectionId",
          "type": "bytes32"
        },
        {
          "internalType": "uint256",
          "name": "accessThresholdInCollectionTokens",
          "type": "uint256"
        }
      ],
      "name": "setAccessThresholdInCollectionTokens",
      "outputs": [],
      "stateMutability": "nonpayable",
      "type": "function"
    },
    {
      "inputs": [
        {
          "internalType": "bytes32",
          "name": "collectionId",
          "type": "bytes32"
        },
        {
          "internalType": "uint256",
          "name": "activityThresholdInSNK",
          "type": "uint256"
        }
      ],
      "name": "setActivityThresholdInSNK",
      "outputs": [],
      "stateMutability": "nonpayable",
      "type": "function"
    },
    {
      "inputs": [
        {
          "internalType": "bytes32",
          "name": "collectionId",
          "type": "bytes32"
        },
        {
          "internalType": "uint256",
          "name": "chainId",
          "type": "uint256"
        }
      ],
      "name": "setChainId",
      "outputs": [],
      "stateMutability": "nonpayable",
      "type": "function"
    },
    {
      "inputs": [
        {
          "internalType": "bytes32",
          "name": "collectionId",
          "type": "bytes32"
        }
      ],
      "name": "setLock",
      "outputs": [],
      "stateMutability": "nonpayable",
      "type": "function"
    },
    {
      "inputs": [
        {
          "internalType": "bytes32",
          "name": "collectionId",
          "type": "bytes32"
        },
        {
          "internalType": "uint256",
          "name": "lockPeriodInSeconds",
          "type": "uint256"
        }
      ],
      "name": "setLockPeriodInSeconds",
      "outputs": [],
      "stateMutability": "nonpayable",
      "type": "function"
    },
    {
      "inputs": [
        {
          "internalType": "bytes32",
          "name": "collectionId",
          "type": "bytes32"
        },
        {
          "internalType": "string",
          "name": "name",
          "type": "string"
        }
      ],
      "name": "setName",
      "outputs": [],
      "stateMutability": "nonpayable",
      "type": "function"
    },
    {
      "inputs": [
        {
          "internalType": "bytes32",
          "name": "collectionId",
          "type": "bytes32"
        },
        {
          "internalType": "uint256",
          "name": "revshareInPercents",
          "type": "uint256"
        }
      ],
      "name": "setRevshareInPercents",
      "outputs": [],
      "stateMutability": "nonpayable",
      "type": "function"
    },
    {
      "inputs": [
        {
          "internalType": "bytes32",
          "name": "collectionId",
          "type": "bytes32"
        },
        {
          "internalType": "address payable",
          "name": "revshareRecipient",
          "type": "address"
        }
      ],
      "name": "setRevshareRecipient",
      "outputs": [],
      "stateMutability": "nonpayable",
      "type": "function"
    },
    {
      "inputs": [
        {
          "internalType": "bytes32",
          "name": "collectionId",
          "type": "bytes32"
        },
        {
          "internalType": "address",
          "name": "token",
          "type": "address"
        }
      ],
      "name": "setToken",
      "outputs": [],
      "stateMutability": "nonpayable",
      "type": "function"
    },
    {
      "inputs": [
        {
          "internalType": "bytes4",
          "name": "interfaceId",
          "type": "bytes4"
        }
      ],
      "name": "supportsInterface",
      "outputs": [
        {
          "internalType": "bool",
          "name": "",
          "type": "bool"
        }
      ],
      "stateMutability": "view",
      "type": "function"
    },
    {
      "inputs": [
        {
          "internalType": "bytes32",
          "name": "collectionId",
          "type": "bytes32"
        }
      ],
      "name": "toggleDepositAccepting",
      "outputs": [],
      "stateMutability": "nonpayable",
      "type": "function"
    },
    {
      "inputs": [
        {
          "internalType": "bytes32",
          "name": "collectionId",
          "type": "bytes32"
        }
      ],
      "name": "withdrawSNK",
      "outputs": [],
      "stateMutability": "nonpayable",
      "type": "function"
    }
  ],
  "transactionHash": "0x7cfb240e37141347a9f4342c4935ed589d054d9b382b79a2e95fba73885e8e5a",
  "args": [],
  "solcInputHash": "200a5431e89ab80bca9191ac23eaff9e",
  "bytecode": "0x608060405234801561001057600080fd5b50612bd9806100206000396000f3fe608060405234801561001057600080fd5b50600436106102065760003560e01c8063773722131161011a578063a217fddf116100ad578063d1ee86381161007c578063d1ee863814610452578063d547741f14610465578063de55701e14610478578063e4c775861461048b578063fd85e58c1461049e57610206565b8063a217fddf1461041c578063b924700714610424578063c1b931be14610437578063ca15c8731461043f57610206565b80638bc72e1e116100e95780638bc72e1e146103b65780639010d07c146103c957806391d14854146103e95780639dcdbf15146103fc57610206565b8063773722131461036a57806382397d501461037d578063881c1455146103905780638b71a0f3146103a357610206565b806339b10a951161019d57806355cbe5391161016c57806355cbe539146103165780635c36901c146103295780635c975abb1461033c578063681c3cc9146103445780636ba471301461035757610206565b806339b10a95146102bd578063485cc955146102dd5780634f35ebc9146102f05780634f44e1bf1461030357610206565b8063248a9ca3116101d9578063248a9ca3146102715780632f2ff15d1461028457806333a576421461029757806336568abe146102aa57610206565b806301ffc9a71461020b5780630c05cc7d1461023457806310a033eb146102495780631c10106f1461025c575b600080fd5b61021e610219366004612391565b6104b1565b60405161022b919061269e565b60405180910390f35b610247610242366004612287565b6104de565b005b610247610257366004612370565b6106d0565b6102646108e9565b60405161022b91906126a9565b61026461027f366004612287565b6108fa565b61024761029236600461229f565b61090f565b6102476102a5366004612287565b610936565b6102476102b836600461229f565b61099c565b6102d06102cb366004612287565b6109be565b60405161022b9190612a3c565b6102476102eb36600461222f565b610b39565b6102476102fe366004612370565b610be5565b610247610311366004612370565b610c44565b610247610324366004612370565b610ca3565b61021e610337366004612287565b610d02565b61021e610d4f565b610264610352366004612287565b610d58565b610264610365366004612287565b610d9e565b6102476103783660046122c3565b610de2565b61024761038b36600461229f565b610e56565b61024761039e366004612370565b610ed1565b6102476103b13660046123b9565b6110f3565b6102476103c4366004612287565b6112fd565b6103dc6103d7366004612370565b6113ba565b60405161022b91906125ed565b61021e6103f736600461229f565b6113db565b61040f61040a366004612370565b611406565b60405161022b919061263e565b610264611659565b610247610432366004612370565b61165e565b6102646116bd565b61026461044d366004612287565b6116cf565b610247610460366004612287565b6116e6565b61024761047336600461229f565b611753565b61024761048636600461229f565b61175d565b6103dc610499366004612287565b6117d8565b6102476104ac366004612370565b611827565b60006001600160e01b03198216635a05180f60e01b14806104d657506104d682611886565b90505b919050565b806104ea60fe826118ab565b15156001146105145760405162461bcd60e51b815260040161050b90612778565b60405180910390fd5b61051c610d4f565b156105395760405162461bcd60e51b815260040161050b906128b0565b600082815260fd60209081526040808320610100835281842033855290925290912054806105795760405162461bcd60e51b815260040161050b906127f2565b42826006015483600b015461058e9190612a5d565b106105ab5760405162461bcd60e51b815260040161050b90612835565b60fc5460405163a9059cbb60e01b81526001600160a01b039091169063a9059cbb906105dd9033908590600401612625565b602060405180830381600087803b1580156105f757600080fd5b505af115801561060b573d6000803e3d6000fd5b505050506040513d601f19601f8201168201806040525081019061062f9190612267565b50808260090160008282546106449190612a94565b90915550506000848152610100602090815260408083203380855292528083209290925560058401546009850154600a8601805460ff191692909110159190911790819055845492517f5248b312ef7e97f594eb0a5026ca3df287a75d166b7e76bd99d4cb1fbeac965e936106c29390929091869160ff16906126b2565b60405180910390a150505050565b816106dc60fe826118ab565b15156001146106fd5760405162461bcd60e51b815260040161050b90612778565b610705610d4f565b156107225760405162461bcd60e51b815260040161050b906128b0565b600083815260fd60205260409020600c81015460ff1615156001146107595760405162461bcd60e51b815260040161050b906129ac565b60fc546040516323b872dd60e01b81526001600160a01b03909116906323b872dd9061078d90339030908890600401612601565b602060405180830381600087803b1580156107a757600080fd5b505af11580156107bb573d6000803e3d6000fd5b505050506040513d601f19601f820116820180604052508101906107df9190612267565b6107fb5760405162461bcd60e51b815260040161050b906127bd565b8281600901600082825461080f9190612a5d565b909155505060058101546009820154600a83018054929091101560ff19909216919091178155600085815261010060209081526040808320338085529083528184208890558884526101018352818420825180840184528281528085018a815282546001818101855593885295909620905160029095020180546001600160a01b0319166001600160a01b03909516949094178455935192909301919091558354925490517fa15927341434c6f1d4803895e689b768100b3d52440d60aa07b6b29e90c7ec63936106c29390929091889160ff16906126b2565b60006108f560fe6118b7565b905090565b60009081526065602052604090206001015490565b61091982826118c2565b600082815260976020526040902061093190826118e1565b505050565b8061094260fe826118ab565b15156001146109635760405162461bcd60e51b815260040161050b90612778565b600080516020612b848339815191526109838161097e6118f6565b6118fa565b5050600090815260fd6020526040902042600b90910155565b6109a68282611962565b600082815260976020526040902061093190826119a4565b6109c661210a565b6109d160fe836118ab565b6109ed5760405162461bcd60e51b815260040161050b90612778565b60fd6000838152602001908152602001600020604051806101a001604052908160008201548152602001600182018054610a2690612af2565b80601f0160208091040260200160405190810160405280929190818152602001828054610a5290612af2565b8015610a9f5780601f10610a7457610100808354040283529160200191610a9f565b820191906000526020600020905b815481529060010190602001808311610a8257829003601f168201915b50505091835250506002820154602082015260038201546001600160a01b0390811660408301526004830154606083015260058301546080830152600683015460a0830152600783015460c083015260088301541660e08201526009820154610100820152600a82015460ff9081161515610120830152600b830154610140830152600c9092015490911615156101609091015292915050565b600054610100900460ff1680610b52575060005460ff16155b610b6e5760405162461bcd60e51b815260040161050b90612911565b600054610100900460ff16158015610b99576000805460ff1961ff0019909116610100171660011790555b610ba16119b9565b610ba9611a4e565b610bb4600084611abe565b60fc80546001600160a01b0319166001600160a01b0384161790558015610931576000805461ff0019169055505050565b81610bf160fe826118ab565b1515600114610c125760405162461bcd60e51b815260040161050b90612778565b600080516020612b84833981519152610c2d8161097e6118f6565b5050600091825260fd602052604090912060070155565b81610c5060fe826118ab565b1515600114610c715760405162461bcd60e51b815260040161050b90612778565b600080516020612b84833981519152610c8c8161097e6118f6565b5050600091825260fd602052604090912060050155565b81610caf60fe826118ab565b1515600114610cd05760405162461bcd60e51b815260040161050b90612778565b600080516020612b84833981519152610ceb8161097e6118f6565b5050600091825260fd602052604090912060020155565b600081610d1060fe826118ab565b1515600114610d315760405162461bcd60e51b815260040161050b90612778565b600083815260fd60205260409020600a015460ff1691505b50919050565b60c95460ff1690565b600081610d6660fe826118ab565b1515600114610d875760405162461bcd60e51b815260040161050b90612778565b5050600090815260fd602052604090206007015490565b600081610dac60fe826118ab565b1515600114610dcd5760405162461bcd60e51b815260040161050b90612778565b50506000908152610101602052604090205490565b81610dee60fe826118ab565b1515600114610e0f5760405162461bcd60e51b815260040161050b90612778565b600080516020612b84833981519152610e2a8161097e6118f6565b600084815260fd602090815260409091208451610e4f9260019092019186019061218b565b5050505050565b81610e6260fe826118ab565b1515600114610e835760405162461bcd60e51b815260040161050b90612778565b600080516020612b84833981519152610e9e8161097e6118f6565b5050600091825260fd602052604090912060080180546001600160a01b0319166001600160a01b03909216919091179055565b81610edd60fe826118ab565b1515600114610efe5760405162461bcd60e51b815260040161050b90612778565b600080516020612b84833981519152610f198161097e6118f6565b600084815260fd60205260409020600c015460ff1615610f4b5760405162461bcd60e51b815260040161050b9061295f565b600084815261010160205260408120905b848110156110af57815480610f7157506110af565b600083610f7f600184612a94565b81548110610f9d57634e487b7160e01b600052603260045260246000fd5b6000918252602091829020604080518082018252600290930290910180546001600160a01b0390811680855260019092015494840185905260fc54925163a9059cbb60e01b8152939550919091169263a9059cbb92611000929190600401612625565b602060405180830381600087803b15801561101a57600080fd5b505af115801561102e573d6000803e3d6000fd5b505050506040513d601f19601f820116820180604052508101906110529190612267565b508380548061107157634e487b7160e01b600052603160045260246000fd5b60008281526020812060026000199093019283020180546001600160a01b0319168155600101559055508190506110a781612b27565b915050610f5c565b81546040517f66183d618625193a50344deec3eebb3fc0b89502c7df9129ff96a469960e0125916110e391899185916126d8565b60405180910390a1505050505050565b600080516020612b8483398151915261110e8161097e6118f6565b6000611118611ac8565b9050604051806101a001604052808281526020018c8c8080601f0160208091040260200160405190810160405280939291908181526020018383808284376000920182905250938552505050602082018c90526001600160a01b03808c166040840152606083018b9052608083018a905260a0830189905260c08301889052861660e08301526101008201526101200187156111b55760006111b8565b60015b151581524260208083019190915260016040928301819052600085815260fd8352929092208351815583820151805191936111f9939085019291019061218b565b506040820151600282015560608201516003820180546001600160a01b039283166001600160a01b0319918216179091556080840151600484015560a0840151600584015560c0840151600684015560e084015160078401556101008401516008840180549190931691161790556101208201516009820155610140820151600a8201805491151560ff19928316179055610160830151600b83015561018090920151600c9091018054911515919092161790556112b860fe82611b16565b507f91d11dbb3f16d7c25dce82ff9badd2b6f68a7a2e80fbab66c53bdab5a56aaa0f816040516112e891906126a9565b60405180910390a15050505050505050505050565b8061130960fe826118ab565b151560011461132a5760405162461bcd60e51b815260040161050b90612778565b600080516020612b848339815191526113458161097e6118f6565b60008381526101016020526040902054156113725760405162461bcd60e51b815260040161050b9061286a565b61137d60fe84611b22565b507f2da86cdca11e9982cbc57112f4b63fda9c46485d19db398b1153887219bad2dc836040516113ad91906126a9565b60405180910390a1505050565b60008281526097602052604081206113d29083611b2e565b90505b92915050565b60009182526065602090815260408084206001600160a01b0393909316845291905290205460ff1690565b60608183108015611420575061141c60fe6118b7565b8211155b61143c5760405162461bcd60e51b815260040161050b906128da565b60006114488484612a94565b67ffffffffffffffff81111561146e57634e487b7160e01b600052604160045260246000fd5b6040519080825280602002602001820160405280156114a757816020015b61149461210a565b81526020019060019003908161148c5790505b509050835b838110156116515760006114c160fe83611b2e565b905060fd6000828152602001908152602001600020604051806101a0016040529081600082015481526020016001820180546114fc90612af2565b80601f016020809104026020016040519081016040528092919081815260200182805461152890612af2565b80156115755780601f1061154a57610100808354040283529160200191611575565b820191906000526020600020905b81548152906001019060200180831161155857829003601f168201915b50505091835250506002820154602082015260038201546001600160a01b0390811660408301526004830154606083015260058301546080830152600683015460a0830152600783015460c083015260088301541660e08201526009820154610100820152600a82015460ff9081161515610120830152600b830154610140830152600c90920154909116151561016090910152836116148885612a94565b8151811061163257634e487b7160e01b600052603260045260246000fd5b602002602001018190525050808061164990612b27565b9150506114ac565b509392505050565b600081565b8161166a60fe826118ab565b151560011461168b5760405162461bcd60e51b815260040161050b90612778565b600080516020612b848339815191526116a68161097e6118f6565b5050600091825260fd602052604090912060060155565b600080516020612b8483398151915290565b60008181526097602052604081206104d6906118b7565b806116f260fe826118ab565b15156001146117135760405162461bcd60e51b815260040161050b90612778565b600080516020612b8483398151915261172e8161097e6118f6565b5050600090815260fd60205260409020600c01805460ff19811660ff90911615179055565b6109a68282611b3a565b8161176960fe826118ab565b151560011461178a5760405162461bcd60e51b815260040161050b90612778565b600080516020612b848339815191526117a58161097e6118f6565b5050600091825260fd602052604090912060030180546001600160a01b0319166001600160a01b03909216919091179055565b6000816117e660fe826118ab565b15156001146118075760405162461bcd60e51b815260040161050b90612778565b5050600090815260fd60205260409020600801546001600160a01b031690565b8161183360fe826118ab565b15156001146118545760405162461bcd60e51b815260040161050b90612778565b600080516020612b8483398151915261186f8161097e6118f6565b5050600091825260fd602052604090912060040155565b60006001600160e01b03198216637965db0b60e01b14806104d657506104d682611b59565b60006113d28383611b72565b60006104d682611b8a565b6118cb826108fa565b6118d78161097e6118f6565b6109318383611b8e565b60006113d2836001600160a01b038416611c15565b3390565b61190482826113db565b61195e5761191c816001600160a01b03166014611c5f565b611927836020611c5f565b604051602001611938929190612578565b60408051601f198184030181529082905262461bcd60e51b825261050b916004016126ee565b5050565b61196a6118f6565b6001600160a01b0316816001600160a01b03161461199a5760405162461bcd60e51b815260040161050b906129ed565b61195e8282611e11565b60006113d2836001600160a01b038416611e96565b600054610100900460ff16806119d2575060005460ff16155b6119ee5760405162461bcd60e51b815260040161050b90612911565b600054610100900460ff16158015611a19576000805460ff1961ff0019909116610100171660011790555b611a21611fad565b611a29611fad565b611a31611fad565b611a39611fad565b8015611a4b576000805461ff00191690555b50565b600054610100900460ff1680611a67575060005460ff16155b611a835760405162461bcd60e51b815260040161050b90612911565b600054610100900460ff16158015611aae576000805460ff1961ff0019909116610100171660011790555b611ab6611fad565b611a39612020565b610919828261209e565b6000611ad460fb6120a8565b6000611ae060fb611b8a565b905060004682604051602001611af7929190612a4f565b60408051601f1981840301815291905280516020909101209250505090565b60006113d28383611c15565b60006113d28383611e96565b60006113d283836120b1565b611b43826108fa565b611b4f8161097e6118f6565b6109318383611e11565b6001600160e01b031981166301ffc9a760e01b14919050565b60009081526001919091016020526040902054151590565b5490565b611b9882826113db565b61195e5760008281526065602090815260408083206001600160a01b03851684529091529020805460ff19166001179055611bd16118f6565b6001600160a01b0316816001600160a01b0316837f2f8788117e7eff1d82e926ec794901d17c78024a50270940304540a733656f0d60405160405180910390a45050565b6000611c218383611b72565b611c57575081546001818101845560008481526020808220909301849055845484825282860190935260409020919091556113d5565b5060006113d5565b60606000611c6e836002612a75565b611c79906002612a5d565b67ffffffffffffffff811115611c9f57634e487b7160e01b600052604160045260246000fd5b6040519080825280601f01601f191660200182016040528015611cc9576020820181803683370190505b509050600360fc1b81600081518110611cf257634e487b7160e01b600052603260045260246000fd5b60200101906001600160f81b031916908160001a905350600f60fb1b81600181518110611d2f57634e487b7160e01b600052603260045260246000fd5b60200101906001600160f81b031916908160001a9053506000611d53846002612a75565b611d5e906001612a5d565b90505b6001811115611df2576f181899199a1a9b1b9c1cb0b131b232b360811b85600f1660108110611da057634e487b7160e01b600052603260045260246000fd5b1a60f81b828281518110611dc457634e487b7160e01b600052603260045260246000fd5b60200101906001600160f81b031916908160001a90535060049490941c93611deb81612adb565b9050611d61565b5083156113d25760405162461bcd60e51b815260040161050b90612743565b611e1b82826113db565b1561195e5760008281526065602090815260408083206001600160a01b03851684529091529020805460ff19169055611e526118f6565b6001600160a01b0316816001600160a01b0316837ff6391f5c32d9c69d2a47ea670b442974b53935d1edc7fd64eb21e047a839171b60405160405180910390a45050565b60008181526001830160205260408120548015611fa3576000611eba600183612a94565b8554909150600090611ece90600190612a94565b90506000866000018281548110611ef557634e487b7160e01b600052603260045260246000fd5b9060005260206000200154905080876000018481548110611f2657634e487b7160e01b600052603260045260246000fd5b600091825260208083209091019290925582815260018901909152604090208490558654879080611f6757634e487b7160e01b600052603160045260246000fd5b600190038181906000526020600020016000905590558660010160008781526020019081526020016000206000905560019450505050506113d5565b60009150506113d5565b600054610100900460ff1680611fc6575060005460ff16155b611fe25760405162461bcd60e51b815260040161050b90612911565b600054610100900460ff16158015611a39576000805460ff1961ff0019909116610100171660011790558015611a4b576000805461ff001916905550565b600054610100900460ff1680612039575060005460ff16155b6120555760405162461bcd60e51b815260040161050b90612911565b600054610100900460ff16158015612080576000805460ff1961ff0019909116610100171660011790555b60c9805460ff191690558015611a4b576000805461ff001916905550565b61195e8282611b8e565b80546001019055565b815460009082106120d45760405162461bcd60e51b815260040161050b90612701565b8260000182815481106120f757634e487b7160e01b600052603260045260246000fd5b9060005260206000200154905092915050565b604051806101a0016040528060008019168152602001606081526020016000815260200160006001600160a01b031681526020016000815260200160008152602001600081526020016000815260200160006001600160a01b0316815260200160008152602001600015158152602001600081526020016000151581525090565b82805461219790612af2565b90600052602060002090601f0160209004810192826121b957600085556121ff565b82601f106121d257805160ff19168380011785556121ff565b828001600101855582156121ff579182015b828111156121ff5782518255916020019190600101906121e4565b5061220b92915061220f565b5090565b5b8082111561220b5760008155600101612210565b80356104d981612b6e565b60008060408385031215612241578182fd5b823561224c81612b6e565b9150602083013561225c81612b6e565b809150509250929050565b600060208284031215612278578081fd5b815180151581146113d2578182fd5b600060208284031215612298578081fd5b5035919050565b600080604083850312156122b1578182fd5b82359150602083013561225c81612b6e565b600080604083850312156122d5578182fd5b8235915060208084013567ffffffffffffffff808211156122f4578384fd5b818601915086601f830112612307578384fd5b81358181111561231957612319612b58565b604051601f8201601f191681018501838111828210171561233c5761233c612b58565b6040528181528382018501891015612352578586fd5b81858501868301378585838301015280955050505050509250929050565b60008060408385031215612382578182fd5b50508035926020909101359150565b6000602082840312156123a2578081fd5b81356001600160e01b0319811681146113d2578182fd5b60008060008060008060008060006101008a8c0312156123d7578485fd5b893567ffffffffffffffff808211156123ee578687fd5b818c0191508c601f830112612401578687fd5b81358181111561240f578788fd5b8d6020828501011115612420578788fd5b60209283019b509950508a0135965061243b60408b01612224565b955060608a0135945060808a0135935060a08a0135925060c08a0135915061246560e08b01612224565b90509295985092959850929598565b6001600160a01b03169052565b15159052565b6000815180845261249f816020860160208601612aab565b601f01601f19169290920160200192915050565b60006101a08251845260208301518160208601526124d382860182612487565b9150506040830151604085015260608301516124f26060860182612474565b506080830151608085015260a083015160a085015260c083015160c085015260e083015160e08501526101008084015161252e82870182612474565b505061012083810151908501526101408084015161254e82870182612481565b505061016083810151908501526101808084015161256e82870182612481565b5090949350505050565b60007f416363657373436f6e74726f6c3a206163636f756e7420000000000000000000825283516125b0816017850160208801612aab565b7001034b99036b4b9b9b4b733903937b6329607d1b60179184019182015283516125e1816028840160208801612aab565b01602801949350505050565b6001600160a01b0391909116815260200190565b6001600160a01b039384168152919092166020820152604081019190915260600190565b6001600160a01b03929092168252602082015260400190565b6000602080830181845280855180835260408601915060408482028701019250838701855b8281101561269157603f1988860301845261267f8583516124b3565b94509285019290850190600101612663565b5092979650505050505050565b901515815260200190565b90815260200190565b9384526001600160a01b0392909216602084015260408301521515606082015260800190565b9283526020830191909152604082015260600190565b6000602082526113d26020830184612487565b60208082526022908201527f456e756d657261626c655365743a20696e646578206f7574206f6620626f756e604082015261647360f01b606082015260800190565b6020808252818101527f537472696e67733a20686578206c656e67746820696e73756666696369656e74604082015260600190565b60208082526025908201527f436f6c6c656374696f6e4c6973743a20696e76616c696420636f6c6c656374696040820152641bdb881a5960da1b606082015260800190565b6020808252818101527f436f6c6c656374696f6e4c6973743a206e6f7420656e6f7567682066756e6473604082015260600190565b60208082526023908201527f436f6c6c656374696f6e4c6973743a206e6f7468696e6720746f20776974686460408201526272617760e81b606082015260800190565b6020808252818101527f436f6c6c656374696f6e4c6973743a2066756e647320617265206c6f636b6564604082015260600190565b60208082526026908201527f436f6c6c656374696f6e4c6973743a2072656c65617365206465706f7369747360408201526508199a5c9cdd60d21b606082015260800190565b60208082526010908201526f14185d5cd8589b194e881c185d5cd95960821b604082015260600190565b6020808252601f908201527f436f6c6c656374696f6e4c6973743a20696e76616c696420696e646578657300604082015260600190565b6020808252602e908201527f496e697469616c697a61626c653a20636f6e747261637420697320616c72656160408201526d191e481a5b9a5d1a585b1a5e995960921b606082015260800190565b6020808252602d908201527f436f6c6c656374696f6e4c6973743a206465706f736974696e672073686f756c60408201526c1908189948191a5cd8589b1959609a1b606082015260800190565b60208082526021908201527f436f6c6c656374696f6e4c6973743a206465706f736974732064697361626c656040820152601960fa1b606082015260800190565b6020808252602f908201527f416363657373436f6e74726f6c3a2063616e206f6e6c792072656e6f756e636560408201526e103937b632b9903337b91039b2b63360891b606082015260800190565b6000602082526113d260208301846124b3565b918252602082015260400190565b60008219821115612a7057612a70612b42565b500190565b6000816000190483118215151615612a8f57612a8f612b42565b500290565b600082821015612aa657612aa6612b42565b500390565b60005b83811015612ac6578181015183820152602001612aae565b83811115612ad5576000848401525b50505050565b600081612aea57612aea612b42565b506000190190565b600281046001821680612b0657607f821691505b60208210811415610d4957634e487b7160e01b600052602260045260246000fd5b6000600019821415612b3b57612b3b612b42565b5060010190565b634e487b7160e01b600052601160045260246000fd5b634e487b7160e01b600052604160045260246000fd5b6001600160a01b0381168114611a4b57600080fdfe65d7a28e3265b37a6474929f336521b332c1681b933f6cb9f3376673440d862aa2646970667358221220df6c1b88aa96b835efc03692b1b928435ec345ea04113f7dd98f713ebe31704364736f6c63430008000033",
  "devdoc": {
    "kind": "dev",
    "methods": {
      "getRoleAdmin(bytes32)": {
        "details": "Returns the admin role that controls `role`. See {grantRole} and {revokeRole}. To change a role's admin, use {_setRoleAdmin}."
      },
      "getRoleMember(bytes32,uint256)": {
        "details": "Returns one of the accounts that have `role`. `index` must be a value between 0 and {getRoleMemberCount}, non-inclusive. Role bearers are not sorted in any particular way, and their ordering may change at any point. WARNING: When using {getRoleMember} and {getRoleMemberCount}, make sure you perform all queries on the same block. See the following https://forum.openzeppelin.com/t/iterating-over-elements-on-enumerableset-in-openzeppelin-contracts/2296[forum post] for more information."
      },
      "getRoleMemberCount(bytes32)": {
        "details": "Returns the number of accounts that have `role`. Can be used together with {getRoleMember} to enumerate all bearers of a role."
      },
      "grantRole(bytes32,address)": {
        "details": "Overload {grantRole} to track enumerable memberships"
      },
      "hasRole(bytes32,address)": {
        "details": "Returns `true` if `account` has been granted `role`."
      },
      "isActive(bytes32)": {
        "details": "Function used by BBT contract"
      },
      "paused()": {
        "details": "Returns true if the contract is paused, and false otherwise."
      },
      "renounceRole(bytes32,address)": {
        "details": "Overload {renounceRole} to track enumerable memberships"
      },
      "revokeRole(bytes32,address)": {
        "details": "Overload {revokeRole} to track enumerable memberships"
      },
      "supportsInterface(bytes4)": {
        "details": "See {IERC165-supportsInterface}."
      }
    },
    "stateVariables": {
      "_collectionIdDepositRecords": {
        "details": "For returning deposits when collection is removed.  "
      },
      "_collectionIdDepositorAmount": {
        "details": "For fast withdraw by depositor. "
      }
    },
    "version": 1
  },
  "userdoc": {
    "kind": "user",
    "methods": {},
    "version": 1
  },
  "storageLayout": {
    "storage": [
      {
        "astId": 753,
        "contract": "contracts/CollectionList.sol:CollectionList",
        "label": "_initialized",
        "offset": 0,
        "slot": "0",
        "type": "t_bool"
      },
      {
        "astId": 756,
        "contract": "contracts/CollectionList.sol:CollectionList",
        "label": "_initializing",
        "offset": 1,
        "slot": "0",
        "type": "t_bool"
      },
      {
        "astId": 2658,
        "contract": "contracts/CollectionList.sol:CollectionList",
        "label": "__gap",
        "offset": 0,
        "slot": "1",
        "type": "t_array(t_uint256)50_storage"
      },
      {
        "astId": 2907,
        "contract": "contracts/CollectionList.sol:CollectionList",
        "label": "__gap",
        "offset": 0,
        "slot": "51",
        "type": "t_array(t_uint256)50_storage"
      },
      {
        "astId": 307,
        "contract": "contracts/CollectionList.sol:CollectionList",
        "label": "_roles",
        "offset": 0,
        "slot": "101",
        "type": "t_mapping(t_bytes32,t_struct(RoleData)302_storage)"
      },
      {
        "astId": 615,
        "contract": "contracts/CollectionList.sol:CollectionList",
        "label": "__gap",
        "offset": 0,
        "slot": "102",
        "type": "t_array(t_uint256)49_storage"
      },
      {
        "astId": 62,
        "contract": "contracts/CollectionList.sol:CollectionList",
        "label": "_roleMembers",
        "offset": 0,
        "slot": "151",
        "type": "t_mapping(t_bytes32,t_struct(AddressSet)3206_storage)"
      },
      {
        "astId": 219,
        "contract": "contracts/CollectionList.sol:CollectionList",
        "label": "__gap",
        "offset": 0,
        "slot": "152",
        "type": "t_array(t_uint256)49_storage"
      },
      {
        "astId": 814,
        "contract": "contracts/CollectionList.sol:CollectionList",
        "label": "_paused",
        "offset": 0,
        "slot": "201",
        "type": "t_bool"
      },
      {
        "astId": 905,
        "contract": "contracts/CollectionList.sol:CollectionList",
        "label": "__gap",
        "offset": 0,
        "slot": "202",
        "type": "t_array(t_uint256)49_storage"
      },
      {
        "astId": 11830,
        "contract": "contracts/CollectionList.sol:CollectionList",
        "label": "_collectionIdCounter",
        "offset": 0,
        "slot": "251",
        "type": "t_struct(Counter)4707_storage"
      },
      {
        "astId": 11833,
        "contract": "contracts/CollectionList.sol:CollectionList",
        "label": "_skill",
        "offset": 0,
        "slot": "252",
        "type": "t_contract(ISkillToken)13739"
      },
      {
        "astId": 11838,
        "contract": "contracts/CollectionList.sol:CollectionList",
        "label": "_collectionIdCollection",
        "offset": 0,
        "slot": "253",
        "type": "t_mapping(t_bytes32,t_struct(Collection)13228_storage)"
      },
      {
        "astId": 11841,
        "contract": "contracts/CollectionList.sol:CollectionList",
        "label": "_collectionIds",
        "offset": 0,
        "slot": "254",
        "type": "t_struct(Bytes32Set)4993_storage"
      },
      {
        "astId": 11848,
        "contract": "contracts/CollectionList.sol:CollectionList",
        "label": "_collectionIdDepositorAmount",
        "offset": 0,
        "slot": "256",
        "type": "t_mapping(t_bytes32,t_mapping(t_address,t_uint256))"
      },
      {
        "astId": 11855,
        "contract": "contracts/CollectionList.sol:CollectionList",
        "label": "_collectionIdDepositRecords",
        "offset": 0,
        "slot": "257",
        "type": "t_mapping(t_bytes32,t_array(t_struct(DepositRecord)11818_storage)dyn_storage)"
      }
    ],
    "types": {
      "t_address": {
        "encoding": "inplace",
        "label": "address",
        "numberOfBytes": "20"
      },
      "t_address_payable": {
        "encoding": "inplace",
        "label": "address payable",
        "numberOfBytes": "20"
      },
      "t_array(t_bytes32)dyn_storage": {
        "base": "t_bytes32",
        "encoding": "dynamic_array",
        "label": "bytes32[]",
        "numberOfBytes": "32"
      },
      "t_array(t_struct(DepositRecord)11818_storage)dyn_storage": {
        "base": "t_struct(DepositRecord)11818_storage",
        "encoding": "dynamic_array",
        "label": "struct CollectionList.DepositRecord[]",
        "numberOfBytes": "32"
      },
      "t_array(t_uint256)49_storage": {
        "base": "t_uint256",
        "encoding": "inplace",
        "label": "uint256[49]",
        "numberOfBytes": "1568"
      },
      "t_array(t_uint256)50_storage": {
        "base": "t_uint256",
        "encoding": "inplace",
        "label": "uint256[50]",
        "numberOfBytes": "1600"
      },
      "t_bool": {
        "encoding": "inplace",
        "label": "bool",
        "numberOfBytes": "1"
      },
      "t_bytes32": {
        "encoding": "inplace",
        "label": "bytes32",
        "numberOfBytes": "32"
      },
      "t_contract(ISkillToken)13739": {
        "encoding": "inplace",
        "label": "contract ISkillToken",
        "numberOfBytes": "20"
      },
      "t_mapping(t_address,t_bool)": {
        "encoding": "mapping",
        "key": "t_address",
        "label": "mapping(address => bool)",
        "numberOfBytes": "32",
        "value": "t_bool"
      },
      "t_mapping(t_address,t_uint256)": {
        "encoding": "mapping",
        "key": "t_address",
        "label": "mapping(address => uint256)",
        "numberOfBytes": "32",
        "value": "t_uint256"
      },
      "t_mapping(t_bytes32,t_array(t_struct(DepositRecord)11818_storage)dyn_storage)": {
        "encoding": "mapping",
        "key": "t_bytes32",
        "label": "mapping(bytes32 => struct CollectionList.DepositRecord[])",
        "numberOfBytes": "32",
        "value": "t_array(t_struct(DepositRecord)11818_storage)dyn_storage"
      },
      "t_mapping(t_bytes32,t_mapping(t_address,t_uint256))": {
        "encoding": "mapping",
        "key": "t_bytes32",
        "label": "mapping(bytes32 => mapping(address => uint256))",
        "numberOfBytes": "32",
        "value": "t_mapping(t_address,t_uint256)"
      },
      "t_mapping(t_bytes32,t_struct(AddressSet)3206_storage)": {
        "encoding": "mapping",
        "key": "t_bytes32",
        "label": "mapping(bytes32 => struct EnumerableSetUpgradeable.AddressSet)",
        "numberOfBytes": "32",
        "value": "t_struct(AddressSet)3206_storage"
      },
      "t_mapping(t_bytes32,t_struct(Collection)13228_storage)": {
        "encoding": "mapping",
        "key": "t_bytes32",
        "label": "mapping(bytes32 => struct ICollectionList.Collection)",
        "numberOfBytes": "32",
        "value": "t_struct(Collection)13228_storage"
      },
      "t_mapping(t_bytes32,t_struct(RoleData)302_storage)": {
        "encoding": "mapping",
        "key": "t_bytes32",
        "label": "mapping(bytes32 => struct AccessControlUpgradeable.RoleData)",
        "numberOfBytes": "32",
        "value": "t_struct(RoleData)302_storage"
      },
      "t_mapping(t_bytes32,t_uint256)": {
        "encoding": "mapping",
        "key": "t_bytes32",
        "label": "mapping(bytes32 => uint256)",
        "numberOfBytes": "32",
        "value": "t_uint256"
      },
      "t_string_storage": {
        "encoding": "bytes",
        "label": "string",
        "numberOfBytes": "32"
      },
      "t_struct(AddressSet)3206_storage": {
        "encoding": "inplace",
        "label": "struct EnumerableSetUpgradeable.AddressSet",
        "members": [
          {
            "astId": 3205,
            "contract": "contracts/CollectionList.sol:CollectionList",
            "label": "_inner",
            "offset": 0,
            "slot": "0",
            "type": "t_struct(Set)2931_storage"
          }
        ],
        "numberOfBytes": "64"
      },
      "t_struct(Bytes32Set)4993_storage": {
        "encoding": "inplace",
        "label": "struct EnumerableSet.Bytes32Set",
        "members": [
          {
            "astId": 4992,
            "contract": "contracts/CollectionList.sol:CollectionList",
            "label": "_inner",
            "offset": 0,
            "slot": "0",
            "type": "t_struct(Set)4809_storage"
          }
        ],
        "numberOfBytes": "64"
      },
      "t_struct(Collection)13228_storage": {
        "encoding": "inplace",
        "label": "struct ICollectionList.Collection",
        "members": [
          {
            "astId": 13203,
            "contract": "contracts/CollectionList.sol:CollectionList",
            "label": "id",
            "offset": 0,
            "slot": "0",
            "type": "t_bytes32"
          },
          {
            "astId": 13205,
            "contract": "contracts/CollectionList.sol:CollectionList",
            "label": "name",
            "offset": 0,
            "slot": "1",
            "type": "t_string_storage"
          },
          {
            "astId": 13207,
            "contract": "contracts/CollectionList.sol:CollectionList",
            "label": "chainId",
            "offset": 0,
            "slot": "2",
            "type": "t_uint256"
          },
          {
            "astId": 13209,
            "contract": "contracts/CollectionList.sol:CollectionList",
            "label": "token",
            "offset": 0,
            "slot": "3",
            "type": "t_address"
          },
          {
            "astId": 13211,
            "contract": "contracts/CollectionList.sol:CollectionList",
            "label": "accessThresholdInCollectionTokens",
            "offset": 0,
            "slot": "4",
            "type": "t_uint256"
          },
          {
            "astId": 13213,
            "contract": "contracts/CollectionList.sol:CollectionList",
            "label": "activityThresholdInSNK",
            "offset": 0,
            "slot": "5",
            "type": "t_uint256"
          },
          {
            "astId": 13215,
            "contract": "contracts/CollectionList.sol:CollectionList",
            "label": "lockPeriodInSeconds",
            "offset": 0,
            "slot": "6",
            "type": "t_uint256"
          },
          {
            "astId": 13217,
            "contract": "contracts/CollectionList.sol:CollectionList",
            "label": "revshareInPercents",
            "offset": 0,
            "slot": "7",
            "type": "t_uint256"
          },
          {
            "astId": 13219,
            "contract": "contracts/CollectionList.sol:CollectionList",
            "label": "revshareRecipient",
            "offset": 0,
            "slot": "8",
            "type": "t_address_payable"
          },
          {
            "astId": 13221,
            "contract": "contracts/CollectionList.sol:CollectionList",
            "label": "depositedSNK",
            "offset": 0,
            "slot": "9",
            "type": "t_uint256"
          },
          {
            "astId": 13223,
            "contract": "contracts/CollectionList.sol:CollectionList",
            "label": "active",
            "offset": 0,
            "slot": "10",
            "type": "t_bool"
          },
          {
            "astId": 13225,
            "contract": "contracts/CollectionList.sol:CollectionList",
            "label": "lockedAt",
            "offset": 0,
            "slot": "11",
            "type": "t_uint256"
          },
          {
            "astId": 13227,
            "contract": "contracts/CollectionList.sol:CollectionList",
            "label": "depositsEnabled",
            "offset": 0,
            "slot": "12",
            "type": "t_bool"
          }
        ],
        "numberOfBytes": "416"
      },
      "t_struct(Counter)4707_storage": {
        "encoding": "inplace",
        "label": "struct Counters.Counter",
        "members": [
          {
            "astId": 4706,
            "contract": "contracts/CollectionList.sol:CollectionList",
            "label": "_value",
            "offset": 0,
            "slot": "0",
            "type": "t_uint256"
          }
        ],
        "numberOfBytes": "32"
      },
      "t_struct(DepositRecord)11818_storage": {
        "encoding": "inplace",
        "label": "struct CollectionList.DepositRecord",
        "members": [
          {
            "astId": 11815,
            "contract": "contracts/CollectionList.sol:CollectionList",
            "label": "depositor",
            "offset": 0,
            "slot": "0",
            "type": "t_address"
          },
          {
            "astId": 11817,
            "contract": "contracts/CollectionList.sol:CollectionList",
            "label": "amount",
            "offset": 0,
            "slot": "1",
            "type": "t_uint256"
          }
        ],
        "numberOfBytes": "64"
      },
      "t_struct(RoleData)302_storage": {
        "encoding": "inplace",
        "label": "struct AccessControlUpgradeable.RoleData",
        "members": [
          {
            "astId": 299,
            "contract": "contracts/CollectionList.sol:CollectionList",
            "label": "members",
            "offset": 0,
            "slot": "0",
            "type": "t_mapping(t_address,t_bool)"
          },
          {
            "astId": 301,
            "contract": "contracts/CollectionList.sol:CollectionList",
            "label": "adminRole",
            "offset": 0,
            "slot": "1",
            "type": "t_bytes32"
          }
        ],
        "numberOfBytes": "64"
      },
      "t_struct(Set)2931_storage": {
        "encoding": "inplace",
        "label": "struct EnumerableSetUpgradeable.Set",
        "members": [
          {
            "astId": 2926,
            "contract": "contracts/CollectionList.sol:CollectionList",
            "label": "_values",
            "offset": 0,
            "slot": "0",
            "type": "t_array(t_bytes32)dyn_storage"
          },
          {
            "astId": 2930,
            "contract": "contracts/CollectionList.sol:CollectionList",
            "label": "_indexes",
            "offset": 0,
            "slot": "1",
            "type": "t_mapping(t_bytes32,t_uint256)"
          }
        ],
        "numberOfBytes": "64"
      },
      "t_struct(Set)4809_storage": {
        "encoding": "inplace",
        "label": "struct EnumerableSet.Set",
        "members": [
          {
            "astId": 4804,
            "contract": "contracts/CollectionList.sol:CollectionList",
            "label": "_values",
            "offset": 0,
            "slot": "0",
            "type": "t_array(t_bytes32)dyn_storage"
          },
          {
            "astId": 4808,
            "contract": "contracts/CollectionList.sol:CollectionList",
            "label": "_indexes",
            "offset": 0,
            "slot": "1",
            "type": "t_mapping(t_bytes32,t_uint256)"
          }
        ],
        "numberOfBytes": "64"
      },
      "t_uint256": {
        "encoding": "inplace",
        "label": "uint256",
        "numberOfBytes": "32"
      }
    }
  }
}