{
  "address": "0xE0fc37fb8bf8cb0b4da886f62f4Aa6D86f10Fac4",
  "abi": [
    {
      "inputs": [
        {
          "internalType": "string",
          "name": "name_",
          "type": "string"
        },
        {
          "internalType": "string",
          "name": "symbol_",
          "type": "string"
        },
        {
          "internalType": "uint256",
          "name": "totalSupply",
          "type": "uint256"
        },
        {
          "internalType": "uint8",
          "name": "decimals_",
          "type": "uint8"
        },
        {
          "internalType": "address",
          "name": "childChainManager",
          "type": "address"
        }
      ],
      "stateMutability": "nonpayable",
      "type": "constructor"
    },
    {
      "anonymous": false,
      "inputs": [
        {
          "indexed": true,
          "internalType": "address",
          "name": "owner",
          "type": "address"
        },
        {
          "indexed": true,
          "internalType": "address",
          "name": "spender",
          "type": "address"
        },
        {
          "indexed": false,
          "internalType": "uint256",
          "name": "value",
          "type": "uint256"
        }
      ],
      "name": "Approval",
      "type": "event"
    },
    {
      "anonymous": false,
      "inputs": [
        {
          "indexed": false,
          "internalType": "address",
          "name": "userAddress",
          "type": "address"
        },
        {
          "indexed": false,
          "internalType": "address payable",
          "name": "relayerAddress",
          "type": "address"
        },
        {
          "indexed": false,
          "internalType": "bytes",
          "name": "functionSignature",
          "type": "bytes"
        }
      ],
      "name": "MetaTransactionExecuted",
      "type": "event"
    },
    {
      "anonymous": false,
      "inputs": [
        {
          "indexed": true,
          "internalType": "bytes32",
          "name": "role",
          "type": "bytes32"
        },
        {
          "indexed": true,
          "internalType": "bytes32",
          "name": "previousAdminRole",
          "type": "bytes32"
        },
        {
          "indexed": true,
          "internalType": "bytes32",
          "name": "newAdminRole",
          "type": "bytes32"
        }
      ],
      "name": "RoleAdminChanged",
      "type": "event"
    },
    {
      "anonymous": false,
      "inputs": [
        {
          "indexed": true,
          "internalType": "bytes32",
          "name": "role",
          "type": "bytes32"
        },
        {
          "indexed": true,
          "internalType": "address",
          "name": "account",
          "type": "address"
        },
        {
          "indexed": true,
          "internalType": "address",
          "name": "sender",
          "type": "address"
        }
      ],
      "name": "RoleGranted",
      "type": "event"
    },
    {
      "anonymous": false,
      "inputs": [
        {
          "indexed": true,
          "internalType": "bytes32",
          "name": "role",
          "type": "bytes32"
        },
        {
          "indexed": true,
          "internalType": "address",
          "name": "account",
          "type": "address"
        },
        {
          "indexed": true,
          "internalType": "address",
          "name": "sender",
          "type": "address"
        }
      ],
      "name": "RoleRevoked",
      "type": "event"
    },
    {
      "anonymous": false,
      "inputs": [
        {
          "indexed": true,
          "internalType": "address",
          "name": "from",
          "type": "address"
        },
        {
          "indexed": true,
          "internalType": "address",
          "name": "to",
          "type": "address"
        },
        {
          "indexed": false,
          "internalType": "uint256",
          "name": "value",
          "type": "uint256"
        }
      ],
      "name": "Transfer",
      "type": "event"
    },
    {
      "inputs": [],
      "name": "BURNER_ROLE",
      "outputs": [
        {
          "internalType": "bytes32",
          "name": "",
          "type": "bytes32"
        }
      ],
      "stateMutability": "view",
      "type": "function"
    },
    {
      "inputs": [],
      "name": "DEFAULT_ADMIN_ROLE",
      "outputs": [
        {
          "internalType": "bytes32",
          "name": "",
          "type": "bytes32"
        }
      ],
      "stateMutability": "view",
      "type": "function"
    },
    {
      "inputs": [],
      "name": "DEPOSITOR_ROLE",
      "outputs": [
        {
          "internalType": "bytes32",
          "name": "",
          "type": "bytes32"
        }
      ],
      "stateMutability": "view",
      "type": "function"
    },
    {
      "inputs": [],
      "name": "ERC712_VERSION",
      "outputs": [
        {
          "internalType": "string",
          "name": "",
          "type": "string"
        }
      ],
      "stateMutability": "view",
      "type": "function"
    },
    {
      "inputs": [
        {
          "internalType": "address",
          "name": "owner",
          "type": "address"
        },
        {
          "internalType": "address",
          "name": "spender",
          "type": "address"
        }
      ],
      "name": "allowance",
      "outputs": [
        {
          "internalType": "uint256",
          "name": "",
          "type": "uint256"
        }
      ],
      "stateMutability": "view",
      "type": "function"
    },
    {
      "inputs": [
        {
          "internalType": "address",
          "name": "spender",
          "type": "address"
        },
        {
          "internalType": "uint256",
          "name": "amount",
          "type": "uint256"
        }
      ],
      "name": "approve",
      "outputs": [
        {
          "internalType": "bool",
          "name": "",
          "type": "bool"
        }
      ],
      "stateMutability": "nonpayable",
      "type": "function"
    },
    {
      "inputs": [
        {
          "internalType": "address",
          "name": "account",
          "type": "address"
        }
      ],
      "name": "balanceOf",
      "outputs": [
        {
          "internalType": "uint256",
          "name": "",
          "type": "uint256"
        }
      ],
      "stateMutability": "view",
      "type": "function"
    },
    {
      "inputs": [
        {
          "internalType": "address",
          "name": "from",
          "type": "address"
        },
        {
          "internalType": "uint256",
          "name": "amount",
          "type": "uint256"
        }
      ],
      "name": "burn",
      "outputs": [],
      "stateMutability": "nonpayable",
      "type": "function"
    },
    {
      "inputs": [],
      "name": "decimals",
      "outputs": [
        {
          "internalType": "uint8",
          "name": "",
          "type": "uint8"
        }
      ],
      "stateMutability": "view",
      "type": "function"
    },
    {
      "inputs": [
        {
          "internalType": "address",
          "name": "spender",
          "type": "address"
        },
        {
          "internalType": "uint256",
          "name": "subtractedValue",
          "type": "uint256"
        }
      ],
      "name": "decreaseAllowance",
      "outputs": [
        {
          "internalType": "bool",
          "name": "",
          "type": "bool"
        }
      ],
      "stateMutability": "nonpayable",
      "type": "function"
    },
    {
      "inputs": [
        {
          "internalType": "address",
          "name": "user",
          "type": "address"
        },
        {
          "internalType": "bytes",
          "name": "depositData",
          "type": "bytes"
        }
      ],
      "name": "deposit",
      "outputs": [],
      "stateMutability": "nonpayable",
      "type": "function"
    },
    {
      "inputs": [
        {
          "internalType": "address",
          "name": "userAddress",
          "type": "address"
        },
        {
          "internalType": "bytes",
          "name": "functionSignature",
          "type": "bytes"
        },
        {
          "internalType": "bytes32",
          "name": "sigR",
          "type": "bytes32"
        },
        {
          "internalType": "bytes32",
          "name": "sigS",
          "type": "bytes32"
        },
        {
          "internalType": "uint8",
          "name": "sigV",
          "type": "uint8"
        }
      ],
      "name": "executeMetaTransaction",
      "outputs": [
        {
          "internalType": "bytes",
          "name": "",
          "type": "bytes"
        }
      ],
      "stateMutability": "payable",
      "type": "function"
    },
    {
      "inputs": [],
      "name": "getChainId",
      "outputs": [
        {
          "internalType": "uint256",
          "name": "",
          "type": "uint256"
        }
      ],
      "stateMutability": "pure",
      "type": "function"
    },
    {
      "inputs": [],
      "name": "getDomainSeperator",
      "outputs": [
        {
          "internalType": "bytes32",
          "name": "",
          "type": "bytes32"
        }
      ],
      "stateMutability": "view",
      "type": "function"
    },
    {
      "inputs": [
        {
          "internalType": "address",
          "name": "user",
          "type": "address"
        }
      ],
      "name": "getNonce",
      "outputs": [
        {
          "internalType": "uint256",
          "name": "nonce",
          "type": "uint256"
        }
      ],
      "stateMutability": "view",
      "type": "function"
    },
    {
      "inputs": [
        {
          "internalType": "bytes32",
          "name": "role",
          "type": "bytes32"
        }
      ],
      "name": "getRoleAdmin",
      "outputs": [
        {
          "internalType": "bytes32",
          "name": "",
          "type": "bytes32"
        }
      ],
      "stateMutability": "view",
      "type": "function"
    },
    {
      "inputs": [
        {
          "internalType": "bytes32",
          "name": "role",
          "type": "bytes32"
        },
        {
          "internalType": "uint256",
          "name": "index",
          "type": "uint256"
        }
      ],
      "name": "getRoleMember",
      "outputs": [
        {
          "internalType": "address",
          "name": "",
          "type": "address"
        }
      ],
      "stateMutability": "view",
      "type": "function"
    },
    {
      "inputs": [
        {
          "internalType": "bytes32",
          "name": "role",
          "type": "bytes32"
        }
      ],
      "name": "getRoleMemberCount",
      "outputs": [
        {
          "internalType": "uint256",
          "name": "",
          "type": "uint256"
        }
      ],
      "stateMutability": "view",
      "type": "function"
    },
    {
      "inputs": [
        {
          "internalType": "bytes32",
          "name": "role",
          "type": "bytes32"
        },
        {
          "internalType": "address",
          "name": "account",
          "type": "address"
        }
      ],
      "name": "grantRole",
      "outputs": [],
      "stateMutability": "nonpayable",
      "type": "function"
    },
    {
      "inputs": [
        {
          "internalType": "bytes32",
          "name": "role",
          "type": "bytes32"
        },
        {
          "internalType": "address",
          "name": "account",
          "type": "address"
        }
      ],
      "name": "hasRole",
      "outputs": [
        {
          "internalType": "bool",
          "name": "",
          "type": "bool"
        }
      ],
      "stateMutability": "view",
      "type": "function"
    },
    {
      "inputs": [
        {
          "internalType": "address",
          "name": "spender",
          "type": "address"
        },
        {
          "internalType": "uint256",
          "name": "addedValue",
          "type": "uint256"
        }
      ],
      "name": "increaseAllowance",
      "outputs": [
        {
          "internalType": "bool",
          "name": "",
          "type": "bool"
        }
      ],
      "stateMutability": "nonpayable",
      "type": "function"
    },
    {
      "inputs": [
        {
          "internalType": "address",
          "name": "user",
          "type": "address"
        },
        {
          "internalType": "uint256",
          "name": "amount",
          "type": "uint256"
        }
      ],
      "name": "mint",
      "outputs": [],
      "stateMutability": "nonpayable",
      "type": "function"
    },
    {
      "inputs": [],
      "name": "name",
      "outputs": [
        {
          "internalType": "string",
          "name": "",
          "type": "string"
        }
      ],
      "stateMutability": "view",
      "type": "function"
    },
    {
      "inputs": [
        {
          "internalType": "bytes32",
          "name": "role",
          "type": "bytes32"
        },
        {
          "internalType": "address",
          "name": "account",
          "type": "address"
        }
      ],
      "name": "renounceRole",
      "outputs": [],
      "stateMutability": "nonpayable",
      "type": "function"
    },
    {
      "inputs": [
        {
          "internalType": "bytes32",
          "name": "role",
          "type": "bytes32"
        },
        {
          "internalType": "address",
          "name": "account",
          "type": "address"
        }
      ],
      "name": "revokeRole",
      "outputs": [],
      "stateMutability": "nonpayable",
      "type": "function"
    },
    {
      "inputs": [],
      "name": "symbol",
      "outputs": [
        {
          "internalType": "string",
          "name": "",
          "type": "string"
        }
      ],
      "stateMutability": "view",
      "type": "function"
    },
    {
      "inputs": [],
      "name": "totalSupply",
      "outputs": [
        {
          "internalType": "uint256",
          "name": "",
          "type": "uint256"
        }
      ],
      "stateMutability": "view",
      "type": "function"
    },
    {
      "inputs": [
        {
          "internalType": "address",
          "name": "recipient",
          "type": "address"
        },
        {
          "internalType": "uint256",
          "name": "amount",
          "type": "uint256"
        }
      ],
      "name": "transfer",
      "outputs": [
        {
          "internalType": "bool",
          "name": "",
          "type": "bool"
        }
      ],
      "stateMutability": "nonpayable",
      "type": "function"
    },
    {
      "inputs": [
        {
          "internalType": "address",
          "name": "sender",
          "type": "address"
        },
        {
          "internalType": "address",
          "name": "recipient",
          "type": "address"
        },
        {
          "internalType": "uint256",
          "name": "amount",
          "type": "uint256"
        }
      ],
      "name": "transferFrom",
      "outputs": [
        {
          "internalType": "bool",
          "name": "",
          "type": "bool"
        }
      ],
      "stateMutability": "nonpayable",
      "type": "function"
    },
    {
      "inputs": [
        {
          "internalType": "uint256",
          "name": "amount",
          "type": "uint256"
        }
      ],
      "name": "withdraw",
      "outputs": [],
      "stateMutability": "nonpayable",
      "type": "function"
    }
  ],
  "transactionHash": "0x2dd294ab793ca8e2f05954d6f0a2f6f2798f213e8f995849c149726e1106dc68",
  "args": [
    "DevERC20",
    "DevERC20",
    "40000000",
    18,
    "0xb5505a6d998549090530911180f38aC5130101c6"
  ],
  "solcInputHash": "788b92881b43e8a0fa5ca3f5cc2d921a",
  "bytecode": "0x60806040526008805460ff191690553480156200001b57600080fd5b506040516200295d3803806200295d833981810160405260a08110156200004157600080fd5b81019080805160405193929190846401000000008211156200006257600080fd5b9083019060208201858111156200007857600080fd5b82516401000000008111828201881017156200009357600080fd5b82525081516020918201929091019080838360005b83811015620000c2578181015183820152602001620000a8565b50505050905090810190601f168015620000f05780820380516001836020036101000a031916815260200191505b50604052602001805160405193929190846401000000008211156200011457600080fd5b9083019060208201858111156200012a57600080fd5b82516401000000008111828201881017156200014557600080fd5b82525081516020918201929091019080838360005b83811015620001745781810151838201526020016200015a565b50505050905090810190601f168015620001a25780820380516001836020036101000a031916815260200191505b50604090815260208281015191830151606090930151875192955092935086918691620001d5916003918501906200080e565b508051620001eb9060049060208401906200080e565b50506005805460ff191660121790555060408051808201909152600a81526929b5b4b6362a37b5b2b760b11b602082015262000230906001600160e01b03620002f216565b62000244826001600160e01b036200039816565b6200026c60006200025d6001600160e01b03620003ae16565b6001600160e01b03620003cb16565b604080516d4445504f5349544f525f524f4c4560901b8152905190819003600e019020620002a490826001600160e01b03620003cb16565b620002b8856001600160e01b03620003e016565b620002e7620002cf6001600160e01b03620003ae16565b60ff8416600a0a85026001600160e01b036200044e16565b5050505050620008b0565b806040516020018082805190602001908083835b60208310620003275780518252601f19909201916020918201910162000306565b51815160209384036101000a60001901801990921691161790527f3a20494e53554646494349454e545f5045524d495353494f4e530000000000009190930190815260408051808303600519018152601a909201905280516200039495506007945092019190506200080e565b5050565b6005805460ff191660ff92909216919091179055565b6000620003c56200056660201b62001a1c1760201c565b90505b90565b6200039482826001600160e01b03620005c516565b60085460ff16156200042a576040805162461bcd60e51b815260206004820152600e60248201526d185b1c9958591e481a5b9a5d195960921b604482015290519081900360640190fd5b6200043e816001600160e01b036200064916565b506008805460ff19166001179055565b6001600160a01b038216620004aa576040805162461bcd60e51b815260206004820152601f60248201527f45524332303a206d696e7420746f20746865207a65726f206164647265737300604482015290519081900360640190fd5b620004c1600083836001600160e01b036200071116565b620004dd816002546200071660201b620014b61790919060201c565b6002556001600160a01b0382166000908152602081815260409091205462000510918390620014b662000716821b17901c565b6001600160a01b0383166000818152602081815260408083209490945583518581529351929391927fddf252ad1be2c89b69c2b068fc378daa952ba7f163c4a11628f55a4df523b3ef9281900390910190a35050565b600033301415620005c05760606000368080601f0160208091040260200160405190810160405280939291908181526020018383808284376000920191909152505050503601516001600160a01b03169150620003c89050565b503390565b6000828152600660209081526040909120620005ec91839062001b946200077a821b17901c565b156200039457620006056001600160e01b03620003ae16565b6001600160a01b0316816001600160a01b0316837f2f8788117e7eff1d82e926ec794901d17c78024a50270940304540a733656f0d60405160405180910390a45050565b6040518060800160405280604f81526020016200290e604f913980516020918201208251838301206040805180820190915260018152603160f81b930192909252907fc89efdaa54c0f20c7adf612882df0950f5a951637e0307cdcb4c672f298b8bc630620006c06001600160e01b036200079a16565b604080516020808201979097528082019590955260608501939093526001600160a01b03909116608084015260a0808401919091528151808403909101815260c09092019052805191012060095550565b505050565b60008282018381101562000771576040805162461bcd60e51b815260206004820152601b60248201527f536166654d6174683a206164646974696f6e206f766572666c6f770000000000604482015290519081900360640190fd5b90505b92915050565b600062000771836001600160a01b0384166001600160e01b036200079e16565b4690565b6000620007b583836001600160e01b03620007f616565b620007ed5750815460018181018455600084815260208082209093018490558454848252828601909352604090209190915562000774565b50600062000774565b60009081526001919091016020526040902054151590565b828054600181600116156101000203166002900490600052602060002090601f016020900481019282601f106200085157805160ff191683800117855562000881565b8280016001018555821562000881579182015b828111156200088157825182559160200191906001019062000864565b506200088f92915062000893565b5090565b620003c891905b808211156200088f57600081556001016200089a565b61204e80620008c06000396000f3fe6080604052600436106101cd5760003560e01c806339509351116100f7578063a217fddf11610095578063ca15c87311610064578063ca15c87314610765578063cf2c52cb1461078f578063d547741f1461081c578063dd62ed3e14610855576101cd565b8063a217fddf146106c9578063a3b0b5a3146106de578063a457c2d7146106f3578063a9059cbb1461072c576101cd565b80639010d07c116100d15780639010d07c146105f657806391d148541461064257806395d89b411461067b5780639dc29fac14610690576101cd565b8063395093511461055157806340c10f191461058a57806370a08231146105c3576101cd565b8063248a9ca31161016f5780632f2ff15d1161013e5780632f2ff15d1461049f578063313ce567146104d85780633408e4701461050357806336568abe14610518576101cd565b8063248a9ca314610401578063282c51f31461042b5780632d0335ab146104405780632e1a7d4d14610473576101cd565b80630f7e5970116101ab5780630f7e59701461036d57806318160ddd1461038257806320379ee5146103a957806323b872dd146103be576101cd565b806306fdde03146101d2578063095ea7b31461025c5780630c53c51c146102a9575b600080fd5b3480156101de57600080fd5b506101e7610890565b6040805160208082528351818301528351919283929083019185019080838360005b83811015610221578181015183820152602001610209565b50505050905090810190601f16801561024e5780820380516001836020036101000a031916815260200191505b509250505060405180910390f35b34801561026857600080fd5b506102956004803603604081101561027f57600080fd5b506001600160a01b038135169060200135610926565b604080519115158252519081900360200190f35b6101e7600480360360a08110156102bf57600080fd5b6001600160a01b0382351691908101906040810160208201356401000000008111156102ea57600080fd5b8201836020820111156102fc57600080fd5b8035906020019184600183028401116401000000008311171561031e57600080fd5b91908080601f016020809104026020016040519081016040528093929190818152602001838380828437600092019190915250929550508235935050506020810135906040013560ff16610944565b34801561037957600080fd5b506101e7610c47565b34801561038e57600080fd5b50610397610c64565b60408051918252519081900360200190f35b3480156103b557600080fd5b50610397610c6a565b3480156103ca57600080fd5b50610295600480360360608110156103e157600080fd5b506001600160a01b03813581169160208101359091169060400135610c70565b34801561040d57600080fd5b506103976004803603602081101561042457600080fd5b5035610cfd565b34801561043757600080fd5b50610397610d12565b34801561044c57600080fd5b506103976004803603602081101561046357600080fd5b50356001600160a01b0316610d35565b34801561047f57600080fd5b5061049d6004803603602081101561049657600080fd5b5035610d50565b005b3480156104ab57600080fd5b5061049d600480360360408110156104c257600080fd5b50803590602001356001600160a01b0316610d64565b3480156104e457600080fd5b506104ed610dd0565b6040805160ff9092168252519081900360200190f35b34801561050f57600080fd5b50610397610dd9565b34801561052457600080fd5b5061049d6004803603604081101561053b57600080fd5b50803590602001356001600160a01b0316610ddd565b34801561055d57600080fd5b506102956004803603604081101561057457600080fd5b506001600160a01b038135169060200135610e3e565b34801561059657600080fd5b5061049d600480360360408110156105ad57600080fd5b506001600160a01b038135169060200135610e92565b3480156105cf57600080fd5b50610397600480360360208110156105e657600080fd5b50356001600160a01b0316610f78565b34801561060257600080fd5b506106266004803603604081101561061957600080fd5b5080359060200135610f93565b604080516001600160a01b039092168252519081900360200190f35b34801561064e57600080fd5b506102956004803603604081101561066557600080fd5b50803590602001356001600160a01b0316610fb8565b34801561068757600080fd5b506101e7610fd6565b34801561069c57600080fd5b5061049d600480360360408110156106b357600080fd5b506001600160a01b038135169060200135611037565b3480156106d557600080fd5b506103976110d9565b3480156106ea57600080fd5b506103976110de565b3480156106ff57600080fd5b506102956004803603604081101561071657600080fd5b506001600160a01b038135169060200135611104565b34801561073857600080fd5b506102956004803603604081101561074f57600080fd5b506001600160a01b038135169060200135611172565b34801561077157600080fd5b506103976004803603602081101561078857600080fd5b5035611186565b34801561079b57600080fd5b5061049d600480360360408110156107b257600080fd5b6001600160a01b0382351691908101906040810160208201356401000000008111156107dd57600080fd5b8201836020820111156107ef57600080fd5b8035906020019184600183028401116401000000008311171561081157600080fd5b50909250905061119d565b34801561082857600080fd5b5061049d6004803603604081101561083f57600080fd5b50803590602001356001600160a01b031661125a565b34801561086157600080fd5b506103976004803603604081101561087857600080fd5b506001600160a01b03813581169160200135166112b3565b60038054604080516020601f600260001961010060018816150201909516949094049384018190048102820181019092528281526060939092909183018282801561091c5780601f106108f15761010080835404028352916020019161091c565b820191906000526020600020905b8154815290600101906020018083116108ff57829003601f168201915b5050505050905090565b600061093a6109336112de565b84846112ed565b5060015b92915050565b606061094e611d4e565b50604080516060810182526001600160a01b0388166000818152600a60209081529084902054835282015290810186905261098c87828787876113d9565b6109c75760405162461bcd60e51b8152600401808060200182810382526021815260200180611f3a6021913960400191505060405180910390fd5b6001600160a01b0387166000908152600a60205260409020546109f190600163ffffffff6114b616565b6001600160a01b0388166000818152600a602090815260408083209490945583519283523383820181905260609484018581528b51958501959095528a517f5845892132946850460bff5a0083f71031bc5bf9aadcd40f1de79423eac9b10b958d9592948d94919260808501928601918190849084905b83811015610a80578181015183820152602001610a68565b50505050905090810190601f168015610aad5780820380516001836020036101000a031916815260200191505b5094505050505060405180910390a160006060306001600160a01b0316888a6040516020018083805190602001908083835b60208310610afe5780518252601f199092019160209182019101610adf565b6001836020036101000a038019825116818451168082178552505050505050905001826001600160a01b03166001600160a01b031660601b8152601401925050506040516020818303038152906040526040518082805190602001908083835b60208310610b7d5780518252601f199092019160209182019101610b5e565b6001836020036101000a0380198251168184511680821785525050505050509050019150506000604051808303816000865af19150503d8060008114610bdf576040519150601f19603f3d011682016040523d82523d6000602084013e610be4565b606091505b509150915081610c3b576040805162461bcd60e51b815260206004820152601c60248201527f46756e6374696f6e2063616c6c206e6f74207375636365737366756c00000000604482015290519081900360640190fd5b98975050505050505050565b604051806040016040528060018152602001603160f81b81525081565b60025490565b60095490565b6000610c7d848484611510565b610cf384610c896112de565b610cee85604051806060016040528060288152602001611f12602891396001600160a01b038a16600090815260016020526040812090610cc76112de565b6001600160a01b03168152602081019190915260400160002054919063ffffffff61167716565b6112ed565b5060019392505050565b60009081526006602052604090206002015490565b604080516a4255524e45525f524f4c4560a81b8152905190819003600b01902081565b6001600160a01b03166000908152600a602052604090205490565b610d61610d5b6112de565b8261170e565b50565b600082815260066020526040902060020154610d8790610d826112de565b610fb8565b610dc25760405162461bcd60e51b815260040180806020018281038252602f815260200180611dbe602f913960400191505060405180910390fd5b610dcc8282611816565b5050565b60055460ff1690565b4690565b610de56112de565b6001600160a01b0316816001600160a01b031614610e345760405162461bcd60e51b815260040180806020018281038252602f815260200180611fea602f913960400191505060405180910390fd5b610dcc8282611885565b600061093a610e4b6112de565b84610cee8560016000610e5c6112de565b6001600160a01b03908116825260208083019390935260409182016000908120918c16815292529020549063ffffffff6114b616565b6000610ea081610d826112de565b600790610f405760405162461bcd60e51b8152602060048201908152825460026000196101006001841615020190911604602483018190529091829160449091019084908015610f315780601f10610f0657610100808354040283529160200191610f31565b820191906000526020600020905b815481529060010190602001808311610f1457829003601f168201915b50509250505060405180910390fd5b5060405162461bcd60e51b8152600401808060200182810382526023815260200180611e9a6023913960400191505060405180910390fd5b6001600160a01b031660009081526020819052604090205490565b6000828152600660205260408120610fb1908363ffffffff6118f416565b9392505050565b6000828152600660205260408120610fb1908363ffffffff61190016565b60048054604080516020601f600260001961010060018816150201909516949094049384018190048102820181019092528281526060939092909183018282801561091c5780601f106108f15761010080835404028352916020019161091c565b604080516a4255524e45525f524f4c4560a81b8152905190819003600b01902061106381610d826112de565b6007906110c95760405162461bcd60e51b8152602060048201908152825460026000196101006001841615020190911604602483018190529091829160449091019084908015610f315780601f10610f0657610100808354040283529160200191610f31565b506110d4838361170e565b505050565b600081565b604080516d4445504f5349544f525f524f4c4560901b8152905190819003600e01902081565b600061093a6111116112de565b84610cee85604051806060016040528060258152602001611fc5602591396001600061113b6112de565b6001600160a01b03908116825260208083019390935260409182016000908120918d1681529252902054919063ffffffff61167716565b600061093a61117f6112de565b8484611510565b600081815260066020526040812061093e90611915565b604080516d4445504f5349544f525f524f4c4560901b8152905190819003600e0190206111cc81610d826112de565b6007906112325760405162461bcd60e51b8152602060048201908152825460026000196101006001841615020190911604602483018190529091829160449091019084908015610f315780601f10610f0657610100808354040283529160200191610f31565b5060008383602081101561124557600080fd5b503590506112538582611920565b5050505050565b60008281526006602052604090206002015461127890610d826112de565b610e345760405162461bcd60e51b8152600401808060200182810382526030815260200180611ebd6030913960400191505060405180910390fd5b6001600160a01b03918216600090815260016020908152604080832093909416825291909152205490565b60006112e8611a1c565b905090565b6001600160a01b0383166113325760405162461bcd60e51b8152600401808060200182810382526024815260200180611fa16024913960400191505060405180910390fd5b6001600160a01b0382166113775760405162461bcd60e51b8152600401808060200182810382526022815260200180611e526022913960400191505060405180910390fd5b6001600160a01b03808416600081815260016020908152604080832094871680845294825291829020859055815185815291517f8c5be1e5ebec7d5bd14f71427d1e84f3dd0314c0f7b2291e5b200ac8c7c3b9259281900390910190a3505050565b60006001600160a01b0386166114205760405162461bcd60e51b8152600401808060200182810382526025815260200180611eed6025913960400191505060405180910390fd5b600161143361142e87611a7a565b611b06565b83868660405160008152602001604052604051808581526020018460ff1660ff1681526020018381526020018281526020019450505050506020604051602081039080840390855afa15801561148d573d6000803e3d6000fd5b505050602060405103516001600160a01b0316866001600160a01b031614905095945050505050565b600082820183811015610fb1576040805162461bcd60e51b815260206004820152601b60248201527f536166654d6174683a206164646974696f6e206f766572666c6f770000000000604482015290519081900360640190fd5b6001600160a01b0383166115555760405162461bcd60e51b8152600401808060200182810382526025815260200180611f7c6025913960400191505060405180910390fd5b6001600160a01b03821661159a5760405162461bcd60e51b8152600401808060200182810382526023815260200180611d9b6023913960400191505060405180910390fd5b6115a58383836110d4565b6115e881604051806060016040528060268152602001611e74602691396001600160a01b038616600090815260208190526040902054919063ffffffff61167716565b6001600160a01b03808516600090815260208190526040808220939093559084168152205461161d908263ffffffff6114b616565b6001600160a01b038084166000818152602081815260409182902094909455805185815290519193928716927fddf252ad1be2c89b69c2b068fc378daa952ba7f163c4a11628f55a4df523b3ef92918290030190a3505050565b600081848411156117065760405162461bcd60e51b81526004018080602001828103825283818151815260200191508051906020019080838360005b838110156116cb5781810151838201526020016116b3565b50505050905090810190601f1680156116f85780820380516001836020036101000a031916815260200191505b509250505060405180910390fd5b505050900390565b6001600160a01b0382166117535760405162461bcd60e51b8152600401808060200182810382526021815260200180611f5b6021913960400191505060405180910390fd5b61175f826000836110d4565b6117a281604051806060016040528060228152602001611ded602291396001600160a01b038516600090815260208190526040902054919063ffffffff61167716565b6001600160a01b0383166000908152602081905260409020556002546117ce908263ffffffff611b5216565b6002556040805182815290516000916001600160a01b038516917fddf252ad1be2c89b69c2b068fc378daa952ba7f163c4a11628f55a4df523b3ef9181900360200190a35050565b6000828152600660205260409020611834908263ffffffff611b9416565b15610dcc576118416112de565b6001600160a01b0316816001600160a01b0316837f2f8788117e7eff1d82e926ec794901d17c78024a50270940304540a733656f0d60405160405180910390a45050565b60008281526006602052604090206118a3908263ffffffff611ba916565b15610dcc576118b06112de565b6001600160a01b0316816001600160a01b0316837ff6391f5c32d9c69d2a47ea670b442974b53935d1edc7fd64eb21e047a839171b60405160405180910390a45050565b6000610fb18383611bbe565b6000610fb1836001600160a01b038416611c22565b600061093e82611c3a565b6001600160a01b03821661197b576040805162461bcd60e51b815260206004820152601f60248201527f45524332303a206d696e7420746f20746865207a65726f206164647265737300604482015290519081900360640190fd5b611987600083836110d4565b60025461199a908263ffffffff6114b616565b6002556001600160a01b0382166000908152602081905260409020546119c6908263ffffffff6114b616565b6001600160a01b0383166000818152602081815260408083209490945583518581529351929391927fddf252ad1be2c89b69c2b068fc378daa952ba7f163c4a11628f55a4df523b3ef9281900390910190a35050565b600033301415611a745760606000368080601f0160208091040260200160405190810160405280939291908181526020018383808284376000920191909152505050503601516001600160a01b03169150611a779050565b50335b90565b6000604051806080016040528060438152602001611e0f60439139805190602001208260000151836020015184604001518051906020012060405160200180858152602001848152602001836001600160a01b03166001600160a01b03168152602001828152602001945050505050604051602081830303815290604052805190602001209050919050565b6000611b10610c6a565b82604051602001808061190160f01b81525060020183815260200182815260200192505050604051602081830303815290604052805190602001209050919050565b6000610fb183836040518060400160405280601e81526020017f536166654d6174683a207375627472616374696f6e206f766572666c6f770000815250611677565b6000610fb1836001600160a01b038416611c3e565b6000610fb1836001600160a01b038416611c88565b81546000908210611c005760405162461bcd60e51b8152600401808060200182810382526022815260200180611d796022913960400191505060405180910390fd5b826000018281548110611c0f57fe5b9060005260206000200154905092915050565b60009081526001919091016020526040902054151590565b5490565b6000611c4a8383611c22565b611c805750815460018181018455600084815260208082209093018490558454848252828601909352604090209190915561093e565b50600061093e565b60008181526001830160205260408120548015611d445783546000198083019190810190600090879083908110611cbb57fe5b9060005260206000200154905080876000018481548110611cd857fe5b600091825260208083209091019290925582815260018981019092526040902090840190558654879080611d0857fe5b6001900381819060005260206000200160009055905586600101600087815260200190815260200160002060009055600194505050505061093e565b600091505061093e565b60405180606001604052806000815260200160006001600160a01b0316815260200160608152509056fe456e756d657261626c655365743a20696e646578206f7574206f6620626f756e647345524332303a207472616e7366657220746f20746865207a65726f2061646472657373416363657373436f6e74726f6c3a2073656e646572206d75737420626520616e2061646d696e20746f206772616e7445524332303a206275726e20616d6f756e7420657863656564732062616c616e63654d6574615472616e73616374696f6e2875696e74323536206e6f6e63652c616464726573732066726f6d2c62797465732066756e6374696f6e5369676e61747572652945524332303a20617070726f766520746f20746865207a65726f206164647265737345524332303a207472616e7366657220616d6f756e7420657863656564732062616c616e63654e6f206d696e74696e6720616c6c6f776564206166746572206465706c6f796d656e74416363657373436f6e74726f6c3a2073656e646572206d75737420626520616e2061646d696e20746f207265766f6b654e61746976654d6574615472616e73616374696f6e3a20494e56414c49445f5349474e455245524332303a207472616e7366657220616d6f756e74206578636565647320616c6c6f77616e63655369676e657220616e64207369676e617475726520646f206e6f74206d6174636845524332303a206275726e2066726f6d20746865207a65726f206164647265737345524332303a207472616e736665722066726f6d20746865207a65726f206164647265737345524332303a20617070726f76652066726f6d20746865207a65726f206164647265737345524332303a2064656372656173656420616c6c6f77616e63652062656c6f77207a65726f416363657373436f6e74726f6c3a2063616e206f6e6c792072656e6f756e636520726f6c657320666f722073656c66a2646970667358221220d9f2b53fcdaa3a9b8a66bf931c8f2ba0ccc8924338b503e0ef60d62f194eda8964736f6c63430006060033454950373132446f6d61696e28737472696e67206e616d652c737472696e672076657273696f6e2c6164647265737320766572696679696e67436f6e74726163742c627974657333322073616c7429",
  "devdoc": {
    "methods": {
      "allowance(address,address)": {
        "details": "See {IERC20-allowance}."
      },
      "approve(address,uint256)": {
        "details": "See {IERC20-approve}.     * Requirements:     * - `spender` cannot be the zero address."
      },
      "balanceOf(address)": {
        "details": "See {IERC20-balanceOf}."
      },
      "decimals()": {
        "details": "Returns the number of decimals used to get its user representation. For example, if `decimals` equals `2`, a balance of `505` tokens should be displayed to a user as `5,05` (`505 / 10 ** 2`).     * Tokens usually opt for a value of 18, imitating the relationship between Ether and Wei. This is the value {ERC20} uses, unless {_setupDecimals} is called.     * NOTE: This information is only used for _display_ purposes: it in no way affects any of the arithmetic of the contract, including {IERC20-balanceOf} and {IERC20-transfer}."
      },
      "decreaseAllowance(address,uint256)": {
        "details": "Atomically decreases the allowance granted to `spender` by the caller.     * This is an alternative to {approve} that can be used as a mitigation for problems described in {IERC20-approve}.     * Emits an {Approval} event indicating the updated allowance.     * Requirements:     * - `spender` cannot be the zero address. - `spender` must have allowance for the caller of at least `subtractedValue`."
      },
      "deposit(address,bytes)": {
        "details": "Should be callable only by ChildChainManager Should handle deposit by minting the required amount for user Make sure minting is done only by this function",
        "params": {
          "depositData": "abi encoded amount",
          "user": "user address for whom deposit is being done"
        }
      },
      "getRoleAdmin(bytes32)": {
        "details": "Returns the admin role that controls `role`. See {grantRole} and {revokeRole}.     * To change a role's admin, use {_setRoleAdmin}."
      },
      "getRoleMember(bytes32,uint256)": {
        "details": "Returns one of the accounts that have `role`. `index` must be a value between 0 and {getRoleMemberCount}, non-inclusive.     * Role bearers are not sorted in any particular way, and their ordering may change at any point.     * WARNING: When using {getRoleMember} and {getRoleMemberCount}, make sure you perform all queries on the same block. See the following https://forum.openzeppelin.com/t/iterating-over-elements-on-enumerableset-in-openzeppelin-contracts/2296[forum post] for more information."
      },
      "getRoleMemberCount(bytes32)": {
        "details": "Returns the number of accounts that have `role`. Can be used together with {getRoleMember} to enumerate all bearers of a role."
      },
      "grantRole(bytes32,address)": {
        "details": "Grants `role` to `account`.     * If `account` had not been already granted `role`, emits a {RoleGranted} event.     * Requirements:     * - the caller must have ``role``'s admin role."
      },
      "hasRole(bytes32,address)": {
        "details": "Returns `true` if `account` has been granted `role`."
      },
      "increaseAllowance(address,uint256)": {
        "details": "Atomically increases the allowance granted to `spender` by the caller.     * This is an alternative to {approve} that can be used as a mitigation for problems described in {IERC20-approve}.     * Emits an {Approval} event indicating the updated allowance.     * Requirements:     * - `spender` cannot be the zero address."
      },
      "name()": {
        "details": "Returns the name of the token."
      },
      "renounceRole(bytes32,address)": {
        "details": "Revokes `role` from the calling account.     * Roles are often managed via {grantRole} and {revokeRole}: this function's purpose is to provide a mechanism for accounts to lose their privileges if they are compromised (such as when a trusted device is misplaced).     * If the calling account had been granted `role`, emits a {RoleRevoked} event.     * Requirements:     * - the caller must be `account`."
      },
      "revokeRole(bytes32,address)": {
        "details": "Revokes `role` from `account`.     * If `account` had been granted `role`, emits a {RoleRevoked} event.     * Requirements:     * - the caller must have ``role``'s admin role."
      },
      "symbol()": {
        "details": "Returns the symbol of the token, usually a shorter version of the name."
      },
      "totalSupply()": {
        "details": "See {IERC20-totalSupply}."
      },
      "transfer(address,uint256)": {
        "details": "See {IERC20-transfer}.     * Requirements:     * - `recipient` cannot be the zero address. - the caller must have a balance of at least `amount`."
      },
      "transferFrom(address,address,uint256)": {
        "details": "See {IERC20-transferFrom}.     * Emits an {Approval} event indicating the updated allowance. This is not required by the EIP. See the note at the beginning of {ERC20};     * Requirements: - `sender` and `recipient` cannot be the zero address. - `sender` must have a balance of at least `amount`. - the caller must have allowance for ``sender``'s tokens of at least `amount`."
      },
      "withdraw(uint256)": {
        "details": "Should burn user's tokens. This transaction will be verified when exiting on root chain",
        "params": {
          "amount": "amount of tokens to withdraw"
        }
      }
    }
  },
  "userdoc": {
    "methods": {
      "deposit(address,bytes)": {
        "notice": "called when token is deposited on root chain"
      },
      "withdraw(uint256)": {
        "notice": "called when user wants to withdraw tokens back to root chain"
      }
    }
  },
  "storageLayout": {
    "storage": [
      {
        "astId": 513,
        "contract": "contracts/SkillToken.sol:SkillToken",
        "label": "_balances",
        "offset": 0,
        "slot": "0",
        "type": "t_mapping(t_address,t_uint256)"
      },
      {
        "astId": 519,
        "contract": "contracts/SkillToken.sol:SkillToken",
        "label": "_allowances",
        "offset": 0,
        "slot": "1",
        "type": "t_mapping(t_address,t_mapping(t_address,t_uint256))"
      },
      {
        "astId": 521,
        "contract": "contracts/SkillToken.sol:SkillToken",
        "label": "_totalSupply",
        "offset": 0,
        "slot": "2",
        "type": "t_uint256"
      },
      {
        "astId": 523,
        "contract": "contracts/SkillToken.sol:SkillToken",
        "label": "_name",
        "offset": 0,
        "slot": "3",
        "type": "t_string_storage"
      },
      {
        "astId": 525,
        "contract": "contracts/SkillToken.sol:SkillToken",
        "label": "_symbol",
        "offset": 0,
        "slot": "4",
        "type": "t_string_storage"
      },
      {
        "astId": 527,
        "contract": "contracts/SkillToken.sol:SkillToken",
        "label": "_decimals",
        "offset": 0,
        "slot": "5",
        "type": "t_uint8"
      },
      {
        "astId": 1412,
        "contract": "contracts/SkillToken.sol:SkillToken",
        "label": "_roles",
        "offset": 0,
        "slot": "6",
        "type": "t_mapping(t_bytes32,t_struct(RoleData)1408_storage)"
      },
      {
        "astId": 1677,
        "contract": "contracts/SkillToken.sol:SkillToken",
        "label": "_revertMsg",
        "offset": 0,
        "slot": "7",
        "type": "t_string_storage"
      },
      {
        "astId": 1723,
        "contract": "contracts/SkillToken.sol:SkillToken",
        "label": "inited",
        "offset": 0,
        "slot": "8",
        "type": "t_bool"
      },
      {
        "astId": 1763,
        "contract": "contracts/SkillToken.sol:SkillToken",
        "label": "domainSeperator",
        "offset": 0,
        "slot": "9",
        "type": "t_bytes32"
      },
      {
        "astId": 1877,
        "contract": "contracts/SkillToken.sol:SkillToken",
        "label": "nonces",
        "offset": 0,
        "slot": "10",
        "type": "t_mapping(t_address,t_uint256)"
      }
    ],
    "types": {
      "t_address": {
        "encoding": "inplace",
        "label": "address",
        "numberOfBytes": "20"
      },
      "t_array(t_bytes32)dyn_storage": {
        "base": "t_bytes32",
        "encoding": "dynamic_array",
        "label": "bytes32[]",
        "numberOfBytes": "32"
      },
      "t_bool": {
        "encoding": "inplace",
        "label": "bool",
        "numberOfBytes": "1"
      },
      "t_bytes32": {
        "encoding": "inplace",
        "label": "bytes32",
        "numberOfBytes": "32"
      },
      "t_mapping(t_address,t_mapping(t_address,t_uint256))": {
        "encoding": "mapping",
        "key": "t_address",
        "label": "mapping(address => mapping(address => uint256))",
        "numberOfBytes": "32",
        "value": "t_mapping(t_address,t_uint256)"
      },
      "t_mapping(t_address,t_uint256)": {
        "encoding": "mapping",
        "key": "t_address",
        "label": "mapping(address => uint256)",
        "numberOfBytes": "32",
        "value": "t_uint256"
      },
      "t_mapping(t_bytes32,t_struct(RoleData)1408_storage)": {
        "encoding": "mapping",
        "key": "t_bytes32",
        "label": "mapping(bytes32 => struct AccessControl.RoleData)",
        "numberOfBytes": "32",
        "value": "t_struct(RoleData)1408_storage"
      },
      "t_mapping(t_bytes32,t_uint256)": {
        "encoding": "mapping",
        "key": "t_bytes32",
        "label": "mapping(bytes32 => uint256)",
        "numberOfBytes": "32",
        "value": "t_uint256"
      },
      "t_string_storage": {
        "encoding": "bytes",
        "label": "string",
        "numberOfBytes": "32"
      },
      "t_struct(AddressSet)1189_storage": {
        "encoding": "inplace",
        "label": "struct EnumerableSet.AddressSet",
        "members": [
          {
            "astId": 1188,
            "contract": "contracts/SkillToken.sol:SkillToken",
            "label": "_inner",
            "offset": 0,
            "slot": "0",
            "type": "t_struct(Set)1009_storage"
          }
        ],
        "numberOfBytes": "64"
      },
      "t_struct(RoleData)1408_storage": {
        "encoding": "inplace",
        "label": "struct AccessControl.RoleData",
        "members": [
          {
            "astId": 1405,
            "contract": "contracts/SkillToken.sol:SkillToken",
            "label": "members",
            "offset": 0,
            "slot": "0",
            "type": "t_struct(AddressSet)1189_storage"
          },
          {
            "astId": 1407,
            "contract": "contracts/SkillToken.sol:SkillToken",
            "label": "adminRole",
            "offset": 0,
            "slot": "2",
            "type": "t_bytes32"
          }
        ],
        "numberOfBytes": "96"
      },
      "t_struct(Set)1009_storage": {
        "encoding": "inplace",
        "label": "struct EnumerableSet.Set",
        "members": [
          {
            "astId": 1004,
            "contract": "contracts/SkillToken.sol:SkillToken",
            "label": "_values",
            "offset": 0,
            "slot": "0",
            "type": "t_array(t_bytes32)dyn_storage"
          },
          {
            "astId": 1008,
            "contract": "contracts/SkillToken.sol:SkillToken",
            "label": "_indexes",
            "offset": 0,
            "slot": "1",
            "type": "t_mapping(t_bytes32,t_uint256)"
          }
        ],
        "numberOfBytes": "64"
      },
      "t_uint256": {
        "encoding": "inplace",
        "label": "uint256",
        "numberOfBytes": "32"
      },
      "t_uint8": {
        "encoding": "inplace",
        "label": "uint8",
        "numberOfBytes": "1"
      }
    }
  }
}