{
  "address": "0x6c72D6DD98ab3fB3405dAb40879963067Ae5dae2",
  "abi": [
    {
      "anonymous": false,
      "inputs": [
        {
          "indexed": false,
          "internalType": "address",
          "name": "account",
          "type": "address"
        }
      ],
      "name": "Paused",
      "type": "event"
    },
    {
      "anonymous": false,
      "inputs": [
        {
          "indexed": true,
          "internalType": "address",
          "name": "sender",
          "type": "address"
        },
        {
          "indexed": false,
          "internalType": "uint256",
          "name": "budget",
          "type": "uint256"
        }
      ],
      "name": "PeriodStart",
      "type": "event"
    },
    {
      "anonymous": false,
      "inputs": [
        {
          "indexed": true,
          "internalType": "uint256",
          "name": "periodIdx",
          "type": "uint256"
        },
        {
          "indexed": true,
          "internalType": "uint256",
          "name": "tokenId",
          "type": "uint256"
        },
        {
          "indexed": false,
          "internalType": "uint256",
          "name": "currentStars",
          "type": "uint256"
        },
        {
          "indexed": false,
          "internalType": "uint256",
          "name": "newStars",
          "type": "uint256"
        }
      ],
      "name": "PeriodUpdate",
      "type": "event"
    },
    {
      "anonymous": false,
      "inputs": [
        {
          "indexed": true,
          "internalType": "address",
          "name": "sender",
          "type": "address"
        },
        {
          "indexed": true,
          "internalType": "uint256",
          "name": "tokenId",
          "type": "uint256"
        },
        {
          "indexed": true,
          "internalType": "uint256",
          "name": "periodIdx",
          "type": "uint256"
        },
        {
          "indexed": false,
          "internalType": "uint256",
          "name": "tokenStars",
          "type": "uint256"
        },
        {
          "indexed": false,
          "internalType": "uint256",
          "name": "amount",
          "type": "uint256"
        }
      ],
      "name": "RewardClaim",
      "type": "event"
    },
    {
      "anonymous": false,
      "inputs": [
        {
          "indexed": true,
          "internalType": "bytes32",
          "name": "role",
          "type": "bytes32"
        },
        {
          "indexed": true,
          "internalType": "bytes32",
          "name": "previousAdminRole",
          "type": "bytes32"
        },
        {
          "indexed": true,
          "internalType": "bytes32",
          "name": "newAdminRole",
          "type": "bytes32"
        }
      ],
      "name": "RoleAdminChanged",
      "type": "event"
    },
    {
      "anonymous": false,
      "inputs": [
        {
          "indexed": true,
          "internalType": "bytes32",
          "name": "role",
          "type": "bytes32"
        },
        {
          "indexed": true,
          "internalType": "address",
          "name": "account",
          "type": "address"
        },
        {
          "indexed": true,
          "internalType": "address",
          "name": "sender",
          "type": "address"
        }
      ],
      "name": "RoleGranted",
      "type": "event"
    },
    {
      "anonymous": false,
      "inputs": [
        {
          "indexed": true,
          "internalType": "bytes32",
          "name": "role",
          "type": "bytes32"
        },
        {
          "indexed": true,
          "internalType": "address",
          "name": "account",
          "type": "address"
        },
        {
          "indexed": true,
          "internalType": "address",
          "name": "sender",
          "type": "address"
        }
      ],
      "name": "RoleRevoked",
      "type": "event"
    },
    {
      "anonymous": false,
      "inputs": [
        {
          "indexed": false,
          "internalType": "address",
          "name": "account",
          "type": "address"
        }
      ],
      "name": "Unpaused",
      "type": "event"
    },
    {
      "inputs": [],
      "name": "DEFAULT_ADMIN_ROLE",
      "outputs": [
        {
          "internalType": "bytes32",
          "name": "",
          "type": "bytes32"
        }
      ],
      "stateMutability": "view",
      "type": "function"
    },
    {
      "inputs": [],
      "name": "PAUSER_ROLE",
      "outputs": [
        {
          "internalType": "bytes32",
          "name": "",
          "type": "bytes32"
        }
      ],
      "stateMutability": "view",
      "type": "function"
    },
    {
      "inputs": [],
      "name": "TRAITCOUNT_DELTA",
      "outputs": [
        {
          "internalType": "uint256",
          "name": "",
          "type": "uint256"
        }
      ],
      "stateMutability": "view",
      "type": "function"
    },
    {
      "inputs": [
        {
          "internalType": "uint256",
          "name": "tokenId",
          "type": "uint256"
        },
        {
          "internalType": "uint256",
          "name": "periodIdx",
          "type": "uint256"
        }
      ],
      "name": "claimRewards",
      "outputs": [],
      "stateMutability": "nonpayable",
      "type": "function"
    },
    {
      "inputs": [
        {
          "internalType": "uint256",
          "name": "tokenId",
          "type": "uint256"
        },
        {
          "internalType": "uint256",
          "name": "periodIdx",
          "type": "uint256"
        }
      ],
      "name": "computeRewards",
      "outputs": [
        {
          "internalType": "uint256",
          "name": "amount",
          "type": "uint256"
        },
        {
          "internalType": "bool",
          "name": "claimed",
          "type": "bool"
        },
        {
          "internalType": "uint256",
          "name": "tokenStars",
          "type": "uint256"
        },
        {
          "internalType": "uint256",
          "name": "totalStars",
          "type": "uint256"
        },
        {
          "internalType": "uint256",
          "name": "budget",
          "type": "uint256"
        },
        {
          "internalType": "uint256",
          "name": "tokenTraitcount",
          "type": "uint256"
        },
        {
          "internalType": "bool",
          "name": "eligibleForRewards",
          "type": "bool"
        }
      ],
      "stateMutability": "view",
      "type": "function"
    },
    {
      "inputs": [],
      "name": "getAfterdeathAddress",
      "outputs": [
        {
          "internalType": "address",
          "name": "",
          "type": "address"
        }
      ],
      "stateMutability": "view",
      "type": "function"
    },
    {
      "inputs": [],
      "name": "getCurrentPeriodIndex",
      "outputs": [
        {
          "internalType": "uint256",
          "name": "",
          "type": "uint256"
        }
      ],
      "stateMutability": "view",
      "type": "function"
    },
    {
      "inputs": [
        {
          "internalType": "uint256",
          "name": "periodIdx",
          "type": "uint256"
        }
      ],
      "name": "getPeriodBalance",
      "outputs": [
        {
          "internalType": "uint256",
          "name": "",
          "type": "uint256"
        }
      ],
      "stateMutability": "view",
      "type": "function"
    },
    {
      "inputs": [
        {
          "internalType": "uint256",
          "name": "periodIdx",
          "type": "uint256"
        }
      ],
      "name": "getPeriodBudget",
      "outputs": [
        {
          "internalType": "uint256",
          "name": "",
          "type": "uint256"
        }
      ],
      "stateMutability": "view",
      "type": "function"
    },
    {
      "inputs": [
        {
          "internalType": "uint256",
          "name": "periodIdx",
          "type": "uint256"
        }
      ],
      "name": "getPeriodTotalStars",
      "outputs": [
        {
          "internalType": "uint256",
          "name": "",
          "type": "uint256"
        }
      ],
      "stateMutability": "view",
      "type": "function"
    },
    {
      "inputs": [
        {
          "internalType": "bytes32",
          "name": "role",
          "type": "bytes32"
        }
      ],
      "name": "getRoleAdmin",
      "outputs": [
        {
          "internalType": "bytes32",
          "name": "",
          "type": "bytes32"
        }
      ],
      "stateMutability": "view",
      "type": "function"
    },
    {
      "inputs": [
        {
          "internalType": "bytes32",
          "name": "role",
          "type": "bytes32"
        },
        {
          "internalType": "uint256",
          "name": "index",
          "type": "uint256"
        }
      ],
      "name": "getRoleMember",
      "outputs": [
        {
          "internalType": "address",
          "name": "",
          "type": "address"
        }
      ],
      "stateMutability": "view",
      "type": "function"
    },
    {
      "inputs": [
        {
          "internalType": "bytes32",
          "name": "role",
          "type": "bytes32"
        }
      ],
      "name": "getRoleMemberCount",
      "outputs": [
        {
          "internalType": "uint256",
          "name": "",
          "type": "uint256"
        }
      ],
      "stateMutability": "view",
      "type": "function"
    },
    {
      "inputs": [],
      "name": "getSGEAddress",
      "outputs": [
        {
          "internalType": "address",
          "name": "",
          "type": "address"
        }
      ],
      "stateMutability": "view",
      "type": "function"
    },
    {
      "inputs": [],
      "name": "getSNKAddress",
      "outputs": [
        {
          "internalType": "address",
          "name": "",
          "type": "address"
        }
      ],
      "stateMutability": "view",
      "type": "function"
    },
    {
      "inputs": [],
      "name": "getSNOOKAddress",
      "outputs": [
        {
          "internalType": "address",
          "name": "",
          "type": "address"
        }
      ],
      "stateMutability": "view",
      "type": "function"
    },
    {
      "inputs": [],
      "name": "getSnookGameAddress",
      "outputs": [
        {
          "internalType": "address",
          "name": "",
          "type": "address"
        }
      ],
      "stateMutability": "view",
      "type": "function"
    },
    {
      "inputs": [],
      "name": "getTreasuryAddress",
      "outputs": [
        {
          "internalType": "address",
          "name": "",
          "type": "address"
        }
      ],
      "stateMutability": "view",
      "type": "function"
    },
    {
      "inputs": [
        {
          "internalType": "bytes32",
          "name": "role",
          "type": "bytes32"
        },
        {
          "internalType": "address",
          "name": "account",
          "type": "address"
        }
      ],
      "name": "grantRole",
      "outputs": [],
      "stateMutability": "nonpayable",
      "type": "function"
    },
    {
      "inputs": [
        {
          "internalType": "bytes32",
          "name": "role",
          "type": "bytes32"
        },
        {
          "internalType": "address",
          "name": "account",
          "type": "address"
        }
      ],
      "name": "hasRole",
      "outputs": [
        {
          "internalType": "bool",
          "name": "",
          "type": "bool"
        }
      ],
      "stateMutability": "view",
      "type": "function"
    },
    {
      "inputs": [
        {
          "internalType": "address",
          "name": "sge",
          "type": "address"
        }
      ],
      "name": "initSGE",
      "outputs": [],
      "stateMutability": "nonpayable",
      "type": "function"
    },
    {
      "inputs": [
        {
          "internalType": "uint256",
          "name": "claimablePeriods",
          "type": "uint256"
        },
        {
          "internalType": "address",
          "name": "treasury",
          "type": "address"
        },
        {
          "internalType": "address",
          "name": "game",
          "type": "address"
        },
        {
          "internalType": "address",
          "name": "snook",
          "type": "address"
        },
        {
          "internalType": "address",
          "name": "skill",
          "type": "address"
        },
        {
          "internalType": "address",
          "name": "afterdeath",
          "type": "address"
        },
        {
          "internalType": "address",
          "name": "sge",
          "type": "address"
        },
        {
          "internalType": "address",
          "name": "adminAccount",
          "type": "address"
        }
      ],
      "name": "initialize",
      "outputs": [],
      "stateMutability": "nonpayable",
      "type": "function"
    },
    {
      "inputs": [],
      "name": "pause",
      "outputs": [],
      "stateMutability": "nonpayable",
      "type": "function"
    },
    {
      "inputs": [],
      "name": "paused",
      "outputs": [
        {
          "internalType": "bool",
          "name": "",
          "type": "bool"
        }
      ],
      "stateMutability": "view",
      "type": "function"
    },
    {
      "inputs": [
        {
          "internalType": "bytes32",
          "name": "role",
          "type": "bytes32"
        },
        {
          "internalType": "address",
          "name": "account",
          "type": "address"
        }
      ],
      "name": "renounceRole",
      "outputs": [],
      "stateMutability": "nonpayable",
      "type": "function"
    },
    {
      "inputs": [
        {
          "internalType": "bytes32",
          "name": "role",
          "type": "bytes32"
        },
        {
          "internalType": "address",
          "name": "account",
          "type": "address"
        }
      ],
      "name": "revokeRole",
      "outputs": [],
      "stateMutability": "nonpayable",
      "type": "function"
    },
    {
      "inputs": [
        {
          "internalType": "uint256",
          "name": "budget",
          "type": "uint256"
        }
      ],
      "name": "startNewPeriod",
      "outputs": [],
      "stateMutability": "nonpayable",
      "type": "function"
    },
    {
      "inputs": [
        {
          "internalType": "bytes4",
          "name": "interfaceId",
          "type": "bytes4"
        }
      ],
      "name": "supportsInterface",
      "outputs": [
        {
          "internalType": "bool",
          "name": "",
          "type": "bool"
        }
      ],
      "stateMutability": "view",
      "type": "function"
    },
    {
      "inputs": [],
      "name": "unpause",
      "outputs": [],
      "stateMutability": "nonpayable",
      "type": "function"
    },
    {
      "inputs": [
        {
          "internalType": "uint256",
          "name": "tokenId",
          "type": "uint256"
        },
        {
          "internalType": "uint256",
          "name": "currentStars",
          "type": "uint256"
        },
        {
          "internalType": "uint256",
          "name": "newStars",
          "type": "uint256"
        },
        {
          "internalType": "uint256",
          "name": "traitCount",
          "type": "uint256"
        }
      ],
      "name": "updatePeriod",
      "outputs": [],
      "stateMutability": "nonpayable",
      "type": "function"
    }
  ],
  "transactionHash": "0x5c8d998e9bfef0b43243ca8b2382c26a688270cb805ef0b1b4c5d758b901ddc1",
  "args": [],
  "solcInputHash": "15db5cc31fd09d73490812a4595bda3f",
  "bytecode": "0x608060405234801561001057600080fd5b50611aa1806100206000396000f3fe608060405234801561001057600080fd5b50600436106101da5760003560e01c80638456cb5911610104578063d547741f116100a2578063e63ab1e911610071578063e63ab1e9146103a4578063f697081a146103ac578063f8ab5855146103b4578063fc2e827c146103bc576101da565b8063d547741f1461036e578063d58a92ac14610381578063d9ae7da414610389578063e00246041461039c576101da565b806395b5ca9c116100de57806395b5ca9c14610338578063a217fddf1461034b578063b4f5a21a14610353578063ca15c8731461035b576101da565b80638456cb591461030a5780639010d07c1461031257806391d1485414610325576101da565b80632f2ff15d1161017c578063594dd4321161014b578063594dd432146102d45780635c975abb146102e757806377b408cd146102ef5780637a9aa2b014610302576101da565b80632f2ff15d1461029357806336568abe146102a65780633f4ba83a146102b95780634ac78ad3146102c1576101da565b8063175a7887116101b8578063175a78871461024357806323d0b9e414610263578063248a9ca31461026b57806324d17fa11461027e576101da565b806301ffc9a7146101df57806304515c44146102085780630b751db51461022e575b600080fd5b6101f26101ed3660046114cb565b6103cf565b6040516101ff9190611665565b60405180910390f35b61021b6102163660046114aa565b6103fa565b6040516101ff979695949392919061193d565b61023661045d565b6040516101ff9190611638565b610256610251366004611463565b61046d565b6040516101ff9190611670565b610236610482565b610256610279366004611463565b610492565b61029161028c366004611592565b6104a7565b005b6102916102a136600461147b565b61056b565b6102916102b436600461147b565b610592565b6102916105b4565b6102916102cf366004611463565b610603565b6102916102e23660046114aa565b61079d565b6101f26107da565b6102566102fd366004611463565b6107e3565b610236610809565b610291610819565b6102366103203660046114aa565b610861565b6101f261033336600461147b565b610879565b610256610346366004611463565b6108a4565b6102566108b6565b6102566108bb565b610256610369366004611463565b6108c1565b61029161037c36600461147b565b6108d8565b6102566108e2565b6102916103973660046114f3565b6108e7565b610236610a08565b610256610a17565b610236610a29565b610236610a38565b6102916103ca366004611427565b610a48565b60006001600160e01b03198216635a05180f60e01b14806103f457506103f482610a9e565b92915050565b60008060008060008060008088118015610416575060fd548811155b61043b5760405162461bcd60e51b8152600401610432906117e9565b60405180910390fd5b6104458989610ac3565b959f949e50929c50909a509850965090945092505050565b610103546001600160a01b031690565b600090815260fc602052604090206004015490565b610102546001600160a01b031690565b60009081526065602052604090206001015490565b610101546001600160a01b03163314806104cb575060ff546001600160a01b031633145b806104e15750610100546001600160a01b031633145b6104fd5760405162461bcd60e51b815260040161043290611863565b6105056107da565b156105225760405162461bcd60e51b8152600401610432906117bf565b600060fd54116105445760405162461bcd60e51b8152600401610432906118c0565b60fd5460009081526101046020908152604080832087845290915290208190555b50505050565b6105758282610b7b565b600082815260976020526040902061058d9082610b9a565b505050565b61059c8282610baf565b600082815260976020526040902061058d9082610bf5565b600080516020611a4c8339815191526105d4816105cf610c0a565b610c0e565b6105dc6107da565b6105f85760405162461bcd60e51b815260040161043290611723565b610600610c72565b50565b60fe546001600160a01b0316331461062d5760405162461bcd60e51b815260040161043290611751565b6106356107da565b156106525760405162461bcd60e51b8152600401610432906117bf565b600160fd6000828254610665919061196f565b909155505060fd8054600090815260fc60205260409020829055546001101561075957600060fc6000600160fd5461069d91906119c6565b81526020019081526020016000209050806004015460001480156106c15750805415155b15610757578054600582018190556101035460fe5460405163a9059cbb60e01b81526001600160a01b039283169363a9059cbb9361070393169160040161164c565b602060405180830381600087803b15801561071d57600080fd5b505af1158015610731573d6000803e3d6000fd5b505050506040513d601f19601f820116820180604052508101906107559190611443565b505b505b336001600160a01b03167fb4872058d7d1e2c4de91640c62c14dfb3b96f3c6cf4c89bd6e5b6bd924eb1da2826040516107929190611670565b60405180910390a250565b6107a56107da565b156107c25760405162461bcd60e51b8152600401610432906117bf565b60405162461bcd60e51b815260040161043290611788565b60c95460ff1690565b600081815260fc602052604081206005810154815461080291906119c6565b9392505050565b610101546001600160a01b031690565b600080516020611a4c833981519152610834816105cf610c0a565b61083c6107da565b156108595760405162461bcd60e51b8152600401610432906117bf565b610600610ce0565b60008281526097602052604081206108029083610d3b565b60009182526065602090815260408084206001600160a01b0393909316845291905290205460ff1690565b600090815260fc602052604090205490565b600081565b60fd5490565b60008181526097602052604081206103f490610d47565b61059c8282610d52565b600781565b600054610100900460ff1680610900575060005460ff16155b61091c5760405162461bcd60e51b815260040161043290611815565b600054610100900460ff16158015610947576000805460ff1961ff0019909116610100171660011790555b61094f610d71565b610957610e05565b60fb89905560fe80546001600160a01b03199081166001600160a01b038b811691909117909255610101805482168a8416179055610102805482168984161790556101038054821688841617905560ff805482168784161790556101008054909116918516919091179055600060fd8190556109d39083610e75565b6109eb600080516020611a4c83398151915283610e75565b80156109fd576000805461ff00191690555b505050505050505050565b60fe546001600160a01b031690565b600080516020611a4c83398151915281565b60ff546001600160a01b031690565b610100546001600160a01b031690565b7323fca1b66c39f2b6ef226b9f0f47686e27e0dfa03314610a7b5760405162461bcd60e51b81526004016104329061189a565b61010080546001600160a01b0319166001600160a01b0392909216919091179055565b60006001600160e01b03198216637965db0b60e01b14806103f457506103f482610e7f565b600081815260fc602081815260408084208685526001810183529084205485855292909152805460049091015483929183808315610b365783610b0684876119a7565b610b109190611987565b600089815260fc602090815260408083208d845260020190915290205490975060ff1695505b50506000868152610104602090815260408083208a84528252808320549883526101058252808320998352989052969096205493969295919490939192909160ff1690565b610b8482610492565b610b90816105cf610c0a565b61058d8383610e98565b6000610802836001600160a01b038416610f1f565b610bb7610c0a565b6001600160a01b0316816001600160a01b031614610be75760405162461bcd60e51b8152600401610432906118ee565b610bf18282610f69565b5050565b6000610802836001600160a01b038416610fee565b3390565b610c188282610879565b610bf157610c30816001600160a01b03166014611105565b610c3b836020611105565b604051602001610c4c9291906115c3565b60408051601f198184030181529082905262461bcd60e51b825261043291600401611679565b610c7a6107da565b610c965760405162461bcd60e51b815260040161043290611723565b60c9805460ff191690557f5db9ee0a495bf2e6ff9c91a7834c1ba4fdd244a5e8aa4e537bd38aeae4b073aa610cc9610c0a565b604051610cd69190611638565b60405180910390a1565b610ce86107da565b15610d055760405162461bcd60e51b8152600401610432906117bf565b60c9805460ff191660011790557f62e78cea01bee320cd4e420270b5ea74000d11b0c9f74754ebdbfc544b05a258610cc9610c0a565b600061080283836112b7565b60006103f482611310565b610d5b82610492565b610d67816105cf610c0a565b61058d8383610f69565b600054610100900460ff1680610d8a575060005460ff16155b610da65760405162461bcd60e51b815260040161043290611815565b600054610100900460ff16158015610dd1576000805460ff1961ff0019909116610100171660011790555b610dd9611314565b610de1611314565b610de9611314565b610df1611314565b8015610600576000805461ff001916905550565b600054610100900460ff1680610e1e575060005460ff16155b610e3a5760405162461bcd60e51b815260040161043290611815565b600054610100900460ff16158015610e65576000805460ff1961ff0019909116610100171660011790555b610e6d611314565b610df1611387565b6105758282611405565b6001600160e01b031981166301ffc9a760e01b14919050565b610ea28282610879565b610bf15760008281526065602090815260408083206001600160a01b03851684529091529020805460ff19166001179055610edb610c0a565b6001600160a01b0316816001600160a01b0316837f2f8788117e7eff1d82e926ec794901d17c78024a50270940304540a733656f0d60405160405180910390a45050565b6000610f2b838361140f565b610f61575081546001818101845560008481526020808220909301849055845484825282860190935260409020919091556103f4565b5060006103f4565b610f738282610879565b15610bf15760008281526065602090815260408083206001600160a01b03851684529091529020805460ff19169055610faa610c0a565b6001600160a01b0316816001600160a01b0316837ff6391f5c32d9c69d2a47ea670b442974b53935d1edc7fd64eb21e047a839171b60405160405180910390a45050565b600081815260018301602052604081205480156110fb5760006110126001836119c6565b8554909150600090611026906001906119c6565b9050600086600001828154811061104d57634e487b7160e01b600052603260045260246000fd5b906000526020600020015490508087600001848154811061107e57634e487b7160e01b600052603260045260246000fd5b6000918252602080832090910192909255828152600189019091526040902084905586548790806110bf57634e487b7160e01b600052603160045260246000fd5b600190038181906000526020600020016000905590558660010160008781526020019081526020016000206000905560019450505050506103f4565b60009150506103f4565b606060006111148360026119a7565b61111f90600261196f565b67ffffffffffffffff81111561114557634e487b7160e01b600052604160045260246000fd5b6040519080825280601f01601f19166020018201604052801561116f576020820181803683370190505b509050600360fc1b8160008151811061119857634e487b7160e01b600052603260045260246000fd5b60200101906001600160f81b031916908160001a905350600f60fb1b816001815181106111d557634e487b7160e01b600052603260045260246000fd5b60200101906001600160f81b031916908160001a90535060006111f98460026119a7565b61120490600161196f565b90505b6001811115611298576f181899199a1a9b1b9c1cb0b131b232b360811b85600f166010811061124657634e487b7160e01b600052603260045260246000fd5b1a60f81b82828151811061126a57634e487b7160e01b600052603260045260246000fd5b60200101906001600160f81b031916908160001a90535060049490941c9361129181611a09565b9050611207565b5083156108025760405162461bcd60e51b8152600401610432906116ee565b815460009082106112da5760405162461bcd60e51b8152600401610432906116ac565b8260000182815481106112fd57634e487b7160e01b600052603260045260246000fd5b9060005260206000200154905092915050565b5490565b600054610100900460ff168061132d575060005460ff16155b6113495760405162461bcd60e51b815260040161043290611815565b600054610100900460ff16158015610df1576000805460ff1961ff0019909116610100171660011790558015610600576000805461ff001916905550565b600054610100900460ff16806113a0575060005460ff16155b6113bc5760405162461bcd60e51b815260040161043290611815565b600054610100900460ff161580156113e7576000805460ff1961ff0019909116610100171660011790555b60c9805460ff191690558015610600576000805461ff001916905550565b610bf18282610e98565b60009081526001919091016020526040902054151590565b600060208284031215611438578081fd5b813561080281611a36565b600060208284031215611454578081fd5b81518015158114610802578182fd5b600060208284031215611474578081fd5b5035919050565b6000806040838503121561148d578081fd5b82359150602083013561149f81611a36565b809150509250929050565b600080604083850312156114bc578182fd5b50508035926020909101359150565b6000602082840312156114dc578081fd5b81356001600160e01b031981168114610802578182fd5b600080600080600080600080610100898b03121561150f578384fd5b88359750602089013561152181611a36565b9650604089013561153181611a36565b9550606089013561154181611a36565b9450608089013561155181611a36565b935060a089013561156181611a36565b925060c089013561157181611a36565b915060e089013561158181611a36565b809150509295985092959890939650565b600080600080608085870312156115a7578384fd5b5050823594602084013594506040840135936060013592509050565b60007f416363657373436f6e74726f6c3a206163636f756e7420000000000000000000825283516115fb8160178501602088016119dd565b7001034b99036b4b9b9b4b733903937b6329607d1b601791840191820152835161162c8160288401602088016119dd565b01602801949350505050565b6001600160a01b0391909116815260200190565b6001600160a01b03929092168252602082015260400190565b901515815260200190565b90815260200190565b60006020825282518060208401526116988160408501602087016119dd565b601f01601f19169190910160400192915050565b60208082526022908201527f456e756d657261626c655365743a20696e646578206f7574206f6620626f756e604082015261647360f01b606082015260800190565b6020808252818101527f537472696e67733a20686578206c656e67746820696e73756666696369656e74604082015260600190565b60208082526014908201527314185d5cd8589b194e881b9bdd081c185d5cd95960621b604082015260600190565b6020808252601c908201527f5374616b696e67526577617264733a204e6f7420747265617375727900000000604082015260600190565b60208082526017908201527f536b696e526577617264732069732064697361626c6564000000000000000000604082015260600190565b60208082526010908201526f14185d5cd8589b194e881c185d5cd95960821b604082015260600190565b602080825260129082015271155b98db185a5b58589b19481c195c9a5bd960721b604082015260600190565b6020808252602e908201527f496e697469616c697a61626c653a20636f6e747261637420697320616c72656160408201526d191e481a5b9a5d1a585b1a5e995960921b606082015260800190565b6020808252601f908201527f536b696e526577617264733a204e6f742067616d6520636f6e74726163747300604082015260600190565b6020808252600c908201526b2737ba103232b83637bcb2b960a11b604082015260600190565b602080825260149082015273506572696f64732073746172742066726f6d203160601b604082015260600190565b6020808252602f908201527f416363657373436f6e74726f6c3a2063616e206f6e6c792072656e6f756e636560408201526e103937b632b9903337b91039b2b63360891b606082015260800190565b968752941515602087015260408601939093526060850191909152608084015260a0830152151560c082015260e00190565b6000821982111561198257611982611a20565b500190565b6000826119a257634e487b7160e01b81526012600452602481fd5b500490565b60008160001904831182151516156119c1576119c1611a20565b500290565b6000828210156119d8576119d8611a20565b500390565b60005b838110156119f85781810151838201526020016119e0565b838111156105655750506000910152565b600081611a1857611a18611a20565b506000190190565b634e487b7160e01b600052601160045260246000fd5b6001600160a01b038116811461060057600080fdfe65d7a28e3265b37a6474929f336521b332c1681b933f6cb9f3376673440d862aa26469706673582212202673b0484f1e8363d7803e05caf8566701865ef7c736df353940d12789b70d7964736f6c63430008000033",
  "devdoc": {
    "kind": "dev",
    "methods": {
      "getRoleAdmin(bytes32)": {
        "details": "Returns the admin role that controls `role`. See {grantRole} and {revokeRole}. To change a role's admin, use {_setRoleAdmin}."
      },
      "getRoleMember(bytes32,uint256)": {
        "details": "Returns one of the accounts that have `role`. `index` must be a value between 0 and {getRoleMemberCount}, non-inclusive. Role bearers are not sorted in any particular way, and their ordering may change at any point. WARNING: When using {getRoleMember} and {getRoleMemberCount}, make sure you perform all queries on the same block. See the following https://forum.openzeppelin.com/t/iterating-over-elements-on-enumerableset-in-openzeppelin-contracts/2296[forum post] for more information."
      },
      "getRoleMemberCount(bytes32)": {
        "details": "Returns the number of accounts that have `role`. Can be used together with {getRoleMember} to enumerate all bearers of a role."
      },
      "grantRole(bytes32,address)": {
        "details": "Overload {grantRole} to track enumerable memberships"
      },
      "hasRole(bytes32,address)": {
        "details": "Returns `true` if `account` has been granted `role`."
      },
      "paused()": {
        "details": "Returns true if the contract is paused, and false otherwise."
      },
      "renounceRole(bytes32,address)": {
        "details": "Overload {renounceRole} to track enumerable memberships"
      },
      "revokeRole(bytes32,address)": {
        "details": "Overload {revokeRole} to track enumerable memberships"
      },
      "supportsInterface(bytes4)": {
        "details": "See {IERC165-supportsInterface}."
      }
    },
    "version": 1
  },
  "userdoc": {
    "kind": "user",
    "methods": {},
    "version": 1
  },
  "storageLayout": {
    "storage": [
      {
        "astId": 753,
        "contract": "contracts/SkinRewards.sol:SkinRewards",
        "label": "_initialized",
        "offset": 0,
        "slot": "0",
        "type": "t_bool"
      },
      {
        "astId": 756,
        "contract": "contracts/SkinRewards.sol:SkinRewards",
        "label": "_initializing",
        "offset": 1,
        "slot": "0",
        "type": "t_bool"
      },
      {
        "astId": 2658,
        "contract": "contracts/SkinRewards.sol:SkinRewards",
        "label": "__gap",
        "offset": 0,
        "slot": "1",
        "type": "t_array(t_uint256)50_storage"
      },
      {
        "astId": 2907,
        "contract": "contracts/SkinRewards.sol:SkinRewards",
        "label": "__gap",
        "offset": 0,
        "slot": "51",
        "type": "t_array(t_uint256)50_storage"
      },
      {
        "astId": 307,
        "contract": "contracts/SkinRewards.sol:SkinRewards",
        "label": "_roles",
        "offset": 0,
        "slot": "101",
        "type": "t_mapping(t_bytes32,t_struct(RoleData)302_storage)"
      },
      {
        "astId": 615,
        "contract": "contracts/SkinRewards.sol:SkinRewards",
        "label": "__gap",
        "offset": 0,
        "slot": "102",
        "type": "t_array(t_uint256)49_storage"
      },
      {
        "astId": 62,
        "contract": "contracts/SkinRewards.sol:SkinRewards",
        "label": "_roleMembers",
        "offset": 0,
        "slot": "151",
        "type": "t_mapping(t_bytes32,t_struct(AddressSet)3206_storage)"
      },
      {
        "astId": 219,
        "contract": "contracts/SkinRewards.sol:SkinRewards",
        "label": "__gap",
        "offset": 0,
        "slot": "152",
        "type": "t_array(t_uint256)49_storage"
      },
      {
        "astId": 814,
        "contract": "contracts/SkinRewards.sol:SkinRewards",
        "label": "_paused",
        "offset": 0,
        "slot": "201",
        "type": "t_bool"
      },
      {
        "astId": 905,
        "contract": "contracts/SkinRewards.sol:SkinRewards",
        "label": "__gap",
        "offset": 0,
        "slot": "202",
        "type": "t_array(t_uint256)49_storage"
      },
      {
        "astId": 13258,
        "contract": "contracts/SkinRewards.sol:SkinRewards",
        "label": "_ClaimablePeriods",
        "offset": 0,
        "slot": "251",
        "type": "t_uint256"
      },
      {
        "astId": 13263,
        "contract": "contracts/SkinRewards.sol:SkinRewards",
        "label": "_periods",
        "offset": 0,
        "slot": "252",
        "type": "t_mapping(t_uint256,t_struct(Period)13256_storage)"
      },
      {
        "astId": 13265,
        "contract": "contracts/SkinRewards.sol:SkinRewards",
        "label": "_currentPeriodIdx",
        "offset": 0,
        "slot": "253",
        "type": "t_uint256"
      },
      {
        "astId": 13267,
        "contract": "contracts/SkinRewards.sol:SkinRewards",
        "label": "_treasury",
        "offset": 0,
        "slot": "254",
        "type": "t_address"
      },
      {
        "astId": 13269,
        "contract": "contracts/SkinRewards.sol:SkinRewards",
        "label": "_afterdeath",
        "offset": 0,
        "slot": "255",
        "type": "t_address"
      },
      {
        "astId": 13271,
        "contract": "contracts/SkinRewards.sol:SkinRewards",
        "label": "_sge",
        "offset": 0,
        "slot": "256",
        "type": "t_address"
      },
      {
        "astId": 13274,
        "contract": "contracts/SkinRewards.sol:SkinRewards",
        "label": "_game",
        "offset": 0,
        "slot": "257",
        "type": "t_contract(ISnookGame)12114"
      },
      {
        "astId": 13277,
        "contract": "contracts/SkinRewards.sol:SkinRewards",
        "label": "_snook",
        "offset": 0,
        "slot": "258",
        "type": "t_contract(SnookToken)16037"
      },
      {
        "astId": 13280,
        "contract": "contracts/SkinRewards.sol:SkinRewards",
        "label": "_skill",
        "offset": 0,
        "slot": "259",
        "type": "t_contract(ISkillToken)11806"
      },
      {
        "astId": 13286,
        "contract": "contracts/SkinRewards.sol:SkinRewards",
        "label": "_periodTokenTraitcount",
        "offset": 0,
        "slot": "260",
        "type": "t_mapping(t_uint256,t_mapping(t_uint256,t_uint256))"
      },
      {
        "astId": 13292,
        "contract": "contracts/SkinRewards.sol:SkinRewards",
        "label": "_periodTokenEligible",
        "offset": 0,
        "slot": "261",
        "type": "t_mapping(t_uint256,t_mapping(t_uint256,t_bool))"
      }
    ],
    "types": {
      "t_address": {
        "encoding": "inplace",
        "label": "address",
        "numberOfBytes": "20"
      },
      "t_array(t_bytes32)dyn_storage": {
        "base": "t_bytes32",
        "encoding": "dynamic_array",
        "label": "bytes32[]",
        "numberOfBytes": "32"
      },
      "t_array(t_uint256)49_storage": {
        "base": "t_uint256",
        "encoding": "inplace",
        "label": "uint256[49]",
        "numberOfBytes": "1568"
      },
      "t_array(t_uint256)50_storage": {
        "base": "t_uint256",
        "encoding": "inplace",
        "label": "uint256[50]",
        "numberOfBytes": "1600"
      },
      "t_bool": {
        "encoding": "inplace",
        "label": "bool",
        "numberOfBytes": "1"
      },
      "t_bytes32": {
        "encoding": "inplace",
        "label": "bytes32",
        "numberOfBytes": "32"
      },
      "t_contract(ISkillToken)11806": {
        "encoding": "inplace",
        "label": "contract ISkillToken",
        "numberOfBytes": "20"
      },
      "t_contract(ISnookGame)12114": {
        "encoding": "inplace",
        "label": "contract ISnookGame",
        "numberOfBytes": "20"
      },
      "t_contract(SnookToken)16037": {
        "encoding": "inplace",
        "label": "contract SnookToken",
        "numberOfBytes": "20"
      },
      "t_mapping(t_address,t_bool)": {
        "encoding": "mapping",
        "key": "t_address",
        "label": "mapping(address => bool)",
        "numberOfBytes": "32",
        "value": "t_bool"
      },
      "t_mapping(t_bytes32,t_struct(AddressSet)3206_storage)": {
        "encoding": "mapping",
        "key": "t_bytes32",
        "label": "mapping(bytes32 => struct EnumerableSetUpgradeable.AddressSet)",
        "numberOfBytes": "32",
        "value": "t_struct(AddressSet)3206_storage"
      },
      "t_mapping(t_bytes32,t_struct(RoleData)302_storage)": {
        "encoding": "mapping",
        "key": "t_bytes32",
        "label": "mapping(bytes32 => struct AccessControlUpgradeable.RoleData)",
        "numberOfBytes": "32",
        "value": "t_struct(RoleData)302_storage"
      },
      "t_mapping(t_bytes32,t_uint256)": {
        "encoding": "mapping",
        "key": "t_bytes32",
        "label": "mapping(bytes32 => uint256)",
        "numberOfBytes": "32",
        "value": "t_uint256"
      },
      "t_mapping(t_uint256,t_bool)": {
        "encoding": "mapping",
        "key": "t_uint256",
        "label": "mapping(uint256 => bool)",
        "numberOfBytes": "32",
        "value": "t_bool"
      },
      "t_mapping(t_uint256,t_mapping(t_uint256,t_bool))": {
        "encoding": "mapping",
        "key": "t_uint256",
        "label": "mapping(uint256 => mapping(uint256 => bool))",
        "numberOfBytes": "32",
        "value": "t_mapping(t_uint256,t_bool)"
      },
      "t_mapping(t_uint256,t_mapping(t_uint256,t_uint256))": {
        "encoding": "mapping",
        "key": "t_uint256",
        "label": "mapping(uint256 => mapping(uint256 => uint256))",
        "numberOfBytes": "32",
        "value": "t_mapping(t_uint256,t_uint256)"
      },
      "t_mapping(t_uint256,t_struct(Period)13256_storage)": {
        "encoding": "mapping",
        "key": "t_uint256",
        "label": "mapping(uint256 => struct SkinRewards.Period)",
        "numberOfBytes": "32",
        "value": "t_struct(Period)13256_storage"
      },
      "t_mapping(t_uint256,t_uint256)": {
        "encoding": "mapping",
        "key": "t_uint256",
        "label": "mapping(uint256 => uint256)",
        "numberOfBytes": "32",
        "value": "t_uint256"
      },
      "t_struct(AddressSet)3206_storage": {
        "encoding": "inplace",
        "label": "struct EnumerableSetUpgradeable.AddressSet",
        "members": [
          {
            "astId": 3205,
            "contract": "contracts/SkinRewards.sol:SkinRewards",
            "label": "_inner",
            "offset": 0,
            "slot": "0",
            "type": "t_struct(Set)2931_storage"
          }
        ],
        "numberOfBytes": "64"
      },
      "t_struct(Period)13256_storage": {
        "encoding": "inplace",
        "label": "struct SkinRewards.Period",
        "members": [
          {
            "astId": 13239,
            "contract": "contracts/SkinRewards.sol:SkinRewards",
            "label": "budget",
            "offset": 0,
            "slot": "0",
            "type": "t_uint256"
          },
          {
            "astId": 13243,
            "contract": "contracts/SkinRewards.sol:SkinRewards",
            "label": "tokenStars",
            "offset": 0,
            "slot": "1",
            "type": "t_mapping(t_uint256,t_uint256)"
          },
          {
            "astId": 13247,
            "contract": "contracts/SkinRewards.sol:SkinRewards",
            "label": "tokenRewardClaimed",
            "offset": 0,
            "slot": "2",
            "type": "t_mapping(t_uint256,t_bool)"
          },
          {
            "astId": 13251,
            "contract": "contracts/SkinRewards.sol:SkinRewards",
            "label": "tokenStarsUpdated",
            "offset": 0,
            "slot": "3",
            "type": "t_mapping(t_uint256,t_bool)"
          },
          {
            "astId": 13253,
            "contract": "contracts/SkinRewards.sol:SkinRewards",
            "label": "totalStars",
            "offset": 0,
            "slot": "4",
            "type": "t_uint256"
          },
          {
            "astId": 13255,
            "contract": "contracts/SkinRewards.sol:SkinRewards",
            "label": "claimedBudget",
            "offset": 0,
            "slot": "5",
            "type": "t_uint256"
          }
        ],
        "numberOfBytes": "192"
      },
      "t_struct(RoleData)302_storage": {
        "encoding": "inplace",
        "label": "struct AccessControlUpgradeable.RoleData",
        "members": [
          {
            "astId": 299,
            "contract": "contracts/SkinRewards.sol:SkinRewards",
            "label": "members",
            "offset": 0,
            "slot": "0",
            "type": "t_mapping(t_address,t_bool)"
          },
          {
            "astId": 301,
            "contract": "contracts/SkinRewards.sol:SkinRewards",
            "label": "adminRole",
            "offset": 0,
            "slot": "1",
            "type": "t_bytes32"
          }
        ],
        "numberOfBytes": "64"
      },
      "t_struct(Set)2931_storage": {
        "encoding": "inplace",
        "label": "struct EnumerableSetUpgradeable.Set",
        "members": [
          {
            "astId": 2926,
            "contract": "contracts/SkinRewards.sol:SkinRewards",
            "label": "_values",
            "offset": 0,
            "slot": "0",
            "type": "t_array(t_bytes32)dyn_storage"
          },
          {
            "astId": 2930,
            "contract": "contracts/SkinRewards.sol:SkinRewards",
            "label": "_indexes",
            "offset": 0,
            "slot": "1",
            "type": "t_mapping(t_bytes32,t_uint256)"
          }
        ],
        "numberOfBytes": "64"
      },
      "t_uint256": {
        "encoding": "inplace",
        "label": "uint256",
        "numberOfBytes": "32"
      }
    }
  }
}