{
  "address": "0xE831a22E1b09D2F25dae664BAe2EA45F8e257dd0",
  "abi": [
    {
      "inputs": [
        {
          "internalType": "address",
          "name": "factory",
          "type": "address"
        },
        {
          "internalType": "address",
          "name": "usdc",
          "type": "address"
        },
        {
          "internalType": "address",
          "name": "skill",
          "type": "address"
        }
      ],
      "stateMutability": "nonpayable",
      "type": "constructor"
    },
    {
      "inputs": [],
      "name": "getSnookPriceInSkills",
      "outputs": [
        {
          "internalType": "uint256",
          "name": "k",
          "type": "uint256"
        }
      ],
      "stateMutability": "view",
      "type": "function"
    }
  ],
  "transactionHash": "0x891c8226beaee6c9b65de90f2f13569dc41b555ea1f2b4abfc419a6b00e95bf7",
  "args": [
    "0x0e075cB6f980203F8e930a0B527CDbE07F303eAD",
    "0x12aEdb6639C160B051be89B77717F46eafac282b",
    "0x1C674bf0d074Dc54bb13D1e6291C0cE88054C5b5"
  ],
  "solcInputHash": "bfb15ffd23b8270491966f0106efe898",
  "bytecode": "0x608060405234801561001057600080fd5b50604051610c81380380610c818339818101604052606081101561003357600080fd5b81019080805190602001909291908051906020019092919080519060200190929190505050826000806101000a81548173ffffffffffffffffffffffffffffffffffffffff021916908373ffffffffffffffffffffffffffffffffffffffff16021790555081600160006101000a81548173ffffffffffffffffffffffffffffffffffffffff021916908373ffffffffffffffffffffffffffffffffffffffff16021790555080600260006101000a81548173ffffffffffffffffffffffffffffffffffffffff021916908373ffffffffffffffffffffffffffffffffffffffff16021790555061012f83838361017760201b6104841760201c565b600360006101000a81548173ffffffffffffffffffffffffffffffffffffffff021916908373ffffffffffffffffffffffffffffffffffffffff16021790555050505061044f565b600080600061018c85856102d860201b60201c565b91509150858282604051602001808373ffffffffffffffffffffffffffffffffffffffff1673ffffffffffffffffffffffffffffffffffffffff1660601b81526014018273ffffffffffffffffffffffffffffffffffffffff1673ffffffffffffffffffffffffffffffffffffffff1660601b8152601401925050506040516020818303038152906040528051906020012060405160200180807fff000000000000000000000000000000000000000000000000000000000000008152506001018373ffffffffffffffffffffffffffffffffffffffff1673ffffffffffffffffffffffffffffffffffffffff1660601b8152601401828152602001807f96e8ac4277198ff8b6f785478aa9a39f403cb768dd02cbee326c3e7da348845f815250602001925050506040516020818303038152906040528051906020012060001c925050509392505050565b6000808273ffffffffffffffffffffffffffffffffffffffff168473ffffffffffffffffffffffffffffffffffffffff161415610360576040517f08c379a0000000000000000000000000000000000000000000000000000000008152600401808060200182810382526025815260200180610c5c6025913960400191505060405180910390fd5b8273ffffffffffffffffffffffffffffffffffffffff168473ffffffffffffffffffffffffffffffffffffffff161061039a57828461039d565b83835b8092508193505050600073ffffffffffffffffffffffffffffffffffffffff168273ffffffffffffffffffffffffffffffffffffffff161415610448576040517f08c379a000000000000000000000000000000000000000000000000000000000815260040180806020018281038252601e8152602001807f556e697377617056324c6962726172793a205a45524f5f41444452455353000081525060200191505060405180910390fd5b9250929050565b6107fe8061045e6000396000f3fe608060405234801561001057600080fd5b506004361061002b5760003560e01c8063b7d0020714610030575b600080fd5b61003861004e565b6040518082815260200191505060405180910390f35b600080600160009054906101000a900473ffffffffffffffffffffffffffffffffffffffff1673ffffffffffffffffffffffffffffffffffffffff1663313ce5676040518163ffffffff1660e01b815260040160206040518083038186803b1580156100b957600080fd5b505afa1580156100cd573d6000803e3d6000fd5b505050506040513d60208110156100e357600080fd5b810190808051906020019092919050505060ff16905060006064601983600a0a028161010b57fe5b049050600080600360009054906101000a900473ffffffffffffffffffffffffffffffffffffffff1673ffffffffffffffffffffffffffffffffffffffff16630902f1ac6040518163ffffffff1660e01b815260040160606040518083038186803b15801561017957600080fd5b505afa15801561018d573d6000803e3d6000fd5b505050506040513d60608110156101a357600080fd5b81019080805190602001909291908051906020019092919080519060200190929190505050506dffffffffffffffffffffffffffff1691506dffffffffffffffffffffffffffff169150600080600360009054906101000a900473ffffffffffffffffffffffffffffffffffffffff1673ffffffffffffffffffffffffffffffffffffffff16630dfe16816040518163ffffffff1660e01b815260040160206040518083038186803b15801561025857600080fd5b505afa15801561026c573d6000803e3d6000fd5b505050506040513d602081101561028257600080fd5b810190808051906020019092919050505073ffffffffffffffffffffffffffffffffffffffff16600160009054906101000a900473ffffffffffffffffffffffffffffffffffffffff1673ffffffffffffffffffffffffffffffffffffffff16146102ee5782846102f1565b83835b9150915061030085838361030b565b965050505050505090565b6000808411610365576040517f08c379a00000000000000000000000000000000000000000000000000000000081526004018080602001828103825260258152602001806107a46025913960400191505060405180910390fd5b6000831180156103755750600082115b6103ca576040517f08c379a000000000000000000000000000000000000000000000000000000000815260040180806020018281038252602881526020018061077c6028913960400191505060405180910390fd5b826103de83866103ef90919063ffffffff16565b816103e557fe5b0490509392505050565b60008082148061040c575082828385029250828161040957fe5b04145b61047e576040517f08c379a00000000000000000000000000000000000000000000000000000000081526004018080602001828103825260148152602001807f64732d6d6174682d6d756c2d6f766572666c6f7700000000000000000000000081525060200191505060405180910390fd5b92915050565b600080600061049385856105df565b91509150858282604051602001808373ffffffffffffffffffffffffffffffffffffffff1673ffffffffffffffffffffffffffffffffffffffff1660601b81526014018273ffffffffffffffffffffffffffffffffffffffff1673ffffffffffffffffffffffffffffffffffffffff1660601b8152601401925050506040516020818303038152906040528051906020012060405160200180807fff000000000000000000000000000000000000000000000000000000000000008152506001018373ffffffffffffffffffffffffffffffffffffffff1673ffffffffffffffffffffffffffffffffffffffff1660601b8152601401828152602001807f96e8ac4277198ff8b6f785478aa9a39f403cb768dd02cbee326c3e7da348845f815250602001925050506040516020818303038152906040528051906020012060001c925050509392505050565b6000808273ffffffffffffffffffffffffffffffffffffffff168473ffffffffffffffffffffffffffffffffffffffff161415610667576040517f08c379a00000000000000000000000000000000000000000000000000000000081526004018080602001828103825260258152602001806107576025913960400191505060405180910390fd5b8273ffffffffffffffffffffffffffffffffffffffff168473ffffffffffffffffffffffffffffffffffffffff16106106a15782846106a4565b83835b8092508193505050600073ffffffffffffffffffffffffffffffffffffffff168273ffffffffffffffffffffffffffffffffffffffff16141561074f576040517f08c379a000000000000000000000000000000000000000000000000000000000815260040180806020018281038252601e8152602001807f556e697377617056324c6962726172793a205a45524f5f41444452455353000081525060200191505060405180910390fd5b925092905056fe556e697377617056324c6962726172793a204944454e544943414c5f414444524553534553556e697377617056324c6962726172793a20494e53554646494349454e545f4c4951554944495459556e697377617056324c6962726172793a20494e53554646494349454e545f414d4f554e54a2646970667358221220dfd1159c1820646e56867c84050aa59815e4655f476cf3cd1e1638047ebc4abb64736f6c63430006060033556e697377617056324c6962726172793a204944454e544943414c5f414444524553534553",
  "devdoc": {
    "methods": {}
  },
  "userdoc": {
    "methods": {}
  },
  "storageLayout": {
    "storage": [
      {
        "astId": 879,
        "contract": "contracts/UniswapUSDCSkill.sol:UniswapUSDCSkill",
        "label": "_factory",
        "offset": 0,
        "slot": "0",
        "type": "t_address"
      },
      {
        "astId": 881,
        "contract": "contracts/UniswapUSDCSkill.sol:UniswapUSDCSkill",
        "label": "_usdc",
        "offset": 0,
        "slot": "1",
        "type": "t_address"
      },
      {
        "astId": 883,
        "contract": "contracts/UniswapUSDCSkill.sol:UniswapUSDCSkill",
        "label": "_skill",
        "offset": 0,
        "slot": "2",
        "type": "t_address"
      },
      {
        "astId": 885,
        "contract": "contracts/UniswapUSDCSkill.sol:UniswapUSDCSkill",
        "label": "_pair",
        "offset": 0,
        "slot": "3",
        "type": "t_contract(IUniswapV2Pair)241"
      }
    ],
    "types": {
      "t_address": {
        "encoding": "inplace",
        "label": "address",
        "numberOfBytes": "20"
      },
      "t_contract(IUniswapV2Pair)241": {
        "encoding": "inplace",
        "label": "contract IUniswapV2Pair",
        "numberOfBytes": "20"
      }
    }
  }
}