{
  "address": "0x3328a0771B9A3296Ed75e09899FB01043d1F13Da",
  "abi": [
    {
      "inputs": [],
      "stateMutability": "nonpayable",
      "type": "constructor"
    },
    {
      "anonymous": false,
      "inputs": [
        {
          "indexed": true,
          "internalType": "address",
          "name": "owner",
          "type": "address"
        },
        {
          "indexed": true,
          "internalType": "address",
          "name": "spender",
          "type": "address"
        },
        {
          "indexed": false,
          "internalType": "uint256",
          "name": "value",
          "type": "uint256"
        }
      ],
      "name": "Approval",
      "type": "event"
    },
    {
      "anonymous": false,
      "inputs": [
        {
          "indexed": true,
          "internalType": "address",
          "name": "from",
          "type": "address"
        },
        {
          "indexed": true,
          "internalType": "address",
          "name": "to",
          "type": "address"
        },
        {
          "indexed": false,
          "internalType": "uint256",
          "name": "value",
          "type": "uint256"
        }
      ],
      "name": "Transfer",
      "type": "event"
    },
    {
      "inputs": [],
      "name": "INITIAL_SUPPLY",
      "outputs": [
        {
          "internalType": "uint256",
          "name": "",
          "type": "uint256"
        }
      ],
      "stateMutability": "view",
      "type": "function"
    },
    {
      "inputs": [
        {
          "internalType": "address",
          "name": "owner",
          "type": "address"
        },
        {
          "internalType": "address",
          "name": "spender",
          "type": "address"
        }
      ],
      "name": "allowance",
      "outputs": [
        {
          "internalType": "uint256",
          "name": "",
          "type": "uint256"
        }
      ],
      "stateMutability": "view",
      "type": "function"
    },
    {
      "inputs": [
        {
          "internalType": "address",
          "name": "spender",
          "type": "address"
        },
        {
          "internalType": "uint256",
          "name": "amount",
          "type": "uint256"
        }
      ],
      "name": "approve",
      "outputs": [
        {
          "internalType": "bool",
          "name": "",
          "type": "bool"
        }
      ],
      "stateMutability": "nonpayable",
      "type": "function"
    },
    {
      "inputs": [
        {
          "internalType": "address",
          "name": "account",
          "type": "address"
        }
      ],
      "name": "balanceOf",
      "outputs": [
        {
          "internalType": "uint256",
          "name": "",
          "type": "uint256"
        }
      ],
      "stateMutability": "view",
      "type": "function"
    },
    {
      "inputs": [],
      "name": "decimals",
      "outputs": [
        {
          "internalType": "uint8",
          "name": "",
          "type": "uint8"
        }
      ],
      "stateMutability": "pure",
      "type": "function"
    },
    {
      "inputs": [
        {
          "internalType": "address",
          "name": "spender",
          "type": "address"
        },
        {
          "internalType": "uint256",
          "name": "subtractedValue",
          "type": "uint256"
        }
      ],
      "name": "decreaseAllowance",
      "outputs": [
        {
          "internalType": "bool",
          "name": "",
          "type": "bool"
        }
      ],
      "stateMutability": "nonpayable",
      "type": "function"
    },
    {
      "inputs": [
        {
          "internalType": "address",
          "name": "spender",
          "type": "address"
        },
        {
          "internalType": "uint256",
          "name": "addedValue",
          "type": "uint256"
        }
      ],
      "name": "increaseAllowance",
      "outputs": [
        {
          "internalType": "bool",
          "name": "",
          "type": "bool"
        }
      ],
      "stateMutability": "nonpayable",
      "type": "function"
    },
    {
      "inputs": [],
      "name": "name",
      "outputs": [
        {
          "internalType": "string",
          "name": "",
          "type": "string"
        }
      ],
      "stateMutability": "view",
      "type": "function"
    },
    {
      "inputs": [],
      "name": "symbol",
      "outputs": [
        {
          "internalType": "string",
          "name": "",
          "type": "string"
        }
      ],
      "stateMutability": "view",
      "type": "function"
    },
    {
      "inputs": [],
      "name": "totalSupply",
      "outputs": [
        {
          "internalType": "uint256",
          "name": "",
          "type": "uint256"
        }
      ],
      "stateMutability": "view",
      "type": "function"
    },
    {
      "inputs": [
        {
          "internalType": "address",
          "name": "recipient",
          "type": "address"
        },
        {
          "internalType": "uint256",
          "name": "amount",
          "type": "uint256"
        }
      ],
      "name": "transfer",
      "outputs": [
        {
          "internalType": "bool",
          "name": "",
          "type": "bool"
        }
      ],
      "stateMutability": "nonpayable",
      "type": "function"
    },
    {
      "inputs": [
        {
          "internalType": "address",
          "name": "sender",
          "type": "address"
        },
        {
          "internalType": "address",
          "name": "recipient",
          "type": "address"
        },
        {
          "internalType": "uint256",
          "name": "amount",
          "type": "uint256"
        }
      ],
      "name": "transferFrom",
      "outputs": [
        {
          "internalType": "bool",
          "name": "",
          "type": "bool"
        }
      ],
      "stateMutability": "nonpayable",
      "type": "function"
    }
  ],
  "transactionHash": "0xfb20c2ea865110e2f738c14cb9b0c19cddf63cc4be0b1ed7aff286fb6c139ec6",
  "args": [],
  "solcInputHash": "15db5cc31fd09d73490812a4595bda3f",
  "bytecode": "0x6080604052620186a06005553480156200001857600080fd5b5060408051808201825260098152682ab9b231aa37b5b2b760b91b6020808301918252835180850190945260048452635553444360e01b9084015281519192916200006691600391620001a0565b5080516200007c906004906020840190620001a0565b505050600062000091620000c260201b60201c565b6200009e90600a620002ee565b600554620000ad9190620003e6565b9050620000bb3382620000c7565b506200045b565b600690565b6001600160a01b038216620000f95760405162461bcd60e51b8152600401620000f09062000246565b60405180910390fd5b62000107600083836200019b565b80600260008282546200011b919062000286565b90915550506001600160a01b038216600090815260208190526040812080548392906200014a90849062000286565b90915550506040516001600160a01b038316906000907fddf252ad1be2c89b69c2b068fc378daa952ba7f163c4a11628f55a4df523b3ef906200018f9085906200027d565b60405180910390a35050565b505050565b828054620001ae9062000408565b90600052602060002090601f016020900481019282620001d257600085556200021d565b82601f10620001ed57805160ff19168380011785556200021d565b828001600101855582156200021d579182015b828111156200021d57825182559160200191906001019062000200565b506200022b9291506200022f565b5090565b5b808211156200022b576000815560010162000230565b6020808252601f908201527f45524332303a206d696e7420746f20746865207a65726f206164647265737300604082015260600190565b90815260200190565b600082198211156200029c576200029c62000445565b500190565b80825b6001808611620002b55750620002e5565b818704821115620002ca57620002ca62000445565b80861615620002d857918102915b9490941c938002620002a4565b94509492505050565b60006200030260001960ff85168462000309565b9392505050565b6000826200031a5750600162000302565b81620003295750600062000302565b81600181146200034257600281146200034d5762000381565b600191505062000302565b60ff84111562000361576200036162000445565b6001841b9150848211156200037a576200037a62000445565b5062000302565b5060208310610133831016604e8410600b8410161715620003b9575081810a83811115620003b357620003b362000445565b62000302565b620003c88484846001620002a1565b808604821115620003dd57620003dd62000445565b02949350505050565b600081600019048311821515161562000403576200040362000445565b500290565b6002810460018216806200041d57607f821691505b602082108114156200043f57634e487b7160e01b600052602260045260246000fd5b50919050565b634e487b7160e01b600052601160045260246000fd5b6109f9806200046b6000396000f3fe608060405234801561001057600080fd5b50600436106100b45760003560e01c80633950935111610071578063395093511461013c57806370a082311461014f57806395d89b4114610162578063a457c2d71461016a578063a9059cbb1461017d578063dd62ed3e14610190576100b4565b806306fdde03146100b9578063095ea7b3146100d757806318160ddd146100f757806323b872dd1461010c5780632ff2e9dc1461011f578063313ce56714610127575b600080fd5b6100c16101a3565b6040516100ce91906106f8565b60405180910390f35b6100ea6100e53660046106c4565b610235565b6040516100ce91906106ed565b6100ff610252565b6040516100ce919061092c565b6100ea61011a366004610689565b610258565b6100ff6102f8565b61012f6102fe565b6040516100ce9190610935565b6100ea61014a3660046106c4565b610303565b6100ff61015d366004610636565b610352565b6100c1610371565b6100ea6101783660046106c4565b610380565b6100ea61018b3660046106c4565b6103fb565b6100ff61019e366004610657565b61040f565b6060600380546101b290610972565b80601f01602080910402602001604051908101604052809291908181526020018280546101de90610972565b801561022b5780601f106102005761010080835404028352916020019161022b565b820191906000526020600020905b81548152906001019060200180831161020e57829003601f168201915b5050505050905090565b600061024961024261043a565b848461043e565b50600192915050565b60025490565b60006102658484846104f2565b6001600160a01b03841660009081526001602052604081208161028661043a565b6001600160a01b03166001600160a01b03168152602001908152602001600020549050828110156102d25760405162461bcd60e51b81526004016102c990610816565b60405180910390fd5b6102ed856102de61043a565b6102e8868561095b565b61043e565b506001949350505050565b60055481565b600690565b600061024961031061043a565b84846001600061031e61043a565b6001600160a01b03908116825260208083019390935260409182016000908120918b16815292529020546102e89190610943565b6001600160a01b0381166000908152602081905260409020545b919050565b6060600480546101b290610972565b6000806001600061038f61043a565b6001600160a01b03908116825260208083019390935260409182016000908120918816815292529020549050828110156103db5760405162461bcd60e51b81526004016102c9906108e7565b6103f16103e661043a565b856102e8868561095b565b5060019392505050565b600061024961040861043a565b84846104f2565b6001600160a01b03918216600090815260016020908152604080832093909416825291909152205490565b3390565b6001600160a01b0383166104645760405162461bcd60e51b81526004016102c9906108a3565b6001600160a01b03821661048a5760405162461bcd60e51b81526004016102c99061078e565b6001600160a01b0380841660008181526001602090815260408083209487168084529490915290819020849055517f8c5be1e5ebec7d5bd14f71427d1e84f3dd0314c0f7b2291e5b200ac8c7c3b925906104e590859061092c565b60405180910390a3505050565b6001600160a01b0383166105185760405162461bcd60e51b81526004016102c99061085e565b6001600160a01b03821661053e5760405162461bcd60e51b81526004016102c99061074b565b61054983838361061a565b6001600160a01b038316600090815260208190526040902054818110156105825760405162461bcd60e51b81526004016102c9906107d0565b61058c828261095b565b6001600160a01b0380861660009081526020819052604080822093909355908516815290812080548492906105c2908490610943565b92505081905550826001600160a01b0316846001600160a01b03167fddf252ad1be2c89b69c2b068fc378daa952ba7f163c4a11628f55a4df523b3ef8460405161060c919061092c565b60405180910390a350505050565b505050565b80356001600160a01b038116811461036c57600080fd5b600060208284031215610647578081fd5b6106508261061f565b9392505050565b60008060408385031215610669578081fd5b6106728361061f565b91506106806020840161061f565b90509250929050565b60008060006060848603121561069d578081fd5b6106a68461061f565b92506106b46020850161061f565b9150604084013590509250925092565b600080604083850312156106d6578182fd5b6106df8361061f565b946020939093013593505050565b901515815260200190565b6000602080835283518082850152825b8181101561072457858101830151858201604001528201610708565b818111156107355783604083870101525b50601f01601f1916929092016040019392505050565b60208082526023908201527f45524332303a207472616e7366657220746f20746865207a65726f206164647260408201526265737360e81b606082015260800190565b60208082526022908201527f45524332303a20617070726f766520746f20746865207a65726f206164647265604082015261737360f01b606082015260800190565b60208082526026908201527f45524332303a207472616e7366657220616d6f756e7420657863656564732062604082015265616c616e636560d01b606082015260800190565b60208082526028908201527f45524332303a207472616e7366657220616d6f756e74206578636565647320616040820152676c6c6f77616e636560c01b606082015260800190565b60208082526025908201527f45524332303a207472616e736665722066726f6d20746865207a65726f206164604082015264647265737360d81b606082015260800190565b60208082526024908201527f45524332303a20617070726f76652066726f6d20746865207a65726f206164646040820152637265737360e01b606082015260800190565b60208082526025908201527f45524332303a2064656372656173656420616c6c6f77616e63652062656c6f77604082015264207a65726f60d81b606082015260800190565b90815260200190565b60ff91909116815260200190565b60008219821115610956576109566109ad565b500190565b60008282101561096d5761096d6109ad565b500390565b60028104600182168061098657607f821691505b602082108114156109a757634e487b7160e01b600052602260045260246000fd5b50919050565b634e487b7160e01b600052601160045260246000fdfea26469706673582212203fd9c3bcdd72fd00fc1507a1ce11cc040d8c554478a90d5946312a55ea68442764736f6c63430008000033",
  "devdoc": {
    "kind": "dev",
    "methods": {
      "allowance(address,address)": {
        "details": "See {IERC20-allowance}."
      },
      "approve(address,uint256)": {
        "details": "See {IERC20-approve}. Requirements: - `spender` cannot be the zero address."
      },
      "balanceOf(address)": {
        "details": "See {IERC20-balanceOf}."
      },
      "decimals()": {
        "details": "Returns the number of decimals used to get its user representation. For example, if `decimals` equals `2`, a balance of `505` tokens should be displayed to a user as `5,05` (`505 / 10 ** 2`). Tokens usually opt for a value of 18, imitating the relationship between Ether and Wei. This is the value {ERC20} uses, unless this function is overridden; NOTE: This information is only used for _display_ purposes: it in no way affects any of the arithmetic of the contract, including {IERC20-balanceOf} and {IERC20-transfer}."
      },
      "decreaseAllowance(address,uint256)": {
        "details": "Atomically decreases the allowance granted to `spender` by the caller. This is an alternative to {approve} that can be used as a mitigation for problems described in {IERC20-approve}. Emits an {Approval} event indicating the updated allowance. Requirements: - `spender` cannot be the zero address. - `spender` must have allowance for the caller of at least `subtractedValue`."
      },
      "increaseAllowance(address,uint256)": {
        "details": "Atomically increases the allowance granted to `spender` by the caller. This is an alternative to {approve} that can be used as a mitigation for problems described in {IERC20-approve}. Emits an {Approval} event indicating the updated allowance. Requirements: - `spender` cannot be the zero address."
      },
      "name()": {
        "details": "Returns the name of the token."
      },
      "symbol()": {
        "details": "Returns the symbol of the token, usually a shorter version of the name."
      },
      "totalSupply()": {
        "details": "See {IERC20-totalSupply}."
      },
      "transfer(address,uint256)": {
        "details": "See {IERC20-transfer}. Requirements: - `recipient` cannot be the zero address. - the caller must have a balance of at least `amount`."
      },
      "transferFrom(address,address,uint256)": {
        "details": "See {IERC20-transferFrom}. Emits an {Approval} event indicating the updated allowance. This is not required by the EIP. See the note at the beginning of {ERC20}. Requirements: - `sender` and `recipient` cannot be the zero address. - `sender` must have a balance of at least `amount`. - the caller must have allowance for ``sender``'s tokens of at least `amount`."
      }
    },
    "version": 1
  },
  "userdoc": {
    "kind": "user",
    "methods": {},
    "version": 1
  },
  "storageLayout": {
    "storage": [
      {
        "astId": 4099,
        "contract": "contracts/UsdcToken.sol:UsdcToken",
        "label": "_balances",
        "offset": 0,
        "slot": "0",
        "type": "t_mapping(t_address,t_uint256)"
      },
      {
        "astId": 4105,
        "contract": "contracts/UsdcToken.sol:UsdcToken",
        "label": "_allowances",
        "offset": 0,
        "slot": "1",
        "type": "t_mapping(t_address,t_mapping(t_address,t_uint256))"
      },
      {
        "astId": 4107,
        "contract": "contracts/UsdcToken.sol:UsdcToken",
        "label": "_totalSupply",
        "offset": 0,
        "slot": "2",
        "type": "t_uint256"
      },
      {
        "astId": 4109,
        "contract": "contracts/UsdcToken.sol:UsdcToken",
        "label": "_name",
        "offset": 0,
        "slot": "3",
        "type": "t_string_storage"
      },
      {
        "astId": 4111,
        "contract": "contracts/UsdcToken.sol:UsdcToken",
        "label": "_symbol",
        "offset": 0,
        "slot": "4",
        "type": "t_string_storage"
      },
      {
        "astId": 17443,
        "contract": "contracts/UsdcToken.sol:UsdcToken",
        "label": "INITIAL_SUPPLY",
        "offset": 0,
        "slot": "5",
        "type": "t_uint256"
      }
    ],
    "types": {
      "t_address": {
        "encoding": "inplace",
        "label": "address",
        "numberOfBytes": "20"
      },
      "t_mapping(t_address,t_mapping(t_address,t_uint256))": {
        "encoding": "mapping",
        "key": "t_address",
        "label": "mapping(address => mapping(address => uint256))",
        "numberOfBytes": "32",
        "value": "t_mapping(t_address,t_uint256)"
      },
      "t_mapping(t_address,t_uint256)": {
        "encoding": "mapping",
        "key": "t_address",
        "label": "mapping(address => uint256)",
        "numberOfBytes": "32",
        "value": "t_uint256"
      },
      "t_string_storage": {
        "encoding": "bytes",
        "label": "string",
        "numberOfBytes": "32"
      },
      "t_uint256": {
        "encoding": "inplace",
        "label": "uint256",
        "numberOfBytes": "32"
      }
    }
  }
}