{
  "address": "0xD65389107294402F5cE4B536859DcC0b1bC99FF1",
  "abi": [
    {
      "anonymous": false,
      "inputs": [
        {
          "indexed": false,
          "internalType": "address",
          "name": "account",
          "type": "address"
        }
      ],
      "name": "Paused",
      "type": "event"
    },
    {
      "anonymous": false,
      "inputs": [
        {
          "indexed": true,
          "internalType": "bytes32",
          "name": "role",
          "type": "bytes32"
        },
        {
          "indexed": true,
          "internalType": "bytes32",
          "name": "previousAdminRole",
          "type": "bytes32"
        },
        {
          "indexed": true,
          "internalType": "bytes32",
          "name": "newAdminRole",
          "type": "bytes32"
        }
      ],
      "name": "RoleAdminChanged",
      "type": "event"
    },
    {
      "anonymous": false,
      "inputs": [
        {
          "indexed": true,
          "internalType": "bytes32",
          "name": "role",
          "type": "bytes32"
        },
        {
          "indexed": true,
          "internalType": "address",
          "name": "account",
          "type": "address"
        },
        {
          "indexed": true,
          "internalType": "address",
          "name": "sender",
          "type": "address"
        }
      ],
      "name": "RoleGranted",
      "type": "event"
    },
    {
      "anonymous": false,
      "inputs": [
        {
          "indexed": true,
          "internalType": "bytes32",
          "name": "role",
          "type": "bytes32"
        },
        {
          "indexed": true,
          "internalType": "address",
          "name": "account",
          "type": "address"
        },
        {
          "indexed": true,
          "internalType": "address",
          "name": "sender",
          "type": "address"
        }
      ],
      "name": "RoleRevoked",
      "type": "event"
    },
    {
      "anonymous": false,
      "inputs": [
        {
          "indexed": false,
          "internalType": "uint256",
          "name": "",
          "type": "uint256"
        }
      ],
      "name": "Swapout",
      "type": "event"
    },
    {
      "anonymous": false,
      "inputs": [
        {
          "indexed": false,
          "internalType": "address",
          "name": "account",
          "type": "address"
        }
      ],
      "name": "Unpaused",
      "type": "event"
    },
    {
      "inputs": [],
      "name": "DEFAULT_ADMIN_ROLE",
      "outputs": [
        {
          "internalType": "bytes32",
          "name": "",
          "type": "bytes32"
        }
      ],
      "stateMutability": "view",
      "type": "function"
    },
    {
      "inputs": [],
      "name": "PAUSER_ROLE",
      "outputs": [
        {
          "internalType": "bytes32",
          "name": "",
          "type": "bytes32"
        }
      ],
      "stateMutability": "view",
      "type": "function"
    },
    {
      "inputs": [],
      "name": "getBalance",
      "outputs": [
        {
          "internalType": "uint256",
          "name": "",
          "type": "uint256"
        }
      ],
      "stateMutability": "view",
      "type": "function"
    },
    {
      "inputs": [],
      "name": "getMaximumSwapAmount",
      "outputs": [
        {
          "internalType": "uint256",
          "name": "",
          "type": "uint256"
        }
      ],
      "stateMutability": "view",
      "type": "function"
    },
    {
      "inputs": [],
      "name": "getMaximumSwapFeeAmount",
      "outputs": [
        {
          "internalType": "uint256",
          "name": "",
          "type": "uint256"
        }
      ],
      "stateMutability": "view",
      "type": "function"
    },
    {
      "inputs": [],
      "name": "getMinimumSwapAmount",
      "outputs": [
        {
          "internalType": "uint256",
          "name": "",
          "type": "uint256"
        }
      ],
      "stateMutability": "view",
      "type": "function"
    },
    {
      "inputs": [],
      "name": "getMinimumSwapFeeAmount",
      "outputs": [
        {
          "internalType": "uint256",
          "name": "",
          "type": "uint256"
        }
      ],
      "stateMutability": "view",
      "type": "function"
    },
    {
      "inputs": [],
      "name": "getPolygonStakingRewardsAddress",
      "outputs": [
        {
          "internalType": "address",
          "name": "",
          "type": "address"
        }
      ],
      "stateMutability": "view",
      "type": "function"
    },
    {
      "inputs": [
        {
          "internalType": "bytes32",
          "name": "role",
          "type": "bytes32"
        }
      ],
      "name": "getRoleAdmin",
      "outputs": [
        {
          "internalType": "bytes32",
          "name": "",
          "type": "bytes32"
        }
      ],
      "stateMutability": "view",
      "type": "function"
    },
    {
      "inputs": [
        {
          "internalType": "bytes32",
          "name": "role",
          "type": "bytes32"
        },
        {
          "internalType": "uint256",
          "name": "index",
          "type": "uint256"
        }
      ],
      "name": "getRoleMember",
      "outputs": [
        {
          "internalType": "address",
          "name": "",
          "type": "address"
        }
      ],
      "stateMutability": "view",
      "type": "function"
    },
    {
      "inputs": [
        {
          "internalType": "bytes32",
          "name": "role",
          "type": "bytes32"
        }
      ],
      "name": "getRoleMemberCount",
      "outputs": [
        {
          "internalType": "uint256",
          "name": "",
          "type": "uint256"
        }
      ],
      "stateMutability": "view",
      "type": "function"
    },
    {
      "inputs": [
        {
          "internalType": "bytes32",
          "name": "role",
          "type": "bytes32"
        },
        {
          "internalType": "address",
          "name": "account",
          "type": "address"
        }
      ],
      "name": "grantRole",
      "outputs": [],
      "stateMutability": "nonpayable",
      "type": "function"
    },
    {
      "inputs": [
        {
          "internalType": "bytes32",
          "name": "role",
          "type": "bytes32"
        },
        {
          "internalType": "address",
          "name": "account",
          "type": "address"
        }
      ],
      "name": "hasRole",
      "outputs": [
        {
          "internalType": "bool",
          "name": "",
          "type": "bool"
        }
      ],
      "stateMutability": "view",
      "type": "function"
    },
    {
      "inputs": [
        {
          "internalType": "address",
          "name": "anyswap",
          "type": "address"
        },
        {
          "internalType": "address",
          "name": "stakingRewards",
          "type": "address"
        },
        {
          "internalType": "uint256",
          "name": "maximumSwapAmount",
          "type": "uint256"
        },
        {
          "internalType": "uint256",
          "name": "minimumSwapAmount",
          "type": "uint256"
        },
        {
          "internalType": "uint256",
          "name": "maximumSwapFeeAmount",
          "type": "uint256"
        },
        {
          "internalType": "uint256",
          "name": "minimumSwapFeeAmount",
          "type": "uint256"
        }
      ],
      "name": "initialize",
      "outputs": [],
      "stateMutability": "nonpayable",
      "type": "function"
    },
    {
      "inputs": [],
      "name": "pause",
      "outputs": [],
      "stateMutability": "nonpayable",
      "type": "function"
    },
    {
      "inputs": [],
      "name": "paused",
      "outputs": [
        {
          "internalType": "bool",
          "name": "",
          "type": "bool"
        }
      ],
      "stateMutability": "view",
      "type": "function"
    },
    {
      "inputs": [
        {
          "internalType": "bytes32",
          "name": "role",
          "type": "bytes32"
        },
        {
          "internalType": "address",
          "name": "account",
          "type": "address"
        }
      ],
      "name": "renounceRole",
      "outputs": [],
      "stateMutability": "nonpayable",
      "type": "function"
    },
    {
      "inputs": [
        {
          "internalType": "bytes32",
          "name": "role",
          "type": "bytes32"
        },
        {
          "internalType": "address",
          "name": "account",
          "type": "address"
        }
      ],
      "name": "revokeRole",
      "outputs": [],
      "stateMutability": "nonpayable",
      "type": "function"
    },
    {
      "inputs": [
        {
          "internalType": "uint256",
          "name": "maximumSwapAmount",
          "type": "uint256"
        }
      ],
      "name": "setMaximumSwapAmount",
      "outputs": [],
      "stateMutability": "nonpayable",
      "type": "function"
    },
    {
      "inputs": [
        {
          "internalType": "uint256",
          "name": "maximumSwapFeeAmount",
          "type": "uint256"
        }
      ],
      "name": "setMaximumSwapFeeAmount",
      "outputs": [],
      "stateMutability": "nonpayable",
      "type": "function"
    },
    {
      "inputs": [
        {
          "internalType": "uint256",
          "name": "minimumSwapAmount",
          "type": "uint256"
        }
      ],
      "name": "setMinimumSwapAmount",
      "outputs": [],
      "stateMutability": "nonpayable",
      "type": "function"
    },
    {
      "inputs": [
        {
          "internalType": "uint256",
          "name": "minimumSwapFeeAmount",
          "type": "uint256"
        }
      ],
      "name": "setMinimumSwapFeeAmount",
      "outputs": [],
      "stateMutability": "nonpayable",
      "type": "function"
    },
    {
      "inputs": [
        {
          "internalType": "bytes4",
          "name": "interfaceId",
          "type": "bytes4"
        }
      ],
      "name": "supportsInterface",
      "outputs": [
        {
          "internalType": "bool",
          "name": "",
          "type": "bool"
        }
      ],
      "stateMutability": "view",
      "type": "function"
    },
    {
      "inputs": [],
      "name": "swapoutBalance",
      "outputs": [],
      "stateMutability": "nonpayable",
      "type": "function"
    },
    {
      "inputs": [],
      "name": "unpause",
      "outputs": [],
      "stateMutability": "nonpayable",
      "type": "function"
    }
  ],
  "transactionHash": "0x33c69db173fc823db3a5bada7dc09c98372e6beaa1e414b8b12329f52a00993c",
  "args": [],
  "solcInputHash": "773758c6cb7796fc33376193135cc715",
  "bytecode": "0x608060405234801561001057600080fd5b506115c8806100206000396000f3fe608060405234801561001057600080fd5b50600436106101735760003560e01c806386489ba9116100de578063b2f4d3a711610097578063ca15c87311610071578063ca15c873146102cb578063d547741f146102de578063e63ab1e9146102f1578063fea82f7c146102f957610173565b8063b2f4d3a7146102a8578063bdad80d0146102b0578063c17eefa9146102b857610173565b806386489ba91461023f5780639010d07c1461025257806391d148541461027257806395e0f2601461028557806399be46e31461028d578063a217fddf146102a057610173565b806336568abe1161013057806336568abe146101ee5780633f4ba83a146102015780635c975abb146102095780637b72715e146102115780638456cb59146102245780638501a3b11461022c57610173565b806301ffc9a71461017857806312065fe0146101a157806314623bb5146101b6578063248a9ca3146101be5780632f2ff15d146101d1578063317d0f40146101e6575b600080fd5b61018b6101863660046111e9565b610301565b60405161019891906112b2565b60405180910390f35b6101a961032e565b60405161019891906112bd565b6101a96103b4565b6101a96101cc366004611185565b6103ba565b6101e46101df36600461119d565b6103cf565b005b6101a96103f6565b6101e46101fc36600461119d565b6103fc565b6101e461041e565b61018b610476565b6101e461021f366004611185565b61047f565b6101e46104a0565b6101e461023a366004611185565b6104e8565b6101e461024d366004611111565b610509565b6102656102603660046111c8565b6105d9565b604051610198919061129e565b61018b61028036600461119d565b6105fa565b6101a9610625565b6101e461029b366004611185565b61062c565b6101a961064d565b610265610652565b6101e4610661565b6101e46102c6366004611185565b6107e2565b6101a96102d9366004611185565b610804565b6101e46102ec36600461119d565b61081b565b6101a9610825565b6101a9610837565b60006001600160e01b03198216635a05180f60e01b148061032657506103268261083d565b90505b919050565b60fc546040516370a0823160e01b81526000916001600160a01b0316906370a082319061035f90309060040161129e565b60206040518083038186803b15801561037757600080fd5b505afa15801561038b573d6000803e3d6000fd5b505050506040513d601f19601f820116820180604052508101906103af9190611211565b905090565b60fd5490565b60009081526065602052604090206001015490565b6103d98282610862565b60008281526097602052604090206103f19082610881565b505050565b60fe5490565b6104068282610896565b60008281526097602052604090206103f190826108dc565b60008051602061157383398151915261043e816104396108f1565b6108f5565b610446610476565b61046b5760405162461bcd60e51b8152600401610462906113bb565b60405180910390fd5b610473610959565b50565b60c95460ff1690565b60008051602061157383398151915261049a816104396108f1565b5060ff55565b6000805160206115738339815191526104bb816104396108f1565b6104c3610476565b156104e05760405162461bcd60e51b8152600401610462906113e9565b6104736109c7565b600080516020611573833981519152610503816104396108f1565b5060fe55565b600054610100900460ff1680610522575060005460ff16155b61053e5760405162461bcd60e51b815260040161046290611413565b600054610100900460ff16158015610569576000805460ff1961ff0019909116610100171660011790555b610571610a22565b610579610ab6565b60fc80546001600160a01b03808a166001600160a01b03199283161790925560fb80549289169290911691909117905560fd85905560fe84905560ff83905561010082905580156105d0576000805461ff00191690555b50505050505050565b60008281526097602052604081206105f19083610b26565b90505b92915050565b60009182526065602090815260408084206001600160a01b0393909316845291905290205460ff1690565b6101005490565b600080516020611573833981519152610647816104396108f1565b5060fd55565b600081565b60fb546001600160a01b031690565b60fc546040516370a0823160e01b81526000916001600160a01b0316906370a082319061069290309060040161129e565b60206040518083038186803b1580156106aa57600080fd5b505afa1580156106be573d6000803e3d6000fd5b505050506040513d601f19601f820116820180604052508101906106e29190611211565b905060fe548110156107065760405162461bcd60e51b815260040161046290611370565b600060fd548211610717578161071b565b60fd545b60fc5460fb54604051633146b65d60e11b81529293506001600160a01b039182169263628d6cba926107549286929116906004016114b0565b602060405180830381600087803b15801561076e57600080fd5b505af1158015610782573d6000803e3d6000fd5b505050506040513d601f19601f820116820180604052508101906107a69190611165565b507ff1337b76a38f2cb578f1a661cbecd130bb2b049d68d593bea534e2dce0c5f193816040516107d691906112bd565b60405180910390a15050565b6000805160206115738339815191526107fd816104396108f1565b5061010055565b600081815260976020526040812061032690610b32565b6104068282610b3d565b60008051602061157383398151915281565b60ff5490565b60006001600160e01b03198216637965db0b60e01b1480610326575061032682610b5c565b61086b826103ba565b610877816104396108f1565b6103f18383610b75565b60006105f1836001600160a01b038416610bfc565b61089e6108f1565b6001600160a01b0316816001600160a01b0316146108ce5760405162461bcd60e51b815260040161046290611461565b6108d88282610c46565b5050565b60006105f1836001600160a01b038416610ccb565b3390565b6108ff82826105fa565b6108d857610917816001600160a01b03166014610de2565b610922836020610de2565b604051602001610933929190611229565b60408051601f198184030181529082905262461bcd60e51b8252610462916004016112c6565b610961610476565b61097d5760405162461bcd60e51b8152600401610462906113bb565b60c9805460ff191690557f5db9ee0a495bf2e6ff9c91a7834c1ba4fdd244a5e8aa4e537bd38aeae4b073aa6109b06108f1565b6040516109bd919061129e565b60405180910390a1565b6109cf610476565b156109ec5760405162461bcd60e51b8152600401610462906113e9565b60c9805460ff191660011790557f62e78cea01bee320cd4e420270b5ea74000d11b0c9f74754ebdbfc544b05a2586109b06108f1565b600054610100900460ff1680610a3b575060005460ff16155b610a575760405162461bcd60e51b815260040161046290611413565b600054610100900460ff16158015610a82576000805460ff1961ff0019909116610100171660011790555b610a8a610f94565b610a92610f94565b610a9a610f94565b610aa2610f94565b8015610473576000805461ff001916905550565b600054610100900460ff1680610acf575060005460ff16155b610aeb5760405162461bcd60e51b815260040161046290611413565b600054610100900460ff16158015610b16576000805460ff1961ff0019909116610100171660011790555b610b1e610f94565b610aa2611007565b60006105f18383611085565b6000610326826110de565b610b46826103ba565b610b52816104396108f1565b6103f18383610c46565b6001600160e01b031981166301ffc9a760e01b14919050565b610b7f82826105fa565b6108d85760008281526065602090815260408083206001600160a01b03851684529091529020805460ff19166001179055610bb86108f1565b6001600160a01b0316816001600160a01b0316837f2f8788117e7eff1d82e926ec794901d17c78024a50270940304540a733656f0d60405160405180910390a45050565b6000610c0883836110e2565b610c3e575081546001818101845560008481526020808220909301849055845484825282860190935260409020919091556105f4565b5060006105f4565b610c5082826105fa565b156108d85760008281526065602090815260408083206001600160a01b03851684529091529020805460ff19169055610c876108f1565b6001600160a01b0316816001600160a01b0316837ff6391f5c32d9c69d2a47ea670b442974b53935d1edc7fd64eb21e047a839171b60405160405180910390a45050565b60008181526001830160205260408120548015610dd8576000610cef6001836114fe565b8554909150600090610d03906001906114fe565b90506000866000018281548110610d2a57634e487b7160e01b600052603260045260246000fd5b9060005260206000200154905080876000018481548110610d5b57634e487b7160e01b600052603260045260246000fd5b600091825260208083209091019290925582815260018901909152604090208490558654879080610d9c57634e487b7160e01b600052603160045260246000fd5b600190038181906000526020600020016000905590558660010160008781526020019081526020016000206000905560019450505050506105f4565b60009150506105f4565b60606000610df18360026114df565b610dfc9060026114c7565b67ffffffffffffffff811115610e2257634e487b7160e01b600052604160045260246000fd5b6040519080825280601f01601f191660200182016040528015610e4c576020820181803683370190505b509050600360fc1b81600081518110610e7557634e487b7160e01b600052603260045260246000fd5b60200101906001600160f81b031916908160001a905350600f60fb1b81600181518110610eb257634e487b7160e01b600052603260045260246000fd5b60200101906001600160f81b031916908160001a9053506000610ed68460026114df565b610ee19060016114c7565b90505b6001811115610f75576f181899199a1a9b1b9c1cb0b131b232b360811b85600f1660108110610f2357634e487b7160e01b600052603260045260246000fd5b1a60f81b828281518110610f4757634e487b7160e01b600052603260045260246000fd5b60200101906001600160f81b031916908160001a90535060049490941c93610f6e81611545565b9050610ee4565b5083156105f15760405162461bcd60e51b81526004016104629061133b565b600054610100900460ff1680610fad575060005460ff16155b610fc95760405162461bcd60e51b815260040161046290611413565b600054610100900460ff16158015610aa2576000805460ff1961ff0019909116610100171660011790558015610473576000805461ff001916905550565b600054610100900460ff1680611020575060005460ff16155b61103c5760405162461bcd60e51b815260040161046290611413565b600054610100900460ff16158015611067576000805460ff1961ff0019909116610100171660011790555b60c9805460ff191690558015610473576000805461ff001916905550565b815460009082106110a85760405162461bcd60e51b8152600401610462906112f9565b8260000182815481106110cb57634e487b7160e01b600052603260045260246000fd5b9060005260206000200154905092915050565b5490565b60009081526001919091016020526040902054151590565b80356001600160a01b038116811461032957600080fd5b60008060008060008060c08789031215611129578182fd5b611132876110fa565b9550611140602088016110fa565b95989597505050506040840135936060810135936080820135935060a0909101359150565b600060208284031215611176578081fd5b815180151581146105f1578182fd5b600060208284031215611196578081fd5b5035919050565b600080604083850312156111af578182fd5b823591506111bf602084016110fa565b90509250929050565b600080604083850312156111da578182fd5b50508035926020909101359150565b6000602082840312156111fa578081fd5b81356001600160e01b0319811681146105f1578182fd5b600060208284031215611222578081fd5b5051919050565b60007f416363657373436f6e74726f6c3a206163636f756e742000000000000000000082528351611261816017850160208801611515565b7001034b99036b4b9b9b4b733903937b6329607d1b6017918401918201528351611292816028840160208801611515565b01602801949350505050565b6001600160a01b0391909116815260200190565b901515815260200190565b90815260200190565b60006020825282518060208401526112e5816040850160208701611515565b601f01601f19169190910160400192915050565b60208082526022908201527f456e756d657261626c655365743a20696e646578206f7574206f6620626f756e604082015261647360f01b606082015260800190565b6020808252818101527f537472696e67733a20686578206c656e67746820696e73756666696369656e74604082015260600190565b6020808252602b908201527f4275726e536166653a2062616c616e6365206973206c657373207468616e206d60408201526a0696e696d616c20737761760ac1b606082015260800190565b60208082526014908201527314185d5cd8589b194e881b9bdd081c185d5cd95960621b604082015260600190565b60208082526010908201526f14185d5cd8589b194e881c185d5cd95960821b604082015260600190565b6020808252602e908201527f496e697469616c697a61626c653a20636f6e747261637420697320616c72656160408201526d191e481a5b9a5d1a585b1a5e995960921b606082015260800190565b6020808252602f908201527f416363657373436f6e74726f6c3a2063616e206f6e6c792072656e6f756e636560408201526e103937b632b9903337b91039b2b63360891b606082015260800190565b9182526001600160a01b0316602082015260400190565b600082198211156114da576114da61155c565b500190565b60008160001904831182151516156114f9576114f961155c565b500290565b6000828210156115105761151061155c565b500390565b60005b83811015611530578181015183820152602001611518565b8381111561153f576000848401525b50505050565b6000816115545761155461155c565b506000190190565b634e487b7160e01b600052601160045260246000fdfe65d7a28e3265b37a6474929f336521b332c1681b933f6cb9f3376673440d862aa2646970667358221220ae08603558876e17298f150a5efd5c3a7fc8b99994554f8a4fbd15722617357564736f6c63430008000033",
  "devdoc": {
    "kind": "dev",
    "methods": {
      "getRoleAdmin(bytes32)": {
        "details": "Returns the admin role that controls `role`. See {grantRole} and {revokeRole}. To change a role's admin, use {_setRoleAdmin}."
      },
      "getRoleMember(bytes32,uint256)": {
        "details": "Returns one of the accounts that have `role`. `index` must be a value between 0 and {getRoleMemberCount}, non-inclusive. Role bearers are not sorted in any particular way, and their ordering may change at any point. WARNING: When using {getRoleMember} and {getRoleMemberCount}, make sure you perform all queries on the same block. See the following https://forum.openzeppelin.com/t/iterating-over-elements-on-enumerableset-in-openzeppelin-contracts/2296[forum post] for more information."
      },
      "getRoleMemberCount(bytes32)": {
        "details": "Returns the number of accounts that have `role`. Can be used together with {getRoleMember} to enumerate all bearers of a role."
      },
      "grantRole(bytes32,address)": {
        "details": "Overload {grantRole} to track enumerable memberships"
      },
      "hasRole(bytes32,address)": {
        "details": "Returns `true` if `account` has been granted `role`."
      },
      "paused()": {
        "details": "Returns true if the contract is paused, and false otherwise."
      },
      "renounceRole(bytes32,address)": {
        "details": "Overload {renounceRole} to track enumerable memberships"
      },
      "revokeRole(bytes32,address)": {
        "details": "Overload {revokeRole} to track enumerable memberships"
      },
      "supportsInterface(bytes4)": {
        "details": "See {IERC165-supportsInterface}."
      }
    },
    "version": 1
  },
  "userdoc": {
    "kind": "user",
    "methods": {},
    "version": 1
  },
  "storageLayout": {
    "storage": [
      {
        "astId": 753,
        "contract": "contracts/BurnSafe.sol:BurnSafe",
        "label": "_initialized",
        "offset": 0,
        "slot": "0",
        "type": "t_bool"
      },
      {
        "astId": 756,
        "contract": "contracts/BurnSafe.sol:BurnSafe",
        "label": "_initializing",
        "offset": 1,
        "slot": "0",
        "type": "t_bool"
      },
      {
        "astId": 2658,
        "contract": "contracts/BurnSafe.sol:BurnSafe",
        "label": "__gap",
        "offset": 0,
        "slot": "1",
        "type": "t_array(t_uint256)50_storage"
      },
      {
        "astId": 2907,
        "contract": "contracts/BurnSafe.sol:BurnSafe",
        "label": "__gap",
        "offset": 0,
        "slot": "51",
        "type": "t_array(t_uint256)50_storage"
      },
      {
        "astId": 307,
        "contract": "contracts/BurnSafe.sol:BurnSafe",
        "label": "_roles",
        "offset": 0,
        "slot": "101",
        "type": "t_mapping(t_bytes32,t_struct(RoleData)302_storage)"
      },
      {
        "astId": 615,
        "contract": "contracts/BurnSafe.sol:BurnSafe",
        "label": "__gap",
        "offset": 0,
        "slot": "102",
        "type": "t_array(t_uint256)49_storage"
      },
      {
        "astId": 62,
        "contract": "contracts/BurnSafe.sol:BurnSafe",
        "label": "_roleMembers",
        "offset": 0,
        "slot": "151",
        "type": "t_mapping(t_bytes32,t_struct(AddressSet)3206_storage)"
      },
      {
        "astId": 219,
        "contract": "contracts/BurnSafe.sol:BurnSafe",
        "label": "__gap",
        "offset": 0,
        "slot": "152",
        "type": "t_array(t_uint256)49_storage"
      },
      {
        "astId": 814,
        "contract": "contracts/BurnSafe.sol:BurnSafe",
        "label": "_paused",
        "offset": 0,
        "slot": "201",
        "type": "t_bool"
      },
      {
        "astId": 905,
        "contract": "contracts/BurnSafe.sol:BurnSafe",
        "label": "__gap",
        "offset": 0,
        "slot": "202",
        "type": "t_array(t_uint256)49_storage"
      },
      {
        "astId": 9074,
        "contract": "contracts/BurnSafe.sol:BurnSafe",
        "label": "_stakingRewards",
        "offset": 0,
        "slot": "251",
        "type": "t_address"
      },
      {
        "astId": 9077,
        "contract": "contracts/BurnSafe.sol:BurnSafe",
        "label": "_anyswap",
        "offset": 0,
        "slot": "252",
        "type": "t_contract(AnyswapV5ERC20)9061"
      },
      {
        "astId": 9079,
        "contract": "contracts/BurnSafe.sol:BurnSafe",
        "label": "_maximumSwapAmount",
        "offset": 0,
        "slot": "253",
        "type": "t_uint256"
      },
      {
        "astId": 9081,
        "contract": "contracts/BurnSafe.sol:BurnSafe",
        "label": "_minimumSwapAmount",
        "offset": 0,
        "slot": "254",
        "type": "t_uint256"
      },
      {
        "astId": 9083,
        "contract": "contracts/BurnSafe.sol:BurnSafe",
        "label": "_maximumSwapFeeAmount",
        "offset": 0,
        "slot": "255",
        "type": "t_uint256"
      },
      {
        "astId": 9085,
        "contract": "contracts/BurnSafe.sol:BurnSafe",
        "label": "_minimumSwapFeeAmount",
        "offset": 0,
        "slot": "256",
        "type": "t_uint256"
      }
    ],
    "types": {
      "t_address": {
        "encoding": "inplace",
        "label": "address",
        "numberOfBytes": "20"
      },
      "t_array(t_bytes32)dyn_storage": {
        "base": "t_bytes32",
        "encoding": "dynamic_array",
        "label": "bytes32[]",
        "numberOfBytes": "32"
      },
      "t_array(t_uint256)49_storage": {
        "base": "t_uint256",
        "encoding": "inplace",
        "label": "uint256[49]",
        "numberOfBytes": "1568"
      },
      "t_array(t_uint256)50_storage": {
        "base": "t_uint256",
        "encoding": "inplace",
        "label": "uint256[50]",
        "numberOfBytes": "1600"
      },
      "t_bool": {
        "encoding": "inplace",
        "label": "bool",
        "numberOfBytes": "1"
      },
      "t_bytes32": {
        "encoding": "inplace",
        "label": "bytes32",
        "numberOfBytes": "32"
      },
      "t_contract(AnyswapV5ERC20)9061": {
        "encoding": "inplace",
        "label": "contract AnyswapV5ERC20",
        "numberOfBytes": "20"
      },
      "t_mapping(t_address,t_bool)": {
        "encoding": "mapping",
        "key": "t_address",
        "label": "mapping(address => bool)",
        "numberOfBytes": "32",
        "value": "t_bool"
      },
      "t_mapping(t_bytes32,t_struct(AddressSet)3206_storage)": {
        "encoding": "mapping",
        "key": "t_bytes32",
        "label": "mapping(bytes32 => struct EnumerableSetUpgradeable.AddressSet)",
        "numberOfBytes": "32",
        "value": "t_struct(AddressSet)3206_storage"
      },
      "t_mapping(t_bytes32,t_struct(RoleData)302_storage)": {
        "encoding": "mapping",
        "key": "t_bytes32",
        "label": "mapping(bytes32 => struct AccessControlUpgradeable.RoleData)",
        "numberOfBytes": "32",
        "value": "t_struct(RoleData)302_storage"
      },
      "t_mapping(t_bytes32,t_uint256)": {
        "encoding": "mapping",
        "key": "t_bytes32",
        "label": "mapping(bytes32 => uint256)",
        "numberOfBytes": "32",
        "value": "t_uint256"
      },
      "t_struct(AddressSet)3206_storage": {
        "encoding": "inplace",
        "label": "struct EnumerableSetUpgradeable.AddressSet",
        "members": [
          {
            "astId": 3205,
            "contract": "contracts/BurnSafe.sol:BurnSafe",
            "label": "_inner",
            "offset": 0,
            "slot": "0",
            "type": "t_struct(Set)2931_storage"
          }
        ],
        "numberOfBytes": "64"
      },
      "t_struct(RoleData)302_storage": {
        "encoding": "inplace",
        "label": "struct AccessControlUpgradeable.RoleData",
        "members": [
          {
            "astId": 299,
            "contract": "contracts/BurnSafe.sol:BurnSafe",
            "label": "members",
            "offset": 0,
            "slot": "0",
            "type": "t_mapping(t_address,t_bool)"
          },
          {
            "astId": 301,
            "contract": "contracts/BurnSafe.sol:BurnSafe",
            "label": "adminRole",
            "offset": 0,
            "slot": "1",
            "type": "t_bytes32"
          }
        ],
        "numberOfBytes": "64"
      },
      "t_struct(Set)2931_storage": {
        "encoding": "inplace",
        "label": "struct EnumerableSetUpgradeable.Set",
        "members": [
          {
            "astId": 2926,
            "contract": "contracts/BurnSafe.sol:BurnSafe",
            "label": "_values",
            "offset": 0,
            "slot": "0",
            "type": "t_array(t_bytes32)dyn_storage"
          },
          {
            "astId": 2930,
            "contract": "contracts/BurnSafe.sol:BurnSafe",
            "label": "_indexes",
            "offset": 0,
            "slot": "1",
            "type": "t_mapping(t_bytes32,t_uint256)"
          }
        ],
        "numberOfBytes": "64"
      },
      "t_uint256": {
        "encoding": "inplace",
        "label": "uint256",
        "numberOfBytes": "32"
      }
    }
  }
}