{
  "address": "0x0e2d507E3603825277c5e273824a3Dae12c85153",
  "abi": [
    {
      "inputs": [],
      "name": "a1",
      "outputs": [
        {
          "internalType": "uint64",
          "name": "",
          "type": "uint64"
        }
      ],
      "stateMutability": "view",
      "type": "function"
    },
    {
      "inputs": [],
      "name": "a2",
      "outputs": [
        {
          "internalType": "uint64",
          "name": "",
          "type": "uint64"
        }
      ],
      "stateMutability": "view",
      "type": "function"
    },
    {
      "inputs": [],
      "name": "a3",
      "outputs": [
        {
          "internalType": "uint64",
          "name": "",
          "type": "uint64"
        }
      ],
      "stateMutability": "view",
      "type": "function"
    },
    {
      "inputs": [],
      "name": "cur",
      "outputs": [
        {
          "internalType": "uint64",
          "name": "",
          "type": "uint64"
        }
      ],
      "stateMutability": "view",
      "type": "function"
    },
    {
      "inputs": [],
      "name": "generate",
      "outputs": [],
      "stateMutability": "nonpayable",
      "type": "function"
    },
    {
      "inputs": [],
      "name": "prev",
      "outputs": [
        {
          "internalType": "uint64",
          "name": "",
          "type": "uint64"
        }
      ],
      "stateMutability": "view",
      "type": "function"
    },
    {
      "inputs": [
        {
          "internalType": "uint64",
          "name": "max",
          "type": "uint64"
        }
      ],
      "name": "read",
      "outputs": [
        {
          "internalType": "uint64",
          "name": "",
          "type": "uint64"
        }
      ],
      "stateMutability": "view",
      "type": "function"
    },
    {
      "inputs": [],
      "name": "x",
      "outputs": [
        {
          "internalType": "uint64",
          "name": "",
          "type": "uint64"
        }
      ],
      "stateMutability": "view",
      "type": "function"
    }
  ],
  "transactionHash": "0x74d65273a7c98848a0c8e9b737f1656628afc80063c7a324448325d126ffd98a",
  "args": [],
  "solcInputHash": "773758c6cb7796fc33376193135cc715",
  "bytecode": "0x608060405234801561001057600080fd5b5061035d806100206000396000f3fe608060405234801561001057600080fd5b50600436106100885760003560e01c80634fe242511161005b5780634fe24251146100c557806389b8b492146100cd5780639426eef8146100e0578063969e9d0c146100e857610088565b80630c55699c1461008d578063119552a1146100ab5780632a1bbc34146100b3578063479c9254146100bd575b600080fd5b6100956100f0565b6040516100a291906102bc565b60405180910390f35b610095610107565b6100bb61010c565b005b610095610230565b610095610246565b6100956100db36600461028d565b61025d565b610095610283565b610095610288565b600054600160901b900467ffffffffffffffff1681565b601581565b6101176001436102d1565b6000805467ffffffffffffffff60501b1916600160501b924067ffffffffffffffff9081168402919091179182905562010000820481169290910416146101a7576000805467ffffffffffffffff60901b1969ffffffffffffffff0000198216600160501b9283900467ffffffffffffffff9081166201000002919091179182169290910416600160901b021790555b6000805467ffffffffffffffff60901b1980821667ffffffffffffffff600160901b9384900481811660159190911c6507ffffffffff161881168402919091178083169084900480831660239190911b6c07fffffffffffffff800000000161882168402179182169183900480821660049190911c670fffffffffffffff161816909102179055565b60005462010000900467ffffffffffffffff1681565b600054600160501b900467ffffffffffffffff1681565b6000805461027d908390600160901b900467ffffffffffffffff166102f4565b92915050565b600481565b602381565b60006020828403121561029e578081fd5b813567ffffffffffffffff811681146102b5578182fd5b9392505050565b67ffffffffffffffff91909116815260200190565b6000828210156102ef57634e487b7160e01b81526011600452602481fd5b500390565b600067ffffffffffffffff8084168061031b57634e487b7160e01b83526012600452602483fd5b9216919091069291505056fea264697066735822122041dbac9874c50e6d5b0c056c9a1be973eada2ec138c4974fdd116e38deb9322b64736f6c63430008000033",
  "devdoc": {
    "kind": "dev",
    "methods": {},
    "version": 1
  },
  "userdoc": {
    "kind": "user",
    "methods": {},
    "version": 1
  },
  "storageLayout": {
    "storage": [
      {
        "astId": 753,
        "contract": "contracts/PRNG.sol:PRNG",
        "label": "_initialized",
        "offset": 0,
        "slot": "0",
        "type": "t_bool"
      },
      {
        "astId": 756,
        "contract": "contracts/PRNG.sol:PRNG",
        "label": "_initializing",
        "offset": 1,
        "slot": "0",
        "type": "t_bool"
      },
      {
        "astId": 11467,
        "contract": "contracts/PRNG.sol:PRNG",
        "label": "prev",
        "offset": 2,
        "slot": "0",
        "type": "t_uint64"
      },
      {
        "astId": 11469,
        "contract": "contracts/PRNG.sol:PRNG",
        "label": "cur",
        "offset": 10,
        "slot": "0",
        "type": "t_uint64"
      },
      {
        "astId": 11471,
        "contract": "contracts/PRNG.sol:PRNG",
        "label": "x",
        "offset": 18,
        "slot": "0",
        "type": "t_uint64"
      }
    ],
    "types": {
      "t_bool": {
        "encoding": "inplace",
        "label": "bool",
        "numberOfBytes": "1"
      },
      "t_uint64": {
        "encoding": "inplace",
        "label": "uint64",
        "numberOfBytes": "8"
      }
    }
  }
}