{
  "address": "0x9BE9Ae46F17c56F3cF91FB6857521bC82e0A637e",
  "abi": [
    {
      "anonymous": false,
      "inputs": [
        {
          "indexed": false,
          "internalType": "uint256",
          "name": "amountPpk",
          "type": "uint256"
        },
        {
          "indexed": false,
          "internalType": "uint256",
          "name": "amountStaking",
          "type": "uint256"
        },
        {
          "indexed": false,
          "internalType": "uint256",
          "name": "amountTournaments",
          "type": "uint256"
        }
      ],
      "name": "AcceptedFundsDistributed",
      "type": "event"
    },
    {
      "anonymous": false,
      "inputs": [
        {
          "indexed": false,
          "internalType": "uint256",
          "name": "price",
          "type": "uint256"
        },
        {
          "indexed": false,
          "internalType": "uint256",
          "name": "spc",
          "type": "uint256"
        },
        {
          "indexed": false,
          "internalType": "uint256",
          "name": "balanceFromMint",
          "type": "uint256"
        }
      ],
      "name": "Initialize2",
      "type": "event"
    },
    {
      "anonymous": false,
      "inputs": [
        {
          "indexed": false,
          "internalType": "uint256",
          "name": "amount",
          "type": "uint256"
        }
      ],
      "name": "MintFundsAccepted",
      "type": "event"
    },
    {
      "anonymous": false,
      "inputs": [
        {
          "indexed": false,
          "internalType": "uint256",
          "name": "amount",
          "type": "uint256"
        }
      ],
      "name": "ResurrectionFundsAccepted",
      "type": "event"
    },
    {
      "anonymous": false,
      "inputs": [
        {
          "indexed": false,
          "internalType": "address",
          "name": "payee",
          "type": "address"
        },
        {
          "indexed": false,
          "internalType": "uint256",
          "name": "amount",
          "type": "uint256"
        }
      ],
      "name": "Transfer",
      "type": "event"
    },
    {
      "inputs": [],
      "name": "MINT_DIV",
      "outputs": [
        {
          "internalType": "uint256",
          "name": "",
          "type": "uint256"
        }
      ],
      "stateMutability": "view",
      "type": "function"
    },
    {
      "inputs": [],
      "name": "MINT_LPSTAKING_MUL",
      "outputs": [
        {
          "internalType": "uint256",
          "name": "",
          "type": "uint256"
        }
      ],
      "stateMutability": "view",
      "type": "function"
    },
    {
      "inputs": [],
      "name": "MINT_PPK_MUL",
      "outputs": [
        {
          "internalType": "uint256",
          "name": "",
          "type": "uint256"
        }
      ],
      "stateMutability": "view",
      "type": "function"
    },
    {
      "inputs": [],
      "name": "MINT_TOURNAMENTS_MUL",
      "outputs": [
        {
          "internalType": "uint256",
          "name": "",
          "type": "uint256"
        }
      ],
      "stateMutability": "view",
      "type": "function"
    },
    {
      "inputs": [
        {
          "internalType": "uint256",
          "name": "amount",
          "type": "uint256"
        }
      ],
      "name": "acceptMintFunds",
      "outputs": [],
      "stateMutability": "nonpayable",
      "type": "function"
    },
    {
      "inputs": [
        {
          "internalType": "uint256",
          "name": "amount",
          "type": "uint256"
        }
      ],
      "name": "acceptResurrectionFunds",
      "outputs": [],
      "stateMutability": "nonpayable",
      "type": "function"
    },
    {
      "inputs": [
        {
          "internalType": "address",
          "name": "to",
          "type": "address"
        },
        {
          "internalType": "uint256",
          "name": "prizeAmount",
          "type": "uint256"
        }
      ],
      "name": "awardLuckWheelSNK",
      "outputs": [],
      "stateMutability": "nonpayable",
      "type": "function"
    },
    {
      "inputs": [],
      "name": "getCyclesInDays",
      "outputs": [
        {
          "internalType": "uint256[3]",
          "name": "",
          "type": "uint256[3]"
        }
      ],
      "stateMutability": "view",
      "type": "function"
    },
    {
      "inputs": [],
      "name": "getLpStakingBalance",
      "outputs": [
        {
          "internalType": "uint256",
          "name": "",
          "type": "uint256"
        }
      ],
      "stateMutability": "view",
      "type": "function"
    },
    {
      "inputs": [],
      "name": "getPayTimes",
      "outputs": [
        {
          "internalType": "uint256[3]",
          "name": "",
          "type": "uint256[3]"
        }
      ],
      "stateMutability": "view",
      "type": "function"
    },
    {
      "inputs": [],
      "name": "getPayees",
      "outputs": [
        {
          "internalType": "address[3]",
          "name": "",
          "type": "address[3]"
        }
      ],
      "stateMutability": "view",
      "type": "function"
    },
    {
      "inputs": [],
      "name": "getPpkBalance",
      "outputs": [
        {
          "internalType": "uint256",
          "name": "",
          "type": "uint256"
        }
      ],
      "stateMutability": "view",
      "type": "function"
    },
    {
      "inputs": [],
      "name": "getSNKAddress",
      "outputs": [
        {
          "internalType": "address",
          "name": "",
          "type": "address"
        }
      ],
      "stateMutability": "view",
      "type": "function"
    },
    {
      "inputs": [],
      "name": "getSecondsInDay",
      "outputs": [
        {
          "internalType": "uint256",
          "name": "",
          "type": "uint256"
        }
      ],
      "stateMutability": "view",
      "type": "function"
    },
    {
      "inputs": [],
      "name": "getSharesInCentipercents",
      "outputs": [
        {
          "internalType": "uint256[3]",
          "name": "",
          "type": "uint256[3]"
        }
      ],
      "stateMutability": "view",
      "type": "function"
    },
    {
      "inputs": [],
      "name": "getTournamentsBalance",
      "outputs": [
        {
          "internalType": "uint256",
          "name": "",
          "type": "uint256"
        }
      ],
      "stateMutability": "view",
      "type": "function"
    },
    {
      "inputs": [
        {
          "internalType": "address",
          "name": "skill",
          "type": "address"
        },
        {
          "internalType": "address[3]",
          "name": "payees",
          "type": "address[3]"
        },
        {
          "internalType": "uint256[3]",
          "name": "sharesInCentipercents",
          "type": "uint256[3]"
        },
        {
          "internalType": "uint256[3]",
          "name": "cyclesInDays",
          "type": "uint256[3]"
        },
        {
          "internalType": "uint256",
          "name": "secondsInDay",
          "type": "uint256"
        }
      ],
      "name": "initialize",
      "outputs": [],
      "stateMutability": "nonpayable",
      "type": "function"
    },
    {
      "inputs": [
        {
          "internalType": "address",
          "name": "game",
          "type": "address"
        },
        {
          "internalType": "address",
          "name": "afterdeath",
          "type": "address"
        }
      ],
      "name": "initialize2",
      "outputs": [],
      "stateMutability": "nonpayable",
      "type": "function"
    },
    {
      "inputs": [
        {
          "internalType": "address",
          "name": "luckwheel",
          "type": "address"
        },
        {
          "internalType": "address",
          "name": "uniswap",
          "type": "address"
        },
        {
          "internalType": "address",
          "name": "snook",
          "type": "address"
        }
      ],
      "name": "initialize3",
      "outputs": [],
      "stateMutability": "nonpayable",
      "type": "function"
    },
    {
      "inputs": [
        {
          "internalType": "address",
          "name": "to",
          "type": "address"
        }
      ],
      "name": "mintLuckWheelSNOOK",
      "outputs": [
        {
          "internalType": "uint256",
          "name": "",
          "type": "uint256"
        }
      ],
      "stateMutability": "nonpayable",
      "type": "function"
    },
    {
      "inputs": [
        {
          "internalType": "address",
          "name": "recipient",
          "type": "address"
        },
        {
          "internalType": "uint256",
          "name": "amount",
          "type": "uint256"
        }
      ],
      "name": "payPpkRewards",
      "outputs": [],
      "stateMutability": "nonpayable",
      "type": "function"
    },
    {
      "inputs": [],
      "name": "transfer",
      "outputs": [],
      "stateMutability": "nonpayable",
      "type": "function"
    }
  ],
  "transactionHash": "0xdff07a4f8bcdedc76a8c53fa1485bcf77e575dc5c64800727736c1f1ff4b9854",
  "args": [],
  "solcInputHash": "773758c6cb7796fc33376193135cc715",
  "bytecode": "0x608060405234801561001057600080fd5b50611a06806100206000396000f3fe608060405234801561001057600080fd5b50600436106101425760003560e01c80637304ae80116100b85780638a4068dd1161007c5780638a4068dd1461023d5780639434b98914610245578063981d458e14610258578063daf0389f1461026b578063dbbad91614610273578063e60aa8001461028657610142565b80637304ae80146101ff5780637d817a3514610207578063825e9e621461020f5780638349bb451461022257806384b13ac71461022a57610142565b8063457df5e41161010a578063457df5e4146101b9578063497334c0146101c157806351176802146101d457806362a312d1146101dc57806369b321bf146101e45780636eddb880146101f757610142565b80630b751db514610147578063167a2e5a14610165578063170851551461017a57806321e7be901461018f57806327f38113146101a4575b600080fd5b61014f61028e565b60405161015c9190611574565b60405180910390f35b61016d61029d565b60405161015c91906115ff565b6101826102d8565b60405161015c9190611627565b6101a261019d366004611544565b6102de565b005b6101ac6103fa565b60405161015c91906115c5565b61018261043f565b6101826101cf366004611312565b610445565b61018261075e565b610182610764565b6101a26101f236600461135e565b61076b565b61016d6107d3565b610182610809565b610182610810565b6101a261021d366004611454565b610816565b610182610997565b6101a2610238366004611454565b61099d565b6101a2610a67565b6101a261025336600461132c565b610c8c565b6101a26102663660046113a0565b610e58565b61016d610f46565b6101a2610281366004611544565b610f7c565b610182611084565b600d546001600160a01b031690565b6102a56111cf565b6040805160608101918290529060079060039082845b8154815260200190600101908083116102bb575050505050905090565b60125490565b6010546001600160a01b031633146103115760405162461bcd60e51b8152600401610308906116d9565b60405180910390fd5b600d546010546040516323b872dd60e01b81526001600160a01b03928316926323b872dd926103499291169030908690600401611588565b602060405180830381600087803b15801561036357600080fd5b505af1158015610377573d6000803e3d6000fd5b505050506040513d601f19601f8201168201806040525081019061039b9190611524565b6103b75760405162461bcd60e51b815260040161030890611829565b6103c08161108b565b7f4c69f47073e16f4ac60a8f99d9d0760d38f49b67b75dac1e303e386e0b18ddee816040516103ef9190611627565b60405180910390a150565b6104026111cf565b6040805160608101918290529060019060039082845b81546001600160a01b03168152600190910190602001808311610418575050505050905090565b600e5490565b6014546000906001600160a01b031633146104725760405162461bcd60e51b8152600401610308906117c7565b6015546040805163b7d0020760e01b815290516000926001600160a01b03169163b7d00207916004808301926020929190829003018186803b1580156104b757600080fd5b505afa1580156104cb573d6000803e3d6000fd5b505050506040513d601f19601f820116820180604052508101906104ef919061155c565b90506000600f60009054906101000a90046001600160a01b03166001600160a01b031663bf499d5f6040518163ffffffff1660e01b815260040160206040518083038186803b15801561054157600080fd5b505afa158015610555573d6000803e3d6000fd5b505050506040513d601f19601f82011682018060405250810190610579919061155c565b600d54600f549192506001600160a01b039081169163095ea7b3911661059f8486611953565b6040518363ffffffff1660e01b81526004016105bc9291906115ac565b602060405180830381600087803b1580156105d657600080fd5b505af11580156105ea573d6000803e3d6000fd5b505050506040513d601f19601f8201168201806040525081019061060e9190611524565b50600f54604051630754301160e31b81526000916001600160a01b031690633aa180889061064190600190600401611627565b600060405180830381600087803b15801561065b57600080fd5b505af115801561066f573d6000803e3d6000fd5b505050506040513d6000823e601f3d908101601f19168201604052610697919081019061147d565b60165481519192506001600160a01b0316906323b872dd903090889085906000906106d257634e487b7160e01b600052603260045260246000fd5b60200260200101516040518463ffffffff1660e01b81526004016106f893929190611588565b600060405180830381600087803b15801561071257600080fd5b505af1158015610726573d6000803e3d6000fd5b505050508060008151811061074b57634e487b7160e01b600052603260045260246000fd5b602002602001015193505050505b919050565b61cd9881565b620f424081565b6014546001600160a01b0316156107945760405162461bcd60e51b8152600401610308906117fc565b601480546001600160a01b039485166001600160a01b031991821617909155601580549385169382169390931790925560168054919093169116179055565b6107db6111cf565b60408051606081019182905260048054825290916003906005602085018083116102bb575050505050905090565b620c0be181565b60115490565b6014546001600160a01b031633146108405760405162461bcd60e51b8152600401610308906117c7565b601354601254601154600d546040516370a0823160e01b81526000949392916001600160a01b0316906370a082319061087d903090600401611574565b60206040518083038186803b15801561089557600080fd5b505afa1580156108a9573d6000803e3d6000fd5b505050506040513d601f19601f820116820180604052508101906108cd919061155c565b6108d79190611972565b6108e19190611972565b6108eb9190611972565b90508181101561090d5760405162461bcd60e51b8152600401610308906116af565b600d5460405163a9059cbb60e01b81526001600160a01b039091169063a9059cbb9061093f90869086906004016115ac565b602060405180830381600087803b15801561095957600080fd5b505af115801561096d573d6000803e3d6000fd5b505050506040513d601f19601f820116820180604052508101906109919190611524565b50505050565b60135490565b600f546001600160a01b031633146109c75760405162461bcd60e51b815260040161030890611768565b80601160008282546109d99190611972565b9091555050600d5460405163a9059cbb60e01b81526001600160a01b039091169063a9059cbb90610a1090859085906004016115ac565b602060405180830381600087803b158015610a2a57600080fd5b505af1158015610a3e573d6000803e3d6000fd5b505050506040513d601f19601f82011682018060405250810190610a629190611524565b505050565b600d546040516370a0823160e01b81526000916001600160a01b0316906370a0823190610a98903090600401611574565b60206040518083038186803b158015610ab057600080fd5b505afa158015610ac4573d6000803e3d6000fd5b505050506040513d601f19601f82011682018060405250810190610ae8919061155c565b600154600e546007549293506000926001600160a01b03909216914291610b0e91611953565b600a8460038110610b2f57634e487b7160e01b600052603260045260246000fd5b0154610b3b919061191b565b1015610a6257600060648060048560038110610b6757634e487b7160e01b600052603260045260246000fd5b0154610b739087611953565b610b7d9190611933565b610b879190611933565b600d5460405163a9059cbb60e01b81529192506001600160a01b03169063a9059cbb90610bba90859085906004016115ac565b602060405180830381600087803b158015610bd457600080fd5b505af1158015610be8573d6000803e3d6000fd5b505050506040513d601f19601f82011682018060405250810190610c0c9190611524565b610c285760405162461bcd60e51b815260040161030890611872565b42600a8460038110610c4a57634e487b7160e01b600052603260045260246000fd5b01556040517f69ca02dd4edd7bf0a4abb9ed3b7af3f14778db5d61921c7dc7cd545266326de290610c7e90849084906115ac565b60405180910390a150505050565b600f546001600160a01b031615610cb55760405162461bcd60e51b815260040161030890611630565b600f80546001600160a01b038085166001600160a01b03199283161790925560108054848416921691909117908190556040805163938ce1f760e01b815290516706f05b59d3b2000093600093169163938ce1f7916004808301926020929190829003018186803b158015610d2957600080fd5b505afa158015610d3d573d6000803e3d6000fd5b505050506040513d601f19601f82011682018060405250810190610d61919061155c565b90506000610d6f8284611953565b600d546040516370a0823160e01b81529192506001600160a01b0316906370a0823190610da0903090600401611574565b60206040518083038186803b158015610db857600080fd5b505afa158015610dcc573d6000803e3d6000fd5b505050506040513d601f19601f82011682018060405250810190610df0919061155c565b811115610e0d57634e487b7160e01b600052600160045260246000fd5b610e168161108b565b7fbe797cab3345a570fbdb32ad5cd4990d6b17c432d44514924be2229cc3dead6d838383604051610e49939291906118ba565b60405180910390a15050505050565b600054610100900460ff1680610e71575060005460ff16155b610e8d5760405162461bcd60e51b81526004016103089061171a565b600054610100900460ff16158015610eb8576000805460ff1961ff0019909116610100171660011790555b610ec18461115c565b1515600114610ee25760405162461bcd60e51b81526004016103089061179f565b610eef60018660036111ed565b50610efd6004856003611245565b50610f0b6007846003611245565b50600d80546001600160a01b0319166001600160a01b038816179055600e8290558015610f3e576000805461ff00191690555b505050505050565b610f4e6111cf565b604080516060810191829052600a805482529091600390600b602085018083116102bb575050505050905090565b600f546001600160a01b03163314610fa65760405162461bcd60e51b815260040161030890611768565b600d54600f546040516323b872dd60e01b81526001600160a01b03928316926323b872dd92610fde9291169030908690600401611588565b602060405180830381600087803b158015610ff857600080fd5b505af115801561100c573d6000803e3d6000fd5b505050506040513d601f19601f820116820180604052508101906110309190611524565b61104c5760405162461bcd60e51b815260040161030890611667565b6110558161108b565b7f5d0046266db8bfaee26c30a36d0959ad82c1e6a72c394d9e8d75dc6c79e35a89816040516103ef9190611627565b620268c781565b6000620f424061109e620268c784611953565b6110a89190611933565b905080601360008282546110bc919061191b565b9091555060009050620f42406110d461cd9885611953565b6110de9190611933565b905080601260008282546110f2919061191b565b9091555060009050826111058386611972565b61110f9190611972565b90508060116000828254611123919061191b565b90915550506040517f0c1f0e5383a97ca17a3c712638a31f567d96221b788fcb38363327c33305c41990610c7e908390859087906118ba565b600080805b60038110156111b957606484826003811061118c57634e487b7160e01b600052603260045260246000fd5b602002015161119b9190611933565b6111a5908361191b565b9150806111b181611989565b915050611161565b506000606482116111c8575060015b9392505050565b60405180606001604052806003906020820280368337509192915050565b8260038101928215611235579160200282015b8281111561123557825182546001600160a01b0319166001600160a01b03909116178255602090920191600190910190611200565b50611241929150611273565b5090565b8260038101928215611235579160200282015b82811115611235578251825591602001919060010190611258565b5b808211156112415760008155600101611274565b80356001600160a01b038116811461075957600080fd5b600082601f8301126112af578081fd5b6040516060810181811067ffffffffffffffff821117156112d2576112d26119ba565b6040528083606081018610156112e6578384fd5b835b60038110156113075781358352602092830192909101906001016112e8565b509195945050505050565b600060208284031215611323578081fd5b6111c882611288565b6000806040838503121561133e578081fd5b61134783611288565b915061135560208401611288565b90509250929050565b600080600060608486031215611372578081fd5b61137b84611288565b925061138960208501611288565b915061139760408501611288565b90509250925092565b600080600080600061016086880312156113b8578081fd5b6113c186611288565b9450602087603f8801126113d3578182fd5b60036113e66113e1826118fa565b6118d0565b80838a0160808b018c8111156113fa578687fd5b865b8581101561141f5761140d83611288565b855293860193918601916001016113fc565b5082995061142d8d8261129f565b98505050505050506114428760e0880161129f565b94979396509194610140013592915050565b60008060408385031215611466578182fd5b61146f83611288565b946020939093013593505050565b6000602080838503121561148f578182fd5b825167ffffffffffffffff808211156114a6578384fd5b818501915085601f8301126114b9578384fd5b8151818111156114cb576114cb6119ba565b83810291506114db8483016118d0565b8181528481019084860184860187018a10156114f5578788fd5b8795505b838610156115175780518352600195909501949186019186016114f9565b5098975050505050505050565b600060208284031215611535578081fd5b815180151581146111c8578182fd5b600060208284031215611555578081fd5b5035919050565b60006020828403121561156d578081fd5b5051919050565b6001600160a01b0391909116815260200190565b6001600160a01b039384168152919092166020820152604081019190915260600190565b6001600160a01b03929092168252602082015260400190565b60608101818360005b60038110156115f65781516001600160a01b03168352602092830192909101906001016115ce565b50505092915050565b60608101818360005b60038110156115f6578151835260209283019290910190600101611608565b90815260200190565b6020808252601a908201527f54726561737572793a20416c7265616479206578656375746564000000000000604082015260600190565b60208082526028908201527f54726561737572793a207472616e736665722066726f6d20536e6f6f6b47616d604082015267194819985a5b195960c21b606082015260800190565b60208082526010908201526f4e6f7420656e6f7567682066756e647360801b604082015260600190565b60208082526021908201527f54726561737572793a204e6f74206166746572646561746820636f6e747261636040820152601d60fa1b606082015260800190565b6020808252602e908201527f496e697469616c697a61626c653a20636f6e747261637420697320616c72656160408201526d191e481a5b9a5d1a585b1a5e995960921b606082015260800190565b6020808252601b908201527f54726561737572793a204e6f742067616d6520636f6e74726163740000000000604082015260600190565b6020808252600e908201526d496e76616c69642073686172657360901b604082015260600190565b6020808252818101527f54726561737572793a204e6f74206c75636b776865656c20636f6e7472616374604082015260600190565b602080825260139082015272105b1c9958591e481a5b9a5d1a585b1a5e9959606a1b604082015260600190565b60208082526029908201527f54726561737572793a207472616e736665722066726f6d2041667465726465616040820152681d1a0819985a5b195960ba1b606082015260800190565b60208082526028908201527f54726561737572793a20636f756c64206e6f74207472616e7366657220746f20604082015267666f756e6465727360c01b606082015260800190565b9283526020830191909152604082015260600190565b60405181810167ffffffffffffffff811182821017156118f2576118f26119ba565b604052919050565b600067ffffffffffffffff821115611914576119146119ba565b5060200290565b6000821982111561192e5761192e6119a4565b500190565b60008261194e57634e487b7160e01b81526012600452602481fd5b500490565b600081600019048311821515161561196d5761196d6119a4565b500290565b600082821015611984576119846119a4565b500390565b600060001982141561199d5761199d6119a4565b5060010190565b634e487b7160e01b600052601160045260246000fd5b634e487b7160e01b600052604160045260246000fdfea26469706673582212208399ff2fd9fe8c1690f7b0a05552f4c6c6c23bc0b91d0974f1eb5d98e131a94564736f6c63430008000033",
  "devdoc": {
    "kind": "dev",
    "methods": {},
    "version": 1
  },
  "userdoc": {
    "kind": "user",
    "methods": {},
    "version": 1
  },
  "storageLayout": {
    "storage": [
      {
        "astId": 753,
        "contract": "contracts/Treasury.sol:Treasury",
        "label": "_initialized",
        "offset": 0,
        "slot": "0",
        "type": "t_bool"
      },
      {
        "astId": 756,
        "contract": "contracts/Treasury.sol:Treasury",
        "label": "_initializing",
        "offset": 1,
        "slot": "0",
        "type": "t_bool"
      },
      {
        "astId": 14661,
        "contract": "contracts/Treasury.sol:Treasury",
        "label": "_payees",
        "offset": 0,
        "slot": "1",
        "type": "t_array(t_address)3_storage"
      },
      {
        "astId": 14665,
        "contract": "contracts/Treasury.sol:Treasury",
        "label": "_sharesInCentipercents",
        "offset": 0,
        "slot": "4",
        "type": "t_array(t_uint256)3_storage"
      },
      {
        "astId": 14669,
        "contract": "contracts/Treasury.sol:Treasury",
        "label": "_cyclesInDays",
        "offset": 0,
        "slot": "7",
        "type": "t_array(t_uint256)3_storage"
      },
      {
        "astId": 14673,
        "contract": "contracts/Treasury.sol:Treasury",
        "label": "_payTimes",
        "offset": 0,
        "slot": "10",
        "type": "t_array(t_uint256)3_storage"
      },
      {
        "astId": 14676,
        "contract": "contracts/Treasury.sol:Treasury",
        "label": "_skill",
        "offset": 0,
        "slot": "13",
        "type": "t_contract(ISkillToken)9826"
      },
      {
        "astId": 14678,
        "contract": "contracts/Treasury.sol:Treasury",
        "label": "_secondsInDay",
        "offset": 0,
        "slot": "14",
        "type": "t_uint256"
      },
      {
        "astId": 14680,
        "contract": "contracts/Treasury.sol:Treasury",
        "label": "_game",
        "offset": 0,
        "slot": "15",
        "type": "t_address"
      },
      {
        "astId": 14682,
        "contract": "contracts/Treasury.sol:Treasury",
        "label": "_afterdeath",
        "offset": 0,
        "slot": "16",
        "type": "t_address"
      },
      {
        "astId": 14684,
        "contract": "contracts/Treasury.sol:Treasury",
        "label": "_ppkBalance",
        "offset": 0,
        "slot": "17",
        "type": "t_uint256"
      },
      {
        "astId": 14686,
        "contract": "contracts/Treasury.sol:Treasury",
        "label": "_stakingBalance",
        "offset": 0,
        "slot": "18",
        "type": "t_uint256"
      },
      {
        "astId": 14688,
        "contract": "contracts/Treasury.sol:Treasury",
        "label": "_tournamentsBalance",
        "offset": 0,
        "slot": "19",
        "type": "t_uint256"
      },
      {
        "astId": 14691,
        "contract": "contracts/Treasury.sol:Treasury",
        "label": "_luckwheel",
        "offset": 0,
        "slot": "20",
        "type": "t_contract(ILuckWheel)9601"
      },
      {
        "astId": 14694,
        "contract": "contracts/Treasury.sol:Treasury",
        "label": "_uniswap",
        "offset": 0,
        "slot": "21",
        "type": "t_contract(IUniswapUSDCSkill)10364"
      },
      {
        "astId": 14697,
        "contract": "contracts/Treasury.sol:Treasury",
        "label": "_snook",
        "offset": 0,
        "slot": "22",
        "type": "t_contract(SnookToken)13881"
      }
    ],
    "types": {
      "t_address": {
        "encoding": "inplace",
        "label": "address",
        "numberOfBytes": "20"
      },
      "t_array(t_address)3_storage": {
        "base": "t_address",
        "encoding": "inplace",
        "label": "address[3]",
        "numberOfBytes": "96"
      },
      "t_array(t_uint256)3_storage": {
        "base": "t_uint256",
        "encoding": "inplace",
        "label": "uint256[3]",
        "numberOfBytes": "96"
      },
      "t_bool": {
        "encoding": "inplace",
        "label": "bool",
        "numberOfBytes": "1"
      },
      "t_contract(ILuckWheel)9601": {
        "encoding": "inplace",
        "label": "contract ILuckWheel",
        "numberOfBytes": "20"
      },
      "t_contract(ISkillToken)9826": {
        "encoding": "inplace",
        "label": "contract ISkillToken",
        "numberOfBytes": "20"
      },
      "t_contract(IUniswapUSDCSkill)10364": {
        "encoding": "inplace",
        "label": "contract IUniswapUSDCSkill",
        "numberOfBytes": "20"
      },
      "t_contract(SnookToken)13881": {
        "encoding": "inplace",
        "label": "contract SnookToken",
        "numberOfBytes": "20"
      },
      "t_uint256": {
        "encoding": "inplace",
        "label": "uint256",
        "numberOfBytes": "32"
      }
    }
  }
}